:020000040000FA
:06000000C3EF5EF01200E8
:020006001200E6
:0600080012EF43F01200AC
:02000E00FEFFF3
:06001800B4EF43F01200FA
:02001E000200DE
:10002000CFBD0000DD020000140000000E00000043
:08003000FD02000002000000C7
:08003800D9CFE6FFE1CFD9FFAB
:10004000E150FD0FE96EFF0EDA20EA6EFF0ED88058
:10005000EE54030EED5402E2000E21D0FF0EE76EC7
:10006000FD0EDBCF1CF0FE0EE7501C161D6A1C5067
:10007000A96EFD0EFE0EDBCF1DF01DC01CF01D6A2B
:10008000030E1C14AA6EA69EA69CA680FB0EDBCFB8
:10009000E9FFFC0EDBCFEAFFA8CFEFFF010EE55230
:1000A000E7CFD9FF1200D9CFE6FFE1CFD9FF040E89
:1000B000E126010EDB6A020EDB6A030EDB6A080E24
:1000C000F36E030EDBCFF4FFF350F45C17E2030E84
:1000D000DBCFE6FF010EDBCF1CF0DB2A020EDBCF0D
:1000E0001DF001E3DB2A1CC0E6FF1DC0E6FF35D989
:1000F000E552E552E552030EDB2AE1D7090EF36E15
:10010000010EF3CFDBFF020EDB6A060EDF6EDFCFE0
:10011000E6FF010EDBCFE6FF020EDBCFE6FF1DD9C7
:10012000E552E552E5520A0EF36E010EF3CFDBFF06
:10013000020EDB6ADF6ADFCFE6FF010EDBCFE6FFF0
:10014000020EDBCFE6FF09D9E552E552E552020186
:10015000010E060E5D6F636B5E6B0B0EF36E010E90
:10016000F3CFDBFF020EDB6AD950010FE96EDACF65
:10017000EAFF0E0ED880EE54000EED5411E3010E8E
:10018000E66EDBCFE6FF020EDBCFE6FFE6D8E552F8
:10019000E552E552010EDB2A020EE6E3DB2AE4D744
:1001A000C7EC4AF035EC4CF0040EE15C02E2E16A87
:1001B000E552E16EE552E7CFD9FF1200D9CFE6FF55
:1001C000E1CFD9FF060EE126010EDB6A020EDB6AE3
:1001D000050EDB6A080EF36E050EDBCFF4FFF3505D
:1001E000F45C1FE2D9CFE6FFDACFE6FF010EDBCFEA
:1001F0001CF0DB2A020EDBCF1DF001E3DB2A1CC062
:10020000E6FF1DC0E6FF18DFE552E552E552E55274
:10021000050EDB50DF5C02E046DF8CD0050EDB2AEA
:10022000D9D7090EF36E010EF3CFDBFF020EDB6AA6
:10023000D9CFE6FFDACFE6FF010EDBCFE6FF020EF5
:10024000DBCFE6FFF9DEE552E552E552E552020169
:10025000010E5E6FDFCF5DF25E6B0B0EF36E010E73
:10026000F3CFDBFF020EDB6AD9CFE6FFDACFE6FF82
:10027000010EDBCF1CF0DB2A020EDBCF1DF001E309
:10028000DB2A1CC0E6FF1DC0E6FFD6DEE552E552C4
:10029000E552E552DF50E8B09582E8A09592D9CFBB
:1002A000E6FFDACFE6FF010EDBCF1CF0DB2A020E01
:1002B000DBCF1DF001E3DB2A1CC0E6FF1DC0E6FF1B
:1002C000BBDEE552E552E552E552DF50E8B09584D9
:1002D000E8A09594D9CFE6FFDACFE6FF010EDBCF99
:1002E0001CF0DB2A020EDBCF1DF001E3DB2A1CC071
:1002F000E6FF1DC0E6FFA0DEE552E552E552E552FD
:10030000DF50E8B09586E8A09596D9CFE6FFDACF22
:10031000E6FF010EDBCFE6FF020EDBCFE6FF8CDE51
:10032000E552E552E552E552DF50E8B09488E8A086
:100330009498BDD8060EE15C02E2E16AE552E16EF6
:10034000E552E7CFD9FF1200A1A803D0A198A69447
:10035000010C000CA6A2010C000CD9CFE6FFE1CFE6
:10036000D9FFE150FD0FE96EFF0EDA20EA6EFF0EB5
:10037000D880EE54030EED5402E2000E2CD0EADFDA
:100380000009FDE0FF0EE76EFD0EDBCF1CF0FE0E58
:10039000E7501C161D6A1C50A96EFD0EFE0EDBCF29
:1003A0001DF01DC01CF01D6A030E1C14AA6EFC0E6D
:1003B000DB50A86EA69EA69CA684F29E550EA76E44
:1003C000AA0EA76EA682C0DFFF08FDE0C3DF00090A
:1003D000FDE0F28E010EE552E7CFD9FF120067D89B
:1003E000E66EE66ADB0E1C6EB70E1D6E1E6A1CC042
:1003F000E6FFE66E1EC0E6FF140EE66E0C0EE66E1D
:10040000FCEC5CF01F6E070EE15E1F50140EE66EF2
:100410000C0EE66EAAEC3BF0E552E5520201635188
:10042000000828E2630507E16351E66EE66ACD0E37
:100430001C6EB70E06D06351E66EE66ABE0E1C6EE9
:10044000B70E1D6E1E6A1CC0E6FFE66E1EC0E6FFFC
:10045000140EE66E0C0EE66EFCEC5CF01F6E070EE2
:10046000E15E1F50140EE66E0C0EE66EAAEC3BF039
:10047000E552E552BD0E1C6EB70E1D6E1E6A1CC005
:10048000E6FFE66E1EC0E6FF140EE66E0C0EE66E8C
:10049000FCEC5CF01F6E050EE15E1F50140EE66E64
:1004A0000C0EE66EAAEC3BF0E552E5521200D9CFF5
:1004B000E6FFE1CFD9FF0B0EE1260A0EF36E050E23
:1004C000F3CFDBFF060EDB6AD950040FE66E000E99
:1004D000DA20E66E050EDBCFE6FF060EDBCFE6FF89
:1004E000ABDDE552E552E552E552040EDBCF63F297
:1004F0000201635102E1640E06D10F0EF36E050E88
:10050000F3CFDBFF060EDB6AD950040FE66E000E58
:10051000DA20E66E050EDBCF1CF0DB2A060EDBCF01
:100520001DF001E3DB2A1CC0E6FF1DC0E6FF84DDF1
:10053000E552E552E552E552040EDB50DE6EDD6A0F
:10054000D950040FE66E000EDA20E66E050EDBCF02
:100550001CF0DB2A060EDBCF1DF001E3DB2A1CC0FA
:10056000E6FF1DC0E6FF68DDE552E552E552E552C3
:10057000020EDB6A02016351F36E020EDBCFF4FF61
:10058000F350F45C01E381D0030EDB6A2A0EF36EB4
:10059000030EDBCFF4FFF350F45C74E2020EDB5089
:1005A0002A0DF3CF1CF0F4CF1DF0640E1C26050EAF
:1005B0001D22030EDB500F011C24E96E000E1D20CE
:1005C000EA6E040EDBCFEFFFD9CFE9FFDACFEAFF07
:1005D000000ED880EE54000EED5404E2DF06010E4A
:1005E00001E2DB06D9CFE9FFDACFEAFFEE50ED10EA
:1005F00034E1D950040FE66E000EDA20E66E050EE7
:10060000DBCF1CF0DB2A060EDBCF1DF001E3DB2A7B
:100610001CC0E6FF1DC0E6FF0FDDE552E552E552C6
:10062000E552040EDB50DE6EDD6AD950040FE66E33
:10063000000EDA20E66E050EDBCF1CF0DB2A060E7C
:10064000DBCF1DF001E3DB2A1CC0E6FF1DC0E6FF87
:10065000F3DCE552E552E552E552D9CFE9FFDACFB6
:10066000EAFFEE50ED1011E0050EDBCF1CF0060E98
:10067000DBCF1DF0000E1C5C040E1D5806E2030EBD
:10068000DB2A84D7020EDB2A75D71C6A040E1D6E86
:100690001E6A1F6A050EDBCF20F0060EDBCF21F0AD
:1006A000226A236A20501C5C066E21501D58076E7A
:1006B00022501E58086E23501F58096E640E0B6E90
:1006C0000C6A0D6A0E6A2FEC5EF002C006F003C0E1
:1006D00007F004C008F005C009F0F10E0B6E030E20
:1006E0000C6E0D6A0E6A1FEC5CF0070E06C0DBFF95
:1006F000080E07C0DBFF090E08C0DBFF0A0E09C0A9
:10070000DBFF070EDB501C6E0B0EE15C02E2E16AC0
:10071000E552E16E1C50E552E7CFD9FF1200D9CF68
:10072000E6FFE1CFD9FF0D0EE126020EDB6A030ED4
:10073000DB6A080E64C5DBFF060EDB6A070EDB6AA8
:10074000DF6A02016351DF5C6CE2010EDB6A2A0E94
:10075000F36E010EDBCFF4FFF350F45C60E2DF5088
:100760002A0DF3CF1DF0F4CF1EF0640E1D26050EEA
:100770001E22010EDB501D24E96E000E1E20EA6EC3
:10078000EFCF1CF0080EDB501C5C11E1060EDB2ADB
:10079000070E01E3DB2A060EDBCF1CF0070EDBCFD2
:1007A0001DF0000E1C5C010E1D5836E315D0D9500B
:1007B000020FE96EDACFEAFFEE0ED880EE54030E98
:1007C000ED540AE3D950020FE96EDACFEAFF020EC8
:1007D000EE26000EED2205D00201110E6A6F000E0A
:1007E000DCD1010EF36E060EF3CFDBFF070EDB6AE2
:1007F000DF502A0DF3CF1CF0F4CF1DF0640E1C2641
:10080000050E1D22010EDB501C24E96E000E1D207A
:10081000EA6E080EEFCFDBFF010EDB2A98D7DF2A46
:1008200090D7080E64C5DBFF060EDB6A070EDB6A95
:100830000F0EF36E090EF3CFDBFF0A0EDB6ADF6AE1
:1008400002016351DF5C01E3BCD0010EDB6A2A0EBA
:10085000F36E010EDBCFF4FFF350F45C01E3AFD095
:10086000DF502A0DF3CF1DF0F4CF1EF0640E1D26CD
:10087000050E1E22010EDB500F011D24E96E000E35
:100880001E20EA6EEFCF1CF0080EDB501C5C07E167
:10089000060EDB2A070E01E28FD0DB2A8DD0060E72
:1008A000DB50E76E0B0EE7CFDBFFD9500C0FE66E87
:1008B000000EDA20E66E090EDBCFE6FF0A0EDBCF74
:1008C000E6FF1CEC00F0E552E552E552E5520B0E56
:1008D000DB50F36E0C0EDB50F35C15E00B0EDBCF40
:1008E000E6FF090EDBCF1CF0DB2A0A0EDBCF1DF082
:1008F00001E3DB2A1CC0E6FF1DC0E6FF2EDDE5524A
:10090000E552E55205D0090EDB2A0A0E01E3DB2A87
:10091000080EDB50E76E0B0EE7CFDBFFD9500C0F54
:10092000E66E000EDA20E66E090EDBCFE6FF0A0E59
:10093000DBCFE6FF1CEC00F0E552E552E552E55254
:100940000B0EDB50F36E0C0EDB50F35C15E00B0E60
:10095000DBCFE6FF090EDBCF1CF0DB2A0A0EDBCF74
:100960001DF001E3DB2A1CC0E6FF1DC0E6FFF5DC3D
:10097000E552E552E55205D0090EDB2A0A0E01E3E5
:10098000DB2A010EF36E060EF3CFDBFF070EDB6AE8
:10099000DF502A0DF3CF1CF0F4CF1DF0640E1C269F
:1009A000050E1D22010EDB501C24E96E000E1D20D9
:1009B000EA6E080EEFCFDBFF010EDB2A48D7DF2AF5
:1009C0003FD7D950090FE96EDACFEAFFFD0ED88084
:1009D000EE54030EED5401E2A7D0060EDB50E76E95
:1009E0000B0EE7CFDBFFD9500C0FE66E000EDA20BE
:1009F000E66E090EDBCFE6FF0A0EDBCFE6FF1CEC4E
:100A000000F0E552E552E552E5520B0EDB50F36E75
:100A10000C0EDB50F35C15E00B0EDBCFE6FF090E8E
:100A2000DBCF1CF0DB2A0A0EDBCF1DF001E3DB2A53
:100A30001CC0E6FF1DC0E6FF90DCE552E552E55222
:100A400005D0090EDB2A0A0E01E3DB2A080EDB5073
:100A5000E76E0B0EE7CFDBFFD9500C0FE66E000EF2
:100A6000DA20E66E090EDBCFE6FF0A0EDBCFE6FFEB
:100A70001CEC00F0E552E552E552E5520B0EDB505E
:100A8000F36E0C0EDB50F35C15E00B0EDBCFE6FFD4
:100A9000090EDBCF1CF0DB2A0A0EDBCF1DF001E3D1
:100AA000DB2A1CC0E6FF1DC0E6FF57DCE552E5521D
:100AB000E55205D0090EDB2A0A0E01E3DB2A0B0EF4
:100AC000DB6AD9500C0FE66E000EDA20E66E090ED6
:100AD000DBCFE6FF0A0EDBCFE6FF1CEC00F0E552B1
:100AE000E552E552E5520B0EDB50F36E0C0EDB5077
:100AF000F35C15E00B0EDBCFE6FF090EDBCF1CF03D
:100B0000DB2A0A0EDBCF1DF001E3DB2A1CC0E6FF67
:100B10001DC0E6FF22DCE552E552E55205D0090E84
:100B2000DB2A0A0E01E3DB2A0A0EF36E090EF3CF6D
:100B3000DBFF0A0EDB6A0B0E63C2DBFFD9500C0F22
:100B4000E66E000EDA20E66E090EDBCFE6FF0A0E37
:100B5000DBCFE6FF1CEC00F0E552E552E552E55232
:100B60000B0EDB50F36E0C0EDB50F35C15E00B0E3E
:100B7000DBCFE6FF090EDBCF1CF0DB2A0A0EDBCF52
:100B80001DF001E3DB2A1CC0E6FF1DC0E6FFADEC53
:100B900001F0E552E552E552010E1C6E0D0EE15CCE
:100BA00002E2E16AE552E16E1C50E552E7CFD9FF5F
:100BB0001200D9CFE6FFE1CFD9FF300EF36EFE0E63
:100BC000DBCFF4FFF350F45C06E3FE0EDB50390894
:100BD00002E3010E01D0000EE552E7CFD9FF12006B
:100BE000D9CFE6FFE1CFD9FF610EF36EFE0EDBCF6A
:100BF000F4FFF350F45C04E3FE0EDB5066080CE2F5
:100C0000410EF36EFE0EDBCFF4FFF350F45C06E30F
:100C1000FE0EDB50460802E3010E01D0000EE55245
:100C2000E7CFD9FF1200D9CFE6FFE1CFD9FFE652D7
:100C3000610EF36EFE0EDBCFF4FFF350F45C08E3BD
:100C4000FE0EDB507A0804E3FE0EDB50E00F02D00C
:100C5000FE0EDB50DF6EDF50E552E552E7CFD9FFE5
:100C60001200D9CFE6FFE1CFD9FF050EE126DE6AFB
:100C7000DD6A020EDB6AFD0EDBCFE9FFFE0EDBCF85
:100C8000EAFFEF502D0801E1D7D0FD0EDBCFE9FFE1
:100C9000FE0EDBCFEAFFEF502B0805E1FD0EDB2A4D
:100CA000FE0E01E3DB2AD950FB0FE96EFF0EDA20BE
:100CB000EA6EEE50ED104DE1FD0EDBCFE9FFFE0ECA
:100CC000DBCFEAFFEF5030083DE1FD0EDB2AFE0EE0
:100CD00001E3DB2A010EF36E020EF3CFDBFFFD0E04
:100CE000DBCFE9FFFE0EDBCFEAFFEF5001E1CFD013
:100CF000FD0EDBCFE9FFFE0EDBCFEAFFEF50200851
:100D000001E1C5D0FD0EDBCFE9FFFE0EDBCFEAFF30
:100D1000EF50780809E0FD0EDBCFE9FFFE0EDBCFD8
:100D2000EAFFEF50580815E1FD0EDB2AFE0E01E345
:100D3000DB2A100EF36EFB0EF3CFDBFFFC0EDB6A3B
:100D4000020E06D00A0EF36EFB0EF3CFDBFFFC0E95
:100D5000DB6ADE6ADD6AFD0EDBCFE9FFFE0EDBCF6C
:100D6000EAFFEF5001E18CD0FD0EDBCFE9FFFE0E74
:100D7000DBCFEAFFEF50200801E182D0FD0EDBCF90
:100D8000E9FFFE0EDBCFEAFFEF50E66E12DFE55221
:100D9000000909E0FD0EDBCFE9FFFE0EDBCFEAFF25
:100DA000EF50D00F23D0D950FB0FE96EFF0EDA20A1
:100DB000EA6E100EEE1864E1ED5062E1FD0EDBCF3D
:100DC000E9FFFE0EDBCFEAFFEF50E66E09DFE552EA
:100DD000000956E0FD0EDBCFE9FFFE0EDBCFEAFF98
:100DE000EF50E66E20DFE552BF0F0A0FE66ED950D6
:100DF000030FE96EDACFEAFFE552E750EE6EED6AD7
:100E0000010EF36E020EF3CFDBFF030EDBCF1CF0FF
:100E1000040EDBCF1DF0FB0EDBCF1EF0FC0EDBCF94
:100E20001FF01D501F18E8AE02D01F3404D01E5012
:100E30001C5C1F501D5802E3220E26D0030EDBCF90
:100E40001EF0040EDBCF1FF0FB0EDBCF08F0FC0E14
:100E5000DBCF09F0DECF0DF0DDCF0EF080EC5CF0E3
:100E600006501E241C6E07501F201D6E1CC0DEFF86
:100E7000DD6EFD0EDB2AFE0E01E26DD7DB2A6BD79D
:100E8000020EDB5004E1160E0201FB6FFC6BDECF9D
:100E90001CF0DDCF1DF01CC0F3FF1DC0F4FF050EDC
:100EA000E15C02E2E16AE552E16EE552E7CFD9FF8B
:100EB000120002016A51E66EE66AB20E1C6EB70EAF
:100EC0001D6E1E6A1CC0E6FFE66E1EC0E6FF140E15
:100ED000E66E0C0EE66EFCEC5CF01F6E070EE15E3B
:100EE0001F5002016A51080A01E1A3D0100A01E172
:100EF0009CD00D0A01E195D0010A01E18ED0070ACC
:100F000001E187D0010A01E180D0030A01E179D033
:100F1000010A73E01F0A6DE0010A67E0030A61E05D
:100F2000010A5BE0060A55E0030A4FE00E0A49E0B9
:100F30001C0A43E0010A3DE0030A37E0120A31E0EF
:100F40001C0A2BE0010A25E0100A1FE0030A19E041
:100F5000010A13E0070A0DE0010A07E0030A01E0B5
:100F60007BD0A40E1C6EB70E67D0950E1C6EB70E0C
:100F700063D0820E1C6EB70E5FD0770E1C6EB70E5C
:100F80005BD06A0E1C6EB70E57D05A0E1C6EB70E91
:100F900053D0490E1C6EB70E4FD0390E1C6EB70ED3
:100FA0004BD02A0E1C6EB70E47D0140E1C6EB70E17
:100FB00043D0000E1C6EB70E3FD0E80E1C6EB60E6E
:100FC0003BD0D50E1C6EB60E37D0C60E1C6EB60EBC
:100FD00033D0B80E1C6EB60E2FD0A80E1C6EB60EF7
:100FE0002BD0940E1C6EB60E27D0830E1C6EB60E40
:100FF00023D0740E1C6EB60E1FD0610E1C6EB60E82
:101000001BD0480E1C6EB60E17D03A0E1C6EB60ED4
:1010100013D0260E1C6EB60E0FD00B0E1C6EB60E25
:101020000BD0F30E1C6EB50E07D0E10E1C6EB50E84
:1010300003D0D30E1C6EB50E1D6E1E6A1CC0E6FFDB
:10104000E66E1EC0E6FF140EE66E0C0EE66EFCECBD
:101050005CF01F6E050E15D06A51E66EE66AC00E92
:101060001C6EB50E1D6E1E6A1CC0E6FFE66E1EC02D
:10107000E6FF140EE66E0C0EE66EFCEC5CF01F6EE6
:10108000070EE15E1F50140EE66E0C0EE66EAAEC23
:101090003BF0E552E552BD0E1C6EB70E1D6E1E6A8A
:1010A0001CC0E6FFE66E1EC0E6FF140EE66E0C0ED8
:1010B000E66EFCEC5CF01F6E050EE15E1F50140E38
:1010C000E66E0C0EE66EAAEC3BF0E552E55202012C
:1010D0006A6B1200D9CFE6FFE1CFD9FF0C0EE126F3
:1010E000DF6A010EDB6ADF6ADF501C6E1D6AE66E86
:1010F0001DC0E6FFFD0EDBCFE6FFFE0EDBCFE6FFF9
:101100009EEC5CF0E552E552E552E7CF1DF0E5526A
:10111000E7CF1CF0F3CF1EF0F4CF1FF01D50F418F2
:10112000E8AE02D01F3404D01E501C5C1F501D5866
:1011300001E3AFD0DF50E76EFD0EDBCFE9FFFE0E1F
:10114000DBCFEAFFE750E926000EEA22EF50200845
:1011500008E1F90EDBCFE9FFFA0EDBCFEAFFEF2A59
:1011600096D0DF50E76EFD0EDBCFE9FFFE0EDBCF42
:10117000EAFFE750E926000EEA22EF50E66ED9506A
:10118000020F1C6EDACF1DF0010EDBCFF3FFDB2A5E
:10119000F3500F011C24E96E000EDA20EA6EE552CE
:1011A000E750EF6EF90EDBCFE9FFFA0EDBCFEAFF77
:1011B000EF2AFB0EDBCFE6FFFC0EDBCFE6FF9EEC5B
:1011C0005CF0E552E552F3CF1EF0F4CF1FF0F3CF01
:1011D000E6FFF4CFE6FFFB0EDBCFE6FFFC0EDBCF36
:1011E000E6FFD950020FE66E000EDA20E66EACEC98
:1011F0005CF0206E060EE15E2050F350F41002E128
:10120000010E4BD0010EDB501C6E1D6AE66E1DC038
:10121000E6FFFB0EDBCFE6FFFC0EDBCFE6FF9EEC2E
:101220005CF0E552E552E552E7CF1DF0E552E7CF1D
:101230001CF0F3CF20F0F4CF21F0D890F45004E666
:10124000090E205C000E215819E21CC0E6FF1DC0EB
:10125000E6FFFB0EDBCFE6FFFC0EDBCFE6FF9EECEE
:101260005CF0E552E552E552E7CF1DF0E552E7CFDD
:101270001CF0F3CF1EF0F4CF1FF003D0090E1E6E4A
:101280001F6A1E501C1803E11F501D1802E0DF2AC0
:101290002BD70201010E6A6F000E1C6E0C0EE15C72
:1012A00002E2E16AE552E16E1C50E552E7CFD9FF58
:1012B0001200D9CFE6FFE1CFD9FF050EE126DF6AA4
:1012C000010EDB6A0201FB6BFC6BDF50E76EFD0E6B
:1012D000DBCFE9FFFE0EDBCFEAFFE750E926000E89
:1012E000EA22EF5020082EE1DF501C6E1D6AE66EE8
:1012F0001DC0E6FFFD0EDBCFE6FFFE0EDBCFE6FFF7
:101300009EEC5CF0E552E552E552E7CF1DF0E55268
:10131000E7CF1CF0F3CF1EF0F4CF1FF01D50F418F0
:10132000E8AE02D01F3404D01E501C5C1F501D5864
:1013300009E2F90EDBCFE9FFFA0EDBCFEAFFEF2A75
:10134000DF2AC3D7000EE66EE66ADF50E76EFD0EB9
:10135000DBCF1CF0FE0EDBCF1DF0E7501C26000E8D
:101360001D221CC0E6FF1DC0E6FF7BDCE552E552F6
:10137000E552E552030EF3CFDBFF040EF4CFDBFFA3
:101380000201220EFB1901E1FC5105E0160EFB19CA
:1013900005E1FC5103E1020EDB6A05D0010EF36E9C
:1013A000020EF3CFDBFFD950030FE96EDACFEAFF6D
:1013B000FF0ED880EE54000EED540BE2220EFB1906
:1013C00001E1FC5102E0000E01D0010E0201040E09
:1013D0004DD0020EDB0448E1DF50E76EFD0EDBCF9F
:1013E000E9FFFE0EDBCFEAFFE750E926000EEA2216
:1013F000EF5020082EE0DF501C6E1D6AE66E1DC007
:10140000E6FFFD0EDBCFE6FFFE0EDBCFE6FF9EEC38
:101410005CF0E552E552E552E7CF1DF0E552E7CF2B
:101420001CF0F3CF1EF0F4CF1FF01D50F418E8AEFF
:1014300002D01F3404D01E501C5C1F501D5809E2FE
:10144000F90EDBCFE9FFFA0EDBCFEAFFEF2ADF2A46
:10145000C3D7FB0EDBCFE9FFFC0EDBCFEAFF030EA9
:10146000DBCFEFFF010E04D00201020E6A6F000E07
:101470001C6E050EE15C02E2E16AE552E16E1C5071
:10148000E552E7CFD9FF1200D9CFE6FFE1CFD9FF70
:10149000020EE126010EDB6ADF6A030EF36E010E17
:1014A000DBCFF4FFF350F45C01E399D0FB0EDBCF0C
:1014B000E9FFFC0EDBCFEAFFEF50E76EFD0EDBCF5E
:1014C000E9FFFE0EDBCFEAFFE750E926000EEA2235
:1014D000EF5020085EE0010EDB5005E1DF5003E134
:1014E0000201120E79D0FB0EDBCFE9FFFC0EDBCF41
:1014F000EAFFEF501C6E1D6AE66E1DC0E6FFFD0E92
:10150000DBCFE6FFFE0EDBCFE6FF9EEC5CF0E552A4
:10151000E552E552E7CF1DF0E552E7CF1CF0F3CFDF
:101520001EF0F4CF1FF0F3501C180AE11F501D18D5
:1015300007E1010EDB50000839E302011B0E4CD01D
:10154000FB0EDBCFE9FFFC0EDBCFEAFFEF50EF2A0B
:10155000E76EFD0EDBCFE9FFFE0EDBCFEAFFE750C3
:10156000E926000EEA22EF50E66E010EDBCFF3FF14
:10157000DB2AF350E76EF90EDBCFE9FFFA0EDBCF83
:10158000EAFFE750E926000EEA22E552E750EF6E47
:101590001CD0010EDB500AE1010EDF6EFB0EDBCF2B
:1015A000E9FFFC0EDBCFEAFFEF2A0FD0010EDB5084
:1015B000E76EF90EDBCFE9FFFA0EDBCFEAFFE7506B
:1015C000E926000EEA22EF6A0AD0010EDB5003087A
:1015D00001E063D70201130E6A6F000E01D0010E05
:1015E0001C6E020EE15C02E2E16AE552E16E1C5003
:1015F000E552E7CFD9FF1200D9CFE6FFE1CFD9FFFF
:101600000E0EE126DF6A010EDB6AFB0EDBCFE6FF82
:10161000FC0EDBCFE6FF17EC25F0E552E552BB0EE2
:101620001C6EB50E1D6E1E6A1CC0E6FFE66E1EC067
:10163000E6FFD950020FE66E000EDA20E66EFCECF3
:101640005CF01F6E050EE15E1F50D9CFE6FFDACFCA
:10165000E6FFD950020FE66E000EDA20E66EDF508C
:10166000E76EFD0EDBCF1CF0FE0EDBCF1DF0E7506A
:101670001C26000E1D221CC0E6FF1DC0E6FF2ADD51
:101680001E6E060EE15E1E5000090EE0020EE76EB1
:10169000FB0EDBCFE9FFFC0EDBCFEAFFE750E926CC
:1016A000000EEA22040E45D0B40E1C6EB50E1D6E5F
:1016B0001E6A1CC0E6FFE66E1EC0E6FFD950020F90
:1016C000E66E000EDA20E66EFCEC5CF01F6E050E96
:1016D000E15E1F50DF6AD9CFE6FFDACFE6FFD950CF
:1016E000020FE66E000EDA20E66EDF50E76EFD0EAA
:1016F000DBCF1CF0FE0EDBCF1DF0E7501C26000EEA
:101700001D221CC0E6FF1DC0E6FFE4DC1E6E060EB7
:10171000E15E1E5000091EE0020EE76EFB0EDBCFFD
:10172000E9FFFC0EDBCFEAFFE750E926000EEA22D4
:10173000050EEF6E010EE76EFB0EDBCFE9FFFC0E30
:10174000DBCFEAFFE750E926000EEA2206C2EFFFF0
:1017500034EF22F0B00E1C6EB50E1D6E1E6A1CC05A
:10176000E6FFE66E1EC0E6FFD950020FE66E000EE1
:10177000DA20E66EFCEC5CF01F6E050EE15E1F5099
:10178000DF6AD9CFE6FFDACFE6FFD950020FE66E67
:10179000000EDA20E66EDF50E76EFD0EDBCF1CF0A8
:1017A000FE0EDBCF1DF0E7501C26000E1D221CC0D4
:1017B000E6FF1DC0E6FF8EDC1E6E060EE15E1E50CB
:1017C00000093DE0020EE76EFB0EDBCFE9FFFC0EE9
:1017D000DBCFEAFFE750E926000EEA22230EEF6E88
:1017E000D9CFE6FFDACFE6FF010EE76EFB0EDBCFC7
:1017F0001CF0FC0EDBCF1DF0E7501C26000E1D2256
:101800001CC0E6FF1DC0E6FFDF50E76EFD0EDBCF1C
:101810001EF0FE0EDBCF1FF0E7501E26000E1F222B
:101820001EC0E6FF1FC0E6FF44DD206E060EE15E2F
:101830002050000902E132EF22F034EF22F0AA0E2C
:101840001C6EB50E1D6E1E6A1CC0E6FFE66E1EC045
:10185000E6FFD950020FE66E000EDA20E66EFCECD1
:101860005CF01F6E050EE15E1F50DF6AD9CFE6FF08
:10187000DACFE6FFD950020FE66E000EDA20E66EF0
:10188000DF50E76EFD0EDBCF1CF0FE0EDBCF1DF050
:10189000E7501C26000E1D221CC0E6FF1DC0E6FFFF
:1018A00019DC1E6E060EE15E1E5000093DE0020EC0
:1018B000E76EFB0EDBCFE9FFFC0EDBCFEAFFE75064
:1018C000E926000EEA22240EEF6ED9CFE6FFDACF2A
:1018D000E6FF010EE76EFB0EDBCF1CF0FC0EDBCF4C
:1018E0001DF0E7501C26000E1D221CC0E6FF1DC087
:1018F000E6FFDF50E76EFD0EDBCF1EF0FE0EDBCF06
:101900001FF0E7501E26000E1F221EC0E6FF1FC05C
:10191000E6FFCFDC206E060EE15E2050000902E0FB
:1019200034EF22F032EF22F0DF6AA50E1C6EB50E06
:101930001D6E1E6A1CC0E6FFE66E1EC0E6FFD95093
:10194000020FE66E000EDA20E66EFCEC5CF01F6E15
:10195000050EE15E1F50D9CFE6FFDACFE6FFD95082
:10196000020FE66E000EDA20E66EDF50E76EFD0E27
:10197000DBCF1CF0FE0EDBCF1DF0E7501C26000E67
:101980001D221CC0E6FF1DC0E6FF6AEC08F01E6EBB
:10199000060EE15E1E50000902E183EF1AF0FB0E15
:1019A000DBCFE9FFFC0EDBCFEAFF010EEF6ED9CFF4
:1019B000E6FFDACFE6FFE76EFB0EDBCF1CF0FC0E96
:1019C000DBCF1DF0E7501C26000E1D221CC0E6FFD9
:1019D0001DC0E6FFDF50E76EFD0EDBCF1EF0FE0EF2
:1019E000DBCF1FF0E7501E26000E1F221EC0E6FFB1
:1019F0001FC0E6FF5EDC206E060EE15E205000098F
:101A000002E132EF22F0010EDFCFDBFFA10E1C6EF0
:101A1000B50E1D6E1E6A1CC0E6FFE66E1EC0E6FF18
:101A2000D950020FE66E000EDA20E66EFCEC5CF098
:101A30001F6E050EE15E1F50D9CFE6FFDACFE6FF3D
:101A4000D950020FE66E000EDA20E66EDF50E76E28
:101A5000FD0EDBCF1CF0FE0EDBCF1DF0E7501C2689
:101A6000000E1D221CC0E6FF1DC0E6FF6AEC08F058
:101A70001E6E060EE15E1E5000091DE0230EE76E8D
:101A8000FB0EDBCFE9FFFC0EDBCFEAFFE750E926D8
:101A9000000EEA22010EEF6E240EE76EFB0EDBCF86
:101AA000E9FFFC0EDBCFEAFFE750E926000EEA2251
:101AB000030E8FEF21F09D0E1C6EB50E1D6E1E6A7B
:101AC0001CC0E6FFE66E1EC0E6FFD950020FE66EB0
:101AD000000EDA20E66EFCEC5CF01F6E050EE15E97
:101AE0001F50010EDB50DF6ED9CFE6FFDACFE6FFE5
:101AF000D950020FE66E000EDA20E66EDF50E76E78
:101B0000FD0EDBCF1CF0FE0EDBCF1DF0E7501C26D8
:101B1000000E1D221CC0E6FF1DC0E6FF6AEC08F0A7
:101B20001E6E060EE15E1E5000091DE0230EE76EDC
:101B3000FB0EDBCFE9FFFC0EDBCFEAFFE750E92627
:101B4000000EEA22010EEF6E240EE76EFB0EDBCFD5
:101B5000E9FFFC0EDBCFEAFFE750E926000EEA22A0
:101B6000060E8FEF21F0980E1C6EB50E1D6E1E6ACC
:101B70001CC0E6FFE66E1EC0E6FFD950020FE66EFF
:101B8000000EDA20E66EFCEC5CF01F6E050EE15EE6
:101B90001F50010EDB50DF6ED9CFE6FFDACFE6FF34
:101BA000D950020FE66E000EDA20E66EDF50E76EC7
:101BB000FD0EDBCF1CF0FE0EDBCF1DF0E7501C2628
:101BC000000E1D221CC0E6FF1DC0E6FF6AEC08F0F7
:101BD0001E6E060EE15E1E50000901E1D2D0250EF8
:101BE000E76EFB0EDBCFE9FFFC0EDBCFEAFFE75031
:101BF000E926000EEA22010EEF6ED9CFE6FFDACF1A
:101C0000E6FF260EE76EFB0EDBCF1CF0FC0EDBCFF3
:101C10001DF0E7501C26000E1D221CC0E6FF1DC053
:101C2000E6FFDF50E76EFD0EDBCF1EF0FE0EDBCFD2
:101C30001FF0E7501E26000E1F221EC0E6FF1FC029
:101C4000E6FF59EC09F0206E060EE15E2050000917
:101C500002E132EF22F0010EDFCFDBFF950E1C6EAA
:101C6000B50E1D6E1E6A1CC0E6FFE66E1EC0E6FFC6
:101C7000D950020FE66E000EDA20E66EFCEC5CF046
:101C80001F6E050EE15E1F50D9CFE6FFDACFE6FFEB
:101C9000D950020FE66E000EDA20E66EDF50E76ED6
:101CA000FD0EDBCF1CF0FE0EDBCF1DF0E7501C2637
:101CB000000E1D221CC0E6FF1DC0E6FF6AEC08F006
:101CC0001E6E060EE15E1E5000090FE0270EE76E45
:101CD000FB0EDBCFE9FFFC0EDBCFEAFFE750E92686
:101CE000000EEA220B0E8FEF21F0010EDB50DF6EAB
:101CF000910E1C6EB50E1D6E1E6A1CC0E6FFE66ED0
:101D00001EC0E6FFD950020FE66E000EDA20E66E26
:101D1000FCEC5CF01F6E050EE15E1F50D9CFE6FFB4
:101D2000DACFE6FFD950020FE66E000EDA20E66E3B
:101D3000DF50E76EFD0EDBCF1CF0FE0EDBCF1DF09B
:101D4000E7501C26000E1D221CC0E6FF1DC0E6FF4A
:101D50006AEC08F01E6E060EE15E1E50000902E1FC
:101D600032EF22F0270EE76EFB0EDBCFE9FFFC0E11
:101D7000DBCFEAFFE750E926000EEA220E0E8FEFD6
:101D800021F0010EDB50DF6E8D0E1C6EB50E1D6E48
:101D90001E6A1CC0E6FFE66E1EC0E6FFD950020FA9
:101DA000E66E000EDA20E66EFCEC5CF01F6E050EAF
:101DB000E15E1F50D9CFE6FFDACFE6FFD950020F20
:101DC000E66E000EDA20E66EDF50E76EFD0EDBCF2A
:101DD0001CF0FE0EDBCF1DF0E7501C26000E1D226E
:101DE0001CC0E6FF1DC0E6FF6AEC08F01E6E060E82
:101DF000E15E1E50000902E10AEF1AF02B0EE76EB9
:101E0000FB0EDBCFE9FFFC0EDBCFEAFFE750E92654
:101E1000000EEA22010EEF6E520EE76EFB0EDBCFD4
:101E20001CF0FC0EDBCF1DF0E7501C26000E1D221F
:101E30001CC0E6FF1DC0E6FFD9CFE6FFDACFE6FF04
:101E4000FD0EDBCFE6FFFE0EDBCFE6FF44EC0AF033
:101E50001E6E060EE15E1E50000902E132EF22F016
:101E6000010EDFCFDBFF870E1C6EB50E1D6E1E6AE6
:101E70001CC0E6FFE66E1EC0E6FFD950020FE66EFC
:101E8000000EDA20E66EFCEC5CF01F6E050EE15EE3
:101E90001F50D9CFE6FFDACFE6FFD950020FE66E2A
:101EA000000EDA20E66EDF50E76EFD0EDBCF1CF091
:101EB000FE0EDBCF1DF0E7501C26000E1D221CC0BD
:101EC000E6FF1DC0E6FF6AEC08F01E6E060EE15E3E
:101ED0001E5000090EE0510EE76EFB0EDBCFE9FF4E
:101EE000FC0EDBCFEAFFE750E926000EEA22280EBF
:101EF00049D0010EDB50DF6E800E1C6EB50E1D6EDC
:101F00001E6A1CC0E6FFE66E1EC0E6FFD950020F37
:101F1000E66E000EDA20E66EFCEC5CF01F6E050E3D
:101F2000E15E1F50D9CFE6FFDACFE6FFD950020FAE
:101F3000E66E000EDA20E66EDF50E76EFD0EDBCFB8
:101F40001CF0FE0EDBCF1DF0E7501C26000E1D22FC
:101F50001CC0E6FF1DC0E6FF6AEC08F01E6E060E10
:101F6000E15E1E50000901E17AD0510EE76EFB0ED2
:101F7000DBCFE9FFFC0EDBCFEAFFE750E926000EDE
:101F8000EA22290EEF6E500EE76EFB0EDBCFE9FF63
:101F9000FC0EDBCFEAFFE750E926000EEA22280E0E
:101FA000EF6E7A0E1C6EB50E1D6E1E6A1CC0E6FF2B
:101FB000E66E1EC0E6FFD950020FE66E000EDA2074
:101FC000E66EFCEC5CF01F6E050EE15E1F50D9CF93
:101FD000E6FFDACFE6FFD950020FE66E000EDA20F8
:101FE000E66EDF50E76EFD0EDBCF1CF0FE0EDBCFA2
:101FF0001DF0E7501C26000E1D221CC0E6FF1DC070
:10200000E6FF6AEC08F01E6E060EE15E1E50000947
:1020100002E132EF22F0D9CFE6FFDACFE6FFD95066
:102020000C0FE66E000EDA20E66EDF50E76EFD0E56
:10203000DBCF1CF0FE0EDBCF1DF0E7501C26000EA0
:102040001D221CC0E6FF1DC0E6FF59EC09F01E6E04
:10205000060EE15E1E50000907E132EF22F0020198
:10206000010E6A6F32EF22F0010EDFCFDBFF980E18
:102070001C6EB50E1D6E1E6A1CC0E6FFE66E1EC00D
:10208000E6FFD950020FE66E000EDA20E66EFCEC99
:102090005CF01F6E050EE15E1F50D9CFE6FFDACF70
:1020A000E6FFD950020FE66E000EDA20E66EDF5032
:1020B000E76EFD0EDBCF1CF0FE0EDBCF1DF0E75010
:1020C0001C26000E1D221CC0E6FF1DC0E6FF6AECA8
:1020D00008F01E6E060EE15E1E50000901E17AD086
:1020E0002C0EE76EFB0EDBCFE9FFFC0EDBCFEAFF29
:1020F000E750E926000EEA22010EEF6E2D0EE76E84
:10210000FB0EDBCFE9FFFC0EDBCFEAFFE750E92651
:10211000000EEA220C0EDBCFEFFFD9CFE6FFDACFBD
:10212000E6FF2E0EE76EFB0EDBCF1CF0FC0EDBCFC6
:102130001DF0E7501C26000E1D221CC0E6FF1DC02E
:10214000E6FFDF50E76EFD0EDBCF1EF0FE0EDBCFAD
:102150001FF0E7501E26000E1F221EC0E6FF1FC004
:10216000E6FF59EC09F0206E060EE15E20500009F2
:1021700002E132EF22F0D9CFE6FFDACFE6FF2F0EF1
:10218000E76EFB0EDBCF1CF0FC0EDBCF1DF0E75043
:102190001C26000E1D221CC0E6FF1DC0E6FFDF50FE
:1021A000E76EFD0EDBCF1EF0FE0EDBCF1FF0E7501B
:1021B0001E26000E1F221EC0E6FF1FC0E6FF59ECC0
:1021C00009F0206E060EE15E2050000901E0DFD12B
:1021D00032EF22F0010EDB50DF6E740E1C6EB50E76
:1021E0001D6E1E6A1CC0E6FFE66E1EC0E6FFD950DB
:1021F000020FE66E000EDA20E66EFCEC5CF01F6E5D
:10220000050EE15E1F50D9CFE6FFDACFE6FFD950C9
:10221000020FE66E000EDA20E66EDF50E76EFD0E6E
:10222000DBCF1CF0FE0EDBCF1DF0E7501C26000EAE
:102230001D221CC0E6FF1DC0E6FF6AEC08F01E6E02
:10224000060EE15E1E5000094CE0300EE76EFB0EFC
:10225000DBCFE9FFFC0EDBCFEAFFE750E926000EFB
:10226000EA22010EEF6E310EE76EFB0EDBCFE9FFC7
:10227000FC0EDBCFEAFFE750E926000EEA220C0E47
:10228000DBCFEFFFD9CFE6FFDACFE6FF320EE76E06
:10229000FB0EDBCF1CF0FC0EDBCF1DF0E7501C2645
:1022A000000E1D221CC0E6FF1DC0E6FFDF50E76EDA
:1022B000FD0EDBCF1EF0FE0EDBCF1FF0E7501E261B
:1022C000000E1F221EC0E6FF1FC0E6FF59EC09F0FA
:1022D000206E060EE15E2050000901E058D132EF79
:1022E00022F0010EDB50DF6E6E0E1C6EB50E1D6E01
:1022F0001E6A1CC0E6FFE66E1EC0E6FFD950020F44
:10230000E66E000EDA20E66EFCEC5CF01F6E050E49
:10231000E15E1F50D9CFE6FFDACFE6FFD950020FBA
:10232000E66E000EDA20E66EDF50E76EFD0EDBCFC4
:102330001CF0FE0EDBCF1DF0E7501C26000E1D2208
:102340001CC0E6FF1DC0E6FF6AEC08F01E6E060E1C
:10235000E15E1E50000902E132EF22F0330EE76E1B
:10236000FB0EDBCFE9FFFC0EDBCFEAFFE750E926EF
:10237000000EEA22010EEF6E340EE76EFB0EDBCF8D
:10238000E9FFFC0EDBCFEAFFE750E926000EEA2268
:102390000C0EDBCFEFFFD9CFE6FFDACFE6FF350E2D
:1023A000E76EFB0EDBCF1CF0FC0EDBCF1DF0E75021
:1023B0001C26000E1D221CC0E6FF1DC0E6FFDF50DC
:1023C000E76EFD0EDBCF1EF0FE0EDBCF1FF0E750F9
:1023D0001E26000E1F221EC0E6FF1FC0E6FF59EC9E
:1023E00009F0206E060EE15E2050000902E132EF96
:1023F00022F06A0E1C6EB50E1D6E1E6A1CC0E6FF32
:10240000E66E1EC0E6FFD950020FE66E000EDA201F
:10241000E66EFCEC5CF01F6E050EE15E1F50D9CF3E
:10242000E6FFDACFE6FFD950020FE66E000EDA20A3
:10243000E66EDF50E76EFD0EDBCF1CF0FE0EDBCF4D
:102440001DF0E7501C26000E1D221CC0E6FF1DC01B
:10245000E6FF6AEC08F01E6E060EE15E1E500009F3
:1024600002E132EF22F0010EDFCFDBFF620E1C6EC5
:10247000B50E1D6E1E6A1CC0E6FFE66E1EC0E6FFAE
:10248000D950020FE66E000EDA20E66EFCEC5CF02E
:102490001F6E050EE15E1F50D9CFE6FFDACFE6FFD3
:1024A000D950020FE66E000EDA20E66EDF50E76EBE
:1024B000FD0EDBCF1CF0FE0EDBCF1DF0E7501C261F
:1024C000000E1D221CC0E6FF1DC0E6FF6AEC08F0EE
:1024D0001E6E060EE15E1E5000090EE0360EE76E1F
:1024E000FB0EDBCFE9FFFC0EDBCFEAFFE750E9266E
:1024F000000EEA220F0E4AD0010EDB50DF6E590E9D
:102500001C6EB50E1D6E1E6A1CC0E6FFE66E1EC078
:10251000E6FFD950020FE66E000EDA20E66EFCEC04
:102520005CF01F6E050EE15E1F50D9CFE6FFDACFDB
:10253000E6FFD950020FE66E000EDA20E66EDF509D
:10254000E76EFD0EDBCF1CF0FE0EDBCF1DF0E7507B
:102550001C26000E1D221CC0E6FF1DC0E6FF6AEC13
:1025600008F01E6E060EE15E1E50000902E132EF19
:1025700022F0360EE76EFB0EDBCFE9FFFC0EDBCF61
:10258000EAFFE750E926000EEA22100EEF6E550E24
:102590001C6EB50E1D6E1E6A1CC0E6FFE66E1EC0E8
:1025A000E6FFD950020FE66E000EDA20E66EFCEC74
:1025B0005CF01F6E050EE15E1F50D9CFE6FFDACF4B
:1025C000E6FFD950020FE66E000EDA20E66EDF500D
:1025D000E76EFD0EDBCF1CF0FE0EDBCF1DF0E750EB
:1025E0001C26000E1D221CC0E6FF1DC0E6FF6AEC83
:1025F00008F01E6E060EE15E1E50000902E132EF89
:1026000022F0010EDFCFDBFF980E1C6EB50E1D6EA3
:102610001E6A1CC0E6FFE66E1EC0E6FFD950020F20
:10262000E66E000EDA20E66EFCEC5CF01F6E050E26
:10263000E15E1F50D9CFE6FFDACFE6FFD950020F97
:10264000E66E000EDA20E66EDF50E76EFD0EDBCFA1
:102650001CF0FE0EDBCF1DF0E7501C26000E1D22E5
:102660001CC0E6FF1DC0E6FF6AEC08F01E6E060EF9
:10267000E15E1E5000096CE0370EE76EFB0EDBCF0B
:10268000E9FFFC0EDBCFEAFFE750E926000EEA2265
:10269000010EEF6ED9CFE6FFDACFE6FF380EE76E18
:1026A000FB0EDBCF1CF0FC0EDBCF1DF0E7501C2631
:1026B000000E1D221CC0E6FF1DC0E6FFDF50E76EC6
:1026C000FD0EDBCF1EF0FE0EDBCF1FF0E7501E2607
:1026D000000E1F221EC0E6FF1FC0E6FF59EC09F0E6
:1026E000206E060EE15E2050000902E132EF22F07A
:1026F000D9CFE6FFDACFE6FF390EE76EFB0EDBCF70
:102700001CF0FC0EDBCF1DF0E7501C26000E1D2236
:102710001CC0E6FF1DC0E6FFDF50E76EFD0EDBCFFD
:102720001EF0FE0EDBCF1FF0E7501E26000E1F220C
:102730001EC0E6FF1FC0E6FF59EC09F0206E060E32
:10274000E15E2050000902E034EF22F032EF22F087
:10275000010EDB50DF6E740E1C6EB50E1D6E1E6A10
:102760001CC0E6FFE66E1EC0E6FFD950020FE66E03
:10277000000EDA20E66EFCEC5CF01F6E050EE15EEA
:102780001F50D9CFE6FFDACFE6FFD950020FE66E31
:10279000000EDA20E66EDF50E76EFD0EDBCF1CF098
:1027A000FE0EDBCF1DF0E7501C26000E1D221CC0C4
:1027B000E6FF1DC0E6FF6AEC08F01E6E060EE15E45
:1027C0001E5000096CE03A0EE76EFB0EDBCFE9FF0E
:1027D000FC0EDBCFEAFFE750E926000EEA22010EED
:1027E000EF6ED9CFE6FFDACFE6FF3B0EE76EFB0ECA
:1027F000DBCF1CF0FC0EDBCF1DF0E7501C26000EDB
:102800001D221CC0E6FF1DC0E6FFDF50E76EFD0E77
:10281000DBCF1EF0FE0EDBCF1FF0E7501E26000EB2
:102820001F221EC0E6FF1FC0E6FF59EC09F0206E14
:10283000060EE15E2050000902E132EF22F0D9CF0E
:10284000E6FFDACFE6FF3C0EE76EFB0EDBCF1CF0B7
:10285000FC0EDBCF1DF0E7501C26000E1D221CC015
:10286000E6FF1DC0E6FFDF50E76EFD0EDBCF1EF07A
:10287000FE0EDBCF1FF0E7501E26000E1F221EC0EB
:10288000E6FF1FC0E6FF59EC09F0206E060EE15E80
:102890002050000902E034EF22F032EF22F0010E66
:1028A000DB50DF6E510E1C6EB50E1D6E1E6A1CC015
:1028B000E6FFE66E1EC0E6FFD950020FE66E000E80
:1028C000DA20E66EFCEC5CF01F6E050EE15E1F5038
:1028D000D9CFE6FFDACFE6FFD950020FE66E000E41
:1028E000DA20E66EDF50E76EFD0EDBCF1CF0FE0E49
:1028F000DBCF1DF0E7501C26000E1D221CC0E6FF9A
:102900001DC0E6FF6AEC08F01E6E060EE15E1E506A
:1029100000096CE03D0EE76EFB0EDBCFE9FFFC0E1D
:10292000DBCFEAFFE750E926000EEA22010EEF6E48
:10293000D9CFE6FFDACFE6FF3E0EE76EFB0EDBCF28
:102940001CF0FC0EDBCF1DF0E7501C26000E1D22F4
:102950001CC0E6FF1DC0E6FFDF50E76EFD0EDBCFBB
:102960001EF0FE0EDBCF1FF0E7501E26000E1F22CA
:102970001EC0E6FF1FC0E6FF59EC09F0206E060EF0
:10298000E15E2050000902E132EF22F0D9CFE6FFEC
:10299000DACFE6FF3F0EE76EFB0EDBCF1CF0FC0E3E
:1029A000DBCF1DF0E7501C26000E1D221CC0E6FFE9
:1029B0001DC0E6FFDF50E76EFD0EDBCF1EF0FE0E02
:1029C000DBCF1FF0E7501E26000E1F221EC0E6FFC1
:1029D0001FC0E6FF59EC09F0206E060EE15E2050A4
:1029E000000902E034EF22F032EF22F0010EDB505A
:1029F000DF6E870E1C6EB50E1D6E1E6A1CC0E6FFD4
:102A0000E66E1EC0E6FFD950020FE66E000EDA2019
:102A1000E66EFCEC5CF01F6E050EE15E1F50D9CF38
:102A2000E6FFDACFE6FFD950020FE66E000EDA209D
:102A3000E66EDF50E76EFD0EDBCF1CF0FE0EDBCF47
:102A40001DF0E7501C26000E1D221CC0E6FF1DC015
:102A5000E6FF6AEC08F01E6E060EE15E1E500009ED
:102A600035E0400EE76EFB0EDBCFE9FFFC0EDBCF5F
:102A7000EAFFE750E926000EEA22010EEF6E410E52
:102A8000E76EFB0EDBCF1CF0FC0EDBCF1DF0E7503A
:102A90001C26000E1D221CC0E6FF1DC0E6FFD9CF7C
:102AA000E6FFDACFE6FFFD0EDBCFE6FFFE0EDBCF63
:102AB000E6FF44EC0AF01E6E060EE15E1E500009B1
:102AC00002E132EF22F0450E57EF1DF0010EDB5010
:102AD000DF6E800E1C6EB50E1D6E1E6A1CC0E6FFFA
:102AE000E66E1EC0E6FFD950020FE66E000EDA2039
:102AF000E66EFCEC5CF01F6E050EE15E1F50D9CF58
:102B0000E6FFDACFE6FFD950020FE66E000EDA20BC
:102B1000E66EDF50E76EFD0EDBCF1CF0FE0EDBCF66
:102B20001DF0E7501C26000E1D221CC0E6FF1DC034
:102B3000E6FF6AEC08F01E6E060EE15E1E5000090C
:102B400035E0400EE76EFB0EDBCFE9FFFC0EDBCF7E
:102B5000EAFFE750E926000EEA22010EEF6E410E71
:102B6000E76EFB0EDBCF1CF0FC0EDBCF1DF0E75059
:102B70001C26000E1D221CC0E6FF1DC0E6FFD9CF9B
:102B8000E6FFDACFE6FFFD0EDBCFE6FFFE0EDBCF82
:102B9000E6FF44EC0AF01E6E060EE15E1E500009D0
:102BA00002E132EF22F0450ED3EF1DF0010EDB50B3
:102BB000DF6E6E0E1C6EB50E1D6E1E6A1CC0E6FF2B
:102BC000E66E1EC0E6FFD950020FE66E000EDA2058
:102BD000E66EFCEC5CF01F6E050EE15E1F50D9CF77
:102BE000E6FFDACFE6FFD950020FE66E000EDA20DC
:102BF000E66EDF50E76EFD0EDBCF1CF0FE0EDBCF86
:102C00001DF0E7501C26000E1D221CC0E6FF1DC053
:102C1000E6FF6AEC08F01E6E060EE15E1E5000092B
:102C200001E1B7D2460EE76EFB0EDBCFE9FFFC0EEB
:102C3000DBCFEAFFE750E926000EEA22010EEF6E35
:102C4000D9CFE6FFDACFE6FF470EE76EFB0EDBCF0C
:102C50001CF0FC0EDBCF1DF0E7501C26000E1D22E1
:102C60001CC0E6FF1DC0E6FFDF50E76EFD0EDBCFA8
:102C70001EF0FE0EDBCF1FF0E7501E26000E1F22B7
:102C80001EC0E6FF1FC0E6FF59EC09F0206E060EDD
:102C9000E15E2050000902E132EF22F04B0E1C6E83
:102CA000B50E1D6E1E6A1CC0E6FFE66E1EC0E6FF76
:102CB000D950020FE66E000EDA20E66EFCEC5CF0F6
:102CC0001F6E050EE15E1F50D9CFE6FFDACFE6FF9B
:102CD000D950020FE66E000EDA20E66EDF50E76E86
:102CE000FD0EDBCF1CF0FE0EDBCF1DF0E7501C26E7
:102CF000000E1D221CC0E6FF1DC0E6FF6AEC08F0B6
:102D00001E6E060EE15E1E50000902E132EF22F057
:102D1000010EDFCFDBFF450E1C6EB50E1D6E1E6A69
:102D20001CC0E6FFE66E1EC0E6FFD950020FE66E3D
:102D3000000EDA20E66EFCEC5CF01F6E050EE15E24
:102D40001F50D9CFE6FFDACFE6FFD950020FE66E6B
:102D5000000EDA20E66EDF50E76EFD0EDBCF1CF0D2
:102D6000FE0EDBCF1DF0E7501C26000E1D221CC0FE
:102D7000E6FF1DC0E6FF6AEC08F01E6E060EE15E7F
:102D80001E5000090EE0480EE76EFB0EDBCFE9FF98
:102D9000FC0EDBCFEAFFE750E926000EEA22EF68DF
:102DA0007BD0010EDB50DF6E3F0E1C6EB50E1D6E2C
:102DB0001E6A1CC0E6FFE66E1EC0E6FFD950020F79
:102DC000E66E000EDA20E66EFCEC5CF01F6E050E7F
:102DD000E15E1F50D9CFE6FFDACFE6FFD950020FF0
:102DE000E66E000EDA20E66EDF50E76EFD0EDBCFFA
:102DF0001CF0FE0EDBCF1DF0E7501C26000E1D223E
:102E00001CC0E6FF1DC0E6FF6AEC08F01E6E060E51
:102E1000E15E1E5000090FE0480EE76EFB0EDBCFAF
:102E2000E9FFFC0EDBCFEAFFE750E926000EEA22BD
:102E3000EE0EEF6E31D0010EDB50DF6ED9CFE6FF24
:102E4000DACFE6FF480EE76EFB0EDBCF1CF0FC0E80
:102E5000DBCF1DF0E7501C26000E1D221CC0E6FF34
:102E60001DC0E6FFDF50E76EFD0EDBCF1EF0FE0E4D
:102E7000DBCF1FF0E7501E26000E1F221EC0E6FF0C
:102E80001FC0E6FF59EC09F0206E060EE15E2050EF
:102E9000000902E132EF22F0010EDFCFDBFF3A0E34
:102EA0001C6EB50E1D6E1E6A1CC0E6FFE66E1EC0CF
:102EB000E6FFD950020FE66E000EDA20E66EFCEC5B
:102EC0005CF01F6E050EE15E1F50D9CFE6FFDACF32
:102ED000E6FFD950020FE66E000EDA20E66EDF50F4
:102EE000E76EFD0EDBCF1CF0FE0EDBCF1DF0E750D2
:102EF0001C26000E1D221CC0E6FF1DC0E6FF6AEC6A
:102F000008F01E6E060EE15E1E5000090EE0490E2E
:102F1000E76EFB0EDBCFE9FFFC0EDBCFEAFFE750ED
:102F2000E926000EEA22130E4AD0010EDB50DF6EB6
:102F3000350E1C6EB50E1D6E1E6A1CC0E6FFE66ED9
:102F40001EC0E6FFD950020FE66E000EDA20E66ED4
:102F5000FCEC5CF01F6E050EE15E1F50D9CFE6FF62
:102F6000DACFE6FFD950020FE66E000EDA20E66EE9
:102F7000DF50E76EFD0EDBCF1CF0FE0EDBCF1DF049
:102F8000E7501C26000E1D221CC0E6FF1DC0E6FFF8
:102F90006AEC08F01E6E060EE15E1E50000902E1AA
:102FA00032EF22F0490EE76EFB0EDBCFE9FFFC0E9D
:102FB000DBCFEAFFE750E926000EEA22140EEF6E9F
:102FC0002D0E1C6EB50E1D6E1E6A1CC0E6FFE66E51
:102FD0001EC0E6FFD950020FE66E000EDA20E66E44
:102FE000FCEC5CF01F6E050EE15E1F50D9CFE6FFD2
:102FF000DACFE6FFD950020FE66E000EDA20E66E59
:10300000DF50E76EFD0EDBCF1CF0FE0EDBCF1DF0B8
:10301000E7501C26000E1D221CC0E6FF1DC0E6FF67
:103020006AEC08F01E6E060EE15E1E50000902E119
:1030300032EF22F0010EDFCFDBFF450E1C6EB50E26
:103040001D6E1E6A1CC0E6FFE66E1EC0E6FFD9506C
:10305000020FE66E000EDA20E66EFCEC5CF01F6EEE
:10306000050EE15E1F50D9CFE6FFDACFE6FFD9505B
:10307000020FE66E000EDA20E66EDF50E76EFD0E00
:10308000DBCF1CF0FE0EDBCF1DF0E7501C26000E40
:103090001D221CC0E6FF1DC0E6FF6AEC08F01E6E94
:1030A000060EE15E1E50000903E04A0E5BEF20F0C1
:1030B000010EDB50DF6E3F0E1C6EB50E1D6E1E6ADC
:1030C0001CC0E6FFE66E1EC0E6FFD950020FE66E9A
:1030D000000EDA20E66EFCEC5CF01F6E050EE15E81
:1030E0001F50D9CFE6FFDACFE6FFD950020FE66EC8
:1030F000000EDA20E66EDF50E76EFD0EDBCF1CF02F
:10310000FE0EDBCF1DF0E7501C26000E1D221CC05A
:10311000E6FF1DC0E6FF6AEC08F01E6E060EE15EDB
:103120001E50000903E04A0EA4EF20F0010EDB5010
:10313000DF6ED9CFE6FFDACFE6FF4A0EE76EFB0E71
:10314000DBCF1CF0FC0EDBCF1DF0E7501C26000E81
:103150001D221CC0E6FF1DC0E6FFDF50E76EFD0E1E
:10316000DBCF1EF0FE0EDBCF1FF0E7501E26000E59
:103170001F221EC0E6FF1FC0E6FF59EC09F0206EBB
:10318000060EE15E2050000902E034EF22F032EF3B
:1031900022F0010EDB50DF6E260E1C6EB50E1D6E8A
:1031A0001E6A1CC0E6FFE66E1EC0E6FFD950020F85
:1031B000E66E000EDA20E66EFCEC5CF01F6E050E8B
:1031C000E15E1F50D9CFE6FFDACFE6FFD950020FFC
:1031D000E66E000EDA20E66EDF50E76EFD0EDBCF06
:1031E0001CF0FE0EDBCF1DF0E7501C26000E1D224A
:1031F0001CC0E6FF1DC0E6FF6AEC08F01E6E060E5E
:10320000E15E1E50000911E04B0EE76EFB0EDBCFB6
:10321000E9FFFC0EDBCFEAFFE750E926000EEA22C9
:10322000010EEF6E4C0E2CEF21F0010EDB50DF6E25
:103230001C0E1C6EB50E1D6E1E6A1CC0E6FFE66EEF
:103240001EC0E6FFD950020FE66E000EDA20E66ED1
:10325000FCEC5CF01F6E050EE15E1F50D9CFE6FF5F
:10326000DACFE6FFD950020FE66E000EDA20E66EE6
:10327000DF50E76EFD0EDBCF1CF0FE0EDBCF1DF046
:10328000E7501C26000E1D221CC0E6FF1DC0E6FFF5
:103290006AEC08F01E6E060EE15E1E50000911E099
:1032A0004B0EE76EFB0EDBCFE9FFFC0EDBCFEAFF38
:1032B000E750E926000EEA22010EEF6E4C0E83EF76
:1032C00021F0010EDB50DF6EA10E1C6EB50E1D6EDF
:1032D0001E6A1CC0E6FFE66E1EC0E6FFD950020F54
:1032E000E66E000EDA20E66EFCEC5CF01F6E050E5A
:1032F000E15E1F50D9CFE6FFDACFE6FFD950020FCB
:10330000E66E000EDA20E66EDF50E76EFD0EDBCFD4
:103310001CF0FE0EDBCF1DF0E7501C26000E1D2218
:103320001CC0E6FF1DC0E6FF6AEC08F01E6E060E2C
:10333000E15E1E50000902E132EF22F04D0EE76E11
:10334000FB0EDBCFE9FFFC0EDBCFEAFFE750E926FF
:10335000000EEA22010EEF6ED9CFE6FFDACFE6FFCC
:103360004E0EE76EFB0EDBCF1CF0FC0EDBCF1DF02C
:10337000E7501C26000E1D221CC0E6FF1DC0E6FF04
:10338000DF50E76EFD0EDBCF1EF0FE0EDBCF1FF031
:10339000E7501E26000E1F221EC0E6FF1FC0E6FFDC
:1033A00059EC09F0206E060EE15E2050000902E1A2
:1033B00032EF22F0D9CFE6FFDACFE6FF4F0EE76E0D
:1033C000FB0EDBCF1CF0FC0EDBCF1DF0E7501C2604
:1033D000000E1D221CC0E6FF1DC0E6FFDF50E76E99
:1033E000FD0EDBCF1EF0FE0EDBCF1FF0E7501E26DA
:1033F000000E1F221EC0E6FF1FC0E6FF59EC09F0B9
:10340000206E060EE15E2050000902E034EF22F04B
:1034100032EF22F0010EDB50DF6E180E1C6EB50E7F
:103420001D6E1E6A1CC0E6FFE66E1EC0E6FFD95088
:10343000020FE66E000EDA20E66EFCEC5CF01F6E0A
:10344000050EE15E1F50D9CFE6FFDACFE6FFD95077
:10345000020FE66E000EDA20E66EDF50E76EFD0E1C
:10346000DBCF1CF0FE0EDBCF1DF0E7501C26000E5C
:103470001D221CC0E6FF1DC0E6FF6AEC08F01E6EB0
:10348000060EE15E1E5000093EE0550EE76EFB0E93
:10349000DBCFE9FFFC0EDBCFEAFFE750E926000EA9
:1034A000EA22010EEF6ED9CFE6FFDACFE6FF560E25
:1034B000E76EFB0EDBCF1CF0FC0EDBCF1DF0E75000
:1034C0001C26000E1D221CC0E6FF1DC0E6FFDF50BB
:1034D000E76EFD0EDBCF1EF0FE0EDBCF1FF0E750D8
:1034E0001E26000E1F221EC0E6FF1FC0E6FF59EC7D
:1034F00009F0206E060EE15E2050000902E034EF74
:1035000022F032EF22F0DF6A140E1C6EB50E1D6E33
:103510001E6A1CC0E6FFE66E1EC0E6FFD950020F11
:10352000E66E000EDA20E66EFCEC5CF01F6E050E17
:10353000E15E1F50D9CFE6FFDACFE6FFD950020F88
:10354000E66E000EDA20E66EDF50E76EFD0EDBCF92
:103550001CF0FE0EDBCF1DF0E7501C26000E1D22D6
:103560001CC0E6FF1DC0E6FF6AEC08F01E6E060EEA
:10357000E15E1E50000902E1B5EF23F0FB0EDBCF48
:10358000E9FFFC0EDBCFEAFF020EEF6ED9CFE6FFBC
:10359000DACFE6FF010EE76EFB0EDBCF1CF0FC0E70
:1035A000DBCF1DF0E7501C26000E1D221CC0E6FFDD
:1035B0001DC0E6FFDF50E76EFD0EDBCF1EF0FE0EF6
:1035C000DBCF1FF0E7501E26000E1F221EC0E6FFB5
:1035D0001FC0E6FF59EC09F0206E060EE15E205098
:1035E000000902E132EF22F0010EDFCFDBFF980E7F
:1035F0001C6EB50E1D6E1E6A1CC0E6FFE66E1EC078
:10360000E6FFD950020FE66E000EDA20E66EFCEC03
:103610005CF01F6E050EE15E1F50D9CFE6FFDACFDA
:10362000E6FFD950020FE66E000EDA20E66EDF509C
:10363000E76EFD0EDBCF1CF0FE0EDBCF1DF0E7507A
:103640001C26000E1D221CC0E6FF1DC0E6FF6AEC12
:1036500008F01E6E060EE15E1E5000096CE0030EBF
:10366000E76EFB0EDBCFE9FFFC0EDBCFEAFFE75096
:10367000E926000EEA22010EEF6ED9CFE6FFDACF7F
:10368000E6FF040EE76EFB0EDBCF1CF0FC0EDBCF7B
:103690001DF0E7501C26000E1D221CC0E6FF1DC0B9
:1036A000E6FFDF50E76EFD0EDBCF1EF0FE0EDBCF38
:1036B0001FF0E7501E26000E1F221EC0E6FF1FC08F
:1036C000E6FF59EC09F0206E060EE15E205000097D
:1036D00002E132EF22F0D9CFE6FFDACFE6FF050EA6
:1036E000E76EFB0EDBCF1CF0FC0EDBCF1DF0E750CE
:1036F0001C26000E1D221CC0E6FF1DC0E6FFDF5089
:10370000E76EFD0EDBCF1EF0FE0EDBCF1FF0E750A5
:103710001E26000E1F221EC0E6FF1FC0E6FF59EC4A
:1037200009F0206E060EE15E2050000902E034EF41
:1037300022F032EF22F0010EDB50DF6E740E1C6EB1
:10374000B50E1D6E1E6A1CC0E6FFE66E1EC0E6FFCB
:10375000D950020FE66E000EDA20E66EFCEC5CF04B
:103760001F6E050EE15E1F50D9CFE6FFDACFE6FFF0
:10377000D950020FE66E000EDA20E66EDF50E76EDB
:10378000FD0EDBCF1CF0FE0EDBCF1DF0E7501C263C
:10379000000E1D221CC0E6FF1DC0E6FF6AEC08F00B
:1037A0001E6E060EE15E1E5000096CE0060EE76E0E
:1037B000FB0EDBCFE9FFFC0EDBCFEAFFE750E9268B
:1037C000000EEA22010EEF6ED9CFE6FFDACFE6FF58
:1037D000070EE76EFB0EDBCF1CF0FC0EDBCF1DF0FF
:1037E000E7501C26000E1D221CC0E6FF1DC0E6FF90
:1037F000DF50E76EFD0EDBCF1EF0FE0EDBCF1FF0BD
:10380000E7501E26000E1F221EC0E6FF1FC0E6FF67
:1038100059EC09F0206E060EE15E2050000902E12D
:1038200032EF22F0D9CFE6FFDACFE6FF080EE76EDF
:10383000FB0EDBCF1CF0FC0EDBCF1DF0E7501C268F
:10384000000E1D221CC0E6FF1DC0E6FFDF50E76E24
:10385000FD0EDBCF1EF0FE0EDBCF1FF0E7501E2665
:10386000000E1F221EC0E6FF1FC0E6FF59EC09F044
:10387000206E060EE15E2050000902E034EF22F0D7
:1038800032EF22F0010EDB50DF6E510E1C6EB50ED2
:103890001D6E1E6A1CC0E6FFE66E1EC0E6FFD95014
:1038A000020FE66E000EDA20E66EFCEC5CF01F6E96
:1038B000050EE15E1F50D9CFE6FFDACFE6FFD95003
:1038C000020FE66E000EDA20E66EDF50E76EFD0EA8
:1038D000DBCF1CF0FE0EDBCF1DF0E7501C26000EE8
:1038E0001D221CC0E6FF1DC0E6FF6AEC08F01E6E3C
:1038F000060EE15E1E5000096CE0090EE76EFB0E3D
:10390000DBCFE9FFFC0EDBCFEAFFE750E926000E34
:10391000EA22010EEF6ED9CFE6FFDACFE6FF0A0EFC
:10392000E76EFB0EDBCF1CF0FC0EDBCF1DF0E7508B
:103930001C26000E1D221CC0E6FF1DC0E6FFDF5046
:10394000E76EFD0EDBCF1EF0FE0EDBCF1FF0E75063
:103950001E26000E1F221EC0E6FF1FC0E6FF59EC08
:1039600009F0206E060EE15E2050000902E132EF00
:1039700022F0D9CFE6FFDACFE6FF0B0EE76EFB0EA3
:10398000DBCF1CF0FC0EDBCF1DF0E7501C26000E39
:103990001D221CC0E6FF1DC0E6FFDF50E76EFD0ED6
:1039A000DBCF1EF0FE0EDBCF1FF0E7501E26000E11
:1039B0001F221EC0E6FF1FC0E6FF59EC09F0206E73
:1039C000060EE15E2050000902E034EF22F032EFF3
:1039D00022F0010EDB50DF6E870E1C6EB50E1D6EE1
:1039E0001E6A1CC0E6FFE66E1EC0E6FFD950020F3D
:1039F000E66E000EDA20E66EFCEC5CF01F6E050E43
:103A0000E15E1F50D9CFE6FFDACFE6FFD950020FB3
:103A1000E66E000EDA20E66EDF50E76EFD0EDBCFBD
:103A20001CF0FE0EDBCF1DF0E7501C26000E1D2201
:103A30001CC0E6FF1DC0E6FF6AEC08F01E6E060E15
:103A4000E15E1E50000941E00C0EE76EFB0EDBCF7D
:103A5000E9FFFC0EDBCFEAFFE750E926000EEA2281
:103A6000010EEF6E0D0EE76EFB0EDBCF1CF0FC0EB1
:103A7000DBCF1DF0E7501C26000E1D221CC0E6FF08
:103A80001DC0E6FFD9CFE6FFDACFE6FFFD0EDBCFA4
:103A9000E6FFFE0EDBCFE6FF44EC0AF01E6E060EDC
:103AA000E15E1E50000902E132EF22F0110EE76ED6
:103AB000FB0EDBCFE9FFFC0EDBCFEAFFE750E92688
:103AC000000EEA22280E8FEF21F0010EDB50DF6E90
:103AD000800E1C6EB50E1D6E1E6A1CC0E6FFE66EE3
:103AE0001EC0E6FFD950020FE66E000EDA20E66E29
:103AF000FCEC5CF01F6E050EE15E1F50D9CFE6FFB7
:103B0000DACFE6FFD950020FE66E000EDA20E66E3D
:103B1000DF50E76EFD0EDBCF1CF0FE0EDBCF1DF09D
:103B2000E7501C26000E1D221CC0E6FF1DC0E6FF4C
:103B30006AEC08F01E6E060EE15E1E50000940E0C1
:103B40000C0EE76EFB0EDBCFE9FFFC0EDBCFEAFFCE
:103B5000E750E926000EEA22010EEF6E0D0EE76E29
:103B6000FB0EDBCF1CF0FC0EDBCF1DF0E7501C265C
:103B7000000E1D221CC0E6FF1DC0E6FFD9CFE6FFE8
:103B8000DACFE6FFFD0EDBCFE6FFFE0EDBCFE6FF72
:103B900044EC0AF01E6E060EE15E1E50000902E1C2
:103BA00032EF22F0110EE76EFB0EDBCFE9FFFC0EC9
:103BB000DBCFEAFFE750E926000EEA22290EAFD359
:103BC000010EDB50DF6E6E0E1C6EB50E1D6E1E6A92
:103BD0001CC0E6FFE66E1EC0E6FFD950020FE66E7F
:103BE000000EDA20E66EFCEC5CF01F6E050EE15E66
:103BF0001F50D9CFE6FFDACFE6FFD950020FE66EAD
:103C0000000EDA20E66EDF50E76EFD0EDBCF1CF013
:103C1000FE0EDBCF1DF0E7501C26000E1D221CC03F
:103C2000E6FF1DC0E6FF6AEC08F01E6E060EE15EC0
:103C30001E50000901E1C6D2120EE76EFB0EDBCF6B
:103C4000E9FFFC0EDBCFEAFFE750E926000EEA228F
:103C5000010EEF6ED9CFE6FFDACFE6FF130EE76E67
:103C6000FB0EDBCF1CF0FC0EDBCF1DF0E7501C265B
:103C7000000E1D221CC0E6FF1DC0E6FFDF50E76EF0
:103C8000FD0EDBCF1EF0FE0EDBCF1FF0E7501E2631
:103C9000000E1F221EC0E6FF1FC0E6FF59EC09F010
:103CA000206E060EE15E2050000901E1DBD34B0ED1
:103CB0001C6EB50E1D6E1E6A1CC0E6FFE66E1EC0B1
:103CC000E6FFD950020FE66E000EDA20E66EFCEC3D
:103CD0005CF01F6E050EE15E1F50D9CFE6FFDACF14
:103CE000E6FFD950020FE66E000EDA20E66EDF50D6
:103CF000E76EFD0EDBCF1CF0FE0EDBCF1DF0E750B4
:103D00001C26000E1D221CC0E6FF1DC0E6FF6AEC4B
:103D100008F01E6E060EE15E1E50000901E1A2D3FE
:103D2000010EDFCFDBFF450E1C6EB50E1D6E1E6A49
:103D30001CC0E6FFE66E1EC0E6FFD950020FE66E1D
:103D4000000EDA20E66EFCEC5CF01F6E050EE15E04
:103D50001F50D9CFE6FFDACFE6FFD950020FE66E4B
:103D6000000EDA20E66EDF50E76EFD0EDBCF1CF0B2
:103D7000FE0EDBCF1DF0E7501C26000E1D221CC0DE
:103D8000E6FF1DC0E6FF6AEC08F01E6E060EE15E5F
:103D90001E5000090EE0140EE76EFB0EDBCFE9FFAC
:103DA000FC0EDBCFEAFFE750E926000EEA22EF68BF
:103DB0007AD0010EDB50DF6E3F0E1C6EB50E1D6E0D
:103DC0001E6A1CC0E6FFE66E1EC0E6FFD950020F59
:103DD000E66E000EDA20E66EFCEC5CF01F6E050E5F
:103DE000E15E1F50D9CFE6FFDACFE6FFD950020FD0
:103DF000E66E000EDA20E66EDF50E76EFD0EDBCFDA
:103E00001CF0FE0EDBCF1DF0E7501C26000E1D221D
:103E10001CC0E6FF1DC0E6FF6AEC08F01E6E060E31
:103E2000E15E1E5000090FE0140EE76EFB0EDBCFC3
:103E3000E9FFFC0EDBCFEAFFE750E926000EEA229D
:103E4000EE0EEF6E30D0010EDB50DF6ED9CFE6FF05
:103E5000DACFE6FF140EE76EFB0EDBCF1CF0FC0E94
:103E6000DBCF1DF0E7501C26000E1D221CC0E6FF14
:103E70001DC0E6FFDF50E76EFD0EDBCF1EF0FE0E2D
:103E8000DBCF1FF0E7501E26000E1F221EC0E6FFEC
:103E90001FC0E6FF59EC09F0206E060EE15E2050CF
:103EA000000901E1DFD2010EDFCFDBFF3A0E1C6E0D
:103EB000B50E1D6E1E6A1CC0E6FFE66E1EC0E6FF54
:103EC000D950020FE66E000EDA20E66EFCEC5CF0D4
:103ED0001F6E050EE15E1F50D9CFE6FFDACFE6FF79
:103EE000D950020FE66E000EDA20E66EDF50E76E64
:103EF000FD0EDBCF1CF0FE0EDBCF1DF0E7501C26C5
:103F0000000E1D221CC0E6FF1DC0E6FF6AEC08F093
:103F10001E6E060EE15E1E5000090EE0150EE76EE5
:103F2000FB0EDBCFE9FFFC0EDBCFEAFFE750E92613
:103F3000000EEA22130E49D0010EDB50DF6E350E63
:103F40001C6EB50E1D6E1E6A1CC0E6FFE66E1EC01E
:103F5000E6FFD950020FE66E000EDA20E66EFCECAA
:103F60005CF01F6E050EE15E1F50D9CFE6FFDACF81
:103F7000E6FFD950020FE66E000EDA20E66EDF5043
:103F8000E76EFD0EDBCF1CF0FE0EDBCF1DF0E75021
:103F90001C26000E1D221CC0E6FF1DC0E6FF6AECB9
:103FA00008F01E6E060EE15E1E50000901E15AD2B5
:103FB000150EE76EFB0EDBCFE9FFFC0EDBCFEAFF51
:103FC000E750E926000EEA22140EEF6E2D0E1C6E4D
:103FD000B50E1D6E1E6A1CC0E6FFE66E1EC0E6FF33
:103FE000D950020FE66E000EDA20E66EFCEC5CF0B3
:103FF0001F6E050EE15E1F50D9CFE6FFDACFE6FF58
:10400000D950020FE66E000EDA20E66EDF50E76E42
:10401000FD0EDBCF1CF0FE0EDBCF1DF0E7501C26A3
:10402000000E1D221CC0E6FF1DC0E6FF6AEC08F072
:104030001E6E060EE15E1E50000901E113D2010E54
:10404000DFCFDBFF450E1C6EB50E1D6E1E6A1CC059
:10405000E6FFE66E1EC0E6FFD950020FE66E000EC8
:10406000DA20E66EFCEC5CF01F6E050EE15E1F5080
:10407000D9CFE6FFDACFE6FFD950020FE66E000E89
:10408000DA20E66EDF50E76EFD0EDBCF1CF0FE0E91
:10409000DBCF1DF0E7501C26000E1D221CC0E6FFE2
:1040A0001DC0E6FF6AEC08F01E6E060EE15E1E50B3
:1040B00000090EE0160EE76EFB0EDBCFE9FFFC0EEB
:1040C000DBCFEAFFE750E926000EEA22EF68CCD109
:1040D000010EDB50DF6E3F0E1C6EB50E1D6E1E6AAC
:1040E0001CC0E6FFE66E1EC0E6FFD950020FE66E6A
:1040F000000EDA20E66EFCEC5CF01F6E050EE15E51
:104100001F50D9CFE6FFDACFE6FFD950020FE66E97
:10411000000EDA20E66EDF50E76EFD0EDBCF1CF0FE
:10412000FE0EDBCF1DF0E7501C26000E1D221CC02A
:10413000E6FF1DC0E6FF6AEC08F01E6E060EE15EAB
:104140001E5000090EE0160EE76EFB0EDBCFE9FFF6
:10415000FC0EDBCFEAFFE750E926000EEA22EE0E66
:10416000DED0010EDB50DF6ED9CFE6FFDACFE6FFFF
:10417000160EE76EFB0EDBCF1CF0FC0EDBCF1DF046
:10418000E7501C26000E1D221CC0E6FF1DC0E6FFE6
:10419000DF50E76EFD0EDBCF1EF0FE0EDBCF1FF013
:1041A000E7501E26000E1F221EC0E6FF1FC0E6FFBE
:1041B00059EC09F0206E060EE15E2050000901E086
:1041C00053D150D1010EDB50DF6E260E1C6EB50EA2
:1041D0001D6E1E6A1CC0E6FFE66E1EC0E6FFD950CB
:1041E000020FE66E000EDA20E66EFCEC5CF01F6E4D
:1041F000050EE15E1F50D9CFE6FFDACFE6FFD950BA
:10420000020FE66E000EDA20E66EDF50E76EFD0E5E
:10421000DBCF1CF0FE0EDBCF1DF0E7501C26000E9E
:104220001D221CC0E6FF1DC0E6FF6AEC08F01E6EF2
:10423000060EE15E1E5000091CE0170EE76EFB0E35
:10424000DBCFE9FFFC0EDBCFEAFFE750E926000EEB
:10425000EA22010EEF6E180EE76EFB0EDBCFE9FFD0
:10426000FC0EDBCFEAFFE750E926000EEA222B0E18
:1042700056D0010EDB50DF6E1C0E1C6EB50E1D6E8F
:104280001E6A1CC0E6FFE66E1EC0E6FFD950020F94
:10429000E66E000EDA20E66EFCEC5CF01F6E050E9A
:1042A000E15E1F50D9CFE6FFDACFE6FFD950020F0B
:1042B000E66E000EDA20E66EDF50E76EFD0EDBCF15
:1042C0001CF0FE0EDBCF1DF0E7501C26000E1D2259
:1042D0001CC0E6FF1DC0E6FF6AEC08F01E6E060E6D
:1042E000E15E1E5000091DE0170EE76EFB0EDBCFEE
:1042F000E9FFFC0EDBCFEAFFE750E926000EEA22D9
:10430000010EEF6E180EE76EFB0EDBCFE9FFFC0E21
:10431000DBCFEAFFE750E926000EEA222C0EEF6E13
:10432000A3D0010EDB50DF6EA10E1C6EB50E1D6E0C
:104330001E6A1CC0E6FFE66E1EC0E6FFD950020FE3
:10434000E66E000EDA20E66EFCEC5CF01F6E050EE9
:10435000E15E1F50D9CFE6FFDACFE6FFD950020F5A
:10436000E66E000EDA20E66EDF50E76EFD0EDBCF64
:104370001CF0FE0EDBCF1DF0E7501C26000E1D22A8
:104380001CC0E6FF1DC0E6FF6AEC08F01E6E060EBC
:10439000E15E1E5000096CE0190EE76EFB0EDBCFEC
:1043A000E9FFFC0EDBCFEAFFE750E926000EEA2228
:1043B000010EEF6ED9CFE6FFDACFE6FF1A0EE76EF9
:1043C000FB0EDBCF1CF0FC0EDBCF1DF0E7501C26F4
:1043D000000E1D221CC0E6FF1DC0E6FFDF50E76E89
:1043E000FD0EDBCF1EF0FE0EDBCF1FF0E7501E26CA
:1043F000000E1F221EC0E6FF1FC0E6FF59EC09F0A9
:10440000206E060EE15E205000092CE0D9CFE6FFB9
:10441000DACFE6FF1B0EE76EFB0EDBCF1CF0FC0EC7
:10442000DBCF1DF0E7501C26000E1D221CC0E6FF4E
:104430001DC0E6FFDF50E76EFD0EDBCF1EF0FE0E67
:10444000DBCF1FF0E7501E26000E1F221EC0E6FF26
:104450001FC0E6FF59EC09F0206E060EE15E205009
:10446000000902E1000E82D102016A6B010E7ED1C9
:10447000010EDB50DF6E0E0E1C6EB50E1D6E1E6A39
:104480001CC0E6FFE66E1EC0E6FFD950020FE66EC6
:10449000000EDA20E66EFCEC5CF01F6E050EE15EAD
:1044A0001F50D9CFE6FFDACFE6FFD950020FE66EF4
:1044B000000EDA20E66EDF50E76EFD0EDBCF1CF05B
:1044C000FE0EDBCF1DF0E7501C26000E1D221CC087
:1044D000E6FF1DC0E6FF6AEC08F01E6E060EE15E08
:1044E0001E50000902E01C0E30D1010EDB50DF6EC1
:1044F000080E1C6EB50E1D6E1E6A1CC0E6FFE66E31
:104500001EC0E6FFD950020FE66E000EDA20E66EFE
:10451000FCEC5CF01F6E050EE15E1F50D9CFE6FF8C
:10452000DACFE6FFD950020FE66E000EDA20E66E13
:10453000DF50E76EFD0EDBCF1CF0FE0EDBCF1DF073
:10454000E7501C26000E1D221CC0E6FF1DC0E6FF22
:104550006AEC08F01E6E060EE15E1E50000902E0D5
:104560001D0EF3D0010EDB50DF6E020E1C6EB50E79
:104570001D6E1E6A1CC0E6FFE66E1EC0E6FFD95027
:10458000020FE66E000EDA20E66EFCEC5CF01F6EA9
:10459000050EE15E1F50D9CFE6FFDACFE6FFD95016
:1045A000020FE66E000EDA20E66EDF50E76EFD0EBB
:1045B000DBCF1CF0FE0EDBCF1DF0E7501C26000EFB
:1045C0001D221CC0E6FF1DC0E6FF6AEC08F01E6E4F
:1045D000060EE15E1E50000902E01E0EB6D0010E6E
:1045E000DB50DF6EFC0E1C6EB40E1D6E1E6A1CC00E
:1045F000E6FFE66E1EC0E6FFD950020FE66E000E23
:10460000DA20E66EFCEC5CF01F6E050EE15E1F50DA
:10461000D9CFE6FFDACFE6FFD950020FE66E000EE3
:10462000DA20E66EDF50E76EFD0EDBCF1CF0FE0EEB
:10463000DBCF1DF0E7501C26000E1D221CC0E6FF3C
:104640001DC0E6FF6AEC08F01E6E060EE15E1E500D
:10465000000902E01F0E79D0010EDB50DF6EF40E70
:104660001C6EB40E1D6E1E6A1CC0E6FFE66E1EC0F8
:10467000E6FFD950020FE66E000EDA20E66EFCEC83
:104680005CF01F6E050EE15E1F50D9CFE6FFDACF5A
:10469000E6FFD950020FE66E000EDA20E66EDF501C
:1046A000E76EFD0EDBCF1CF0FE0EDBCF1DF0E750FA
:1046B0001C26000E1D221CC0E6FF1DC0E6FF6AEC92
:1046C00008F01E6E060EE15E1E50000902E0200E8C
:1046D0003CD0010EDB50DF6EEF0E1C6EB40E1D6E73
:1046E0001E6A1CC0E6FFE66E1EC0E6FFD950020F30
:1046F000E66E000EDA20E66EFCEC5CF01F6E050E36
:10470000E15E1F50D9CFE6FFDACFE6FFD950020FA6
:10471000E66E000EDA20E66EDF50E76EFD0EDBCFB0
:104720001CF0FE0EDBCF1DF0E7501C26000E1D22F4
:104730001CC0E6FF1DC0E6FF6AEC08F01E6E060E08
:10474000E15E1E50000911E0210EE76EFB0EDBCF8B
:10475000E9FFFC0EDBCFEAFFE750E926000EEA2274
:10476000010EEF6E02016A6B01D0000E1C6E0E0E80
:10477000E15C02E2E16AE552E16E1C50E552E7CFEE
:10478000D9FF1200D9CFE6FFE1CFD9FF030EE12612
:10479000010EDB6ADF6A620EDF5C09E2DF50EA6A63
:1047A000020FE96E050EEA22EF6ADF2AF4D7DF6A0C
:1047B0004E0EDF5C49E2DF50E76EFD0EDBCFE9FF16
:1047C000FE0EDBCFEAFFE750E926000EEA22EF50AB
:1047D0003BE0020EDB6ADF50E76EFD0EDBCFE9FF48
:1047E000FE0EDBCFEAFFE750E926000EEA22EF508B
:1047F000F36E020EDBCFF4FFF350F45C22E2DF280D
:10480000E76EFD0EDBCFE9FFFE0EDBCFEAFFE750E0
:10481000E926000EEA22EF50E66E010EDBCFF3FF31
:10482000DB2AF350EA6A020FE96E050EEA22E5522E
:10483000E750EF6E010EDB50620803E3020EDB2A45
:10484000CAD7020EDF26B4D7DF6A620EDF5C19E238
:10485000DF50EA6A020FE96E050EEA22EF50E66EBB
:10486000DF50E76EFD0EDBCFE9FFFE0EDBCFEAFF88
:10487000E750E926000EEA22E552E750EF6EDF2A04
:10488000E4D7030EE15C02E2E16AE552E16EE55233
:10489000E7CFD9FF1200D9CFE6FFE1CFD9FF040E51
:1048A000E126010EDB6ADF6AFD0EDBCFE9FFFE0EBB
:1048B000DBCFEAFF030EEFCFDBFF020EDB6A620EF7
:1048C000F36E010EDBCFF4FFF350F45C64E2010EF3
:1048D000DB50E76EFD0EDBCFE9FFFE0EDBCFEAFF1C
:1048E000E750E926000EEA22EFCF1CF0030EDB5062
:1048F0001C5C0CE1020EDB2A010EDB2A620EF36E59
:10490000010EDBCFF4FFF350F45CE1E34F0EDF5C0C
:1049100014E2DF50DF2AEA6A020FE96E050EEA228E
:10492000020EDBCFEFFFDF50DF2AEA6A020FE96EEB
:10493000050EEA22030EDBCFEFFF500EDF5C1DE316
:10494000010EDB6A620EF36E010EDBCFF4FFF35053
:10495000F45C11E2010EDB50E76EFD0EDBCFE9FFE8
:10496000FE0EDBCFEAFFE750E926000EEA22EF6AEF
:10497000010EDB2AE7D7000E4ED0010EDB50E76EAA
:10498000FD0EDBCFE9FFFE0EDBCFEAFFE750E926A5
:10499000000EEA228FD7010EDB6ADF50F36E010EA4
:1049A000DBCFF4FFF350F45C1CE2010EDB50EA6A4B
:1049B000020FE96E050EEA22EF50E66E010EDB50A3
:1049C000E76EFD0EDBCFE9FFFE0EDBCFEAFFE7501F
:1049D000E926000EEA22E552E750EF6E010EDB2ACF
:1049E000DCD7620EF36E010EDBCFF4FFF350F45C04
:1049F00011E2010EDB50E76EFD0EDBCFE9FFFE0E8C
:104A0000DBCFEAFFE750E926000EEA22EF6A010E4B
:104A1000DB2AE7D7DF501C6E040EE15C02E2E16A9C
:104A2000E552E16E1C50E552E7CFD9FF1200D9CF15
:104A3000E6FFE1CFD9FFE652DF6A620EDF5C0FE2EC
:104A4000DF50E76EFD0EDBCFE9FFFE0EDBCFEAFFA6
:104A5000E750E926000EEA22EF6ADF2AEED7E55298
:104A6000E552E7CFD9FF1200D9CFE6FFE1CFD9FF5A
:104A7000050EE126240EF36EFE0EDBCFF4FFF3509D
:104A8000F45C05E30201110E6A6F000E39D0010ECD
:104A9000DB6A2A0EF36E010EDBCFF4FFF350F45CF9
:104AA00027E2010EDB50E76EFC0EDBCFE9FFFD0EC7
:104AB000DBCFEAFFE750E926000EEA22EF50E66E70
:104AC000FE0EDB502A0DF3CF1CF0F4CF1DF0640E68
:104AD0001C26050E1D22010EDB501C24E96E000E63
:104AE0001D20EA6EE552E750EF6E010EDB2AD1D7AA
:104AF000FE0EDB500201635D01E1632B8FEC03F0DE
:104B00001C6E050EE15C02E2E16AE552E16E1C50AA
:104B1000E552E7CFD9FF1200D9CFE6FFE1CFD9FFA9
:104B2000E652FD0EDBCFE6FFFE0EDBCFE6FF7FDFBA
:104B3000E552E552FD0EDBCFE9FFFE0EDBCFEAFFCB
:104B4000020EEF6E010EE76EFD0EDBCFE9FFFE0EEB
:104B5000DBCFEAFFE750E926000EEA2206C2EFFFAC
:104B6000FC0EDB502A0DF3CFE9FFF4CFEAFF640E11
:104B7000E926050EEA220B0EE926000EEA22EF5086
:104B8000E66E030EE76EFD0EDBCFE9FFFE0EDBCF18
:104B9000EAFFE750E926000EEA22E552E750EF6E01
:104BA000FC0EDB502A0DF3CFE9FFF4CFEAFF640ED1
:104BB000E926050EEA220C0EE926000EEA22EF5045
:104BC000E66E040EE76EFD0EDBCFE9FFFE0EDBCFD7
:104BD000EAFFE750E926000EEA22E552E750EF6EC1
:104BE000FC0EDB502A0DF3CFE9FFF4CFEAFF640E91
:104BF000E926050EEA220D0EE926000EEA22EF5004
:104C0000E66E050EE76EFD0EDBCFE9FFFE0EDBCF95
:104C1000EAFFE750E926000EEA22E552E750EF6E80
:104C2000FC0EDB502A0DF3CFE9FFF4CFEAFF640E50
:104C3000E926050EEA220E0EE926000EEA22EF50C2
:104C4000E66E060EE76EFD0EDBCFE9FFFE0EDBCF54
:104C5000EAFFE750E926000EEA22E552E750EF6E40
:104C6000FC0EDB502A0DF3CFE9FFF4CFEAFF640E10
:104C7000E926050EEA220F0EE926000EEA22EF5081
:104C8000E66E070EE76EFD0EDBCFE9FFFE0EDBCF13
:104C9000EAFFE750E926000EEA22E552E750EF6E00
:104CA000FC0EDB502A0DF3CFE9FFF4CFEAFF640ED0
:104CB000E926050EEA22100EE926000EEA22EF5040
:104CC000E66E080EE76EFD0EDBCFE9FFFE0EDBCFD2
:104CD000EAFFE750E926000EEA22E552E750EF6EC0
:104CE000FC0EDB502A0DF3CFE9FFF4CFEAFF640E90
:104CF000E926050EEA22110EE926000EEA22EF50FF
:104D0000E66E090EE76EFD0EDBCFE9FFFE0EDBCF90
:104D1000EAFFE750E926000EEA22E552E750EF6E7F
:104D2000FC0EDB502A0DF3CFE9FFF4CFEAFF640E4F
:104D3000E926050EEA22120EE926000EEA22EF50BD
:104D4000E66E0A0EE76EFD0EDBCFE9FFFE0EDBCF4F
:104D5000EAFFE750E926000EEA22E552E750EF6E3F
:104D6000FC0EDB502A0DF3CFE9FFF4CFEAFF640E0F
:104D7000E926050EEA22130EE926000EEA22EF507C
:104D8000E66E0B0EE76EFD0EDBCFE9FFFE0EDBCF0E
:104D9000EAFFE750E926000EEA22E552E750EF6EFF
:104DA000FC0EDB502A0DF3CFE9FFF4CFEAFF640ECF
:104DB000E926050EEA22140EE926000EEA22EF503B
:104DC000E66E0C0EE76EFD0EDBCFE9FFFE0EDBCFCD
:104DD000EAFFE750E926000EEA22E552E750EF6EBF
:104DE000DF6A030EDF5C27E2FC0EDB502A0DF3CFF7
:104DF0001CF0F4CF1DF0640E1C26050E1D22150EAE
:104E0000DF240F011C24E96E000E1D20EA6EEF5016
:104E1000E66E0D0EDF24E76EFD0EDBCFE9FFFE0E22
:104E2000DBCFEAFFE750E926000EEA22E552E75021
:104E3000EF6EDF2AD6D7FC0EDB502A0DF3CFE9FF49
:104E4000F4CFEAFF640EE926050EEA22190EE926E0
:104E5000000EEA22EF50E66E110EE76EFD0EDBCF7C
:104E6000E9FFFE0EDBCFEAFFE750E926000EEA225B
:104E7000E552E750EF6EFC0EDB502A0DF3CFE9FF51
:104E8000F4CFEAFF640EE926050EEA221A0EE9269F
:104E9000000EEA22EF50E66E120EE76EFD0EDBCF3B
:104EA000E9FFFE0EDBCFEAFFE750E926000EEA221B
:104EB000E552E750EF6EFC0EDB502A0DF3CFE9FF11
:104EC000F4CFEAFF640EE926050EEA221B0EE9265E
:104ED000000EEA22EF50E66E130EE76EFD0EDBCFFA
:104EE000E9FFFE0EDBCFEAFFE750E926000EEA22DB
:104EF000E552E750EF6EFC0EDB502A0DF3CFE9FFD1
:104F0000F4CFEAFF640EE926050EEA221C0EE9261C
:104F1000000EEA22EF50E66E140EE76EFD0EDBCFB8
:104F2000E9FFFE0EDBCFEAFFE750E926000EEA229A
:104F3000E552E750EF6EFC0EDB502A0DF3CFE9FF90
:104F4000F4CFEAFF640EE926050EEA221D0EE926DB
:104F5000000EEA22EF50E66E150EE76EFD0EDBCF77
:104F6000E9FFFE0EDBCFEAFFE750E926000EEA225A
:104F7000E552E750EF6EFC0EDB502A0DF3CFE9FF50
:104F8000F4CFEAFF640EE926050EEA221E0EE9269A
:104F9000000EEA22EF50E66E160EE76EFD0EDBCF36
:104FA000E9FFFE0EDBCFEAFFE750E926000EEA221A
:104FB000E552E750EF6EFC0EDB502A0DF3CFE9FF10
:104FC000F4CFEAFF640EE926050EEA221F0EE92659
:104FD000000EEA22EF50E66E170EE76EFD0EDBCFF5
:104FE000E9FFFE0EDBCFEAFFE750E926000EEA22DA
:104FF000E552E750EF6EFC0EDB502A0DF3CFE9FFD0
:10500000F4CFEAFF640EE926050EEA22200EE92617
:10501000000EEA22EF50E66E180EE76EFD0EDBCFB3
:10502000E9FFFE0EDBCFEAFFE750E926000EEA2299
:10503000E552E750EF6EFC0EDB502A0DF3CFE9FF8F
:10504000F4CFEAFF640EE926050EEA22210EE926D6
:10505000000EEA22EF50E66E190EE76EFD0EDBCF72
:10506000E9FFFE0EDBCFEAFFE750E926000EEA2259
:10507000E552E750EF6EFC0EDB502A0DF3CFE9FF4F
:10508000F4CFEAFF640EE926050EEA22220EE92695
:10509000000EEA22EF50E66E1A0EE76EFD0EDBCF31
:1050A000E9FFFE0EDBCFEAFFE750E926000EEA2219
:1050B000E552E750EF6EFC0EDB502A0DF3CFE9FF0F
:1050C000F4CFEAFF640EE926050EEA22230EE92654
:1050D000000EEA22EF50E66E1B0EE76EFD0EDBCFF0
:1050E000E9FFFE0EDBCFEAFFE750E926000EEA22D9
:1050F000E552E750EF6EE552E552E7CFD9FF1200D7
:10510000D9CFE6FFE1CFD9FFFE0EDBCF1CF01D6A41
:105110001CBE1D68D00E1D02F3CF1DF0070E1C0231
:10512000F3501D26D00E1C02F4501D26FC0EEA6A18
:10513000DB34FE0BEA36E96E090EE926020EEA229E
:10514000F3CFEEFF1DC0EDFFFD0EDBCF1CF01D6A9F
:105150001CBE1D68FC0EEA6ADB34FE0BEA36E96E03
:10516000110EE926020EEA221CC0EEFF1DC0EDFF63
:10517000E552E7CFD9FF1200D9CFE6FFE1CFD9FF43
:105180001A0EE126BD0E1C6EB70E1D6E1E6A1CC0E7
:10519000E6FFE66E1EC0E6FF140EE66E0C0EE66E2F
:1051A000FCEC5CF01F6E050EE15E1F50570EE76EC3
:1051B000FD0EDBCFE9FFFE0EDBCFEAFFE750E9266D
:1051C000000EEA22EF0401E0C9D0010EE76EFD0EE9
:1051D000DBCFE9FFFE0EDBCFEAFFE750E926000E4A
:1051E000EA22EF500201065D0AE1FD0EDBCFE6FF89
:1051F000FE0EDBCFE6FF88EC3DF0E552E552580E9F
:10520000E76EFD0EDBCFE9FFFE0EDBCFEAFFE750D6
:10521000E926000EEA22020EEFCFDBFF590EE76E01
:10522000FD0EDBCFE9FFFE0EDBCFEAFFE750E926FC
:10523000000EEA22030EEFCFDBFF5A0EE76EFD0EE3
:10524000DBCFE9FFFE0EDBCFEAFFE750E926000ED9
:10525000EA22040EEFCFDBFFDF6A02016351DF5C5D
:1052600002E3C0EF3AF0DF502A0DF3CFE9FFF4CFAD
:10527000EAFF640EE926050EEA22070EE926000E73
:10528000EA22EF0469E1DF502A0DF3CFE9FFF4CF02
:10529000EAFF640EE926050EEA22240EE926000E36
:1052A000EA22EF50280858E1DF502A0DF3CFE9FF3A
:1052B000F4CFEAFF640EE926050EEA22080EE9267D
:1052C000000EEA22EFCF1CF0020EDB501C5C44E122
:1052D000DF502A0DF3CFE9FFF4CFEAFF640EE92691
:1052E000050EEA22090EE926000EEA22EFCF1DF094
:1052F000030EDB501D5C30E1DF502A0DF3CFE9FFD8
:10530000F4CFEAFF640EE926050EEA220A0EE9262A
:10531000000EEA22EFCF1EF0040EDB501E5C1CE1F3
:10532000DFCFE6FFFD0EDBCFE6FFFE0EDBCFE6FFB5
:105330008CEC25F0E552E552E552E66AFD0EDBCF36
:10534000E6FFFE0EDBCFE6FF17DFE552E552E55242
:10535000000902E1A3EF35F0DF2A7FD75B0EE76E8D
:10536000FD0EDBCFE9FFFE0EDBCFEAFFE750E926BB
:10537000000EEA22EF0401E0C5D0010EE76EFD0E3B
:10538000DBCFE9FFFE0EDBCFEAFFE750E926000E98
:10539000EA22EF500201065D0AE1FD0EDBCFE6FFD7
:1053A000FE0EDBCFE6FF88EC3DF0E552E5525C0EE9
:1053B000E76EFD0EDBCFE9FFFE0EDBCFEAFFE75025
:1053C000E926000EEA22070EEFCFDBFF5D0EE76E47
:1053D000FD0EDBCFE9FFFE0EDBCFEAFFE750E9264B
:1053E000000EEA22080EEFCFDBFF5E0EE76EFD0E29
:1053F000DBCFE9FFFE0EDBCFEAFFE750E926000E28
:10540000EA22090EEFCFDBFFDF6A02016351DF5CA6
:1054100002E3C0EF3AF0DF502A0DF3CFE9FFF4CFFB
:10542000EAFF640EE926050EEA22EF0469E1DF5087
:105430002A0DF3CFE9FFF4CFEAFF640EE926050E4B
:10544000EA22240EE926000EEA22EF50280858E14D
:10545000DF502A0DF3CFE9FFF4CFEAFF640EE9260F
:10546000050EEA22010EE926000EEA22EFCF1CF01B
:10547000070EDB501C5C44E1DF502A0DF3CFE9FF3F
:10548000F4CFEAFF640EE926050EEA22020EE926B1
:10549000000EEA22EFCF1DF0080EDB501D5C30E15C
:1054A000DF502A0DF3CFE9FFF4CFEAFF640EE926BF
:1054B000050EEA22030EE926000EEA22EFCF1EF0C7
:1054C000090EDB501E5C1CE1DFCFE6FFFD0EDBCFDB
:1054D000E6FFFE0EDBCFE6FF8CEC25F0E552E55251
:1054E000E552E66AFD0EDBCFE6FFFE0EDBCFE6FF00
:1054F00043DEE552E552E552000902E1A3EF35F043
:10550000DF2A83D75F0EE76EFD0EDBCFE9FFFE0ECD
:10551000DBCFEAFFE750E926000EEA22EF0401E0C4
:10552000A6D0010EE76EFD0EDBCFE9FFFE0EDBCF4E
:10553000EAFFE750E926000EEA22EF500201065D7D
:105540000AE1FD0EDBCFE6FFFE0EDBCFE6FF88ECC7
:105550003DF0E552E552600EE76EFD0EDBCFE9FF50
:10556000FE0EDBCFEAFFE750E926000EEA220A0E24
:10557000EFCFDBFF610EE76EFD0EDBCFE9FFFE0E26
:10558000DBCFEAFFE750E926000EEA220B0EEFCF51
:10559000DBFFDF6A02016351DF5C02E3C0EF3AF038
:1055A000DF502A0DF3CFE9FFF4CFEAFF640EE926BE
:1055B000050EEA22040EE926000EEA22EF0455E168
:1055C000DF502A0DF3CFE9FFF4CFEAFF640EE9269E
:1055D000050EEA22240EE926000EEA22EF502808E2
:1055E00044E1DF502A0DF3CFE9FFF4CFEAFF640E68
:1055F000E926050EEA22050EE926000EEA22EFCF83
:105600001CF00A0EDB501C5C30E1DF502A0DF3CF9A
:10561000E9FFF4CFEAFF640EE926050EEA22060E42
:10562000E926000EEA22EFCF1DF00B0EDB501D5CC9
:105630001CE1DFCFE6FFFD0EDBCFE6FFFE0EDBCF8A
:10564000E6FF8CEC25F0E552E552E552E66AFD0EE8
:10565000DBCFE6FFFE0EDBCFE6FF8EDDE552E55247
:10566000E552000902E1A3EF35F0DF2A93D7020EDD
:10567000E76EFD0EDBCFE9FFFE0EDBCFEAFFE75062
:10568000E926000EEA22EF50240A01E1A4D0070A1D
:105690006EE0260A4AE0010A26E0010EE76EFD0EE2
:1056A000DBCFE9FFFE0EDBCFEAFFE750E926000E75
:1056B000EA22EF500201065D01E1C2D0070502E0D7
:1056C000C0EF3AF0FD0EDBCFE6FFFE0EDBCFE6FFCC
:1056D00088EC3DF0E552E552FC0EDB0402E0C0EF41
:1056E0003AF0B9EF3AF00201010EC66FE76EFD0E17
:1056F000DBCFE9FFFE0EDBCFEAFFE750E926000E25
:10570000EA22EF50065D0AE1FD0EDBCFE6FFFE0E5A
:10571000DBCFE6FF88EC3DF0E552E552FC0EDB0402
:1057200002E0C0EF3AF0B9EF3AF00201C66B010EA9
:10573000E76EFD0EDBCFE9FFFE0EDBCFEAFFE750A1
:10574000E926000EEA22EF50065D0AE1FD0EDBCFEE
:10575000E6FFFE0EDBCFE6FF88EC3DF0E552E552BA
:10576000FC0EDB0402E0C0EF3AF0B9EF3AF0010EB4
:10577000E76EFD0EDBCFE9FFFE0EDBCFEAFFE75061
:10578000E926000EEA22EF500201065D0DE0070552
:105790000BE1FD0EDBCFE6FFFE0EDBCFE6FF88EC74
:1057A0003DF0E552E55210D0010EE76EFD0EDBCF65
:1057B000E9FFFE0EDBCFEAFFE750E926000EEA2202
:1057C000EF50065D01E1C66BFC0EDB0402E0C0EFAA
:1057D0003AF0B9EF3AF0010EE76EFD0EDBCFE9FFCC
:1057E000FE0EDBCFEAFFE750E926000EEA22EF507B
:1057F0000201065D0DE007050BE1FD0EDBCFE6FFC4
:10580000FE0EDBCFE6FF88EC3DF0E552E55211D00D
:10581000010EE76EFD0EDBCFE9FFFE0EDBCFEAFFE8
:10582000E750E926000EEA22EF50065D02E153EC54
:1058300000F0FC0EDB0402E0C0EF3AF0B9EF3AF002
:10584000FD0EDBCFE9FFFE0EDBCFEAFFEF50020AD1
:1058500001E1D5D3030A02E0C2EF3AF0230EE76E6E
:10586000FD0EDBCFE9FFFE0EDBCFEAFFE750E926B6
:10587000000EEA22EF0401E095D0240EE76EFD0E43
:10588000DBCFE9FFFE0EDBCFEAFFE750E926000E93
:10589000EA22EF5003083EE1010E5E6FE66AE66A17
:1058A0001EEC40F0E552E5520201030E5D6F5E6BA7
:1058B000090EF36E0C0EF3CFDBFF0D0EDB6AD95031
:1058C000110FE66E000EDA20E66E0C0EDBCFE6FF5F
:1058D0000D0EDBCFE6FF1CEC00F0E552E552E55281
:1058E000E552110EDB5002015D5D0DE05DC2E6FF89
:1058F0000C0EDBCFE6FF0D0EDBCFE6FFADEC01F0CB
:10590000E552E552E552FC0EDB0402E0C0EF3AF04E
:10591000B9EF3AF0240EE76EFD0EDBCFE9FFFE0E85
:10592000DBCFEAFFE750E926000EEA22EF50060837
:1059300037E1010E5E6F060E5D6F5E6B090EF36E52
:105940000C0EF3CFDBFF0D0EDB6AD950110FE66EA4
:10595000000EDA20E66E0C0EDBCFE6FF0D0EDBCF7D
:10596000E6FF1CEC00F0E552E552E552E552110E5F
:10597000DB5002015D5D0DE05DC2E6FF0C0EDBCF8A
:10598000E6FF0D0EDBCFE6FFADEC01F0E552E55290
:10599000E552FC0EDB0402E0C0EF3AF0B9EF3AF05A
:1059A000050E61D2250EE76EFD0EDBCFE9FFFE0E80
:1059B000DBCFEAFFE750E926000EEA22EF0401E020
:1059C000C2D1270EE76EFD0EDBCFE9FFFE0EDBCF67
:1059D000EAFFE750E926000EEA22EF500B0810E03C
:1059E000270EE76EFD0EDBCFE9FFFE0EDBCFEAFFF1
:1059F000E750E926000EEA22EF500E0801E0A1D19F
:105A0000260EE76EFD0EDBCFE9FFFE0EDBCFEAFFD1
:105A1000E750E926000EEA22EFCF1CF01C5C01E201
:105A20008ED1260EE76EFD0EDBCFE9FFFE0EDBCF3B
:105A3000EAFFE750E926000EEA22EF50030801E2F0
:105A40007ED1010E5E6F260EE76EFD0EDBCFE9FF05
:105A5000FE0EDBCFEAFFE750E926000EEA22EF5008
:105A6000030A01E1E1D0010A01E195D0030A4CE00B
:105A7000010A01E021D1270EE76EFD0EDBCFE9FF21
:105A8000FE0EDBCFEAFFE750E926000EEA22EF50D8
:105A9000E8B09582E8A095920B0EF36E0C0EF3CF52
:105AA000DBFF0D0EDB6AD950110FE66E000EDA2017
:105AB000E66E0C0EDBCFE6FF0D0EDBCFE6FF1CEC37
:105AC00000F0E552E552E552E5529550020B01E037
