:020000040000FA
:0600000096EF5EF0120015
:020006001200E6
:06000800BCEF43F0120002
:02000E00FEFFF3
:060018005EEF44F012004F
:02001E000200DE
:1000200075BD000060000000140000000E0000001C
:08003000740000000200000052
:08003800D9CFE6FFE1CFD9FFAB
:10004000E150FD0FE96EFF0EDA20EA6EFF0ED88058
:10005000EE54030EED5402E2000E21D0FF0EE76EC7
:10006000FD0EDBCF20F0FE0EE7502016216A205057
:10007000A96EFD0EFE0EDBCF21F021C020F0216A1B
:10008000030E2014AA6EA69EA69CA680FB0EDBCFB4
:10009000E9FFFC0EDBCFEAFFA8CFEFFF010EE55230
:1000A000E7CFD9FF1200D9CFE6FFE1CFD9FF060E87
:1000B000E126090EDE6EDD6A000EE66EE66AE66E89
:1000C000E66AE6EC42F0E552E552E552E5520201FD
:1000D000010E986999699C699D69A26F666B020E11
:1000E000DB6A030EDB6A040EDB6A050EDB6AD9509D
:1000F000020FE96EDACFEAFFFF0EEE5CFF0EEE585C
:10010000050EEE58000EEE580BE2D950020FE96EC4
:10011000DACFEAFFEE2A000EEE22EE22EE22E7D739
:10012000010EE66EE66AE66EE66AE6EC42F0E5523D
:10013000E552E552E5520201010E666F9A6B9B6B28
:100140009E6B9F6B666B020EDB6A030EDB6A040E0E
:10015000DB6A050EDB6AD950020FE96EDACFEAFFDF
:10016000FF0EEE5CFF0EEE58050EEE58000EEE5838
:100170000BE2D950020FE96EDACFEAFFEE2A000E49
:10018000EE22EE22EE22E7D70201666BA26B666BCF
:1001900099C220F0216A2050E66EDFCF22F0DF2ADC
:1001A000010EDBCF23F001E3DB2A22C0E6FF23C0F0
:1001B000E6FFDEDAE552E552E55202019851E66EBD
:1001C000DFCF20F0DF2A010EDBCF21F001E3DB2AB5
:1001D00020C0E6FF21C0E6FFCBDAE552E552E5524A
:1001E0009BC220F0216A2050E66EDFCF22F0DF2A8A
:1001F000010EDBCF23F001E3DB2A22C0E6FF23C0A0
:10020000E6FFB6DAE552E552E55202019A51E66E92
:10021000DFCF20F0DF2A010EDBCF21F001E3DB2A64
:1002200020C0E6FF21C0E6FFA3DAE552E552E55221
:100230009DC220F0216A2050E66EDFCF22F0DF2A37
:10024000010EDBCF23F001E3DB2A22C0E6FF23C04F
:10025000E6FF8EDAE552E552E55202019C51E66E68
:10026000DFCF20F0DF2A010EDBCF21F001E3DB2A14
:1002700020C0E6FF21C0E6FF7BDAE552E552E552F9
:100280009FC220F0216A2050E66EDFCF22F0DF2AE5
:10029000010EDBCF23F001E3DB2A22C0E6FF23C0FF
:1002A000E6FF66DAE552E552E55202019E51E66E3E
:1002B000DECFE6FFDDCFE6FF5BDAE552E552E55241
:1002C000060EE15C02E2E16AE552E16EE552E7CF3B
:1002D000D9FF1200D9CFE6FFE1CFD9FF040EE12606
:1002E000010EDB6A020EDB6A030EDB6A080EF36E98
:1002F000030EDBCFF4FFF350F45C17E2030EDBCF09
:10030000E6FF010EDBCF20F0DB2A020EDBCF21F06F
:1003100001E3DB2A20C0E6FF21C0E6FF29DAE5522F
:10032000E552E552030EDB2AE1D7080EF36E010E0B
:10033000F3CFDBFF020EDB6A060EDF6EDFCFE6FFD8
:10034000010EDBCFE6FF020EDBCFE6FF11DAE5524E
:10035000E552E552110EF36E010EF3CFDBFF020EF4
:10036000DB6ADF6ADFCFE6FF010EDBCFE6FF020EBE
:10037000DBCFE6FFFDD9E552E552E5520201010E61
:10038000060E656F6B6B666B120EF36E010EF3CF8C
:10039000DBFF020EDB6AD950010FE96EDACFEAFF0C
:1003A000150ED880EE54000EED5411E3010EE66EEA
:1003B000DBCFE6FF020EDBCFE6FFDAD9E552E552EE
:1003C000E552010EDB2A020EE6E3DB2AE4D7B6ECA7
:1003D0004BF035EC4DF0040EE15C02E2E16AE552CF
:1003E000E16EE552E7CFD9FF1200D9CFE6FFE1CFAA
:1003F000D9FF060EE126010EDB6A020EDB6A050E4E
:10040000DB6A080EF36E050EDBCFF4FFF350F45CED
:100410001FE2D9CFE6FFDACFE6FF010EDBCF20F0F7
:10042000DB2A020EDBCF21F001E3DB2A20C0E6FF4E
:1004300021C0E6FF01DEE552E552E552E552050E28
:10044000DB50DF5C02E046DF80D1050EDB2AD9D726
:10045000080EF36E010EF3CFDBFF020EDB6AD9CF7D
:10046000E6FFDACFE6FF010EDBCFE6FF020EDBCFC1
:10047000E6FFE2DDE552E552E552E5520201010EEA
:10048000666FDFCF65F2666B120EF36E010EF3CF6F
:10049000DBFF020EDB6AD9CFE6FFDACFE6FF010E03
:1004A000DBCF20F0DB2A020EDBCF21F001E3DB2AD9
:1004B00020C0E6FF21C0E6FFBFDDE552E552E55270
:1004C000E552DF50E8B09582E8A09592D9CFE6FFDB
:1004D000DACFE6FF010EDBCF20F0DB2A020EDBCF06
:1004E00021F001E3DB2A20C0E6FF21C0E6FFA4DD06
:1004F000E552E552E552E552DF50E8B09584E8A0B8
:100500009594D9CFE6FFDACFE6FF010EDBCF20F0DE
:10051000DB2A020EDBCF21F001E3DB2A20C0E6FF5D
:1005200021C0E6FF89DDE552E552E552E552DF5094
:10053000E8B09586E8A09596D9CFE6FFDACFE6FF3A
:10054000010EDBCFE6FF020EDBCFE6FF75DDE552E5
:10055000E552E552E552DF50E8B09488E8A094985F
:10056000090EF36E010EF3CFDBFF020EDB6AD9CF6B
:10057000E6FFDACFE6FF010EDBCF20F0DB2A020E2A
:10058000DBCF21F001E3DB2A20C0E6FF21C0E6FF3C
:1005900053DDE552E552E552E552DF500201986F16
:1005A000996BD9CFE6FFDACFE6FF010EDBCF20F063
:1005B000DB2A020EDBCF21F001E3DB2A20C0E6FFBD
:1005C00021C0E6FF39DDE552E552E552E55298C219
:1005D00021F0206ADF5002012024986F000E2120B4
:1005E000996FD9CFE6FFDACFE6FF010EDBCF20F01F
:1005F000DB2A020EDBCF21F001E3DB2A20C0E6FF7D
:1006000021C0E6FF19DDE552E552E552E552DF5023
:1006100002019A6F9B6BD9CFE6FFDACFE6FF010E9E
:10062000DBCF20F0DB2A020EDBCF21F001E3DB2A57
:1006300020C0E6FF21C0E6FFFFDCE552E552E552AF
:10064000E5529AC221F0206ADF50020120249A6FFD
:10065000000E21209B6FD9CFE6FFDACFE6FF010E17
:10066000DBCF20F0DB2A020EDBCF21F001E3DB2A17
:1006700020C0E6FF21C0E6FFDFDCE552E552E5528F
:10068000E552DF5002019C6F9D6BD9CFE6FFDACFB8
:10069000E6FF010EDBCF20F0DB2A020EDBCF21F0DC
:1006A00001E3DB2A20C0E6FF21C0E6FFC5DCE552FE
:1006B000E552E552E5529CC221F0206ADF5002016A
:1006C00020249C6F000E21209D6FD9CFE6FFDACF4A
:1006D000E6FF010EDBCF20F0DB2A020EDBCF21F09C
:1006E00001E3DB2A20C0E6FF21C0E6FFA5DCE552DE
:1006F000E552E552E552DF5002019E6F9F6BD9CF64
:10070000E6FFDACFE6FF010EDBCFE6FF020EDBCF1E
:10071000E6FF92DCE552E552E552E5529EC221F039
:10072000206ADF50020120249E6F000E21209F6F5F
:1007300098519A5DA36F99519B59A46F9C519E5DEE
:10074000A56F9D519F59A66FA5D9060EE15C02E2E7
:10075000E16AE552E16EE552E7CFD9FF1200A1A8A8
:1007600003D0A198A694010C000CA6A2010C000CC9
:10077000D9CFE6FFE1CFD9FFE150FD0FE96EFF0EC3
:10078000DA20EA6EFF0ED880EE54030EED5402E23A
:10079000000E2CD0EADF0009FDE0FF0EE76EFD0E33
:1007A000DBCF20F0FE0EE7502016216A2050A96E04
:1007B000FD0EFE0EDBCF21F021C020F0216A030EDA
:1007C0002014AA6EFC0EDB50A86EA69EA69CA684E2
:1007D000F29E550EA76EAA0EA76EA682C0DFFF0876
:1007E000FDE0C3DF0009FDE0F28E010EE552E7CF28
:1007F000D9FF12004AEF05F0840E206EB70E216E6D
:10080000226A20C0E6FFE66E22C0E6FF140EE66E06
:100810000C0EE66ECFEC5CF0236E050EE15E23500D
:10082000140EE66E0C0EE66E4CEC3CF0E552E55212
:100830006C0E206EB70E216E226A20C0E6FFE66EB7
:1008400022C0E6FF140EE66E0C0EE66ECFEC5CF0F6
:10085000236E050EE15E2350140EE66E0C0EE66E5E
:100860004CEC3CF0E552E5525E0E206EB70E216E68
:10087000226A20C0E6FFE66E22C0E6FF140EE66E96
:100880000C0EE66ECFEC5CF0236E050EE15E23509D
:1008900002010651E66EE66A140EE66E0C0EE66E76
:1008A000590E206EB70E216E226A20C0E6FFE66E5A
:1008B00022C0E6FF140EE66E0C0EE66ECFEC5CF086
:1008C000236E090EE15E2350140EE66E0C0EE66EEA
:1008D0004CEC3CF0E552E5524B0E206EB70E216E0B
:1008E000226A20C0E6FFE66E22C0E6FF140EE66E26
:1008F0000C0EE66ECFEC5CF0236E050EE15E23502D
:1009000079DFE66EE66A140EE66E0C0EE66E440EB5
:10091000206EB70E216E226A20C0E6FFE66E22C06E
:10092000E6FF140EE66E0C0EE66ECFEC5CF0236E66
:10093000090EE15E2350140EE66E0C0EE66E4CECD2
:100940003CF0E552E552360E206EB70E216E226A5B
:1009500020C0E6FFE66E22C0E6FF140EE66E0C0E27
:10096000E66ECFEC5CF0236E050EE15E23500201D3
:100970006B51E66EE66A140EE66E0C0EE66E590ECC
:10098000206EB70E216E226A20C0E6FFE66E22C0FE
:10099000E6FF140EE66E0C0EE66ECFEC5CF0236EF6
:1009A000090EE15E2350140EE66E0C0EE66E4CEC62
:1009B0003CF0E552E552280E206EB70E216E226AF9
:1009C00020C0E6FFE66E22C0E6FF140EE66E0C0EB7
:1009D000E66ECFEC5CF0236E050EE15E2350060E52
:1009E0000201655D1AE1A751E66EE66A140EE66E35
:1009F0000C0EE66E1B0E206EB70E216E226A20C012
:100A0000E6FFE66E22C0E6FF140EE66E0C0EE66E02
:100A1000CFEC5CF0236E090E16D0140EE66E0C0EB1
:100A2000E66E150E206EB70E216E226A20C0E6FF1C
:100A3000E66E22C0E6FF140EE66E0C0EE66ECFECFC
:100A40005CF0236E070EE15E2350140EE66E0C0E72
:100A5000E66E4CEC3CF0E552E552140E206EB70EFB
:100A6000216E226A20C0E6FFE66E22C0E6FF140E69
:100A7000E66E0C0EE66ECFEC5CF0236E050EE15ECA
:100A80002350140EE66E0C0EE66E4CEC3CF0E55274
:100A9000E5521200D9CFE6FFE1CFD9FF0B0EE126D8
:100AA000110EF36E050EF3CFDBFF060EDB6AD95095
:100AB000040FE66E000EDA20E66E050EDBCFE6FFD1
:100AC000060EDBCFE6FF1CEC00F0E552E552E552E6
:100AD000E552040EDBCF6BF202016B5102E1640EB2
:100AE0000AD1160EF36E050EF3CFDBFF060EDB6A9E
:100AF000D950040FE66E000EDA20E66E050EDBCF4D
:100B000020F0DB2A060EDBCF21F001E3DB2A20C038
:100B1000E6FF21C0E6FF1CEC00F0E552E552E5528D
:100B2000E552040EDB50DE6EDD6AD950040FE66E2E
:100B3000000EDA20E66E050EDBCF20F0DB2A060E73
:100B4000DBCF21F001E3DB2A20C0E6FF21C0E6FF76
:100B50001CEC00F0E552E552E552E552020EDB6A6C
:100B600002016B51F36E020EDBCFF4FFF350F45C25
:100B700001E383D0030EDB6A2A0EF36E030EDBCF94
:100B8000F4FFF350F45C76E2020EDB502A0DF3CF53
:100B900020F0F4CF21F0640E2026050E2122030E52
:100BA000DB500F012024E96E000E2120EA6E040EB6
:100BB000DBCFEFFFD9CFE9FFDACFEAFF000ED88015
:100BC000EE54000EED5404E2DF06010E01E2DB06F6
:100BD000D9CFE9FFDACFEAFFEE50ED1036E1D95078
:100BE000040FE66E000EDA20E66E050EDBCF20F075
:100BF000DB2A060EDBCF21F001E3DB2A20C0E6FF73
:100C000021C0E6FF1CEC00F0E552E552E552E5524A
:100C1000040EDB50DE6EDD6AD950040FE66E000E66
:100C2000DA20E66E050EDBCF20F0DB2A060EDBCFE6
:100C300021F001E3DB2A20C0E6FF21C0E6FF1CEC27
:100C400000F0E552E552E552E552D9CFE9FFDACF9F
:100C5000EAFFEE50ED1011E0050EDBCF20F0060E9E
:100C6000DBCF21F0000E205C040E215806E2030EBB
:100C7000DB2A82D7020EDB2A73D7206A040E216E8C
:100C8000226A236A050EDBCF24F0060EDBCF25F0A7
:100C9000266A276A2450205C066E25502158076E6C
:100CA00026502258086E27502358096E640E0B6E8A
:100CB0000C6A0D6A0E6A02EC5EF002C006F003C018
:100CC00007F004C008F005C009F0EA0E0B6E030E31
:100CD0000C6E0D6A0E6AF2EC5BF0070E06C0DBFFCD
:100CE000080E07C0DBFF090E08C0DBFF0A0E09C0B3
:100CF000DBFF070EDB50206E0B0EE15C02E2E16AC7
:100D0000E552E16E2050E552E7CFD9FF1200D9CF6E
:100D1000E6FFE1CFD9FF0D0EE126020EDB6A030EDE
:100D2000DB6A080E64C5DBFF060EDB6A070EDB6AB2
:100D3000DF6A02016B51DF5C6CE2010EDB6A2A0E96
:100D4000F36E010EDBCFF4FFF350F45C60E2DF5092
:100D50002A0DF3CF21F0F4CF22F0640E2126050EE8
:100D60002222010EDB502124E96E000E2220EA6EC1
:100D7000EFCF20F0080EDB50205C11E1060EDB2ADD
:100D8000070E01E3DB2A060EDBCF20F0070EDBCFD8
:100D900021F0000E205C010E215836E315D0D95009
:100DA000020FE96EDACFEAFFE70ED880EE54030EA9
:100DB000ED540AE3D950020FE96EDACFEAFF020ED2
:100DC000EE26000EED2205D00201110E726F000E0C
:100DD000D8D1010EF36E060EF3CFDBFF070EDB6AF0
:100DE000DF502A0DF3CF20F0F4CF21F0640E20263F
:100DF000050E2122010EDB502024E96E000E212079
:100E0000EA6E080EEFCFDBFF010EDB2A98D7DF2A50
:100E100090D7080E64C5DBFF060EDB6A070EDB6A9F
:100E2000160EF36E090EF3CFDBFF0A0EDB6ADF6AE4
:100E300002016B51DF5C01E3BCD0010EDB6A2A0EBC
:100E4000F36E010EDBCFF4FFF350F45C01E3AFD09F
:100E5000DF502A0DF3CF21F0F4CF22F0640E2126CB
:100E6000050E2222010EDB500F012124E96E000E37
:100E70002220EA6EEFCF20F0080EDB50205C07E165
:100E8000060EDB2A070E01E28FD0DB2A8DD0060E7C
:100E9000DB50E76E0B0EE7CFDBFFD9500C0FE66E91
:100EA000000EDA20E66E090EDBCFE6FF0A0EDBCF7E
:100EB000E6FF1CEC00F0E552E552E552E5520B0E60
:100EC000DB50F36E0C0EDB50F35C15E00B0EDBCF4A
:100ED000E6FF090EDBCF20F0DB2A0A0EDBCF21F084
:100EE00001E3DB2A20C0E6FF21C0E6FF41DCE5523A
:100EF000E552E55205D0090EDB2A0A0E01E3DB2A92
:100F0000080EDB50E76E0B0EE7CFDBFFD9500C0F5E
:100F1000E66E000EDA20E66E090EDBCFE6FF0A0E63
:100F2000DBCFE6FF1CEC00F0E552E552E552E5525E
:100F30000B0EDB50F36E0C0EDB50F35C15E00B0E6A
:100F4000DBCFE6FF090EDBCF20F0DB2A0A0EDBCF7A
:100F500021F001E3DB2A20C0E6FF21C0E6FF08DC28
:100F6000E552E552E55205D0090EDB2A0A0E01E3EF
:100F7000DB2A010EF36E060EF3CFDBFF070EDB6AF2
:100F8000DF502A0DF3CF20F0F4CF21F0640E20269D
:100F9000050E2122010EDB502024E96E000E2120D7
:100FA000EA6E080EEFCFDBFF010EDB2A48D7DF2AFF
:100FB0003FD7D950090FE96EDACFEAFFFD0ED8808E
:100FC000EE54030EED5401E2AAD0060EDB50E76E9C
:100FD0000B0EE7CFDBFFD9500C0FE66E000EDA20C8
:100FE000E66E090EDBCFE6FF0A0EDBCFE6FF1CEC58
:100FF00000F0E552E552E552E5520B0EDB50F36E80
:101000000C0EDB50F35C16E00B0EDBCFE6FF090E97
:10101000DBCF20F0DB2A0A0EDBCF21F001E3DB2A55
:1010200020C0E6FF21C0E6FFB8EC03F0E552E55230
:10103000E55205D0090EDB2A0A0E01E3DB2A080E71
:10104000DB50E76E0B0EE7CFDBFFD9500C0FE66EDF
:10105000000EDA20E66E090EDBCFE6FF0A0EDBCFCC
:10106000E6FF1CEC00F0E552E552E552E5520B0EAE
:10107000DB50F36E0C0EDB50F35C16E00B0EDBCF97
:10108000E6FF090EDBCF20F0DB2A0A0EDBCF21F0D2
:1010900001E3DB2A20C0E6FF21C0E6FFB8EC03F045
:1010A000E552E552E55205D0090EDB2A0A0E01E3AE
:1010B000DB2A0B0EDB6AD9500C0FE66E000EDA202D
:1010C000E66E090EDBCFE6FF0A0EDBCFE6FF1CEC77
:1010D00000F0E552E552E552E5520B0EDB50F36E9F
:1010E0000C0EDB50F35C16E00B0EDBCFE6FF090EB7
:1010F000DBCF20F0DB2A0A0EDBCF21F001E3DB2A75
:1011000020C0E6FF21C0E6FFB8EC03F0E552E5524F
:10111000E55205D0090EDB2A0A0E01E3DB2A110E87
:10112000F36E090EF3CFDBFF0A0EDB6A0B0E6BC208
:10113000DBFFD9500C0FE66E000EDA20E66E090ECA
:10114000DBCFE6FF0A0EDBCFE6FF1CEC00F0E5523A
:10115000E552E552E5520B0EDB50F36E0C0EDB5000
:10116000F35C0EE00B0EDBCFE6FF090EDBCFE6FFF4
:101170000A0EDBCFE6FFB8EC03F0E552E552E5528C
:10118000010E206E0D0EE15C02E2E16AE552E16EB5
:101190002050E552E7CFD9FF1200D9CFE6FFE1CFCB
:1011A000D9FF300EF36EFE0EDBCFF4FFF350F45C8C
:1011B00006E3FE0EDB50390802E3010E01D0000EFB
:1011C000E552E7CFD9FF1200D9CFE6FFE1CFD9FF33
:1011D000410EF36EFE0EDBCFF4FFF350F45C06E33A
:1011E000FE0EDB50460802E3010E01D0000EE55270
:1011F000E7CFD9FF1200D9CFE6FFE1CFD9FFE65202
:10120000610EF36EFE0EDBCFF4FFF350F45C08E3E7
:10121000FE0EDB507A0804E3FE0EDB50E00F02D036
:10122000FE0EDB50DF6EDF50E552E552E7CFD9FF0F
:101230001200D9CFE6FFE1CFD9FF090EE126DE6A21
:10124000DD6A020EDB6A030EDB6A0A0EF36E040E21
:10125000F3CFDBFF050EDB6A060EDB6AFD0EDBCF8C
:10126000E9FFFE0EDBCFEAFFEF50300805E1FD0E8F
:10127000DB2AFE0E01E3DB2AFD0EDBCFE9FFFE0ECB
:10128000DBCFEAFFEF5001E1F1D0FD0EDBCFE9FF4C
:10129000FE0EDBCFEAFFEF50200801E1E7D0FD0EA4
:1012A000DBCFE9FFFE0EDBCFEAFFEF50E66EA3DFF8
:1012B000E55258080AE1FD0EDB2AFE0E01E3DB2AA7
:1012C000100EF36E040EF3CFDBFFFD0EDBCFE9FF54
:1012D000FE0EDBCFEAFFEF5001E19ED0FD0EDBCF2B
:1012E000E9FFFE0EDBCFEAFFEF50200801E194D0CA
:1012F000FD0EDBCFE9FFFE0EDBCFEAFFEF50E66E1F
:101300004CDFE552000913E0FD0EDBCFE9FFFE0ED6
:10131000DBCFEAFFEF50D00FE66ED950070FE96E32
:10132000DACFEAFFE552E750EE6EED6A39D0FD0EF6
:10133000DBCFE9FFFE0EDBCFEAFFEF50E66E5BDFAF
:10134000E552E66E41DFE552000901E18BD0FD0E6A
:10135000DBCFE9FFFE0EDBCFEAFFEF50E66E4BDF9F
:10136000E552BF0F0A0FE66ED950070FE96EDACFCC
:10137000EAFFE552E750EE6EED6A070EDBCF20F094
:10138000080EDBCF21F0D890215004E60A0E205C35
:10139000000E215805E3100EF36E040EF3CFDBFFB1
:1013A000070EDBCF22F0080EDBCF23F0100E086E05
:1013B000096ADECF0DF0DDCF0EF026EC5CF00650B2
:1013C0002224206E07502320216E20C0DEFFDD6E18
:1013D000070EDBCF22F0080EDBCF23F00A0E086EDB
:1013E000096A020EDBCF0DF0030EDBCF0EF026EC08
:1013F0005CF006502224206E07502320216E020E3E
:1014000020C0DBFF030E21C0DBFFFD0EDB2AFE0E3A
:1014100001E25BD7DB2A59D7040EDB500A080DE145
:10142000020EDBCF08F0030EDBCF09F0050E08C07B
:10143000DBFF060E09C0DBFF0AD0D9CFE9FFDACF08
:10144000EAFF050EEECFDBFF060EEDCFDBFF050E4C
:10145000DBCF20F0060EDBCF21F0000E205C000E6B
:10146000215804E2220E0201FE6FFF6B050EDBCF56
:1014700020F0060EDBCF21F020C0F3FF21C0F4FFE7
:10148000090EE15C02E2E16AE552E16EE552E7CF66
:10149000D9FF120002017251E66EE66A090E206E53
:1014A000B70E216E226A20C0E6FFE66E22C0E6FF7C
:1014B000140EE66E0C0EE66ECFEC5CF0236E070E9B
:1014C000E15E2350140EE66E0C0EE66E4CEC3CF022
:1014D000E552E552140E206EB70E216E226A20C02E
:1014E000E6FFE66E22C0E6FF140EE66E0C0EE66E18
:1014F000CFEC5CF0236E050EE15E2350140EE66E19
:101500000C0EE66E4CEC3CF0E552E5520201726BBB
:101510001200D9CFE6FFE1CFD9FF0C0EE126DF6A3A
:10152000010EDB6ADF6ADF50206E216AE66E21C0A1
:10153000E6FFFD0EDBCFE6FFFE0EDBCFE6FF71EC34
:101540005CF0E552E552E552E7CF21F0E552E7CFF6
:1015500020F0F3CF22F0F4CF23F02150F418E8AEBE
:1015600002D0233404D02250205C2350215801E3C0
:10157000AFD0DF50E76EFD0EDBCFE9FFFE0EDBCF15
:10158000EAFFE750E926000EEA22EF50200808E1C2
:10159000F90EDBCFE9FFFA0EDBCFEAFFEF2A96D098
:1015A000DF50E76EFD0EDBCFE9FFFE0EDBCFEAFF7B
:1015B000E750E926000EEA22EF50E66ED950020FFE
:1015C000206EDACF21F0010EDBCFF3FFDB2AF350E0
:1015D0000F012024E96E000EDA20EA6EE552E75092
:1015E000EF6EF90EDBCFE9FFFA0EDBCFEAFFEF2A51
:1015F000FB0EDBCFE6FFFC0EDBCFE6FF71EC5CF011
:10160000E552E552F3CF22F0F4CF23F0F3CFE6FF1B
:10161000F4CFE6FFFB0EDBCFE6FFFC0EDBCFE6FFF1
:10162000D950020FE66E000EDA20E66E7FEC5CF019
:10163000246E060EE15E2450F350F41002E1010E18
:101640004BD0010EDB50206E216AE66E21C0E6FF12
:10165000FB0EDBCFE6FFFC0EDBCFE6FF71EC5CF0B0
:10166000E552E552E552E7CF21F0E552E7CF20F011
:10167000F3CF24F0F4CF25F0D890F45004E6090E0F
:10168000245C000E255819E220C0E6FF21C0E6FFC9
:10169000FB0EDBCFE6FFFC0EDBCFE6FF71EC5CF070
:1016A000E552E552E552E7CF21F0E552E7CF20F0D1
:1016B000F3CF22F0F4CF23F003D0090E226E236A79
:1016C0002250201803E12350211802E0DF2A2BD7F3
:1016D0000201010E726F000E206E0C0EE15C02E240
:1016E000E16AE552E16E2050E552E7CFD9FF1200E2
:1016F000D9CFE6FFE1CFD9FF050EE126DF6A010E63
:10170000DB6A0201FE6BFF6BDF50E76EFD0EDBCF85
:10171000E9FFFE0EDBCFEAFFE750E926000EEA22E2
:10172000EF5020082EE1DF50206E216AE66E21C0C6
:10173000E6FFFD0EDBCFE6FFFE0EDBCFE6FF71EC32
:101740005CF0E552E552E552E7CF21F0E552E7CFF4
:1017500020F0F3CF22F0F4CF23F02150F418E8AEBC
:1017600002D0233404D02250205C2350215809E2B7
:10177000F90EDBCFE9FFFA0EDBCFEAFFEF2ADF2A13
:10178000C3D7DF50E76EFD0EDBCF20F0FE0EDBCFC0
:1017900021F0E7502026000E212220C0E6FF21C0C4
:1017A000E6FF47DDE552E552030EF3CFDBFF040E03
:1017B000F4CFDBFF0201220EFE1901E1FF5105E02B
:1017C000160EFE1905E1FF5103E1020EDB6A05D09A
:1017D000010EF36E020EF3CFDBFFD950030FE96E5B
:1017E000DACFEAFFFF0ED880EE54000EED540BE284
:1017F000220EFE1901E1FF5102E0000E01D0010EA0
:101800000201040E4DD0020EDB0448E1DF50E76E0A
:10181000FD0EDBCFE9FFFE0EDBCFEAFFE750E92646
:10182000000EEA22EF5020082EE0DF50206E216AE1
:10183000E66E21C0E6FFFD0EDBCFE6FFFE0EDBCF3E
:10184000E6FF71EC5CF0E552E552E552E7CF21F09E
:10185000E552E7CF20F0F3CF22F0F4CF23F0215070
:10186000F418E8AE02D0233404D02250205C235078
:10187000215809E2F90EDBCFE9FFFA0EDBCFEAFFD0
:10188000EF2ADF2AC3D7FB0EDBCFE9FFFC0EDBCF4D
:10189000EAFF030EDBCFEFFF010E04D00201020EC0
:1018A000726F000E206E050EE15C02E2E16AE55205
:1018B000E16E2050E552E7CFD9FF1200D9CFE6FF05
:1018C000E1CFD9FF020EE126010EDB6ADF6A030ECB
:1018D000F36E010EDBCFF4FFF350F45C01E399D01B
:1018E000FB0EDBCFE9FFFC0EDBCFEAFFEF50E76E2C
:1018F000FD0EDBCFE9FFFE0EDBCFEAFFE750E92666
:10190000000EEA22EF5020085EE0010EDB5005E1F8
:10191000DF5003E10201120E79D0FB0EDBCFE9FFAD
:10192000FC0EDBCFEAFFEF50206E216AE66E21C08D
:10193000E6FFFD0EDBCFE6FFFE0EDBCFE6FF71EC30
:101940005CF0E552E552E552E7CF21F0E552E7CFF2
:1019500020F0F3CF22F0F4CF23F0F35020180AE167
:101960002350211807E1010EDB50000839E3020182
:101970001B0E4CD0FB0EDBCFE9FFFC0EDBCFEAFFEA
:10198000EF50EF2AE76EFD0EDBCFE9FFFE0EDBCF57
:10199000EAFFE750E926000EEA22EF50E66E010E5C
:1019A000DBCFF3FFDB2AF350E76EF90EDBCFE9FF65
:1019B000FA0EDBCFEAFFE750E926000EEA22E552F5
:1019C000E750EF6E1CD0010EDB500AE1010EDF6E16
:1019D000FB0EDBCFE9FFFC0EDBCFEAFFEF2A0FD0D7
:1019E000010EDB50E76EF90EDBCFE9FFFA0EDBCF1D
:1019F000EAFFE750E926000EEA22EF6A0AD0010E5C
:101A0000DB50030801E063D70201130E726F000E72
:101A100001D0010E206E020EE15C02E2E16AE552A5
:101A2000E16E2050E552E7CFD9FF1200D9CFE6FF93
:101A3000E1CFD9FF0E0EE126DF6A010EDB6AFB0E55
:101A4000DBCFE6FFFC0EDBCFE6FF62EC28F0E552D1
:101A5000E552040E206EB70E216E226A20C0E6FF0A
:101A6000E66E22C0E6FFD950020FE66E000EDA20C5
:101A7000E66ECFEC5CF0236E050EE15E2350D9CF0D
:101A8000E6FFDACFE6FFD950020FE66E000EDA204D
:101A9000E66EDF50E76EFD0EDBCF20F0FE0EDBCFF3
:101AA00021F0E7502026000E212220C0E6FF21C0B1
:101AB000E6FF2FDD226E060EE15E225000090EE0E9
:101AC000020EE76EFB0EDBCFE9FFFC0EDBCFEAFF79
:101AD000E750E926000EEA22040E45D0FD0E206EE6
:101AE000B60E216E226A20C0E6FFE66E22C0E6FF37
:101AF000D950020FE66E000EDA20E66ECFEC5CF0F5
:101B0000236E050EE15E2350DF6AD9CFE6FFDACF00
:101B1000E6FFD950020FE66E000EDA20E66EDF50C7
:101B2000E76EFD0EDBCF20F0FE0EDBCF21F0E7509D
:101B30002026000E212220C0E6FF21C0E6FFE9DCBE
:101B4000226E060EE15E225000091EE0020EE76ED4
:101B5000FB0EDBCFE9FFFC0EDBCFEAFFE750E92607
:101B6000000EEA22050EEF6E010EE76EFB0EDBCFD4
:101B7000E9FFFC0EDBCFEAFFE750E926000EEA2280
:101B800006C2EFFF6AEF25F0F90E206EB60E216E49
:101B9000226A20C0E6FFE66E22C0E6FFD950020F9F
:101BA000E66E000EDA20E66ECFEC5CF0236E050EDA
:101BB000E15E2350DF6AD9CFE6FFDACFE6FFD950E6
:101BC000020FE66E000EDA20E66EDF50E76EFD0EC5
:101BD000DBCF20F0FE0EDBCF21F0E7502026000EF9
:101BE000212220C0E6FF21C0E6FF93DC226E060E14
:101BF000E15E225000093DE0020EE76EFB0EDBCFF6
:101C0000E9FFFC0EDBCFEAFFE750E926000EEA22EF
:101C1000230EEF6ED9CFE6FFDACFE6FF010EE76EB7
:101C2000FB0EDBCF20F0FC0EDBCF21F0E7502026AF
:101C3000000E212220C0E6FF21C0E6FFDF50E76E44
:101C4000FD0EDBCF22F0FE0EDBCF23F0E750222685
:101C5000000E232222C0E6FF23C0E6FF49DD246EEA
:101C6000060EE15E2450000902E168EF25F06AEFFC
:101C700025F0F30E206EB60E216E226A20C0E6FF1C
:101C8000E66E22C0E6FFD950020FE66E000EDA20A3
:101C9000E66ECFEC5CF0236E050EE15E2350DF6A4A
:101CA000D9CFE6FFDACFE6FFD950020FE66E000E7D
:101CB000DA20E66EDF50E76EFD0EDBCF20F0FE0E81
:101CC000DBCF21F0E7502026000E212220C0E6FFC6
:101CD00021C0E6FF1EDC226E060EE15E22500009E6
:101CE0003DE0020EE76EFB0EDBCFE9FFFC0EDBCF23
:101CF000EAFFE750E926000EEA222D0EEF6ED9CF5B
:101D0000E6FFDACFE6FF010EE76EFB0EDBCF20F039
:101D1000FC0EDBCF21F0E7502026000E212220C050
:101D2000E6FF21C0E6FFDF50E76EFD0EDBCF22F0BD
:101D3000FE0EDBCF23F0E7502226000E232222C026
:101D4000E6FF23C0E6FFD4DC246E060EE15E2450DD
:101D5000000902E06AEF25F068EF25F0ED0E206E35
:101D6000B60E216E226A20C0E6FFE66E22C0E6FFB4
:101D7000D950020FE66E000EDA20E66ECFEC5CF072
:101D8000236E050EE15E2350DF6AD9CFE6FFDACF7E
:101D9000E6FFD950020FE66E000EDA20E66EDF5045
:101DA000E76EFD0EDBCF20F0FE0EDBCF21F0E7501B
:101DB0002026000E212220C0E6FF21C0E6FF89EC8C
:101DC0000AF0226E060EE15E225000093DE0020E8E
:101DD000E76EFB0EDBCFE9FFFC0EDBCFEAFFE7503F
:101DE000E926000EEA22240EEF6ED9CFE6FFDACF05
:101DF000E6FF010EE76EFB0EDBCF20F0FC0EDBCF23
:101E000021F0E7502026000E212220C0E6FF21C04D
:101E1000E6FFDF50E76EFD0EDBCF22F0FE0EDBCFDC
:101E200023F0E7502226000E232222C0E6FF23C023
:101E3000E6FF5EDC246E060EE15E2450000902E03F
:101E40006AEF25F068EF25F0DF6AE80E206EB60E27
:101E5000216E226A20C0E6FFE66E22C0E6FFD9505E
:101E6000020FE66E000EDA20E66ECFEC5CF0236E19
:101E7000050EE15E2350D9CFE6FFDACFE6FFD95059
:101E8000020FE66E000EDA20E66EDF50E76EFD0E02
:101E9000DBCF20F0FE0EDBCF21F0E7502026000E36
:101EA000212220C0E6FF21C0E6FF89EC0AF0226E65
:101EB000060EE15E2250000902E160EF1DF0FB0E0C
:101EC000DBCFE9FFFC0EDBCFEAFF010EEF6ED9CFCF
:101ED000E6FFDACFE6FFE76EFB0EDBCF20F0FC0E6D
:101EE000DBCF21F0E7502026000E212220C0E6FFA4
:101EF00021C0E6FFDF50E76EFD0EDBCF22F0FE0EC5
:101F0000DBCF23F0E7502226000E232222C0E6FF7B
:101F100023C0E6FF78EC0BF0246E060EE15E245041
:101F2000000902E168EF25F0010EDFCFDBFFE40ED0
:101F3000206EB60E216E226A20C0E6FFE66E22C039
:101F4000E6FFD950020FE66E000EDA20E66ECFEC07
:101F50005CF0236E050EE15E2350D9CFE6FFDACFA9
:101F6000E6FFD950020FE66E000EDA20E66EDF5073
:101F7000E76EFD0EDBCF20F0FE0EDBCF21F0E75049
:101F80002026000E212220C0E6FF21C0E6FF89ECBA
:101F90000AF0226E060EE15E225000091DE0230EBB
:101FA000E76EFB0EDBCFE9FFFC0EDBCFEAFFE7506D
:101FB000E926000EEA22010EEF6E240EE76EFB0EFC
:101FC000DBCFE9FFFC0EDBCFEAFFE750E926000E8E
:101FD000EA22030EC5EF24F0E00E206EB60E216E4D
:101FE000226A20C0E6FFE66E22C0E6FFD950020F4B
:101FF000E66E000EDA20E66ECFEC5CF0236E050E86
:10200000E15E2350010EDB50DF6ED9CFE6FFDACF61
:10201000E6FFD950020FE66E000EDA20E66EDF50C2
:10202000E76EFD0EDBCF20F0FE0EDBCF21F0E75098
:102030002026000E212220C0E6FF21C0E6FF89EC09
:102040000AF0226E060EE15E225000091DE0230E0A
:10205000E76EFB0EDBCFE9FFFC0EDBCFEAFFE750BC
:10206000E926000EEA22010EEF6E240EE76EFB0E4B
:10207000DBCFE9FFFC0EDBCFEAFFE750E926000EDD
:10208000EA22060EC5EF24F0DB0E206EB60E216E9E
:10209000226A20C0E6FFE66E22C0E6FFD950020F9A
:1020A000E66E000EDA20E66ECFEC5CF0236E050ED5
:1020B000E15E2350010EDB50DF6ED9CFE6FFDACFB1
:1020C000E6FFD950020FE66E000EDA20E66EDF5012
:1020D000E76EFD0EDBCF20F0FE0EDBCF21F0E750E8
:1020E0002026000E212220C0E6FF21C0E6FF89EC59
:1020F0000AF0226E060EE15E2250000901E1D2D004
:10210000250EE76EFB0EDBCFE9FFFC0EDBCFEAFF0F
:10211000E750E926000EEA22010EEF6ED9CFE6FF66
:10212000DACFE6FF260EE76EFB0EDBCF20F0FC0ECB
:10213000DBCF21F0E7502026000E212220C0E6FF51
:1021400021C0E6FFDF50E76EFD0EDBCF22F0FE0E72
:10215000DBCF23F0E7502226000E232222C0E6FF29
:1021600023C0E6FF78EC0BF0246E060EE15E2450EF
:10217000000902E168EF25F0010EDFCFDBFFD80E8A
:10218000206EB60E216E226A20C0E6FFE66E22C0E7
:10219000E6FFD950020FE66E000EDA20E66ECFECB5
:1021A0005CF0236E050EE15E2350D9CFE6FFDACF57
:1021B000E6FFD950020FE66E000EDA20E66EDF5021
:1021C000E76EFD0EDBCF20F0FE0EDBCF21F0E750F7
:1021D0002026000E212220C0E6FF21C0E6FF89EC68
:1021E0000AF0226E060EE15E225000090FE0270E73
:1021F000E76EFB0EDBCFE9FFFC0EDBCFEAFFE7501B
:10220000E926000EEA220B0EC5EF24F0010EDB508A
:10221000DF6ED40E206EB60E216E226A20C0E6FF5D
:10222000E66E22C0E6FFD950020FE66E000EDA20FD
:10223000E66ECFEC5CF0236E050EE15E2350D9CF45
:10224000E6FFDACFE6FFD950020FE66E000EDA2085
:10225000E66EDF50E76EFD0EDBCF20F0FE0EDBCF2B
:1022600021F0E7502026000E212220C0E6FF21C0E9
:10227000E6FF89EC0AF0226E060EE15E22500009AC
:1022800002E168EF25F0270EE76EFB0EDBCFE9FFDA
:10229000FC0EDBCFEAFFE750E926000EEA220E0E25
:1022A000C5EF24F0010EDB50DF6ED00E206EB60EAF
:1022B000216E226A20C0E6FFE66E22C0E6FFD950FA
:1022C000020FE66E000EDA20E66ECFEC5CF0236EB5
:1022D000050EE15E2350D9CFE6FFDACFE6FFD950F5
:1022E000020FE66E000EDA20E66EDF50E76EFD0E9E
:1022F000DBCF20F0FE0EDBCF21F0E7502026000ED2
:10230000212220C0E6FF21C0E6FF89EC0AF0226E00
:10231000060EE15E2250000902E1E7EF1CF02B0EF1
:10232000E76EFB0EDBCFE9FFFC0EDBCFEAFFE750E9
:10233000E926000EEA22010EEF6E520EE76EFB0E4A
:10234000DBCF20F0FC0EDBCF21F0E7502026000E83
:10235000212220C0E6FF21C0E6FFD9CFE6FFDACF79
:10236000E6FFFD0EDBCFE6FFFE0EDBCFE6FF5EEC09
:102370000CF0226E060EE15E2250000902E168EFC9
:1023800025F0010EDFCFDBFFCA0E206EB60E216EE8
:10239000226A20C0E6FFE66E22C0E6FFD950020F97
:1023A000E66E000EDA20E66ECFEC5CF0236E050ED2
:1023B000E15E2350D9CFE6FFDACFE6FFD950020F16
:1023C000E66E000EDA20E66EDF50E76EFD0EDBCF24
:1023D00020F0FE0EDBCF21F0E7502026000E212258
:1023E00020C0E6FF21C0E6FF89EC0AF0226E060E4F
:1023F000E15E225000090EE0510EE76EFB0EDBCFCE
:10240000E9FFFC0EDBCFEAFFE750E926000EEA22E7
:10241000280E49D0010EDB50DF6EC30E206EB60EC3
:10242000216E226A20C0E6FFE66E22C0E6FFD95088
:10243000020FE66E000EDA20E66ECFEC5CF0236E43
:10244000050EE15E2350D9CFE6FFDACFE6FFD95083
:10245000020FE66E000EDA20E66EDF50E76EFD0E2C
:10246000DBCF20F0FE0EDBCF21F0E7502026000E60
:10247000212220C0E6FF21C0E6FF89EC0AF0226E8F
:10248000060EE15E2250000901E17AD0510EE76E9E
:10249000FB0EDBCFE9FFFC0EDBCFEAFFE750E926BE
:1024A000000EEA22290EEF6E500EE76EFB0EDBCF18
:1024B000E9FFFC0EDBCFEAFFE750E926000EEA2237
:1024C000280EEF6EBD0E206EB60E216E226A20C061
:1024D000E6FFE66E22C0E6FFD950020FE66E000E60
:1024E000DA20E66ECFEC5CF0236E050EE15E235041
:1024F000D9CFE6FFDACFE6FFD950020FE66E000E25
:10250000DA20E66EDF50E76EFD0EDBCF20F0FE0E28
:10251000DBCF21F0E7502026000E212220C0E6FF6D
:1025200021C0E6FF89EC0AF0226E060EE15E225021
:10253000000902E168EF25F0D9CFE6FFDACFE6FF28
:10254000D9500C0FE66E000EDA20E66EDF50E76E13
:10255000FD0EDBCF20F0FE0EDBCF21F0E750202672
:10256000000E212220C0E6FF21C0E6FF78EC0BF030
:10257000226E060EE15E2250000907E168EF25F0A9
:102580000201010E726F68EF25F0010EDFCFDBFF55
:10259000DB0E206EB60E216E226A20C0E6FFE66ECC
:1025A00022C0E6FFD950020FE66E000EDA20E66E7A
:1025B000CFEC5CF0236E050EE15E2350D9CFE6FF31
:1025C000DACFE6FFD950020FE66E000EDA20E66E93
:1025D000DF50E76EFD0EDBCF20F0FE0EDBCF21F0EB
:1025E000E7502026000E212220C0E6FF21C0E6FF92
:1025F00089EC0AF0226E060EE15E2250000901E12C
:102600007AD02C0EE76EFB0EDBCFE9FFFC0EDBCFA2
:10261000EAFFE750E926000EEA22010EEF6E2D0ECA
:10262000E76EFB0EDBCFE9FFFC0EDBCFEAFFE750E6
:10263000E926000EEA220C0EDBCFEFFFD9CFE6FF32
:10264000DACFE6FF2E0EE76EFB0EDBCF20F0FC0E9E
:10265000DBCF21F0E7502026000E212220C0E6FF2C
:1026600021C0E6FFDF50E76EFD0EDBCF22F0FE0E4D
:10267000DBCF23F0E7502226000E232222C0E6FF04
:1026800023C0E6FF78EC0BF0246E060EE15E2450CA
:10269000000902E168EF25F0D9CFE6FFDACFE6FFC7
:1026A0002F0EE76EFB0EDBCF20F0FC0EDBCF21F010
:1026B000E7502026000E212220C0E6FF21C0E6FFC1
:1026C000DF50E76EFD0EDBCF22F0FE0EDBCF23F0F6
:1026D000E7502226000E232222C0E6FF23C0E6FF99
:1026E00078EC0BF0246E060EE15E2450000901E048
:1026F000DFD168EF25F0010EDB50DF6EB70E206EE4
:10270000B60E216E226A20C0E6FFE66E22C0E6FF0A
:10271000D950020FE66E000EDA20E66ECFEC5CF0C8
:10272000236E050EE15E2350D9CFE6FFDACFE6FF38
:10273000D950020FE66E000EDA20E66EDF50E76E2B
:10274000FD0EDBCF20F0FE0EDBCF21F0E750202680
:10275000000E212220C0E6FF21C0E6FF89EC0AF02E
:10276000226E060EE15E225000094CE0300EE76E4C
:10277000FB0EDBCFE9FFFC0EDBCFEAFFE750E926DB
:10278000000EEA22010EEF6E310EE76EFB0EDBCF7C
:10279000E9FFFC0EDBCFEAFFE750E926000EEA2254
:1027A0000C0EDBCFEFFFD9CFE6FFDACFE6FF320E1C
:1027B000E76EFB0EDBCF20F0FC0EDBCF21F0E75005
:1027C0002026000E212220C0E6FF21C0E6FFDF50B8
:1027D000E76EFD0EDBCF22F0FE0EDBCF23F0E750DD
:1027E0002226000E232222C0E6FF23C0E6FF78EC5B
:1027F0000BF0246E060EE15E2450000901E058D172
:1028000068EF25F0010EDB50DF6EB10E206EB60EC4
:10281000216E226A20C0E6FFE66E22C0E6FFD95094
:10282000020FE66E000EDA20E66ECFEC5CF0236E4F
:10283000050EE15E2350D9CFE6FFDACFE6FFD9508F
:10284000020FE66E000EDA20E66EDF50E76EFD0E38
:10285000DBCF20F0FE0EDBCF21F0E7502026000E6C
:10286000212220C0E6FF21C0E6FF89EC0AF0226E9B
:10287000060EE15E2250000902E168EF25F0330EFA
:10288000E76EFB0EDBCFE9FFFC0EDBCFEAFFE75084
:10289000E926000EEA22010EEF6E340EE76EFB0E03
:1028A000DBCFE9FFFC0EDBCFEAFFE750E926000EA5
:1028B000EA220C0EDBCFEFFFD9CFE6FFDACFE6FF3F
:1028C000350EE76EFB0EDBCF20F0FC0EDBCF21F0E8
:1028D000E7502026000E212220C0E6FF21C0E6FF9F
:1028E000DF50E76EFD0EDBCF22F0FE0EDBCF23F0D4
:1028F000E7502226000E232222C0E6FF23C0E6FF77
:1029000078EC0BF0246E060EE15E2450000902E123
:1029100068EF25F0AD0E206EB60E216E226A20C043
:10292000E6FFE66E22C0E6FFD950020FE66E000E0B
:10293000DA20E66ECFEC5CF0236E050EE15E2350EC
:10294000D9CFE6FFDACFE6FFD950020FE66E000ED0
:10295000DA20E66EDF50E76EFD0EDBCF20F0FE0ED4
:10296000DBCF21F0E7502026000E212220C0E6FF19
:1029700021C0E6FF89EC0AF0226E060EE15E2250CD
:10298000000902E168EF25F0010EDFCFDBFFA50EA5
:10299000206EB60E216E226A20C0E6FFE66E22C0CF
:1029A000E6FFD950020FE66E000EDA20E66ECFEC9D
:1029B0005CF0236E050EE15E2350D9CFE6FFDACF3F
:1029C000E6FFD950020FE66E000EDA20E66EDF5009
:1029D000E76EFD0EDBCF20F0FE0EDBCF21F0E750DF
:1029E0002026000E212220C0E6FF21C0E6FF89EC50
:1029F0000AF0226E060EE15E225000090EE0360E4D
:102A0000E76EFB0EDBCFE9FFFC0EDBCFEAFFE75002
:102A1000E926000EEA220F0E4AD0010EDB50DF6ECF
:102A20009C0E206EB60E216E226A20C0E6FFE66E76
:102A300022C0E6FFD950020FE66E000EDA20E66EE5
:102A4000CFEC5CF0236E050EE15E2350D9CFE6FF9C
:102A5000DACFE6FFD950020FE66E000EDA20E66EFE
:102A6000DF50E76EFD0EDBCF20F0FE0EDBCF21F056
:102A7000E7502026000E212220C0E6FF21C0E6FFFD
:102A800089EC0AF0226E060EE15E2250000902E196
:102A900068EF25F0360EE76EFB0EDBCFE9FFFC0E8C
:102AA000DBCFEAFFE750E926000EEA22100EEF6EB8
:102AB000980E206EB60E216E226A20C0E6FFE66EEA
:102AC00022C0E6FFD950020FE66E000EDA20E66E55
:102AD000CFEC5CF0236E050EE15E2350D9CFE6FF0C
:102AE000DACFE6FFD950020FE66E000EDA20E66E6E
:102AF000DF50E76EFD0EDBCF20F0FE0EDBCF21F0C6
:102B0000E7502026000E212220C0E6FF21C0E6FF6C
:102B100089EC0AF0226E060EE15E2250000902E105
:102B200068EF25F0010EDFCFDBFFDB0E206EB60E67
:102B3000216E226A20C0E6FFE66E22C0E6FFD95071
:102B4000020FE66E000EDA20E66ECFEC5CF0236E2C
:102B5000050EE15E2350D9CFE6FFDACFE6FFD9506C
:102B6000020FE66E000EDA20E66EDF50E76EFD0E15
:102B7000DBCF20F0FE0EDBCF21F0E7502026000E49
:102B8000212220C0E6FF21C0E6FF89EC0AF0226E78
:102B9000060EE15E225000096CE0370EE76EFB0E78
:102BA000DBCFE9FFFC0EDBCFEAFFE750E926000EA2
:102BB000EA22010EEF6ED9CFE6FFDACFE6FF380E3C
:102BC000E76EFB0EDBCF20F0FC0EDBCF21F0E750F1
:102BD0002026000E212220C0E6FF21C0E6FFDF50A4
:102BE000E76EFD0EDBCF22F0FE0EDBCF23F0E750C9
:102BF0002226000E232222C0E6FF23C0E6FF78EC47
:102C00000BF0246E060EE15E2450000902E168EF2D
:102C100025F0D9CFE6FFDACFE6FF390EE76EFB0EDF
:102C2000DBCF20F0FC0EDBCF21F0E7502026000E9A
:102C3000212220C0E6FF21C0E6FFDF50E76EFD0E37
:102C4000DBCF22F0FE0EDBCF23F0E7502226000E72
:102C5000232222C0E6FF23C0E6FF78EC0BF0246EAF
:102C6000060EE15E2450000902E06AEF25F068EFED
:102C700025F0010EDB50DF6EB70E206EB60E216E12
:102C8000226A20C0E6FFE66E22C0E6FFD950020F9E
:102C9000E66E000EDA20E66ECFEC5CF0236E050ED9
:102CA000E15E2350D9CFE6FFDACFE6FFD950020F1D
:102CB000E66E000EDA20E66EDF50E76EFD0EDBCF2B
:102CC00020F0FE0EDBCF21F0E7502026000E21225F
:102CD00020C0E6FF21C0E6FF89EC0AF0226E060E56
:102CE000E15E225000096CE03A0EE76EFB0EDBCF8E
:102CF000E9FFFC0EDBCFEAFFE750E926000EEA22EF
:102D0000010EEF6ED9CFE6FFDACFE6FF3B0EE76E9E
:102D1000FB0EDBCF20F0FC0EDBCF21F0E7502026AE
:102D2000000E212220C0E6FF21C0E6FFDF50E76E43
:102D3000FD0EDBCF22F0FE0EDBCF23F0E750222684
:102D4000000E232222C0E6FF23C0E6FF78EC0BF042
:102D5000246E060EE15E2450000902E168EF25F0C2
:102D6000D9CFE6FFDACFE6FF3C0EE76EFB0EDBCFF6
:102D700020F0FC0EDBCF21F0E7502026000E2122B0
:102D800020C0E6FF21C0E6FFDF50E76EFD0EDBCF7F
:102D900022F0FE0EDBCF23F0E7502226000E232286
:102DA00022C0E6FF23C0E6FF78EC0BF0246E060E8F
:102DB000E15E2450000902E06AEF25F068EF25F09B
:102DC000010EDB50DF6E940E206EB60E216E226A6D
:102DD00020C0E6FFE66E22C0E6FFD950020FE66E85
:102DE000000EDA20E66ECFEC5CF0236E050EE15E9D
:102DF0002350D9CFE6FFDACFE6FFD950020FE66EB7
:102E0000000EDA20E66EDF50E76EFD0EDBCF20F01D
:102E1000FE0EDBCF21F0E7502026000E212220C03D
:102E2000E6FF21C0E6FF89EC0AF0226E060EE15EA5
:102E3000225000096CE03D0EE76EFB0EDBCFE9FF90
:102E4000FC0EDBCFEAFFE750E926000EEA22010E76
:102E5000EF6ED9CFE6FFDACFE6FF3E0EE76EFB0E50
:102E6000DBCF20F0FC0EDBCF21F0E7502026000E58
:102E7000212220C0E6FF21C0E6FFDF50E76EFD0EF5
:102E8000DBCF22F0FE0EDBCF23F0E7502226000E30
:102E9000232222C0E6FF23C0E6FF78EC0BF0246E6D
:102EA000060EE15E2450000902E168EF25F0D9CF5B
:102EB000E6FFDACFE6FF3F0EE76EFB0EDBCF20F03A
:102EC000FC0EDBCF21F0E7502026000E212220C08F
:102ED000E6FF21C0E6FFDF50E76EFD0EDBCF22F0FC
:102EE000FE0EDBCF23F0E7502226000E232222C065
:102EF000E6FF23C0E6FF78EC0BF0246E060EE15EE1
:102F00002450000902E06AEF25F068EF25F0010E79
:102F1000DB50DF6ECA0E206EB60E216E226A20C014
:102F2000E6FFE66E22C0E6FFD950020FE66E000E05
:102F3000DA20E66ECFEC5CF0236E050EE15E2350E6
:102F4000D9CFE6FFDACFE6FFD950020FE66E000ECA
:102F5000DA20E66EDF50E76EFD0EDBCF20F0FE0ECE
:102F6000DBCF21F0E7502026000E212220C0E6FF13
:102F700021C0E6FF89EC0AF0226E060EE15E2250C7
:102F8000000935E0400EE76EFB0EDBCFE9FFFC0EDB
:102F9000DBCFEAFFE750E926000EEA22010EEF6ED2
:102FA000410EE76EFB0EDBCF20F0FC0EDBCF21F0F5
:102FB000E7502026000E212220C0E6FF21C0E6FFB8
:102FC000D9CFE6FFDACFE6FFFD0EDBCFE6FFFE0E40
:102FD000DBCFE6FF5EEC0CF0226E060EE15E2250C7
:102FE000000902E168EF25F0450E34EF20F0010EF4
:102FF000DB50DF6EC30E206EB60E216E226A20C03B
:10300000E6FFE66E22C0E6FFD950020FE66E000E24
:10301000DA20E66ECFEC5CF0236E050EE15E235005
:10302000D9CFE6FFDACFE6FFD950020FE66E000EE9
:10303000DA20E66EDF50E76EFD0EDBCF20F0FE0EED
:10304000DBCF21F0E7502026000E212220C0E6FF32
:1030500021C0E6FF89EC0AF0226E060EE15E2250E6
:10306000000935E0400EE76EFB0EDBCFE9FFFC0EFA
:10307000DBCFEAFFE750E926000EEA22010EEF6EF1
:10308000410EE76EFB0EDBCF20F0FC0EDBCF21F014
:10309000E7502026000E212220C0E6FF21C0E6FFD7
:1030A000D9CFE6FFDACFE6FFFD0EDBCFE6FFFE0E5F
:1030B000DBCFE6FF5EEC0CF0226E060EE15E2250E6
:1030C000000902E168EF25F0450EB0EF20F0010E97
:1030D000DB50DF6EB10E206EB60E216E226A20C06C
:1030E000E6FFE66E22C0E6FFD950020FE66E000E44
:1030F000DA20E66ECFEC5CF0236E050EE15E235025
:10310000D9CFE6FFDACFE6FFD950020FE66E000E08
:10311000DA20E66EDF50E76EFD0EDBCF20F0FE0E0C
:10312000DBCF21F0E7502026000E212220C0E6FF51
:1031300021C0E6FF89EC0AF0226E060EE15E225005
:10314000000901E1B7D2460EE76EFB0EDBCFE9FFC7
:10315000FC0EDBCFEAFFE750E926000EEA22010E63
:10316000EF6ED9CFE6FFDACFE6FF470EE76EFB0E34
:10317000DBCF20F0FC0EDBCF21F0E7502026000E45
:10318000212220C0E6FF21C0E6FFDF50E76EFD0EE2
:10319000DBCF22F0FE0EDBCF23F0E7502226000E1D
:1031A000232222C0E6FF23C0E6FF78EC0BF0246E5A
:1031B000060EE15E2450000902E168EF25F08E0E54
:1031C000206EB60E216E226A20C0E6FFE66E22C097
:1031D000E6FFD950020FE66E000EDA20E66ECFEC65
:1031E0005CF0236E050EE15E2350D9CFE6FFDACF07
:1031F000E6FFD950020FE66E000EDA20E66EDF50D1
:10320000E76EFD0EDBCF20F0FE0EDBCF21F0E750A6
:103210002026000E212220C0E6FF21C0E6FF89EC17
:103220000AF0226E060EE15E2250000902E168EF0C
:1032300025F0010EDFCFDBFF880E206EB60E216E6B
:10324000226A20C0E6FFE66E22C0E6FFD950020FD8
:10325000E66E000EDA20E66ECFEC5CF0236E050E13
:10326000E15E2350D9CFE6FFDACFE6FFD950020F57
:10327000E66E000EDA20E66EDF50E76EFD0EDBCF65
:1032800020F0FE0EDBCF21F0E7502026000E212299
:1032900020C0E6FF21C0E6FF89EC0AF0226E060E90
:1032A000E15E225000090EE0480EE76EFB0EDBCF18
:1032B000E9FFFC0EDBCFEAFFE750E926000EEA2229
:1032C000EF687BD0010EDB50DF6E820E206EB60EF3
:1032D000216E226A20C0E6FFE66E22C0E6FFD950CA
:1032E000020FE66E000EDA20E66ECFEC5CF0236E85
:1032F000050EE15E2350D9CFE6FFDACFE6FFD950C5
:10330000020FE66E000EDA20E66EDF50E76EFD0E6D
:10331000DBCF20F0FE0EDBCF21F0E7502026000EA1
:10332000212220C0E6FF21C0E6FF89EC0AF0226ED0
:10333000060EE15E225000090FE0480EE76EFB0E1C
:10334000DBCFE9FFFC0EDBCFEAFFE750E926000EFA
:10335000EA22EE0EEF6E31D0010EDB50DF6ED9CFD8
:10336000E6FFDACFE6FF480EE76EFB0EDBCF20F07C
:10337000FC0EDBCF21F0E7502026000E212220C0DA
:10338000E6FF21C0E6FFDF50E76EFD0EDBCF22F047
:10339000FE0EDBCF23F0E7502226000E232222C0B0
:1033A000E6FF23C0E6FF78EC0BF0246E060EE15E2C
:1033B0002450000902E168EF25F0010EDFCFDBFFAA
:1033C0007D0E206EB60E216E226A20C0E6FFE66EEC
:1033D00022C0E6FFD950020FE66E000EDA20E66E3C
:1033E000CFEC5CF0236E050EE15E2350D9CFE6FFF3
:1033F000DACFE6FFD950020FE66E000EDA20E66E55
:10340000DF50E76EFD0EDBCF20F0FE0EDBCF21F0AC
:10341000E7502026000E212220C0E6FF21C0E6FF53
:1034200089EC0AF0226E060EE15E225000090EE0E1
:10343000490EE76EFB0EDBCFE9FFFC0EDBCFEAFFA8
:10344000E750E926000EEA22130E4AD0010EDB50A7
:10345000DF6E780E206EB60E216E226A20C0E6FF67
:10346000E66E22C0E6FFD950020FE66E000EDA20AB
:10347000E66ECFEC5CF0236E050EE15E2350D9CFF3
:10348000E6FFDACFE6FFD950020FE66E000EDA2033
:10349000E66EDF50E76EFD0EDBCF20F0FE0EDBCFD9
:1034A00021F0E7502026000E212220C0E6FF21C097
:1034B000E6FF89EC0AF0226E060EE15E225000095A
:1034C00002E168EF25F0490EE76EFB0EDBCFE9FF66
:1034D000FC0EDBCFEAFFE750E926000EEA22140ECD
:1034E000EF6E700E206EB60E216E226A20C0E6FFCF
:1034F000E66E22C0E6FFD950020FE66E000EDA201B
:10350000E66ECFEC5CF0236E050EE15E2350D9CF62
:10351000E6FFDACFE6FFD950020FE66E000EDA20A2
:10352000E66EDF50E76EFD0EDBCF20F0FE0EDBCF48
:1035300021F0E7502026000E212220C0E6FF21C006
:10354000E6FF89EC0AF0226E060EE15E22500009C9
:1035500002E168EF25F0010EDFCFDBFF880E206E61
:10356000B60E216E226A20C0E6FFE66E22C0E6FF9C
:10357000D950020FE66E000EDA20E66ECFEC5CF05A
:10358000236E050EE15E2350D9CFE6FFDACFE6FFCA
:10359000D950020FE66E000EDA20E66EDF50E76EBD
:1035A000FD0EDBCF20F0FE0EDBCF21F0E750202612
:1035B000000E212220C0E6FF21C0E6FF89EC0AF0C0
:1035C000226E060EE15E2250000903E04A0E3AEF39
:1035D00023F0010EDB50DF6E820E206EB60E216EE0
:1035E000226A20C0E6FFE66E22C0E6FFD950020F35
:1035F000E66E000EDA20E66ECFEC5CF0236E050E70
:10360000E15E2350D9CFE6FFDACFE6FFD950020FB3
:10361000E66E000EDA20E66EDF50E76EFD0EDBCFC1
:1036200020F0FE0EDBCF21F0E7502026000E2122F5
:1036300020C0E6FF21C0E6FF89EC0AF0226E060EEC
:10364000E15E2250000903E04A0E83EF23F0010EF1
:10365000DB50DF6ED9CFE6FFDACFE6FF4A0EE76E2A
:10366000FB0EDBCF20F0FC0EDBCF21F0E750202655
:10367000000E212220C0E6FF21C0E6FFDF50E76EEA
:10368000FD0EDBCF22F0FE0EDBCF23F0E75022262B
:10369000000E232222C0E6FF23C0E6FF78EC0BF0E9
:1036A000246E060EE15E2450000902E06AEF25F068
:1036B00068EF25F0010EDB50DF6E680E206EB60E4F
:1036C000216E226A20C0E6FFE66E22C0E6FFD950D6
:1036D000020FE66E000EDA20E66ECFEC5CF0236E91
:1036E000050EE15E2350D9CFE6FFDACFE6FFD950D1
:1036F000020FE66E000EDA20E66EDF50E76EFD0E7A
:10370000DBCF20F0FE0EDBCF21F0E7502026000EAD
:10371000212220C0E6FF21C0E6FF89EC0AF0226EDC
:10372000060EE15E2250000911E04B0EE76EFB0E23
:10373000DBCFE9FFFC0EDBCFEAFFE750E926000E06
:10374000EA22010EEF6E4C0E0BEF24F0010EDB505F
:10375000DF6E610E206EB60E216E226A20C0E6FF7B
:10376000E66E22C0E6FFD950020FE66E000EDA20A8
:10377000E66ECFEC5CF0236E050EE15E2350D9CFF0
:10378000E6FFDACFE6FFD950020FE66E000EDA2030
:10379000E66EDF50E76EFD0EDBCF20F0FE0EDBCFD6
:1037A00021F0E7502026000E212220C0E6FF21C094
:1037B000E6FF89EC0AF0226E060EE15E2250000957
:1037C00011E04B0EE76EFB0EDBCFE9FFFC0EDBCF0B
:1037D000EAFFE750E926000EEA22010EEF6E4C0EDA
:1037E00062EF24F0010EDB50DF6E570E206EB60E36
:1037F000216E226A20C0E6FFE66E22C0E6FFD950A5
:10380000020FE66E000EDA20E66ECFEC5CF0236E5F
:10381000050EE15E2350D9CFE6FFDACFE6FFD9509F
:10382000020FE66E000EDA20E66EDF50E76EFD0E48
:10383000DBCF20F0FE0EDBCF21F0E7502026000E7C
:10384000212220C0E6FF21C0E6FF89EC0AF0226EAB
:10385000060EE15E2250000911E04B0EE76EFB0EF2
:10386000DBCFE9FFFC0EDBCFEAFFE750E926000ED5
:10387000EA22010EEF6E4C0EB9EF24F0010EDB5080
:10388000DF6EE40E206EB60E216E226A20C0E6FFC7
:10389000E66E22C0E6FFD950020FE66E000EDA2077
:1038A000E66ECFEC5CF0236E050EE15E2350D9CFBF
:1038B000E6FFDACFE6FFD950020FE66E000EDA20FF
:1038C000E66EDF50E76EFD0EDBCF20F0FE0EDBCFA5
:1038D00021F0E7502026000E212220C0E6FF21C063
:1038E000E6FF89EC0AF0226E060EE15E2250000926
:1038F00002E168EF25F04D0EE76EFB0EDBCFE9FF2E
:10390000FC0EDBCFEAFFE750E926000EEA22010EAB
:10391000EF6ED9CFE6FFDACFE6FF4E0EE76EFB0E75
:10392000DBCF20F0FC0EDBCF21F0E7502026000E8D
:10393000212220C0E6FF21C0E6FFDF50E76EFD0E2A
:10394000DBCF22F0FE0EDBCF23F0E7502226000E65
:10395000232222C0E6FF23C0E6FF78EC0BF0246EA2
:10396000060EE15E2450000902E168EF25F0D9CF90
:10397000E6FFDACFE6FF4F0EE76EFB0EDBCF20F05F
:10398000FC0EDBCF21F0E7502026000E212220C0C4
:10399000E6FF21C0E6FFDF50E76EFD0EDBCF22F031
:1039A000FE0EDBCF23F0E7502226000E232222C09A
:1039B000E6FF23C0E6FF78EC0BF0246E060EE15E16
:1039C0002450000902E06AEF25F068EF25F0010EAF
:1039D000DB50DF6E530E206EB60E216E226A20C0C1
:1039E000E6FFE66E22C0E6FFD950020FE66E000E3B
:1039F000DA20E66ECFEC5CF0236E050EE15E23501C
:103A0000D9CFE6FFDACFE6FFD950020FE66E000EFF
:103A1000DA20E66EDF50E76EFD0EDBCF20F0FE0E03
:103A2000DBCF21F0E7502026000E212220C0E6FF48
:103A300021C0E6FF89EC0AF0226E060EE15E2250FC
:103A400000093EE0550EE76EFB0EDBCFE9FFFC0EF2
:103A5000DBCFEAFFE750E926000EEA22010EEF6E07
:103A6000D9CFE6FFDACFE6FF560EE76EFB0EDBCFCF
:103A700020F0FC0EDBCF21F0E7502026000E2122A3
:103A800020C0E6FF21C0E6FFDF50E76EFD0EDBCF72
:103A900022F0FE0EDBCF23F0E7502226000E232279
:103AA00022C0E6FF23C0E6FF78EC0BF0246E060E82
:103AB000E15E2450000902E06AEF25F068EF25F08E
:103AC000DF6A4F0E206EB60E216E226A20C0E6FF1E
:103AD000E66E22C0E6FFD950020FE66E000EDA2035
:103AE000E66ECFEC5CF0236E050EE15E2350D9CF7D
:103AF000E6FFDACFE6FFD950020FE66E000EDA20BD
:103B0000E66EDF50E76EFD0EDBCF20F0FE0EDBCF62
:103B100021F0E7502026000E212220C0E6FF21C020
:103B2000E6FF89EC0AF0226E060EE15E22500009E3
:103B300002E1EBEF26F0FB0EDBCFE9FFFC0EDBCF63
:103B4000EAFF020EEF6ED9CFE6FFDACFE6FF010EF5
:103B5000E76EFB0EDBCF20F0FC0EDBCF21F0E75051
:103B60002026000E212220C0E6FF21C0E6FFDF5004
:103B7000E76EFD0EDBCF22F0FE0EDBCF23F0E75029
:103B80002226000E232222C0E6FF23C0E6FF78ECA7
:103B90000BF0246E060EE15E2450000902E168EF8E
:103BA00025F0010EDFCFDBFFDB0E206EB60E216E9F
:103BB000226A20C0E6FFE66E22C0E6FFD950020F5F
:103BC000E66E000EDA20E66ECFEC5CF0236E050E9A
:103BD000E15E2350D9CFE6FFDACFE6FFD950020FDE
:103BE000E66E000EDA20E66EDF50E76EFD0EDBCFEC
:103BF00020F0FE0EDBCF21F0E7502026000E212220
:103C000020C0E6FF21C0E6FF89EC0AF0226E060E16
:103C1000E15E225000096CE0030EE76EFB0EDBCF85
:103C2000E9FFFC0EDBCFEAFFE750E926000EEA22AF
:103C3000010EEF6ED9CFE6FFDACFE6FF040EE76E96
:103C4000FB0EDBCF20F0FC0EDBCF21F0E75020266F
:103C5000000E212220C0E6FF21C0E6FFDF50E76E04
:103C6000FD0EDBCF22F0FE0EDBCF23F0E750222645
:103C7000000E232222C0E6FF23C0E6FF78EC0BF003
:103C8000246E060EE15E2450000902E168EF25F083
:103C9000D9CFE6FFDACFE6FF050EE76EFB0EDBCFEE
:103CA00020F0FC0EDBCF21F0E7502026000E212271
:103CB00020C0E6FF21C0E6FFDF50E76EFD0EDBCF40
:103CC00022F0FE0EDBCF23F0E7502226000E232247
:103CD00022C0E6FF23C0E6FF78EC0BF0246E060E50
:103CE000E15E2450000902E06AEF25F068EF25F05C
:103CF000010EDB50DF6EB70E206EB60E216E226A0B
:103D000020C0E6FFE66E22C0E6FFD950020FE66E45
:103D1000000EDA20E66ECFEC5CF0236E050EE15E5D
:103D20002350D9CFE6FFDACFE6FFD950020FE66E77
:103D3000000EDA20E66EDF50E76EFD0EDBCF20F0DE
:103D4000FE0EDBCF21F0E7502026000E212220C0FE
:103D5000E6FF21C0E6FF89EC0AF0226E060EE15E66
:103D6000225000096CE0060EE76EFB0EDBCFE9FF88
:103D7000FC0EDBCFEAFFE750E926000EEA22010E37
:103D8000EF6ED9CFE6FFDACFE6FF070EE76EFB0E48
:103D9000DBCF20F0FC0EDBCF21F0E7502026000E19
:103DA000212220C0E6FF21C0E6FFDF50E76EFD0EB6
:103DB000DBCF22F0FE0EDBCF23F0E7502226000EF1
:103DC000232222C0E6FF23C0E6FF78EC0BF0246E2E
:103DD000060EE15E2450000902E168EF25F0D9CF1C
:103DE000E6FFDACFE6FF080EE76EFB0EDBCF20F032
:103DF000FC0EDBCF21F0E7502026000E212220C050
:103E0000E6FF21C0E6FFDF50E76EFD0EDBCF22F0BC
:103E1000FE0EDBCF23F0E7502226000E232222C025
:103E2000E6FF23C0E6FF78EC0BF0246E060EE15EA1
:103E30002450000902E06AEF25F068EF25F0010E3A
:103E4000DB50DF6E940E206EB60E216E226A20C00B
:103E5000E6FFE66E22C0E6FFD950020FE66E000EC6
:103E6000DA20E66ECFEC5CF0236E050EE15E2350A7
:103E7000D9CFE6FFDACFE6FFD950020FE66E000E8B
:103E8000DA20E66EDF50E76EFD0EDBCF20F0FE0E8F
:103E9000DBCF21F0E7502026000E212220C0E6FFD4
:103EA00021C0E6FF89EC0AF0226E060EE15E225088
:103EB00000096CE0090EE76EFB0EDBCFE9FFFC0E9C
:103EC000DBCFEAFFE750E926000EEA22010EEF6E93
:103ED000D9CFE6FFDACFE6FF0A0EE76EFB0EDBCFA7
:103EE00020F0FC0EDBCF21F0E7502026000E21222F
:103EF00020C0E6FF21C0E6FFDF50E76EFD0EDBCFFE
:103F000022F0FE0EDBCF23F0E7502226000E232204
:103F100022C0E6FF23C0E6FF78EC0BF0246E060E0D
:103F2000E15E2450000902E168EF25F0D9CFE6FFF9
:103F3000DACFE6FF0B0EE76EFB0EDBCF20F0FC0EB8
:103F4000DBCF21F0E7502026000E212220C0E6FF23
:103F500021C0E6FFDF50E76EFD0EDBCF22F0FE0E44
:103F6000DBCF23F0E7502226000E232222C0E6FFFB
:103F700023C0E6FF78EC0BF0246E060EE15E2450C1
:103F8000000902E06AEF25F068EF25F0010EDB5032
:103F9000DF6ECA0E206EB60E216E226A20C0E6FFCA
:103FA000E66E22C0E6FFD950020FE66E000EDA2060
:103FB000E66ECFEC5CF0236E050EE15E2350D9CFA8
:103FC000E6FFDACFE6FFD950020FE66E000EDA20E8
:103FD000E66EDF50E76EFD0EDBCF20F0FE0EDBCF8E
:103FE00021F0E7502026000E212220C0E6FF21C04C
:103FF000E6FF89EC0AF0226E060EE15E225000090F
:1040000041E00C0EE76EFB0EDBCFE9FFFC0EDBCFD1
:10401000EAFFE750E926000EEA22010EEF6E0D0ED0
:10402000E76EFB0EDBCF20F0FC0EDBCF21F0E7507C
:104030002026000E212220C0E6FF21C0E6FFD9CFB6
:10404000E6FFDACFE6FFFD0EDBCFE6FFFE0EDBCFAD
:10405000E6FF5EEC0CF0226E060EE15E22500009D7
:1040600002E168EF25F0110EE76EFB0EDBCFE9FFF2
:10407000FC0EDBCFEAFFE750E926000EEA22280E0D
:10408000C5EF24F0010EDB50DF6EC30E206EB60EBE
:10409000216E226A20C0E6FFE66E22C0E6FFD950FC
:1040A000020FE66E000EDA20E66ECFEC5CF0236EB7
:1040B000050EE15E2350D9CFE6FFDACFE6FFD950F7
:1040C000020FE66E000EDA20E66EDF50E76EFD0EA0
:1040D000DBCF20F0FE0EDBCF21F0E7502026000ED4
:1040E000212220C0E6FF21C0E6FF89EC0AF0226E03
:1040F000060EE15E2250000941E00C0EE76EFB0E59
:10410000DBCFE9FFFC0EDBCFEAFFE750E926000E2C
:10411000EA22010EEF6E0D0EE76EFB0EDBCF20F0F4
:10412000FC0EDBCF21F0E7502026000E212220C01C
:10413000E6FF21C0E6FFD9CFE6FFDACFE6FFFD0EAE
:10414000DBCFE6FFFE0EDBCFE6FF5EEC0CF0226E6F
:10415000060EE15E2250000902E168EF25F0110E23
:10416000E76EFB0EDBCFE9FFFC0EDBCFEAFFE7508B
:10417000E926000EEA22290EC5EF24F0010EDB50DD
:10418000DF6EB10E206EB60E216E226A20C0E6FFF1
:10419000E66E22C0E6FFD950020FE66E000EDA206E
:1041A000E66ECFEC5CF0236E050EE15E2350D9CFB6
:1041B000E6FFDACFE6FFD950020FE66E000EDA20F6
:1041C000E66EDF50E76EFD0EDBCF20F0FE0EDBCF9C
:1041D00021F0E7502026000E212220C0E6FF21C05A
:1041E000E6FF89EC0AF0226E060EE15E225000091D
:1041F00001E1C7D2120EE76EFB0EDBCFE9FFFC0E2A
:10420000DBCFEAFFE750E926000EEA22010EEF6E4F
:10421000D9CFE6FFDACFE6FF130EE76EFB0EDBCF5A
:1042200020F0FC0EDBCF21F0E7502026000E2122EB
:1042300020C0E6FF21C0E6FFDF50E76EFD0EDBCFBA
:1042400022F0FE0EDBCF23F0E7502226000E2322C1
:1042500022C0E6FF23C0E6FF78EC0BF0246E060ECA
:10426000E15E2450000902E168EF25F08E0E206E19
:10427000B60E216E226A20C0E6FFE66E22C0E6FF7F
:10428000D950020FE66E000EDA20E66ECFEC5CF03D
:10429000236E050EE15E2350D9CFE6FFDACFE6FFAD
:1042A000D950020FE66E000EDA20E66EDF50E76EA0
:1042B000FD0EDBCF20F0FE0EDBCF21F0E7502026F5
:1042C000000E212220C0E6FF21C0E6FF89EC0AF0A3
:1042D000226E060EE15E2250000901E1F9D3010EC3
:1042E000DFCFDBFF880E206EB60E216E226A20C063
:1042F000E6FFE66E22C0E6FFD950020FE66E000E22
:10430000DA20E66ECFEC5CF0236E050EE15E235002
:10431000D9CFE6FFDACFE6FFD950020FE66E000EE6
:10432000DA20E66EDF50E76EFD0EDBCF20F0FE0EEA
:10433000DBCF21F0E7502026000E212220C0E6FF2F
:1043400021C0E6FF89EC0AF0226E060EE15E2250E3
:1043500000090EE0140EE76EFB0EDBCFE9FFFC0E4A
:10436000DBCFEAFFE750E926000EEA22EF687AD0B9
:10437000010EDB50DF6E820E206EB60E216E226AB9
:1043800020C0E6FFE66E22C0E6FFD950020FE66EBF
:10439000000EDA20E66ECFEC5CF0236E050EE15ED7
:1043A0002350D9CFE6FFDACFE6FFD950020FE66EF1
:1043B000000EDA20E66EDF50E76EFD0EDBCF20F058
:1043C000FE0EDBCF21F0E7502026000E212220C078
:1043D000E6FF21C0E6FF89EC0AF0226E060EE15EE0
:1043E000225000090FE0140EE76EFB0EDBCFE9FF51
:1043F000FC0EDBCFEAFFE750E926000EEA22EE0EC4
:10440000EF6E30D0010EDB50DF6ED9CFE6FFDACF92
:10441000E6FF140EE76EFB0EDBCF20F0FC0EDBCFC9
:1044200021F0E7502026000E212220C0E6FF21C007
:10443000E6FFDF50E76EFD0EDBCF22F0FE0EDBCF96
:1044400023F0E7502226000E232222C0E6FF23C0DD
:10445000E6FF78EC0BF0246E060EE15E24500009B6
:1044600001E136D3010EDFCFDBFF7D0E206EB60EED
:10447000216E226A20C0E6FFE66E22C0E6FFD95018
:10448000020FE66E000EDA20E66ECFEC5CF0236ED3
:10449000050EE15E2350D9CFE6FFDACFE6FFD95013
:1044A000020FE66E000EDA20E66EDF50E76EFD0EBC
:1044B000DBCF20F0FE0EDBCF21F0E7502026000EF0
:1044C000212220C0E6FF21C0E6FF89EC0AF0226E1F
:1044D000060EE15E225000090EE0150EE76EFB0E9F
:1044E000DBCFE9FFFC0EDBCFEAFFE750E926000E49
:1044F000EA22130E49D0010EDB50DF6E780E206EDB
:10450000B60E216E226A20C0E6FFE66E22C0E6FFEC
:10451000D950020FE66E000EDA20E66ECFEC5CF0AA
:10452000236E050EE15E2350D9CFE6FFDACFE6FF1A
:10453000D950020FE66E000EDA20E66EDF50E76E0D
:10454000FD0EDBCF20F0FE0EDBCF21F0E750202662
:10455000000E212220C0E6FF21C0E6FF89EC0AF010
:10456000226E060EE15E2250000901E1B1D2150E65
:10457000E76EFB0EDBCFE9FFFC0EDBCFEAFFE75077
:10458000E926000EEA22140EEF6E700E206EB60EB3
:10459000216E226A20C0E6FFE66E22C0E6FFD950F7
:1045A000020FE66E000EDA20E66ECFEC5CF0236EB2
:1045B000050EE15E2350D9CFE6FFDACFE6FFD950F2
:1045C000020FE66E000EDA20E66EDF50E76EFD0E9B
:1045D000DBCF20F0FE0EDBCF21F0E7502026000ECF
:1045E000212220C0E6FF21C0E6FF89EC0AF0226EFE
:1045F000060EE15E2250000901E16AD2010EDFCF12
:10460000DBFF880E206EB60E216E226A20C0E6FF08
:10461000E66E22C0E6FFD950020FE66E000EDA20E9
:10462000E66ECFEC5CF0236E050EE15E2350D9CF31
:10463000E6FFDACFE6FFD950020FE66E000EDA2071
:10464000E66EDF50E76EFD0EDBCF20F0FE0EDBCF17
:1046500021F0E7502026000E212220C0E6FF21C0D5
:10466000E6FF89EC0AF0226E060EE15E2250000998
:104670000EE0160EE76EFB0EDBCFE9FFFC0EDBCF84
:10468000EAFFE750E926000EEA22EF6823D2010E86
:10469000DB50DF6E820E206EB60E216E226A20C0C5
:1046A000E6FFE66E22C0E6FFD950020FE66E000E6E
:1046B000DA20E66ECFEC5CF0236E050EE15E23504F
:1046C000D9CFE6FFDACFE6FFD950020FE66E000E33
:1046D000DA20E66EDF50E76EFD0EDBCF20F0FE0E37
:1046E000DBCF21F0E7502026000E212220C0E6FF7C
:1046F00021C0E6FF89EC0AF0226E060EE15E225030
:1047000000090EE0160EE76EFB0EDBCFE9FFFC0E94
:10471000DBCFEAFFE750E926000EEA22EE0E35D1A4
:10472000010EDB50DF6ED9CFE6FFDACFE6FF160EC3
:10473000E76EFB0EDBCF20F0FC0EDBCF21F0E75065
:104740002026000E212220C0E6FF21C0E6FFDF5018
:10475000E76EFD0EDBCF22F0FE0EDBCF23F0E7503D
:104760002226000E232222C0E6FF23C0E6FF78ECBB
:104770000BF0246E060EE15E2450000901E0AAD180
:10478000A7D1010EDB50DF6E680E206EB60E216ED3
:10479000226A20C0E6FFE66E22C0E6FFD950020F73
:1047A000E66E000EDA20E66ECFEC5CF0236E050EAE
:1047B000E15E2350D9CFE6FFDACFE6FFD950020FF2
:1047C000E66E000EDA20E66EDF50E76EFD0EDBCF00
:1047D00020F0FE0EDBCF21F0E7502026000E212234
:1047E00020C0E6FF21C0E6FF89EC0AF0226E060E2B
:1047F000E15E225000091CE0170EE76EFB0EDBCFD6
:10480000E9FFFC0EDBCFEAFFE750E926000EEA22C3
:10481000010EEF6E180EE76EFB0EDBCFE9FFFC0E0C
:10482000DBCFEAFFE750E926000EEA222E0EADD0DC
:10483000010EDB50DF6E610E206EB60E216E226A15
:1048400020C0E6FFE66E22C0E6FFD950020FE66EFA
:10485000000EDA20E66ECFEC5CF0236E050EE15E12
:104860002350D9CFE6FFDACFE6FFD950020FE66E2C
:10487000000EDA20E66EDF50E76EFD0EDBCF20F093
:10488000FE0EDBCF21F0E7502026000E212220C0B3
:10489000E6FF21C0E6FF89EC0AF0226E060EE15E1B
:1048A000225000091CE0170EE76EFB0EDBCFE9FF7C
:1048B000FC0EDBCFEAFFE750E926000EEA22010EEC
:1048C000EF6E180EE76EFB0EDBCFE9FFFC0EDBCFC1
:1048D000EAFFE750E926000EEA222B0E56D0010E21
:1048E000DB50DF6E570E206EB60E216E226A20C09E
:1048F000E6FFE66E22C0E6FFD950020FE66E000E1C
:10490000DA20E66ECFEC5CF0236E050EE15E2350FC
:10491000D9CFE6FFDACFE6FFD950020FE66E000EE0
:10492000DA20E66EDF50E76EFD0EDBCF20F0FE0EE4
:10493000DBCF21F0E7502026000E212220C0E6FF29
:1049400021C0E6FF89EC0AF0226E060EE15E2250DD
:1049500000091DE0170EE76EFB0EDBCFE9FFFC0E32
:10496000DBCFEAFFE750E926000EEA22010EEF6EE8
:10497000180EE76EFB0EDBCFE9FFFC0EDBCFEAFF84
:10498000E750E926000EEA222C0EEF6EA3D0010EAE
:10499000DB50DF6EE40E206EB60E216E226A20C060
:1049A000E6FFE66E22C0E6FFD950020FE66E000E6B
:1049B000DA20E66ECFEC5CF0236E050EE15E23504C
:1049C000D9CFE6FFDACFE6FFD950020FE66E000E30
:1049D000DA20E66EDF50E76EFD0EDBCF20F0FE0E34
:1049E000DBCF21F0E7502026000E212220C0E6FF79
:1049F00021C0E6FF89EC0AF0226E060EE15E22502D
:104A000000096CE0190EE76EFB0EDBCFE9FFFC0E30
:104A1000DBCFEAFFE750E926000EEA22010EEF6E37
:104A2000D9CFE6FFDACFE6FF1A0EE76EFB0EDBCF3B
:104A300020F0FC0EDBCF21F0E7502026000E2122D3
:104A400020C0E6FF21C0E6FFDF50E76EFD0EDBCFA2
:104A500022F0FE0EDBCF23F0E7502226000E2322A9
:104A600022C0E6FF23C0E6FF78EC0BF0246E060EB2
:104A7000E15E245000092CE0D9CFE6FFDACFE6FF53
:104A80001B0EE76EFB0EDBCF20F0FC0EDBCF21F020
:104A9000E7502026000E212220C0E6FF21C0E6FFBD
:104AA000DF50E76EFD0EDBCF22F0FE0EDBCF23F0F2
:104AB000E7502226000E232222C0E6FF23C0E6FF95
:104AC00078EC0BF0246E060EE15E2450000902E142
:104AD000000E82D10201726B010E7ED1010EDB50FD
:104AE000DF6E490E206EB60E216E226A20C0E6FFF0
:104AF000E66E22C0E6FFD950020FE66E000EDA2005
:104B0000E66ECFEC5CF0236E050EE15E2350D9CF4C
:104B1000E6FFDACFE6FFD950020FE66E000EDA208C
:104B2000E66EDF50E76EFD0EDBCF20F0FE0EDBCF32
:104B300021F0E7502026000E212220C0E6FF21C0F0
:104B4000E6FF89EC0AF0226E060EE15E22500009B3
:104B500002E01C0E30D1010EDB50DF6E430E206EE2
:104B6000B60E216E226A20C0E6FFE66E22C0E6FF86
:104B7000D950020FE66E000EDA20E66ECFEC5CF044
:104B8000236E050EE15E2350D9CFE6FFDACFE6FFB4
:104B9000D950020FE66E000EDA20E66EDF50E76EA7
:104BA000FD0EDBCF20F0FE0EDBCF21F0E7502026FC
:104BB000000E212220C0E6FF21C0E6FF89EC0AF0AA
:104BC000226E060EE15E2250000902E01D0EF3D0B7
:104BD000010EDB50DF6E3D0E206EB60E216E226A96
:104BE00020C0E6FFE66E22C0E6FFD950020FE66E57
:104BF000000EDA20E66ECFEC5CF0236E050EE15E6F
:104C00002350D9CFE6FFDACFE6FFD950020FE66E88
:104C1000000EDA20E66EDF50E76EFD0EDBCF20F0EF
:104C2000FE0EDBCF21F0E7502026000E212220C00F
:104C3000E6FF21C0E6FF89EC0AF0226E060EE15E77
:104C40002250000902E01E0EB6D0010EDB50DF6ECE
:104C5000370E206EB60E216E226A20C0E6FFE66E89
:104C600022C0E6FFD950020FE66E000EDA20E66E93
:104C7000CFEC5CF0236E050EE15E2350D9CFE6FF4A
:104C8000DACFE6FFD950020FE66E000EDA20E66EAC
:104C9000DF50E76EFD0EDBCF20F0FE0EDBCF21F004
:104CA000E7502026000E212220C0E6FF21C0E6FFAB
:104CB00089EC0AF0226E060EE15E2250000902E045
:104CC0001F0E79D0010EDB50DF6E2F0E206EB60E58
:104CD000216E226A20C0E6FFE66E22C0E6FFD950B0
:104CE000020FE66E000EDA20E66ECFEC5CF0236E6B
:104CF000050EE15E2350D9CFE6FFDACFE6FFD950AB
:104D0000020FE66E000EDA20E66EDF50E76EFD0E53
:104D1000DBCF20F0FE0EDBCF21F0E7502026000E87
:104D2000212220C0E6FF21C0E6FF89EC0AF0226EB6
:104D3000060EE15E2250000902E0200E3CD0010E7A
:104D4000DB50DF6E2A0E206EB60E216E226A20C066
:104D5000E6FFE66E22C0E6FFD950020FE66E000EB7
:104D6000DA20E66ECFEC5CF0236E050EE15E235098
:104D7000D9CFE6FFDACFE6FFD950020FE66E000E7C
:104D8000DA20E66EDF50E76EFD0EDBCF20F0FE0E80
:104D9000DBCF21F0E7502026000E212220C0E6FFC5
:104DA00021C0E6FF89EC0AF0226E060EE15E225079
:104DB000000911E0210EE76EFB0EDBCFE9FFFC0ED0
:104DC000DBCFEAFFE750E926000EEA22010EEF6E84
:104DD0000201726B01D0000E206E0E0EE15C02E249
:104DE000E16AE552E16E2050E552E7CFD9FF1200AB
:104DF000D9CFE6FFE1CFD9FF030EE126010EDB6A32
:104E0000DF6A620EDF5C09E2DF50EA6A020FE96ED8
:104E1000050EEA22EF6ADF2AF4D7DF6A4E0EDF5C66
:104E200058E2DF50E76EFD0EDBCFE9FFFE0EDBCF71
:104E3000EAFFE750E926000EEA22EF504AE0020EB0
:104E4000DB6ADF50E76EFD0EDBCFE9FFFE0EDBCF46
:104E5000EAFFE750E926000EEA22EF50F36E020E59
:104E6000DBCFF4FFF350F45C31E2620EF36E010E1F
:104E7000DBCFF4FFF350F45C0BE3FD0EDBCFE6FF7A
:104E8000FE0EDBCFE6FF1ED9E552E552000E3FD005
:104E9000DF28E76EFD0EDBCFE9FFFE0EDBCFEAFF7A
:104EA000E750E926000EEA22EF50E66E010EDBCF56
:104EB000F3FFDB2AF350EA6A020FE96E050EEA22DD
:104EC000E552E750EF6E020EDB2ABBD7020EDF265B
:104ED000A5D7DF6A620EDF5C19E2DF50EA6A020FD3
:104EE000E96E050EEA22EF50E66EDF50E76EFD0E2A
:104EF000DBCFE9FFFE0EDBCFEAFFE750E926000E2D
:104F0000EA22E552E750EF6EDF2AE4D7010E206E69
:104F1000030EE15C02E2E16AE552E16E2050E552E7
:104F2000E7CFD9FF1200D9CFE6FFE1CFD9FF040EBA
:104F3000E126010EDB6ADF6AFD0EDBCFE9FFFE0E24
:104F4000DBCFEAFF030EEFCFDBFF020EDB6A620E60
:104F5000F36E010EDBCFF4FFF350F45C67E2010E59
:104F6000DB50E76EFD0EDBCFE9FFFE0EDBCFEAFF85
:104F7000E750E926000EEA22EFCF20F0030EDB50C7
:104F8000205C0CE1020EDB2A010EDB2A620EF36EBE
:104F9000010EDBCFF4FFF350F45CE1E34F0EDF5C76
:104FA00017E2600EDF5C14E2DF50DF2AEA6A020FCC
:104FB000E96E050EEA22020EDBCFEFFFDF50DF2A9B
:104FC000EA6A020FE96E050EEA22030EDBCFEFFF5D
:104FD000500EDF5C1DE3010EDB6A620EF36E010E04
:104FE000DBCFF4FFF350F45C11E2010EDB50E76E0F
:104FF000FD0EDBCFE9FFFE0EDBCFEAFFE750E9262F
:10500000000EEA22EF6A010EDB2AE7D7000E4ED02F
:10501000010EDB50E76EFD0EDBCFE9FFFE0EDBCFAE
:10502000EAFFE750E926000EEA228CD7010EDB6A80
:10503000DF50F36E010EDBCFF4FFF350F45C1CE2A3
:10504000010EDB50EA6A020FE96E050EEA22EF500C
:10505000E66E010EDB50E76EFD0EDBCFE9FFFE0EC4
:10506000DBCFEAFFE750E926000EEA22E552E750DF
:10507000EF6E010EDB2ADCD7620EF36E010EDBCF82
:10508000F4FFF350F45C11E2010EDB50E76EFD0E0D
:10509000DBCFE9FFFE0EDBCFEAFFE750E926000E8B
:1050A000EA22EF6A010EDB2AE7D7DF50206E040EFA
:1050B000E15C02E2E16AE552E16E2050E552E7CFA1
:1050C000D9FF1200D9CFE6FFE1CFD9FFE652DF6A60
:1050D000620EDF5C0FE2DF50E76EFD0EDBCFE9FF13
:1050E000FE0EDBCFEAFFE750E926000EEA22EF6A68
:1050F000DF2AEED7E552E552E7CFD9FF1200D9CF2C
:10510000E6FFE1CFD9FF050EE126240EF36EFE0E79
:10511000DBCFF4FFF350F45C05E30201110E726F74
:10512000000E39D0010EDB6A2A0EF36E010EDBCFC2
:10513000F4FFF350F45C27E2010EDB50E76EFC0E47
:10514000DBCFE9FFFD0EDBCFEAFFE750E926000EDB
:10515000EA22EF50E66EFE0EDB502A0DF3CF20F070
:10516000F4CF21F0640E2026050E2122010EDB5023
:105170002024E96E000E2120EA6EE552E750EF6E22
:10518000010EDB2AD1D7FE0EDB5002016B5D01E17F
:105190006B2B87EC06F0206E050EE15C02E2E16A03
:1051A000E552E16E2050E552E7CFD9FF1200D9CF8A
:1051B000E6FFE1CFD9FF020EE126FD0EDBCFE6FFD1
:1051C000FE0EDBCFE6FF7EDFE552E552FD0EDBCFC4
:1051D000E9FFFE0EDBCFEAFF020EEF6E010EE76E77
:1051E000FD0EDBCFE9FFFE0EDBCFEAFFE750E9263D
:1051F000000EEA2206C2EFFFDE520B0EDD6E030E3A
:10520000DF6EDF501B0829E3FC0EDB502A0DF3CFC5
:1052100020F0F4CF21F0640E2026050E2122010E8D
:10522000DBCFF3FFDB2AF3500F012024E96E000EE1
:105230002120EA6EEF50E66EDF50E76EFD0EDBCF09
:10524000E9FFFE0EDBCFEAFFE750E926000EEA2277
:10525000E552E750EF6EDF2AD4D7020EE15C02E29E
:10526000E16AE552E16EE552E7CFD9FF1200D9CFEE
:10527000E6FFE1CFD9FFFE0EDBCF20F0216A20BE92
:105280002168D00E2102F3CF21F0070E2002F35047
:105290002126D00E2002F4502126FC0EEA6ADB34CF
:1052A000FE0BEA36E96E090EE926020EEA22F3CF7A
:1052B000EEFF21C0EDFFFD0EDBCF20F0216A20BE06
:1052C0002168FC0EEA6ADB34FE0BEA36E96E110E49
:1052D000E926020EEA2220C0EEFF21C0EDFFE552D2
:1052E000E7CFD9FF1200D9CFE6FFE1CFD9FF1A0EE1
:1052F000E126140E206EB70E216E226A20C0E6FF52
:10530000E66E22C0E6FF140EE66E0C0EE66ECFECE3
:105310005CF0236E050EE15E2350570EE76EFD0E26
:10532000DBCFE9FFFE0EDBCFEAFFE750E926000EF8
:10533000EA22EF0401E0C8D0010EE76EFD0EDBCFDC
:10534000E9FFFE0EDBCFEAFFE750E926000EEA2276
:10535000EF500201065D0AE1FD0EDBCFE6FFFE0E17
:10536000DBCFE6FF2AEC3EF0E552E552580EE76E41
:10537000FD0EDBCFE9FFFE0EDBCFEAFFE750E926AB
:10538000000EEA22020EEFCFDBFF590EE76EFD0E94
:10539000DBCFE9FFFE0EDBCFEAFFE750E926000E88
:1053A000EA22030EEFCFDBFF5A0EE76EFD0EDBCFD6
:1053B000E9FFFE0EDBCFEAFFE750E926000EEA2206
:1053C000040EEFCFDBFFDF6A02016B51DF5C02E30B
:1053D00062EF3BF0DF502A0DF3CFE9FFF4CFEAFF95
:1053E000640EE926050EEA22070EE926000EEA22DF
:1053F000EF0468E1DF502A0DF3CFE9FFF4CFEAFFB5
:10540000640EE926050EEA22240EE926000EEA22A1
:10541000EF50280857E1DF502A0DF3CFE9FFF4CF12
:10542000EAFF640EE926050EEA22080EE926000EC0
:10543000EA22EFCF20F0020EDB50205C43E1DF5088
:105440002A0DF3CFE9FFF4CFEAFF640EE926050E3B
:10545000EA22090EE926000EEA22EFCF21F0030E20
:10546000DB50215C2FE1DF502A0DF3CFE9FFF4CFB1
:10547000EAFF640EE926050EEA220A0EE926000E6E
:10548000EA22EFCF22F0040EDB50225C1BE1DFCFDB
:10549000E6FFFD0EDBCFE6FFFE0EDBCFE6FF87DE8D
:1054A000E552E552E552E66AFD0EDBCFE6FFFE0E61
:1054B000DBCFE6FF18DFE552E552E552000902E1D5
:1054C0006EEF36F0DF2A80D75B0EE76EFD0EDBCF86
:1054D000E9FFFE0EDBCFEAFFE750E926000EEA22E5
:1054E000EF0401E0C4D0010EE76EFD0EDBCFE9FF53
:1054F000FE0EDBCFEAFFE750E926000EEA22EF506E
:105500000201065D0AE1FD0EDBCFE6FFFE0EDBCFFA
:10551000E6FF2AEC3EF0E552E5525C0EE76EFD0E2A
:10552000DBCFE9FFFE0EDBCFEAFFE750E926000EF6
:10553000EA22070EEFCFDBFF5D0EE76EFD0EDBCF3D
:10554000E9FFFE0EDBCFEAFFE750E926000EEA2274
:10555000080EEFCFDBFF5E0EE76EFD0EDBCFE9FF3F
:10556000FE0EDBCFEAFFE750E926000EEA22090E25
:10557000EFCFDBFFDF6A02016B51DF5C02E362EF1A
:105580003BF0DF502A0DF3CFE9FFF4CFEAFF640EC2
:10559000E926050EEA22EF0468E1DF502A0DF3CF79
:1055A000E9FFF4CFEAFF640EE926050EEA22240E95
:1055B000E926000EEA22EF50280857E1DF502A0DB5
:1055C000F3CFE9FFF4CFEAFF640EE926050EEA22E5
:1055D000010EE926000EEA22EFCF20F0070EDB5085
:1055E000205C43E1DF502A0DF3CFE9FFF4CFEAFF5F
:1055F000640EE926050EEA22020EE926000EEA22D2
:10560000EFCF21F0080EDB50215C2FE1DF502A0D97
:10561000F3CFE9FFF4CFEAFF640EE926050EEA2294
:10562000030EE926000EEA22EFCF22F0090EDB502E
:10563000225C1BE1DFCFE6FFFD0EDBCFE6FFFE0EB7
:10564000DBCFE6FFB4DDE552E552E552E66AFD0E3A
:10565000DBCFE6FFFE0EDBCFE6FF45DEE552E5528F
:10566000E552000902E16EEF36F0DF2A84D75F0EC3
:10567000E76EFD0EDBCFE9FFFE0EDBCFEAFFE75062
:10568000E926000EEA22EF0401E0A5D0010EE76E44
:10569000FD0EDBCFE9FFFE0EDBCFEAFFE750E92688
:1056A000000EEA22EF500201065D0AE1FD0EDBCF9B
:1056B000E6FFFE0EDBCFE6FF2AEC3EF0E552E552B8
:1056C000600EE76EFD0EDBCFE9FFFE0EDBCFEAFFDB
:1056D000E750E926000EEA220A0EEFCFDBFF610E4B
:1056E000E76EFD0EDBCFE9FFFE0EDBCFEAFFE750F2
:1056F000E926000EEA220B0EEFCFDBFFDF6A020184
:105700006B51DF5C02E362EF3BF0DF502A0DF3CF19
:10571000E9FFF4CFEAFF640EE926050EEA22040E43
:10572000E926000EEA22EF0454E1DF502A0DF3CF00
:10573000E9FFF4CFEAFF640EE926050EEA22240E03
:10574000E926000EEA22EF50280843E1DF502A0D37
:10575000F3CFE9FFF4CFEAFF640EE926050EEA2253
:10576000050EE926000EEA22EFCF20F00A0EDB50EC
:10577000205C2FE1DF502A0DF3CFE9FFF4CFEAFFE1
:10578000640EE926050EEA22060EE926000EEA223C
:10579000EFCF21F00B0EDB50215C1BE1DFCFE6FFEA
:1057A000FD0EDBCFE6FFFE0EDBCFE6FF00DDE552B0
:1057B000E552E552E66AFD0EDBCFE6FFFE0EDBCFDB
:1057C000E6FF91DDE552E552E552000902E16EEF98
:1057D00036F0DF2A94D7020EE76EFD0EDBCFE9FF2D
:1057E000FE0EDBCFEAFFE750E926000EEA22EF507B
:1057F000240A01E1E4D0090A01E1A4D00E0A6EE016
:10580000260A4AE0010A26E0010EE76EFD0EDBCF14
:10581000E9FFFE0EDBCFEAFFE750E926000EEA22A1
:10582000EF500201065D01E1FFD0070502E062EFE3
:105830003BF0FD0EDBCFE6FFFE0EDBCFE6FF2AECF2
:105840003EF0E552E552FC0EDB0402E062EF3BF075
:105850005BEF3BF00201010EDD6FE76EFD0EDBCF6B
:10586000E9FFFE0EDBCFEAFFE750E926000EEA2251
:10587000EF50065D0AE1FD0EDBCFE6FFFE0EDBCF4B
:10588000E6FF2AEC3EF0E552E552FC0EDB0402E0B6
:1058900062EF3BF05BEF3BF00201DD6B010EE76E68
:1058A000FD0EDBCFE9FFFE0EDBCFEAFFE750E92676
:1058B000000EEA22EF50065D0AE1FD0EDBCFE6FFA7
:1058C000FE0EDBCFE6FF2AEC3EF0E552E552FC0E81
:1058D000DB0402E062EF3BF05BEF3BF0010EE76EB2
:1058E000FD0EDBCFE9FFFE0EDBCFEAFFE750E92636
:1058F000000EEA22EF500201065D0DE007050BE104
:10590000FD0EDBCFE6FFFE0EDBCFE6FF2AEC3EF01E
:10591000E552E55210D0010EE76EFD0EDBCFE9FF38
:10592000FE0EDBCFEAFFE750E926000EEA22EF5039
:10593000065D01E1DD6BFC0EDB0402E062EF3BF093
:105940005BEF3BF0010EE76EFD0EDBCFE9FFFE0ED5
:10595000DBCFEAFFE750E926000EEA22EF50020112
:10596000065D0DE007050BE1FD0EDBCFE6FFFE0E49
:10597000DBCFE6FF2AEC3EF0E552E55211D0010EF6
:10598000E76EFD0EDBCFE9FFFE0EDBCFEAFFE7504F
:10599000E926000EEA22EF50065D02E153EC00F02A
:1059A000FC0EDB0402E062EF3BF0140EE66E0C0E20
:1059B000E66E4CEC3CF0E552E5525BEF3BF0010E3D
:1059C000E76EFD0EDBCFE9FFFE0EDBCFEAFFE7500F
:1059D000E926000EEA22EF500201065D0DE0070500
:1059E0000BE1FD0EDBCFE6FFFE0EDBCFE6FF2AEC80
:1059F0003EF0E552E55211D0010EE76EFD0EDBCF11
:105A0000E9FFFE0EDBCFEAFFE750E926000EEA22AF
:105A1000EF50065D02E16AEC01F0FC0EDB0402E0EF
:105A200062EF3BF05BEF3BF0FD0EDBCFE9FFFE0EDC
:105A3000DBCFEAFFEF50020A01E19DD3030A02E047
:105A400064EF3BF0230EE76EFD0EDBCFE9FFFE0EA9
:105A5000DBCFEAFFE750E926000EEA22EF0401E07F
:105A600095D0240EE76EFD0EDBCFE9FFFE0EDBCFF7
:105A7000EAFFE750E926000EEA22EF5003083EE174
:105A8000010E666FE66AE66AC8EC40F0E552E55240
:105A90000201030E656F666B080EF36E0C0EF3CFFA
:105AA000DBFF0D0EDB6AD950110FE66E000EDA2017
:105AB000E66E0C0EDBCFE6FF0D0EDBCFE6FF1CEC37
:105AC00000F0E552E552E552E552110EDB500201BD
