:020000040000FA
:06000000B1EF6AF01200EE
:020006001200E6
:0600080077EF4EF012003C
:02000E00FEFFF3
:060018001AEF4FF0120088
:02001E000200DE
:10002000ABD5000060000000140000000E000000CE
:08003000740000000200000052
:08003800D9CFE6FFE1CFD9FFAB
:10004000D950FD0FE96EFF0EDA20EA6EFF0ED88060
:10005000EE54030EED5403E2000E27D026D0FF0E1F
:10006000E76EFD0EDBCF20F0FE0EDBCF21F0E75078
:100070002016216A2050A96EFD0EDBCF20F0FE0E67
:10008000DBCF21F021C020F0216A030E2014AA6EDC
:10009000A69EA69CA680FB0EDBCFE9FFFC0EDBCF65
:1000A000EAFFA8CFEFFF010E00D0E552E7CFD9FF5E
:1000B0001200D9CFE6FFE1CFD9FF060EE126090EE7
:1000C000DE6EDD6A000EE66EE66AE66EE66A9BECC0
:1000D0004DF0E552E552E552E5520201010E666F20
:1000E000986999699C699D69A26F666B020EDB6ACB
:1000F000030EDB6A040EDB6A050EDB6AD950020FC1
:10010000E96EDACFEAFFFF0EEE5CFF0EEE58050E49
:10011000EE58000EEE580BE2D950020FE96EDACF1E
:10012000EAFFEE2A000EEE22EE22EE22E7D7010EC3
:10013000E66EE66AE66EE66A9BEC4DF0E552E55245
:10014000E552E5520201010E666F9A6B9B6B9E6B46
:100150009F6B666B020EDB6A030EDB6A040EDB6AC2
:10016000050EDB6AD950020FE96EDACFEAFFFF0E07
:10017000EE5CFF0EEE58050EEE58000EEE580BE248
:10018000D950020FE96EDACFEAFFEE2A000EEE2216
:10019000EE22EE22E7D70201666BA26B666B99C274
:1001A00020F0216A2050E66EDFCF22F0DF2A010E18
:1001B000DBCF23F001E3DB2A22C0E6FF23C0E6FF0A
:1001C000E8DAE552E552E55202019851E66EDFCFDA
:1001D00020F0DF2A010EDBCF21F001E3DB2A20C073
:1001E000E6FF21C0E6FFD5DAE552E552E5529BC2B3
:1001F00020F0216A2050E66EDFCF22F0DF2A010EC8
:10020000DBCF23F001E3DB2A22C0E6FF23C0E6FFB9
:10021000C0DAE552E552E55202019A51E66EDFCFAF
:1002200020F0DF2A010EDBCF21F001E3DB2A20C022
:10023000E6FF21C0E6FFADDAE552E552E5529DC288
:1002400020F0216A2050E66EDFCF22F0DF2A010E77
:10025000DBCF23F001E3DB2A22C0E6FF23C0E6FF69
:1002600098DAE552E552E55202019C51E66EDFCF85
:1002700020F0DF2A010EDBCF21F001E3DB2A20C0D2
:10028000E6FF21C0E6FF85DAE552E552E5529FC25E
:1002900020F0216A2050E66EDFCF22F0DF2A010E27
:1002A000DBCF23F001E3DB2A22C0E6FF23C0E6FF19
:1002B00070DAE552E552E55202019E51E66EDECF5C
:1002C000E6FFDDCFE6FF65DAE552E552E552060EC0
:1002D000E15C02E2E16AE552E16EE552E7CFD9FF67
:1002E0001200D9CFE6FFE1CFD9FF040EE126010EBF
:1002F000DB6A020EDB6A030EDB6A080EF36E030E86
:10030000DBCFF4FFF350F45C17E2030EDBCFE6FF24
:10031000010EDBCF20F0DB2A020EDBCF21F001E360
:10032000DB2A20C0E6FF21C0E6FF33DAE552E552C2
:10033000E552030EDB2AE1D7080EF36E010EF3CF70
:10034000DBFF020EDB6A060EDF6EDFCFE6FF010E7B
:10035000DBCFE6FF020EDBCFE6FF1BDAE552E5520C
:10036000E552110EF36E010EF3CFDBFF020EDB6AD6
:10037000DF6ADFCFE6FF010EDBCFE6FF020EDBCF49
:10038000E6FF07DAE552E552E5520201010E666F1B
:10039000060E656F6B6B666B120EF36E010EF3CF7C
:1003A000DBFF020EDB6AD950010FE96EDACFEAFFFC
:1003B000150ED880EE54000EED5411E3010EE66EDA
:1003C000DBCFE6FF020EDBCFE6FFE3D9E552E552D5
:1003D000E552010EDB2A020E01E3DB2AE4D7D2EC60
:1003E00056F051EC58F0040EE15C02E2E16AE5528D
:1003F000E16EE552E7CFD9FF1200D9CFE6FFE1CF9A
:10040000D9FF060EE126010EDB6A020EDB6A050E3D
:10041000DB6A080EF36E050EDBCFF4FFF350F45CDD
:100420001FE2D9CFE6FFDACFE6FF010EDBCF20F0E7
:10043000DB2A020EDBCF21F001E3DB2A20C0E6FF3E
:1004400021C0E6FFF9DDE552E552E552E552050E21
:10045000DB50DF5C02E045DF80D1050EDB2AD9D717
:10046000080EF36E010EF3CFDBFF020EDB6AD9CF6D
:10047000E6FFDACFE6FF010EDBCFE6FF020EDBCFB1
:10048000E6FFDADDE552E552E552E5520201010EE2
:10049000666FDFCF65F2666B120EF36E010EF3CF5F
:1004A000DBFF020EDB6AD9CFE6FFDACFE6FF010EF3
:1004B000DBCF20F0DB2A020EDBCF21F001E3DB2AC9
:1004C00020C0E6FF21C0E6FFB7DDE552E552E55268
:1004D000E552DF50E8B09582E8A09592D9CFE6FFCB
:1004E000DACFE6FF010EDBCF20F0DB2A020EDBCFF6
:1004F00021F001E3DB2A20C0E6FF21C0E6FF9CDDFE
:10050000E552E552E552E552DF50E8B09584E8A0A7
:100510009594D9CFE6FFDACFE6FF010EDBCF20F0CE
:10052000DB2A020EDBCF21F001E3DB2A20C0E6FF4D
:1005300021C0E6FF81DDE552E552E552E552DF508C
:10054000E8B09586E8A09596D9CFE6FFDACFE6FF2A
:10055000010EDBCFE6FF020EDBCFE6FF6DDDE552DD
:10056000E552E552E552DF50E8B09488E8A094984F
:10057000090EF36E010EF3CFDBFF020EDB6AD9CF5B
:10058000E6FFDACFE6FF010EDBCF20F0DB2A020E1A
:10059000DBCF21F001E3DB2A20C0E6FF21C0E6FF2C
:1005A0004BDDE552E552E552E552DF500201986F0E
:1005B000996BD9CFE6FFDACFE6FF010EDBCF20F053
:1005C000DB2A020EDBCF21F001E3DB2A20C0E6FFAD
:1005D00021C0E6FF31DDE552E552E552E55298C211
:1005E00021F0206ADF5002012024986F000E2120A4
:1005F000996FD9CFE6FFDACFE6FF010EDBCF20F00F
:10060000DB2A020EDBCF21F001E3DB2A20C0E6FF6C
:1006100021C0E6FF11DDE552E552E552E552DF501B
:1006200002019A6F9B6BD9CFE6FFDACFE6FF010E8E
:10063000DBCF20F0DB2A020EDBCF21F001E3DB2A47
:1006400020C0E6FF21C0E6FFF7DCE552E552E552A7
:10065000E5529AC221F0206ADF50020120249A6FED
:10066000000E21209B6FD9CFE6FFDACFE6FF010E07
:10067000DBCF20F0DB2A020EDBCF21F001E3DB2A07
:1006800020C0E6FF21C0E6FFD7DCE552E552E55287
:10069000E552DF5002019C6F9D6BD9CFE6FFDACFA8
:1006A000E6FF010EDBCF20F0DB2A020EDBCF21F0CC
:1006B00001E3DB2A20C0E6FF21C0E6FFBDDCE552F6
:1006C000E552E552E5529CC221F0206ADF5002015A
:1006D00020249C6F000E21209D6FD9CFE6FFDACF3A
:1006E000E6FF010EDBCF20F0DB2A020EDBCF21F08C
:1006F00001E3DB2A20C0E6FF21C0E6FF9DDCE552D6
:10070000E552E552E552DF5002019E6F9F6BD9CF53
:10071000E6FFDACFE6FF010EDBCFE6FF020EDBCF0E
:10072000E6FF8ADCE552E552E552E5529EC221F031
:10073000206ADF50020120249E6F000E21209F6F4F
:1007400098519A5DA36F99519B59A46F9C519E5DDE
:10075000A56F9D519F59A66FDDD9060EE15C02E29F
:10076000E16AE552E16EE552E7CFD9FF1200A1A898
:1007700005D0A198A694010E03D002D0000E00D09F
:100780001200A6B203D0010E03D002D0000E00D09A
:100790001200D9CFE6FFE1CFD9FFE652D950FD0FC5
:1007A000E96EFF0EDA20EA6EFF0ED880EE54030EDB
:1007B000ED5403E2000E4AD049D0E3DF000901E125
:1007C000FCD7D9CFE6FFDACFE6FFFD0EDBCFE6FFA1
:1007D000FE0EDBCFE6FF30DCE552E552E552E55296
:1007E000FC0EDB50DF5C02E1010E30D0FF0EE76E45
:1007F000FD0EDBCF20F0FE0EDBCF21F0E750201600
:10080000216A2050A96EFD0EDBCF20F0FE0EDBCF5B
:1008100021F021C020F0216A030E2014AA6EFC0EE4
:10082000DB50A86EA69EA69CA684F29E550EA76ECF
:10083000AA0EA76EA6829BDFFF0801E1FCD7A1DF0D
:10084000000901E1FCD7F28E010E00D0E552E5521D
:10085000E7CFD9FF12005ED900D01200BB0E206E88
:10086000CF0E216E226A20C0E6FF21C0E6FF22C023
:10087000E6FF080EE66E0C0EE66EEAEC68F0236EFC
:10088000050EE15E2350080EE66E0C0EE66EE0ECFF
:1008900046F0E552E552A30E206ECF0E216E226A7D
:1008A00020C0E6FF21C0E6FF22C0E6FF080EE66E8C
:1008B0000C0EE66EEAEC68F0236E050EE15E235046
:1008C000080EE66E0C0EE66EE0EC46F0E552E552E0
:1008D000950E206ECF0E216E226A20C0E6FF21C049
:1008E000E6FF22C0E6FF080EE66E0C0EE66EEAECAE
:1008F00068F0236E050EE15E235002010651E66E9C
:10090000E66A080EE66E0C0EE66E900E206ECF0EB6
:10091000216E226A20C0E6FF21C0E6FF22C0E6FF6A
:10092000080EE66E0C0EE66EEAEC68F0236E090E19
:10093000E15E2350080EE66E0C0EE66EE0EC46F02B
:10094000E552E552820E206ECF0E216E226A20C043
:10095000E6FF21C0E6FF22C0E6FF080EE66E0C0EA1
:10096000E66EEAEC68F0236E050EE15E235073DF5D
:10097000E66EE66A080EE66E0C0EE66E7B0E206EE4
:10098000CF0E216E226A20C0E6FF21C0E6FF22C002
:10099000E6FF080EE66E0C0EE66EEAEC68F0236EDB
:1009A000090EE15E2350080EE66E0C0EE66EE0ECDA
:1009B00046F0E552E5526D0E206ECF0E216E226A92
:1009C00020C0E6FF21C0E6FF22C0E6FF080EE66E6B
:1009D0000C0EE66EEAEC68F0236E050EE15E235025
:1009E00002016B51E66EE66A080EE66E0C0EE66ECC
:1009F000900E206ECF0E216E226A20C0E6FF21C02D
:100A0000E6FF22C0E6FF080EE66E0C0EE66EEAEC8C
:100A100068F0236E090EE15E2350080EE66E0C0EA0
:100A2000E66EE0EC46F0E552E5525F0E206ECF0E2A
:100A3000216E226A20C0E6FF21C0E6FF22C0E6FF49
:100A4000080EE66E0C0EE66EEAEC68F0236E050EFC
:100A5000E15E2350060E0201655D1DE1A751E66EC1
:100A6000E66A080EE66E0C0EE66E520E206ECF0E93
:100A7000216E226A20C0E6FF21C0E6FF22C0E6FF09
:100A8000080EE66E0C0EE66EEAEC68F0236E090EB8
:100A9000E15E235019D0080EE66E0C0EE66E4C0E89
:100AA000206ECF0E216E226A20C0E6FF21C0E6FF35
:100AB00022C0E6FF080EE66E0C0EE66EEAEC68F069
:100AC000236E070EE15E2350080EE66E0C0EE66EF6
:100AD000E0EC46F0E552E5524B0E206ECF0E216E53
:100AE000226A20C0E6FF21C0E6FF22C0E6FF080E12
:100AF000E66E0C0EE66EEAEC68F0236E050EE15E23
:100B00002350080EE66E0C0EE66EE0EC46F0E55261
:100B1000E5521200D9CFE6FFE1CFD9FF090EE12659
:100B2000110EF36E030EF3CFDBFF040EDB6AD95018
:100B3000020FE66E000EDA20E66E030EDBCFE6FF54
:100B4000040EDBCFE6FF1CEC00F0E552E552E55267
:100B5000E552020EDBCF6BF202016B5102E1640E33
:100B600088D0160EF36E030EF3CFDBFF040EDB6AA4
:100B7000DF6A02016B51DF5C3DE2010EDB6A0F0EA2
:100B8000F36E010EDBCFF4FFF350F45C31E2D95089
:100B9000020FE66E000EDA20E66E030EDBCF20F0C9
:100BA000DB2A040EDBCF21F001E3DB2A20C0E6FFC5
:100BB00021C0E6FF1CEC00F0E552E552E552E5529B
:100BC000DF500F0DF3CF20F0F4CF21F0640E20267C
:100BD000050E2122010EDB500F012024E96E000ECC
:100BE0002120EA6E020EDBCFEFFF010EDB2AC7D712
:100BF000DF2ABFD7206A040E216E226A236A030E01
:100C0000DBCF24F0040EDBCF25F0266A276A2450C0
:100C1000205C066E25502158076E26502258086E1B
:100C200027502358096E640E0B6E0C6A0D6A0E6A0B
:100C30001DEC6AF002C006F003C007F004C008F023
:100C400005C009F0EA0E0B6E030E0C6E0D6A0E6AFB
:100C50000DEC68F0050E06C0DBFF060E07C0DBFFDB
:100C6000070E08C0DBFF080E09C0DBFF050EDB50D6
:100C700000D0206E090EE15C02E2E16AE552E16E0D
:100C80002050E552E7CFD9FF1200D9CFE6FFE1CFE0
:100C9000D9FF050EE126160EF36E020EF3CFDBFF31
:100CA000030EDB6ADF6A02016B51DF5C4BE20F0E61
:100CB000E76E020EDBCF20F0030EDBCF21F0E75012
:100CC0002026000E2122205C040E215804E3110E80
:100CD000726F000E4FD0010EDB6A0F0EF36E010E25
:100CE000DBCFF4FFF350F45C2BE2DF500F0DF3CFBA
:100CF00020F0F4CF21F0640E2026050E2122010EF3
:100D0000DB500F012024E96E000E2120EA6E040E54
:100D1000EFCFDBFFDBCFE6FF020EDBCF20F0DB2ADD
:100D2000030EDBCF21F001E3DB2A20C0E6FF21C068
:100D3000E6FF2FDDE552E552E552010EDB2ACDD765
:100D4000DF2AB1D7110EF36E020EF3CFDBFF030ED5
:100D5000DB6A040E6BC2DBFFDBCFE6FF020EDBCFEC
:100D6000E6FF030EDBCFE6FF14DDE552E552E55268
:100D7000010E00D0206E050EE15C02E2E16AE55250
:100D8000E16E2050E552E7CFD9FF1200D9CFE6FF40
:100D9000E1CFD9FF300EF36EFE0EDBCFF4FFF35040
:100DA000F45C07E3FE0EDB50390803E3010E03D0C9
:100DB00002D0000E00D0E552E7CFD9FF1200D9CF04
:100DC000E6FFE1CFD9FF410EF36EFE0EDBCFF4FF5D
:100DD000F350F45C07E3FE0EDB50460803E3010E1C
:100DE00003D002D0000E00D0E552E7CFD9FF1200A9
:100DF000D9CFE6FFE1CFD9FFE652610EF36EFE0ECA
:100E0000DBCFF4FFF350F45C09E3FE0EDB507A080D
:100E100005E3FE0EDB50E00FDF6E03D0FE0EDB506D
:100E2000DF6EDF5000D0E552E552E7CFD9FF120068
:100E3000D9CFE6FFE1CFD9FF090EE126DE6ADD6AF0
:100E4000020EDB6A030EDB6A0A0EF36E040EF3CFAA
:100E5000DBFF050EDB6A060EDB6AFD0EDBCFE9FF6A
:100E6000FE0EDBCFEAFFEF50300805E1FD0EDB2A76
:100E7000FE0E01E3DB2AFD0EDBCFE9FFFE0EDBCF2A
:100E8000EAFFEF5009E0FD0EDBCFE9FFFE0EDBCFFE
:100E9000EAFFEF5020080BE1050EDBCF20F0060E35
:100EA000DBCF21F020C0F3FF21C0F4FF0CD1FD0EF9
:100EB000DBCFE9FFFE0EDBCFEAFFEF50E66E98DFF7
:100EC000E55258080AE1FD0EDB2AFE0E01E3DB2A9B
:100ED000100EF36E040EF3CFDBFFFD0EDBCFE9FF48
:100EE000FE0EDBCFEAFFEF5001E1ADD0FD0EDBCF10
:100EF000E9FFFE0EDBCFEAFFEF50200801E1A3D0AF
:100F0000FD0EDBCFE9FFFE0EDBCFEAFFEF50E66E12
:100F10003DDFE552000913E0FD0EDBCFE9FFFE0ED9
:100F2000DBCFEAFFEF50D00FE66ED950070FE96E26
:100F3000DACFEAFFE552E750EE6EED6A48D0FD0EDB
:100F4000DBCFE9FFFE0EDBCFEAFFEF50E66E50DFAE
:100F5000E552E66E34DFE55200092AE0FD0EDBCFF4
:100F6000E9FFFE0EDBCFEAFFEF50E66E41DFE55210
:100F7000BF0F0A0FE66ED950070FE96EDACFEAFF0E
:100F8000E552E750EE6EED6A070EDBCF20F0080E5B
:100F9000DBCF21F0D890215004E60A0E205C000E31
:100FA000215805E3100EF36E040EF3CFDBFF0FD0D4
:100FB000220E0201FE6FFF6B050EDBCF20F0060E46
:100FC000DBCF21F020C0F3FF21C0F4FF7CD0070E5F
:100FD000DBCF22F0080EDBCF23F0100E086E096A7B
:100FE000DECF0DF0DDCF0EF041EC68F0065022248C
:100FF000206E07502320216E20C0DEFF21C0DDFFC0
:10100000070EDBCF22F0080EDBCF23F00A0E086EAE
:10101000096A020EDBCF0DF0030EDBCF0EF041ECC0
:1010200068F006502224206E07502320216E020E05
:1010300020C0DBFF030E21C0DBFFFD0EDB2AFE0E0E
:1010400001E3DB2A4AD7040EDB500A080DE1020E49
:10105000DBCF08F0030EDBCF09F0050E08C0DBFF85
:10106000060E09C0DBFF0AD0D9CFE9FFDACFEAFFCD
:10107000050EEECFDBFF060EEDCFDBFF050EDBCF5F
:1010800020F0060EDBCF21F0000E205C000E215870
:101090000FE2220E0201FE6FFF6B050EDBCF20F088
:1010A000060EDBCF21F020C0F3FF21C0F4FF0BD0F0
:1010B000050EDBCF20F0060EDBCF21F020C0F3FFC2
:1010C00021C0F4FF00D0090EE15C02E2E16AE552C2
:1010D000E16EE552E7CFD9FF120002017251080A12
:1010E00001E186D2100A01E16DD20D0A01E154D26C
:1010F000010A01E13BD2070A01E122D2010A01E122
:1011000009D2030A01E1F0D1010A01E1D7D11F0A96
:1011100001E1BED1010A01E1A5D1030A01E18CD1AF
:10112000010A01E173D1060A01E15AD1030A01E182
:1011300041D10E0A01E128D11C0A01E10FD1010AB7
:1011400001E1F6D0030A01E1DDD0120A01E1C4D0C9
:101150001C0A01E1ABD0010A01E192D0100A01E1C1
:1011600079D0030A61E0010A49E0070A31E0010A87
:1011700019E0030A01E052D23D0E206ECF0E216E1F
:10118000226A20C0E6FF21C0E6FF22C0E6FF080E6B
:10119000E66E0C0EE66EEAEC68F0236E050EE15E7C
:1011A000235054D22E0E206ECF0E216E226A20C004
:1011B000E6FF21C0E6FF22C0E6FF080EE66E0C0E39
:1011C000E66EEAEC68F0236E050EE15E23503ED237
:1011D0001B0E206ECF0E216E226A20C0E6FF21C0BA
:1011E000E6FF22C0E6FF080EE66E0C0EE66EEAECA5
:1011F00068F0236E050EE15E235028D2100E206E9B
:10120000CF0E216E226A20C0E6FF21C0E6FF22C079
:10121000E6FF080EE66E0C0EE66EEAEC68F0236E52
:10122000050EE15E235012D2030E206ECF0E216E0A
:10123000226A20C0E6FF21C0E6FF22C0E6FF080EBA
:10124000E66E0C0EE66EEAEC68F0236E050EE15ECB
:101250002350FCD1F30E206ECE0E216E226A20C0E8
:10126000E6FF21C0E6FF22C0E6FF080EE66E0C0E88
:10127000E66EEAEC68F0236E050EE15E2350E6D1DF
:10128000E20E206ECE0E216E226A20C0E6FF21C043
:10129000E6FF22C0E6FF080EE66E0C0EE66EEAECF4
:1012A00068F0236E050EE15E2350D0D1D20E206E81
:1012B000CE0E216E226A20C0E6FF21C0E6FF22C0CA
:1012C000E6FF080EE66E0C0EE66EEAEC68F0236EA2
:1012D000050EE15E2350BAD1C30E206ECE0E216EF4
:1012E000226A20C0E6FF21C0E6FF22C0E6FF080E0A
:1012F000E66E0C0EE66EEAEC68F0236E050EE15E1B
:101300002350A4D1AD0E206ECE0E216E226A20C0D5
:10131000E6FF21C0E6FF22C0E6FF080EE66E0C0ED7
:10132000E66EEAEC68F0236E050EE15E23508ED186
:10133000990E206ECE0E216E226A20C0E6FF21C0DB
:10134000E6FF22C0E6FF080EE66E0C0EE66EEAEC43
:1013500068F0236E050EE15E235078D1810E206E79
:10136000CE0E216E226A20C0E6FF21C0E6FF22C019
:10137000E6FF080EE66E0C0EE66EEAEC68F0236EF1
:10138000050EE15E235062D16E0E206ECE0E216EF0
:10139000226A20C0E6FF21C0E6FF22C0E6FF080E59
:1013A000E66E0C0EE66EEAEC68F0236E050EE15E6A
:1013B00023504CD15F0E206ECE0E216E226A20C0CB
:1013C000E6FF21C0E6FF22C0E6FF080EE66E0C0E27
:1013D000E66EEAEC68F0236E050EE15E235036D12E
:1013E000510E206ECE0E216E226A20C0E6FF21C073
:1013F000E6FF22C0E6FF080EE66E0C0EE66EEAEC93
:1014000068F0236E050EE15E235020D1410E206E60
:10141000CE0E216E226A20C0E6FF21C0E6FF22C068
:10142000E6FF080EE66E0C0EE66EEAEC68F0236E40
:10143000050EE15E23500AD12D0E206ECE0E216ED8
:10144000226A20C0E6FF21C0E6FF22C0E6FF080EA8
:10145000E66E0C0EE66EEAEC68F0236E050EE15EB9
:101460002350F4D01C0E206ECE0E216E226A20C0B6
:10147000E6FF21C0E6FF22C0E6FF080EE66E0C0E76
:10148000E66EEAEC68F0236E050EE15E2350DED0D6
:101490000D0E206ECE0E216E226A20C0E6FF21C006
:1014A000E6FF22C0E6FF080EE66E0C0EE66EEAECE2
:1014B00068F0236E050EE15E2350C8D0FA0E206E50
:1014C000CD0E216E226A20C0E6FF21C0E6FF22C0B9
:1014D000E6FF080EE66E0C0EE66EEAEC68F0236E90
:1014E000050EE15E2350B2D0E10E206ECD0E216ECE
:1014F000226A20C0E6FF21C0E6FF22C0E6FF080EF8
:10150000E66E0C0EE66EEAEC68F0236E050EE15E08
:1015100023509CD0D30E206ECD0E216E226A20C0A7
:10152000E6FF21C0E6FF22C0E6FF080EE66E0C0EC5
:10153000E66EEAEC68F0236E050EE15E235086D07D
:10154000BF0E206ECD0E216E226A20C0E6FF21C0A4
:10155000E6FF22C0E6FF080EE66E0C0EE66EEAEC31
:1015600068F0236E050EE15E235070D0A40E206E4D
:10157000CD0E216E226A20C0E6FF21C0E6FF22C008
:10158000E6FF080EE66E0C0EE66EEAEC68F0236EDF
:10159000050EE15E23505AD08C0E206ECD0E216ECA
:1015A000226A20C0E6FF21C0E6FF22C0E6FF080E47
:1015B000E66E0C0EE66EEAEC68F0236E050EE15E58
:1015C000235044D07A0E206ECD0E216E226A20C0A8
:1015D000E6FF21C0E6FF22C0E6FF080EE66E0C0E15
:1015E000E66EEAEC68F0236E050EE15E23502ED025
:1015F0006C0E206ECD0E216E226A20C0E6FF21C047
:10160000E6FF22C0E6FF080EE66E0C0EE66EEAEC80
:1016100068F0236E050EE15E235018D07251E66E1D
:10162000E66A590E206ECD0E216E226A20C0E6FFBA
:1016300021C0E6FF22C0E6FF080EE66E0C0EE66E45
:10164000EAEC68F0236E070EE15E2350080EE66EAA
:101650000C0EE66EE0EC46F0E552E5524B0E206EC5
:10166000CF0E216E226A20C0E6FF21C0E6FF22C015
:10167000E6FF080EE66E0C0EE66EEAEC68F0236EEE
:10168000050EE15E2350080EE66E0C0EE66EE0ECF1
:1016900046F0E552E5520201726B1200D9CFE6FF27
:1016A000E1CFD9FF0C0EE126DF6A010EDB6ADF6AAB
:1016B000DF50206E216A20C0E6FF21C0E6FFFD0E4C
:1016C000DBCFE6FFFE0EDBCFE6FF8CEC68F0E552E9
:1016D000E552E552E7CF21F0E552E7CF20F0F3CF16
:1016E00022F0F4CF23F021502318E8AE02D02334A7
:1016F00004D02250205C2350215801E3B5D0DF50A4
:10170000E76EFD0EDBCFE9FFFE0EDBCFEAFFE75011
:10171000E926000EEA22EF50200808E1F90EDBCF9F
:10172000E9FFFA0EDBCFEAFFEF2A9CD0DF50E76E2D
:10173000FD0EDBCFE9FFFE0EDBCFEAFFE750E92627
:10174000000EEA22EF50E66ED950020F206EDACF7B
:1017500021F0010EDBCFF3FFDB2AF3500F01202431
:10176000E96E000E2120EA6EE552E750EF6EF90EA9
:10177000DBCFE9FFFA0EDBCFEAFFEF2AFB0EDBCF70
:10178000E6FFFC0EDBCFE6FF8CEC68F0E552E5529D
:10179000F3CF22F0F4CF23F022C0E6FF23C0E6FF10
:1017A000FB0EDBCFE6FFFC0EDBCFE6FFD950020FCE
:1017B000E66E000EDA20E66E9AEC68F0246E060EF5
:1017C000E15E2450F3CF20F0F4CF21F0205021101F
:1017D00002E1010E4ED0010EDB50206E216A20C0C6
:1017E000E6FF21C0E6FFFB0EDBCFE6FFFC0EDBCF02
:1017F000E6FF8CEC68F0E552E552E552E7CF21F0C8
:10180000E552E7CF20F0F3CF24F0F4CF25F0D890C5
:10181000255004E6090E245C000E255819E220C06C
:10182000E6FF21C0E6FFFB0EDBCFE6FFFC0EDBCFC1
:10183000E6FF8CEC68F0E552E552E552E7CF21F087
:10184000E552E7CF20F0F3CF22F0F4CF23F003D01E
:10185000090E226E236A2250201802E1235021181B
:1018600001E102D0DF2A24D70201010E726F000EBF
:1018700000D0206E0C0EE15C02E2E16AE552E16EFE
:101880002050E552E7CFD9FF1200D9CFE6FFE1CFD4
:10189000D9FF050EE126DF6A010EDB6A0201FE6B4D
:1018A000FF6BDF50E76EFD0EDBCFE9FFFE0EDBCFF7
:1018B000EAFFE750E926000EEA22EF5020082FE168
:1018C000DF50206E216A20C0E6FF21C0E6FFFD0E3A
:1018D000DBCFE6FFFE0EDBCFE6FF8CEC68F0E552D7
:1018E000E552E552E7CF21F0E552E7CF20F0F3CF04
:1018F00022F0F4CF23F021502318E8AE02D0233495
:1019000004D02250205C2350215809E2F90EDBCF8D
:10191000E9FFFA0EDBCFEAFFEF2ADF2AC2D7DF505A
:10192000E76EFD0EDBCF20F0FE0EDBCF21F0E7509F
:101930002026000E212220C0E6FF21C0E6FF18EC81
:1019400007F0E552E552030EF3CFDBFF040EF4CFB0
:10195000DBFF0201220EFE1901E1FF5105E0160E28
:10196000FE1901E1FF5103E1020EDB6A05D0010E11
:10197000F36E020EF3CFDBFFD950030FE96EDACF1F
:10198000EAFFFF0ED880EE54000EED540DE2220E59
:10199000FE1901E1FF5102E0000E01D0010E02012B
:1019A000040E726F000E52D0020EDB044AE1DF50CB
:1019B000E76EFD0EDBCFE9FFFE0EDBCFEAFFE7505F
:1019C000E926000EEA22EF5020082FE0DF50206EBB
:1019D000216A20C0E6FF21C0E6FFFD0EDBCFE6FF57
:1019E000FE0EDBCFE6FF8CEC68F0E552E552E552E7
:1019F000E7CF21F0E552E7CF20F0F3CF22F0F4CF8C
:101A000023F021502318E8AE02D0233404D0225012
:101A1000205C2350215809E2F90EDBCFE9FFFA0ED2
:101A2000DBCFEAFFEF2ADF2AC2D7FB0EDBCFE9FFCD
:101A3000FC0EDBCFEAFF030EDBCFEFFF010E06D07B
:101A400005D00201020E726F000E00D0206E050E4E
:101A5000E15C02E2E16AE552E16E2050E552E7CF37
:101A6000D9FF1200D9CFE6FFE1CFD9FF020EE12660
:101A7000010EDB6ADF6A030EF36E010EDBCFF4FFAB
:101A8000F350F45C01E3AFD0FB0EDBCFE9FFFC0EBB
:101A9000DBCFEAFFEF50E76EFD0EDBCFE9FFFE0E76
:101AA000DBCFEAFFE750E926000EEA22EF502008DC
:101AB00074E0010EDB5008E1DF5006E10201120E76
:101AC000726F000E92D068D0FB0EDBCFE9FFFC0EE8
:101AD000DBCFEAFFEF50206E216A20C0E6FF21C075
:101AE000E6FFFD0EDBCFE6FFFE0EDBCFE6FF8CEC64
:101AF00068F0E552E552E552E7CF21F0E552E7CF35
:101B000020F0F3CF22F0F4CF23F02250201802E18E
:101B10002350211819E1010EDB50000810E2010EDC
:101B2000DB50E76EF90EDBCFE9FFFA0EDBCFEAFF01
:101B3000E750E926000EEA22EF6A55D02DD00201C7
:101B40001B0E726F000E51D0FB0EDBCFE9FFFC0EB7
:101B5000DBCFEAFFEF50EF2AE76EFD0EDBCFE9FFA8
:101B6000FE0EDBCFEAFFE750E926000EEA22EF5037
:101B7000E66E010EDBCFF3FFDB2AF350E76EF90EC2
:101B8000DBCFE9FFFA0EDBCFEAFFE750E926000ED4
:101B9000EA22E552E750EF6E1CD0010EDB500AE15D
:101BA000010EDF6EFB0EDBCFE9FFFC0EDBCFEAFFA1
:101BB000EF2A0FD0010EDB50E76EF90EDBCFE9FF05
:101BC000FA0EDBCFEAFFE750E926000EEA22EF6AC1
:101BD0000AD0010EDB50030805E10201130E726FFB
:101BE000000E03D048D7010E00D0206E020EE15C3B
:101BF00002E2E16AE552E16E2050E552E7CFD9FFFB
:101C00001200D9CFE6FFE1CFD9FF0E0EE126DF6A41
:101C1000010EDB6AFB0EDBCFE6FFFC0EDBCFE6FF3F
:101C2000F5EC2AF0E552E552540E206ECD0E216EF1
:101C3000226A20C0E6FF21C0E6FF22C0E6FFD9509D
:101C4000020FE66E000EDA20E66EEAEC68F0236E14
:101C5000050EE15E2350D9CFE6FFDACFE6FFD9507B
:101C6000020FE66E000EDA20E66EDF50E76EFD0E24
:101C7000DBCF20F0FE0EDBCF21F0E7502026000E58
:101C8000212220C0E6FF21C0E6FF08DD226E060EFD
:101C9000E15E2250000921E0020EE76EFB0EDBCF71
:101CA000E9FFFC0EDBCFEAFFE750E926000EEA224F
:101CB000040EEF6E010EE76EFB0EDBCFE9FFFC0EAC
:101CC000DBCFEAFFE750E926000EEA2206C2EFFF6B
:101CD0000201726B010E75EF29F04D0E206ECD0ED4
:101CE000216E226A20C0E6FF21C0E6FF22C0E6FF87
:101CF000D950020FE66E000EDA20E66EEAEC68F0CC
:101D0000236E050EE15E2350DF6AD9CFE6FFDACFFE
:101D1000E6FFD950020FE66E000EDA20E66EDF50C5
:101D2000E76EFD0EDBCF20F0FE0EDBCF21F0E7509B
:101D30002026000E212220C0E6FF21C0E6FFAEDCF7
:101D4000226E060EE15E2250000921E0020EE76ECF
:101D5000FB0EDBCFE9FFFC0EDBCFEAFFE750E92605
:101D6000000EEA22050EEF6E010EE76EFB0EDBCFD2
:101D7000E9FFFC0EDBCFEAFFE750E926000EEA227E
:101D800006C2EFFF0201726B010E75EF29F0490EDA
:101D9000206ECD0E216E226A20C0E6FF21C0E6FF34
:101DA00022C0E6FFD950020FE66E000EDA20E66E82
:101DB000EAEC68F0236E050EE15E2350DF6AD9CFAE
:101DC000E6FFDACFE6FFD950020FE66E000EDA200A
:101DD000E66EDF50E76EFD0EDBCF20F0FE0EDBCFB0
:101DE00021F0E7502026000E212220C0E6FF21C06E
:101DF000E6FF54DC226E060EE15E2250000941E04F
:101E0000020EE76EFB0EDBCFE9FFFC0EDBCFEAFF35
:101E1000E750E926000EEA22230EEF6ED9CFE6FF47
:101E2000DACFE6FF010EE76EFB0EDBCF20F0FC0EF3
:101E3000DBCF21F0E7502026000E212220C0E6FF54
:101E400021C0E6FFDF50E76EFD0EDBCF22F0FE0E75
:101E5000DBCF23F0E7502226000E232222C0E6FF2C
:101E600023C0E6FF12DD246E060EE15E2450000959
:101E700003E1000E75EF29F00201726B010E75EFA0
:101E800029F0430E206ECD0E216E226A20C0E6FF9F
:101E900021C0E6FF22C0E6FFD950020FE66E000E19
:101EA000DA20E66EEAEC68F0236E050EE15E235060
:101EB000DF6AD9CFE6FFDACFE6FFD950020FE66E30
:101EC000000EDA20E66EDF50E76EFD0EDBCF20F06D
:101ED000FE0EDBCF21F0E7502026000E212220C08D
:101EE000E6FF21C0E6FF4EEC0BF0226E060EE15E2F
:101EF0002250000941E0020EE76EFB0EDBCFE9FF46
:101F0000FC0EDBCFEAFFE750E926000EEA222D0E99
:101F1000EF6ED9CFE6FFDACFE6FF010EE76EFB0EDC
:101F2000DBCF20F0FC0EDBCF21F0E7502026000EA7
:101F3000212220C0E6FF21C0E6FFDF50E76EFD0E44
:101F4000DBCF22F0FE0EDBCF23F0E7502226000E7F
:101F5000232222C0E6FF23C0E6FF97DC246E060E94
:101F6000E15E2450000903E1000E75EF29F0020143
:101F7000726B010E75EF29F03D0E206ECD0E216EB5
:101F8000226A20C0E6FF21C0E6FF22C0E6FFD9504A
:101F9000020FE66E000EDA20E66EEAEC68F0236EC1
:101FA000050EE15E2350DF6AD9CFE6FFDACFE6FF08
:101FB000D950020FE66E000EDA20E66EDF50E76EB3
:101FC000FD0EDBCF20F0FE0EDBCF21F0E750202608
:101FD000000E212220C0E6FF21C0E6FF4EEC0BF0F0
:101FE000226E060EE15E2250000941E0020EE76E0D
:101FF000FB0EDBCFE9FFFC0EDBCFEAFFE750E92663
:10200000000EEA22240EEF6ED9CFE6FFDACFE6FF0C
:10201000010EE76EFB0EDBCF20F0FC0EDBCF21F0D4
:10202000E7502026000E212220C0E6FF21C0E6FF57
:10203000DF50E76EFD0EDBCF22F0FE0EDBCF23F08C
:10204000E7502226000E232222C0E6FF23C0E6FF2F
:102050001CDC246E060EE15E2450000903E1000E34
:1020600075EF29F00201726B010E75EF29F0DF6A3E
:10207000380E206ECD0E216E226A20C0E6FF21C0F0
:10208000E6FF22C0E6FFD950020FE66E000EDA200E
:10209000E66EEAEC68F0236E050EE15E2350D9CFC0
:1020A000E6FFDACFE6FFD950020FE66E000EDA2027
:1020B000E66EDF50E76EFD0EDBCF20F0FE0EDBCFCD
:1020C00021F0E7502026000E212220C0E6FF21C08B
:1020D000E6FF4EEC0BF0226E060EE15E2250000988
:1020E00002E14DEF1FF0FB0EDBCFE9FFFC0EDBCF73
:1020F000EAFF010EEF6ED9CFE6FFDACFE6FFE76E1B
:10210000FB0EDBCF20F0FC0EDBCF21F0E7502026CA
:10211000000E212220C0E6FF21C0E6FFDF50E76E5F
:10212000FD0EDBCF22F0FE0EDBCF23F0E7502226A0
:10213000000E232222C0E6FF23C0E6FF45EC0CF090
:10214000246E060EE15E2450000903E1000E75EFD7
:1021500029F0010EDFCFDBFF340E206ECD0E216E95
:10216000226A20C0E6FF21C0E6FF22C0E6FFD95068
:10217000020FE66E000EDA20E66EEAEC68F0236EDF
:10218000050EE15E2350D9CFE6FFDACFE6FFD95046
:10219000020FE66E000EDA20E66EDF50E76EFD0EEF
:1021A000DBCF20F0FE0EDBCF21F0E7502026000E23
:1021B000212220C0E6FF21C0E6FF4EEC0BF0226E8C
:1021C000060EE15E2250000921E0230EE76EFB0EB1
:1021D000DBCFE9FFFC0EDBCFEAFFE750E926000E7C
:1021E000EA22010EEF6E240EE76EFB0EDBCFE9FF55
:1021F000FC0EDBCFEAFFE750E926000EEA22030ED1
:10220000EF6E0201726B010E75EF29F0300E206E39
:10221000CD0E216E226A20C0E6FF21C0E6FF22C05B
:10222000E6FFD950020FE66E000EDA20E66EEAEC09
:1022300068F0236E050EE15E2350010EDB50DF6E69
:10224000D9CFE6FFDACFE6FFD950020FE66E000ED7
:10225000DA20E66EDF50E76EFD0EDBCF20F0FE0EDB
:10226000DBCF21F0E7502026000E212220C0E6FF20
:1022700021C0E6FF4EEC0BF0226E060EE15E22500E
:10228000000921E0230EE76EFB0EDBCFE9FFFC0E19
:10229000DBCFEAFFE750E926000EEA22010EEF6EDF
:1022A000240EE76EFB0EDBCFE9FFFC0EDBCFEAFF6F
:1022B000E750E926000EEA22060EEF6E0201726B6D
:1022C000010E75EF29F02B0E206ECD0E216E226AC5
:1022D00020C0E6FF21C0E6FF22C0E6FFD950020F72
:1022E000E66E000EDA20E66EEAEC68F0236E050E6C
:1022F000E15E2350010EDB50DF6ED9CFE6FFDACF6F
:10230000E6FFD950020FE66E000EDA20E66EDF50CF
:10231000E76EFD0EDBCF20F0FE0EDBCF21F0E750A5
:102320002026000E212220C0E6FF21C0E6FF4EEC51
:102330000BF0226E060EE15E2250000901E1E0D0B2
:10234000250EE76EFB0EDBCFE9FFFC0EDBCFEAFFCD
:10235000E750E926000EEA22010EEF6ED9CFE6FF24
:10236000DACFE6FF260EE76EFB0EDBCF20F0FC0E89
:10237000DBCF21F0E7502026000E212220C0E6FF0F
:1023800021C0E6FFDF50E76EFD0EDBCF22F0FE0E30
:10239000DBCF23F0E7502226000E232222C0E6FFE7
:1023A00023C0E6FF45EC0CF0246E060EE15E2450DF
:1023B000000903E1000E75EF29F0010EDFCFDBFF0E
:1023C000280E206ECD0E216E226A20C0E6FF21C0AD
:1023D000E6FF22C0E6FFD950020FE66E000EDA20BB
:1023E000E66EEAEC68F0236E050EE15E2350D9CF6D
:1023F000E6FFDACFE6FFD950020FE66E000EDA20D4
:10240000E66EDF50E76EFD0EDBCF20F0FE0EDBCF79
:1024100021F0E7502026000E212220C0E6FF21C037
:10242000E6FF4EEC0BF0226E060EE15E2250000934
:1024300014E0270EE76EFB0EDBCFE9FFFC0EDBCFCF
:10244000EAFFE750E926000EEA220B0EEF6E0201CA
:10245000726B010E75EF29F053D0010EDB50DF6E69
:10246000240E206ECD0E216E226A20C0E6FF21C010
:10247000E6FF22C0E6FFD950020FE66E000EDA201A
:10248000E66EEAEC68F0236E050EE15E2350D9CFCC
:10249000E6FFDACFE6FFD950020FE66E000EDA2033
:1024A000E66EDF50E76EFD0EDBCF20F0FE0EDBCFD9
:1024B00021F0E7502026000E212220C0E6FF21C097
:1024C000E6FF4EEC0BF0226E060EE15E2250000994
:1024D00014E0270EE76EFB0EDBCFE9FFFC0EDBCF2F
:1024E000EAFFE750E926000EEA220E0EEF6E020127
:1024F000726B010E75EF29F003D0000E75EF29F015
:10250000010EDB50DF6E200E206ECD0E216E226A92
:1025100020C0E6FF21C0E6FF22C0E6FFD950020F2F
:10252000E66E000EDA20E66EEAEC68F0236E050E29
:10253000E15E2350D9CFE6FFDACFE6FFD950020F94
:10254000E66E000EDA20E66EDF50E76EFD0EDBCFA2
:1025500020F0FE0EDBCF21F0E7502026000E2122D6
:1025600020C0E6FF21C0E6FF4EEC0BF0226E060E07
:10257000E15E2250000902E1CFEF1EF02B0EE76E64
:10258000FB0EDBCFE9FFFC0EDBCFEAFFE750E926CD
:10259000000EEA22010EEF6E520EE76EFB0EDBCF4D
:1025A00020F0FC0EDBCF21F0E7502026000E212288
:1025B00020C0E6FF21C0E6FFD9CFE6FFDACFE6FF75
:1025C000FD0EDBCFE6FFFE0EDBCFE6FF32EC0DF0BB
:1025D000226E060EE15E2250000903E1000E75EF47
:1025E00029F0010EDFCFDBFF1A0E206ECD0E216E1B
:1025F000226A20C0E6FF21C0E6FF22C0E6FFD950D4
:10260000020FE66E000EDA20E66EEAEC68F0236E4A
:10261000050EE15E2350D9CFE6FFDACFE6FFD950B1
:10262000020FE66E000EDA20E66EDF50E76EFD0E5A
:10263000DBCF20F0FE0EDBCF21F0E7502026000E8E
:10264000212220C0E6FF21C0E6FF4EEC0BF0226EF7
:10265000060EE15E225000090FE0510EE76EFB0E00
:10266000DBCFE9FFFC0EDBCFEAFFE750E926000EE7
:10267000EA22280EEF6E51D0010EDB50DF6E130EF2
:10268000206ECD0E216E226A20C0E6FF21C0E6FF3B
:1026900022C0E6FFD950020FE66E000EDA20E66E89
:1026A000EAEC68F0236E050EE15E2350D9CFE6FF19
:1026B000DACFE6FFD950020FE66E000EDA20E66EA2
:1026C000DF50E76EFD0EDBCF20F0FE0EDBCF21F0FA
:1026D000E7502026000E212220C0E6FF21C0E6FFA1
:1026E0004EEC0BF0226E060EE15E225000090FE068
:1026F000510EE76EFB0EDBCFE9FFFC0EDBCFEAFFEE
:10270000E750E926000EEA22290EEF6E06D00201FC
:10271000010E726F000E75EF29F0500EE76EFB0E82
:10272000DBCFE9FFFC0EDBCFEAFFE750E926000E26
:10273000EA22280EEF6E0D0E206ECD0E216E226A5B
:1027400020C0E6FF21C0E6FF22C0E6FFD950020FFD
:10275000E66E000EDA20E66EEAEC68F0236E050EF7
:10276000E15E2350D9CFE6FFDACFE6FFD950020F62
:10277000E66E000EDA20E66EDF50E76EFD0EDBCF70
:1027800020F0FE0EDBCF21F0E7502026000E2122A4
:1027900020C0E6FF21C0E6FF4EEC0BF0226E060ED5
:1027A000E15E2250000902E1CCEF1EF0D9CFE6FF36
:1027B000DACFE6FFD9500C0FE66E000EDA20E66E97
:1027C000DF50E76EFD0EDBCF20F0FE0EDBCF21F0F9
:1027D000E7502026000E212220C0E6FF21C0E6FFA0
:1027E00045EC0CF0226E060EE15E2250000903E17A
:1027F000000E75EF29F0010EDFCFDBFF2B0E206EF0
:10280000CD0E216E226A20C0E6FF21C0E6FF22C065
:10281000E6FFD950020FE66E000EDA20E66EEAEC13
:1028200068F0236E050EE15E2350D9CFE6FFDACFC4
:10283000E6FFD950020FE66E000EDA20E66EDF509A
:10284000E76EFD0EDBCF20F0FE0EDBCF21F0E75070
:102850002026000E212220C0E6FF21C0E6FF4EEC1C
:102860000BF0226E060EE15E2250000901E17CD0E1
:102870002C0EE76EFB0EDBCFE9FFFC0EDBCFEAFF91
:10288000E750E926000EEA22010EEF6E2D0EE76EEC
:10289000FB0EDBCFE9FFFC0EDBCFEAFFE750E926BA
:1028A000000EEA220C0EDBCFEFFFD9CFE6FFDACF26
:1028B000E6FF2E0EE76EFB0EDBCF20F0FC0EDBCF2B
:1028C00021F0E7502026000E212220C0E6FF21C083
:1028D000E6FFDF50E76EFD0EDBCF22F0FE0EDBCF12
:1028E00023F0E7502226000E232222C0E6FF23C059
:1028F000E6FF45EC0CF0246E060EE15E2450000964
:1029000003E1000E75EF29F0D9CFE6FFDACFE6FF3D
:102910002F0EE76EFB0EDBCF20F0FC0EDBCF21F09D
:10292000E7502026000E212220C0E6FF21C0E6FF4E
:10293000DF50E76EFD0EDBCF22F0FE0EDBCF23F083
:10294000E7502226000E232222C0E6FF23C0E6FF26
:1029500045EC0CF0246E060EE15E2450000903E104
:10296000000E75EF29F0EBD1010EDB50DF6E070E84
:10297000206ECD0E216E226A20C0E6FF21C0E6FF48
:1029800022C0E6FFD950020FE66E000EDA20E66E96
:10299000EAEC68F0236E050EE15E2350D9CFE6FF26
:1029A000DACFE6FFD950020FE66E000EDA20E66EAF
:1029B000DF50E76EFD0EDBCF20F0FE0EDBCF21F007
:1029C000E7502026000E212220C0E6FF21C0E6FFAE
:1029D0004EEC0BF0226E060EE15E225000094DE037
:1029E000300EE76EFB0EDBCFE9FFFC0EDBCFEAFF1C
:1029F000E750E926000EEA22010EEF6E310EE76E77
:102A0000FB0EDBCFE9FFFC0EDBCFEAFFE750E92648
:102A1000000EEA220C0EDBCFEFFFD9CFE6FFDACFB4
:102A2000E6FF320EE76EFB0EDBCF20F0FC0EDBCFB5
:102A300021F0E7502026000E212220C0E6FF21C011
:102A4000E6FFDF50E76EFD0EDBCF22F0FE0EDBCFA0
:102A500023F0E7502226000E232222C0E6FF23C0E7
:102A6000E6FF45EC0CF0246E060EE15E24500009F2
:102A700003E1000E75EF29F062D1010EDB50DF6E2D
:102A8000010E206ECD0E216E226A20C0E6FF21C00D
:102A9000E6FF22C0E6FFD950020FE66E000EDA20F4
:102AA000E66EEAEC68F0236E050EE15E2350D9CFA6
:102AB000E6FFDACFE6FFD950020FE66E000EDA200D
:102AC000E66EDF50E76EFD0EDBCF20F0FE0EDBCFB3
:102AD00021F0E7502026000E212220C0E6FF21C071
:102AE000E6FF4EEC0BF0226E060EE15E225000096E
:102AF00001E122D1330EE76EFB0EDBCFE9FFFC0EC6
:102B0000DBCFEAFFE750E926000EEA22010EEF6E66
:102B1000340EE76EFB0EDBCFE9FFFC0EDBCFEAFFE6
:102B2000E750E926000EEA220C0EDBCFEFFFD9CFEB
:102B3000E6FFDACFE6FF350EE76EFB0EDBCF20F0C7
:102B4000FC0EDBCF21F0E7502026000E212220C012
:102B5000E6FF21C0E6FFDF50E76EFD0EDBCF22F07F
:102B6000FE0EDBCF23F0E7502226000E232222C0E8
:102B7000E6FF23C0E6FF45EC0CF0246E060EE15E96
:102B80002450000903E1000E75EF29F0FD0E206EC0
:102B9000CC0E216E226A20C0E6FF21C0E6FF22C0D3
:102BA000E6FFD950020FE66E000EDA20E66EEAEC80
:102BB00068F0236E050EE15E2350D9CFE6FFDACF31
:102BC000E6FFD950020FE66E000EDA20E66EDF5007
:102BD000E76EFD0EDBCF20F0FE0EDBCF21F0E750DD
:102BE0002026000E212220C0E6FF21C0E6FF4EEC89
:102BF0000BF0226E060EE15E2250000903E1000E8A
:102C000075EF29F0010EDFCFDBFFF50E206ECC0E45
:102C1000216E226A20C0E6FF21C0E6FF22C0E6FF47
:102C2000D950020FE66E000EDA20E66EEAEC68F08C
:102C3000236E050EE15E2350D9CFE6FFDACFE6FF23
:102C4000D950020FE66E000EDA20E66EDF50E76E16
:102C5000FD0EDBCF20F0FE0EDBCF21F0E75020266B
:102C6000000E212220C0E6FF21C0E6FF4EEC0BF053
:102C7000226E060EE15E225000090FE0360EE76E6E
:102C8000FB0EDBCFE9FFFC0EDBCFEAFFE750E926C6
:102C9000000EEA220F0EEF6E4ED0010EDB50DF6EFB
:102CA000EC0E206ECC0E216E226A20C0E6FF21C001
:102CB000E6FF22C0E6FFD950020FE66E000EDA20D2
:102CC000E66EEAEC68F0236E050EE15E2350D9CF84
:102CD000E6FFDACFE6FFD950020FE66E000EDA20EB
:102CE000E66EDF50E76EFD0EDBCF20F0FE0EDBCF91
:102CF00021F0E7502026000E212220C0E6FF21C04F
:102D0000E6FF4EEC0BF0226E060EE15E225000094B
:102D10000FE0360EE76EFB0EDBCFE9FFFC0EDBCFDC
:102D2000EAFFE750E926000EEA22100EEF6E03D00C
:102D3000000E75EF29F003D0000E75EF29F0E80EB4
:102D4000206ECC0E216E226A20C0E6FF21C0E6FF75
:102D500022C0E6FFD950020FE66E000EDA20E66EC2
:102D6000EAEC68F0236E050EE15E2350D9CFE6FF52
:102D7000DACFE6FFD950020FE66E000EDA20E66EDB
:102D8000DF50E76EFD0EDBCF20F0FE0EDBCF21F033
:102D9000E7502026000E212220C0E6FF21C0E6FFDA
:102DA0004EEC0BF0226E060EE15E2250000903E1AC
:102DB000000E75EF29F0010EDFCFDBFF2B0E206E2A
:102DC000CD0E216E226A20C0E6FF21C0E6FF22C0A0
:102DD000E6FFD950020FE66E000EDA20E66EEAEC4E
:102DE00068F0236E050EE15E2350D9CFE6FFDACFFF
:102DF000E6FFD950020FE66E000EDA20E66EDF50D5
:102E0000E76EFD0EDBCF20F0FE0EDBCF21F0E750AA
:102E10002026000E212220C0E6FF21C0E6FF4EEC56
:102E20000BF0226E060EE15E2250000971E0370EB3
:102E3000E76EFB0EDBCFE9FFFC0EDBCFEAFFE750CE
:102E4000E926000EEA22010EEF6ED9CFE6FFDACFB7
:102E5000E6FF380EE76EFB0EDBCF20F0FC0EDBCF7B
:102E600021F0E7502026000E212220C0E6FF21C0DD
:102E7000E6FFDF50E76EFD0EDBCF22F0FE0EDBCF6C
:102E800023F0E7502226000E232222C0E6FF23C0B3
:102E9000E6FF45EC0CF0246E060EE15E24500009BE
:102EA00003E1000E75EF29F0D9CFE6FFDACFE6FF98
:102EB000390EE76EFB0EDBCF20F0FC0EDBCF21F0EE
:102EC000E7502026000E212220C0E6FF21C0E6FFA9
:102ED000DF50E76EFD0EDBCF22F0FE0EDBCF23F0DE
:102EE000E7502226000E232222C0E6FF23C0E6FF81
:102EF00045EC0CF0246E060EE15E2450000903E15F
:102F0000000E75EF29F00201726B010E75EF29F0CA
:102F1000010EDB50DF6E070E206ECD0E216E226A91
:102F200020C0E6FF21C0E6FF22C0E6FFD950020F15
:102F3000E66E000EDA20E66EEAEC68F0236E050E0F
:102F4000E15E2350D9CFE6FFDACFE6FFD950020F7A
:102F5000E66E000EDA20E66EDF50E76EFD0EDBCF88
:102F600020F0FE0EDBCF21F0E7502026000E2122BC
:102F700020C0E6FF21C0E6FF4EEC0BF0226E060EED
:102F8000E15E2250000971E03A0EE76EFB0EDBCFE6
:102F9000E9FFFC0EDBCFEAFFE750E926000EEA224C
:102FA000010EEF6ED9CFE6FFDACFE6FF3B0EE76EFC
:102FB000FB0EDBCF20F0FC0EDBCF21F0E75020260C
:102FC000000E212220C0E6FF21C0E6FFDF50E76EA1
:102FD000FD0EDBCF22F0FE0EDBCF23F0E7502226E2
:102FE000000E232222C0E6FF23C0E6FF45EC0CF0D2
:102FF000246E060EE15E2450000903E1000E75EF19
:1030000029F0D9CFE6FFDACFE6FF3C0EE76EFB0EE4
:10301000DBCF20F0FC0EDBCF21F0E7502026000EA6
:10302000212220C0E6FF21C0E6FFDF50E76EFD0E43
:10303000DBCF22F0FE0EDBCF23F0E7502226000E7E
:10304000232222C0E6FF23C0E6FF45EC0CF0246EED
:10305000060EE15E2450000903E1000E75EF29F031
:103060000201726B010E75EF29F0010EDB50DF6E6D
:10307000E40E206ECC0E216E226A20C0E6FF21C035
:10308000E6FF22C0E6FFD950020FE66E000EDA20FE
:10309000E66EEAEC68F0236E050EE15E2350D9CFB0
:1030A000E6FFDACFE6FFD950020FE66E000EDA2017
:1030B000E66EDF50E76EFD0EDBCF20F0FE0EDBCFBD
:1030C00021F0E7502026000E212220C0E6FF21C07B
:1030D000E6FF4EEC0BF0226E060EE15E2250000978
:1030E00071E03D0EE76EFB0EDBCFE9FFFC0EDBCFA0
:1030F000EAFFE750E926000EEA22010EEF6ED9CF73
:10310000E6FFDACFE6FF3E0EE76EFB0EDBCF20F0E8
:10311000FC0EDBCF21F0E7502026000E212220C03C
:10312000E6FF21C0E6FFDF50E76EFD0EDBCF22F0A9
:10313000FE0EDBCF23F0E7502226000E232222C012
:10314000E6FF23C0E6FF45EC0CF0246E060EE15EC0
:103150002450000903E1000E75EF29F0D9CFE6FFF6
:10316000DACFE6FF3F0EE76EFB0EDBCF20F0FC0E62
:10317000DBCF21F0E7502026000E212220C0E6FF01
:1031800021C0E6FFDF50E76EFD0EDBCF22F0FE0E22
:10319000DBCF23F0E7502226000E232222C0E6FFD9
:1031A00023C0E6FF45EC0CF0246E060EE15E2450D1
:1031B000000903E1000E75EF29F00201726B010EA8
:1031C00075EF29F0010EDB50DF6E1A0E206ECD0E6A
:1031D000216E226A20C0E6FF21C0E6FF22C0E6FF82
:1031E000D950020FE66E000EDA20E66EEAEC68F0C7
:1031F000236E050EE15E2350D9CFE6FFDACFE6FF5E
:10320000D950020FE66E000EDA20E66EDF50E76E50
:10321000FD0EDBCF20F0FE0EDBCF21F0E7502026A5
:10322000000E212220C0E6FF21C0E6FF4EEC0BF08D
:10323000226E060EE15E2250000946E0400EE76E67
:10324000FB0EDBCFE9FFFC0EDBCFEAFFE750E92600
:10325000000EEA22010EEF6E410EE76EFB0EDBCF91
:1032600020F0FC0EDBCF21F0E7502026000E2122BB
:1032700020C0E6FF21C0E6FFD9CFE6FFDACFE6FFA8
:10328000FD0EDBCFE6FFFE0EDBCFE6FF32EC0DF0EE
:10329000226E060EE15E2250000903E1000E75EF7A
:1032A00029F0450EE76EFB0EDBCFE9FFFC0EDBCF0E
:1032B000EAFFE750E926000EEA22280EEF6E02012F
:1032C000726B010E75EF29F0010EDB50DF6E130EED
:1032D000206ECD0E216E226A20C0E6FF21C0E6FFDF
:1032E00022C0E6FFD950020FE66E000EDA20E66E2D
:1032F000EAEC68F0236E050EE15E2350D9CFE6FFBD
:10330000DACFE6FFD950020FE66E000EDA20E66E45
:10331000DF50E76EFD0EDBCF20F0FE0EDBCF21F09D
:10332000E7502026000E212220C0E6FF21C0E6FF44
:103330004EEC0BF0226E060EE15E2250000946E0D4
:10334000400EE76EFB0EDBCFE9FFFC0EDBCFEAFFA2
:10335000E750E926000EEA22010EEF6E410EE76EFD
:10336000FB0EDBCF20F0FC0EDBCF21F0E750202658
:10337000000E212220C0E6FF21C0E6FFD9CFE6FFE4
:10338000DACFE6FFFD0EDBCFE6FFFE0EDBCFE6FF7A
:1033900032EC0DF0226E060EE15E2250000903E1D0
:1033A000000E75EF29F0450EE76EFB0EDBCFE9FF4F
:1033B000FC0EDBCFEAFFE750E926000EEA22290ED9
:1033C000EF6E0201726B010E75EF29F0010EDB50FA
:1033D000DF6E010E206ECD0E216E226A20C0E6FF48
:1033E00021C0E6FF22C0E6FFD950020FE66E000EB4
:1033F000DA20E66EEAEC68F0236E050EE15E2350FB
:10340000D9CFE6FFDACFE6FFD950020FE66E000E05
:10341000DA20E66EDF50E76EFD0EDBCF20F0FE0E09
:10342000DBCF21F0E7502026000E212220C0E6FF4E
:1034300021C0E6FF4EEC0BF0226E060EE15E22503C
:10344000000901E1E1D2460EE76EFB0EDBCFE9FF9A
:10345000FC0EDBCFEAFFE750E926000EEA22010E60
:10346000EF6ED9CFE6FFDACFE6FF470EE76EFB0E31
:10347000DBCF20F0FC0EDBCF21F0E7502026000E42
:10348000212220C0E6FF21C0E6FFDF50E76EFD0EDF
:10349000DBCF22F0FE0EDBCF23F0E7502226000E1A
:1034A000232222C0E6FF23C0E6FF45EC0CF0246E89
:1034B000060EE15E2450000903E1000E75EF29F0CD
:1034C000DE0E206ECC0E216E226A20C0E6FF21C0E7
:1034D000E6FF22C0E6FFD950020FE66E000EDA20AA
:1034E000E66EEAEC68F0236E050EE15E2350D9CF5C
:1034F000E6FFDACFE6FFD950020FE66E000EDA20C3
:10350000E66EDF50E76EFD0EDBCF20F0FE0EDBCF68
:1035100021F0E7502026000E212220C0E6FF21C026
:10352000E6FF4EEC0BF0226E060EE15E2250000923
:1035300003E1000E75EF29F0010EDFCFDBFFD80E9F
:10354000206ECC0E216E226A20C0E6FF21C0E6FF6D
:1035500022C0E6FFD950020FE66E000EDA20E66EBA
:10356000EAEC68F0236E050EE15E2350D9CFE6FF4A
:10357000DACFE6FFD950020FE66E000EDA20E66ED3
:10358000DF50E76EFD0EDBCF20F0FE0EDBCF21F02B
:10359000E7502026000E212220C0E6FF21C0E6FFD2
:1035A0004EEC0BF0226E060EE15E225000090EE09A
:1035B000480EE76EFB0EDBCFE9FFFC0EDBCFEAFF28
:1035C000E750E926000EEA22EF687DD0010EDB50BD
:1035D000DF6ED20E206ECC0E216E226A20C0E6FF76
:1035E00021C0E6FF22C0E6FFD950020FE66E000EB2
:1035F000DA20E66EEAEC68F0236E050EE15E2350F9
:10360000D9CFE6FFDACFE6FFD950020FE66E000E03
:10361000DA20E66EDF50E76EFD0EDBCF20F0FE0E07
:10362000DBCF21F0E7502026000E212220C0E6FF4C
:1036300021C0E6FF4EEC0BF0226E060EE15E22503A
:1036400000090FE0480EE76EFB0EDBCFE9FFFC0E32
:10365000DBCFEAFFE750E926000EEA22EE0EEF6E1E
:1036600032D0010EDB50DF6ED9CFE6FFDACFE6FFB6
:10367000480EE76EFB0EDBCF20F0FC0EDBCF21F017
:10368000E7502026000E212220C0E6FF21C0E6FFE1
:10369000DF50E76EFD0EDBCF22F0FE0EDBCF23F016
:1036A000E7502226000E232222C0E6FF23C0E6FFB9
:1036B00045EC0CF0246E060EE15E2450000903E197
:1036C000000E75EF29F0010EDFCFDBFFCD0E206E6F
:1036D000CC0E216E226A20C0E6FF21C0E6FF22C088
:1036E000E6FFD950020FE66E000EDA20E66EEAEC35
:1036F00068F0236E050EE15E2350D9CFE6FFDACFE6
:10370000E6FFD950020FE66E000EDA20E66EDF50BB
:10371000E76EFD0EDBCF20F0FE0EDBCF21F0E75091
:103720002026000E212220C0E6FF21C0E6FF4EEC3D
:103730000BF0226E060EE15E225000090FE0490EEA
:10374000E76EFB0EDBCFE9FFFC0EDBCFEAFFE750B5
:10375000E926000EEA22130EEF6E4ED0010EDB506A
:10376000DF6EC80E206ECC0E216E226A20C0E6FFEE
:1037700021C0E6FF22C0E6FFD950020FE66E000E20
:10378000DA20E66EEAEC68F0236E050EE15E235067
:10379000D9CFE6FFDACFE6FFD950020FE66E000E72
:1037A000DA20E66EDF50E76EFD0EDBCF20F0FE0E76
:1037B000DBCF21F0E7502026000E212220C0E6FFBB
:1037C00021C0E6FF4EEC0BF0226E060EE15E2250A9
:1037D00000090FE0490EE76EFB0EDBCFE9FFFC0EA0
:1037E000DBCFEAFFE750E926000EEA22140EEF6E67
:1037F00003D0000E75EF29F0C00E206ECC0E216EA6
:10380000226A20C0E6FF21C0E6FF22C0E6FFD950B1
:10381000020FE66E000EDA20E66EEAEC68F0236E28
:10382000050EE15E2350D9CFE6FFDACFE6FFD9508F
:10383000020FE66E000EDA20E66EDF50E76EFD0E38
:10384000DBCF20F0FE0EDBCF21F0E7502026000E6C
:10385000212220C0E6FF21C0E6FF4EEC0BF0226ED5
:10386000060EE15E2250000903E1000E75EF29F01B
:10387000010EDFCFDBFFD80E206ECC0E216E226A48
:1038800020C0E6FF21C0E6FF22C0E6FFD950020FAC
:10389000E66E000EDA20E66EEAEC68F0236E050EA6
:1038A000E15E2350D9CFE6FFDACFE6FFD950020F11
:1038B000E66E000EDA20E66EDF50E76EFD0EDBCF1F
:1038C00020F0FE0EDBCF21F0E7502026000E212253
:1038D00020C0E6FF21C0E6FF4EEC0BF0226E060E84
:1038E000E15E225000090EE04A0EE76EFB0EDBCFD0
:1038F000E9FFFC0EDBCFEAFFE750E926000EEA22E3
:10390000EF687DD0010EDB50DF6ED20E206ECC0E44
:10391000216E226A20C0E6FF21C0E6FF22C0E6FF3A
:10392000D950020FE66E000EDA20E66EEAEC68F07F
:10393000236E050EE15E2350D9CFE6FFDACFE6FF16
:10394000D950020FE66E000EDA20E66EDF50E76E09
:10395000FD0EDBCF20F0FE0EDBCF21F0E75020265E
:10396000000E212220C0E6FF21C0E6FF4EEC0BF046
:10397000226E060EE15E225000090FE04A0EE76E4D
:10398000FB0EDBCFE9FFFC0EDBCFEAFFE750E926B9
:10399000000EEA22EE0EEF6E32D0010EDB50DF6E2B
:1039A000D9CFE6FFDACFE6FF4A0EE76EFB0EDBCF9C
:1039B00020F0FC0EDBCF21F0E7502026000E212264
:1039C00020C0E6FF21C0E6FFDF50E76EFD0EDBCF33
:1039D00022F0FE0EDBCF23F0E7502226000E23223A
:1039E00022C0E6FF23C0E6FF45EC0CF0246E060E75
:1039F000E15E2450000903E1000E75EF29F0020199
:103A0000726B010E75EF29F0010EDB50DF6EB80E00
:103A1000206ECC0E216E226A20C0E6FF21C0E6FF98
:103A200022C0E6FFD950020FE66E000EDA20E66EE5
:103A3000EAEC68F0236E050EE15E2350D9CFE6FF75
:103A4000DACFE6FFD950020FE66E000EDA20E66EFE
:103A5000DF50E76EFD0EDBCF20F0FE0EDBCF21F056
:103A6000E7502026000E212220C0E6FF21C0E6FFFD
:103A70004EEC0BF0226E060EE15E2250000921E0B2
:103A80004B0EE76EFB0EDBCFE9FFFC0EDBCFEAFF50
:103A9000E750E926000EEA22010EEF6E4C0EE76EAB
:103AA000FB0EDBCFE9FFFC0EDBCFEAFFE750E92698
:103AB000000EEA222E0EEF6E0201726B010E75EF00
:103AC00029F0010EDB50DF6EB10E206ECC0E216EA0
:103AD000226A20C0E6FF21C0E6FF22C0E6FFD950DF
:103AE000020FE66E000EDA20E66EEAEC68F0236E56
:103AF000050EE15E2350D9CFE6FFDACFE6FFD950BD
:103B0000020FE66E000EDA20E66EDF50E76EFD0E65
:103B1000DBCF20F0FE0EDBCF21F0E7502026000E99
:103B2000212220C0E6FF21C0E6FF4EEC0BF0226E02
:103B3000060EE15E2250000921E04B0EE76EFB0EFF
:103B4000DBCFE9FFFC0EDBCFEAFFE750E926000EF2
:103B5000EA22010EEF6E4C0EE76EFB0EDBCFE9FFA3
:103B6000FC0EDBCFEAFFE750E926000EEA222B0E1F
:103B7000EF6E0201726B010E75EF29F0010EDB5042
:103B8000DF6EA70E206ECC0E216E226A20C0E6FFEB
:103B900021C0E6FF22C0E6FFD950020FE66E000EFC
:103BA000DA20E66EEAEC68F0236E050EE15E235043
:103BB000D9CFE6FFDACFE6FFD950020FE66E000E4E
:103BC000DA20E66EDF50E76EFD0EDBCF20F0FE0E52
:103BD000DBCF21F0E7502026000E212220C0E6FF97
:103BE00021C0E6FF4EEC0BF0226E060EE15E225085
:103BF000000921E04B0EE76EFB0EDBCFE9FFFC0E68
:103C0000DBCFEAFFE750E926000EEA22010EEF6E55
:103C10004C0EE76EFB0EDBCFE9FFFC0EDBCFEAFFBD
:103C2000E750E926000EEA222C0EEF6E0201726BBD
:103C3000010E75EF29F0010EDB50DF6E340E206EA1
:103C4000CD0E216E226A20C0E6FF21C0E6FF22C011
:103C5000E6FFD950020FE66E000EDA20E66EEAECBF
:103C600068F0236E050EE15E2350D9CFE6FFDACF70
:103C7000E6FFD950020FE66E000EDA20E66EDF5046
:103C8000E76EFD0EDBCF20F0FE0EDBCF21F0E7501C
:103C90002026000E212220C0E6FF21C0E6FF4EECC8
:103CA0000BF0226E060EE15E2250000971E04D0E0F
:103CB000E76EFB0EDBCFE9FFFC0EDBCFEAFFE75040
:103CC000E926000EEA22010EEF6ED9CFE6FFDACF29
:103CD000E6FF4E0EE76EFB0EDBCF20F0FC0EDBCFD7
:103CE00021F0E7502026000E212220C0E6FF21C04F
:103CF000E6FFDF50E76EFD0EDBCF22F0FE0EDBCFDE
:103D000023F0E7502226000E232222C0E6FF23C024
:103D1000E6FF45EC0CF0246E060EE15E245000092F
:103D200003E1000E75EF29F0D9CFE6FFDACFE6FF09
:103D30004F0EE76EFB0EDBCF20F0FC0EDBCF21F049
:103D4000E7502026000E212220C0E6FF21C0E6FF1A
:103D5000DF50E76EFD0EDBCF22F0FE0EDBCF23F04F
:103D6000E7502226000E232222C0E6FF23C0E6FFF2
:103D700045EC0CF0246E060EE15E2450000903E1D0
:103D8000000E75EF29F00201726B010E75EF29F03C
:103D9000000E75EF29F003D0000E75EF29F0010E2B
:103DA000DB50DF6EA30E206ECC0E216E226A20C087
:103DB000E6FF21C0E6FF22C0E6FFD950020FE66E03
:103DC000000EDA20E66EEAEC68F0236E050EE15E86
:103DD0002350D9CFE6FFDACFE6FFD950020FE66EC7
:103DE000000EDA20E66EDF50E76EFD0EDBCF20F02E
:103DF000FE0EDBCF21F0E7502026000E212220C04E
:103E0000E6FF21C0E6FF4EEC0BF0226E060EE15EEF
:103E10002250000942E0550EE76EFB0EDBCFE9FFB2
:103E2000FC0EDBCFEAFFE750E926000EEA22010E86
:103E3000EF6ED9CFE6FFDACFE6FF560EE76EFB0E48
:103E4000DBCF20F0FC0EDBCF21F0E7502026000E68
:103E5000212220C0E6FF21C0E6FFDF50E76EFD0E05
:103E6000DBCF22F0FE0EDBCF23F0E7502226000E40
:103E7000232222C0E6FF23C0E6FF45EC0CF0246EAF
:103E8000060EE15E2450000903E1000E75EF29F0F3
:103E90000201726B010E75EF29F0DF6A9F0E206E32
:103EA000CC0E216E226A20C0E6FF21C0E6FF22C0B0
:103EB000E6FFD950020FE66E000EDA20E66EEAEC5D
:103EC00068F0236E050EE15E2350D9CFE6FFDACF0E
:103ED000E6FFD950020FE66E000EDA20E66EDF50E4
:103EE000E76EFD0EDBCF20F0FE0EDBCF21F0E750BA
:103EF0002026000E212220C0E6FF21C0E6FF4EEC66
:103F00000BF0226E060EE15E2250000902E173EF13
:103F100029F0FB0EDBCFE9FFFC0EDBCFEAFF020E40
:103F2000EF6ED9CFE6FFDACFE6FF010EE76EFB0EAC
:103F3000DBCF20F0FC0EDBCF21F0E7502026000E77
:103F4000212220C0E6FF21C0E6FFDF50E76EFD0E14
:103F5000DBCF22F0FE0EDBCF23F0E7502226000E4F
:103F6000232222C0E6FF23C0E6FF45EC0CF0246EBE
:103F7000060EE15E2450000903E1000E75EF29F002
:103F8000010EDFCFDBFF2B0E206ECD0E216E226ADD
:103F900020C0E6FF21C0E6FF22C0E6FFD950020F95
:103FA000E66E000EDA20E66EEAEC68F0236E050E8F
:103FB000E15E2350D9CFE6FFDACFE6FFD950020FFA
:103FC000E66E000EDA20E66EDF50E76EFD0EDBCF08
:103FD00020F0FE0EDBCF21F0E7502026000E21223C
:103FE00020C0E6FF21C0E6FF4EEC0BF0226E060E6D
:103FF000E15E2250000971E0030EE76EFB0EDBCF9D
:10400000E9FFFC0EDBCFEAFFE750E926000EEA22CB
:10401000010EEF6ED9CFE6FFDACFE6FF040EE76EB2
:10402000FB0EDBCF20F0FC0EDBCF21F0E75020268B
:10403000000E212220C0E6FF21C0E6FFDF50E76E20
:10404000FD0EDBCF22F0FE0EDBCF23F0E750222661
:10405000000E232222C0E6FF23C0E6FF45EC0CF051
:10406000246E060EE15E2450000903E1000E75EF98
:1040700029F0D9CFE6FFDACFE6FF050EE76EFB0E9B
:10408000DBCF20F0FC0EDBCF21F0E7502026000E26
:10409000212220C0E6FF21C0E6FFDF50E76EFD0EC3
:1040A000DBCF22F0FE0EDBCF23F0E7502226000EFE
:1040B000232222C0E6FF23C0E6FF45EC0CF0246E6D
:1040C000060EE15E2450000903E1000E75EF29F0B1
:1040D0000201726B010E75EF29F0010EDB50DF6EED
:1040E000070E206ECD0E216E226A20C0E6FF21C091
:1040F000E6FF22C0E6FFD950020FE66E000EDA207E
:10410000E66EEAEC68F0236E050EE15E2350D9CF2F
:10411000E6FFDACFE6FFD950020FE66E000EDA2096
:10412000E66EDF50E76EFD0EDBCF20F0FE0EDBCF3C
:1041300021F0E7502026000E212220C0E6FF21C0FA
:10414000E6FF4EEC0BF0226E060EE15E22500009F7
:1041500071E0060EE76EFB0EDBCFE9FFFC0EDBCF56
:10416000EAFFE750E926000EEA22010EEF6ED9CFF2
:10417000E6FFDACFE6FF070EE76EFB0EDBCF20F09F
:10418000FC0EDBCF21F0E7502026000E212220C0BC
:10419000E6FF21C0E6FFDF50E76EFD0EDBCF22F029
:1041A000FE0EDBCF23F0E7502226000E232222C092
:1041B000E6FF23C0E6FF45EC0CF0246E060EE15E40
:1041C0002450000903E1000E75EF29F0D9CFE6FF76
:1041D000DACFE6FF080EE76EFB0EDBCF20F0FC0E19
:1041E000DBCF21F0E7502026000E212220C0E6FF81
:1041F00021C0E6FFDF50E76EFD0EDBCF22F0FE0EA2
:10420000DBCF23F0E7502226000E232222C0E6FF58
:1042100023C0E6FF45EC0CF0246E060EE15E245050
:10422000000903E1000E75EF29F00201726B010E27
:1042300075EF29F0010EDB50DF6EE40E206ECC0E20
:10424000216E226A20C0E6FF21C0E6FF22C0E6FF01
:10425000D950020FE66E000EDA20E66EEAEC68F046
:10426000236E050EE15E2350D9CFE6FFDACFE6FFDD
:10427000D950020FE66E000EDA20E66EDF50E76ED0
:10428000FD0EDBCF20F0FE0EDBCF21F0E750202625
:10429000000E212220C0E6FF21C0E6FF4EEC0BF00D
:1042A000226E060EE15E2250000971E0090EE76EF3
:1042B000FB0EDBCFE9FFFC0EDBCFEAFFE750E92680
:1042C000000EEA22010EEF6ED9CFE6FFDACFE6FF4D
:1042D0000A0EE76EFB0EDBCF20F0FC0EDBCF21F0E9
:1042E000E7502026000E212220C0E6FF21C0E6FF75
:1042F000DF50E76EFD0EDBCF22F0FE0EDBCF23F0AA
:10430000E7502226000E232222C0E6FF23C0E6FF4C
:1043100045EC0CF0246E060EE15E2450000903E12A
:10432000000E75EF29F0D9CFE6FFDACFE6FF0B0ECE
:10433000E76EFB0EDBCF20F0FC0EDBCF21F0E75069
:104340002026000E212220C0E6FF21C0E6FFDF501C
:10435000E76EFD0EDBCF22F0FE0EDBCF23F0E75041
:104360002226000E232222C0E6FF23C0E6FF45ECF2
:104370000CF0246E060EE15E2450000903E1000EED
:1043800075EF29F00201726B010E75EF29F0010E35
:10439000DB50DF6E1A0E206ECD0E216E226A20C019
:1043A000E6FF21C0E6FF22C0E6FFD950020FE66E0D
:1043B000000EDA20E66EEAEC68F0236E050EE15E90
:1043C0002350D9CFE6FFDACFE6FFD950020FE66ED1
:1043D000000EDA20E66EDF50E76EFD0EDBCF20F038
:1043E000FE0EDBCF21F0E7502026000E212220C058
:1043F000E6FF21C0E6FF4EEC0BF0226E060EE15EFA
:104400002250000946E00C0EE76EFB0EDBCFE9FF01
:10441000FC0EDBCFEAFFE750E926000EEA22010E90
:10442000EF6E0D0EE76EFB0EDBCF20F0FC0EDBCF48
:1044300021F0E7502026000E212220C0E6FF21C0F7
:10444000E6FFD9CFE6FFDACFE6FFFD0EDBCFE6FFD2
:10445000FE0EDBCFE6FF32EC0DF0226E060EE15EC3
:104460002250000903E1000E75EF29F0110EE76EEE
:10447000FB0EDBCFE9FFFC0EDBCFEAFFE750E926BE
:10448000000EEA22280EEF6E0201726B010E75EF2C
:1044900029F0010EDB50DF6E130E206ECD0E216E63
:1044A000226A20C0E6FF21C0E6FF22C0E6FFD95005
:1044B000020FE66E000EDA20E66EEAEC68F0236E7C
:1044C000050EE15E2350D9CFE6FFDACFE6FFD950E3
:1044D000020FE66E000EDA20E66EDF50E76EFD0E8C
:1044E000DBCF20F0FE0EDBCF21F0E7502026000EC0
:1044F000212220C0E6FF21C0E6FF4EEC0BF0226E29
:10450000060EE15E2250000946E00C0EE76EFB0E3F
:10451000DBCFE9FFFC0EDBCFEAFFE750E926000E18
:10452000EA22010EEF6E0D0EE76EFB0EDBCF20F0E0
:10453000FC0EDBCF21F0E7502026000E212220C008
:10454000E6FF21C0E6FFD9CFE6FFDACFE6FFFD0E9A
:10455000DBCFE6FFFE0EDBCFE6FF32EC0DF0226E86
:10456000060EE15E2250000903E1000E75EF29F00E
:10457000110EE76EFB0EDBCFE9FFFC0EDBCFEAFF8F
:10458000E750E926000EEA22290EEF6E0201726B57
:10459000010E75EF29F0010EDB50DF6E010E206E6B
:1045A000CD0E216E226A20C0E6FF21C0E6FF22C0A8
:1045B000E6FFD950020FE66E000EDA20E66EEAEC56
:1045C00068F0236E050EE15E2350D9CFE6FFDACF07
:1045D000E6FFD950020FE66E000EDA20E66EDF50DD
:1045E000E76EFD0EDBCF20F0FE0EDBCF21F0E750B3
:1045F0002026000E212220C0E6FF21C0E6FF4EEC5F
:104600000BF0226E060EE15E2250000901E1DFD2BE
:10461000120EE76EFB0EDBCFE9FFFC0EDBCFEAFFED
:10462000E750E926000EEA22010EEF6ED9CFE6FF31
:10463000DACFE6FF130EE76EFB0EDBCF20F0FC0EA9
:10464000DBCF21F0E7502026000E212220C0E6FF1C
:1046500021C0E6FFDF50E76EFD0EDBCF22F0FE0E3D
:10466000DBCF23F0E7502226000E232222C0E6FFF4
:1046700023C0E6FF45EC0CF0246E060EE15E2450EC
:10468000000903E1000E75EF29F0DE0E206ECC0E5E
:10469000216E226A20C0E6FF21C0E6FF22C0E6FFAD
:1046A000D950020FE66E000EDA20E66EEAEC68F0F2
:1046B000236E050EE15E2350D9CFE6FFDACFE6FF89
:1046C000D950020FE66E000EDA20E66EDF50E76E7C
:1046D000FD0EDBCF20F0FE0EDBCF21F0E7502026D1
:1046E000000E212220C0E6FF21C0E6FF4EEC0BF0B9
:1046F000226E060EE15E2250000903E1000E75EF06
:1047000029F0010EDFCFDBFFD80E206ECC0E216E1C
:10471000226A20C0E6FF21C0E6FF22C0E6FFD95092
:10472000020FE66E000EDA20E66EEAEC68F0236E09
:10473000050EE15E2350D9CFE6FFDACFE6FFD95070
:10474000020FE66E000EDA20E66EDF50E76EFD0E19
:10475000DBCF20F0FE0EDBCF21F0E7502026000E4D
:10476000212220C0E6FF21C0E6FF4EEC0BF0226EB6
:10477000060EE15E225000090EE0140EE76EFB0EFD
:10478000DBCFE9FFFC0EDBCFEAFFE750E926000EA6
:10479000EA22EF687DD0010EDB50DF6ED20E206E74
:1047A000CC0E216E226A20C0E6FF21C0E6FF22C0A7
:1047B000E6FFD950020FE66E000EDA20E66EEAEC54
:1047C00068F0236E050EE15E2350D9CFE6FFDACF05
:1047D000E6FFD950020FE66E000EDA20E66EDF50DB
:1047E000E76EFD0EDBCF20F0FE0EDBCF21F0E750B1
:1047F0002026000E212220C0E6FF21C0E6FF4EEC5D
:104800000BF0226E060EE15E225000090FE0140E3E
:10481000E76EFB0EDBCFE9FFFC0EDBCFEAFFE750D4
:10482000E926000EEA22EE0EEF6E32D0010EDB50CA
:10483000DF6ED9CFE6FFDACFE6FF140EE76EFB0E90
:10484000DBCF20F0FC0EDBCF21F0E7502026000E5E
:10485000212220C0E6FF21C0E6FFDF50E76EFD0EFB
:10486000DBCF22F0FE0EDBCF23F0E7502226000E36
:10487000232222C0E6FF23C0E6FF45EC0CF0246EA5
:10488000060EE15E2450000903E1000E75EF29F0E9
:10489000010EDFCFDBFFCD0E206ECC0E216E226A23
:1048A00020C0E6FF21C0E6FF22C0E6FFD950020F7C
:1048B000E66E000EDA20E66EEAEC68F0236E050E76
:1048C000E15E2350D9CFE6FFDACFE6FFD950020FE1
:1048D000E66E000EDA20E66EDF50E76EFD0EDBCFEF
:1048E00020F0FE0EDBCF21F0E7502026000E212223
:1048F00020C0E6FF21C0E6FF4EEC0BF0226E060E54
:10490000E15E225000090FE0150EE76EFB0EDBCFD3
:10491000E9FFFC0EDBCFEAFFE750E926000EEA22B2
:10492000130EEF6E4ED0010EDB50DF6EC80E206E00
:10493000CC0E216E226A20C0E6FF21C0E6FF22C015
:10494000E6FFD950020FE66E000EDA20E66EEAECC2
:1049500068F0236E050EE15E2350D9CFE6FFDACF73
:10496000E6FFD950020FE66E000EDA20E66EDF5049
:10497000E76EFD0EDBCF20F0FE0EDBCF21F0E7501F
:104980002026000E212220C0E6FF21C0E6FF4EECCB
:104990000BF0226E060EE15E225000090FE0150EAC
:1049A000E76EFB0EDBCFE9FFFC0EDBCFEAFFE75043
:1049B000E926000EEA22140EEF6E03D0000E75EF0A
:1049C00029F0C00E206ECC0E216E226A20C0E6FFB8
:1049D00021C0E6FF22C0E6FFD950020FE66E000EAE
:1049E000DA20E66EEAEC68F0236E050EE15E2350F5
:1049F000D9CFE6FFDACFE6FFD950020FE66E000E00
:104A0000DA20E66EDF50E76EFD0EDBCF20F0FE0E03
:104A1000DBCF21F0E7502026000E212220C0E6FF48
:104A200021C0E6FF4EEC0BF0226E060EE15E225036
:104A3000000903E1000E75EF29F0010EDFCFDBFF67
:104A4000D80E206ECC0E216E226A20C0E6FF21C057
:104A5000E6FF22C0E6FFD950020FE66E000EDA2014
:104A6000E66EEAEC68F0236E050EE15E2350D9CFC6
:104A7000E6FFDACFE6FFD950020FE66E000EDA202D
:104A8000E66EDF50E76EFD0EDBCF20F0FE0EDBCFD3
:104A900021F0E7502026000E212220C0E6FF21C091
:104AA000E6FF4EEC0BF0226E060EE15E225000098E
:104AB0000EE0160EE76EFB0EDBCFE9FFFC0EDBCF40
:104AC000EAFFE750E926000EEA22EF687CD0010EEB
:104AD000DB50DF6ED20E206ECC0E216E226A20C01B
:104AE000E6FF21C0E6FF22C0E6FFD950020FE66EC6
:104AF000000EDA20E66EEAEC68F0236E050EE15E49
:104B00002350D9CFE6FFDACFE6FFD950020FE66E89
:104B1000000EDA20E66EDF50E76EFD0EDBCF20F0F0
:104B2000FE0EDBCF21F0E7502026000E212220C010
:104B3000E6FF21C0E6FF4EEC0BF0226E060EE15EB2
:104B4000225000090FE0160EE76EFB0EDBCFE9FFE7
:104B5000FC0EDBCFEAFFE750E926000EEA22EE0E5C
:104B6000EF6E31D0010EDB50DF6ED9CFE6FFDACF2A
:104B7000E6FF160EE76EFB0EDBCF20F0FC0EDBCF60
:104B800021F0E7502026000E212220C0E6FF21C0A0
:104B9000E6FFDF50E76EFD0EDBCF22F0FE0EDBCF2F
:104BA00023F0E7502226000E232222C0E6FF23C076
:104BB000E6FF45EC0CF0246E060EE15E2450000981
:104BC00002E1000E92D30201726B010E8ED3010E30
:104BD000DB50DF6EB80E206ECC0E216E226A20C034
:104BE000E6FF21C0E6FF22C0E6FFD950020FE66EC5
:104BF000000EDA20E66EEAEC68F0236E050EE15E48
:104C00002350D9CFE6FFDACFE6FFD950020FE66E88
:104C1000000EDA20E66EDF50E76EFD0EDBCF20F0EF
:104C2000FE0EDBCF21F0E7502026000E212220C00F
:104C3000E6FF21C0E6FF4EEC0BF0226E060EE15EB1
:104C40002250000920E0170EE76EFB0EDBCFE9FFD4
:104C5000FC0EDBCFEAFFE750E926000EEA22010E48
:104C6000EF6E180EE76EFB0EDBCFE9FFFC0EDBCF1D
:104C7000EAFFE750E926000EEA222E0EEF6E02014F
:104C8000726B010E32D3010EDB50DF6EB10E206E5F
:104C9000CC0E216E226A20C0E6FF21C0E6FF22C0B2
:104CA000E6FFD950020FE66E000EDA20E66EEAEC5F
:104CB00068F0236E050EE15E2350D9CFE6FFDACF10
:104CC000E6FFD950020FE66E000EDA20E66EDF50E6
:104CD000E76EFD0EDBCF20F0FE0EDBCF21F0E750BC
:104CE0002026000E212220C0E6FF21C0E6FF4EEC68
:104CF0000BF0226E060EE15E2250000920E0170E36
:104D0000E76EFB0EDBCFE9FFFC0EDBCFEAFFE750DF
:104D1000E926000EEA22010EEF6E180EE76EFB0E7A
:104D2000DBCFE9FFFC0EDBCFEAFFE750E926000E00
:104D3000EA222B0EEF6E0201726B010ED6D2010E2B
:104D4000DB50DF6EA70E206ECC0E216E226A20C0D3
:104D5000E6FF21C0E6FF22C0E6FFD950020FE66E53
:104D6000000EDA20E66EEAEC68F0236E050EE15ED6
:104D70002350D9CFE6FFDACFE6FFD950020FE66E17
:104D8000000EDA20E66EDF50E76EFD0EDBCF20F07E
:104D9000FE0EDBCF21F0E7502026000E212220C09E
:104DA000E6FF21C0E6FF4EEC0BF0226E060EE15E40
:104DB0002250000920E0170EE76EFB0EDBCFE9FF63
:104DC000FC0EDBCFEAFFE750E926000EEA22010ED7
:104DD000EF6E180EE76EFB0EDBCFE9FFFC0EDBCFAC
:104DE000EAFFE750E926000EEA222C0EEF6E0201E0
:104DF000726B010E7AD2010EDB50DF6E340E206E24
:104E0000CD0E216E226A20C0E6FF21C0E6FF22C03F
:104E1000E6FFD950020FE66E000EDA20E66EEAECED
:104E200068F0236E050EE15E2350D9CFE6FFDACF9E
:104E3000E6FFD950020FE66E000EDA20E66EDF5074
:104E4000E76EFD0EDBCF20F0FE0EDBCF21F0E7504A
:104E50002026000E212220C0E6FF21C0E6FF4EECF6
:104E60000BF0226E060EE15E225000096EE0190E74
:104E7000E76EFB0EDBCFE9FFFC0EDBCFEAFFE7506E
:104E8000E926000EEA22010EEF6ED9CFE6FFDACF57
:104E9000E6FF1A0EE76EFB0EDBCF20F0FC0EDBCF39
:104EA00021F0E7502026000E212220C0E6FF21C07D
:104EB000E6FFDF50E76EFD0EDBCF22F0FE0EDBCF0C
:104EC00023F0E7502226000E232222C0E6FF23C053
:104ED000E6FF45EC0CF0246E060EE15E245000095E
:104EE00002E1000E02D2D9CFE6FFDACFE6FF1B0EB9
:104EF000E76EFB0EDBCF20F0FC0EDBCF21F0E7509E
:104F00002026000E212220C0E6FF21C0E6FFDF5050
:104F1000E76EFD0EDBCF22F0FE0EDBCF23F0E75075
:104F20002226000E232222C0E6FF23C0E6FF45EC26
:104F30000CF0246E060EE15E2450000902E1000E22
:104F4000D4D10201726B010ED0D1010EDB50DF6EA5
:104F5000990E206ECC0E216E226A20C0E6FF21C081
:104F6000E6FF22C0E6FFD950020FE66E000EDA20FF
:104F7000E66EEAEC68F0236E050EE15E2350D9CFB1
:104F8000E6FFDACFE6FFD950020FE66E000EDA2018
:104F9000E66EDF50E76EFD0EDBCF20F0FE0EDBCFBE
:104FA00021F0E7502026000E212220C0E6FF21C07C
:104FB000E6FF4EEC0BF0226E060EE15E2250000979
:104FC00011E01C0EE76EFB0EDBCFE9FFFC0EDBCF22
:104FD000EAFFE750E926000EEA22010EEF6E020119
:104FE000726B83D1010EDB50DF6E930E206ECC0E00
:104FF000216E226A20C0E6FF21C0E6FF22C0E6FF44
:10500000D950020FE66E000EDA20E66EEAEC68F088
:10501000236E050EE15E2350D9CFE6FFDACFE6FF1F
:10502000D950020FE66E000EDA20E66EDF50E76E12
:10503000FD0EDBCF20F0FE0EDBCF21F0E750202667
:10504000000E212220C0E6FF21C0E6FF4EEC0BF04F
:10505000226E060EE15E2250000911E01D0EE76E81
:10506000FB0EDBCFE9FFFC0EDBCFEAFFE750E926C2
:10507000000EEA22010EEF6E0201726B36D1010EB4
:10508000DB50DF6E8D0E206ECC0E216E226A20C0AA
:10509000E6FF21C0E6FF22C0E6FFD950020FE66E10
:1050A000000EDA20E66EEAEC68F0236E050EE15E93
:1050B0002350D9CFE6FFDACFE6FFD950020FE66ED4
:1050C000000EDA20E66EDF50E76EFD0EDBCF20F03B
:1050D000FE0EDBCF21F0E7502026000E212220C05B
:1050E000E6FF21C0E6FF4EEC0BF0226E060EE15EFD
:1050F0002250000911E01E0EE76EFB0EDBCFE9FF28
:10510000FC0EDBCFEAFFE750E926000EEA22010E93
:10511000EF6E0201726BE9D0010EDB50DF6E870E7D
:10512000206ECC0E216E226A20C0E6FF21C0E6FF71
:1051300022C0E6FFD950020FE66E000EDA20E66EBE
:10514000EAEC68F0236E050EE15E2350D9CFE6FF4E
:10515000DACFE6FFD950020FE66E000EDA20E66ED7
:10516000DF50E76EFD0EDBCF20F0FE0EDBCF21F02F
:10517000E7502026000E212220C0E6FF21C0E6FFD6
:105180004EEC0BF0226E060EE15E2250000911E09B
:105190001F0EE76EFB0EDBCFE9FFFC0EDBCFEAFF55
:1051A000E750E926000EEA22010EEF6E0201726B53
:1051B0009CD0010EDB50DF6E7F0E206ECC0E216E78
:1051C000226A20C0E6FF21C0E6FF22C0E6FFD950D8
:1051D000020FE66E000EDA20E66EEAEC68F0236E4F
:1051E000050EE15E2350D9CFE6FFDACFE6FFD950B6
:1051F000020FE66E000EDA20E66EDF50E76EFD0E5F
:10520000DBCF20F0FE0EDBCF21F0E7502026000E92
:10521000212220C0E6FF21C0E6FF4EEC0BF0226EFB
:10522000060EE15E2250000911E0200EE76EFB0E33
:10523000DBCFE9FFFC0EDBCFEAFFE750E926000EEB
:10524000EA22010EEF6E0201726B4FD0010EDB50AD
:10525000DF6E7A0E206ECC0E216E226A20C0E6FF31
:1052600021C0E6FF22C0E6FFD950020FE66E000E15
:10527000DA20E66EEAEC68F0236E050EE15E23505C
:10528000D9CFE6FFDACFE6FFD950020FE66E000E67
:10529000DA20E66EDF50E76EFD0EDBCF20F0FE0E6B
:1052A000DBCF21F0E7502026000E212220C0E6FFB0
:1052B00021C0E6FF4EEC0BF0226E060EE15E22509E
:1052C000000911E0210EE76EFB0EDBCFE9FFFC0EBB
:1052D000DBCFEAFFE750E926000EEA22010EEF6E6F
:1052E0000201726B02D0000E00D0206E0E0EE15C47
:1052F00002E2E16AE552E16E2050E552E7CFD9FFC4
:105300001200D9CFE6FFE1CFD9FF030EE126010E4F
:10531000DB6ADF6A620EDF5C09E2DF50EA6A020FD5
:10532000E96E050EEA22EF6ADF2AF4D7DF6A4E0E35
:10533000DF5C59E2DF50E76EFD0EDBCFE9FFFE0ECA
:10534000DBCFEAFFE750E926000EEA22EF5001E149
:105350004AD0020EDB6ADF50E76EFD0EDBCFE9FFBD
:10536000FE0EDBCFEAFFE750E926000EEA22EF50FF
:10537000F36E020EDBCFF4FFF350F45C31E2620E09
:10538000F36E010EDBCFF4FFF350F45C0BE3FD0E84
:10539000DBCFE6FFFE0EDBCFE6FF27D9E552E55275
:1053A000000E40D0DF28E76EFD0EDBCFE9FFFE0EDA
:1053B000DBCFEAFFE750E926000EEA22EF50E66E67
:1053C000010EDBCFF3FFDB2AF350EA6A020FE96E2E
:1053D000050EEA22E552E750EF6E020EDB2ABBD73C
:1053E000020EDF26A4D7DF6A620EDF5C19E2DF500F
:1053F000EA6A020FE96E050EEA22EF50E66EDF5010
:10540000E76EFD0EDBCFE9FFFE0EDBCFEAFFE750D4
:10541000E926000EEA22E552E750EF6EDF2AE4D7D4
:10542000010E00D0206E030EE15C02E2E16AE5525B
:10543000E16E2050E552E7CFD9FF1200D9CFE6FF49
:10544000E1CFD9FF040EE126010EDB6ADF6AFD0E13
:10545000DBCFE9FFFE0EDBCFEAFF030EEFCFDBFF72
:10546000020EDB6A620EF36E010EDBCFF4FFF35027
:10547000F45C6EE2010EDB50E76EFD0EDBCFE9FF60
:10548000FE0EDBCFEAFFE750E926000EEA22EFCF5F
:1054900020F0030EDB50205C0EE1020EDB2A010E31
:1054A000DB2A620EF36E010EDBCFF4FFF350F45CE7
:1054B00001E301D0DFD74F0EDF5C17E2600EDF5C47
:1054C00014E2DF50DF2AEA6A020FE96E050EEA22D3
:1054D000020EDBCFEFFFDF50DF2AEA6A020FE96E30
:1054E000050EEA22030EDBCFEFFF500EDF5C1DE35B
:1054F000010EDB6A620EF36E010EDBCFF4FFF35098
:10550000F45C11E2010EDB50E76EFD0EDBCFE9FF2C
:10551000FE0EDBCFEAFFE750E926000EEA22EF6A33
:10552000010EDB2AE7D7000E54D0010EDB50E76EE8
:10553000FD0EDBCFE9FFFE0EDBCFEAFFE750E926E9
:10554000000EEA22030EEFCFDBFF020EDB6A8AD7E2
:10555000010EDB6ADF50F36E010EDBCFF4FFF35078
:10556000F45C1CE2010EDB50EA6A020FE96E050EE4
:10557000EA22EF50E66E010EDB50E76EFD0EDBCF48
:10558000E9FFFE0EDBCFEAFFE750E926000EEA2234
:10559000E552E750EF6E010EDB2ADCD7620EF36EA8
:1055A000010EDBCFF4FFF350F45C11E2010EDB508F
:1055B000E76EFD0EDBCFE9FFFE0EDBCFEAFFE75023
:1055C000E926000EEA22EF6A010EDB2AE7D7DF5058
:1055D00000D0206E040EE15C02E2E16AE552E16E69
:1055E0002050E552E7CFD9FF1200D9CFE6FFE1CF37
:1055F000D9FFE652DF6A620EDF5C0FE2DF50E76E32
:10560000FD0EDBCFE9FFFE0EDBCFEAFFE750E92618
:10561000000EEA22EF6ADF2AEED7E552E552E7CF25
:10562000D9FF1200D9CFE6FFE1CFD9FFE652020140
:105630006B51F36EFE0EDBCFF4FFF350F45C04E32A
:10564000150E726F000E31D0DF6A0F0EDF5C2AE29A
:1056500002016B510F0DF3CF22F0F4CF23F0640E53
:105660002226050E2322DF500F012224E96E000EB0
:105670002320EA6EEF50E66EFE0EDB500F0DF3CFE7
:1056800020F0F4CF21F0640E2026050E2122DF50F9
:105690002024E96E000E2120EA6EE552E750EF6EFD
:1056A000DF2AD3D745EC06F000D0E552E552E7CF2C
:1056B000D9FF1200D9CFE6FFE1CFD9FF050EE126D1
:1056C000640EF36EFE0EDBCFF4FFF350F45C06E3E2
:1056D0000201110E726F000E38EF30F02C0EE76EE3
:1056E000FC0EDBCFE9FFFD0EDBCFEAFFE750E9263A
:1056F000000EEA22EF046DE1FE0EDB500F0DF3CF3A
:10570000E9FFF4CFEAFF640EE926050EEA22EF6A0C
:105710002D0EE76EFC0EDBCFE9FFFD0EDBCFEAFFBF
:10572000E750E926000EEA22EF50E66EFE0EDB504F
:105730000F0DF3CFE9FFF4CFEAFF640EE926050E63
:10574000EA22010EE926000EEA22E552E750EF6E4A
:105750002E0EE76EFC0EDBCFE9FFFD0EDBCFEAFF7E
:10576000E750E926000EEA22EF50E66EFE0EDB500F
:105770000F0DF3CFE9FFF4CFEAFF640EE926050E23
:10578000EA22020EE926000EEA22E552E750EF6E09
:105790002F0EE76EFC0EDBCFE9FFFD0EDBCFEAFF3D
:1057A000E750E926000EEA22EF50E66EFE0EDB50CF
:1057B0000F0DF3CFE9FFF4CFEAFF640EE926050EE3
:1057C000EA22030EE926000EEA22E552E750EF6EC8
:1057D000D7D0300EE76EFC0EDBCFE9FFFD0EDBCF3E
:1057E000EAFFE750E926000EEA22EF044EE1FE0E42
:1057F000DB500F0DF3CFE9FFF4CFEAFF640EE9268B
:10580000050EEA22010EEF6E310EE76EFC0EDBCFC5
:10581000E9FFFD0EDBCFEAFFE750E926000EEA22A2
:10582000EF50E66EFE0EDB500F0DF3CFE9FFF4CF25
:10583000EAFF640EE926050EEA22010EE926000EB3
:10584000EA22E552E750EF6E320EE76EFC0EDBCF38
:10585000E9FFFD0EDBCFEAFFE750E926000EEA2262
:10586000EF50E66EFE0EDB500F0DF3CFE9FFF4CFE5
:10587000EAFF640EE926050EEA22020EE926000E72
:10588000EA22E552E750EF6E7BD0330EE76EFC0E56
:10589000DBCFE9FFFD0EDBCFEAFFE750E926000E84
:1058A000EA22EF046DE1FE0EDB500F0DF3CFE9FFAE
:1058B000F4CFEAFF640EE926050EEA22020EEF6E2F
:1058C000340EE76EFC0EDBCFE9FFFD0EDBCFEAFF07
:1058D000E750E926000EEA22EF50E66EFE0EDB509E
:1058E0000F0DF3CFE9FFF4CFEAFF640EE926050EB2
:1058F000EA22010EE926000EEA22E552E750EF6E99
:10590000350EE76EFC0EDBCFE9FFFD0EDBCFEAFFC5
:10591000E750E926000EEA22EF50E66EFE0EDB505D
:105920000F0DF3CFE9FFF4CFEAFF640EE926050E71
:10593000EA22020EE926000EEA22E552E750EF6E57
:10594000360EE76EFC0EDBCFE9FFFD0EDBCFEAFF84
:10595000E750E926000EEA22EF50E66EFE0EDB501D
:105960000F0DF3CFE9FFF4CFEAFF640EE926050E31
:10597000EA22030EE926000EEA22E552E750EF6E16
:10598000370EE76EFC0EDBCFE9FFFD0EDBCFEAFF43
:10599000E750E926000EEA22EF0451E1FE0EDB504B
:1059A0000F0DF3CFE9FFF4CFEAFF640EE926050EF1
:1059B000EA22040EE926000EEA22EF6A380EE76EAC
:1059C000FC0EDBCFE9FFFD0EDBCFEAFFE750E92657
:1059D000000EEA22EF50E66EFE0EDB500F0DF3CF05
:1059E000E9FFF4CFEAFF640EE926050EEA22050E70
:1059F000E926000EEA22E552E750EF6E390EE76E17
:105A0000FC0EDBCFE9FFFD0EDBCFEAFFE750E92616
:105A1000000EEA22EF50E66EFE0EDB500F0DF3CFC4
:105A2000E9FFF4CFEAFF640EE926050EEA22060E2E
:105A3000E926000EEA22E552E750EF6E80D23A0ED8
:105A4000E76EFC0EDBCFE9FFFD0EDBCFEAFFE75090
:105A5000E926000EEA22EF0452E1FE0EDB500F0DA4
:105A6000F3CFE9FFF4CFEAFF640EE926050EEA2240
:105A7000040EE926000EEA22010EEF6E3B0EE76EE1
:105A8000FC0EDBCFE9FFFD0EDBCFEAFFE750E92696
:105A9000000EEA22EF50E66EFE0EDB500F0DF3CF44
:105AA000E9FFF4CFEAFF640EE926050EEA22050EAF
:105AB000E926000EEA22E552E750EF6E3C0EE76E53
:105AC000FC0EDBCFE9FFFD0EDBCFEAFFE750E92656
