:020000040000FA
:06000000E5EF7AF01200AA
:020006001200E6
:06000800AFEF5BF01200F7
:02000E00FEFFF3
:06001800D0EF64F01200BD
:02001E000200DE
:1000200013F60000A70000002E0000000E000000E4
:08003000E100000002000000E5
:08003800D9CFE6FFE1CFD9FFAB
:10004000D950FD0FE96EFF0EDA20EA6EFF0ED88060
:10005000EE54030EED5403E2000E27D026D0FF0E1F
:10006000E76EFD0EDBCF14F0FE0EDBCF15F0E75090
:100070001416156A1450A96EFD0EDBCF14F0FE0E97
:10008000DBCF15F015C014F0156A030E1414AA6E18
:10009000A69EA69CA680FB0EDBCFE9FFFC0EDBCF65
:1000A000EAFFA8CFEFFF010E00D0E552E7CFD9FF5E
:1000B0001200D9CFE6FFE1CFD9FF030EE126D190A0
:1000C000090EDE6EDD6A0001010E696F85698669C1
:1000D00089698A698E6F696B050EF36E020EF3CF24
:1000E000DBFFDB5000082BE2020EDBCFE6FFE66A07
:1000F000A50E146EED0E156E166A14C0E6FF15C03F
:10010000E6FF16C0E6FFA20EE66E060EE66E1EECD9
:1001100079F0176E070EE15E1750A20EE66E060E1E
:10012000E66E93EC5AF0E552E552020EE66EE66A90
:10013000D5EC59F0E552E552020EDB06D2D70001AC
:10014000010E696F876B886B8B6B8C6B696B050E0F
:10015000F36E020EF3CFDBFFDB5000082BE2020E42
:10016000DBCFE6FFE66A9D0E146EED0E156E166A85
:1001700014C0E6FF15C0E6FF16C0E6FFA20EE66E4D
:10018000060EE66E1EEC79F0176E070EE15E175054
:10019000A20EE66E060EE66E93EC5AF0E552E552BC
:1001A000020EE66EE66AD5EC59F0E552E552020E13
:1001B000DB06D2D7350E146EEE0E156E166A14C01D
:1001C000E6FF15C0E6FF16C0E6FFA20EE66E060EBD
:1001D000E66E1EEC79F0176E050EE15E1750A20E6A
:1001E000E66E060EE66E93EC5AF0E552E552020E0C
:1001F000E66EE66AD5EC59F0E552E5520001010ED3
:10020000696F8E6B696B86C014F0156A1450E66EC8
:10021000DFCF16F0DF2A010EDBCF17F001E3DB2A78
:1002200016C0E6FF17C0E6FF03DBE552E552E552D4
:1002300000018551E66EDFCF14F0DF2A010EDBCF1F
:1002400015F001E3DB2A14C0E6FF15C0E6FFF0DA83
:10025000E552E552E55288C014F0156A1450E66E76
:10026000DFCF16F0DF2A010EDBCF17F001E3DB2A28
:1002700016C0E6FF17C0E6FFDBDAE552E552E552AD
:1002800000018751E66EDFCF14F0DF2A010EDBCFCD
:1002900015F001E3DB2A14C0E6FF15C0E6FFC8DA5B
:1002A000E552E552E5528AC014F0156A1450E66E24
:1002B000DFCF16F0DF2A010EDBCF17F001E3DB2AD8
:1002C00016C0E6FF17C0E6FFB3DAE552E552E55285
:1002D00000018951E66EDFCF14F0DF2A010EDBCF7B
:1002E00015F001E3DB2A14C0E6FF15C0E6FFA0DA33
:1002F000E552E552E5528CC014F0156A1450E66ED2
:10030000DFCF16F0DF2A010EDBCF17F001E3DB2A87
:1003100016C0E6FF17C0E6FF8BDAE552E552E5525C
:1003200000018B51E66EDECFE6FFDDCFE6FF80DA1F
:10033000E552E552E552D180030EE15C02E2E16A4A
:10034000E552E16EE552E7CFD9FF1200D9CFE6FFC3
:10035000E1CFD9FF040EE126010EDB6A020EDB6A53
:10036000030EDB6A080EF36E030EDBCFF4FFF350CF
:10037000F45C17E2030EDBCFE6FF010EDBCF14F0D7
:10038000DB2A020EDBCF15F001E3DB2A14C0E6FF07
:1003900015C0E6FF4DDAE552E552E552030EDB2AC1
:1003A000E1D7080EF36E010EF3CFDBFF020EDB6A1E
:1003B000060EDF6EDFCFE6FF010EDBCFE6FF020E9B
:1003C000DBCFE6FF35DAE552E552E552110EF36E6A
:1003D000010EF3CFDBFF020EDB6ADF6ADFCFE6FF41
:1003E000010EDBCFE6FF020EDBCFE6FF21DAE5529E
:1003F000E552E5520001010E696F060E686F6F6BE2
:10040000696B120EF36E010EF3CFDBFF020EDB6A97
:10041000D950010FE96EDACFEAFF150ED880EE54FD
:10042000000EED5411E3010EE66EDBCFE6FF020E87
:10043000DBCFE6FFFDD9E552E552E552010EDB2A9E
:10044000020E01E3DB2AE4D7040EE15C02E2E16A7A
:10045000E552E16EE552E7CFD9FF1200D9CFE6FFB2
:10046000E1CFD9FF060EE126010EDB6A020EDB6A40
:10047000050EDB6A080EF36E050EDBCFF4FFF350BA
:10048000F45C1FE2D9CFE6FFDACFE6FF010EDBCF47
:1004900014F0DB2A020EDBCF15F001E3DB2A14C0D7
:1004A000E6FF15C0E6FFC8DDE552E552E552E5522C
:1004B000050EDB50DF5C02E049DF9ED1050EDB2A32
:1004C000D9D7080EF36E010EF3CFDBFF020EDB6A05
:1004D000D9CFE6FFDACFE6FF010EDBCFE6FF020E53
:1004E000DBCFE6FFA9DDE552E552E552E55200011A
:1004F000010E696FDFCF68F0696B120EF36E010EAB
:10050000F3CFDBFF020EDB6AD9CFE6FFDACFE6FFDF
:10051000010EDBCF14F0DB2A020EDBCF15F001E376
:10052000DB2A14C0E6FF15C0E6FF86DDE552E55282
:10053000E552E552DF50E8B09582E8A09592D9CF18
:10054000E6FFDACFE6FF010EDBCF14F0DB2A020E66
:10055000DBCF15F001E3DB2A14C0E6FF15C0E6FF90
:100560006BDDE552E552E552E552DF50E8B0958487
:10057000E8A09594D9CFE6FFDACFE6FF010EDBCFF6
:1005800014F0DB2A020EDBCF15F001E3DB2A14C0E6
:10059000E6FF15C0E6FF50DDE552E552E552E552B3
:1005A000DF50E8B09586E8A09596D9CFE6FFDACF80
:1005B000E6FF010EDBCFE6FF020EDBCFE6FF3CDD00
:1005C000E552E552E552E552DF50E8B09488E8A0E4
:1005D0009498090EF36E010EF3CFDBFF020EDB6A77
:1005E000D9CFE6FFDACFE6FF010EDBCF14F0DB2A2E
:1005F000020EDBCF15F001E3DB2A14C0E6FF15C0C5
:10060000E6FF1ADDE552E552E552E5520001010E22
:10061000696FDF50856F866B696BD9CFE6FFDACFE4
:10062000E6FF010EDBCF14F0DB2A020EDBCF15F064
:1006300001E3DB2A14C0E6FF15C0E6FFFDDCE5524E
:10064000E552E552E5520001010E696F85C015F0D3
:10065000146ADF501424856F000E1520866F696BB5
:10066000D9CFE6FFDACFE6FF010EDBCF14F0DB2AAD
:10067000020EDBCF15F001E3DB2A14C0E6FF15C044
:10068000E6FFDADCE552E552E552E5520001010EE3
:10069000696FDF50876F886B696BD9CFE6FFDACF60
:1006A000E6FF010EDBCF14F0DB2A020EDBCF15F0E4
:1006B00001E3DB2A14C0E6FF15C0E6FFBDDCE5520E
:1006C000E552E552E5520001010E696F87C015F051
:1006D000146ADF501424876F000E1520886F696B31
:1006E000D9CFE6FFDACFE6FF010EDBCF14F0DB2A2D
:1006F000020EDBCF15F001E3DB2A14C0E6FF15C0C4
:10070000E6FF9ADCE552E552E552E5520001010EA2
:10071000696FDF50896F8A6B696BD9CFE6FFDACFDB
:10072000E6FF010EDBCF14F0DB2A020EDBCF15F063
:1007300001E3DB2A14C0E6FF15C0E6FF7DDCE552CD
:10074000E552E552E5520001010E696F89C015F0CE
:10075000146ADF501424896F000E15208A6F696BAC
:10076000D9CFE6FFDACFE6FF010EDBCF14F0DB2AAC
:10077000020EDBCF15F001E3DB2A14C0E6FF15C043
:10078000E6FF5ADCE552E552E552E5520001010E62
:10079000696FDF508B6F8C6B696BD9CFE6FFDACF57
:1007A000E6FF010EDBCFE6FF020EDBCFE6FF44DC07
:1007B000E552E552E552E5520001010E696F8BC02A
:1007C00015F0146ADF5014248B6F000E15208C6F07
:1007D000696B010E696F8551875D8F6F86518859EE
:1007E000906F696B010E696F89518B5D916F8A51B2
:1007F0008C59926F696B2FDA060EE15C02E2E16AB6
:10080000E552E16EE552E7CFD9FF1200A1A805D06D
:10081000A198A694010E03D002D0000E00D01200C1
:10082000A6B203D0010E03D002D0000E00D01200F9
:10083000D9CFE6FFE1CFD9FFE652D950FD0FE96EDF
:10084000FF0EDA20EA6EFF0ED880EE54030EED5450
:1008500003E2000E4BD04AD0E3DF000901E1FCD7F0
:10086000D9CFE6FFDACFE6FFFD0EDBCFE6FFFE0EC7
:10087000DBCFE6FF1CEC00F0E552E552E552E55215
:10088000FC0EDB50DF5C02E1010E30D0FF0EE76EA4
:10089000FD0EDBCF14F0FE0EDBCF15F0E750141683
:1008A000156A1450A96EFD0EDBCF14F0FE0EDBCFDF
:1008B00015F015C014F0156A030E1414AA6EFC0E80
:1008C000DB50A86EA69EA69CA684F29E550EA76E2F
:1008D000AA0EA76EA6829ADFFF0801E1FCD7A0DF6F
:1008E000000901E1FCD7F28E010E00D0E552E5527D
:1008F000E7CFD9FF1200AFD900D01200B30E146EAB
:10090000ED0E156E166A14C0E6FF15C0E6FF16C0A0
:10091000E6FFA20EE66E060EE66E1EEC79F0176E8E
:10092000050EE15E1750A20EE66E060EE66E32EC84
:1009300051F0E552E552C60E146EED0E156E166AB4
:1009400014C0E6FF15C0E6FF16C0E6FFA20EE66E75
:10095000060EE66E1EEC79F0176E050EE15E17507E
:10096000A20EE66E060EE66E32EC51F0E552E5524E
:10097000D90E146EED0E156E166A14C0E6FF15C082
:10098000E6FF16C0E6FFA20EE66E060EE66E1EEC51
:1009900079F0176E050EE15E175000016051E66EAA
:1009A000E66AA20EE66E060EE66E980E146EED0E68
:1009B000156E166A14C0E6FF15C0E6FF16C0E6FF06
:1009C000A20EE66E060EE66E1EEC79F0176E090EAC
:1009D000E15E1750A20EE66E060EE66E32EC51F0A6
:1009E000E552E552E00E146EED0E156E166A14C057
:1009F000E6FF15C0E6FF16C0E6FFA20EE66E060E85
:100A0000E66E1EEC79F0176E050EE15E1750060ECD
:100A10000001685D1AE1A20EE66E060EE66E920E09
:100A2000146EED0E156E166A14C0E6FF15C0E6FFD3
:100A300016C0E6FFA20EE66E060EE66E1EEC79F01C
:100A4000176E070EE15E175019D0A20EE66E060E65
:100A5000E66E8C0E146EED0E156E166A14C0E6FF6F
:100A600015C0E6FF16C0E6FFA20EE66E060EE66EA5
:100A70001EEC79F0176E070EE15E1750A20EE66EBF
:100A8000060EE66E32EC51F0E552E552E60E146EBB
:100A9000ED0E156E166A14C0E6FF15C0E6FF16C00F
:100AA000E6FFA20EE66E060EE66E1EEC79F0176EFD
:100AB000050EE15E17501FDFE66EE66AA20EE66ED7
:100AC000060EE66E850E146EED0E156E166A14C0D7
:100AD000E6FF15C0E6FF16C0E6FFA20EE66E060EA4
:100AE000E66E1EEC79F0176E090EE15E1750A20E4D
:100AF000E66E060EE66E32EC51F0E552E552EE0E71
:100B0000146EED0E156E166A14C0E6FF15C0E6FFF2
:100B100016C0E6FFA20EE66E060EE66E1EEC79F03B
:100B2000176E050EE15E17502C0E0001735D1AE082
:100B3000A20EE66E060EE66E7C0E146EED0E156EBF
:100B4000166A14C0E6FF15C0E6FF16C0E6FFA20E47
:100B5000E66E060EE66E1EEC79F0176E070EE15E8D
:100B6000175019D0A20EE66E060EE66E700E146EC9
:100B7000ED0E156E166A14C0E6FF15C0E6FF16C02E
:100B8000E6FFA20EE66E060EE66E1EEC79F0176E1C
:100B9000070EE15E1750A20EE66E060EE66E32EC10
:100BA00051F0E552E552FF0E146EED0E156E166A09
:100BB00014C0E6FF15C0E6FF16C0E6FFA20EE66E03
:100BC000060EE66E1EEC79F0176E050EE15E17500C
:100BD00000016F51E66EE66AA20EE66E060EE66E44
:100BE000980E146EED0E156E166A14C0E6FF15C051
:100BF000E6FF16C0E6FFA20EE66E060EE66E1EECDF
:100C000079F0176E090EE15E1750A20EE66E060E21
:100C1000E66E32EC51F0E552E5526F0E146EED0EB9
:100C2000156E166A14C0E6FF15C0E6FF16C0E6FF93
:100C3000A20EE66E060EE66E1EEC79F0176E050E3D
:100C4000E15E1750A20EE66E060EE66E32EC51F033
:100C5000E552E5521200D9CFE6FFE1CFD9FF090EE8
:100C6000E126110EF36E030EF3CFDBFF040EDB6AF9
:100C7000D950020FE66E000EDA20E66E030EDBCFCF
:100C8000E6FF040EDBCFE6FF1CEC00F0E552E55278
:100C9000E552E5520001010E696F020EDBCF6FF0E5
:100CA000696B6F5102E1640E8CD0160EF36E030E69
:100CB000F3CFDBFF040EDB6ADF6A6F51DF5C42E2D9
:100CC000010EDB6A0F0EF36E010EDBCFF4FFF35063
:100CD000F45C36E2D950020FE66E000EDA20E66EC2
:100CE000030EDBCF14F0DB2A040EDBCF15F001E39B
:100CF000DB2A14C0E6FF15C0E6FF1CEC00F0E5524D
:100D0000E552E552E5520001010E696FDF500F0D0B
:100D1000F3CF14F0F4CF15F0420E1426080E15226E
:100D2000010EDB500F011424E96E000E1520EA6E4F
:100D3000020EDBCFEFFF0001696B010EDB2AC2D789
:100D4000DF2ABBD7146A040E156E166A176A030EE3
:100D5000DBCF18F0040EDBCF19F01A6A1B6A1850AB
:100D6000145C066E19501558076E1A501658086E06
:100D70001B501758096E640E0B6E0C6A0D6A0E6AD2
:100D800051EC7AF002C006F003C007F004C008F08E
:100D900005C009F0EA0E0B6E030E0C6E0D6A0E6AAA
:100DA00041EC78F0050E06C0DBFF060E07C0DBFF46
:100DB000070E08C0DBFF080E09C0DBFF050EDB5085
:100DC00000D0146E090EE15C02E2E16AE552E16EC8
:100DD0001450E552E7CFD9FF1200D9CFE6FFE1CF9B
:100DE000D9FF050EE126160EF36E020EF3CFDBFFE0
:100DF000030EDB6ADF6A00016F51DF5C64E20F0EF5
:100E0000E76E020EDBCF14F0030EDBCF15F0E750D8
:100E10001426000E1522145C040E15581DE36F51A4
:100E2000E66EE66A630E146EED0E156E166A14C059
:100E3000E6FF15C0E6FF16C0E6FF420EE66E070E9F
:100E4000E66E1EEC79F0176E070EE15E175000019A
:100E5000110E706F000E4FD0010EDB6A0F0EF36E95
:100E6000010EDBCFF4FFF350F45C2BE2DF500F0DEB
:100E7000F3CF14F0F4CF15F0420E1426080E15220D
:100E8000010EDB500F011424E96E000E1520EA6EEE
:100E9000040EEFCFDBFFDBCFE6FF020EDBCF14F05B
:100EA000DB2A030EDBCF15F001E3DB2A14C0E6FFDB
:100EB00015C0E6FFBDDCE552E552E552010EDB2A26
:100EC000CDD7DF2A98D7110EF36E020EF3CFDBFFDA
:100ED000030EDB6A040E6FC0DBFFDBCFE6FF020E02
:100EE000DBCFE6FF030EDBCFE6FFA2DCE552E552E7
:100EF000E552010E00D0146E050EE15C02E2E16ADB
:100F0000E552E16E1450E552E7CFD9FF1200D9CF78
:100F1000E6FFE1CFD9FF300EF36EFE0EDBCFF4FF1C
:100F2000F350F45C07E3FE0EDB50390803E3010ED7
:100F300003D002D0000E00D0E552E7CFD9FF120057
:100F4000D9CFE6FFE1CFD9FF410EF36EFE0EDBCF26
:100F5000F4FFF350F45C07E3FE0EDB50460803E3B6
:100F6000010E03D002D0000E00D0E552E7CFD9FF2A
:100F70001200D9CFE6FFE1CFD9FFE652610EF36E42
:100F8000FE0EDBCFF4FFF350F45C09E3FE0EDB5002
:100F90007A0805E3FE0EDB50E00FDF6E03D0FE0E95
:100FA000DB50DF6EDF5000D0E552E552E7CFD9FFCE
:100FB0001200D9CFE6FFE1CFD9FF090EE126DE6AA4
:100FC000DD6A020EDB6A030EDB6A0A0EF36E040EA4
:100FD000F3CFDBFF050EDB6A060EDB6AFD0EDBCF0F
:100FE000E9FFFE0EDBCFEAFFEF50300805E1FD0E12
:100FF000DB2AFE0E01E3DB2AFD0EDBCFE9FFFE0E4E
:10100000DBCFEAFFEF5009E0FD0EDBCFE9FFFE0E7C
:10101000DBCFEAFFEF5020080BE1050EDBCF14F029
:10102000060EDBCF15F014C0F3FF15C0F4FF0CD192
:10103000FD0EDBCFE9FFFE0EDBCFEAFFEF50E66EE1
:1010400098DFE55258080AE1FD0EDB2AFE0E01E3A7
:10105000DB2A100EF36E040EF3CFDBFFFD0EDBCFA9
:10106000E9FFFE0EDBCFEAFFEF5001E1ADD0FD0E50
:10107000DBCFE9FFFE0EDBCFEAFFEF50200801E1F6
:10108000A3D0FD0EDBCFE9FFFE0EDBCFEAFFEF5072
:10109000E66E3DDFE552000913E0FD0EDBCFE9FF10
:1010A000FE0EDBCFEAFFEF50D00FE66ED950070FF0
:1010B000E96EDACFEAFFE552E750EE6EED6A48D00E
:1010C000FD0EDBCFE9FFFE0EDBCFEAFFEF50E66E51
:1010D00050DFE552E66E34DFE55200092AE0FD0EEE
:1010E000DBCFE9FFFE0EDBCFEAFFEF50E66E41DF1C
:1010F000E552BF0F0A0FE66ED950070FE96EDACF3F
:10110000EAFFE552E750EE6EED6A070EDBCF14F012
:10111000080EDBCF15F0D890155004E60A0E145CCB
:10112000000E155805E3100EF36E040EF3CFDBFF2F
:101130000FD0220E0001DF6FE06B050EDBCF14F045
:10114000060EDBCF15F014C0F3FF15C0F4FF7CD002
:10115000070EDBCF16F0080EDBCF17F0100E086E6F
:10116000096ADECF0DF0DDCF0EF075EC78F0065099
:101170001624146E07501720156E14C0DEFF15C01C
:10118000DDFF070EDBCF16F0080EDBCF17F00A0EDF
:10119000086E096A020EDBCF0DF0030EDBCF0EF0F6
:1011A00075EC78F006501624146E07501720156E53
:1011B000020E14C0DBFF030E15C0DBFFFD0EDB2AA1
:1011C000FE0E01E3DB2A4AD7040EDB500A080DE1CC
:1011D000020EDBCF08F0030EDBCF09F0050E08C0CE
:1011E000DBFF060E09C0DBFF0AD0D9CFE9FFDACF5B
:1011F000EAFF050EEECFDBFF060EEDCFDBFF050E9F
:10120000DBCF14F0060EDBCF15F0000E145C000EE1
:1012100015580FE2220E0001DF6FE06B050EDBCFE9
:1012200014F0060EDBCF15F014C0F3FF15C0F4FF69
:101230000BD0050EDBCF14F0060EDBCF15F014C07B
:10124000F3FF15C0F4FF00D0090EE15C02E2E16A91
:10125000E552E16EE552E7CFD9FF12006F0E146E32
:10126000ED0E156E166A14C0E6FF15C0E6FF16C037
:10127000E6FF420EE66E070EE66E1EEC79F0176E84
:10128000050EE15E17500001706B120000017051F5
:10129000080A01E186D2100A01E16DD20D0A01E1CE
:1012A00054D2010A01E13BD2070A01E122D2010A2C
:1012B00001E109D2030A01E1F0D1010A01E1D7D12C
:1012C0001F0A01E1BED1010A01E1A5D1030A01E132
:1012D0008CD1010A01E173D1060A01E15AD1030A56
:1012E00001E141D10E0A01E128D11C0A01E10FD12F
:1012F000010A01E1F6D0030A01E1DDD0120A01E1A1
:10130000C4D01C0A01E1ABD0010A01E192D0100A5D
:1013100001E179D0030A61E0010A49E0070A31E0FE
:10132000010A19E0030A01E052D2420E146EEE0ED9
:10133000156E166A14C0E6FF15C0E6FF16C0E6FF7C
:10134000A20EE66E060EE66E1EEC79F0176E050E26
:10135000E15E175058D2500E146EEE0E156E166ADE
:1013600014C0E6FF15C0E6FF16C0E6FFA20EE66E4B
:10137000060EE66E1EEC79F0176E050EE15E175054
:1013800042D25F0E146EEE0E156E166A14C0E6FFA2
:1013900015C0E6FF16C0E6FFA20EE66E060EE66E6C
:1013A0001EEC79F0176E050EE15E17502CD2720E0E
:1013B000146EEE0E156E166A14C0E6FF15C0E6FF39
:1013C00016C0E6FFA20EE66E060EE66E1EEC79F083
:1013D000176E050EE15E175016D27D0E146EEE0EDE
:1013E000156E166A14C0E6FF15C0E6FF16C0E6FFCC
:1013F000A20EE66E060EE66E1EEC79F0176E050E76
:10140000E15E175000D28A0E146EEE0E156E166A4B
:1014100014C0E6FF15C0E6FF16C0E6FFA20EE66E9A
:10142000060EE66E1EEC79F0176E050EE15E1750A3
:10143000EAD19A0E146EEE0E156E166A14C0E6FF0F
:1014400015C0E6FF16C0E6FFA20EE66E060EE66EBB
:101450001EEC79F0176E050EE15E1750D4D1AB0E7D
:10146000146EEE0E156E166A14C0E6FF15C0E6FF88
:1014700016C0E6FFA20EE66E060EE66E1EEC79F0D2
:10148000176E050EE15E1750BED1BB0E146EEE0E48
:10149000156E166A14C0E6FF15C0E6FF16C0E6FF1B
:1014A000A20EE66E060EE66E1EEC79F0176E050EC5
:1014B000E15E1750A8D1CA0E146EEE0E156E166AB4
:1014C00014C0E6FF15C0E6FF16C0E6FFA20EE66EEA
:1014D000060EE66E1EEC79F0176E050EE15E1750F3
:1014E00092D1E00E146EEE0E156E166A14C0E6FF71
:1014F00015C0E6FF16C0E6FFA20EE66E060EE66E0B
:101500001EEC79F0176E050EE15E17507CD1F40EDB
:10151000146EEE0E156E166A14C0E6FF15C0E6FFD7
:1015200016C0E6FFA20EE66E060EE66E1EEC79F021
:10153000176E050EE15E175066D10C0E146EEF0E9D
:10154000156E166A14C0E6FF15C0E6FF16C0E6FF6A
:10155000A20EE66E060EE66E1EEC79F0176E050E14
:10156000E15E175050D11F0E146EEF0E156E166A05
:1015700014C0E6FF15C0E6FF16C0E6FFA20EE66E39
:10158000060EE66E1EEC79F0176E050EE15E175042
:101590003AD12E0E146EEF0E156E166A14C0E6FFC9
:1015A00015C0E6FF16C0E6FFA20EE66E060EE66E5A
:1015B0001EEC79F0176E050EE15E175024D13C0E3B
:1015C000146EEF0E156E166A14C0E6FF15C0E6FF26
:1015D00016C0E6FFA20EE66E060EE66E1EEC79F071
:1015E000176E050EE15E17500ED14C0E146EEF0E05
:1015F000156E166A14C0E6FF15C0E6FF16C0E6FFBA
:10160000A20EE66E060EE66E1EEC79F0176E050E63
:10161000E15E1750F8D0600E146EEF0E156E166A6C
:1016200014C0E6FF15C0E6FF16C0E6FFA20EE66E88
:10163000060EE66E1EEC79F0176E050EE15E175091
:10164000E2D0710E146EEF0E156E166A14C0E6FF2E
:1016500015C0E6FF16C0E6FFA20EE66E060EE66EA9
:101660001EEC79F0176E050EE15E1750CCD0800E9F
:10167000146EEF0E156E166A14C0E6FF15C0E6FF75
:1016800016C0E6FFA20EE66E060EE66E1EEC79F0C0
:10169000176E050EE15E1750B6D0930E146EEF0E66
:1016A000156E166A14C0E6FF15C0E6FF16C0E6FF09
:1016B000A20EE66E060EE66E1EEC79F0176E050EB3
:1016C000E15E1750A0D0AC0E146EEF0E156E166AC8
:1016D00014C0E6FF15C0E6FF16C0E6FFA20EE66ED8
:1016E000060EE66E1EEC79F0176E050EE15E1750E1
:1016F0008AD0BA0E146EEF0E156E166A14C0E6FF8D
:1017000015C0E6FF16C0E6FFA20EE66E060EE66EF8
:101710001EEC79F0176E050EE15E175074D0CE0EF8
:10172000146EEF0E156E166A14C0E6FF15C0E6FFC4
:1017300016C0E6FFA20EE66E060EE66E1EEC79F00F
:10174000176E050EE15E17505ED0E90E146EEF0EB7
:10175000156E166A14C0E6FF15C0E6FF16C0E6FF58
:10176000A20EE66E060EE66E1EEC79F0176E050E02
:10177000E15E175048D0010E146EF00E156E166A19
:1017800014C0E6FF15C0E6FF16C0E6FFA20EE66E27
:10179000060EE66E1EEC79F0176E050EE15E175030
:1017A00032D0130E146EF00E156E166A14C0E6FFDA
:1017B00015C0E6FF16C0E6FFA20EE66E060EE66E48
:1017C0001EEC79F0176E050EE15E17501CD07051BB
:1017D000E66EE66A210EE66EF00EE66E5B0E146EA5
:1017E000ED0E156E166A14C0E6FF15C0E6FF16C0B2
:1017F000E6FFA20EE66E060EE66E1EEC79F0176EA0
:10180000090EE15E1750420EE66E070EE66EA20E5E
:10181000E66E060EE66E550E146EED0E156E166A29
:1018200014C0E6FF15C0E6FF16C0E6FFA20EE66E86
:10183000060EE66E1EEC79F0176E090EE15E17508B
:10184000A20EE66E060EE66E32EC51F0E552E5525F
:101850006F0E146EED0E156E166A14C0E6FF15C0FD
:10186000E6FF16C0E6FFA20EE66E060EE66E1EEC62
:1018700079F0176E050EE15E1750A20EE66E060EA9
:10188000E66E32EC51F0E552E5522EEF09F0D9CF79
:10189000E6FFE1CFD9FF0C0EE126DF6A010EDB6A1D
:1018A000DF6ADF50146E156A14C0E6FF15C0E6FF4C
:1018B000FD0EDBCFE6FFFE0EDBCFE6FFC0EC78F0DF
:1018C000E552E552E552E7CF15F0E552E7CF14F0C7
:1018D000F3CF16F0F4CF17F015501718E8AE02D07A
:1018E000173404D01650145C1750155801E3B5D0C6
:1018F000DF50E76EFD0EDBCFE9FFFE0EDBCFEAFF28
:10190000E750E926000EEA22EF50200808E1F90E20
:10191000DBCFE9FFFA0EDBCFEAFFEF2A9CD0DF50E6
:10192000E76EFD0EDBCFE9FFFE0EDBCFEAFFE750EF
:10193000E926000EEA22EF50E66ED950020F146E2F
:10194000DACF15F0010EDBCFF3FFDB2AF3500F01E6
:101950001424E96E000E1520EA6EE552E750EF6E92
:10196000F90EDBCFE9FFFA0EDBCFEAFFEF2AFB0E21
:10197000DBCFE6FFFC0EDBCFE6FFC0EC78F0E552F4
:10198000E552F3CF16F0F4CF17F016C0E6FF17C0FC
:10199000E6FFFB0EDBCFE6FFFC0EDBCFE6FFD95008
:1019A000020FE66E000EDA20E66ECEEC78F0186ECE
:1019B000060EE15E1850F3CF14F0F4CF15F014507A
:1019C000151002E1010E77D0010EDB50146E156A7E
:1019D00014C0E6FF15C0E6FFFB0EDBCFE6FFFC0EF2
:1019E000DBCFE6FFC0EC78F0E552E552E552E7CFF9
:1019F00015F0E552E7CF14F0F3CF18F0F4CF19F05B
:101A0000D890195004E6090E185C000E195819E216
:101A100014C0E6FF15C0E6FFFB0EDBCFE6FFFC0EB1
:101A2000DBCFE6FFC0EC78F0E552E552E552E7CFB8
:101A300015F0E552E7CF14F0F3CF16F0F4CF17F01E
:101A400003D0090E166E176A1650141802E11750CB
:101A5000151801E102D0DF2A24D7D950020F146EE5
:101A6000DACF15F0010EDB500F011424E96E000EE1
:101A70001520EA6EEF6AD950020FE66E000EDA20EA
:101A8000E66E520E146EED0E156E166A14C0E6FF69
:101A900015C0E6FF16C0E6FF420EE66E070EE66EC4
:101AA0001EEC79F0176E070EE15E17500001010E73
:101AB000706F000E00D0146E0C0EE15C02E2E16A61
:101AC000E552E16E1450E552E7CFD9FF1200D9CFAD
:101AD000E6FFE1CFD9FF050EE126DF6A010EDB6AE2
:101AE0000001DF6BE06BDF50E76EFD0EDBCFE9FF3F
:101AF000FE0EDBCFEAFFE750E926000EEA22EF50A8
:101B000020082FE1DF50146E156A14C0E6FF15C0DF
:101B1000E6FFFD0EDBCFE6FFFE0EDBCFE6FFC0ECFF
:101B200078F0E552E552E552E7CF15F0E552E7CF00
:101B300014F0F3CF16F0F4CF17F015501718E8AEE5
:101B400002D0173404D01650145C1750155809E20F
:101B5000F90EDBCFE9FFFA0EDBCFEAFFEF2ADF2A2F
:101B6000C2D7DF50E76EFD0EDBCF14F0FE0EDBCFE9
:101B700015F0E7501426000E152214C0E6FF15C01C
:101B8000E6FFD9EC07F0E552E552030EF3CFDBFF99
:101B9000040EF4CFDBFF0001220EDF1901E1E0515A
:101BA00005E0160EDF1901E1E05103E1020EDB6AE8
:101BB00005D0010EF36E020EF3CFDBFFD950030FF9
:101BC000E96EDACFEAFFFF0ED880EE54000EED5436
:101BD00028E2220EDF1901E1E05102E0000E01D0FF
:101BE000010E030EDBCFE6FF040EDBCFE6FF4F0E48
:101BF000146EED0E156E166A14C0E6FF15C0E6FFF2
:101C000016C0E6FF420EE66E070EE66E1EEC79F099
:101C1000176E070EE15E17500001040E706F000E84
:101C200067D0020EDB044AE1DF50E76EFD0EDBCF2A
:101C3000E9FFFE0EDBCFEAFFE750E926000EEA22BD
:101C4000EF5020082FE0DF50146E156A14C0E6FF35
:101C500015C0E6FFFD0EDBCFE6FFFE0EDBCFE6FF95
:101C6000C0EC78F0E552E552E552E7CF15F0E552C9
:101C7000E7CF14F0F3CF16F0F4CF17F01550171884
:101C8000E8AE02D0173404D01650145C1750155823
:101C900009E2F90EDBCFE9FFFA0EDBCFEAFFEF2A0C
:101CA000DF2AC2D7FB0EDBCFE9FFFC0EDBCFEAFF5A
:101CB000030EDBCFEFFF010E1BD01AD06F0E146E98
:101CC000ED0E156E166A14C0E6FF15C0E6FF16C0CD
:101CD000E6FF420EE66E070EE66E1EEC79F0176E1A
:101CE000050EE15E17500001020E706F000E00D06D
:101CF000146E050EE15C02E2E16AE552E16E1450F9
:101D0000E552E7CFD9FF1200D9CFE6FFE1CFD9FFE7
:101D1000020EE126010EDB6ADF6A030EF36E010E8E
:101D2000DBCFF4FFF350F45C01E303D1FB0EDBCF18
:101D3000E9FFFC0EDBCFEAFFEF50E76EFD0EDBCFD5
:101D4000E9FFFE0EDBCFEAFFE750E926000EEA22AC
:101D5000EF50200801E19ED0010EDB501DE1DF5065
:101D60001BE16F0E146EED0E156E166A14C0E6FFC1
:101D700015C0E6FF16C0E6FF420EE66E070EE66EE1
:101D80001EEC79F0176E050EE15E17500001120E81
:101D9000706F000ED0D07DD0FB0EDBCFE9FFFC0EC4
:101DA000DBCFEAFFEF50146E156A14C0E6FF15C0D2
:101DB000E6FFFD0EDBCFE6FFFE0EDBCFE6FFC0EC5D
:101DC00078F0E552E552E552E7CF15F0E552E7CF5E
:101DD00014F0F3CF16F0F4CF17F01650141802E1F8
:101DE000175015182EE1010EDB50000810E2010E0D
:101DF000DB50E76EF90EDBCFE9FFFA0EDBCFEAFF2F
:101E0000E750E926000EEA22EF6A93D042D06F0E27
:101E1000146EED0E156E166A14C0E6FF15C0E6FFCF
:101E200016C0E6FF420EE66E070EE66E1EEC79F077
:101E3000176E050EE15E175000011B0E706F000E4D
:101E40007AD0FB0EDBCFE9FFFC0EDBCFEAFFEF50D1
:101E5000EF2AE76EFD0EDBCFE9FFFE0EDBCFEAFFD8
:101E6000E750E926000EEA22EF50E66E010EDBCFC6
:101E7000F3FFDB2AF350E76EF90EDBCFE9FFFA0E32
:101E8000DBCFEAFFE750E926000EEA22E552E750F1
:101E9000EF6E1CD0010EDB500AE1010EDF6EFB0E6F
:101EA000DBCFE9FFFC0EDBCFEAFFEF2A0FD0010EFC
:101EB000DB50E76EF90EDBCFE9FFFA0EDBCFEAFF6E
:101EC000E750E926000EEA22EF6A33D0010EDB501C
:101ED00003082EE1010EDB04E76EF90EDBCFE9FF0C
:101EE000FA0EDBCFEAFFE750E926000EEA22EF6A9E
:101EF000F90EDBCFE6FFFA0EDBCFE6FF520E146ED3
:101F0000ED0E156E166A14C0E6FF15C0E6FF16C08A
:101F1000E6FF420EE66E070EE66E1EEC79F0176ED7
:101F2000070EE15E17500001130E706F000E03D014
:101F3000F4D6010E00D0146E020EE15C02E2E16AFA
:101F4000E552E16E1450E552E7CFD9FF1200D9CF28
:101F5000E6FFE1CFD9FF0E0EE126DF6A010EDB6A54
:101F6000FB0EDBCFE6FFFC0EDBCFE6FF2BEC2FF00A
:101F7000E552E5524A0E146EED0E156E166A14C047
:101F8000E6FF15C0E6FF16C0E6FFD950020FE66E69
:101F9000000EDA20E66E1EEC79F0176E050EE15E9B
:101FA0001750D9CFE6FFDACFE6FFD950020FE66E21
:101FB000000EDA20E66EDF50E76EFD0EDBCF14F088
:101FC000FE0EDBCF15F0E7501426000E152214C0CC
:101FD000E6FF15C0E6FF5BDC166E060EE15E1650EE
:101FE000000921E0020EE76EFB0EDBCFE9FFFC0EDD
:101FF000DBCFEAFFE750E926000EEA22040EEF6E7F
:10200000010EE76EFB0EDBCFE9FFFC0EDBCFEAFF34
:10201000E750E926000EEA2260C0EFFF2EEC09F03F
:10202000010EABEF2DF0430E146EED0E156E166A19
:1020300014C0E6FF15C0E6FF16C0E6FFD950020F38
:10204000E66E000EDA20E66E1EEC79F0176E050ED5
:10205000E15E1750DF6AD9CFE6FFDACFE6FFD9504D
:10206000020FE66E000EDA20E66EDF50E76EFD0E20
:10207000DBCF14F0FE0EDBCF15F0E7501426000E78
:10208000152214C0E6FF15C0E6FF47EC0CF0166EF3
:10209000060EE15E1650000921E0020EE76EFB0E0F
:1020A000DBCFE9FFFC0EDBCFEAFFE750E926000EAD
:1020B000EA22050EEF6E010EE76EFB0EDBCFE9FFA5
:1020C000FC0EDBCFEAFFE750E926000EEA2260C0F3
:1020D000EFFF2EEC09F0010EABEF2DF03E0E146E6B
:1020E000ED0E156E166A14C0E6FF15C0E6FF16C0A9
:1020F000E6FFD950020FE66E000EDA20E66E1EEC07
:1021000079F0176E050EE15E1750DF6AD9CFE6FF52
:10211000DACFE6FFD950020FE66E000EDA20E66E47
:10212000DF50E76EFD0EDBCF14F0FE0EDBCF15F0B7
:10213000E7501426000E152214C0E6FF15C0E6FF76
:1021400047EC0CF0166E060EE15E1650000921E019
:10215000020EE76EFB0EDBCFE9FFFC0EDBCFEAFFE2
:10216000E750E926000EEA22400EEF6E010EE76E00
:10217000FB0EDBCFE9FFFC0EDBCFEAFFE750E926E1
:10218000000EEA2260C0EFFF2EEC09F0010EABEF6B
:102190002DF03A0E146EED0E156E166A14C0E6FFA1
:1021A00015C0E6FF16C0E6FFD950020FE66E000E1E
:1021B000DA20E66E1EEC79F0176E050EE15E175020
:1021C000DF6AD9CFE6FFDACFE6FFD950020FE66E1D
:1021D000000EDA20E66EDF50E76EFD0EDBCF14F066
:1021E000FE0EDBCF15F0E7501426000E152214C0AA
:1021F000E6FF15C0E6FF47EC0CF0166E060EE15E3A
:102200001650000941E0020EE76EFB0EDBCFE9FF3E
:10221000FC0EDBCFEAFFE750E926000EEA22230E90
:10222000EF6ED9CFE6FFDACFE6FF010EE76EFB0EC9
:10223000DBCF14F0FC0EDBCF15F0E7501426000EB8
:10224000152214C0E6FF15C0E6FFDF50E76EFD0E55
:10225000DBCF16F0FE0EDBCF17F0E7501626000E90
:10226000172216C0E6FF17C0E6FF31DC186E060E17
:10227000E15E1850000903E1000EABEF2DF02EECEB
:1022800009F0010EABEF2DF0340E146EED0E156E4D
:10229000166A14C0E6FF15C0E6FF16C0E6FFD95067
:1022A000020FE66E000EDA20E66E1EEC79F0176E75
:1022B000050EE15E1750DF6AD9CFE6FFDACFE6FF01
:1022C000D950020FE66E000EDA20E66EDF50E76EA0
:1022D000FD0EDBCF14F0FE0EDBCF15F0E750142619
:1022E000000E152214C0E6FF15C0E6FF47EC0CF007
:1022F000166E060EE15E1650000942E0020EE76E11
:10230000FB0EDBCFE9FFFC0EDBCFEAFFE750E9264F
:10231000000EEA222D0EEF6ED9CFE6FFDACFE6FFF0
:10232000010EE76EFB0EDBCF14F0FC0EDBCF15F0D9
:10233000E7501426000E152214C0E6FF15C0E6FF74
:10234000DF50E76EFD0EDBCF16F0FE0EDBCF17F091
:10235000E7501626000E172216C0E6FF17C0E6FF4C
:1023600067EC0DF0186E060EE15E1850000903E1EF
:10237000000EABEF2DF02EEC09F0010EABEF2DF0BF
:10238000AD0E146EED0E156E166A14C0E6FF15C084
:10239000E6FF16C0E6FFD950020FE66E000EDA2007
:1023A000E66E1EEC79F0176E050EE15E1750DF6ADF
:1023B000D9CFE6FFDACFE6FFD950020FE66E000E66
:1023C000DA20E66EDF50E76EFD0EDBCF14F0FE0E76
:1023D000DBCF15F0E7501426000E152214C0E6FFDF
:1023E00015C0E6FF47EC0CF0166E060EE15E1650C7
:1023F000000942E0020EE76EFB0EDBCFE9FFFC0EA8
:10240000DBCFEAFFE750E926000EEA22240EEF6E4A
:10241000D9CFE6FFDACFE6FF010EE76EFB0EDBCF8A
:1024200014F0FC0EDBCF15F0E7501426000E152239
:1024300014C0E6FF15C0E6FFDF50E76EFD0EDBCFF0
:1024400016F0FE0EDBCF17F0E7501626000E17220F
:1024500016C0E6FF17C0E6FF67EC0DF0186E060E1B
:10246000E15E1850000903E1000EABEF2DF02EECF9
:1024700009F0010EABEF2DF0DF6A2F0E146EED0E9A
:10248000156E166A14C0E6FF15C0E6FF16C0E6FF1B
:10249000D950020FE66E000EDA20E66E1EEC79F0DF
:1024A000176E050EE15E1750D9CFE6FFDACFE6FFD3
:1024B000D950020FE66E000EDA20E66EDF50E76EAE
:1024C000FD0EDBCF14F0FE0EDBCF15F0E750142627
:1024D000000E152214C0E6FF15C0E6FF47EC0CF015
:1024E000166E060EE15E1650000902E166EF22F05C
:1024F000FB0EDBCFE9FFFC0EDBCFEAFF010EEF6E38
:10250000D9CFE6FFDACFE6FFE76EFB0EDBCF14F0A4
:10251000FC0EDBCF15F0E7501426000E152214C078
:10252000E6FF15C0E6FFDF50E76EFD0EDBCF16F0CD
:10253000FE0EDBCF17F0E7501626000E172216C04E
:10254000E6FF17C0E6FF67EC0DF0186E060EE15EC1
:102550001850000903E1000EABEF2DF0010EDFCFA4
:10256000DBFF2B0E146EED0E156E166A14C0E6FF1F
:1025700015C0E6FF16C0E6FFD950020FE66E000E4A
:10258000DA20E66E1EEC79F0176E050EE15E17504C
:10259000D9CFE6FFDACFE6FFD950020FE66E000E84
:1025A000DA20E66EDF50E76EFD0EDBCF14F0FE0E94
:1025B000DBCF15F0E7501426000E152214C0E6FFFD
:1025C00015C0E6FF47EC0CF0166E060EE15E1650E5
:1025D000000921E0230EE76EFB0EDBCFE9FFFC0EC6
:1025E000DBCFEAFFE750E926000EEA22010EEF6E8C
:1025F000240EE76EFB0EDBCFE9FFFC0EDBCFEAFF1C
:10260000E750E926000EEA22030EEF6E2EEC09F0E9
:10261000010EABEF2DF0270E146EED0E156E166A3F
:1026200014C0E6FF15C0E6FF16C0E6FFD950020F42
:10263000E66E000EDA20E66E1EEC79F0176E050EDF
:10264000E15E1750010EDB50DF6ED9CFE6FFDACF27
:10265000E6FFD950020FE66E000EDA20E66EDF507C
:10266000E76EFD0EDBCF14F0FE0EDBCF15F0E7506A
:102670001426000E152214C0E6FF15C0E6FF47EC35
:102680000CF0166E060EE15E1650000921E0230ED6
:10269000E76EFB0EDBCFE9FFFC0EDBCFEAFFE75076
:1026A000E926000EEA22010EEF6E240EE76EFB0E05
:1026B000DBCFE9FFFC0EDBCFEAFFE750E926000E97
:1026C000EA22060EEF6E2EEC09F0010EABEF2DF0B4
:1026D000220E146EED0E156E166A14C0E6FF15C0BC
:1026E000E6FF16C0E6FFD950020FE66E000EDA20B4
:1026F000E66E1EEC79F0176E050EE15E1750010EC6
:10270000DB50DF6ED9CFE6FFDACFE6FFD950020FFC
:10271000E66E000EDA20E66EDF50E76EFD0EDBCFD0
:1027200014F0FE0EDBCF15F0E7501426000E152234
:1027300014C0E6FF15C0E6FF47EC0CF0166E060E5F
:10274000E15E1650000901E1E0D0250EE76EFB0EB8
:10275000DBCFE9FFFC0EDBCFEAFFE750E926000EF6
:10276000EA22010EEF6ED9CFE6FFDACFE6FF260EA2
:10277000E76EFB0EDBCF14F0FC0EDBCF15F0E7505D
:102780001426000E152214C0E6FF15C0E6FFDF5028
:10279000E76EFD0EDBCF16F0FE0EDBCF17F0E75035
:1027A0001626000E172216C0E6FF17C0E6FF67ECDC
:1027B0000DF0186E060EE15E1850000903E1000EE0
:1027C000ABEF2DF0010EDFCFDBFF1F0E146EED0E11
:1027D000156E166A14C0E6FF15C0E6FF16C0E6FFC8
:1027E000D950020FE66E000EDA20E66E1EEC79F08C
:1027F000176E050EE15E1750D9CFE6FFDACFE6FF80
:10280000D950020FE66E000EDA20E66EDF50E76E5A
:10281000FD0EDBCF14F0FE0EDBCF15F0E7501426D3
:10282000000E152214C0E6FF15C0E6FF47EC0CF0C1
:10283000166E060EE15E1650000914E0270EE76ED4
:10284000FB0EDBCFE9FFFC0EDBCFEAFFE750E9260A
:10285000000EEA220B0EEF6E2EEC09F0010EABEF2C
:102860002DF053D0010EDB50DF6E1B0E146EED0EFB
:10287000156E166A14C0E6FF15C0E6FF16C0E6FF27
:10288000D950020FE66E000EDA20E66E1EEC79F0EB
:10289000176E050EE15E1750D9CFE6FFDACFE6FFDF
:1028A000D950020FE66E000EDA20E66EDF50E76EBA
:1028B000FD0EDBCF14F0FE0EDBCF15F0E750142633
:1028C000000E152214C0E6FF15C0E6FF47EC0CF021
:1028D000166E060EE15E1650000914E0270EE76E34
:1028E000FB0EDBCFE9FFFC0EDBCFEAFFE750E9266A
:1028F000000EEA220E0EEF6E2EEC09F0010EABEF89
:102900002DF003D0000EABEF2DF0010EDB50DF6E8B
:10291000170E146EED0E156E166A14C0E6FF15C084
:10292000E6FF16C0E6FFD950020FE66E000EDA2071
:10293000E66E1EEC79F0176E050EE15E1750D9CFEA
:10294000E6FFDACFE6FFD950020FE66E000EDA207E
:10295000E66EDF50E76EFD0EDBCF14F0FE0EDBCF30
:1029600015F0E7501426000E152214C0E6FF15C01E
:10297000E6FF47EC0CF0166E060EE15E16500009FD
:1029800002E1E8EF21F02B0EE76EFB0EDBCFE9FF53
:10299000FC0EDBCFEAFFE750E926000EEA22010E2B
:1029A000EF6E520EE76EFB0EDBCF14F0FC0EDBCFAA
:1029B00015F0E7501426000E152214C0E6FF15C0CE
:1029C000E6FFD9CFE6FFDACFE6FFFD0EDBCFE6FF6D
:1029D000FE0EDBCFE6FF84EC0EF0166E060EE15E17
:1029E0001650000903E1000EABEF2DF0010EDFCF12
:1029F000DBFF110E146EED0E156E166A14C0E6FFA5
:102A000015C0E6FF16C0E6FFD950020FE66E000EB5
:102A1000DA20E66E1EEC79F0176E050EE15E1750B7
:102A2000D9CFE6FFDACFE6FFD950020FE66E000EEF
:102A3000DA20E66EDF50E76EFD0EDBCF14F0FE0EFF
:102A4000DBCF15F0E7501426000E152214C0E6FF68
:102A500015C0E6FF47EC0CF0166E060EE15E165050
:102A600000090FE0510EE76EFB0EDBCFE9FFFC0E15
:102A7000DBCFEAFFE750E926000EEA22280EEF6ED0
:102A80004ED0010EDB50DF6E0A0E146EED0E156E89
:102A9000166A14C0E6FF15C0E6FF16C0E6FFD9505F
:102AA000020FE66E000EDA20E66E1EEC79F0176E6D
:102AB000050EE15E1750D9CFE6FFDACFE6FFD95019
:102AC000020FE66E000EDA20E66EDF50E76EFD0EB6
:102AD000DBCF14F0FE0EDBCF15F0E7501426000E0E
:102AE000152214C0E6FF15C0E6FF47EC0CF0166E89
:102AF000060EE15E165000090FE0510EE76EFB0E68
:102B0000DBCFE9FFFC0EDBCFEAFFE750E926000E42
:102B1000EA22290EEF6E03D0000EABEF2DF0500E1F
:102B2000E76EFB0EDBCFE9FFFC0EDBCFEAFFE750E1
:102B3000E926000EEA22280EEF6E040E146EED0E4A
:102B4000156E166A14C0E6FF15C0E6FF16C0E6FF54
:102B5000D950020FE66E000EDA20E66E1EEC79F018
:102B6000176E050EE15E1750D9CFE6FFDACFE6FF0C
:102B7000D950020FE66E000EDA20E66EDF50E76EE7
:102B8000FD0EDBCF14F0FE0EDBCF15F0E750142660
:102B9000000E152214C0E6FF15C0E6FF47EC0CF04E
:102BA000166E060EE15E1650000902E1E5EF21F017
:102BB000D9CFE6FFDACFE6FFD9500C0FE66E000E54
:102BC000DA20E66EDF50E76EFD0EDBCF14F0FE0E6E
:102BD000DBCF15F0E7501426000E152214C0E6FFD7
:102BE00015C0E6FF67EC0DF0166E060EE15E16509E
:102BF000000903E1000EABEF2DF0010EDFCFDBFF8C
:102C0000220E146EED0E156E166A14C0E6FF15C086
:102C1000E6FF16C0E6FFD950020FE66E000EDA207E
:102C2000E66E1EEC79F0176E050EE15E1750D9CFF7
:102C3000E6FFDACFE6FFD950020FE66E000EDA208B
:102C4000E66EDF50E76EFD0EDBCF14F0FE0EDBCF3D
:102C500015F0E7501426000E152214C0E6FF15C02B
:102C6000E6FF47EC0CF0166E060EE15E165000090A
:102C700001E17CD02C0EE76EFB0EDBCFE9FFFC0EF2
:102C8000DBCFEAFFE750E926000EEA22010EEF6EE5
:102C90002D0EE76EFB0EDBCFE9FFFC0EDBCFEAFF6C
:102CA000E750E926000EEA220C0EDBCFEFFFD9CF6A
:102CB000E6FFDACFE6FF2E0EE76EFB0EDBCF14F059
:102CC000FC0EDBCF15F0E7501426000E152214C0C1
:102CD000E6FF15C0E6FFDF50E76EFD0EDBCF16F016
:102CE000FE0EDBCF17F0E7501626000E172216C097
:102CF000E6FF17C0E6FF67EC0DF0186E060EE15E0A
:102D00001850000903E1000EABEF2DF0D9CFE6FF1C
:102D1000DACFE6FF2F0EE76EFB0EDBCF14F0FC0ED2
:102D2000DBCF15F0E7501426000E152214C0E6FF85
:102D300015C0E6FFDF50E76EFD0EDBCF16F0FE0E8E
:102D4000DBCF17F0E7501626000E172216C0E6FF5D
:102D500017C0E6FF67EC0DF0186E060EE15E185026
:102D6000000903E1000EABEF2DF0EBD1010EDB50BB
:102D7000DF6EFE0E146EEC0E156E166A14C0E6FFC2
:102D800015C0E6FF16C0E6FFD950020FE66E000E32
:102D9000DA20E66E1EEC79F0176E050EE15E175034
:102DA000D9CFE6FFDACFE6FFD950020FE66E000E6C
:102DB000DA20E66EDF50E76EFD0EDBCF14F0FE0E7C
:102DC000DBCF15F0E7501426000E152214C0E6FFE5
:102DD00015C0E6FF47EC0CF0166E060EE15E1650CD
:102DE00000094DE0300EE76EFB0EDBCFE9FFFC0E75
:102DF000DBCFEAFFE750E926000EEA22010EEF6E74
:102E0000310EE76EFB0EDBCFE9FFFC0EDBCFEAFFF6
:102E1000E750E926000EEA220C0EDBCFEFFFD9CFF8
:102E2000E6FFDACFE6FF320EE76EFB0EDBCF14F0E3
:102E3000FC0EDBCF15F0E7501426000E152214C04F
:102E4000E6FF15C0E6FFDF50E76EFD0EDBCF16F0A4
:102E5000FE0EDBCF17F0E7501626000E172216C025
:102E6000E6FF17C0E6FF67EC0DF0186E060EE15E98
:102E70001850000903E1000EABEF2DF062D1010EF6
:102E8000DB50DF6EF80E146EEC0E156E166A14C071
:102E9000E6FF15C0E6FF16C0E6FFD950020FE66E4A
:102EA000000EDA20E66E1EEC79F0176E050EE15E7C
:102EB0001750D9CFE6FFDACFE6FFD950020FE66E02
:102EC000000EDA20E66EDF50E76EFD0EDBCF14F069
:102ED000FE0EDBCF15F0E7501426000E152214C0AD
:102EE000E6FF15C0E6FF47EC0CF0166E060EE15E3D
:102EF0001650000901E122D1330EE76EFB0EDBCF45
:102F0000E9FFFC0EDBCFEAFFE750E926000EEA22DC
:102F1000010EEF6E340EE76EFB0EDBCFE9FFFC0E09
:102F2000DBCFEAFFE750E926000EEA220C0EDBCFEA
:102F3000EFFFD9CFE6FFDACFE6FF350EE76EFB0EE7
:102F4000DBCF14F0FC0EDBCF15F0E7501426000E9B
:102F5000152214C0E6FF15C0E6FFDF50E76EFD0E38
:102F6000DBCF16F0FE0EDBCF17F0E7501626000E73
:102F7000172216C0E6FF17C0E6FF67EC0DF0186ECB
:102F8000060EE15E1850000903E1000EABEF2DF0D4
:102F9000F40E146EEC0E156E166A14C0E6FF15C022
:102FA000E6FF16C0E6FFD950020FE66E000EDA20EB
:102FB000E66E1EEC79F0176E050EE15E1750D9CF64
:102FC000E6FFDACFE6FFD950020FE66E000EDA20F8
:102FD000E66EDF50E76EFD0EDBCF14F0FE0EDBCFAA
:102FE00015F0E7501426000E152214C0E6FF15C098
:102FF000E6FF47EC0CF0166E060EE15E1650000977
:1030000003E1000EABEF2DF0010EDFCFDBFFEC0E86
:10301000146EEC0E156E166A14C0E6FF15C0E6FFBE
:1030200016C0E6FFD950020FE66E000EDA20E66EFB
:103030001EEC79F0176E050EE15E1750D9CFE6FF52
:10304000DACFE6FFD950020FE66E000EDA20E66E08
:10305000DF50E76EFD0EDBCF14F0FE0EDBCF15F078
:10306000E7501426000E152214C0E6FF15C0E6FF37
:1030700047EC0CF0166E060EE15E165000090FE0EC
:10308000360EE76EFB0EDBCFE9FFFC0EDBCFEAFF6F
:10309000E750E926000EEA220F0EEF6E4ED0010E29
:1030A000DB50DF6EE30E146EEC0E156E166A14C064
:1030B000E6FF15C0E6FF16C0E6FFD950020FE66E28
:1030C000000EDA20E66E1EEC79F0176E050EE15E5A
:1030D0001750D9CFE6FFDACFE6FFD950020FE66EE0
:1030E000000EDA20E66EDF50E76EFD0EDBCF14F047
:1030F000FE0EDBCF15F0E7501426000E152214C08B
:10310000E6FF15C0E6FF47EC0CF0166E060EE15E1A
:10311000165000090FE0360EE76EFB0EDBCFE9FF1D
:10312000FC0EDBCFEAFFE750E926000EEA22100E84
:10313000EF6E03D0000EABEF2DF003D0000EABEF1F
:103140002DF0DF0E146EEC0E156E166A14C0E6FF3D
:1031500015C0E6FF16C0E6FFD950020FE66E000E5E
:10316000DA20E66E1EEC79F0176E050EE15E175060
:10317000D9CFE6FFDACFE6FFD950020FE66E000E98
:10318000DA20E66EDF50E76EFD0EDBCF14F0FE0EA8
:10319000DBCF15F0E7501426000E152214C0E6FF11
:1031A00015C0E6FF47EC0CF0166E060EE15E1650F9
:1031B000000903E1000EABEF2DF0010EDFCFDBFFC6
:1031C000220E146EED0E156E166A14C0E6FF15C0C1
:1031D000E6FF16C0E6FFD950020FE66E000EDA20B9
:1031E000E66E1EEC79F0176E050EE15E1750D9CF32
:1031F000E6FFDACFE6FFD950020FE66E000EDA20C6
:10320000E66EDF50E76EFD0EDBCF14F0FE0EDBCF77
:1032100015F0E7501426000E152214C0E6FF15C065
:10322000E6FF47EC0CF0166E060EE15E1650000944
:1032300071E0370EE76EFB0EDBCFE9FFFC0EDBCF54
:10324000EAFFE750E926000EEA22010EEF6ED9CF21
:10325000E6FFDACFE6FF380EE76EFB0EDBCF14F0A9
:10326000FC0EDBCF15F0E7501426000E152214C01B
:10327000E6FF15C0E6FFDF50E76EFD0EDBCF16F070
:10328000FE0EDBCF17F0E7501626000E172216C0F1
:10329000E6FF17C0E6FF67EC0DF0186E060EE15E64
:1032A0001850000903E1000EABEF2DF0D9CFE6FF77
:1032B000DACFE6FF390EE76EFB0EDBCF14F0FC0E23
:1032C000DBCF15F0E7501426000E152214C0E6FFE0
:1032D00015C0E6FFDF50E76EFD0EDBCF16F0FE0EE9
:1032E000DBCF17F0E7501626000E172216C0E6FFB8
:1032F00017C0E6FF67EC0DF0186E060EE15E185081
:10330000000903E1000EABEF2DF02EEC09F0010EE9
:10331000ABEF2DF0010EDB50DF6EFE0E146EEC0EE7
:10332000156E166A14C0E6FF15C0E6FF16C0E6FF6C
:10333000D950020FE66E000EDA20E66E1EEC79F030
:10334000176E050EE15E1750D9CFE6FFDACFE6FF24
:10335000D950020FE66E000EDA20E66EDF50E76EFF
:10336000FD0EDBCF14F0FE0EDBCF15F0E750142678
:10337000000E152214C0E6FF15C0E6FF47EC0CF066
:10338000166E060EE15E1650000971E03A0EE76E09
:10339000FB0EDBCFE9FFFC0EDBCFEAFFE750E926AF
:1033A000000EEA22010EEF6ED9CFE6FFDACFE6FF7C
:1033B0003B0EE76EFB0EDBCF14F0FC0EDBCF15F0FF
:1033C000E7501426000E152214C0E6FF15C0E6FFD4
:1033D000DF50E76EFD0EDBCF16F0FE0EDBCF17F0F1
:1033E000E7501626000E172216C0E6FF17C0E6FFAC
:1033F00067EC0DF0186E060EE15E1850000903E14F
:10340000000EABEF2DF0D9CFE6FFDACFE6FF3C0E92
:10341000E76EFB0EDBCF14F0FC0EDBCF15F0E750B0
:103420001426000E152214C0E6FF15C0E6FFDF507B
:10343000E76EFD0EDBCF16F0FE0EDBCF17F0E75088
:103440001626000E172216C0E6FF17C0E6FF67EC2F
:103450000DF0186E060EE15E1850000903E1000E33
:10346000ABEF2DF02EEC09F0010EABEF2DF0010EBD
:10347000DB50DF6EDB0E146EEC0E156E166A14C098
:10348000E6FF15C0E6FF16C0E6FFD950020FE66E54
:10349000000EDA20E66E1EEC79F0176E050EE15E86
:1034A0001750D9CFE6FFDACFE6FFD950020FE66E0C
:1034B000000EDA20E66EDF50E76EFD0EDBCF14F073
:1034C000FE0EDBCF15F0E7501426000E152214C0B7
:1034D000E6FF15C0E6FF47EC0CF0166E060EE15E47
:1034E0001650000971E03D0EE76EFB0EDBCFE9FFE1
:1034F000FC0EDBCFEAFFE750E926000EEA22010EC0
:10350000EF6ED9CFE6FFDACFE6FF3E0EE76EFB0E99
:10351000DBCF14F0FC0EDBCF15F0E7501426000EC5
:10352000152214C0E6FF15C0E6FFDF50E76EFD0E62
:10353000DBCF16F0FE0EDBCF17F0E7501626000E9D
:10354000172216C0E6FF17C0E6FF67EC0DF0186EF5
:10355000060EE15E1850000903E1000EABEF2DF0FE
:10356000D9CFE6FFDACFE6FF3F0EE76EFB0EDBCFEB
:1035700014F0FC0EDBCF15F0E7501426000E1522D8
:1035800014C0E6FF15C0E6FFDF50E76EFD0EDBCF8F
:1035900016F0FE0EDBCF17F0E7501626000E1722AE
:1035A00016C0E6FF17C0E6FF67EC0DF0186E060EBA
:1035B000E15E1850000903E1000EABEF2DF02EEC98
:1035C00009F0010EABEF2DF0010EDB50DF6E110E96
:1035D000146EED0E156E166A14C0E6FF15C0E6FFF8
:1035E00016C0E6FFD950020FE66E000EDA20E66E36
:1035F0001EEC79F0176E050EE15E1750D9CFE6FF8D
:10360000DACFE6FFD950020FE66E000EDA20E66E42
:10361000DF50E76EFD0EDBCF14F0FE0EDBCF15F0B2
:10362000E7501426000E152214C0E6FF15C0E6FF71
:1036300047EC0CF0166E060EE15E1650000946E0EF
:10364000400EE76EFB0EDBCFE9FFFC0EDBCFEAFF9F
:10365000E750E926000EEA22010EEF6E410EE76EFA
:10366000FB0EDBCF14F0FC0EDBCF15F0E750142679
:10367000000E152214C0E6FF15C0E6FFD9CFE6FF05
:10368000DACFE6FFFD0EDBCFE6FFFE0EDBCFE6FF77
:1036900084EC0EF0166E060EE15E1650000903E192
:1036A000000EABEF2DF0450EE76EFB0EDBCFE9FF12
:1036B000FC0EDBCFEAFFE750E926000EEA22280ED7
:1036C000EF6E2EEC09F0010EABEF2DF0010EDB508A
:1036D000DF6E0A0E146EED0E156E166A14C0E6FF4C
:1036E00015C0E6FF16C0E6FFD950020FE66E000EC9
:1036F000DA20E66E1EEC79F0176E050EE15E1750CB
:10370000D9CFE6FFDACFE6FFD950020FE66E000E02
:10371000DA20E66EDF50E76EFD0EDBCF14F0FE0E12
:10372000DBCF15F0E7501426000E152214C0E6FF7B
:1037300015C0E6FF47EC0CF0166E060EE15E165063
:10374000000946E0400EE76EFB0EDBCFE9FFFC0E02
:10375000DBCFEAFFE750E926000EEA22010EEF6E0A
:10376000410EE76EFB0EDBCF14F0FC0EDBCF15F045
:10377000E7501426000E152214C0E6FF15C0E6FF20
:10378000D9CFE6FFDACFE6FFFD0EDBCFE6FFFE0E78
:10379000DBCFE6FF84EC0EF0166E060EE15E1650EF
:1037A000000903E1000EABEF2DF0450EE76EFB0EB6
:1037B000DBCFE9FFFC0EDBCFEAFFE750E926000E86
:1037C000EA22290EEF6E2EEC09F0010EABEF2DF080
:1037D000010EDB50DF6EF80E146EEC0E156E166ADD
:1037E00014C0E6FF15C0E6FF16C0E6FFD950020F71
:1037F000E66E000EDA20E66E1EEC79F0176E050E0E
:10380000E15E1750D9CFE6FFDACFE6FFD950020FBD
:10381000E66E000EDA20E66EDF50E76EFD0EDBCFBF
:1038200014F0FE0EDBCF15F0E7501426000E152223
:1038300014C0E6FF15C0E6FF47EC0CF0166E060E4E
:10384000E15E1650000901E1E1D2460EE76EFB0E83
:10385000DBCFE9FFFC0EDBCFEAFFE750E926000EE5
:10386000EA22010EEF6ED9CFE6FFDACFE6FF470E70
:10387000E76EFB0EDBCF14F0FC0EDBCF15F0E7504C
:103880001426000E152214C0E6FF15C0E6FFDF5017
:10389000E76EFD0EDBCF16F0FE0EDBCF17F0E75024
:1038A0001626000E172216C0E6FF17C0E6FF67ECCB
:1038B0000DF0186E060EE15E1850000903E1000ECF
:1038C000ABEF2DF0D50E146EEC0E156E166A14C00B
:1038D000E6FF15C0E6FF16C0E6FFD950020FE66E00
:1038E000000EDA20E66E1EEC79F0176E050EE15E32
:1038F0001750D9CFE6FFDACFE6FFD950020FE66EB8
:10390000000EDA20E66EDF50E76EFD0EDBCF14F01E
:10391000FE0EDBCF15F0E7501426000E152214C062
:10392000E6FF15C0E6FF47EC0CF0166E060EE15EF2
:103930001650000903E1000EABEF2DF0010EDFCFB2
:10394000DBFFCF0E146EEC0E156E166A14C0E6FF88
:1039500015C0E6FF16C0E6FFD950020FE66E000E56
:10396000DA20E66E1EEC79F0176E050EE15E175058
:10397000D9CFE6FFDACFE6FFD950020FE66E000E90
:10398000DA20E66EDF50E76EFD0EDBCF14F0FE0EA0
:10399000DBCF15F0E7501426000E152214C0E6FF09
:1039A00015C0E6FF47EC0CF0166E060EE15E1650F1
:1039B00000090EE0480EE76EFB0EDBCFE9FFFC0EC0
:1039C000DBCFEAFFE750E926000EEA22EF687DD060
:1039D000010EDB50DF6EC90E146EEC0E156E166A0A
:1039E00014C0E6FF15C0E6FF16C0E6FFD950020F6F
:1039F000E66E000EDA20E66E1EEC79F0176E050E0C
:103A0000E15E1750D9CFE6FFDACFE6FFD950020FBB
:103A1000E66E000EDA20E66EDF50E76EFD0EDBCFBD
:103A200014F0FE0EDBCF15F0E7501426000E152221
:103A300014C0E6FF15C0E6FF47EC0CF0166E060E4C
:103A4000E15E165000090FE0480EE76EFB0EDBCF7B
:103A5000E9FFFC0EDBCFEAFFE750E926000EEA2281
:103A6000EE0EEF6E32D0010EDB50DF6ED9CFE6FFE7
:103A7000DACFE6FF480EE76EFB0EDBCF14F0FC0E4C
:103A8000DBCF15F0E7501426000E152214C0E6FF18
:103A900015C0E6FFDF50E76EFD0EDBCF16F0FE0E21
:103AA000DBCF17F0E7501626000E172216C0E6FFF0
:103AB00017C0E6FF67EC0DF0186E060EE15E1850B9
:103AC000000903E1000EABEF2DF0010EDFCFDBFFAD
:103AD000C40E146EEC0E156E166A14C0E6FF15C007
:103AE000E6FF16C0E6FFD950020FE66E000EDA20A0
:103AF000E66E1EEC79F0176E050EE15E1750D9CF19
:103B0000E6FFDACFE6FFD950020FE66E000EDA20AC
:103B1000E66EDF50E76EFD0EDBCF14F0FE0EDBCF5E
:103B200015F0E7501426000E152214C0E6FF15C04C
:103B3000E6FF47EC0CF0166E060EE15E165000092B
:103B40000FE0490EE76EFB0EDBCFE9FFFC0EDBCF8B
:103B5000EAFFE750E926000EEA22130EEF6E4ED080
:103B6000010EDB50DF6EBF0E146EEC0E156E166A82
:103B700014C0E6FF15C0E6FF16C0E6FFD950020FDD
:103B8000E66E000EDA20E66E1EEC79F0176E050E7A
:103B9000E15E1750D9CFE6FFDACFE6FFD950020F2A
:103BA000E66E000EDA20E66EDF50E76EFD0EDBCF2C
:103BB00014F0FE0EDBCF15F0E7501426000E152290
:103BC00014C0E6FF15C0E6FF47EC0CF0166E060EBB
:103BD000E15E165000090FE0490EE76EFB0EDBCFE9
:103BE000E9FFFC0EDBCFEAFFE750E926000EEA22F0
:103BF000140EEF6E03D0000EABEF2DF0B70E146E67
:103C0000EC0E156E166A14C0E6FF15C0E6FF16C06E
:103C1000E6FFD950020FE66E000EDA20E66E1EECCB
:103C200079F0176E050EE15E1750D9CFE6FFDACFB7
:103C3000E6FFD950020FE66E000EDA20E66EDF5086
:103C4000E76EFD0EDBCF14F0FE0EDBCF15F0E75074
:103C50001426000E152214C0E6FF15C0E6FF47EC3F
:103C60000CF0166E060EE15E1650000903E1000E20
:103C7000ABEF2DF0010EDFCFDBFFCF0E146EEC0E9D
:103C8000156E166A14C0E6FF15C0E6FF16C0E6FF03
:103C9000D950020FE66E000EDA20E66E1EEC79F0C7
:103CA000176E050EE15E1750D9CFE6FFDACFE6FFBB
:103CB000D950020FE66E000EDA20E66EDF50E76E96
:103CC000FD0EDBCF14F0FE0EDBCF15F0E75014260F
:103CD000000E152214C0E6FF15C0E6FF47EC0CF0FD
:103CE000166E060EE15E165000090EE04A0EE76EF3
:103CF000FB0EDBCFE9FFFC0EDBCFEAFFE750E92646
:103D0000000EEA22EF687DD0010EDB50DF6EC90E97
:103D1000146EEC0E156E166A14C0E6FF15C0E6FFB1
:103D200016C0E6FFD950020FE66E000EDA20E66EEE
:103D30001EEC79F0176E050EE15E1750D9CFE6FF45
:103D4000DACFE6FFD950020FE66E000EDA20E66EFB
:103D5000DF50E76EFD0EDBCF14F0FE0EDBCF15F06B
:103D6000E7501426000E152214C0E6FF15C0E6FF2A
:103D700047EC0CF0166E060EE15E165000090FE0DF
:103D80004A0EE76EFB0EDBCFE9FFFC0EDBCFEAFF4E
:103D9000E750E926000EEA22EE0EEF6E32D0010E59
:103DA000DB50DF6ED9CFE6FFDACFE6FF4A0EE76ED3
:103DB000FB0EDBCF14F0FC0EDBCF15F0E750142622
:103DC000000E152214C0E6FF15C0E6FFDF50E76EB7
:103DD000FD0EDBCF16F0FE0EDBCF17F0E7501626F8
:103DE000000E172216C0E6FF17C0E6FF67EC0DF0C5
:103DF000186E060EE15E1850000903E1000EABEFED
:103E00002DF02EEC09F0010EABEF2DF0010EDB5082
:103E1000DF6EAF0E146EEC0E156E166A14C0E6FF60
:103E200015C0E6FF16C0E6FFD950020FE66E000E81
:103E3000DA20E66E1EEC79F0176E050EE15E175083
:103E4000D9CFE6FFDACFE6FFD950020FE66E000EBB
:103E5000DA20E66EDF50E76EFD0EDBCF14F0FE0ECB
:103E6000DBCF15F0E7501426000E152214C0E6FF34
:103E700015C0E6FF47EC0CF0166E060EE15E16501C
:103E8000000921E04B0EE76EFB0EDBCFE9FFFC0ED5
:103E9000DBCFEAFFE750E926000EEA22010EEF6EC3
:103EA0004C0EE76EFB0EDBCFE9FFFC0EDBCFEAFF2B
:103EB000E750E926000EEA222E0EEF6E2EEC09F0F6
:103EC000010EABEF2DF0010EDB50DF6EA70E146E6E
:103ED000EC0E156E166A14C0E6FF15C0E6FF16C09C
:103EE000E6FFD950020FE66E000EDA20E66E1EECF9
:103EF00079F0176E050EE15E1750D9CFE6FFDACFE5
:103F0000E6FFD950020FE66E000EDA20E66EDF50B3
:103F1000E76EFD0EDBCF14F0FE0EDBCF15F0E750A1
:103F20001426000E152214C0E6FF15C0E6FF47EC6C
:103F30000CF0166E060EE15E1650000921E04B0EE5
:103F4000E76EFB0EDBCFE9FFFC0EDBCFEAFFE750AD
:103F5000E926000EEA22010EEF6E4C0EE76EFB0E14
:103F6000DBCFE9FFFC0EDBCFEAFFE750E926000ECE
:103F7000EA222F0EEF6E2EEC09F0010EABEF2DF0C2
:103F8000010EDB50DF6E9F0E146EEC0E156E166A7E
:103F900014C0E6FF15C0E6FF16C0E6FFD950020FB9
:103FA000E66E000EDA20E66E1EEC79F0176E050E56
:103FB000E15E1750D9CFE6FFDACFE6FFD950020F06
:103FC000E66E000EDA20E66EDF50E76EFD0EDBCF08
:103FD00014F0FE0EDBCF15F0E7501426000E15226C
:103FE00014C0E6FF15C0E6FF47EC0CF0166E060E97
:103FF000E15E1650000921E04B0EE76EFB0EDBCFB1
:10400000E9FFFC0EDBCFEAFFE750E926000EEA22CB
:10401000010EEF6E4C0EE76EFB0EDBCFE9FFFC0EE0
:10402000DBCFEAFFE750E926000EEA22300EEF6E02
:104030002EEC09F0010EABEF2DF0010EDB50DF6E20
:10404000970E146EEC0E156E166A14C0E6FF15C0BE
:10405000E6FF16C0E6FFD950020FE66E000EDA202A
:10406000E66E1EEC79F0176E050EE15E1750D9CFA3
:10407000E6FFDACFE6FFD950020FE66E000EDA2037
:10408000E66EDF50E76EFD0EDBCF14F0FE0EDBCFE9
:1040900015F0E7501426000E152214C0E6FF15C0D7
:1040A000E6FF47EC0CF0166E060EE15E16500009B6
:1040B00021E04B0EE76EFB0EDBCFE9FFFC0EDBCF02
:1040C000EAFFE750E926000EEA22010EEF6E4C0EE1
:1040D000E76EFB0EDBCFE9FFFC0EDBCFEAFFE7501C
:1040E000E926000EEA22310EEF6E2EEC09F0010EE9
:1040F000ABEF2DF0010EDB50DF6E900E146EEC0E68
:10410000156E166A14C0E6FF15C0E6FF16C0E6FF7E
:10411000D950020FE66E000EDA20E66E1EEC79F042
:10412000176E050EE15E1750D9CFE6FFDACFE6FF36
:10413000D950020FE66E000EDA20E66EDF50E76E11
:10414000FD0EDBCF14F0FE0EDBCF15F0E75014268A
:10415000000E152214C0E6FF15C0E6FF47EC0CF078
:10416000166E060EE15E1650000921E04B0EE76E5A
:10417000FB0EDBCFE9FFFC0EDBCFEAFFE750E926C1
:10418000000EEA22010EEF6E4C0EE76EFB0EDBCF47
:10419000E9FFFC0EDBCFEAFFE750E926000EEA223A
:1041A0002B0EEF6E2EEC09F0010EABEF2DF0010E91
:1041B000DB50DF6E860E146EEC0E156E166A14C0A0
:1041C000E6FF15C0E6FF16C0E6FFD950020FE66E07
:1041D000000EDA20E66E1EEC79F0176E050EE15E39
:1041E0001750D9CFE6FFDACFE6FFD950020FE66EBF
:1041F000000EDA20E66EDF50E76EFD0EDBCF14F026
:10420000FE0EDBCF15F0E7501426000E152214C069
:10421000E6FF15C0E6FF47EC0CF0166E060EE15EF9
:104220001650000921E04B0EE76EFB0EDBCFE9FFD5
:10423000FC0EDBCFEAFFE750E926000EEA22010E72
:10424000EF6E4C0EE76EFB0EDBCFE9FFFC0EDBCF13
:10425000EAFFE750E926000EEA222C0EEF6E2EEC64
:1042600009F0010EABEF2DF0010EDB50DF6E2B0ECF
:10427000146EED0E156E166A14C0E6FF15C0E6FF4B
:1042800016C0E6FFD950020FE66E000EDA20E66E89
:104290001EEC79F0176E050EE15E1750D9CFE6FFE0
:1042A000DACFE6FFD950020FE66E000EDA20E66E96
:1042B000DF50E76EFD0EDBCF14F0FE0EDBCF15F006
:1042C000E7501426000E152214C0E6FF15C0E6FFC5
:1042D00047EC0CF0166E060EE15E1650000971E018
:1042E0004D0EE76EFB0EDBCFE9FFFC0EDBCFEAFFE6
:1042F000E750E926000EEA22010EEF6ED9CFE6FF65
:10430000DACFE6FF4E0EE76EFB0EDBCF14F0FC0EAD
:10431000DBCF15F0E7501426000E152214C0E6FF7F
:1043200015C0E6FFDF50E76EFD0EDBCF16F0FE0E88
:10433000DBCF17F0E7501626000E172216C0E6FF57
:1043400017C0E6FF67EC0DF0186E060EE15E185020
:10435000000903E1000EABEF2DF0D9CFE6FFDACF75
:10436000E6FF4F0EE76EFB0EDBCF14F0FC0EDBCF4B
:1043700015F0E7501426000E152214C0E6FF15C0F4
:10438000E6FFDF50E76EFD0EDBCF16F0FE0EDBCF53
:1043900017F0E7501626000E172216C0E6FF17C0CA
:1043A000E6FF67EC0DF0186E060EE15E185000098E
:1043B00003E1000EABEF2DF02EEC09F0010EABEF98
:1043C0002DF0000EABEF2DF003D0000EABEF2DF073
:1043D000010EDB50DF6E820E146EEC0E156E166A47
:1043E00014C0E6FF15C0E6FF16C0E6FFD950020F65
:1043F000E66E000EDA20E66E1EEC79F0176E050E02
:10440000E15E1750D9CFE6FFDACFE6FFD950020FB1
:10441000E66E000EDA20E66EDF50E76EFD0EDBCFB3
:1044200014F0FE0EDBCF15F0E7501426000E152217
:1044300014C0E6FF15C0E6FF47EC0CF0166E060E42
:10444000E15E1650000942E0550EE76EFB0EDBCF31
:10445000E9FFFC0EDBCFEAFFE750E926000EEA2277
:10446000010EEF6ED9CFE6FFDACFE6FF560EE76E0C
:10447000FB0EDBCF14F0FC0EDBCF15F0E75014265B
:10448000000E152214C0E6FF15C0E6FFDF50E76EF0
:10449000FD0EDBCF16F0FE0EDBCF17F0E750162631
:1044A000000E172216C0E6FF17C0E6FF67EC0DF0FE
:1044B000186E060EE15E1850000903E1000EABEF26
:1044C0002DF02EEC09F0010EABEF2DF0DF6A7E0E21
:1044D000146EEC0E156E166A14C0E6FF15C0E6FFEA
:1044E00016C0E6FFD950020FE66E000EDA20E66E27
:1044F0001EEC79F0176E050EE15E1750D9CFE6FF7E
:10450000DACFE6FFD950020FE66E000EDA20E66E33
:10451000DF50E76EFD0EDBCF14F0FE0EDBCF15F0A3
:10452000E7501426000E152214C0E6FF15C0E6FF62
:1045300047EC0CF0166E060EE15E1650000902E123
:10454000A9EF2DF0FB0EDBCFE9FFFC0EDBCFEAFF7E
:10455000020EEF6ED9CFE6FFDACFE6FF010EE76E6F
:10456000FB0EDBCF14F0FC0EDBCF15F0E75014266A
:10457000000E152214C0E6FF15C0E6FFDF50E76EFF
:10458000FD0EDBCF16F0FE0EDBCF17F0E750162640
:10459000000E172216C0E6FF17C0E6FF67EC0DF00D
:1045A000186E060EE15E1850000903E1000EABEF35
:1045B0002DF0010EDFCFDBFF220E146EED0E156E17
:1045C000166A14C0E6FF15C0E6FF16C0E6FFD95014
:1045D000020FE66E000EDA20E66E1EEC79F0176E22
:1045E000050EE15E1750D9CFE6FFDACFE6FFD950CE
:1045F000020FE66E000EDA20E66EDF50E76EFD0E6B
:10460000DBCF14F0FE0EDBCF15F0E7501426000EC2
:10461000152214C0E6FF15C0E6FF47EC0CF0166E3D
:10462000060EE15E1650000971E0030EE76EFB0E08
:10463000DBCFE9FFFC0EDBCFEAFFE750E926000EF7
:10464000EA22010EEF6ED9CFE6FFDACFE6FF040EC5
:10465000E76EFB0EDBCF14F0FC0EDBCF15F0E7505E
:104660001426000E152214C0E6FF15C0E6FFDF5029
:10467000E76EFD0EDBCF16F0FE0EDBCF17F0E75036
:104680001626000E172216C0E6FF17C0E6FF67ECDD
:104690000DF0186E060EE15E1850000903E1000EE1
:1046A000ABEF2DF0D9CFE6FFDACFE6FF050EE76ED0
:1046B000FB0EDBCF14F0FC0EDBCF15F0E750142619
:1046C000000E152214C0E6FF15C0E6FFDF50E76EAE
:1046D000FD0EDBCF16F0FE0EDBCF17F0E7501626EF
:1046E000000E172216C0E6FF17C0E6FF67EC0DF0BC
:1046F000186E060EE15E1850000903E1000EABEFE4
:104700002DF02EEC09F0010EABEF2DF0010EDB5079
:10471000DF6EFE0E146EEC0E156E166A14C0E6FF08
:1047200015C0E6FF16C0E6FFD950020FE66E000E78
:10473000DA20E66E1EEC79F0176E050EE15E17507A
:10474000D9CFE6FFDACFE6FFD950020FE66E000EB2
:10475000DA20E66EDF50E76EFD0EDBCF14F0FE0EC2
:10476000DBCF15F0E7501426000E152214C0E6FF2B
:1047700015C0E6FF47EC0CF0166E060EE15E165013
:10478000000971E0060EE76EFB0EDBCFE9FFFC0EC1
:10479000DBCFEAFFE750E926000EEA22010EEF6EBA
:1047A000D9CFE6FFDACFE6FF070EE76EFB0EDBCFD1
:1047B00014F0FC0EDBCF15F0E7501426000E152286
:1047C00014C0E6FF15C0E6FFDF50E76EFD0EDBCF3D
:1047D00016F0FE0EDBCF17F0E7501626000E17225C
:1047E00016C0E6FF17C0E6FF67EC0DF0186E060E68
:1047F000E15E1850000903E1000EABEF2DF0D9CFB8
:10480000E6FFDACFE6FF080EE76EFB0EDBCF14F013
:10481000FC0EDBCF15F0E7501426000E152214C055
:10482000E6FF15C0E6FFDF50E76EFD0EDBCF16F0AA
:10483000FE0EDBCF17F0E7501626000E172216C02B
:10484000E6FF17C0E6FF67EC0DF0186E060EE15E9E
:104850001850000903E1000EABEF2DF02EEC09F02B
:10486000010EABEF2DF0010EDB50DF6EDB0E146E90
:10487000EC0E156E166A14C0E6FF15C0E6FF16C0F2
:10488000E6FFD950020FE66E000EDA20E66E1EEC4F
:1048900079F0176E050EE15E1750D9CFE6FFDACF3B
:1048A000E6FFD950020FE66E000EDA20E66EDF500A
:1048B000E76EFD0EDBCF14F0FE0EDBCF15F0E750F8
:1048C0001426000E152214C0E6FF15C0E6FF47ECC3
:1048D0000CF0166E060EE15E1650000971E0090E2E
:1048E000E76EFB0EDBCFE9FFFC0EDBCFEAFFE75004
:1048F000E926000EEA22010EEF6ED9CFE6FFDACFED
:10490000E6FF0A0EE76EFB0EDBCF14F0FC0EDBCFEA
:1049100015F0E7501426000E152214C0E6FF15C04E
:10492000E6FFDF50E76EFD0EDBCF16F0FE0EDBCFAD
:1049300017F0E7501626000E172216C0E6FF17C024
:10494000E6FF67EC0DF0186E060EE15E18500009E8
:1049500003E1000EABEF2DF0D9CFE6FFDACFE6FF93
:104960000B0EE76EFB0EDBCF14F0FC0EDBCF15F069
:10497000E7501426000E152214C0E6FF15C0E6FF0E
:10498000DF50E76EFD0EDBCF16F0FE0EDBCF17F02B
:10499000E7501626000E172216C0E6FF17C0E6FFE6
:1049A00067EC0DF0186E060EE15E1850000903E189
:1049B000000EABEF2DF02EEC09F0010EABEF2DF059
:1049C000010EDB50DF6E110E146EED0E156E166AC1
:1049D00014C0E6FF15C0E6FF16C0E6FFD950020F6F
:1049E000E66E000EDA20E66E1EEC79F0176E050E0C
:1049F000E15E1750D9CFE6FFDACFE6FFD950020FBC
:104A0000E66E000EDA20E66EDF50E76EFD0EDBCFBD
:104A100014F0FE0EDBCF15F0E7501426000E152221
:104A200014C0E6FF15C0E6FF47EC0CF0166E060E4C
:104A3000E15E1650000946E00C0EE76EFB0EDBCF80
:104A4000E9FFFC0EDBCFEAFFE750E926000EEA2281
:104A5000010EEF6E0D0EE76EFB0EDBCF14F0FC0EB9
:104A6000DBCF15F0E7501426000E152214C0E6FF28
:104A700015C0E6FFD9CFE6FFDACFE6FFFD0EDBCFAC
:104A8000E6FFFE0EDBCFE6FF84EC0EF0166E060EA0
:104A9000E15E1650000903E1000EABEF2DF0110EA0
:104AA000E76EFB0EDBCFE9FFFC0EDBCFEAFFE75042
:104AB000E926000EEA22280EEF6E2EEC09F0010E18
:104AC000ABEF2DF0010EDB50DF6E0A0E146EED0E13
:104AD000156E166A14C0E6FF15C0E6FF16C0E6FFA5
:104AE000D950020FE66E000EDA20E66E1EEC79F069
:104AF000176E050EE15E1750D9CFE6FFDACFE6FF5D
:104B0000D950020FE66E000EDA20E66EDF50E76E37
:104B1000FD0EDBCF14F0FE0EDBCF15F0E7501426B0
:104B2000000E152214C0E6FF15C0E6FF47EC0CF09E
:104B3000166E060EE15E1650000946E00C0EE76E9A
:104B4000FB0EDBCFE9FFFC0EDBCFEAFFE750E926E7
:104B5000000EEA22010EEF6E0D0EE76EFB0EDBCFAC
:104B600014F0FC0EDBCF15F0E7501426000E1522D2
:104B700014C0E6FF15C0E6FFD9CFE6FFDACFE6FFA7
:104B8000FD0EDBCFE6FFFE0EDBCFE6FF84EC0EF082
:104B9000166E060EE15E1650000903E1000EABEF43
:104BA0002DF0110EE76EFB0EDBCFE9FFFC0EDBCF25
:104BB000EAFFE750E926000EEA22290EEF6E2EECFE
:104BC00009F0010EABEF2DF0010EDB50DF6EF80E99
:104BD000146EEC0E156E166A14C0E6FF15C0E6FFE3
:104BE00016C0E6FFD950020FE66E000EDA20E66E20
:104BF0001EEC79F0176E050EE15E1750D9CFE6FF77
:104C0000DACFE6FFD950020FE66E000EDA20E66E2C
:104C1000DF50E76EFD0EDBCF14F0FE0EDBCF15F09C
:104C2000E7501426000E152214C0E6FF15C0E6FF5B
:104C300047EC0CF0166E060EE15E1650000901E11D
:104C4000E1D2120EE76EFB0EDBCFE9FFFC0EDBCFED
:104C5000EAFFE750E926000EEA22010EEF6ED9CFF7
:104C6000E6FFDACFE6FF130EE76EFB0EDBCF14F0A4
:104C7000FC0EDBCF15F0E7501426000E152214C0F1
:104C8000E6FF15C0E6FFDF50E76EFD0EDBCF16F046
:104C9000FE0EDBCF17F0E7501626000E172216C0C7
:104CA000E6FF17C0E6FF67EC0DF0186E060EE15E3A
:104CB0001850000903E1000EABEF2DF0D50E146E75
:104CC000EC0E156E166A14C0E6FF15C0E6FF16C09E
:104CD000E6FFD950020FE66E000EDA20E66E1EECFB
:104CE00079F0176E050EE15E1750D9CFE6FFDACFE7
:104CF000E6FFD950020FE66E000EDA20E66EDF50B6
:104D0000E76EFD0EDBCF14F0FE0EDBCF15F0E750A3
:104D10001426000E152214C0E6FF15C0E6FF47EC6E
:104D20000CF0166E060EE15E1650000903E1000E4F
:104D3000ABEF2DF0010EDFCFDBFFCF0E146EEC0ECC
:104D4000156E166A14C0E6FF15C0E6FF16C0E6FF32
:104D5000D950020FE66E000EDA20E66E1EEC79F0F6
:104D6000176E050EE15E1750D9CFE6FFDACFE6FFEA
:104D7000D950020FE66E000EDA20E66EDF50E76EC5
:104D8000FD0EDBCF14F0FE0EDBCF15F0E75014263E
:104D9000000E152214C0E6FF15C0E6FF47EC0CF02C
:104DA000166E060EE15E165000090EE0140EE76E58
:104DB000FB0EDBCFE9FFFC0EDBCFEAFFE750E92675
:104DC000000EEA22EF687DD0010EDB50DF6EC90EC7
:104DD000146EEC0E156E166A14C0E6FF15C0E6FFE1
:104DE00016C0E6FFD950020FE66E000EDA20E66E1E
:104DF0001EEC79F0176E050EE15E1750D9CFE6FF75
:104E0000DACFE6FFD950020FE66E000EDA20E66E2A
:104E1000DF50E76EFD0EDBCF14F0FE0EDBCF15F09A
:104E2000E7501426000E152214C0E6FF15C0E6FF59
:104E300047EC0CF0166E060EE15E165000090FE00E
:104E4000140EE76EFB0EDBCFE9FFFC0EDBCFEAFFB3
:104E5000E750E926000EEA22EE0EEF6E32D0010E88
:104E6000DB50DF6ED9CFE6FFDACFE6FF140EE76E38
:104E7000FB0EDBCF14F0FC0EDBCF15F0E750142651
:104E8000000E152214C0E6FF15C0E6FFDF50E76EE6
:104E9000FD0EDBCF16F0FE0EDBCF17F0E750162627
:104EA000000E172216C0E6FF17C0E6FF67EC0DF0F4
:104EB000186E060EE15E1850000903E1000EABEF1C
:104EC0002DF0010EDFCFDBFFC40E146EEC0E156E5D
:104ED000166A14C0E6FF15C0E6FF16C0E6FFD950FB
:104EE000020FE66E000EDA20E66E1EEC79F0176E09
:104EF000050EE15E1750D9CFE6FFDACFE6FFD950B5
:104F0000020FE66E000EDA20E66EDF50E76EFD0E51
:104F1000DBCF14F0FE0EDBCF15F0E7501426000EA9
:104F2000152214C0E6FF15C0E6FF47EC0CF0166E24
:104F3000060EE15E165000090FE0150EE76EFB0E3F
:104F4000DBCFE9FFFC0EDBCFEAFFE750E926000EDE
:104F5000EA22130EEF6E4ED0010EDB50DF6EBF0E55
:104F6000146EEC0E156E166A14C0E6FF15C0E6FF4F
:104F700016C0E6FFD950020FE66E000EDA20E66E8C
:104F80001EEC79F0176E050EE15E1750D9CFE6FFE3
:104F9000DACFE6FFD950020FE66E000EDA20E66E99
:104FA000DF50E76EFD0EDBCF14F0FE0EDBCF15F009
:104FB000E7501426000E152214C0E6FF15C0E6FFC8
:104FC00047EC0CF0166E060EE15E165000090FE07D
:104FD000150EE76EFB0EDBCFE9FFFC0EDBCFEAFF21
:104FE000E750E926000EEA22140EEF6E03D0000E01
:104FF000ABEF2DF0B70E146EEC0E156E166A14C0E2
:10500000E6FF15C0E6FF16C0E6FFD950020FE66EB8
:10501000000EDA20E66E1EEC79F0176E050EE15EEA
:105020001750D9CFE6FFDACFE6FFD950020FE66E70
:10503000000EDA20E66EDF50E76EFD0EDBCF14F0D7
:10504000FE0EDBCF15F0E7501426000E152214C01B
:10505000E6FF15C0E6FF47EC0CF0166E060EE15EAB
:105060001650000903E1000EABEF2DF0010EDFCF6B
:10507000DBFFCF0E146EEC0E156E166A14C0E6FF41
:1050800015C0E6FF16C0E6FFD950020FE66E000E0F
:10509000DA20E66E1EEC79F0176E050EE15E175011
:1050A000D9CFE6FFDACFE6FFD950020FE66E000E49
:1050B000DA20E66EDF50E76EFD0EDBCF14F0FE0E59
:1050C000DBCF15F0E7501426000E152214C0E6FFC2
:1050D00015C0E6FF47EC0CF0166E060EE15E1650AA
:1050E00000090EE0160EE76EFB0EDBCFE9FFFC0EAB
:1050F000DBCFEAFFE750E926000EEA22EF687DD019
:10510000010EDB50DF6EC90E146EEC0E156E166AC2
:1051100014C0E6FF15C0E6FF16C0E6FFD950020F27
:10512000E66E000EDA20E66E1EEC79F0176E050EC4
:10513000E15E1750D9CFE6FFDACFE6FFD950020F74
:10514000E66E000EDA20E66EDF50E76EFD0EDBCF76
:1051500014F0FE0EDBCF15F0E7501426000E1522DA
:1051600014C0E6FF15C0E6FF47EC0CF0166E060E05
:10517000E15E165000090FE0160EE76EFB0EDBCF66
:10518000E9FFFC0EDBCFEAFFE750E926000EEA223A
:10519000EE0EEF6E32D0010EDB50DF6ED9CFE6FFA0
:1051A000DACFE6FF160EE76EFB0EDBCF14F0FC0E37
:1051B000DBCF15F0E7501426000E152214C0E6FFD1
:1051C00015C0E6FFDF50E76EFD0EDBCF16F0FE0EDA
:1051D000DBCF17F0E7501626000E172216C0E6FFA9
:1051E00017C0E6FF67EC0DF0186E060EE15E185072
:1051F000000903E1000EABEF2DF02EEC09F0010EDB
:10520000ABEF2DF0010EDB50DF6EAF0E146EEC0E27
:10521000156E166A14C0E6FF15C0E6FF16C0E6FF5D
:10522000D950020FE66E000EDA20E66E1EEC79F021
:10523000176E050EE15E1750D9CFE6FFDACFE6FF15
:10524000D950020FE66E000EDA20E66EDF50E76EF0
:10525000FD0EDBCF14F0FE0EDBCF15F0E750142669
:10526000000E152214C0E6FF15C0E6FF47EC0CF057
:10527000166E060EE15E1650000921E0170EE76E6D
:10528000FB0EDBCFE9FFFC0EDBCFEAFFE750E926A0
:10529000000EEA22010EEF6E180EE76EFB0EDBCF5A
:1052A000E9FFFC0EDBCFEAFFE750E926000EEA2219
:1052B0002E0EEF6E2EEC09F0010EABEF2DF0010E6D
:1052C000DB50DF6EAF0E146EEC0E156E166A14C056
:1052D000E6FF15C0E6FF16C0E6FFD950020FE66EE6
:1052E000000EDA20E66E1EEC79F0176E050EE15E18
:1052F0001750D9CFE6FFDACFE6FFD950020FE66E9E
:10530000000EDA20E66EDF50E76EFD0EDBCF14F004
:10531000FE0EDBCF15F0E7501426000E152214C048
:10532000E6FF15C0E6FF47EC0CF0166E060EE15ED8
:105330001650000920E0170EE76EFB0EDBCFE9FFE9
:10534000FC0EDBCFEAFFE750E926000EEA22010E51
:10535000EF6E180EE76EFB0EDBCFE9FFFC0EDBCF26
:10536000EAFFE750E926000EEA222F0EEF6E2EEC40
:1053700009F0010EF0D3010EDB50DF6E9F0E146EAC
:10538000EC0E156E166A14C0E6FF15C0E6FF16C0D7
:10539000E6FFD950020FE66E000EDA20E66E1EEC34
:1053A00079F0176E050EE15E1750D9CFE6FFDACF20
:1053B000E6FFD950020FE66E000EDA20E66EDF50EF
:1053C000E76EFD0EDBCF14F0FE0EDBCF15F0E750DD
:1053D0001426000E152214C0E6FF15C0E6FF47ECA8
:1053E0000CF0166E060EE15E1650000920E0170E56
:1053F000E76EFB0EDBCFE9FFFC0EDBCFEAFFE750E9
:10540000E926000EEA22010EEF6E180EE76EFB0E83
:10541000DBCFE9FFFC0EDBCFEAFFE750E926000E09
:10542000EA22300EEF6E2EEC09F0010E94D3010E3D
:10543000DB50DF6E970E146EEC0E156E166A14C0FC
:10544000E6FF15C0E6FF16C0E6FFD950020FE66E74
:10545000000EDA20E66E1EEC79F0176E050EE15EA6
:105460001750D9CFE6FFDACFE6FFD950020FE66E2C
:10547000000EDA20E66EDF50E76EFD0EDBCF14F093
:10548000FE0EDBCF15F0E7501426000E152214C0D7
:10549000E6FF15C0E6FF47EC0CF0166E060EE15E67
:1054A0001650000920E0170EE76EFB0EDBCFE9FF78
:1054B000FC0EDBCFEAFFE750E926000EEA22010EE0
:1054C000EF6E180EE76EFB0EDBCFE9FFFC0EDBCFB5
:1054D000EAFFE750E926000EEA22310EEF6E2EECCD
:1054E00009F0010E38D3010EDB50DF6E900E146E02
:1054F000EC0E156E166A14C0E6FF15C0E6FF16C066
:10550000E6FFD950020FE66E000EDA20E66E1EECC2
:1055100079F0176E050EE15E1750D9CFE6FFDACFAE
:10552000E6FFD950020FE66E000EDA20E66EDF507D
:10553000E76EFD0EDBCF14F0FE0EDBCF15F0E7506B
:105540001426000E152214C0E6FF15C0E6FF47EC36
:105550000CF0166E060EE15E1650000920E0170EE4
:10556000E76EFB0EDBCFE9FFFC0EDBCFEAFFE75077
:10557000E926000EEA22010EEF6E180EE76EFB0E12
:10558000DBCFE9FFFC0EDBCFEAFFE750E926000E98
:10559000EA222B0EEF6E2EEC09F0010EDCD2010E8A
:1055A000DB50DF6E860E146EEC0E156E166A14C09C
:1055B000E6FF15C0E6FF16C0E6FFD950020FE66E03
:1055C000000EDA20E66E1EEC79F0176E050EE15E35
:1055D0001750D9CFE6FFDACFE6FFD950020FE66EBB
:1055E000000EDA20E66EDF50E76EFD0EDBCF14F022
:1055F000FE0EDBCF15F0E7501426000E152214C066
:10560000E6FF15C0E6FF47EC0CF0166E060EE15EF5
:105610001650000920E0170EE76EFB0EDBCFE9FF06
:10562000FC0EDBCFEAFFE750E926000EEA22010E6E
:10563000EF6E180EE76EFB0EDBCFE9FFFC0EDBCF43
:10564000EAFFE750E926000EEA222C0EEF6E2EEC60
:1056500009F0010E80D2010EDB50DF6E2B0E146EAE
:10566000ED0E156E166A14C0E6FF15C0E6FF16C0F3
:10567000E6FFD950020FE66E000EDA20E66E1EEC51
:1056800079F0176E050EE15E1750D9CFE6FFDACF3D
:10569000E6FFD950020FE66E000EDA20E66EDF500C
:1056A000E76EFD0EDBCF14F0FE0EDBCF15F0E750FA
:1056B0001426000E152214C0E6FF15C0E6FF47ECC5
:1056C0000CF0166E060EE15E165000096EE0190E23
:1056D000E76EFB0EDBCFE9FFFC0EDBCFEAFFE75006
:1056E000E926000EEA22010EEF6ED9CFE6FFDACFEF
:1056F000E6FF1A0EE76EFB0EDBCF14F0FC0EDBCFDD
:1057000015F0E7501426000E152214C0E6FF15C050
:10571000E6FFDF50E76EFD0EDBCF16F0FE0EDBCFAF
:1057200017F0E7501626000E172216C0E6FF17C026
:10573000E6FF67EC0DF0186E060EE15E18500009EA
:1057400002E1000E08D2D9CFE6FFDACFE6FF1B0E4A
:10575000E76EFB0EDBCF14F0FC0EDBCF15F0E7504D
:105760001426000E152214C0E6FF15C0E6FFDF5018
:10577000E76EFD0EDBCF16F0FE0EDBCF17F0E75025
:105780001626000E172216C0E6FF17C0E6FF67ECCC
:105790000DF0186E060EE15E1850000902E1000ED1
:1057A000DAD12EEC09F0010ED6D1010EDB50DF6EFE
:1057B000780E146EEC0E156E166A14C0E6FF15C056
:1057C000E6FF16C0E6FFD950020FE66E000EDA20A3
:1057D000E66E1EEC79F0176E050EE15E1750D9CF1C
:1057E000E6FFDACFE6FFD950020FE66E000EDA20B0
:1057F000E66EDF50E76EFD0EDBCF14F0FE0EDBCF62
:1058000015F0E7501426000E152214C0E6FF15C04F
:10581000E6FF47EC0CF0166E060EE15E165000092E
:1058200012E01C0EE76EFB0EDBCFE9FFFC0EDBCFB8
:10583000EAFFE750E926000EEA22010EEF6E2EEC99
:1058400009F0010E88D1010EDB50DF6E720E146E6E
:10585000EC0E156E166A14C0E6FF15C0E6FF16C002
:10586000E6FFD950020FE66E000EDA20E66E1EEC5F
:1058700079F0176E050EE15E1750D9CFE6FFDACF4B
:10588000E6FFD950020FE66E000EDA20E66EDF501A
:10589000E76EFD0EDBCF14F0FE0EDBCF15F0E75008
:1058A0001426000E152214C0E6FF15C0E6FF47ECD3
:1058B0000CF0166E060EE15E1650000912E01D0E89
:1058C000E76EFB0EDBCFE9FFFC0EDBCFEAFFE75014
:1058D000E926000EEA22010EEF6E2EEC09F0010E11
:1058E0003AD1010EDB50DF6E6C0E146EEC0E156EAD
:1058F000166A14C0E6FF15C0E6FF16C0E6FFD950D1
:10590000020FE66E000EDA20E66E1EEC79F0176EDE
:10591000050EE15E1750D9CFE6FFDACFE6FFD9508A
:10592000020FE66E000EDA20E66EDF50E76EFD0E27
:10593000DBCF14F0FE0EDBCF15F0E7501426000E7F
:10594000152214C0E6FF15C0E6FF47EC0CF0166EFA
:10595000060EE15E1650000912E01E0EE76EFB0E09
:10596000DBCFE9FFFC0EDBCFEAFFE750E926000EB4
:10597000EA22010EEF6E2EEC09F0010EECD0010EC2
:10598000DB50DF6E660E146EEC0E156E166A14C0D8
:10599000E6FF15C0E6FF16C0E6FFD950020FE66E1F
:1059A000000EDA20E66E1EEC79F0176E050EE15E51
:1059B0001750D9CFE6FFDACFE6FFD950020FE66ED7
:1059C000000EDA20E66EDF50E76EFD0EDBCF14F03E
:1059D000FE0EDBCF15F0E7501426000E152214C082
:1059E000E6FF15C0E6FF47EC0CF0166E060EE15E12
:1059F0001650000912E01F0EE76EFB0EDBCFE9FF29
:105A0000FC0EDBCFEAFFE750E926000EEA22010E8A
:105A1000EF6E2EEC09F0010E9ED0010EDB50DF6E12
:105A20005E0E146EEC0E156E166A14C0E6FF15C0FD
:105A3000E6FF16C0E6FFD950020FE66E000EDA2030
:105A4000E66E1EEC79F0176E050EE15E1750D9CFA9
:105A5000E6FFDACFE6FFD950020FE66E000EDA203D
:105A6000E66EDF50E76EFD0EDBCF14F0FE0EDBCFEF
:105A700015F0E7501426000E152214C0E6FF15C0DD
:105A8000E6FF47EC0CF0166E060EE15E16500009BC
:105A900012E0200EE76EFB0EDBCFE9FFFC0EDBCF42
:105AA000EAFFE750E926000EEA22010EEF6E2EEC27
:105AB00009F0010E50D0010EDB50DF6E590E146E4E
:105AC000EC0E156E166A14C0E6FF15C0E6FF16C090
