:020000040000FA
:06000000BCEF6AF01200E3
:020006001200E6
:06000800B5EF4AF0120002
:02000E00FEFFF3
:060018002DEF55F012006F
:02001E000200DE
:10002000C1D50000AA0000002E0000000E00000054
:08003000E400000002000000E2
:08003800D9CFE6FFE1CFD9FFAB
:10004000040EE126D950FB0F146EFF0EDA20156E58
:10005000020E14C0DBFF030E15C0DBFF020EDBCF68
:10006000E6FF030EDBCFE6FFFB0EDBCF14F0FC0E4A
:10007000DBCF15F0166A14C0E6FF15C0E6FF16C008
:10008000E6FFFD0EDBCFE6FFFE0EDBCFE6FFA2ECC8
:1000900069F0176E070EE15E1750F3CFDEFFF4CF65
:1000A000DDFFDECF14F0DDCF15F014C0F3FF15C077
:1000B000F4FF040EE15C02E2E16AE552E16EE55212
:1000C000E7CFD9FF1200D9CFE6FFE1CFD9FFFD0E70
:1000D000DBCF14F0FE0EDBCF15F0153407E2145021
:1000E000FF08030E155402E2000E23D0FF0EE76E48
:1000F000FD0EDBCF14F0FE0EDBCF15F0E75014162B
:10010000156A1450A96EFD0EFE0EDBCF15F015C05A
:1001100014F0156A030E1414AA6EA69EA69CA6805F
:10012000FB0EDBCFE9FFFC0EDBCFEAFFA8CFEFFF32
:10013000010EE552E7CFD9FF1200D9CFE6FFE1CF9C
:10014000D9FF030EE126D190090EDE6EDD6A0001B3
:10015000010E696F8569866989698A698E6F696B25
:10016000050EF36E020EF3CFDBFFDBCF14F0000EB3
:10017000E76E1418E8AE02D0143403D0E750D880EC
:10018000145429E2020EDBCF14F0156A14BE156870
:1001900014C0E6FF15C0E6FF1C0EE66ECE0EE66E3E
:1001A000C20EE66E060EE66E47DF166E060EE15EC6
:1001B0001650C20EE66E060EE66E7EEC48F0E55274
:1001C000E552020EE66EE66A0BEC57F0E552E55298
:1001D000020EDB06CAD70001010E696F876B886BC0
:1001E0008B6B8C6B696B050EF36E020EF3CFDBFF2E
:1001F000DBCF14F0000EE76E1418E8AE02D0143412
:1002000003D0E750D880145429E2020EDBCF14F05B
:10021000156A14BE156814C0E6FF15C0E6FF140E7B
:10022000E66ECE0EE66EC20EE66E060EE66E04DFDB
:10023000166E060EE15E1650C20EE66E060EE66EF5
:100240007EEC48F0E552E552020EE66EE66A0BECF3
:1002500057F0E552E552020EDB06CAD7B30EE66E42
:10026000CE0EE66E110EE66ECE0EE66EC20EE66E97
:10027000060EE66EE1DE146E060EE15E1450C20E4E
:10028000E66E060EE66E7EEC48F0E552E552020E92
:10029000E66EE66A0BEC57F0E552E5520001010EFE
:1002A000696F8E6B696B86C014F0156A1450E66E28
:1002B000DFCF16F0DF2A010EDBCF17F001E3DB2AD8
:1002C00016C0E6FF17C0E6FF24DBE552E552E55213
:1002D00000018551E66EDFCF14F0DF2A010EDBCF7F
:1002E00015F001E3DB2A14C0E6FF15C0E6FF11DBC1
:1002F000E552E552E55288C014F0156A1450E66ED6
:10030000DFCF16F0DF2A010EDBCF17F001E3DB2A87
:1003100016C0E6FF17C0E6FFFCDAE552E552E552EB
:1003200000018751E66EDFCF14F0DF2A010EDBCF2C
:1003300015F001E3DB2A14C0E6FF15C0E6FFE9DA99
:10034000E552E552E5528AC014F0156A1450E66E83
:10035000DFCF16F0DF2A010EDBCF17F001E3DB2A37
:1003600016C0E6FF17C0E6FFD4DAE552E552E552C3
:1003700000018951E66EDFCF14F0DF2A010EDBCFDA
:1003800015F001E3DB2A14C0E6FF15C0E6FFC1DA71
:10039000E552E552E5528CC014F0156A1450E66E31
:1003A000DFCF16F0DF2A010EDBCF17F001E3DB2AE7
:1003B00016C0E6FF17C0E6FFACDAE552E552E5529B
:1003C00000018B51E66EDECFE6FFDDCFE6FFA1DA5E
:1003D000E552E552E552D180030EE15C02E2E16AAA
:1003E000E552E16EE552E7CFD9FF1200D9CFE6FF23
:1003F000E1CFD9FF040EE126010EDB6A020EDB6AB3
:10040000030EDB6ADBCF14F0080EE76E1418E8AEBB
:1004100002D0E73402D0E750145C17E2030EDBCFC2
:10042000E6FF010EDBCF14F0DB2A020EDBCF15F066
:1004300001E3DB2A14C0E6FF15C0E6FF6ADAE552E5
:10044000E552E552030EDB2ADDD7080EF36E010EEE
:10045000F3CFDBFF020EDB6A060EDF6EDFCFE6FFB7
:10046000010EDBCFE6FF020EDBCFE6FF52DAE552EC
:10047000E552E552110EF36E010EF3CFDBFF020ED3
:10048000DB6ADF6ADFCFE6FF010EDBCFE6FF020E9D
:10049000DBCFE6FF3EDAE552E552E5520001010E00
:1004A000696F060E686F6F6B696B120EF36E010E4B
:1004B000F3CFDBFF020EDB6A010EDBCF14F0020E7E
:1004C000DBCF15F0153404E214501508000E155456
:1004D00011E3010EE66EDBCFE6FF020EDBCFE6FF97
:1004E00018DAE552E552E552010EDB2A020EE4E38A
:1004F000DB2AE2D7040EE15C02E2E16AE552E16E3A
:10050000E552E7CFD9FF1200D9CFE6FFE1CFD9FFFF
:10051000070EE126020EDB6A030EDB6A060EDB6ABB
:10052000DBCF14F0080EE76E1418E8AE02D0E73403
:1005300002D0E750145C1FE2D9CFE6FFDACFE6FF26
:10054000020EDBCF14F0DB2A030EDBCF15F001E344
:10055000DB2A14C0E6FF15C0E6FFB5DDE552E55223
:10056000E552E552060EDB50DF5C02E03FDFBED114
:10057000060EDB2AD5D7080EF36E020EF3CFDBFF93
:10058000030EDB6AD9CFE6FFDACFE6FF020EDBCF40
:10059000E6FF030EDBCFE6FF96DDE552E552E552BE
:1005A000E5520001010E696FDFCF68F0696B120E32
:1005B000F36E020EF3CFDBFF030EDB6AD9CFE6FF4B
:1005C000DACFE6FF020EDBCF14F0DB2A030EDBCF1F
:1005D00015F001E3DB2A14C0E6FF15C0E6FF73DD6A
:1005E000E552E552E552E552DF50E8B09582E8A0C9
:1005F0009592D9CFE6FFDACFE6FF020EDBCF14F0FB
:10060000DB2A030EDBCF15F001E3DB2A14C0E6FF83
:1006100015C0E6FF58DDE552E552E552E552DF50E0
:10062000E8B09584E8A09594D9CFE6FFDACFE6FF4D
:10063000020EDBCF14F0DB2A030EDBCF15F001E353
:10064000DB2A14C0E6FF15C0E6FF3DDDE552E552AA
:10065000E552E552DF50E8B09586E8A09596D9CFEF
:10066000E6FFDACFE6FF020EDBCFE6FF030EDBCFBD
:10067000E6FF29DDE552E552E552E552DF50E8B0EC
:100680009488E8A09498090EF36E020EF3CFDBFF76
:10069000030EDB6AD9CFE6FFDACFE6FF020EDBCF2F
:1006A00014F0DB2A030EDBCF15F001E3DB2A14C0C4
:1006B000E6FF15C0E6FF07DDE552E552E552E552DB
:1006C0000001010E696FDFCF85F0866B85BF8669FB
:1006D000696BD9CFE6FFDACFE6FF020EDBCF14F06D
:1006E000DB2A030EDBCF15F001E3DB2A14C0E6FFA3
:1006F00015C0E6FFE8DCE552E552E552E55200019F
:10070000010E696FDFCF14F0156A14BE156885C03D
:1007100017F0166A14501624856F15501720866F2F
:10072000696BD9CFE6FFDACFE6FF020EDBCF14F01C
:10073000DB2A030EDBCF15F001E3DB2A14C0E6FF52
:1007400015C0E6FFC0DCE552E552E552E552000176
:10075000010E696FDFCF87F0886B87BF8869696B8F
:10076000D9CFE6FFDACFE6FF020EDBCF14F0DB2AAB
:10077000030EDBCF15F001E3DB2A14C0E6FF15C042
:10078000E6FFA1DCE552E552E552E5520001010E1B
:10079000696FDFCF14F0156A14BE156887C017F0B3
:1007A000166A14501624876F15501720886F696BCE
:1007B000D9CFE6FFDACFE6FF020EDBCF14F0DB2A5B
:1007C000030EDBCF15F001E3DB2A14C0E6FF15C0F2
:1007D000E6FF79DCE552E552E552E5520001010EF3
:1007E000696FDFCF89F08A6B89BF8A69696BD9CF5E
:1007F000E6FFDACFE6FF020EDBCF14F0DB2A030EB2
:10080000DBCF15F001E3DB2A14C0E6FF15C0E6FFDD
:100810005ADCE552E552E552E5520001010E696FDE
:10082000DFCF14F0156A14BE156889C017F0166A78
:1008300014501624896F155017208A6F696BD9CF11
:10084000E6FFDACFE6FF020EDBCF14F0DB2A030E61
:10085000DBCF15F001E3DB2A14C0E6FF15C0E6FF8D
:1008600032DCE552E552E552E5520001010E696FB6
:10087000DFCF8BF08C6B8BBF8C69696BD9CFE6FFB8
:10088000DACFE6FF020EDBCFE6FF030EDBCFE6FF9B
:100890001ADCE552E552E552E5520001010E696F9E
:1008A000DFCF14F0156A14BE15688BC017F0166AF6
:1008B000145016248B6F155017208C6F696B010E26
:1008C000696F8551875D8F6F86518859906F696B0D
:1008D000010E696F89518B5D916F8A518C59926FAE
:1008E000696BD0D9E76E010EE7CFDBFF070EE15C45
:1008F00002E2E16AE552E16EE552E7CFD9FF12006C
:10090000A1A803D0A198A694010C000CA6A2010CEA
:10091000000CD9CFE6FFE1CFD9FFE652FD0EDBCFC9
:1009200014F0FE0EDBCF15F0153407E21450FF086B
:10093000030E155402E2000E42D0E8DF0009FDE08C
:10094000D9CFE6FFDACFE6FFFD0EDBCFE6FFFE0EE6
:10095000DBCFE6FF63EC00F0E552E552E552E552ED
:10096000FC0EDB50DF5C2AE0FF0EE76EFD0EDBCFF6
:1009700014F0FE0EDBCF15F0E7501416156A145074
:10098000A96EFD0EFE0EDBCF15F015C014F0156A32
:10099000030E1414AA6EFC0EDB50A86EA69EA69C35
:1009A000A684F29E550EA76EAA0EA76EA682A8DF99
:1009B000FF08FDE0ABDF0009FDE0F28E010EE5521D
:1009C000E552E7CFD9FF120042EF06F0D190240E96
:1009D000E66ECE0EE66E110EE66ECE0EE66EC20E20
:1009E000E66E060EE66E1CEC00F0146E060EE15E7E
:1009F0001450C20EE66E060EE66EC7EC3EF0E552EF
:100A0000E552390EE66ECE0EE66E110EE66ECE0E95
:100A1000E66EC20EE66E060EE66E1CEC00F0146E7C
:100A2000060EE15E1450C20EE66E060EE66EC7ECD0
:100A30003EF0E552E5524D0EE66ECE0EE66E110E1C
:100A4000E66ECE0EE66EC20EE66E060EE66E1CEC8E
:100A500000F0146E060EE15E145060C014F0156ACA
:100A600014BE156814C0E6FF15C0E6FFC20EE66EA0
:100A7000060EE66E0C0EE66ECE0EE66EC20EE66E4C
:100A8000060EE66E1CEC00F0166E080EE15E1650C7
:100A9000C20EE66E060EE66EC7EC3EF0E552E5527B
:100AA000550EE66ECE0EE66E110EE66ECE0EE66EBC
:100AB000C20EE66E060EE66E1CEC00F0146E060E1C
:100AC000E15E1450060E0001685D08E1C20EE66E9C
:100AD000060EE66E060EE66ECE0E07D0C20EE66E6F
:100AE000060EE66E000EE66ECE0EE66EC20EE66EE8
:100AF000060EE66E1CEC00F0146E060EE15E14505D
:100B0000C20EE66E060EE66EC7EC3EF0E552E5520A
:100B10005C0EE66ECE0EE66E110EE66ECE0EE66E44
:100B2000C20EE66E060EE66E1CEC00F0146E060EAB
:100B3000E15E145049DF146E156A14BE156814C0C6
:100B4000E6FF15C0E6FFC20EE66E060EE66EF90E73
:100B5000E66ECD0EE66EC20EE66E060EE66E1CEC7E
:100B600000F0166E080EE15E1650C20EE66E060E1E
:100B7000E66EC7EC3EF0E552E552650EE66ECE0E2F
:100B8000E66E110EE66ECE0EE66EC20EE66E060E36
:100B9000E66E1CEC00F0146E060EE15E14502C0E96
:100BA0000001735D08E0C20EE66E060EE66EF00E02
:100BB000E66ECD0E07D0C20EE66E060EE66EE40EB1
:100BC000E66ECD0EE66EC20EE66E060EE66E1CEC0E
:100BD00000F0146E060EE15E1450C20EE66E060EB4
:100BE000E66EC7EC3EF0E552E552770EE66ECE0EAD
:100BF000E66E110EE66ECE0EE66EC20EE66E060EC6
:100C0000E66E1CEC00F0146E060EE15E14506FC030
:100C100014F0156A14BE156814C0E6FF15C0E6FF8F
:100C2000C20EE66E060EE66E0C0EE66ECE0EE66E9A
:100C3000C20EE66E060EE66E1CEC00F0166E080E96
:100C4000E15E1650C20EE66E060EE66EC7EC3EF092
:100C5000E552E552E30EE66ECD0EE66EC20EE66E8E
:100C6000060EE66E1CEC00F0E552E552E552E55248
:100C7000C20EE66E060EE66EC7EC3EF0E552E55299
:100C8000D1801200D9CFE6FFE1CFD9FF090EE126CE
:100C9000110EF36E030EF3CFDBFF040EDB6AD950A7
:100CA000020FE66E000EDA20E66E030EDBCFE6FFE3
:100CB000040EDBCFE6FF63EC00F0E552E552E552AF
:100CC000E5520001010E696F020EDBCF6FF0696B18
:100CD0006F5102E1640EA7D0160EF36E030EF3CF30
:100CE000DBFF040EDB6ADF6ADFCF14F06F51E76EC3
:100CF0001418E8AE02D0E73402D0E750145C51E299
:100D0000010EDB6ADBCF14F00F0EE76E1418E8AEAD
:100D100002D0E73402D0E750145C41E2D950020F10
:100D2000E66E000EDA20E66E030EDBCF14F0DB2A4F
:100D3000040EDBCF15F001E3DB2A14C0E6FF15C07B
:100D4000E6FF63EC00F0E552E552E552E5520001A2
:100D5000010E696FDFCF14F0156A14BE15680F0E0F
:100D60001502F3CF15F01402F3CF14F0F45015264A
:100D7000620E1426080E1522010EDBCF16F0176A3C
:100D800016BE176814501624E96E15501720EA6E27
:100D9000020EDBCFEFFF696B010EDB2AB3D7DF2A30
:100DA000A3D7146A040E156E166A176A030EDBCFFA
:100DB00018F0040EDBCF19F01A6A1B6A19AE02D0C4
:100DC0001A681B681850145C066E19501558076E87
:100DD0001A501658086E1B501758096E640E0B6E89
:100DE0000C6A0D6A0E6A28EC6AF002C006F003C0B5
:100DF00007F004C008F005C009F0EA0E0B6E030E00
:100E00000C6E0D6A0E6A94EC68F0050E06C0DBFFEE
:100E1000060E07C0DBFF070E08C0DBFF080E09C087
:100E2000DBFF050EDB50146E090EE15C02E2E16AA5
:100E3000E552E16E1450E552E7CFD9FF1200D9CF49
:100E4000E6FFE1CFD9FF050EE126160EF36E020E86
:100E5000F3CFDBFF030EDB6ADF6ADFCF14F00001A4
:100E60006F51E76E1418E8AE02D0E73402D0E750B5
:100E7000145C01E377D00F0EE76E020EDBCF14F0A7
:100E8000030EDBCF15F0E7501426000E1522D89084
:100E9000155004E6000E145C040E15581CE36FC0D8
:100EA00014F0156A14BE156814C0E6FF15C0E6FFFD
:100EB000D70EE66ECD0EE66E620EE66E070EE66E9D
:100EC0001CEC00F0166E060EE15E16500001110ECD
:100ED000706F000E5ED0010EDB6ADBCF14F00F0ED8
:100EE000E76E1418E8AE02D0E73402D0E750145C85
:100EF00037E2DFCF14F0156A14BE15680F0E150225
:100F0000F3CF15F01402F3CF14F0F4501526620E4F
:100F10001426080E1522010EDBCF16F0176A16BE36
:100F2000176814501624E96E15501720EA6E040E47
:100F3000EFCFDBFFDBCFE6FF020EDBCF14F0DB2AC7
:100F4000030EDBCF15F001E3DB2A14C0E6FF15C06A
:100F5000E6FFDFDCE552E552E552010EDB2ABDD7A4
:100F6000DF2A7BD7110EF36E020EF3CFDBFF030EE9
:100F7000DB6A040E6FC0DBFFDBCFE6FF020EDBCFC8
:100F8000E6FF030EDBCFE6FFC4DCE552E552E55297
:100F9000010E146E050EE15C02E2E16AE552E16EBB
:100FA0001450E552E7CFD9FF1200D9CFE6FFE1CFC9
:100FB000D9FFFE0EDBCF14F0300EE76E1418E8AE4A
:100FC00002D0E73402D0E750145C10E3FE0EDBCF12
:100FD00015F0390EE76E1518E8AE02D0153403D0BF
:100FE000E750D880155402E3010E01D0000EE552FF
:100FF000E7CFD9FF1200D9CFE6FFE1CFD9FFFE0E30
:10100000DBCF14F0410EE76E1418E8AE02D0E734DF
:1010100002D0E750145C10E3FE0EDBCF15F0460E55
:10102000E76E1518E8AE02D0153403D0E750D8802B
:10103000155402E3010E01D0000EE552E7CFD9FFAF
:101040001200D9CFE6FFE1CFD9FFE652FE0EDBCF8B
:1010500014F0610EE76E1418E8AE02D0E73402D047
:10106000E750145C12E3FE0EDBCF15F07A0EE76E4C
:101070001518E8AE02D0153403D0E750D8801554C7
:1010800004E3FE0EDB50E00F02D0FE0EDB50DF6EFD
:10109000DF50E552E552E7CFD9FF1200D9CFE6FF86
:1010A000E1CFD9FF090EE126DE6ADD6A020EDB6AB6
:1010B000030EDB6A0A0EF36E040EF3CFDBFF050EA0
:1010C000DB6A060EDB6AFD0EDBCFE9FFFE0EDBCF2F
:1010D000EAFFEF50300805E1FD0EDB2AFE0E01E3CA
:1010E000DB2AFD0EDBCFE9FFFE0EDBCFEAFFEF5080
:1010F00001E1EDD0FD0EDBCFE9FFFE0EDBCFEAFF15
:10110000EF50200801E1E3D0FD0EDBCFE9FFFE0E3A
:10111000DBCFEAFFEF50E66E94DFE55258080AE1B4
:10112000FD0EDB2AFE0E01E3DB2A100EF36E040E29
:10113000F3CFDBFFFD0EDBCFE9FFFE0EDBCFEAFFD7
:10114000EF5001E19ED0FD0EDBCFE9FFFE0EDBCFBD
:10115000EAFFEF50200801E194D0FD0EDBCFE9FF5C
:10116000FE0EDBCFEAFFEF50E66E1FDFE55200090F
:1011700013E0FD0EDBCFE9FFFE0EDBCFEAFFEF5001
:10118000D00FE66ED950070FE96EDACFEAFFE552CD
:10119000E750EE6EED6A39D0FD0EDBCFE9FFFE0EB3
:1011A000DBCFEAFFEF50E66E4CDFE552E66E23DF61
:1011B000E552000901E187D0FD0EDBCFE9FFFE0E0D
:1011C000DBCFEAFFEF50E66E3CDFE552BF0F0A0FC0
:1011D000E66ED950070FE96EDACFEAFFE552E75025
:1011E000EE6EED6A070EDBCF14F0080EDBCF15F0C4
:1011F000D890155004E60A0E145C000E155805E34D
:10120000100EF36E040EF3CFDBFF070EDBCF16F0EC
:10121000080EDBCF17F0100E086E096ADECF0DF056
:10122000DDCF0EF0C8EC68F006501624146E07509F
:101230001720156E14C0DEFFDD6E070EDBCF16F033
:10124000080EDBCF17F00A0E086E096A020EDBCF1C
:101250000DF0030EDBCF0EF0C8EC68F0065016243C
:10126000146E07501720156E020E14C0DBFF030E1C
:1012700015C0DBFFFD0EDB2AFE0E01E25BD7DB2A89
:1012800059D7040EDB500A080DE1020EDBCF08F03F
:10129000030EDBCF09F0050E08C0DBFF060E09C008
:1012A000DBFF0AD0D9CFE9FFDACFEAFF050EEECF98
:1012B000DBFF060EEDCFDBFF050E060EDBCF15F0D4
:1012C000800E151404E0220E0001E26FE36B050EA0
:1012D000DBCF14F0060EDBCF15F014C0F3FF15C002
:1012E000F4FF090EE15C02E2E16AE552E16EE552CB
:1012F000E7CFD9FF1200E30EE66ECD0EE66E620E6A
:10130000E66E070EE66E1CEC00F0E552E552E55283
:10131000E5520001706B120000017051080A01E1F2
:10132000A3D0100A01E19CD00D0A01E195D0010A79
:1013300001E18ED0070A01E187D0010A01E180D0E6
:10134000030A01E179D0010A73E01F0A6DE0010A86
:1013500067E0030A61E0010A5BE0060A55E0030A60
:101360004FE00E0A49E01C0A43E0010A3DE0030A8F
:1013700037E0120A31E01C0A2BE0010A25E0100ACE
:101380001FE0030A19E0010A13E0070A0DE0010A51
:1013900007E0030A01E079D0E90EE66ECE0E67D0D1
:1013A000F70EE66ECE0E63D0060EE66ECF0E5FD061
:1013B000190EE66ECF0E5BD0240EE66ECF0E57D020
:1013C000310EE66ECF0E53D0410EE66ECF0E4FD0EB
:1013D000520EE66ECF0E4BD0620EE66ECF0E47D0A9
:1013E000710EE66ECF0E43D0870EE66ECF0E3FD065
:1013F0009B0EE66ECF0E3BD0B30EE66ECF0E37D00F
:10140000C60EE66ECF0E33D0D50EE66ECF0E2FD0C1
:10141000E30EE66ECF0E2BD0F30EE66ECF0E27D086
:10142000070EE66ED00E23D0180EE66ED00E1FD03B
:10143000270EE66ED00E1BD03A0EE66ED00E17D0F9
:10144000530EE66ED00E13D0610EE66ED00E0FD0A6
:10145000750EE66ED00E0BD0900EE66ED00E07D055
:10146000A80EE66ED00E03D0BA0EE66ED00EE66E73
:10147000110EE66ECE0EE66EC20EE66E060EE66E3D
:101480001CEC00F0146E060E12D070C0E6FFC80E01
:10149000E66ED00EE66ECF0EE66ECD0EE66EC20E96
:1014A000E66E060EE66E1CEC00F0146E070EE15EB2
:1014B0001450620EE66E070EE66EC20EE66E060E63
:1014C000E66EC90EE66ECD0EE66EC20EE66E060E36
:1014D000E66E1CEC00F0146E080EE15E1450C20EB5
:1014E000E66E060EE66EC7EC3EF0E552E552E30E00
:1014F000E66ECD0EE66EC20EE66E060EE66E1CECD5
:1015000000F0E552E552E552E552C20EE66E060ED7
:10151000E66EC7EC3EF0E552E5527BEF09F0D9CF1D
:10152000E6FFE1CFD9FF0C0EE126DF6A010EDB6A90
:10153000DF6ADFCF14F0156A14BE156814C0E6FF29
:1015400015C0E6FFFD0EDBCFE6FFFE0EDBCFE6FFAC
:10155000F5EC68F0E552E552E552E7CF15F0E552BB
:10156000E7CF14F0F3CF16F0F4CF17F01550F418BE
:10157000E8AE02D0173404D01650145C175015583A
:1015800001E3B7D0DFCF14F0156A14BE1568FD0E65
:10159000DB501424E96EFE0EDB501520EA6EEF508E
:1015A000200808E1F90EDBCFE9FFFA0EDBCFEAFFF6
:1015B000EF2A9DD0DFCF18F0196A18BE1968FD0E0A
:1015C000DB501824E96EFE0EDB501920EA6EEF5056
:1015D000E66ED950020F146EDACF15F0010EDBCF94
:1015E000F3FFDB2AF350166E176A16BE1768145005
:1015F0001624E96E15501720EA6EE552E750EF6E9B
:10160000F90EDBCFE9FFFA0EDBCFEAFFEF2AFB0E84
:10161000DBCFE6FFFC0EDBCFE6FFF5EC68F0E55232
:10162000E552F3CF14F0F4CF15F0F3CFE6FFF4CF8B
:10163000E6FFFB0EDBCFE6FFFC0EDBCFE6FFD9506B
:10164000020FE66E000EDA20E66E03EC69F0166E0D
:10165000060EE15E1650000902E1010E74D0010E83
:10166000DBCF14F0156A14BE156814C0E6FF15C070
:10167000E6FFFB0EDBCFE6FFFC0EDBCFE6FFF5EC73
:1016800068F0E552E552E552E7CF15F0E552E7CFB5
:1016900014F0F3CF18F0F4CF19F0D890F45004E61A
:1016A000090E185C000E195819E214C0E6FF15C0A7
:1016B000E6FFFB0EDBCFE6FFFC0EDBCFE6FFF5EC33
:1016C00068F0E552E552E552E7CF15F0E552E7CF75
:1016D00014F0F3CF16F0F4CF17F003D0090E166E06
:1016E000176A1650141803E11750151802E0DF2A84
:1016F00020D7D950020F146EDACF15F0010EDBCFD0
:1017000016F0176A16BE176814501624E96E1550A5
:101710001720EA6EEF6AD950020FE66E000EDA204B
:10172000E66EC60EE66ECD0EE66E620EE66E070E35
:10173000E66E1CEC00F0146E060EE15E1450000123
:10174000010E706F000E146E0C0EE15C02E2E16A95
:10175000E552E16E1450E552E7CFD9FF1200D9CF20
:10176000E6FFE1CFD9FF050EE126DF6A010EDB6A55
:101770000001E26BE36BDFCF14F0156A14BE15684D
:10178000FD0EDB501424E96EFE0EDB501520EA6ED0
:10179000EF50200831E1DFCF16F0176A16BE176848
:1017A00016C0E6FF17C0E6FFFD0EDBCFE6FFFE0E1C
:1017B000DBCFE6FFF5EC68F0E552E552E552E7CF06
:1017C00017F0E552E7CF16F0F3CF18F0F4CF19F089
:1017D0001750F418E8AE02D0193404D01850165C33
:1017E0001950175809E2F90EDBCFE9FFFA0EDBCFEB
:1017F000EAFFEF2ADF2ABFD7DFCF16F0176A16BE3F
:101800001768FD0EDB501624146EFE0EDB501720F9
:10181000156E14C0E6FFE66E41DCE552E552030E9C
:10182000F3CFDBFF040EF4CFDBFF0001220EE21941
:1018300001E1E35105E0160EE21905E1E35103E190
:10184000020EDB6A05D0010EF36E020EF3CFDBFF52
:10185000030EDBCF14F0040EDBCF15F0153424E2B9
:101860001450FF08000E15541FE2220EE21901E188
:10187000E35102E0000E01D0010E030EDBCFE6FFC4
:10188000040EDBCFE6FFC30EE66ECD0EE66E620EF3
:10189000E66E070EE66E1CEC00F0146E060EE15EBE
:1018A00014500001040E5FD0020EDB044CE1DFCFC8
:1018B00014F0156A14BE1568FD0EDB501424E96E91
:1018C000FE0EDB501520EA6EEF50200831E0DFCF2E
:1018D00016F0176A16BE176816C0E6FF17C0E6FFB7
:1018E000FD0EDBCFE6FFFE0EDBCFE6FFF5EC68F08A
:1018F000E552E552E552E7CF17F0E552E7CF16F093
:10190000F3CF18F0F4CF19F01750F418E8AE02D066
:10191000193404D01850165C1950175809E2F90E02
:10192000DBCFE9FFFA0EDBCFEAFFEF2ADF2ABFD7D2
:10193000FB0EDBCFE9FFFC0EDBCFEAFF030EDBCFB4
:10194000EFFF010E12D0E30EE66ECD0EE66E620ED4
:10195000E66E070EE66E1CEC00F0E552E552E5522D
:10196000E5520001020E706F000E146E050EE15C70
:1019700002E2E16AE552E16E1450E552E7CFD9FF89
:101980001200D9CFE6FFE1CFD9FF020EE126010E0A
:10199000DB6ADF6A010EDBCF14F0030EE76E14186A
:1019A000E8AE02D0E73402D0E750145C01E316D170
:1019B000FB0EDBCFE9FFFC0EDBCFEAFFEFCF14F02D
:1019C000156A14BE1568FD0EDB501424E96EFE0E78
:1019D000DB501520EA6EEF50200801E1B5D0010E72
:1019E000DB5037E1DF5035E1FB0EDBCFE9FFFC0ECA
:1019F000DBCFEAFFEFCF14F0156A14BE1568FD0EB9
:101A0000DB501424E96EFE0EDB501520EA6EEF5019
:101A1000E66EFB0EDBCFE9FFFC0EDBCFEAFFEFCF7C
:101A200016F0176A16BE176816C0E6FF17C0E6FF65
:101A3000B40EE66ECD0EE66E620EE66E070EE66E34
:101A40001CEC00F0186E070EE15E18500001120E3B
:101A5000C2D0FB0EDBCFE9FFFC0EDBCFEAFFEFCFFE
:101A600014F0156A14BE156814C0E6FF15C0E6FF31
:101A7000FD0EDBCFE6FFFE0EDBCFE6FFF5EC68F0F8
:101A8000E552E552E552E7CF15F0E552E7CF14F005
:101A9000F3CF16F0F4CF17F0F35014182AE11750D3
:101AA000151827E1010EDBCF14F0000EE76E1418B5
:101AB000E8AE02D0143403D0E750D880145408E2C2
:101AC000010EDBCF14F0156A14AE51D015684FD05B
:101AD000E30EE66ECD0EE66E620EE66E070EE66E65
:101AE0001CEC00F0E552E552E552E55200011B0EF8
:101AF00072D0FB0EDBCFE9FFFC0EDBCFEAFFEF502D
:101B0000EF2A166E176A16BE1768FD0EDB501624F4
:101B1000E96EFE0EDB501720EA6EEF50E66E010E06
:101B2000DBCFF3FFDB2AF350146E156A14BE156881
:101B3000F90EDB501424E96EFA0EDB501520EA6E24
:101B4000E552E750EF6E1DD0010EDB500AE1010EA9
:101B5000DF6EFB0EDBCFE9FFFC0EDBCFEAFFEF2AE7
:101B600010D0010EDBCF14F0156A14BE1568F90E03
:101B7000DB501424E96EFA0EDB501520EA6EEF6A92
:101B80002DD0010EDB50030801E004D7010EDB0469
:101B9000146E156A14BE1568F90EDB501424E96E34
:101BA000FA0EDB501520EA6EEF6AF90EDBCFE6FF86
:101BB000FA0EDBCFE6FFC60EE66ECD0EE66E620EC7
:101BC000E66E070EE66E1CEC00F0146E060EE15E8B
:101BD00014500001130E706F000E01D0010E146E30
:101BE000020EE15C02E2E16AE552E16E1450E55258
:101BF000E7CFD9FF1200D9CFE6FFE1CFD9FF0D0E15
:101C0000E126DF6A010EDB6A14EC25F0AF0EE66E0A
:101C1000CD0EE66ED950020FE66E000EDA20E66EAB
:101C20001CEC00F0E552E552E552E552D9CFE6FF53
:101C3000DACFE6FFD950020FE66E000EDA20E66E2C
:101C4000DFCF16F0176A16BE1768FD0EDB5016249C
:101C5000146EFE0EDB501720156E14C0E6FFE66E04
:101C60005EDC186E060EE15E1850000903E0070105
:101C7000040E6AD0A80EE66ECD0EE66ED950020FA5
:101C8000E66E000EDA20E66E1CEC00F0E552E5523E
:101C9000E552E552DF6AD9CFE6FFDACFE6FFD95049
:101CA000020FE66E000EDA20E66EDFCF16F0176A3E
:101CB00016BE1768FD0EDB501624146EFE0EDB50A8
:101CC0001720156E14C0E6FFE66E29DC186E060EAE
:101CD000E15E1850000903E00701050E35D0A30EA0
:101CE000E66ECD0EE66ED950020FE66E000EDA20DB
:101CF000E66E1CEC00F0E552E552E552E552DF6A73
:101D0000D9CFE6FFDACFE6FFD950020FE66E000E1C
:101D1000DA20E66EDFCF16F0176A16BE1768FD0EE2
:101D2000DB501624146EFE0EDB501720156E14C007
:101D3000E6FFE66E8FEC0AF0186E060EE15E1850B4
:101D4000000907E00701400EA06F60C09FF757EF42
:101D500023F09F0EE66ECD0EE66ED950020FE66EB2
:101D6000000EDA20E66E1CEC00F0E552E552E5527A
:101D7000E552DF6AD9CFE6FFDACFE6FFD950020F8E
:101D8000E66E000EDA20E66EDFCF16F0176A16BE9A
:101D90001768FD0EDB501624146EFE0EDB50172064
:101DA000156E14C0E6FFE66E8FEC0AF0186E060E94
:101DB000E15E1850000926E00701230EA06FD9CF7D
:101DC000E6FFDACFE6FF9F0EE66E070EE66EDFCF88
:101DD00016F0176A16BE1768FD0EDB501624146E37
:101DE000FE0EDB501720156E14C0E6FFE66EB7DC62
:101DF000186E060EE15E1850000902E100EF22F0B5
:101E000057EF23F0990EE66ECD0EE66ED950020F15
:101E1000E66E000EDA20E66E1CEC00F0E552E552AC
:101E2000E552E552DF6AD9CFE6FFDACFE6FFD950B7
:101E3000020FE66E000EDA20E66EDFCF16F0176AAC
:101E400016BE1768FD0EDB501624146EFE0EDB5016
:101E50001720156E14C0E6FFE66E8FEC0AF0186EC0
:101E6000060EE15E1850000926E007012D0EA06F56
:101E7000D9CFE6FFDACFE6FF9F0EE66E070EE66EDD
:101E8000DFCF16F0176A16BE1768FD0EDB5016245A
:101E9000146EFE0EDB501720156E14C0E6FFE66EC2
:101EA0005EDC186E060EE15E1850000902E057EF86
:101EB00023F000EF22F0930EE66ECD0EE66ED950C1
:101EC000020FE66E000EDA20E66E1CEC00F0E55222
:101ED000E552E552E552DF6AD9CFE6FFDACFE6FFF9
:101EE000D950020FE66E000EDA20E66EDFCF16F054
:101EF000176A16BE1768FD0EDB501624146EFE0E10
:101F0000DB501720156E14C0E6FFE66E8FEC0AF06A
:101F1000186E060EE15E1850000927E00701240E36
:101F2000A06FD9CFE6FFDACFE6FF9F0EE66E070E71
:101F3000E66EDFCF16F0176A16BE1768FD0EDB508F
:101F40001624146EFE0EDB501720156E14C0E6FF2B
:101F5000E66EAFEC0BF0186E060EE15E185000094D
:101F600002E057EF23F000EF22F0DF6A8E0EE66EFC
:101F7000CD0EE66ED950020FE66E000EDA20E66E48
:101F80001CEC00F0E552E552E552E552D9CFE6FFF0
:101F9000DACFE6FFD950020FE66E000EDA20E66EC9
:101FA000DFCF16F0176A16BE1768FD0EDB50162439
:101FB000146EFE0EDB501720156E14C0E6FFE66EA1
:101FC0008FEC0AF0186E060EE15E1850000902E16F
:101FD00052EF1BF00701010E9E6FD9CFE6FFDACF5B
:101FE000E6FF9F0EE66E070EE66EDFCF16F0176A6D
:101FF00016BE1768FD0EDB501624146EFE0EDB5065
:102000001720156E14C0E6FFE66EAFEC0BF0186EED
:10201000060EE15E1850000902E100EF22F0010E09
:10202000DFCFDBFF8A0EE66ECD0EE66ED950020FD3
:10203000E66E000EDA20E66E1CEC00F0E552E5528A
:10204000E552E552D9CFE6FFDACFE6FFD950020FCD
:10205000E66E000EDA20E66EDFCF16F0176A16BEC7
:102060001768FD0EDB501624146EFE0EDB50172091
:10207000156E14C0E6FFE66E8FEC0AF0186E060EC1
:10208000E15E1850000905E00701010EC16F030E63
:1020900039D0860EE66ECD0EE66ED950020FE66E92
:1020A000000EDA20E66E1CEC00F0E552E552E55237
:1020B000E552010EDB50DF6ED9CFE6FFDACFE6FF47
:1020C000D950020FE66E000EDA20E66EDFCF16F072
:1020D000176A16BE1768FD0EDB501624146EFE0E2E
:1020E000DB501720156E14C0E6FFE66E8FEC0AF089
:1020F000186E060EE15E1850000907E00701010E98
:10210000C16F060EC26F57EF23F0810EE66ECD0E43
:10211000E66ED950020FE66E000EDA20E66E1CEC79
:1021200000F0E552E552E552E552010EDB50DF6E5C
:10213000D9CFE6FFDACFE6FFD950020FE66E000EE8
:10214000DA20E66EDFCF16F0176A16BE1768FD0EAE
:10215000DB501624146EFE0EDB501720156E14C0D3
:10216000E6FFE66E8FEC0AF0186E060EE15E185080
:10217000000901E199D00701010EC36FD9CFE6FF35
:10218000DACFE6FFC40EE66E070EE66EDFCF16F07E
:10219000176A16BE1768FD0EDB501624146EFE0E6D
:1021A000DB501720156E14C0E6FFE66EAFEC0BF0A7
:1021B000186E060EE15E1850000902E100EF22F0F1
:1021C000010EDFCFDBFF7E0EE66ECD0EE66ED95040
:1021D000020FE66E000EDA20E66E1CEC00F0E5520F
:1021E000E552E552E552D9CFE6FFDACFE6FFD95006
:1021F000020FE66E000EDA20E66EDFCF16F0176AE9
:1022000016BE1768FD0EDB501624146EFE0EDB5052
:102210001720156E14C0E6FFE66E8FEC0AF0186EFC
:10222000060EE15E1850000903E007010B0E39D0DD
:10223000010EDB50DF6E7A0EE66ECD0EE66ED950E3
:10224000020FE66E000EDA20E66E1CEC00F0E5529E
:10225000E552E552E552D9CFE6FFDACFE6FFD95095
:10226000020FE66E000EDA20E66EDFCF16F0176A78
:1022700016BE1768FD0EDB501624146EFE0EDB50E2
:102280001720156E14C0E6FFE66E8FEC0AF0186E8C
:10229000060EE15E1850000902E100EF22F007018E
:1022A0000E0EC56F57EF23F0010EDB50DF6E760E7A
:1022B000E66ECD0EE66ED950020FE66E000EDA2005
:1022C000E66E1CEC00F0E552E552E552E552D9CF3E
:1022D000E6FFDACFE6FFD950020FE66E000EDA20F5
:1022E000E66EDFCF16F0176A16BE1768FD0EDB50DC
:1022F0001624146EFE0EDB501720156E14C0E6FF78
:10230000E66E8FEC0AF0186E060EE15E18500009BA
:1023100002E1F6EF1AF00701010EC96FF00EE66E4A
:10232000070EE66ED9CFE6FFDACFE6FFFD0EDBCF74
:10233000E6FFFE0EDBCFE6FFC1EC0CF0146E060EDE
:10234000E15E1450000902E100EF22F0010EDFCF40
:10235000DBFF700EE66ECD0EE66ED950020FE66E14
:10236000000EDA20E66E1CEC00F0E552E552E55274
:10237000E552D9CFE6FFDACFE6FFD950020FE66E7D
:10238000000EDA20E66EDFCF16F0176A16BE176869
:10239000FD0EDB501624146EFE0EDB501720156E5A
:1023A00014C0E6FFE66E8FEC0AF0186E060EE15ED2
:1023B0001850000903E00701280E39D0010EDB5048
:1023C000DF6E690EE66ECD0EE66ED950020FE66E38
:1023D000000EDA20E66E1CEC00F0E552E552E55204
:1023E000E552D9CFE6FFDACFE6FFD950020FE66E0D
:1023F000000EDA20E66EDFCF16F0176A16BE1768F9
:10240000FD0EDB501624146EFE0EDB501720156EE9
:1024100014C0E6FFE66E8FEC0AF0186E060EE15E61
:102420001850000902E100EF22F00701290EEF6FBA
:10243000280EEE6F630EE66ECD0EE66ED950020FDB
:10244000E66E000EDA20E66E1CEC00F0E552E55276
:10245000E552E552D9CFE6FFDACFE6FFD950020FB9
:10246000E66E000EDA20E66EDFCF16F0176A16BEB3
:102470001768FD0EDB501624146EFE0EDB5017207D
:10248000156E14C0E6FFE66E8FEC0AF0186E060EAD
:10249000E15E1850000902E100EF22F0D9CFE6FF1B
:1024A000DACFE6FFD9500C0FE66E000EDA20E66EAA
:1024B000DFCF16F0176A16BE1768FD0EDB50162424
:1024C000146EFE0EDB501720156E14C0E6FFE66E8C
:1024D000AFEC0BF0186E060EE15E1850000902E139
:1024E00000EF22F0010EDFCFDBFF810EE66ECD0E96
:1024F000E66ED950020FE66E000EDA20E66E1CEC96
:1025000000F0E552E552E552E552D9CFE6FFDACFC9
:10251000E6FFD950020FE66E000EDA20E66EDFCF3E
:1025200016F0176A16BE1768FD0EDB501624146EDF
:10253000FE0EDB501720156E14C0E6FFE66E8FEC22
:102540000AF0186E060EE15E185000094BE0070114
:10255000010ECA6F0C0EDBCFCBF7D9CFE6FFDACF77
:10256000E6FFCC0EE66E070EE66EDFCF16F0176ABA
:1025700016BE1768FD0EDB501624146EFE0EDB50DF
:102580001720156E14C0E6FFE66EAFEC0BF0186E68
:10259000060EE15E1850000902E100EF22F0D9CFEB
:1025A000E6FFDACFE6FFCD0EE66E070EE66EDFCF72
:1025B00016F0176A16BE1768FD0EDB501624146E4F
:1025C000FE0EDB501720156E14C0E6FFE66EAFEC72
:1025D0000BF0186E060EE15E1850000901E06DD197
:1025E00000EF22F0010EDB50DF6E5D0EE66ECD0EC9
:1025F000E66ED950020FE66E000EDA20E66E1CEC95
:1026000000F0E552E552E552E552D9CFE6FFDACFC8
:10261000E6FFD950020FE66E000EDA20E66EDFCF3D
:1026200016F0176A16BE1768FD0EDB501624146EDE
:10263000FE0EDB501720156E14C0E6FFE66E8FEC21
:102640000AF0186E060EE15E1850000929E0070135
:10265000010ECE6F0C0EDBCFCFF7D9CFE6FFDACF6E
:10266000E6FFD00EE66E070EE66EDFCF16F0176AB5
:1026700016BE1768FD0EDB501624146EFE0EDB50DE
:102680001720156E14C0E6FFE66EAFEC0BF0186E67
:10269000060EE15E1850000901E00FD100EF22F0B4
:1026A000010EDB50DF6E570EE66ECD0EE66ED95092
:1026B000020FE66E000EDA20E66E1CEC00F0E5522A
:1026C000E552E552E552D9CFE6FFDACFE6FFD95021
:1026D000020FE66E000EDA20E66EDFCF16F0176A04
:1026E00016BE1768FD0EDB501624146EFE0EDB506E
:1026F0001720156E14C0E6FFE66E8FEC0AF0186E18
:10270000060EE15E1850000902E100EF22F0070119
:10271000010ED16F0C0EDBCFD2F7D9CFE6FFDACFA7
:10272000E6FFD30EE66E070EE66EDFCF18F0196AED
:1027300018BE1968FD0EDB501824166EFE0EDB5015
:102740001920176E16C0E6FFE66EAFEC0BF01A6E9E
:10275000060EE15E1A50000902E0000E01D0010EE3
:10276000146E156AE850151002E000EF22F0530EC7
:10277000E66ECD0EE66ED950020FE66E000EDA2040
:10278000E66E1CEC00F0E552E552E552E552D9CF79
:10279000E6FFDACFE6FFD950020FE66E000EDA2030
:1027A000E66EDFCF16F0176A16BE1768FD0EDB5017
:1027B0001624146EFE0EDB501720156E14C0E6FFB3
:1027C000E66E8FEC0AF0186E060EE15E18500009F6
:1027D00002E100EF22F0010EDFCFDBFF4B0EE66ED1
:1027E000CD0EE66ED950020FE66E000EDA20E66ED0
:1027F0001CEC00F0E552E552E552E552D9CFE6FF78
:10280000DACFE6FFD950020FE66E000EDA20E66E50
:10281000DFCF16F0176A16BE1768FD0EDB501624C0
:10282000146EFE0EDB501720156E14C0E6FFE66E28
:102830008FEC0AF0186E060EE15E1850000903E0F6
:1028400007010F0E39D0010EDB50DF6E420EE66E2F
:10285000CD0EE66ED950020FE66E000EDA20E66E5F
:102860001CEC00F0E552E552E552E552D9CFE6FF07
:10287000DACFE6FFD950020FE66E000EDA20E66EE0
:10288000DFCF16F0176A16BE1768FD0EDB50162450
:10289000146EFE0EDB501720156E14C0E6FFE66EB8
:1028A0008FEC0AF0186E060EE15E1850000902E186
:1028B00000EF22F00701100ED46F3E0EE66ECD0E33
:1028C000E66ED950020FE66E000EDA20E66E1CECC2
:1028D00000F0E552E552E552E552D9CFE6FFDACFF6
:1028E000E6FFD950020FE66E000EDA20E66EDFCF6B
:1028F00016F0176A16BE1768FD0EDB501624146E0C
:10290000FE0EDB501720156E14C0E6FFE66E8FEC4E
:102910000AF0186E060EE15E1850000902E100EFA1
:1029200022F0010EDFCFDBFF810EE66ECD0EE66EEC
:10293000D950020FE66E000EDA20E66E1CEC00F0B5
:10294000E552E552E552E552D9CFE6FFDACFE6FF90
:10295000D950020FE66E000EDA20E66EDFCF16F0D9
:10296000176A16BE1768FD0EDB501624146EFE0E95
:10297000DB501720156E14C0E6FFE66E8FEC0AF0F0
:10298000186E060EE15E1850000949E00701010EBD
:10299000D56FD9CFE6FFDACFE6FFD60EE66E070E8B
:1029A000E66EDFCF16F0176A16BE1768FD0EDB5015
:1029B0001624146EFE0EDB501720156E14C0E6FFB1
:1029C000E66EAFEC0BF0186E060EE15E18500009D3
:1029D00002E100EF22F0D9CFE6FFDACFE6FFD70E13
:1029E000E66E070EE66EDFCF16F0176A16BE1768A2
:1029F000FD0EDB501624146EFE0EDB501720156EF4
:102A000014C0E6FFE66EAFEC0BF0186E060EE15E4A
:102A10001850000902E057EF23F000EF22F0010EFA
:102A2000DB50DF6E5D0EE66ECD0EE66ED950020F06
:102A3000E66E000EDA20E66E1CEC00F0E552E55280
:102A4000E552E552D9CFE6FFDACFE6FFD950020FC3
:102A5000E66E000EDA20E66EDFCF16F0176A16BEBD
:102A60001768FD0EDB501624146EFE0EDB50172087
:102A7000156E14C0E6FFE66E8FEC0AF0186E060EB7
:102A8000E15E1850000949E00701010ED86FD9CF67
:102A9000E6FFDACFE6FFD90EE66E070EE66EDFCF71
:102AA00016F0176A16BE1768FD0EDB501624146E5A
:102AB000FE0EDB501720156E14C0E6FFE66EAFEC7D
:102AC0000BF0186E060EE15E1850000902E100EFEF
:102AD00022F0D9CFE6FFDACFE6FFDA0EE66E070E78
:102AE000E66EDFCF16F0176A16BE1768FD0EDB50D4
:102AF0001624146EFE0EDB501720156E14C0E6FF70
:102B0000E66EAFEC0BF0186E060EE15E1850000991
:102B100002E057EF23F000EF22F0010EDB50DF6EF2
:102B20003A0EE66ECD0EE66ED950020FE66E000E3E
:102B3000DA20E66E1CEC00F0E552E552E552E55273
:102B4000D9CFE6FFDACFE6FFD950020FE66E000ECE
:102B5000DA20E66EDFCF16F0176A16BE1768FD0E94
:102B6000DB501624146EFE0EDB501720156E14C0B9
:102B7000E6FFE66E8FEC0AF0186E060EE15E185066
:102B8000000949E00701010EDB6FD9CFE6FFDACF7C
:102B9000E6FFDC0EE66E070EE66EDFCF16F0176A74
:102BA00016BE1768FD0EDB501624146EFE0EDB50A9
:102BB0001720156E14C0E6FFE66EAFEC0BF0186E32
:102BC000060EE15E1850000902E100EF22F0D9CFB5
:102BD000E6FFDACFE6FFDD0EE66E070EE66EDFCF2C
:102BE00016F0176A16BE1768FD0EDB501624146E19
:102BF000FE0EDB501720156E14C0E6FFE66EAFEC3C
:102C00000BF0186E060EE15E1850000902E057EF57
:102C100023F000EF22F0010EDB50DF6E700EE66E47
:102C2000CD0EE66ED950020FE66E000EDA20E66E8B
:102C30001CEC00F0E552E552E552E552D9CFE6FF33
:102C4000DACFE6FFD950020FE66E000EDA20E66E0C
:102C5000DFCF16F0176A16BE1768FD0EDB5016247C
:102C6000146EFE0EDB501720156E14C0E6FFE66EE4
:102C70008FEC0AF0186E060EE15E185000091EE097
:102C80000701010EDE6FDF0EE66E070EE66ED9CF8E
:102C9000E6FFDACFE6FFFD0EDBCFE6FFFE0EDBCF71
:102CA000E6FFC1EC0CF0146E060EE15E1450000954
:102CB00002E100EF22F00701280E52D0010EDB5096
:102CC000DF6E690EE66ECD0EE66ED950020FE66E2F
:102CD000000EDA20E66E1CEC00F0E552E552E552FB
:102CE000E552D9CFE6FFDACFE6FFD950020FE66E04
:102CF000000EDA20E66EDFCF16F0176A16BE1768F0
:102D0000FD0EDB501624146EFE0EDB501720156EE0
:102D100014C0E6FFE66E8FEC0AF0186E060EE15E58
:102D20001850000920E00701010EDE6FDF0EE66E8D
:102D3000070EE66ED9CFE6FFDACFE6FFFD0EDBCF5A
:102D4000E6FFFE0EDBCFE6FFC1EC0CF0146E060EC4
:102D5000E15E1450000902E100EF22F00701290EA4
:102D6000E36F57EF23F0010EDB50DF6E570EE66E78
:102D7000CD0EE66ED950020FE66E000EDA20E66E3A
:102D80001CEC00F0E552E552E552E552D9CFE6FFE2
:102D9000DACFE6FFD950020FE66E000EDA20E66EBB
:102DA000DFCF16F0176A16BE1768FD0EDB5016242B
:102DB000146EFE0EDB501720156E14C0E6FFE66E93
:102DC0008FEC0AF0186E060EE15E1850000901E162
:102DD0002FD20701010EE46FD9CFE6FFDACFE6FF6D
:102DE000E50EE66E070EE66EDFCF16F0176A16BE2A
:102DF0001768FD0EDB501624146EFE0EDB501720F4
:102E0000156E14C0E6FFE66EAFEC0BF0186E060E02
:102E1000E15E1850000902E100EF22F0340EE66E88
:102E2000CD0EE66ED950020FE66E000EDA20E66E89
:102E30001CEC00F0E552E552E552E552D9CFE6FF31
:102E4000DACFE6FFD950020FE66E000EDA20E66E0A
:102E5000DFCF16F0176A16BE1768FD0EDB5016247A
:102E6000146EFE0EDB501720156E14C0E6FFE66EE2
:102E70008FEC0AF0186E060EE15E1850000902E1B0
:102E800000EF22F0010EDFCFDBFF2E0EE66ECD0E3F
:102E9000E66ED950020FE66E000EDA20E66E1CECEC
:102EA00000F0E552E552E552E552D9CFE6FFDACF20
:102EB000E6FFD950020FE66E000EDA20E66EDFCF95
:102EC00016F0176A16BE1768FD0EDB501624146E36
:102ED000FE0EDB501720156E14C0E6FFE66E8FEC79
:102EE0000AF0186E060EE15E1850000903E00701B3
:102EF000E6695ED0010EDB50DF6E280EE66ECD0E69
:102F0000E66ED950020FE66E000EDA20E66E1CEC7B
:102F100000F0E552E552E552E552D9CFE6FFDACFAF
:102F2000E6FFD950020FE66E000EDA20E66EDFCF24
:102F300016F0176A16BE1768FD0EDB501624146EC5
:102F4000FE0EDB501720156E14C0E6FFE66E8FEC08
:102F50000AF0186E060EE15E1850000904E0070141
:102F6000EE0EE66F25D0010EDB50DF6ED9CFE6FF07
:102F7000DACFE6FFE60EE66E070EE66EDFCF16F05E
:102F8000176A16BE1768FD0EDB501624146EFE0E6F
:102F9000DB501720156E14C0E6FFE66EAFEC0BF0A9
:102FA000186E060EE15E1850000902E100EF22F0F3
:102FB000010EDFCFDBFF230EE66ECD0EE66ED9509D
:102FC000020FE66E000EDA20E66E1CEC00F0E55211
:102FD000E552E552E552D9CFE6FFDACFE6FFD95008
:102FE000020FE66E000EDA20E66EDFCF16F0176AEB
:102FF00016BE1768FD0EDB501624146EFE0EDB5055
:103000001720156E14C0E6FFE66E8FEC0AF0186EFE
:10301000060EE15E1850000903E00701130E39D0D7
:10302000010EDB50DF6E1E0EE66ECD0EE66ED95041
:10303000020FE66E000EDA20E66E1CEC00F0E552A0
:10304000E552E552E552D9CFE6FFDACFE6FFD95097
:10305000020FE66E000EDA20E66EDFCF16F0176A7A
:1030600016BE1768FD0EDB501624146EFE0EDB50E4
:103070001720156E14C0E6FFE66E8FEC0AF0186E8E
:10308000060EE15E1850000902E100EF22F0070190
:10309000140EE76F160EE66ECD0EE66ED950020FD7
:1030A000E66E000EDA20E66E1CEC00F0E552E5520A
:1030B000E552E552D9CFE6FFDACFE6FFD950020F4D
:1030C000E66E000EDA20E66EDFCF16F0176A16BE47
:1030D0001768FD0EDB501624146EFE0EDB50172011
:1030E000156E14C0E6FFE66E8FEC0AF0186E060E41
:1030F000E15E1850000902E100EF22F0010EDFCF7F
:10310000DBFF2E0EE66ECD0EE66ED950020FE66E98
:10311000000EDA20E66E1CEC00F0E552E552E552B6
:10312000E552D9CFE6FFDACFE6FFD950020FE66EBF
:10313000000EDA20E66EDFCF16F0176A16BE1768AB
:10314000FD0EDB501624146EFE0EDB501720156E9C
:1031500014C0E6FFE66E8FEC0AF0186E060EE15E14
:103160001850000904E00701E86957EF23F0010E49
:10317000DB50DF6E280EE66ECD0EE66ED950020FE4
:10318000E66E000EDA20E66E1CEC00F0E552E55229
:10319000E552E552D9CFE6FFDACFE6FFD950020F6C
:1031A000E66E000EDA20E66EDFCF16F0176A16BE66
:1031B0001768FD0EDB501624146EFE0EDB50172030
:1031C000156E14C0E6FFE66E8FEC0AF0186E060E60
:1031D000E15E1850000905E00701EE0EE86F57EFB9
:1031E00023F0010EDB50DF6ED9CFE6FFDACFE6FF2A
:1031F000E80EE66E070EE66EDFCF16F0176A16BE13
:103200001768FD0EDB501624146EFE0EDB501720DF
:10321000156E14C0E6FFE66EAFEC0BF0186E060EEE
:10322000E15E1850000902E057EF23F000EF22F0B2
:10323000010EDB50DF6E0E0EE66ECD0EE66ED9503F
:10324000020FE66E000EDA20E66E1CEC00F0E5528E
:10325000E552E552E552D9CFE6FFDACFE6FFD95085
:10326000020FE66E000EDA20E66EDFCF16F0176A68
:1032700016BE1768FD0EDB501624146EFE0EDB50D2
:103280001720156E14C0E6FFE66E8FEC0AF0186E7C
:10329000060EE15E1850000905E00701010EE96F16
:1032A0002E0E21D1010EDB50DF6E060EE66ECD0E26
:1032B000E66ED950020FE66E000EDA20E66E1CECC8
:1032C00000F0E552E552E552E552D9CFE6FFDACFFC
:1032D000E6FFD950020FE66E000EDA20E66EDFCF71
:1032E00016F0176A16BE1768FD0EDB501624146E12
:1032F000FE0EDB501720156E14C0E6FFE66E8FEC55
:103300000AF0186E060EE15E1850000905E007018C
:10331000010EE96F2F0EE7D0010EDB50DF6EFE0EBF
:10332000E66ECC0EE66ED950020FE66E000EDA2085
:10333000E66E1CEC00F0E552E552E552E552D9CFBD
:10334000E6FFDACFE6FFD950020FE66E000EDA2074
:10335000E66EDFCF16F0176A16BE1768FD0EDB505B
:103360001624146EFE0EDB501720156E14C0E6FFF7
:10337000E66E8FEC0AF0186E060EE15E185000093A
:1033800005E00701010EE96F300EADD0010EDB50F4
:10339000DF6EF60EE66ECC0EE66ED950020FE66ECC
:1033A000000EDA20E66E1CEC00F0E552E552E55224
:1033B000E552D9CFE6FFDACFE6FFD950020FE66E2D
:1033C000000EDA20E66EDFCF16F0176A16BE176819
:1033D000FD0EDB501624146EFE0EDB501720156E0A
:1033E00014C0E6FFE66E8FEC0AF0186E060EE15E82
:1033F0001850000905E00701010EE96F310E73D086
:10340000010EDB50DF6EEF0EE66ECC0EE66ED9508D
:10341000020FE66E000EDA20E66E1CEC00F0E552BC
:10342000E552E552E552D9CFE6FFDACFE6FFD950B3
:10343000020FE66E000EDA20E66EDFCF16F0176A96
:1034400016BE1768FD0EDB501624146EFE0EDB5000
:103450001720156E14C0E6FFE66E8FEC0AF0186EAA
:10346000060EE15E1850000905E00701010EE96F44
:103470002B0E39D0010EDB50DF6EE50EE66ECC0E62
:10348000E66ED950020FE66E000EDA20E66E1CECF6
:1034900000F0E552E552E552E552D9CFE6FFDACF2A
:1034A000E6FFD950020FE66E000EDA20E66EDFCF9F
:1034B00016F0176A16BE1768FD0EDB501624146E40
:1034C000FE0EDB501720156E14C0E6FFE66E8FEC83
:1034D0000AF0186E060EE15E1850000907E00701B9
:1034E000010EE96F2C0EEA6F57EF23F0010EDB504F
:1034F000DF6E8A0EE66ECD0EE66ED950020FE66ED6
:10350000000EDA20E66E1CEC00F0E552E552E552C2
:10351000E552D9CFE6FFDACFE6FFD950020FE66ECB
:10352000000EDA20E66EDFCF16F0176A16BE1768B7
:10353000FD0EDB501624146EFE0EDB501720156EA8
:1035400014C0E6FFE66E8FEC0AF0186E060EE15E20
:103550001850000902E100EF22F00701010EEB6FA5
:10356000D9CFE6FFDACFE6FFEC0EE66E070EE66E89
:10357000DFCF16F0176A16BE1768FD0EDB50162453
:10358000146EFE0EDB501720156E14C0E6FFE66EBB
:10359000AFEC0BF0186E060EE15E1850000902E168
:1035A00000EF22F0D9CFE6FFDACFE6FFED0EE66EB0
:1035B000070EE66EDFCF16F0176A16BE1768FD0E0F
:1035C000DB501624146EFE0EDB501720156E14C04F
:1035D000E6FFE66EAFEC0BF0186E060EE15E1850DB
:1035E000000902E057EF23F000EF22F0010EDB505C
:1035F000DF6EE10EE66ECC0EE66ED950020FE66E7F
:10360000000EDA20E66E1CEC00F0E552E552E552C1
:10361000E552D9CFE6FFDACFE6FFD950020FE66ECA
:10362000000EDA20E66EDFCF16F0176A16BE1768B6
:10363000FD0EDB501624146EFE0EDB501720156EA7
:1036400014C0E6FFE66E8FEC0AF0186E060EE15E1F
:103650001850000927E00701010EF36FD9CFE6FFEC
:10366000DACFE6FFF40EE66E070EE66EDFCF16F059
:10367000176A16BE1768FD0EDB501624146EFE0E78
:10368000DB501720156E14C0E6FFE66EAFEC0BF0B2
:10369000186E060EE15E1850000902E057EF23F0A5
:1036A00000EF22F0DF6ADD0EE66ECC0EE66ED9503A
:1036B000020FE66E000EDA20E66E1CEC00F0E5521A
:1036C000E552E552E552D9CFE6FFDACFE6FFD95011
:1036D000020FE66E000EDA20E66EDFCF16F0176AF4
:1036E00016BE1768FD0EDB501624146EFE0EDB505E
:1036F0001720156E14C0E6FFE66E8FEC0AF0186E08
:10370000060EE15E1850000902E15BEF23F00701AD
:10371000020E9E6FD9CFE6FFDACFE6FF9F0EE66E70
:10372000070EE66EDFCF16F0176A16BE1768FD0E9D
:10373000DB501624146EFE0EDB501720156E14C0DD
:10374000E6FFE66EAFEC0BF0186E060EE15E185069
:10375000000902E100EF22F0010EDFCFDBFF810E56
:10376000E66ECD0EE66ED950020FE66E000EDA2040
:10377000E66E1CEC00F0E552E552E552E552D9CF79
:10378000E6FFDACFE6FFD950020FE66E000EDA2030
:10379000E66EDFCF16F0176A16BE1768FD0EDB5017
:1037A0001624146EFE0EDB501720156E14C0E6FFB3
:1037B000E66E8FEC0AF0186E060EE15E18500009F6
:1037C00049E00701010EA16FD9CFE6FFDACFE6FF8E
:1037D000A20EE66E070EE66EDFCF16F0176A16BE73
:1037E0001768FD0EDB501624146EFE0EDB501720FA
:1037F000156E14C0E6FFE66EAFEC0BF0186E060E09
:10380000E15E1850000902E100EF22F0D9CFE6FF97
:10381000DACFE6FFA30EE66E070EE66EDFCF16F0F8
:10382000176A16BE1768FD0EDB501624146EFE0EC6
:10383000DB501720156E14C0E6FFE66EAFEC0BF000
:10384000186E060EE15E1850000902E057EF23F0F3
:1038500000EF22F0010EDB50DF6E5D0EE66ECD0E46
:10386000E66ED950020FE66E000EDA20E66E1CEC12
:1038700000F0E552E552E552E552D9CFE6FFDACF46
:10388000E6FFD950020FE66E000EDA20E66EDFCFBB
:1038900016F0176A16BE1768FD0EDB501624146E5C
:1038A000FE0EDB501720156E14C0E6FFE66E8FEC9F
:1038B0000AF0186E060EE15E1850000949E0070193
:1038C000010EA46FD9CFE6FFDACFE6FFA50EE66EB4
:1038D000070EE66EDFCF16F0176A16BE1768FD0EEC
:1038E000DB501624146EFE0EDB501720156E14C02C
:1038F000E6FFE66EAFEC0BF0186E060EE15E1850B8
:10390000000902E100EF22F0D9CFE6FFDACFE6FFAF
:10391000A60EE66E070EE66EDFCF16F0176A16BE2D
:103920001768FD0EDB501624146EFE0EDB501720B8
:10393000156E14C0E6FFE66EAFEC0BF0186E060EC7
:10394000E15E1850000902E057EF23F000EF22F08B
:10395000010EDB50DF6E3A0EE66ECD0EE66ED950EC
:10396000020FE66E000EDA20E66E1CEC00F0E55267
:10397000E552E552E552D9CFE6FFDACFE6FFD9505E
:10398000020FE66E000EDA20E66EDFCF16F0176A41
:1039900016BE1768FD0EDB501624146EFE0EDB50AB
:1039A0001720156E14C0E6FFE66E8FEC0AF0186E55
:1039B000060EE15E1850000949E00701010EA76FED
:1039C000D9CFE6FFDACFE6FFA80EE66E070EE66E69
:1039D000DFCF16F0176A16BE1768FD0EDB501624EF
:1039E000146EFE0EDB501720156E14C0E6FFE66E57
:1039F000AFEC0BF0186E060EE15E1850000902E104
:103A000000EF22F0D9CFE6FFDACFE6FFA90EE66E8F
:103A1000070EE66EDFCF16F0176A16BE1768FD0EAA
:103A2000DB501624146EFE0EDB501720156E14C0EA
:103A3000E6FFE66EAFEC0BF0186E060EE15E185076
:103A4000000902E057EF23F000EF22F0010EDB50F7
:103A5000DF6E700EE66ECD0EE66ED950020FE66E8A
:103A6000000EDA20E66E1CEC00F0E552E552E5525D
:103A7000E552D9CFE6FFDACFE6FFD950020FE66E66
:103A8000000EDA20E66EDFCF16F0176A16BE176852
:103A9000FD0EDB501624146EFE0EDB501720156E43
:103AA00014C0E6FFE66E8FEC0AF0186E060EE15EBB
:103AB000185000091EE00701010EAA6FAB0EE66E5A
:103AC000070EE66ED9CFE6FFDACFE6FFFD0EDBCFBD
:103AD000E6FFFE0EDBCFE6FFC1EC0CF0146E060E27
:103AE000E15E1450000902E100EF22F00701280E08
:103AF00052D0010EDB50DF6E690EE66ECD0EE66E23
:103B0000D950020FE66E000EDA20E66E1CEC00F0D3
:103B1000E552E552E552E552D9CFE6FFDACFE6FFAE
:103B2000D950020FE66E000EDA20E66EDFCF16F0F7
:103B3000176A16BE1768FD0EDB501624146EFE0EB3
:103B4000DB501720156E14C0E6FFE66E8FEC0AF00E
:103B5000186E060EE15E1850000920E00701010E04
:103B6000AA6FAB0EE66E070EE66ED9CFE6FFDACF90
:103B7000E6FFFD0EDBCFE6FFFE0EDBCFE6FFC1EC7E
:103B80000CF0146E060EE15E1450000902E100EF25
:103B900022F00701290EAF6F57EF23F0010EDB5023
:103BA000DF6E570EE66ECD0EE66ED950020FE66E52
:103BB000000EDA20E66E1CEC00F0E552E552E5520C
:103BC000E552D9CFE6FFDACFE6FFD950020FE66E15
:103BD000000EDA20E66EDFCF16F0176A16BE176801
:103BE000FD0EDB501624146EFE0EDB501720156EF2
:103BF00014C0E6FFE66E8FEC0AF0186E060EE15E6A
:103C00001850000901E126D20701010EB06FD9CF8B
:103C1000E6FFDACFE6FFB10EE66E070EE66EDFCF07
:103C200016F0176A16BE1768FD0EDB501624146EC8
:103C3000FE0EDB501720156E14C0E6FFE66EAFECEB
:103C40000BF0186E060EE15E1850000901E1D8D3A2
:103C5000340EE66ECD0EE66ED950020FE66E000E03
:103C6000DA20E66E1CEC00F0E552E552E552E55232
:103C7000D9CFE6FFDACFE6FFD950020FE66E000E8D
:103C8000DA20E66EDFCF16F0176A16BE1768FD0E53
:103C9000DB501624146EFE0EDB501720156E14C078
:103CA000E6FFE66E8FEC0AF0186E060EE15E185025
:103CB000000901E1A5D3010EDFCFDBFF2E0EE66E7A
:103CC000CD0EE66ED950020FE66E000EDA20E66EDB
:103CD0001CEC00F0E552E552E552E552D9CFE6FF83
:103CE000DACFE6FFD950020FE66E000EDA20E66E5C
:103CF000DFCF16F0176A16BE1768FD0EDB501624CC
:103D0000146EFE0EDB501720156E14C0E6FFE66E33
:103D10008FEC0AF0186E060EE15E1850000903E001
:103D20000701B2695DD0010EDB50DF6E280EE66E32
:103D3000CD0EE66ED950020FE66E000EDA20E66E6A
:103D40001CEC00F0E552E552E552E552D9CFE6FF12
:103D5000DACFE6FFD950020FE66E000EDA20E66EEB
:103D6000DFCF16F0176A16BE1768FD0EDB5016245B
:103D7000146EFE0EDB501720156E14C0E6FFE66EC3
:103D80008FEC0AF0186E060EE15E1850000904E090
:103D90000701EE0EB26F24D0010EDB50DF6ED9CFDB
:103DA000E6FFDACFE6FFB20EE66E070EE66EDFCF75
:103DB00016F0176A16BE1768FD0EDB501624146E37
:103DC000FE0EDB501720156E14C0E6FFE66EAFEC5A
:103DD0000BF0186E060EE15E1850000901E110D3D9
:103DE000010EDFCFDBFF230EE66ECD0EE66ED9505F
:103DF000020FE66E000EDA20E66E1CEC00F0E552D3
:103E0000E552E552E552D9CFE6FFDACFE6FFD950C9
:103E1000020FE66E000EDA20E66EDFCF16F0176AAC
:103E200016BE1768FD0EDB501624146EFE0EDB5016
:103E30001720156E14C0E6FFE66E8FEC0AF0186EC0
:103E4000060EE15E1850000903E00701130E38D09A
:103E5000010EDB50DF6E1E0EE66ECD0EE66ED95003
:103E6000020FE66E000EDA20E66E1CEC00F0E55262
:103E7000E552E552E552D9CFE6FFDACFE6FFD95059
:103E8000020FE66E000EDA20E66EDFCF16F0176A3C
:103E900016BE1768FD0EDB501624146EFE0EDB50A6
:103EA0001720156E14C0E6FFE66E8FEC0AF0186E50
:103EB000060EE15E1850000901E1A2D20701140EBE
:103EC000B36F160EE66ECD0EE66ED950020FE66E9B
:103ED000000EDA20E66E1CEC00F0E552E552E552E9
:103EE000E552D9CFE6FFDACFE6FFD950020FE66EF2
:103EF000000EDA20E66EDFCF16F0176A16BE1768DE
:103F0000FD0EDB501624146EFE0EDB501720156ECE
:103F100014C0E6FFE66E8FEC0AF0186E060EE15E46
:103F20001850000901E16CD2010EDFCFDBFF2E0E2D
:103F3000E66ECD0EE66ED950020FE66E000EDA2068
:103F4000E66E1CEC00F0E552E552E552E552D9CFA1
:103F5000E6FFDACFE6FFD950020FE66E000EDA2058
:103F6000E66EDFCF16F0176A16BE1768FD0EDB503F
:103F70001624146EFE0EDB501720156E14C0E6FFDB
:103F8000E66E8FEC0AF0186E060EE15E185000091E
:103F900003E00701B4698BD3010EDB50DF6E280EFE
:103FA000E66ECD0EE66ED950020FE66E000EDA20F8
:103FB000E66E1CEC00F0E552E552E552E552D9CF31
:103FC000E6FFDACFE6FFD950020FE66E000EDA20E8
:103FD000E66EDFCF16F0176A16BE1768FD0EDB50CF
:103FE0001624146EFE0EDB501720156E14C0E6FF6B
:103FF000E66E8FEC0AF0186E060EE15E18500009AE
:1040000004E00701EE0EB46F52D3010EDB50DF6EF9
:10401000D9CFE6FFDACFE6FFB40EE66E070EE66E06
:10402000DFCF16F0176A16BE1768FD0EDB50162498
:10403000146EFE0EDB501720156E14C0E6FFE66E00
:10404000AFEC0BF0186E060EE15E1850000901E0AF
:104050002ED3D6D1010EDB50DF6E0E0EE66ECD0EE6
:10406000E66ED950020FE66E000EDA20E66E1CEC0A
:1040700000F0E552E552E552E552D9CFE6FFDACF3E
:10408000E6FFD950020FE66E000EDA20E66EDFCFB3
:1040900016F0176A16BE1768FD0EDB501624146E54
:1040A000FE0EDB501720156E14C0E6FFE66E8FEC97
:1040B0000AF0186E060EE15E1850000905E00701CF
:1040C000010EB56F2E0E21D1010EDB50DF6E060EF4
:1040D000E66ECD0EE66ED950020FE66E000EDA20C7
:1040E000E66E1CEC00F0E552E552E552E552D9CF00
:1040F000E6FFDACFE6FFD950020FE66E000EDA20B7
:10410000E66EDFCF16F0176A16BE1768FD0EDB509D
:104110001624146EFE0EDB501720156E14C0E6FF39
:10412000E66E8FEC0AF0186E060EE15E185000097C
:1041300005E00701010EB56F2F0EE7D0010EDB5031
:10414000DF6EFE0EE66ECC0EE66ED950020FE66E06
:10415000000EDA20E66E1CEC00F0E552E552E55266
:10416000E552D9CFE6FFDACFE6FFD950020FE66E6F
:10417000000EDA20E66EDFCF16F0176A16BE17685B
:10418000FD0EDB501624146EFE0EDB501720156E4C
:1041900014C0E6FFE66E8FEC0AF0186E060EE15EC4
:1041A0001850000905E00701010EB56F300EADD0C3
:1041B000010EDB50DF6EF60EE66ECC0EE66ED950C9
:1041C000020FE66E000EDA20E66E1CEC00F0E552FF
:1041D000E552E552E552D9CFE6FFDACFE6FFD950F6
:1041E000020FE66E000EDA20E66EDFCF16F0176AD9
:1041F00016BE1768FD0EDB501624146EFE0EDB5043
:104200001720156E14C0E6FFE66E8FEC0AF0186EEC
:10421000060EE15E1850000905E00701010EB56FBA
:10422000310E73D0010EDB50DF6EEF0EE66ECC0E5A
:10423000E66ED950020FE66E000EDA20E66E1CEC38
:1042400000F0E552E552E552E552D9CFE6FFDACF6C
:10425000E6FFD950020FE66E000EDA20E66EDFCFE1
:1042600016F0176A16BE1768FD0EDB501624146E82
:10427000FE0EDB501720156E14C0E6FFE66E8FECC5
:104280000AF0186E060EE15E1850000905E00701FD
:10429000010EB56F2B0E39D0010EDB50DF6EE50E2F
:1042A000E66ECC0EE66ED950020FE66E000EDA20F6
:1042B000E66E1CEC00F0E552E552E552E552D9CF2E
:1042C000E6FFDACFE6FFD950020FE66E000EDA20E5
:1042D000E66EDFCF16F0176A16BE1768FD0EDB50CC
:1042E0001624146EFE0EDB501720156E14C0E6FF68
:1042F000E66E8FEC0AF0186E060EE15E18500009AB
:1043000006E00701010EB56F2C0EB66FD0D1010E7D
:10431000DB50DF6E8A0EE66ECD0EE66ED950020FD0
:10432000E66E000EDA20E66E1CEC00F0E552E55277
:10433000E552E552D9CFE6FFDACFE6FFD950020FBA
:10434000E66E000EDA20E66EDFCF16F0176A16BEB4
:104350001768FD0EDB501624146EFE0EDB5017207E
:10436000156E14C0E6FFE66E8FEC0AF0186E060EAE
:10437000E15E1850000946E00701010EB76FD9CF82
:10438000E6FFDACFE6FFB80EE66E070EE66EDFCF89
:1043900016F0176A16BE1768FD0EDB501624146E51
:1043A000FE0EDB501720156E14C0E6FFE66EAFEC74
:1043B0000BF0186E060EE15E1850000921E0D9CF0F
:1043C000E6FFDACFE6FFB90EE66E070EE66EDFCF48
:1043D00016F0176A16BE1768FD0EDB501624146E11
:1043E000FE0EDB501720156E14C0E6FFE66EAFEC34
:1043F0000BF0186E060EE15E1850000901E057D16F
:10440000000E5AD1010EDB50DF6ED70EE66ECC0ED9
:10441000E66ED950020FE66E000EDA20E66E1CEC56
:1044200000F0E552E552E552E552D9CFE6FFDACF8A
:10443000E6FFD950020FE66E000EDA20E66EDFCFFF
:1044400016F0176A16BE1768FD0EDB501624146EA0
:10445000FE0EDB501720156E14C0E6FFE66E8FECE3
:104460000AF0186E060EE15E1850000904E007011C
:10447000010EBA6F1CD1010EDB50DF6ED10EE66E5D
:10448000CC0EE66ED950020FE66E000EDA20E66E14
:104490001CEC00F0E552E552E552E552D9CFE6FFBB
:1044A000DACFE6FFD950020FE66E000EDA20E66E94
:1044B000DFCF16F0176A16BE1768FD0EDB50162404
:1044C000146EFE0EDB501720156E14C0E6FFE66E6C
:1044D0008FEC0AF0186E060EE15E1850000904E039
:1044E0000701010EBB6FE3D0010EDB50DF6ECB0E78
:1044F000E66ECC0EE66ED950020FE66E000EDA20A4
:10450000E66E1CEC00F0E552E552E552E552D9CFDB
:10451000E6FFDACFE6FFD950020FE66E000EDA2092
:10452000E66EDFCF16F0176A16BE1768FD0EDB5079
:104530001624146EFE0EDB501720156E14C0E6FF15
:10454000E66E8FEC0AF0186E060EE15E1850000958
:1045500004E00701010EBC6FAAD0010EDB50DF6E34
:10456000C50EE66ECC0EE66ED950020FE66E000E5A
:10457000DA20E66E1CEC00F0E552E552E552E55219
:10458000D9CFE6FFDACFE6FFD950020FE66E000E74
:10459000DA20E66EDFCF16F0176A16BE1768FD0E3A
:1045A000DB501624146EFE0EDB501720156E14C05F
:1045B000E6FFE66E8FEC0AF0186E060EE15E18500C
:1045C000000904E00701010EBD6F71D0010EDB5040
:1045D000DF6EBD0EE66ECC0EE66ED950020FE66EB3
:1045E000000EDA20E66E1CEC00F0E552E552E552D2
:1045F000E552D9CFE6FFDACFE6FFD950020FE66EDB
:10460000000EDA20E66EDFCF16F0176A16BE1768C6
:10461000FD0EDB501624146EFE0EDB501720156EB7
:1046200014C0E6FFE66E8FEC0AF0186E060EE15E2F
:104630001850000904E00701010EBE6F38D0010ECA
:10464000DB50DF6EB80EE66ECC0EE66ED950020F70
:10465000E66E000EDA20E66E1CEC00F0E552E55244
:10466000E552E552D9CFE6FFDACFE6FFD950020F87
:10467000E66E000EDA20E66EDFCF16F0176A16BE81
:104680001768FD0EDB501624146EFE0EDB5017204B
:10469000156E14C0E6FFE66E8FEC0AF0186E060E7B
:1046A000E15E1850000907E00701010EBF6F7BECC7
:1046B00009F0010E01D0000E146E0D0EE15C02E255
:1046C000E16AE552E16E1450E552E7CFD9FF1200DE
:1046D000D9CFE6FFE1CFD9FF030EE126010EDB6A59
:1046E000DF6ADFCF14F0620EE76E1418E8AE02D076
:1046F000E73402D0E750145C0CE2DFCFE9FFEA6A4E
:10470000E9BEEA68000EE926080EEA22EF6ADF2A0F
:10471000E8D7DF6ADFCF14F04E0EE76E1418E8AE6C
:1047200002D0E73402D0E750145C53E2DFCFE9FF58
:10473000EA6AE9BEEA689E0EE926070EEA22EF5011
:1047400048E0020EDB6ADBCF14F0DFCFE9FFEA6A54
:10475000E9BEEA689E0EE926070EEA22EF50E76EF0
:104760001418E8AE02D0E73402D0E750145C2EE211
:10477000010EDBCF14F0620EE76E1418E8AE02D023
:10478000E73402D0E750145C03E34ED9000E48D062
:10479000DF28E96EEA6AE9BEEA689E0EE926070E9E
:1047A000EA22EF50E66E010EDBCFF3FFDB2AF35077
:1047B000E96EEA6AE9BEEA68000EE926080EEA2216
:1047C000E552E750EF6E020EDB2ABDD7020EDF2660
:1047D000A1D7DF6ADFCF14F0620EE76E1418E8AEDF
:1047E00002D0E73402D0E750145C19E2DFCFE9FFD2
:1047F000EA6AE9BEEA68000EE926080EEA22EF50EE
:10480000E66EDFCFE9FFEA6AE9BEEA689E0EE926B6
:10481000070EEA22E552E750EF6EDF2ADBD7010EE2
:10482000146E030EE15C02E2E16AE552E16E14509F
:10483000E552E7CFD9FF1200D9CFE6FFE1CFD9FF8C
:10484000040EE126010EDB6ADF6A030E9EC7DBFF62
:10485000020EDB6A010EDBCF14F0620EE76E141855
:10486000E8AE02D0E73402D0E750145C01E38AD00E
:10487000010EDBCFE9FFEA6AE9BEEA689E0EE9268F
:10488000070EEA22EFCF14F0030EDB50145C10E1A8
:10489000020EDB2A010EDB2ADBCF14F0620EE76E7C
:1048A0001418E8AE02D0E73402D0E750145CE0E31D
:1048B000DFCF14F04F0EE76E1418E8AE02D0E734E5
:1048C00002D0E750145C26E2DFCF15F0600EE76EF1
:1048D0001518E8AE02D0E73402D0E750155C1AE2B2
:1048E000DF50DF2AE96EEA6AE9BEEA68000EE926CF
:1048F000080EEA22020EDBCFEFFFDF50DF2AE96E5F
:10490000EA6AE9BEEA68000EE926080EEA22030E0A
:10491000DBCFEFFFDFCF14F0500EE76E1418E8AED8
:1049200002D0E73402D0E750145C1EE3010EDB6ACC
:10493000DBCF14F0620EE76E1418E8AE02D0E73455
:1049400002D0E750145C0EE2010EDBCFE9FFEA6A09
:10495000E9BEEA689E0EE926070EEA22EF6A010E1A
:10496000DB2AE6D7000E54D0010EDBCFE9FFEA6A5E
:10497000E9BEEA689E0EE926070EEA22030EEFCF93
:10498000DBFF66D7010EDB6ADBCF14F0DF50E76E8A
:104990001418E8AE02D0E73402D0E750145C1CE2F1
:1049A000010EDBCFE9FFEA6AE9BEEA68000EE926FC
:1049B000080EEA22EF50E66E010EDBCFE9FFEA6A4D
:1049C000E9BEEA689E0EE926070EEA22E552E750A4
:1049D000EF6E010EDB2AD8D7010EDBCF14F0620E8A
:1049E000E76E1418E8AE02D0E73402D0E750145C4A
:1049F0000EE2010EDBCFE9FFEA6AE9BEEA689E0E2D
:104A0000E926070EEA22EF6A010EDB2AE5D7DF501E
:104A1000146E040EE15C02E2E16AE552E16E1450AC
:104A2000E552E7CFD9FF1200D9CFE6FFE1CFD9FF9A
:104A3000E652DF6ADFCF14F0620EE76E1418E8AEBC
:104A400002D0E73402D0E750145C0CE2DFCFE9FF7C
:104A5000EA6AE9BEEA689E0EE926070EEA22EF6AD4
:104A6000DF2AE8D7E552E552E7CFD9FF1200D9CFC8
:104A7000E6FFE1CFD9FFE652FE0EDBCF14F00001D6
:104A80006F51E76E1418E8AE02D0E73402D0E75059
:104A9000145C1DE3FE0EDBCF14F0156A14BE15681E
:104AA00014C0E6FF15C0E6FFC30EE66ECD0EE66E3F
:104AB000620EE66E070EE66E1CEC00F0166E060E39
:104AC000E15E16500001150E706F000E54D0DF6AC3
:104AD000DFCF14F00F0EE76E1418E8AE02D0E73403
:104AE00002D0E750145C45E2010E696F6FC018F008
:104AF000196A18BE19680F0E1902F3CF19F01802BF
:104B0000F3CF18F0F4501926620E1826080E192259
:104B1000DFCF1AF01B6A1ABE1B6818501A24E96E00
:104B200019501B20EA6EEF50E66EFE0EDBCF14F03C
:104B3000156A14BE15680F0E1502F3CF15F0140296
:104B4000F3CF14F0F4501526620E1426080E152229
:104B5000DFCF16F0176A16BE176814501624E96ED8
:104B600015501720EA6EE552E750EF6E696BDF2AA9
:104B7000AFD71FEC07F0E552E552E7CFD9FF12009F
:104B8000D9CFE6FFE1CFD9FF050EE126FE0EDBCF40
:104B900014F0460EE76E1418E8AE02D0E73402D0E7
:104BA000E750145C16E3FE0EDBCFE6FFC30EE66EA5
:104BB000CD0EE66E620EE66E070EE66E1CEC00F0A1
:104BC000146E050EE15E14500001110E706F000EA0
:104BD000EAD30001010E696F0701CA0560E1FE0E0C
:104BE000DBCFE9FFEA6AE9BEEA680F0EEA02F3CF1B
:104BF000EAFFE902F3CFE9FFF450EA26620EE92664
:104C0000080EEA22EF6AFE0EDBCFE9FFEA6AE9BE90
:104C1000EA680F0EEA02F3CFEAFFE902F3CFE9FFF9
:104C2000F450EA26620EE926080EEA22010EE92671
:104C3000000EEA22CBC7EFFFFE0EDBCFE9FFEA6AE8
:104C4000E9BEEA680F0EEA02F3CFEAFFE902F3CF0A
:104C5000E9FFF450EA26620EE926080EEA22020E67
:104C6000E926000EEA22CCC7EFFFFE0EDBCFE9FFFC
:104C7000EA6AE9BEEA680F0EEA02F3CFEAFFE90248
:104C8000F3CFE9FFF450EA26620EE926080EEA2285
:104C9000030EE926000EEA22CDC7EFFFACD0CE0509
:104CA00048E1FE0EDBCFE9FFEA6AE9BEEA680F0ED3
:104CB000EA02F3CFEAFFE902F3CFE9FFF450EA2674
:104CC000620EE926080EEA22010EEF6EFE0EDBCF21
:104CD000E9FFEA6AE9BEEA680F0EEA02F3CFEAFFEB
:104CE000E902F3CFE9FFF450EA26620EE926080E46
:104CF000EA22010EE926000EEA22CFC7EFFFFE0EE0
:104D0000DBCFE9FFEA6AE9BEEA680F0EEA02F3CFF9
:104D1000EAFFE902F3CFE9FFF450EA26620EE92642
:104D2000080EEA22020EE926000EEA22D0C7EFFFA3
:104D300062D0D10560E1FE0EDBCFE9FFEA6AE9BE91
:104D4000EA680F0EEA02F3CFEAFFE902F3CFE9FFC8
:104D5000F450EA26620EE926080EEA22020EEF6EF1
:104D6000FE0EDBCFE9FFEA6AE9BEEA680F0EEA024F
:104D7000F3CFEAFFE902F3CFE9FFF450EA26620E2F
:104D8000E926080EEA22010EE926000EEA22D2C721
:104D9000EFFFFE0EDBCFE9FFEA6AE9BEEA680F0E1D
:104DA000EA02F3CFEAFFE902F3CFE9FFF450EA2683
:104DB000620EE926080EEA22020EE926000EEA2219
:104DC000D3C7EFFFFE0EDBCFE9FFEA6AE9BEEA6870
:104DD0000F0EEA02F3CFEAFFE902F3CFE9FFF45046
:104DE000EA26620EE926080EEA22030EE926000EE4
:104DF000EA22D4C7EFFFD5054BE1FE0EDBCFE9FF7A
:104E0000EA6AE9BEEA680F0EEA02F3CFEAFFE902B6
:104E1000F3CFE9FFF450EA26620EE926080EEA22F3
:104E2000040EE926000EEA22EF6AFE0EDBCFE9FF50
:104E3000EA6AE9BEEA680F0EEA02F3CFEAFFE90286
:104E4000F3CFE9FFF450EA26620EE926080EEA22C3
:104E5000050EE926000EEA22D6C7EFFFFE0EDBCFD5
:104E6000E9FFEA6AE9BEEA680F0EEA02F3CFEAFF59
:104E7000E902F3CFE9FFF450EA26620EE926080EB4
:104E8000EA22060EE926000EEA22D7C7EFFF06D275
:104E9000D8054CE1FE0EDBCFE9FFEA6AE9BEEA681D
:104EA0000F0EEA02F3CFEAFFE902F3CFE9FFF45075
:104EB000EA26620EE926080EEA22040EE926000E12
:104EC000EA22010EEF6EFE0EDBCFE9FFEA6AE9BED1
:104ED000EA680F0EEA02F3CFEAFFE902F3CFE9FF37
:104EE000F450EA26620EE926080EEA22050EE926AB
:104EF000000EEA22D9C7EFFFFE0EDBCFE9FFEA6A18
:104F0000E9BEEA680F0EEA02F3CFEAFFE902F3CF47
:104F1000E9FFF450EA26620EE926080EEA22060EA0
:104F2000E926000EEA22DAC7EFFFB8D1DB054CE133
:104F3000FE0EDBCFE9FFEA6AE9BEEA680F0EEA027D
:104F4000F3CFEAFFE902F3CFE9FFF450EA26620E5D
:104F5000E926080EEA22040EE926000EEA22020ED5
:104F6000EF6EFE0EDBCFE9FFEA6AE9BEEA680F0EDC
:104F7000EA02F3CFEAFFE902F3CFE9FFF450EA26B1
:104F8000620EE926080EEA22050EE926000EEA2244
:104F9000DCC7EFFFFE0EDBCFE9FFEA6AE9BEEA6895
:104FA0000F0EEA02F3CFEAFFE902F3CFE9FFF45074
:104FB000EA26620EE926080EEA22060EE926000E0F
:104FC000EA22DDC7EFFF6AD1DE0565E1FE0EDBCF29
:104FD000E9FFEA6AE9BEEA680F0EEA02F3CFEAFFE8
:104FE000E902F3CFE9FFF450EA26620EE926080E43
:104FF000EA22040EE926000EEA22030EEF6EFE0EF0
:10500000DBCFE9FFEA6AE9BEEA680F0EEA02F3CFF6
:10501000EAFFE902F3CFE9FFF450EA26620EE9263F
:10502000080EEA22050EE926000EEA22DFC7EFFF8E
:10503000FE0EDBCFE9FFEA6AE9BEEA680F0EEA027C
:10504000F3CFEAFFE902F3CFE9FFF450EA26620E5C
:10505000E926080EEA22060EE926000EEA22E0C73B
:10506000EFFFFE0EDBCFE9FFEA6AE9BEEA680F0E4A
:10507000EA02F3CFEAFFE902F3CFE9FFF450EA26B0
:10508000620EE926080EEA22070EE926000EEA2241
:10509000E3C7EFFF03D1E40501E07ED0FE0EDBCFD6
:1050A000E9FFEA6AE9BEEA680F0EEA02F3CFEAFF17
:1050B000E902F3CFE9FFF450EA26620EE926080E72
:1050C000EA22040EE926000EEA22040EEF6EFE0E1E
:1050D000DBCFE9FFEA6AE9BEEA680F0EEA02F3CF26
:1050E000EAFFE902F3CFE9FFF450EA26620EE9266F
:1050F000080EEA22050EE926000EEA22E5C7EFFFB8
:10510000FE0EDBCFE9FFEA6AE9BEEA680F0EEA02AB
:10511000F3CFEAFFE902F3CFE9FFF450EA26620E8B
:10512000E926080EEA22060EE926000EEA22E6C764
:10513000EFFFFE0EDBCFE9FFEA6AE9BEEA680F0E79
:10514000EA02F3CFEAFFE902F3CFE9FFF450EA26DF
:10515000620EE926080EEA22070EE926000EEA2270
:10516000E7C7EFFFFE0EDBCFE9FFEA6AE9BEEA68B8
:105170000F0EEA02F3CFEAFFE902F3CFE9FFF450A2
:10518000EA26620EE926080EEA22080EE926000E3B
:10519000EA22E8C7EFFF82D0E90533E1FE0EDBCF5C
:1051A000E9FFEA6AE9BEEA680F0EEA02F3CFEAFF16
:1051B000E902F3CFE9FFF450EA26620EE926080E71
:1051C000EA22040EE926000EEA22050EEF6EFE0E1C
:1051D000DBCFE9FFEA6AE9BEEA680F0EEA02F3CF25
:1051E000EAFFE902F3CFE9FFF450EA26620EE9266E
:1051F000080EEA22050EE926000EEA22EAC7EFFFB2
:105200004DD0EB054BE1FE0EDBCFE9FFEA6AE9BECC
:10521000EA680F0EEA02F3CFEAFFE902F3CFE9FFF3
:10522000F450EA26620EE926080EEA22040EE92668
:10523000000EEA22060EEF6EFE0EDBCFE9FFEA6AF1
:10524000E9BEEA680F0EEA02F3CFEAFFE902F3CF04
:10525000E9FFF450EA26620EE926080EEA22050E5E
:10526000E926000EEA22ECC7EFFFFE0EDBCFE9FFD6
:10527000EA6AE9BEEA680F0EEA02F3CFEAFFE90242
:10528000F3CFE9FFF450EA26620EE926080EEA227F
:10529000060EE926000EEA22EDC7EFFFFE0EDBCF79
:1052A000E9FFEA6AE9BEEA680F0EEA02F3CFEAFF15
:1052B000E902F3CFE9FFF450EA26620EE926080E70
:1052C000EA22090EE926000EEA22EEC7EFFFFE0EE3
:1052D000DBCFE9FFEA6AE9BEEA680F0EEA02F3CF24
:1052E000EAFFE902F3CFE9FFF450EA26620EE9266D
:1052F000080EEA220A0EE926000EEA22EFC7EFFFA7
:10530000FE0EDBCFE9FFEA6AE9BEEA680F0EEA02A9
:10531000F3CFEAFFE902F3CFE9FFF450EA26620E89
:10532000E926080EEA220B0EE926000EEA22F0C753
:10533000EFFFFE0EDBCFE9FFEA6AE9BEEA680F0E77
:10534000EA02F3CFEAFFE902F3CFE9FFF450EA26DD
:10535000620EE926080EEA220C0EE926000EEA2269
:10536000F1C7EFFFFE0EDBCFE9FFEA6AE9BEEA68AC
:105370000F0EEA02F3CFEAFFE902F3CFE9FFF450A0
:10538000EA26620EE926080EEA220D0EE926000E34
:10539000EA22EF6AFE0EDB5000016F5D01E16F2B28
:1053A000696B1FEC07F0146E050EE15C02E2E16A26
:1053B000E552E16E1450E552E7CFD9FF1200D9CF84
:1053C000E6FFE1CFD9FFE65214EC25F00701020E0B
:1053D0009E6F60C09FF7030EDF6EDFCF14F01B0ED1
:1053E000E76E1418E8AE02D0143403D0E750D8802A
:1053F00014540CE3DFCFE9FFEA6AE9BEEA689E0EC7
:10540000E926070EEA22EF6ADF2AE7D7FE0EDBCF96
:10541000E9FFEA6AE9BEEA680F0EEA02F3CFEAFFA3
:10542000E902F3CFE9FFF450EA26620EE926080EFE
:10543000EA22040EE926000EEA22EF50060A01E1F4
:1054400086D1030A01E166D1010A01E1FBD0070A16
:1054500001E1A9D0010A71E0030A39E0010A01E083
:10546000ABD10701010EA16FFE0EDBCFE9FFEA6AA7
:10547000E9BEEA680F0EEA02F3CFEAFFE902F3CFD2
:10548000E9FFF450EA26620EE926080EEA22050E2C
:10549000E926000EEA22EFCFA2F7FE0EDBCFE9FFEE
:1054A000EA6AE9BEEA680F0EEA02F3CFEAFFE90210
:1054B000F3CFE9FFF450EA26620EE926080EEA224D
:1054C000060EE926000EEA22EFCFA3F775D10701F9
:1054D000010EA46FFE0EDBCFE9FFEA6AE9BEEA68BF
:1054E0000F0EEA02F3CFEAFFE902F3CFE9FFF4502F
:1054F000EA26620EE926080EEA22050EE926000ECB
:10550000EA22EFCFA5F7FE0EDBCFE9FFEA6AE9BE9C
:10551000EA680F0EEA02F3CFEAFFE902F3CFE9FFF0
:10552000F450EA26620EE926080EEA22060EE92663
:10553000000EEA22EFCFA6F73FD10701010EA76FB9
:10554000FE0EDBCFE9FFEA6AE9BEEA680F0EEA0267
:10555000F3CFEAFFE902F3CFE9FFF450EA26620E47
:10556000E926080EEA22050EE926000EEA22EFCF10
:10557000A8F7FE0EDBCFE9FFEA6AE9BEEA680F0E84
:10558000EA02F3CFEAFFE902F3CFE9FFF450EA269B
:10559000620EE926080EEA22060EE926000EEA222D
:1055A000EFCFA9F709D10701010EAA6FFE0EDBCFDD
:1055B000E9FFEA6AE9BEEA680F0EEA02F3CFEAFF02
:1055C000E902F3CFE9FFF450EA26620EE926080E5D
:1055D000EA22050EE926000EEA22EFCFABF7FE0E17
:1055E000DBCFE9FFEA6AE9BEEA680F0EEA02F3CF11
:1055F000EAFFE902F3CFE9FFF450EA26620EE9265A
:10560000080EEA22060EE926000EEA22EFCFACF7DA
:10561000FE0EDBCFE9FFEA6AE9BEEA680F0EEA0296
:10562000F3CFEAFFE902F3CFE9FFF450EA26620E76
:10563000E926080EEA22070EE926000EEA22EFCF3D
:10564000AFF7BAD00701010EB06FFE0EDBCFE9FF56
:10565000EA6AE9BEEA680F0EEA02F3CFEAFFE9025E
:10566000F3CFE9FFF450EA26620EE926080EEA229B
:10567000050EE926000EEA22EFCFB1F7FE0EDBCFD2
:10568000E9FFEA6AE9BEEA680F0EEA02F3CFEAFF31
:10569000E902F3CFE9FFF450EA26620EE926080E8C
:1056A000EA22060EE926000EEA22EFCFB2F7FE0E3E
:1056B000DBCFE9FFEA6AE9BEEA680F0EEA02F3CF40
:1056C000EAFFE902F3CFE9FFF450EA26620EE92689
:1056D000080EEA22070EE926000EEA22EFCFB3F702
:1056E000FE0EDBCFE9FFEA6AE9BEEA680F0EEA02C6
:1056F000F3CFEAFFE902F3CFE9FFF450EA26620EA6
:10570000E926080EEA22080EE926000EEA22EFCF6B
:10571000B4F752D00701010EB56FFE0EDBCFE9FFE3
:10572000EA6AE9BEEA680F0EEA02F3CFEAFFE9028D
:10573000F3CFE9FFF450EA26620EE926080EEA22CA
:10574000050EE926000EEA22EFCFB6F735D00701A5
:10575000010EB76FFE0EDBCFE9FFEA6AE9BEEA6829
:105760000F0EEA02F3CFEAFFE902F3CFE9FFF450AC
:10577000EA26620EE926080EEA22050EE926000E48
:10578000EA22EFCFB8F7FE0EDBCFE9FFEA6AE9BE07
:10579000EA680F0EEA02F3CFEAFFE902F3CFE9FF6E
:1057A000F450EA26620EE926080EEA22060EE926E1
:1057B000000EEA22EFCFB9F7E552E552E7CFD9FF65
:1057C0001200D9CFE6FFE1CFD9FF0001010E696FCA
:1057D000FE0EDBCF14F0156A14BE1568D00E15024C
:1057E000F3CF15F0070E1402F3501526D00E140255
:1057F000F3CF14F0F4501526FC0EDBCFE9FFEA6A74
:10580000E9BEEA68D890E936EA36A60EE926030E24
:10581000EA2214C0EEFF15C0EDFF696B010E696F3F
:10582000FD0EDBCF14F0156A14BE1568FC0EDBCF3D
:10583000E9FFEA6AE9BEEA68D890E936EA36AE0ED0
:10584000E926030EEA2214C0EEFF15C0EDFF696BD6
:10585000E552E7CFD9FF1200D9CFE6FFE1CFD9FF5C
:105860001A0EE126E30EE66ECD0EE66EC20EE66E71
:10587000060EE66E1CEC00F0E552E552E552E552EC
:105880000701F50501E0B0D00001605107019F5DFF
:1058900002E15AEC41F0020EF6C7DBFF030EF7C738
:1058A000DBFF040EF8C7DBFFDF6ADFCF14F0000177
:1058B0006F51E76E1418E8AE02D0E73402D0E7501B
:1058C000145C02E3C1EF3DF0DFCFE9FFEA6AE9BE15
:1058D000EA680F0EEA02F3CFEAFFE902F3CFE9FF2D
:1058E000F450EA26620EE926080EEA22EF5002087A
:1058F00001E078D0DFCFE9FFEA6AE9BEEA680F0E7F
:10590000EA02F3CFEAFFE902F3CFE9FFF450EA2617
:10591000620EE926080EEA22090EE926000EEA22A6
:10592000EF5028085FE1DFCFE9FFEA6AE9BEEA68E5
:105930000F0EEA02F3CFEAFFE902F3CFE9FFF450DA
:10594000EA26620EE926080EEA22010EE926000E7A
:10595000EA22EFCF14F0020EDB50145C43E1DFCFFC
:10596000E9FFEA6AE9BEEA680F0EEA02F3CFEAFF4E
:10597000E902F3CFE9FFF450EA26620EE926080EA9
:10598000EA22020EE926000EEA22EFCF15F0030EFE
:10599000DB50155C27E1DFCFE9FFEA6AE9BEEA6880
:1059A0000F0EEA02F3CFEAFFE902F3CFE9FFF4506A
:1059B000EA26620EE926080EEA22030EE926000E08
:1059C000EA22EFCF16F0040EDB50165C0BE1DFCFBE
:1059D000E6FFF5DCE552E66A3FDFE552000902E149
:1059E000EEEF37F0DF2A61D7F90501E0AFD0000113
:1059F000605107019F5D02E15AEC41F0070EFAC7C2
:105A0000DBFF080EFBC7DBFF090EFCC7DBFFDF6A0D
:105A1000DFCF14F000016F51E76E1418E8AE02D02A
:105A2000E73402D0E750145C02E3C1EF3DF0DFCF72
:105A3000E9FFEA6AE9BEEA680F0EEA02F3CFEAFF7D
:105A4000E902F3CFE9FFF450EA26620EE926080ED8
:105A5000EA22EF5001E078D0DFCFE9FFEA6AE9BE41
:105A6000EA680F0EEA02F3CFEAFFE902F3CFE9FF9B
:105A7000F450EA26620EE926080EEA22090EE9260B
:105A8000000EEA22EF5028085FE1DFCFE9FFEA6A63
:105A9000E9BEEA680F0EEA02F3CFEAFFE902F3CFAC
:105AA000E9FFF450EA26620EE926080EEA22010E0A
:105AB000E926000EEA22EFCF14F0070EDB50145C4B
:105AC00043E1DFCFE9FFEA6AE9BEEA680F0EEA02C6
