:020000040000FA
:0600000024EF74F0120071
:020006001200E6
:0600080004EF52F01200AB
:02000E00FEFFF3
:060018009EEF5DF01200F6
:02001E000200DE
:1000200091E800009B0000002E0000000E00000080
:08003000D500000002000000F1
:08003800D9CFE6FFE1CFD9FFAB
:10004000040EE126D950FB0F146EFF0EDA20156E58
:10005000020E14C0DBFF030E15C0DBFF020EDBCF68
:10006000E6FF030EDBCFE6FFFB0EDBCF14F0FC0E4A
:10007000DBCF15F0166A14C0E6FF15C0E6FF16C008
:10008000E6FFFD0EDBCFE6FFFE0EDBCFE6FF0AEC60
:1000900073F0176E070EE15E1750F3CFDEFFF4CF5B
:1000A000DDFFDECF14F0DDCF15F014C0F3FF15C077
:1000B000F4FF00D0040EE15C02E2E16AE552E16E79
:1000C000E552E7CFD9FF1200D9CFE6FFE1CFD9FF44
:1000D000FD0EDBCF14F0FE0EDBCF15F0153404E27D
:1000E0001450FF08030E155403E2000E27D026D04B
:1000F000FF0EE76EFD0EDBCF14F0FE0EDBCF15F02A
:10010000E7501416156A1450A96EFD0EDBCF14F0DB
:10011000FE0EDBCF15F015C014F0156A030E141493
:10012000AA6EA69EA69CA680FB0EDBCFE9FFFC0E66
:10013000DBCFEAFFA8CFEFFF010E00D0E552E7CFFB
:10014000D9FF1200D9CFE6FFE1CFD9FF030EE12698
:10015000090EDE6EDD6A0001010E696F00018A6919
:100160008B6900018E698F690001010E936F000198
:10017000696B050EF36E020EF3CFDBFF020EDBCFD1
:1001800014F0000EE76E1418E8AE02D0143403D059
:10019000E750D880145429E2020EDBCF14F0156A20
:1001A00014BE156814C0E6FF15C0E6FFCE0EE66E5D
:1001B000E00EE66EF70EE66E060EE66E3DDF166E9C
:1001C000060EE15E1650F70EE66E060EE66EB1EC18
:1001D0004FF0E552E552020EE66EE66AD7EC5FF0AC
:1001E000E552E552020EDB06C9D70001010E696F28
:1001F00000018C6B8D6B0001906B916B0001696B42
:10020000050EF36E020EF3CFDBFF020EDBCF14F010
:10021000000EE76E1418E8AE02D0143403D0E75095
:10022000D880145429E2020EDBCF14F0156A14BEF4
:10023000156814C0E6FF15C0E6FFC60EE66EE00EB8
:10024000E66EF70EE66E060EE66EF6DE166E060E2D
:10025000E15E1650F70EE66E060EE66EB1EC4FF05C
:10026000E552E552020EE66EE66AD7EC5FF0E55223
:10027000E552020EDB06C9D7650EE66EE10EE66EAC
:10028000C30EE66EE00EE66EF70EE66E060EE66E46
:10029000D3DE146E060EE15E1450F70EE66E060E07
:1002A000E66EB1EC4FF0E552E552020EE66EE66AFC
:1002B000D7EC5FF0E552E5520001010E696F0001D5
:1002C000936B0001696B8BC014F0156A1450E66ED5
:1002D000DFCF16F0DF2A010EDBCF17F001E3DB2AB8
:1002E00016C0E6FF17C0E6FF58DBE552E552E552BF
:1002F00000018A51E66EDFCF14F0DF2A010EDBCF5A
:1003000015F001E3DB2A14C0E6FF15C0E6FF45DB6C
:10031000E552E552E5528DC014F0156A1450E66EB0
:10032000DFCF16F0DF2A010EDBCF17F001E3DB2A67
:1003300016C0E6FF17C0E6FF30DBE552E552E55296
:1003400000018C51E66EDFCF14F0DF2A010EDBCF07
:1003500015F001E3DB2A14C0E6FF15C0E6FF1DDB44
:10036000E552E552E5528FC014F0156A1450E66E5E
:10037000DFCF16F0DF2A010EDBCF17F001E3DB2A17
:1003800016C0E6FF17C0E6FF08DBE552E552E5526E
:1003900000018E51E66EDFCF14F0DF2A010EDBCFB5
:1003A00015F001E3DB2A14C0E6FF15C0E6FFF5DA1D
:1003B000E552E552E55291C014F0156A1450E66E0C
:1003C000DFCF16F0DF2A010EDBCF17F001E3DB2AC7
:1003D00016C0E6FF17C0E6FFE0DAE552E552E55247
:1003E00000019051E66EDECFE6FFDDCFE6FFD5DA05
:1003F000E552E552E552030EE15C02E2E16AE552A4
:10040000E16EE552E7CFD9FF1200D9CFE6FFE1CF89
:10041000D9FF040EE126010EDB6A020EDB6A030E31
:10042000DB6A030EDBCF14F0080EE76E1418E8AE9B
:1004300002D0E73402D0E750145C17E2030EDBCFA2
:10044000E6FF010EDBCF14F0DB2A020EDBCF15F046
:1004500001E3DB2A14C0E6FF15C0E6FF9EDAE55291
:10046000E552E552030EDB2ADCD7080EF36E010ECF
:10047000F3CFDBFF020EDB6A060EDF6EDFCFE6FF97
:10048000010EDBCFE6FF020EDBCFE6FF86DAE55298
:10049000E552E552110EF36E010EF3CFDBFF020EB3
:1004A000DB6ADF6ADFCFE6FF010EDBCFE6FF020E7D
:1004B000DBCFE6FF72DAE552E552E5520001010EAC
:1004C000696F0001060E686F0001736B0001696BB4
:1004D000120EF36E010EF3CFDBFF020EDB6A010E8C
:1004E000DBCF14F0020EDBCF15F0153404E214500C
:1004F0001508000E155412E3010EE66E010EDBCF57
:10050000E6FF020EDBCFE6FF48DAE552E552E552A0
:10051000010EDB2A020E01E3DB2AE1D7040EE15CC7
:1005200002E2E16AE552E16EE552E7CFD9FF12003F
:10053000D9CFE6FFE1CFD9FF070EE126020EDB6A35
:10054000030EDB6A060EDB6A060EDBCF14F0080E24
:10055000E76E1418E8AE02D0E73402D0E750145C1E
:100560001FE2D9CFE6FFDACFE6FF020EDBCF14F0B1
:10057000DB2A030EDBCF15F001E3DB2A14C0E6FF14
:1005800015C0E6FFA1DDE552E552E552E552060E43
:10059000DB50DF5C02E039DFE4D1060EDB2AD4D782
:1005A000080EF36E020EF3CFDBFF030EDB6AD9CF2A
:1005B000E6FFDACFE6FF020EDBCFE6FF030EDBCF6E
:1005C000E6FF82DDE552E552E552E5520001010EFB
:1005D000696FDFCF68F00001696B120EF36E020ED7
:1005E000F3CFDBFF030EDB6AD9CFE6FFDACFE6FFFE
:1005F000020EDBCF14F0DB2A030EDBCF15F001E394
:10060000DB2A14C0E6FF15C0E6FF5EDDE552E552C9
:10061000E552E552DF50E8B09582E8A09592D9CF37
:10062000E6FFDACFE6FF020EDBCF14F0DB2A030E83
:10063000DBCF15F001E3DB2A14C0E6FF15C0E6FFAF
:1006400043DDE552E552E552E552DF50E8B09584CE
:10065000E8A09594D9CFE6FFDACFE6FF020EDBCF14
:1006600014F0DB2A030EDBCF15F001E3DB2A14C004
:10067000E6FF15C0E6FF28DDE552E552E552E552FA
:10068000DF50E8B09586E8A09596D9CFE6FFDACF9F
:10069000E6FF020EDBCFE6FF030EDBCFE6FF14DD45
:1006A000E552E552E552E552DF50E8B09488E8A003
:1006B0009498090EF36E020EF3CFDBFF030EDB6A94
:1006C000D9CFE6FFDACFE6FF020EDBCF14F0DB2A4C
:1006D000030EDBCF15F001E3DB2A14C0E6FF15C0E3
:1006E000E6FFF2DCE552E552E552E5520001010E6B
:1006F000696FDFCF8AF000018B6B8ABF8B690001C5
:10070000696BD9CFE6FFDACFE6FF020EDBCF14F03C
:10071000DB2A030EDBCF15F001E3DB2A14C0E6FF72
:1007200015C0E6FFD1DCE552E552E552E552000185
:10073000010E696FDFCF14F0156A14BE15688AC008
:1007400017F0166A1450162400018A6F15501720EE
:1007500000018B6F0001696BD9CFE6FFDACFE6FFAE
:10076000020EDBCF14F0DB2A030EDBCF15F001E322
:10077000DB2A14C0E6FF15C0E6FFA6DCE552E55211
:10078000E552E5520001010E696FDFCF8CF00001E8
:100790008D6B8CBF8D690001696BD9CFE6FFDACF15
:1007A000E6FF020EDBCF14F0DB2A030EDBCF15F0E1
:1007B00001E3DB2A14C0E6FF15C0E6FF85DCE55245
:1007C000E552E552E5520001010E696FDFCF14F0EA
:1007D000156A14BE15688CC017F0166A14501624DA
:1007E00000018C6F1550172000018D6F0001696B9F
:1007F000D9CFE6FFDACFE6FF020EDBCF14F0DB2A1B
:10080000030EDBCF15F001E3DB2A14C0E6FF15C0B1
:10081000E6FF5ADCE552E552E552E5520001010ED1
:10082000696FDFCF8EF000018F6B8EBF8F69000183
:10083000696BD9CFE6FFDACFE6FF020EDBCF14F00B
:10084000DB2A030EDBCF15F001E3DB2A14C0E6FF41
:1008500015C0E6FF39DCE552E552E552E5520001EC
:10086000010E696FDFCF14F0156A14BE15688EC0D3
:1008700017F0166A1450162400018E6F15501720B9
:1008800000018F6F0001696BD9CFE6FFDACFE6FF79
:10089000020EDBCF14F0DB2A030EDBCF15F001E3F1
:1008A000DB2A14C0E6FF15C0E6FF0EDCE552E55278
:1008B000E552E5520001010E696FDFCF90F00001B3
:1008C000916B90BF91690001696BD9CFE6FFDACFD8
:1008D000E6FF020EDBCFE6FF030EDBCFE6FF64ECA4
:1008E00000F0E552E552E552E5520001010E696F54
:1008F000DFCF14F0156A14BE156890C017F0166AA1
:10090000145016240001906F155017200001916FAC
:100910000001696B0001010E696F00018A5100013D
:100920008C5D0001946F00018B5100018D59000115
:10093000956F0001696B0001010E696F00018E5116
:100940000001905D0001966F00018F5100019159E7
:100950000001976F0001696BF7D9E76E010EE7CFD1
:10096000DBFF070EE15C02E2E16AE552E16EE5526F
:10097000E7CFD9FF1200A1A805D0A198A694010E37
:1009800003D002D0000E00D01200A6B203D0010E98
:1009900003D002D0000E00D01200D9CFE6FFE1CF85
:1009A000D9FFE652FD0EDBCF14F0FE0EDBCF15F0C3
:1009B000153404E21450FF08030E155403E2000E30
:1009C0004BD04AD0E2DF000901E1FCD7D9CFE6FFE6
:1009D000DACFE6FFFD0EDBCFE6FFFE0EDBCFE6FF54
:1009E00064EC00F0E552E552E552E552FC0EDB50B6
:1009F000DF5C02E1010E30D0FF0EE76EFD0EDBCFB3
:100A000014F0FE0EDBCF15F0E7501416156A1450E3
:100A1000A96EFD0EDBCF14F0FE0EDBCF15F015C076
:100A200014F0156A030E1414AA6EFC0EDB50A86EA7
:100A3000A69EA69CA684F29E550EA76EAA0EA76E31
:100A4000A68299DFFF0801E1FCD79FDF000901E1E1
:100A5000FCD7F28E010E00D0E552E552E7CFD9FF68
:100A6000120072D900D01200D60EE66EE00EE66ECD
:100A7000C30EE66EE00EE66EF70EE66E060EE66E4E
:100A80001CEC00F0146E060EE15E1450F70EE66EDC
:100A9000060EE66EA7EC44F0E552E552EB0EE66E6C
:100AA000E00EE66EC30EE66EE00EE66EF70EE66E44
:100AB000060EE66E1CEC00F0146E060EE15E14509D
:100AC000F70EE66E060EE66EA7EC44F0E552E55230
:100AD000FF0EE66EE00EE66EC30EE66EE00EE66E0C
:100AE000F70EE66E060EE66E1CEC00F0146E060EB7
:100AF000E15E145060C014F0156A14BE156814C08D
:100B0000E6FF15C0E6FFF70EE66E060EE66EBE0EB9
:100B1000E66EE00EE66EF70EE66E060EE66E1CEC76
:100B200000F0166E080EE15E1650F70EE66E060E29
:100B3000E66EA7EC44F0E552E552070EE66EE10ED4
:100B4000E66EC30EE66EE00EE66EF70EE66E060E7D
:100B5000E66E1CEC00F0146E060EE15E1450060EFC
:100B60000001685D13E1F70EE66E060EE66EB80E44
:100B7000E66EE00EE66EF70EE66E060EE66E1CEC16
:100B800000F0146E060EE15E145012D0F70EE66E01
:100B9000060EE66EB20EE66EE00EE66EF70EE66E3E
:100BA000060EE66E1CEC00F0146E060EE15E1450AC
:100BB000F70EE66E060EE66EA7EC44F0E552E5523F
:100BC0000E0EE66EE10EE66EC30EE66EE00EE66E0B
:100BD000F70EE66E060EE66E1CEC00F0146E060EC6
:100BE000E15E14503EDF146E156A14BE156814C021
:100BF000E6FF15C0E6FFF70EE66E060EE66EAB0EDC
:100C0000E66EE00EE66EF70EE66E060EE66E1CEC85
:100C100000F0166E080EE15E1650F70EE66E060E38
:100C2000E66EA7EC44F0E552E552170EE66EE10ED3
:100C3000E66EC30EE66EE00EE66EF70EE66E060E8C
:100C4000E66E1CEC00F0146E060EE15E14502C0EE5
:100C50000001775D13E0F70EE66E060EE66EA20E5B
:100C6000E66EE00EE66EF70EE66E060EE66E1CEC25
:100C700000F0146E060EE15E145012D0F70EE66E10
:100C8000060EE66E960EE66EE00EE66EF70EE66E69
:100C9000060EE66E1CEC00F0146E060EE15E1450BB
:100CA000F70EE66E060EE66EA7EC44F0E552E5524E
:100CB000290EE66EE10EE66EC30EE66EE00EE66EFF
:100CC000F70EE66E060EE66E1CEC00F0146E060ED5
:100CD000E15E145073C014F0156A14BE156814C098
:100CE000E6FF15C0E6FFF70EE66E060EE66EBE0ED8
:100CF000E66EE00EE66EF70EE66E060EE66E1CEC95
:100D000000F0166E080EE15E1650F70EE66E060E47
:100D1000E66EA7EC44F0E552E552950EE66EE00E65
:100D2000E66EF70EE66E060EE66E1CEC00F0E5527F
:100D3000E552E552E552F70EE66E060EE66EA7ECBA
:100D400044F0E552E5521200D9CFE6FFE1CFD9FFDA
:100D5000090EE126110EF36E030EF3CFDBFF040E36
:100D6000DB6AD950020FE66E000EDA20E66E030E43
:100D7000DBCFE6FF040EDBCFE6FF64EC00F0E552CC
:100D8000E552E552E5520001010E696F020EDBCF1C
:100D900073F00001696B0001735102E1640EB4D07D
:100DA000160EF36E030EF3CFDBFF040EDB6ADF6A71
:100DB000DFCF14F000017351E76E1418E8AE02D0D3
:100DC000E73402D0E750145C54E2010EDB6A010EF6
:100DD000DBCF14F00F0EE76E1418E8AE02D0E73444
:100DE00002D0E750145C43E2D950020FE66E000EC9
:100DF000DA20E66E030EDBCF14F0DB2A040EDBCF25
:100E000015F001E3DB2A14C0E6FF15C0E6FF64EC31
:100E100000F0E552E552E552E5520001010E696F1E
:100E2000DFCF14F0156A14BE15680F0E1502F3CF4C
:100E300015F00F0E1402F3CF14F0F4501526760EB1
:100E40001426080E1522010EDBCF16F0176A16BE07
:100E5000176814501624E96E15501720EA6E020E1A
:100E6000DBCFEFFF0001696B010EDB2AB0D7DF2A71
:100E70009FD7146A040E156E166A176A030EDBCF2D
:100E800018F0040EDBCF19F01A6A1B6A19AE02D0F3
:100E90001A681B681850145C066E19501558076EB6
:100EA0001A501658086E1B501758096E640E0B6EB8
:100EB0000C6A0D6A0E6A06C006F007C007F008C08B
:100EC00008F009C009F090EC73F002C006F003C00E
:100ED00007F004C008F005C009F0EA0E0B6E030E1F
:100EE0000C6E0D6A0E6AFCEC71F0050E06C0DBFF9D
:100EF000060E07C0DBFF070E08C0DBFF080E09C0A7
:100F0000DBFF050EDB5000D0146E090EE15C02E23F
:100F1000E16AE552E16E1450E552E7CFD9FF1200C5
:100F2000D9CFE6FFE1CFD9FF050EE126160EF36E0D
:100F3000020EF3CFDBFF030EDB6ADF6ADFCF14F0B4
:100F400000017351E76E1418E8AE02D0E73402D006
:100F5000E750145C01E37AD00F0EE76E020EDBCF90
:100F600014F0030EDBCF15F0E7501426000E152207
:100F7000D890155004E6000E145C040E15581CE3BE
:100F800073C014F0156A14BE156814C0E6FF15C0CE
:100F9000E6FF890EE66EE00EE66E760EE66E070E52
:100FA000E66E1CEC00F0166E060EE15E16500001B7
:100FB000110E746F000E63D0010EDB6A010EDBCFE1
:100FC00014F00F0EE76E1418E8AE02D0E73402D02A
:100FD000E750145C39E2DFCF14F0156A14BE1568CF
:100FE0000F0E1502F3CF15F00F0E1402F3CF14F00D
:100FF000F4501526760E1426080E1522010EDBCFAE
:1010000016F0176A16BE176814501624E96E1550AC
:101010001720EA6E040EEFCFDBFF040EDBCFE6FFF6
:10102000020EDBCF14F0DB2A030EDBCF15F001E359
:10103000DB2A14C0E6FF15C0E6FFAFDCE552E5523F
:10104000E552010EDB2ABAD7DF2A78D7110EF36EEC
:10105000020EF3CFDBFF030EDB6A040E73C0DBFF6F
:10106000040EDBCFE6FF020EDBCFE6FF030EDBCF85
:10107000E6FF93DCE552E552E552010E00D0146E16
:10108000050EE15C02E2E16AE552E16E1450E552C0
:10109000E7CFD9FF1200D9CFE6FFE1CFD9FFFE0E8F
:1010A000DBCF14F0300EE76E1418E8AE02D0E73450
:1010B00002D0E750145C11E3FE0EDBCF15F0390EC1
:1010C000E76E1518E8AE02D0153403D0E750D8808B
:1010D000155403E3010E03D002D0000E00D0E552F8
:1010E000E7CFD9FF1200D9CFE6FFE1CFD9FFFE0E3F
:1010F000DBCF14F0410EE76E1418E8AE02D0E734EF
:1011000002D0E750145C11E3FE0EDBCF15F0460E63
:10111000E76E1518E8AE02D0153403D0E750D8803A
:10112000155403E3010E03D002D0000E00D0E552A7
:10113000E7CFD9FF1200D9CFE6FFE1CFD9FFE652C2
:10114000FE0EDBCF14F0610EE76E1418E8AE02D08D
:10115000E73402D0E750145C13E3FE0EDBCF15F04A
:101160007A0EE76E1518E8AE02D0153403D0E750BA
:10117000D880155405E3FE0EDB50E00FDF6E03D080
:10118000FE0EDB50DF6EDF5000D0E552E552E7CFB8
:10119000D9FF1200D9CFE6FFE1CFD9FF090EE12632
:1011A000DE6ADD6A020EDB6A030EDB6A0A0EF36E8C
:1011B000040EF3CFDBFF050EDB6A060EDB6AFD0EC5
:1011C000DBCFE9FFFE0EDBCFEAFFEF50300805E191
:1011D000FD0EDB2AFE0E01E3DB2AFD0EDBCFE9FF6D
:1011E000FE0EDBCFEAFFEF5009E0FD0EDBCFE9FF9B
:1011F000FE0EDBCFEAFFEF5020080BE1050EDBCF40
:1012000014F0060EDBCF15F014C0F3FF15C0F4FF89
:101210000BD1FD0EDBCFE9FFFE0EDBCFEAFFEF5077
:10122000E66E89DFE55258080AE1FD0EDB2AFE0E64
:1012300001E3DB2A100EF36E040EF3CFDBFFFD0E8D
:10124000DBCFE9FFFE0EDBCFEAFFEF5001E1ADD0CF
:10125000FD0EDBCFE9FFFE0EDBCFEAFFEF502008EB
:1012600001E1A3D0FD0EDBCFE9FFFE0EDBCFEAFFED
:10127000EF50E66E10DFE552000913E0FD0EDBCF04
:10128000E9FFFE0EDBCFEAFFEF50D00FE66ED9503C
:10129000070FE96EDACFEAFFE552E750EE6EED6A2E
:1012A00048D0FD0EDBCFE9FFFE0EDBCFEAFFEF50AB
:1012B000E66E41DFE552E66E16DFE55200092AE0F0
:1012C000FD0EDBCFE9FFFE0EDBCFEAFFEF50E66E4F
:1012D00032DFE552BF0F0A0FE66ED950070FE96EF5
:1012E000DACFEAFFE552E750EE6EED6A070EDBCF8C
:1012F00014F0080EDBCF15F0D890155004E60A0E56
:10130000145C000E155805E3100EF36E040EF3CFB7
:10131000DBFF0FD0220E0001D36FD46B050EDBCFA5
:1013200014F0060EDBCF15F014C0F3FF15C0F4FF68
:101330007BD0070EDBCF16F0080EDBCF17F0100EB8
:10134000086E096ADECF0DF0DDCF0EF030EC72F0E2
:1013500006501624146E07501720156E14C0DEFFB9
:1013600015C0DDFF070EDBCF16F0080EDBCF17F040
:101370000A0E086E096A020EDBCF0DF0030EDBCFFA
:101380000EF030EC72F006501624146E0750172041
:10139000156E020E14C0DBFF030E15C0DBFFFD0E41
:1013A000DB2AFE0E01E3DB2A4AD7040EDB500A08D3
:1013B0000DE1020EDBCF08F0030EDBCF09F0050EC6
:1013C00008C0DBFF060E09C0DBFF0AD0D9CFE9FF5A
:1013D000DACFEAFF050EEECFDBFF060EEDCFDBFF27
:1013E000050EDBCF14F0060EDBCF15F00001800EEA
:1013F00015140FE0220E0001D36FD46B050EDBCF66
:1014000014F0060EDBCF15F014C0F3FF15C0F4FF87
:101410000BD0050EDBCF14F0060EDBCF15F014C099
:10142000F3FF15C0F4FF00D0090EE15C02E2E16AAF
:10143000E552E16EE552E7CFD9FF1200950EE66E58
:10144000E00EE66E760EE66E070EE66E1CEC00F021
:10145000E552E552E552E5520001746B12000001BD
:101460007451080A01E137D2100A01E121D20D0AB4
:1014700001E10BD2010A01E1F5D1070A01E1DFD157
:10148000010A01E1C9D1030A01E1B3D1010A01E175
:101490009DD11F0A01E187D1010A01E171D1030A3F
:1014A00001E15BD1010A01E145D1060A01E12FD139
:1014B000030A01E119D10E0A01E103D11C0A01E17D
:1014C000EDD0010A01E1D7D0030A01E1C1D0120A2F
:1014D00001E1ABD01C0A01E195D0010A01E17FD006
:1014E000100A6AE0030A55E0010A40E0070A2BE00F
:1014F000010A16E0030A01E001D2A20EE66EE10E37
:10150000E66EC30EE66EE00EE66EF70EE66E060EB3
:10151000E66E1CEC00F0146E060EE15E145002D272
:10152000B10EE66EE10EE66EC30EE66EE00EE66EFE
:10153000F70EE66E060EE66E1CEC00F0146E060E5C
:10154000E15E1450EFD1C10EE66EE10EE66EC30E01
:10155000E66EE00EE66EF70EE66E060EE66E1CEC2C
:1015600000F0146E060EE15E1450DCD1D50EE66E6E
:10157000E10EE66EC30EE66EE00EE66EF70EE66E68
:10158000060EE66E1CEC00F0146E060EE15E1450C2
:10159000C9D1E10EE66EE10EE66EC30EE66EE00E18
:1015A000E66EF70EE66E060EE66E1CEC00F0146EAC
:1015B000060EE15E1450B6D1EF0EE66EE10EE66E59
:1015C000C30EE66EE00EE66EF70EE66E060EE66EF3
:1015D0001CEC00F0146E060EE15E1450A3D1000E58
:1015E000E66EE20EE66EC30EE66EE00EE66EF70EF7
:1015F000E66E060EE66E1CEC00F0146E060EE15E62
:10160000145090D1120EE66EE20EE66EC30EE66E38
:10161000E00EE66EF70EE66E060EE66E1CEC00F0CF
:10162000146E060EE15E14507DD1230EE66EE20EBE
:10163000E66EC30EE66EE00EE66EF70EE66E060E82
:10164000E66E1CEC00F0146E060EE15E14506AD1DA
:10165000330EE66EE20EE66EC30EE66EE00EE66E4A
:10166000F70EE66E060EE66E1CEC00F0146E060E2B
:10167000E15E145057D14A0EE66EE20EE66EC30EDE
:10168000E66EE00EE66EF70EE66E060EE66E1CECFB
:1016900000F0146E060EE15E145044D15F0EE66E4B
:1016A000E20EE66EC30EE66EE00EE66EF70EE66E36
:1016B000060EE66E1CEC00F0146E060EE15E145091
:1016C00031D1780EE66EE20EE66EC30EE66EE00EE7
:1016D000E66EF70EE66E060EE66E1CEC00F0146E7B
:1016E000060EE15E14501ED18C0EE66EE20EE66E22
:1016F000C30EE66EE00EE66EF70EE66E060EE66EC2
:101700001CEC00F0146E060EE15E14500BD19C0E22
:10171000E66EE20EE66EC30EE66EE00EE66EF70EC5
:10172000E66E060EE66E1CEC00F0146E060EE15E30
:101730001450F8D0AB0EE66EE20EE66EC30EE66E07
:10174000E00EE66EF70EE66E060EE66E1CEC00F09E
:10175000146E060EE15E1450E5D0BC0EE66EE20E8D
:10176000E66EC30EE66EE00EE66EF70EE66E060E51
:10177000E66E1CEC00F0146E060EE15E1450D2D042
:10178000D10EE66EE20EE66EC30EE66EE00EE66E7B
:10179000F70EE66E060EE66E1CEC00F0146E060EFA
:1017A000E15E1450BFD0E30EE66EE20EE66EC30EAD
:1017B000E66EE00EE66EF70EE66E060EE66E1CECCA
:1017C00000F0146E060EE15E1450ACD0F30EE66E1F
:1017D000E20EE66EC30EE66EE00EE66EF70EE66E05
:1017E000060EE66E1CEC00F0146E060EE15E145060
:1017F00099D0070EE66EE30EE66EC30EE66EE00EBF
:10180000E66EF70EE66E060EE66E1CEC00F0146E49
:10181000060EE15E145086D0210EE66EE30EE66EF3
:10182000C30EE66EE00EE66EF70EE66E060EE66E90
:101830001CEC00F0146E060EE15E145073D0300EF6
:10184000E66EE30EE66EC30EE66EE00EE66EF70E93
:10185000E66E060EE66E1CEC00F0146E060EE15EFF
:10186000145060D0450EE66EE30EE66EC30EE66ED3
:10187000E00EE66EF70EE66E060EE66E1CEC00F06D
:10188000146E060EE15E14504DD0610EE66EE30E4E
:10189000E66EC30EE66EE00EE66EF70EE66E060E20
:1018A000E66E1CEC00F0146E060EE15E14503AD0A9
:1018B0007A0EE66EE30EE66EC30EE66EE00EE66EA0
:1018C000F70EE66E060EE66E1CEC00F0146E060EC9
:1018D000E15E145027D08D0EE66EE30EE66EC30E69
:1018E000E66EE00EE66EF70EE66E060EE66E1CEC99
:1018F00000F0146E060EE15E145014D074C0E6FFC2
:101900009C0EE66EE30EE66E810EE66EE00EE66E6F
:10191000F70EE66E060EE66E1CEC00F0146E070E77
:10192000E15E1450760EE66E070EE66EF70EE66E7A
:10193000060EE66E7B0EE66EE00EE66EF70EE66EC7
:10194000060EE66E1CEC00F0146E080EE15E1450FC
:10195000F70EE66E060EE66EA7EC44F0E552E55291
:10196000950EE66EE00EE66EF70EE66E060EE66E7D
:101970001CEC00F0E552E552E552E552F70EE66E3A
:10198000060EE66EA7EC44F0E552E55257DD120074
:10199000D9CFE6FFE1CFD9FF110EE126DF6A0F0EA6
:1019A000DB6A100EDB6AFD0EDBCFE6FFFE0EDBCF3F
:1019B000E6FF5DEC72F0E552E5520B0EF3CFDBFF74
:1019C0000C0EF4CFDBFFFB0EDBCFE6FFFC0EDBCF14
:1019D000E6FF5DEC72F0E552E5520D0EF3CFDBFF52
:1019E0000E0EF4CFDBFFDFCF14F0156A14BE1568BE
:1019F0000B0EDBCF16F00C0EDBCF17F015501718BF
:101A0000E8AE02D0173404D01650145C17501558A5
:101A100015E2DFCF14F0156A14BE1568FD0EDB5019
:101A20001424E96EFE0EDB501520EA6EEF502008FC
:101A300003E1DF2AD8D701D001D0D5D7DFCF14F00A
:101A4000156A14BE15680B0EDBCF16F00C0EDBCF3B
:101A500017F015501718E8AE02D0173404D01650FE
:101A6000145C175015583FE20F0EDBCF18F0100E24
:101A7000DBCF19F00D0EDBCF1AF00E0EDBCF1BF013
:101A800019501B18E8AE02D01B3404D01A50185C51
:101A90001B50195828E2DF50DF2A186E196A18BE49
:101AA0001968FD0EDB501824E96EFE0EDB5019207C
:101AB000EA6EEF50E66ED950010F146EDACF15F0D2
:101AC0000F0EDBCF16F0DB2A100EDBCF17F001E391
:101AD000DB2A14501624E96E15501720EA6EE552E1
:101AE000E750EF6EABD70D0EDBCFE6FF0E0EDBCF70
:101AF000E6FFFB0EDBCFE6FFFC0EDBCFE6FFD950A7
:101B0000010FE66E000EDA20E66E6BEC72F0146EDA
:101B1000060EE15E145000090AE1F90EDBCFE9FF81
:101B2000FA0EDBCFEAFFDF50EF26010E2DD0D950A1
:101B3000010F146EDACF15F00F0EDB501424E96E8E
:101B4000100EDB501520EA6EEF6AFB0EDBCFE6FFCE
:101B5000FC0EDBCFE6FFD950010FE66E000EDA2057
:101B6000E66E6B0EE66EE00EE66E760EE66E070E25
:101B7000E66E1CEC00F0146E080EE15E14500001DD
:101B8000010E746F000E00D0146E110EE15C02E2C3
:101B9000E16AE552E16E1450E552E7CFD9FF120039
:101BA000D9CFE6FFE1CFD9FF070EE126DF6A010EAC
:101BB000DB6A0001D36BD46BFD0EDBCFE6FFFE0EBC
:101BC000DBCFE6FF5DEC72F0E552E552050EF3CF98
:101BD000DBFF060EF4CFDBFFDFCF14F0156A14BE77
:101BE0001568FD0EDB501424E96EFE0EDB50152047
:101BF000EA6EEF5020081FE1DFCF16F0176A16BE1D
:101C00001768050EDBCF18F0060EDBCF19F0175062
:101C10001918E8AE02D0193404D01850165C1950C7
:101C2000175809E2F90EDBCFE9FFFA0EDBCFEAFF26
:101C3000EF2ADF2AD1D7DFCF16F0176A16BE176852
:101C4000FD0EDB501624146EFE0EDB501720156EB1
:101C500014C0E6FF15C0E6FFCAEC08F0E552E552F5
:101C6000030EF3CFDBFF040EF4CFDBFF0001220EE7
:101C7000D31901E1D45106E00001160ED31901E198
:101C8000D45103E1020EDB6A05D0010EF36E020EA1
:101C9000F3CFDBFF030EDBCF14F0040EDBCF15F028
:101CA000153404E21450FF08000E155422E200011E
:101CB000220ED31901E1D45102E0000E01D0010E31
:101CC000030EDBCFE6FF040EDBCFE6FF680EE66E09
:101CD000E00EE66E760EE66E070EE66E1CEC00F089
:101CE000146E060EE15E14500001040E746F000EB7
:101CF00051D0020EDB043BE1DFCF14F0156A14BEB5
:101D00001568FD0EDB501424E96EFE0EDB50152025
:101D1000EA6EEF5020081FE0DFCF16F0176A16BEFC
:101D20001768050EDBCF18F0060EDBCF19F0175041
:101D30001918E8AE02D0193404D01850165C1950A6
:101D4000175809E2F90EDBCFE9FFFA0EDBCFEAFF05
:101D5000EF2ADF2AD1D7FB0EDBCFE9FFFC0EDBCF6A
:101D6000EAFF030EDBCFEFFF010E14D013D0950E68
:101D7000E66EE00EE66E760EE66E070EE66E1CEC84
:101D800000F0E552E552E552E5520001020E746F93
:101D9000000E00D0146E070EE15C02E2E16AE5522B
:101DA000E16E1450E552E7CFD9FF1200D9CFE6FF1C
:101DB000E1CFD9FF020EE126010EDB6ADF6A010ED8
:101DC000DBCF14F0030EE76E1418E8AE02D0E73450
:101DD00002D0E750145C01E325D1FB0EDBCFE9FF15
:101DE000FC0EDBCFEAFFEFCF14F0156A14BE1568C6
:101DF000FD0EDB501424E96EFE0EDB501520EA6E5A
:101E0000EF50200801E1C4D0010EDB503AE1DF5071
:101E100038E1FB0EDBCFE9FFFC0EDBCFEAFFEFCFB3
:101E200014F0156A14BE1568FD0EDB501424E96E1B
:101E3000FE0EDB501520EA6EEF50E66EFB0EDBCF98
:101E4000E9FFFC0EDBCFEAFFEFCF16F0176A16BEF4
:101E5000176816C0E6FF17C0E6FF590EE66EE00EE3
:101E6000E66E760EE66E070EE66E1CEC00F0186E5F
:101E7000070EE15E18500001120E746F000ED4D0F0
:101E800086D0FB0EDBCFE9FFFC0EDBCFEAFFEFCF06
:101E900014F0156A14BE156814C0E6FF15C0E6FFFD
:101EA000FD0EDBCFE6FFFE0EDBCFE6FF5DEC72F052
:101EB000E552E552E552E7CF15F0E552E7CF14F0D1
:101EC000F3CF16F0F4CF17F01650141802E11750A4
:101ED000151833E1010EDBCF14F0000EE76E141875
:101EE000E8AE02D0143403D0E750D880145411E285
:101EF000010EDBCF14F0156A14BE1568F90EDB5025
:101F00001424E96EFA0EDB501520EA6EEF6A8AD0CF
:101F100013D0950EE66EE00EE66E760EE66E070EB8
:101F2000E66E1CEC00F0E552E552E552E552000188
:101F30001B0E746F000E78D02AD0FB0EDBCFE9FFAA
:101F4000FC0EDBCFEAFFEF50EF2A166E176A16BEC3
:101F50001768FD0EDB501624E96EFE0EDB501720CD
:101F6000EA6EEF50E66E010EDBCFF3FFDB2AF35093
:101F7000146E156A14BE1568F90EDB501424E96E50
:101F8000FA0EDB501520EA6EE552E750EF6E1DD0D9
:101F9000010EDB500AE1010EDF6EFB0EDBCFE9FF25
:101FA000FC0EDBCFEAFFEF2A10D0010EDBCF14F0DE
:101FB000156A14BE1568F90EDB501424E96EFA0E8A
:101FC000DB501520EA6EEF6A2DD0010EDB500308BE
:101FD00028E1010EDB04146E156A14BE1568F90EB3
:101FE000DB501424E96EFA0EDB501520EA6EEF6A1E
:101FF000F90EDBCFE6FFFA0EDBCFE6FF560EE66EFC
:10200000E00EE66E760EE66E070EE66E1CEC00F055
:10201000146E060EE15E14500001130E746F000E74
:1020200003D0CDD6010E00D0146E020EE15C02E2A8
:10203000E16AE552E16E1450E552E7CFD9FF120094
:10204000D9CFE6FFE1CFD9FF0D0EE126DF6A010E01
:10205000DB6AA3EC28F0510EE66EE00EE66ED95076
:10206000020FE66E000EDA20E66E1CEC00F0E55280
:10207000E552E552E552D9CFE6FFDACFE6FFD95077
:10208000020FE66E000EDA20E66EDFCF16F0176A5A
:1020900016BE1768FD0EDB501624146EFE0EDB50C4
:1020A0001720156E14C0E6FF15C0E6FF71DC186E30
:1020B000060EE15E185000090AE00701040EB46F35
:1020C00060C0B3F71EEC0AF0010EE0EF26F04A0EF6
:1020D000E66EE00EE66ED950020FE66E000EDA20D4
:1020E000E66E1CEC00F0E552E552E552E552DF6A7F
:1020F000D9CFE6FFDACFE6FFD950020FE66E000E29
:10210000DA20E66EDFCF16F0176A16BE1768FD0EEE
:10211000DB501624146EFE0EDB501720156E14C013
:10212000E6FF15C0E6FF34DC186E060EE15E1850BF
:1021300000090AE00701050EB46F60C0B3F71EEC9A
:102140000AF0010EE0EF26F0450EE66EE00EE66EB8
:10215000D950020FE66E000EDA20E66E1CEC00F09D
:10216000E552E552E552E552DF6AD9CFE6FFDACF14
:10217000E6FFD950020FE66E000EDA20E66EDFCFE2
:1021800016F0176A16BE1768FD0EDB501624146E83
:10219000FE0EDB501720156E14C0E6FF15C0E6FFDB
:1021A000C8EC0CF0186E060EE15E185000090AE04B
:1021B0000701400EB46F60C0B3F71EEC0AF0010EC9
:1021C000E0EF26F0410EE66EE00EE66ED950020F0B
:1021D000E66E000EDA20E66E1CEC00F0E552E552E9
:1021E000E552E552DF6AD9CFE6FFDACFE6FFD950F4
:1021F000020FE66E000EDA20E66EDFCF16F0176AE9
:1022000016BE1768FD0EDB501624146EFE0EDB5052
:102210001720156E14C0E6FF15C0E6FFC8EC0CF0E1
:10222000186E060EE15E185000092BE00701230E20
:10223000B46FD9CFE6FFDACFE6FFB30EE66E070E36
:10224000E66EDFCF16F0176A16BE1768FD0EDB507C
:102250001624146EFE0EDB501720156E14C0E6FF18
:1022600015C0E6FF9DDC186E060EE15E18500009F1
:1022700003E1000EE0EF26F01EEC0AF0010EE0EFA5
:1022800026F03B0EE66EE00EE66ED950020FE66ECB
:10229000000EDA20E66E1CEC00F0E552E552E55245
:1022A000E552DF6AD9CFE6FFDACFE6FFD950020F59
:1022B000E66E000EDA20E66EDFCF16F0176A16BE65
:1022C0001768FD0EDB501624146EFE0EDB5017202F
:1022D000156E14C0E6FF15C0E6FFC8EC0CF0186ED2
:1022E000060EE15E185000092BE007012D0EB46FB9
:1022F000D9CFE6FFDACFE6FFB30EE66E070EE66E45
:10230000DFCF16F0176A16BE1768FD0EDB501624D5
:10231000146EFE0EDB501720156E14C0E6FF15C0BC
:10232000E6FF3EDC186E060EE15E1850000903E180
:10233000000EE0EF26F01EEC0AF0010EE0EF26F0B2
:10234000350EE66EE00EE66ED950020FE66E000E18
:10235000DA20E66E1CEC00F0E552E552E552E5525B
:10236000DF6AD9CFE6FFDACFE6FFD950020FE66E7B
:10237000000EDA20E66EDFCF16F0176A16BE176879
:10238000FD0EDB501624146EFE0EDB501720156E6A
:1023900014C0E6FF15C0E6FFC8EC0CF0186E060E80
:1023A000E15E185000092CE00701240EB46FD9CF6C
:1023B000E6FFDACFE6FFB30EE66E070EE66EDFCF7E
:1023C00016F0176A16BE1768FD0EDB501624146E41
:1023D000FE0EDB501720156E14C0E6FF15C0E6FF99
:1023E000D0EC0DF0186E060EE15E1850000903E106
:1023F000000EE0EF26F01EEC0AF0010EE0EF26F0F2
:10240000DF6A300EE66EE00EE66ED950020FE66E21
:10241000000EDA20E66E1CEC00F0E552E552E552C3
:10242000E552D9CFE6FFDACFE6FFD950020FE66ECC
:10243000000EDA20E66EDFCF16F0176A16BE1768B8
:10244000FD0EDB501624146EFE0EDB501720156EA9
:1024500014C0E6FF15C0E6FFC8EC0CF0186E060EBF
:10246000E15E1850000902E152EF1EF00701010E73
:10247000B26FD9CFE6FFDACFE6FFB30EE66E070EF6
:10248000E66EDFCF16F0176A16BE1768FD0EDB503A
:102490001624146EFE0EDB501720156E14C0E6FFD6
:1024A00015C0E6FFD0EC0DF0186E060EE15E185078
:1024B000000903E1000EE0EF26F0010EDFCFDBFFA5
:1024C0002C0EE66EE00EE66ED950020FE66E000EA0
:1024D000DA20E66E1CEC00F0E552E552E552E552DA
:1024E000D9CFE6FFDACFE6FFD950020FE66E000E35
:1024F000DA20E66EDFCF16F0176A16BE1768FD0EFB
:10250000DB501624146EFE0EDB501720156E14C01F
:10251000E6FF15C0E6FFC8EC0CF0186E060EE15E93
:10252000185000090BE00701010ED56F0701030EDB
:10253000D66F1EEC0AF0010EE0EF26F0280EE66ED4
:10254000E00EE66ED950020FE66E000EDA20E66E5F
:102550001CEC00F0E552E552E552E552010EDB506D
:10256000DF6ED9CFE6FFDACFE6FFD950020FE66E75
:10257000000EDA20E66EDFCF16F0176A16BE176877
:10258000FD0EDB501624146EFE0EDB501720156E68
:1025900014C0E6FF15C0E6FFC8EC0CF0186E060E7E
:1025A000E15E185000090BE00701010ED56F07012D
:1025B000060ED66F1EEC0AF0010EE0EF26F0230E99
:1025C000E66EE00EE66ED950020FE66E000EDA20DF
:1025D000E66E1CEC00F0E552E552E552E552010EC4
:1025E000DB50DF6ED9CFE6FFDACFE6FFD950020F1E
:1025F000E66E000EDA20E66EDFCF16F0176A16BE22
:102600001768FD0EDB501624146EFE0EDB501720EB
:10261000156E14C0E6FF15C0E6FFC8EC0CF0186E8E
:10262000060EE15E1850000901E1A8D00701010E75
:10263000D76FD9CFE6FFDACFE6FFD80EE66E070EEA
:10264000E66EDFCF16F0176A16BE1768FD0EDB5078
:102650001624146EFE0EDB501720156E14C0E6FF14
:1026600015C0E6FFD0EC0DF0186E060EE15E1850B6
:10267000000903E1000EE0EF26F0010EDFCFDBFFE3
:10268000200EE66EE00EE66ED950020FE66E000EEA
:10269000DA20E66E1CEC00F0E552E552E552E55218
:1026A000D9CFE6FFDACFE6FFD950020FE66E000E73
:1026B000DA20E66EDFCF16F0176A16BE1768FD0E39
:1026C000DB501624146EFE0EDB501720156E14C05E
:1026D000E6FF15C0E6FFC8EC0CF0186E060EE15ED2
:1026E0001850000909E007010B0ED96F1EEC0AF023
:1026F000010EE0EF26F042D0010EDB50DF6E1C0E23
:10270000E66EE00EE66ED950020FE66E000EDA209D
:10271000E66E1CEC00F0E552E552E552E552D9CFE9
:10272000E6FFDACFE6FFD950020FE66E000EDA20A0
:10273000E66EDFCF16F0176A16BE1768FD0EDB5087
:102740001624146EFE0EDB501720156E14C0E6FF23
:1027500015C0E6FFC8EC0CF0186E060EE15E1850CE
:10276000000909E007010E0ED96F1EEC0AF0010EF8
:10277000E0EF26F003D0000EE0EF26F0010EDB5074
:10278000DF6E180EE66EE00EE66ED950020FE66EB2
:10279000000EDA20E66E1CEC00F0E552E552E55240
:1027A000E552D9CFE6FFDACFE6FFD950020FE66E49
:1027B000000EDA20E66EDFCF16F0176A16BE176835
:1027C000FD0EDB501624146EFE0EDB501720156E26
:1027D00014C0E6FF15C0E6FFC8EC0CF0186E060E3C
:1027E000E15E1850000902E1F0EF1DF00701010E53
:1027F000DD6F040EE66E080EE66ED9CFE6FFDACF87
:10280000E6FFFD0EDBCFE6FFFE0EDBCFE6FFD6ECEC
:102810000EF0146E060EE15E1450000903E1000E86
:10282000E0EF26F0010EDFCFDBFF120EE66EE00ECA
:10283000E66ED950020FE66E000EDA20E66E1CEC52
:1028400000F0E552E552E552E552D9CFE6FFDACF86
:10285000E6FFD950020FE66E000EDA20E66EDFCFFB
:1028600016F0176A16BE1768FD0EDB501624146E9C
:10287000FE0EDB501720156E14C0E6FF15C0E6FFF4
:10288000C8EC0CF0186E060EE15E1850000904E06A
:102890000801280E036F3DD0010EDB50DF6E0B0EDA
:1028A000E66EE00EE66ED950020FE66E000EDA20FC
:1028B000E66E1CEC00F0E552E552E552E552D9CF48
:1028C000E6FFDACFE6FFD950020FE66E000EDA20FF
:1028D000E66EDFCF16F0176A16BE1768FD0EDB50E6
:1028E0001624146EFE0EDB501720156E14C0E6FF82
:1028F00015C0E6FFC8EC0CF0186E060EE15E18502D
:10290000000904E00801290E036F03D0000EE0EF78
:1029100026F00801280E026F050EE66EE00EE66E48
:10292000D950020FE66E000EDA20E66E1CEC00F0C5
:10293000E552E552E552E552D9CFE6FFDACFE6FFA0
:10294000D950020FE66E000EDA20E66EDFCF16F0E9
:10295000176A16BE1768FD0EDB501624146EFE0EA5
:10296000DB501720156E14C0E6FF15C0E6FFC8EC5B
:102970000CF0186E060EE15E1850000902E1EDEF52
:102980001DF0D9CFE6FFDACFE6FFD9500C0FE66E87
:10299000000EDA20E66EDFCF16F0176A16BE176853
:1029A000FD0EDB501624146EFE0EDB501720156E44
:1029B00014C0E6FF15C0E6FFD0EC0DF0186E060E51
:1029C000E15E1850000903E1000EE0EF26F0010E71
:1029D000DFCFDBFF230EE66EE00EE66ED950020F6E
:1029E000E66E000EDA20E66E1CEC00F0E552E552D1
:1029F000E552E552D9CFE6FFDACFE6FFD950020F14
:102A0000E66E000EDA20E66EDFCF16F0176A16BE0D
:102A10001768FD0EDB501624146EFE0EDB501720D7
:102A2000156E14C0E6FF15C0E6FFC8EC0CF0186E7A
:102A3000060EE15E185000094FE00701010EDE6F3F
:102A40000C0EDBCFDFF7D9CFE6FFDACFE6FFE00EE3
:102A5000E66E070EE66EDFCF16F0176A16BE176831
:102A6000FD0EDB501624146EFE0EDB501720156E83
:102A700014C0E6FF15C0E6FFD0EC0DF0186E060E90
:102A8000E15E1850000903E1000EE0EF26F0D9CF17
:102A9000E6FFDACFE6FFE10EE66E070EE66EDFCF69
:102AA00016F0176A16BE1768FD0EDB501624146E5A
:102AB000FE0EDB501720156E14C0E6FF15C0E6FFB2
:102AC000D0EC0DF0186E060EE15E1850000903E11F
:102AD000000EE0EF26F07BD1010EDB50DF6EFF0E23
:102AE000E66EDF0EE66ED950020FE66E000EDA20BB
:102AF000E66E1CEC00F0E552E552E552E552D9CF06
:102B0000E6FFDACFE6FFD950020FE66E000EDA20BC
:102B1000E66EDFCF16F0176A16BE1768FD0EDB50A3
:102B20001624146EFE0EDB501720156E14C0E6FF3F
:102B300015C0E6FFC8EC0CF0186E060EE15E1850EA
:102B400000092BE00701010EE26F0C0EDBCFE3F76B
:102B5000D9CFE6FFDACFE6FFE40EE66E070EE66EAB
:102B6000DFCF16F0176A16BE1768FD0EDB5016246D
:102B7000146EFE0EDB501720156E14C0E6FF15C054
:102B8000E6FFD0EC0DF0186E060EE15E185000095D
:102B900003E1000EE0EF26F01AD1010EDB50DF6EEC
:102BA000F90EE66EDF0EE66ED950020FE66E000EED
:102BB000DA20E66E1CEC00F0E552E552E552E552F3
:102BC000D9CFE6FFDACFE6FFD950020FE66E000E4E
:102BD000DA20E66EDFCF16F0176A16BE1768FD0E14
:102BE000DB501624146EFE0EDB501720156E14C039
:102BF000E6FF15C0E6FFC8EC0CF0186E060EE15EAD
:102C00001850000901E1E0D00701010EE56F0C0E3C
:102C1000DBCFE6F7D9CFE6FFDACFE6FFE70EE66EC9
:102C2000070EE66EDFCF18F0196A18BE1968FD0EA0
:102C3000DB501824166EFE0EDB501920176E16C0DE
:102C4000E6FF17C0E6FFD0EC0DF01A6E060EE15E4F
:102C50001A50000902E0000E01D0010E146E156A30
:102C60001450151003E0000EE0EF26F0F50EE66EAE
:102C7000DF0EE66ED950020FE66E000EDA20E66E29
:102C80001CEC00F0E552E552E552E552D9CFE6FFE3
:102C9000DACFE6FFD950020FE66E000EDA20E66EBC
:102CA000DFCF16F0176A16BE1768FD0EDB5016242C
:102CB000146EFE0EDB501720156E14C0E6FF15C013
:102CC000E6FFC8EC0CF0186E060EE15E1850000925
:102CD00003E1000EE0EF26F0010EDFCFDBFFED0E8B
:102CE000E66EDF0EE66ED950020FE66E000EDA20B9
:102CF000E66E1CEC00F0E552E552E552E552D9CF04
:102D0000E6FFDACFE6FFD950020FE66E000EDA20BA
:102D1000E66EDFCF16F0176A16BE1768FD0EDB50A1
:102D20001624146EFE0EDB501720156E14C0E6FF3D
:102D300015C0E6FFC8EC0CF0186E060EE15E1850E8
:102D4000000904E007010F0EE86F3DD0010EDB50D3
:102D5000DF6EE40EE66EDF0EE66ED950020FE66E11
:102D6000000EDA20E66E1CEC00F0E552E552E5526A
:102D7000E552D9CFE6FFDACFE6FFD950020FE66E73
:102D8000000EDA20E66EDFCF16F0176A16BE17685F
:102D9000FD0EDB501624146EFE0EDB501720156E50
:102DA00014C0E6FF15C0E6FFC8EC0CF0186E060E66
:102DB000E15E1850000904E00701100EE86F03D02F
:102DC000000EE0EF26F003D0000EE0EF26F0E00E5C
:102DD000E66EDF0EE66ED950020FE66E000EDA20C8
:102DE000E66E1CEC00F0E552E552E552E552D9CF13
:102DF000E6FFDACFE6FFD950020FE66E000EDA20CA
:102E0000E66EDFCF16F0176A16BE1768FD0EDB50B0
:102E10001624146EFE0EDB501720156E14C0E6FF4C
:102E200015C0E6FFC8EC0CF0186E060EE15E1850F7
:102E3000000903E1000EE0EF26F0010EDFCFDBFF1B
:102E4000230EE66EE00EE66ED950020FE66E000E1F
:102E5000DA20E66E1CEC00F0E552E552E552E55250
:102E6000D9CFE6FFDACFE6FFD950020FE66E000EAB
:102E7000DA20E66EDFCF16F0176A16BE1768FD0E71
:102E8000DB501624146EFE0EDB501720156E14C096
:102E9000E6FF15C0E6FFC8EC0CF0186E060EE15E0A
:102EA0001850000950E00701010EE96FD9CFE6FF85
:102EB000DACFE6FFEA0EE66E070EE66EDFCF16F01B
:102EC000176A16BE1768FD0EDB501624146EFE0E30
:102ED000DB501720156E14C0E6FF15C0E6FFD0ECDE
:102EE0000DF0186E060EE15E1850000903E1000EA9
:102EF000E0EF26F0D9CFE6FFDACFE6FFEB0EE66E85
:102F0000070EE66EDFCF16F0176A16BE1768FD0EC5
:102F1000DB501624146EFE0EDB501720156E14C005
:102F2000E6FF15C0E6FFD0EC0DF0186E060EE15E70
:102F30001850000903E1000EE0EF26F01EEC0AF045
:102F4000010EE0EF26F0010EDB50DF6EFF0EE66EA5
:102F5000DF0EE66ED950020FE66E000EDA20E66E46
:102F60001CEC00F0E552E552E552E552D9CFE6FF00
:102F7000DACFE6FFD950020FE66E000EDA20E66ED9
:102F8000DFCF16F0176A16BE1768FD0EDB50162449
:102F9000146EFE0EDB501720156E14C0E6FF15C030
:102FA000E6FFC8EC0CF0186E060EE15E1850000942
:102FB00050E00701010EEC6FD9CFE6FFDACFE6FF54
:102FC000ED0EE66E070EE66EDFCF16F0176A16BE40
:102FD0001768FD0EDB501624146EFE0EDB50172012
:102FE000156E14C0E6FF15C0E6FFD0EC0DF0186EAC
:102FF000060EE15E1850000903E1000EE0EF26F036
:10300000D9CFE6FFDACFE6FFEE0EE66E070EE66EEC
:10301000DFCF16F0176A16BE1768FD0EDB501624B8
:10302000146EFE0EDB501720156E14C0E6FF15C09F
:10303000E6FFD0EC0DF0186E060EE15E18500009A8
:1030400003E1000EE0EF26F01EEC0AF0010EE0EFC7
:1030500026F0010EDB50DF6EDC0EE66EDF0EE66E54
:10306000D950020FE66E000EDA20E66E1CEC00F07E
:10307000E552E552E552E552D9CFE6FFDACFE6FF59
:10308000D950020FE66E000EDA20E66EDFCF16F0A2
:10309000176A16BE1768FD0EDB501624146EFE0E5E
:1030A000DB501720156E14C0E6FF15C0E6FFC8EC14
:1030B0000CF0186E060EE15E1850000950E0070192
:1030C000010EEF6FD9CFE6FFDACFE6FFF00EE66E26
:1030D000070EE66EDFCF16F0176A16BE1768FD0EF4
:1030E000DB501624146EFE0EDB501720156E14C034
:1030F000E6FF15C0E6FFD0EC0DF0186E060EE15E9F
:103100001850000903E1000EE0EF26F0D9CFE6FFEA
:10311000DACFE6FFF10EE66E070EE66EDFCF16F0B1
:10312000176A16BE1768FD0EDB501624146EFE0ECD
:10313000DB501720156E14C0E6FF15C0E6FFD0EC7B
:103140000DF0186E060EE15E1850000903E1000E46
:10315000E0EF26F01EEC0AF0010EE0EF26F0010E83
:10316000DB50DF6E120EE66EE00EE66ED950020FF7
:10317000E66E000EDA20E66E1CEC00F0E552E55239
:10318000E552E552D9CFE6FFDACFE6FFD950020F7C
:10319000E66E000EDA20E66EDFCF16F0176A16BE76
:1031A0001768FD0EDB501624146EFE0EDB50172040
:1031B000156E14C0E6FF15C0E6FFC8EC0CF0186EE3
:1031C000060EE15E1850000924E00701010EF26FBF
:1031D000F30EE66E070EE66ED9CFE6FFDACFE6FF16
:1031E000FD0EDBCFE6FFFE0EDBCFE6FFD6EC0EF0EA
:1031F000146E060EE15E1450000903E1000EE0EFCC
:1032000026F00701280EF76F1EEC0AF0010EE0EF22
:1032100026F0010EDB50DF6E0B0EE66EE00EE66E62
:10322000D950020FE66E000EDA20E66E1CEC00F0BC
:10323000E552E552E552E552D9CFE6FFDACFE6FF97
:10324000D950020FE66E000EDA20E66EDFCF16F0E0
:10325000176A16BE1768FD0EDB501624146EFE0E9C
:10326000DB501720156E14C0E6FF15C0E6FFC8EC52
:103270000CF0186E060EE15E1850000924E00701FC
:10328000010EF26FF30EE66E070EE66ED9CFE6FF83
:10329000DACFE6FFFD0EDBCFE6FFFE0EDBCFE6FF6B
:1032A000D6EC0EF0146E060EE15E1450000903E138
:1032B000000EE0EF26F00701290EF76F1EEC0AF072
:1032C000010EE0EF26F0010EDB50DF6EF90EE66E28
:1032D000DF0EE66ED950020FE66E000EDA20E66EC3
:1032E0001CEC00F0E552E552E552E552D9CFE6FF7D
:1032F000DACFE6FFD950020FE66E000EDA20E66E56
:10330000DFCF16F0176A16BE1768FD0EDB501624C5
:10331000146EFE0EDB501720156E14C0E6FF15C0AC
:10332000E6FFC8EC0CF0186E060EE15E18500009BE
:1033300001E143D20701010EF86FD9CFE6FFDACFE2
:10334000E6FFF90EE66E070EE66EDFCF16F0176A9F
:1033500016BE1768FD0EDB501624146EFE0EDB50F1
:103360001720156E14C0E6FF15C0E6FFD0EC0DF077
:10337000186E060EE15E1850000903E1000EE0EF42
:1033800026F0D60EE66EDF0EE66ED950020FE66E20
:10339000000EDA20E66E1CEC00F0E552E552E55234
:1033A000E552D9CFE6FFDACFE6FFD950020FE66E3D
:1033B000000EDA20E66EDFCF16F0176A16BE176829
:1033C000FD0EDB501624146EFE0EDB501720156E1A
:1033D00014C0E6FF15C0E6FFC8EC0CF0186E060E30
:1033E000E15E1850000903E1000EE0EF26F0010E47
:1033F000DFCFDBFFD00EE66EDF0EE66ED950020F98
:10340000E66E000EDA20E66E1CEC00F0E552E552A6
:10341000E552E552D9CFE6FFDACFE6FFD950020FE9
:10342000E66E000EDA20E66EDFCF16F0176A16BEE3
:103430001768FD0EDB501624146EFE0EDB501720AD
:10344000156E14C0E6FF15C0E6FFC8EC0CF0186E50
:10345000060EE15E1850000903E00701FA6961D029
:10346000010EDB50DF6ECA0EE66EDF0EE66ED9503F
:10347000020FE66E000EDA20E66E1CEC00F0E5525C
:10348000E552E552E552D9CFE6FFDACFE6FFD95053
:10349000020FE66E000EDA20E66EDFCF16F0176A36
:1034A00016BE1768FD0EDB501624146EFE0EDB50A0
:1034B0001720156E14C0E6FF15C0E6FFC8EC0CF02F
:1034C000186E060EE15E1850000904E00701EE0ECA
:1034D000FA6F27D0010EDB50DF6ED9CFE6FFDACFCF
:1034E000E6FFFA0EE66E070EE66EDFCF16F0176AFD
:1034F00016BE1768FD0EDB501624146EFE0EDB5050
:103500001720156E14C0E6FF15C0E6FFD0EC0DF0D5
:10351000186E060EE15E1850000903E1000EE0EFA0
:1035200026F0010EDFCFDBFFC50EE66EDF0EE66E86
:10353000D950020FE66E000EDA20E66E1CEC00F0A9
:10354000E552E552E552E552D9CFE6FFDACFE6FF84
:10355000D950020FE66E000EDA20E66EDFCF16F0CD
:10356000176A16BE1768FD0EDB501624146EFE0E89
:10357000DB501720156E14C0E6FF15C0E6FFC8EC3F
:103580000CF0186E060EE15E1850000904E0070109
:10359000130EFB6F3DD0010EDB50DF6EC00EE66EEA
:1035A000DF0EE66ED950020FE66E000EDA20E66EF0
:1035B0001CEC00F0E552E552E552E552D9CFE6FFAA
:1035C000DACFE6FFD950020FE66E000EDA20E66E83
:1035D000DFCF16F0176A16BE1768FD0EDB501624F3
:1035E000146EFE0EDB501720156E14C0E6FF15C0DA
:1035F000E6FFC8EC0CF0186E060EE15E18500009EC
:1036000004E00701140EFB6F03D0000EE0EF26F07C
:10361000B80EE66EDF0EE66ED950020FE66E000EB3
:10362000DA20E66E1CEC00F0E552E552E552E55278
:10363000D9CFE6FFDACFE6FFD950020FE66E000ED3
:10364000DA20E66EDFCF16F0176A16BE1768FD0E99
:10365000DB501624146EFE0EDB501720156E14C0BE
:10366000E6FF15C0E6FFC8EC0CF0186E060EE15E32
:103670001850000903E1000EE0EF26F0010EDFCF45
:10368000DBFFD00EE66EDF0EE66ED950020FE66E5F
:10369000000EDA20E66E1CEC00F0E552E552E55231
:1036A000E552D9CFE6FFDACFE6FFD950020FE66E3A
:1036B000000EDA20E66EDFCF16F0176A16BE176826
:1036C000FD0EDB501624146EFE0EDB501720156E17
:1036D00014C0E6FF15C0E6FFC8EC0CF0186E060E2D
:1036E000E15E1850000903E00701FC6961D0010E9A
:1036F000DB50DF6ECA0EE66EDF0EE66ED950020FAB
:10370000E66E000EDA20E66E1CEC00F0E552E552A3
:10371000E552E552D9CFE6FFDACFE6FFD950020FE6
:10372000E66E000EDA20E66EDFCF16F0176A16BEE0
:103730001768FD0EDB501624146EFE0EDB501720AA
:10374000156E14C0E6FF15C0E6FFC8EC0CF0186E4D
:10375000060EE15E1850000904E00701EE0EFC6F52
:1037600027D0010EDB50DF6ED9CFE6FFDACFE6FFC0
:10377000FC0EE66E070EE66EDFCF16F0176A16BE79
:103780001768FD0EDB501624146EFE0EDB5017205A
:10379000156E14C0E6FF15C0E6FFD0EC0DF0186EF4
:1037A000060EE15E1850000903E1000EE0EF26F07E
:1037B0001EEC0AF0010EE0EF26F0010EDB50DF6E8A
:1037C000B00EE66EDF0EE66ED950020FE66E000E0A
:1037D000DA20E66E1CEC00F0E552E552E552E552C7
:1037E000D9CFE6FFDACFE6FFD950020FE66E000E22
:1037F000DA20E66EDFCF16F0176A16BE1768FD0EE8
:10380000DB501624146EFE0EDB501720156E14C00C
:10381000E6FF15C0E6FFC8EC0CF0186E060EE15E80
:10382000185000090BE00701010EFD6F07012E0E75
:10383000FE6F1EEC0AF0010EE0EF26F0010EDB50E9
:10384000DF6EA80EE66EDF0EE66ED950020FE66E52
:10385000000EDA20E66E1CEC00F0E552E552E5526F
:10386000E552D9CFE6FFDACFE6FFD950020FE66E78
:10387000000EDA20E66EDFCF16F0176A16BE176864
:10388000FD0EDB501624146EFE0EDB501720156E55
:1038900014C0E6FF15C0E6FFC8EC0CF0186E060E6B
:1038A000E15E185000090BE00701010EFD6F0701F2
:1038B0002F0EFE6F1EEC0AF0010EE0EF26F0010E57
:1038C000DB50DF6EA00EE66EDF0EE66ED950020F03
:1038D000E66E000EDA20E66E1CEC00F0E552E552D2
:1038E000E552E552D9CFE6FFDACFE6FFD950020F15
:1038F000E66E000EDA20E66EDFCF16F0176A16BE0F
:103900001768FD0EDB501624146EFE0EDB501720D8
:10391000156E14C0E6FF15C0E6FFC8EC0CF0186E7B
:10392000060EE15E185000090BE00701010EFD6F65
:103930000701300EFE6F1EEC0AF0010EE0EF26F0DC
:10394000010EDB50DF6E980EE66EDF0EE66ED9508C
:10395000020FE66E000EDA20E66E1CEC00F0E55277
:10396000E552E552E552D9CFE6FFDACFE6FFD9506E
:10397000020FE66E000EDA20E66EDFCF16F0176A51
:1039800016BE1768FD0EDB501624146EFE0EDB50BB
:103990001720156E14C0E6FF15C0E6FFC8EC0CF04A
:1039A000186E060EE15E185000090BE00701010ECB
:1039B000FD6F0701310EFE6F1EEC0AF0010EE0EF05
:1039C00026F0010EDB50DF6E910EE66EDF0EE66E26
:1039D000D950020FE66E000EDA20E66E1CEC00F005
:1039E000E552E552E552E552D9CFE6FFDACFE6FFE0
:1039F000D950020FE66E000EDA20E66EDFCF16F029
:103A0000176A16BE1768FD0EDB501624146EFE0EE4
:103A1000DB501720156E14C0E6FF15C0E6FFC8EC9A
:103A20000CF0186E060EE15E185000090BE007015D
:103A3000010EFD6F07012B0EFE6F1EEC0AF0010E4A
:103A4000E0EF26F0010EDB50DF6E870EE66EDF0E34
:103A5000E66ED950020FE66E000EDA20E66E1CEC20
:103A600000F0E552E552E552E552D9CFE6FFDACF54
:103A7000E6FFD950020FE66E000EDA20E66EDFCFC9
:103A800016F0176A16BE1768FD0EDB501624146E6A
:103A9000FE0EDB501720156E14C0E6FF15C0E6FFC2
:103AA000C8EC0CF0186E060EE15E185000090BE031
:103AB0000701010EFD6F07012C0EFE6F1EEC0AF0D0
:103AC000010EE0EF26F0010EDB50DF6E2C0EE66EED
:103AD000E00EE66ED950020FE66E000EDA20E66EBA
:103AE0001CEC00F0E552E552E552E552D9CFE6FF75
:103AF000DACFE6FFD950020FE66E000EDA20E66E4E
:103B0000DFCF16F0176A16BE1768FD0EDB501624BD
:103B1000146EFE0EDB501720156E14C0E6FF15C0A4
:103B2000E6FFC8EC0CF0186E060EE15E18500009B6
:103B300050E00701010EFF6FD9CFE6FFDACFE6FFB5
:103B4000000EE66E080EE66EDFCF16F0176A16BEA0
:103B50001768FD0EDB501624146EFE0EDB50172086
:103B6000156E14C0E6FF15C0E6FFD0EC0DF0186E20
:103B7000060EE15E1850000903E1000EE0EF26F0AA
:103B8000D9CFE6FFDACFE6FF010EE66E080EE66E4D
:103B9000DFCF16F0176A16BE1768FD0EDB5016242D
:103BA000146EFE0EDB501720156E14C0E6FF15C014
:103BB000E6FFD0EC0DF0186E060EE15E185000091D
:103BC00003E1000EE0EF26F01EEC0AF0010EE0EF3C
:103BD00026F0000EE0EF26F003D0000EE0EF26F016
:103BE000010EDB50DF6E830EE66EDF0EE66ED950FF
:103BF000020FE66E000EDA20E66E1CEC00F0E552D5
:103C0000E552E552E552D9CFE6FFDACFE6FFD950CB
:103C1000020FE66E000EDA20E66EDFCF16F0176AAE
:103C200016BE1768FD0EDB501624146EFE0EDB5018
:103C30001720156E14C0E6FF15C0E6FFC8EC0CF0A7
:103C4000186E060EE15E185000092CE00801010E06
:103C5000076FD9CFE6FFDACFE6FF080EE66E080E53
:103C6000E66EDFCF16F0176A16BE1768FD0EDB5042
:103C70001624146EFE0EDB501720156E14C0E6FFDE
:103C800015C0E6FFD0EC0DF0186E060EE15E185080
:103C9000000903E1000EE0EF26F01EEC0AF0010E31
:103CA000E0EF26F0DF6A7F0EE66EDF0EE66ED9509B
:103CB000020FE66E000EDA20E66E1CEC00F0E55214
:103CC000E552E552E552D9CFE6FFDACFE6FFD9500B
:103CD000020FE66E000EDA20E66EDFCF16F0176AEE
:103CE00016BE1768FD0EDB501624146EFE0EDB5058
:103CF0001720156E14C0E6FF15C0E6FFC8EC0CF0E7
:103D0000186E060EE15E1850000902E1DEEF26F0A3
:103D10000701020EB26FD9CFE6FFDACFE6FFB30E8E
:103D2000E66E070EE66EDFCF16F0176A16BE17684E
:103D3000FD0EDB501624146EFE0EDB501720156EA0
:103D400014C0E6FF15C0E6FFD0EC0DF0186E060EAD
:103D5000E15E1850000903E1000EE0EF26F0010ECD
:103D6000DFCFDBFF230EE66EE00EE66ED950020FCA
:103D7000E66E000EDA20E66E1CEC00F0E552E5522D
:103D8000E552E552D9CFE6FFDACFE6FFD950020F70
:103D9000E66E000EDA20E66EDFCF16F0176A16BE6A
:103DA0001768FD0EDB501624146EFE0EDB50172034
:103DB000156E14C0E6FF15C0E6FFC8EC0CF0186ED7
:103DC000060EE15E1850000950E00701010EB56FC4
:103DD000D9CFE6FFDACFE6FFB60EE66E070EE66E47
:103DE000DFCF16F0176A16BE1768FD0EDB501624DB
:103DF000146EFE0EDB501720156E14C0E6FF15C0C2
:103E0000E6FFD0EC0DF0186E060EE15E18500009CA
:103E100003E1000EE0EF26F0D9CFE6FFDACFE6FFB0
:103E2000B70EE66E070EE66EDFCF16F0176A16BE07
:103E30001768FD0EDB501624146EFE0EDB501720A3
:103E4000156E14C0E6FF15C0E6FFD0EC0DF0186E3D
:103E5000060EE15E1850000903E1000EE0EF26F0C7
:103E60001EEC0AF0010EE0EF26F0010EDB50DF6ED3
:103E7000FF0EE66EDF0EE66ED950020FE66E000E04
:103E8000DA20E66E1CEC00F0E552E552E552E55210
:103E9000D9CFE6FFDACFE6FFD950020FE66E000E6B
:103EA000DA20E66EDFCF16F0176A16BE1768FD0E31
:103EB000DB501624146EFE0EDB501720156E14C056
:103EC000E6FF15C0E6FFC8EC0CF0186E060EE15ECA
:103ED0001850000950E00701010EB86FD9CFE6FF76
:103EE000DACFE6FFB90EE66E070EE66EDFCF16F00C
:103EF000176A16BE1768FD0EDB501624146EFE0EF0
:103F0000DB501720156E14C0E6FF15C0E6FFD0EC9D
:103F10000DF0186E060EE15E1850000903E1000E68
:103F2000E0EF26F0D9CFE6FFDACFE6FFBA0EE66E75
:103F3000070EE66EDFCF16F0176A16BE1768FD0E85
:103F4000DB501624146EFE0EDB501720156E14C0C5
:103F5000E6FF15C0E6FFD0EC0DF0186E060EE15E30
:103F60001850000903E1000EE0EF26F01EEC0AF005
:103F7000010EE0EF26F0010EDB50DF6EDC0EE66E88
:103F8000DF0EE66ED950020FE66E000EDA20E66E06
:103F90001CEC00F0E552E552E552E552D9CFE6FFC0
:103FA000DACFE6FFD950020FE66E000EDA20E66E99
:103FB000DFCF16F0176A16BE1768FD0EDB50162409
:103FC000146EFE0EDB501720156E14C0E6FF15C0F0
:103FD000E6FFC8EC0CF0186E060EE15E1850000902
:103FE00050E00701010EBB6FD9CFE6FFDACFE6FF45
:103FF000BC0EE66E070EE66EDFCF16F0176A16BE31
:104000001768FD0EDB501624146EFE0EDB501720D1
:10401000156E14C0E6FF15C0E6FFD0EC0DF0186E6B
:10402000060EE15E1850000903E1000EE0EF26F0F5
:10403000D9CFE6FFDACFE6FFBD0EE66E070EE66EDD
:10404000DFCF16F0176A16BE1768FD0EDB50162478
:10405000146EFE0EDB501720156E14C0E6FF15C05F
:10406000E6FFD0EC0DF0186E060EE15E1850000968
:1040700003E1000EE0EF26F01EEC0AF0010EE0EF87
:1040800026F0010EDB50DF6E120EE66EE00EE66EDD
:10409000D950020FE66E000EDA20E66E1CEC00F03E
:1040A000E552E552E552E552D9CFE6FFDACFE6FF19
:1040B000D950020FE66E000EDA20E66EDFCF16F062
:1040C000176A16BE1768FD0EDB501624146EFE0E1E
:1040D000DB501720156E14C0E6FF15C0E6FFC8ECD4
:1040E0000CF0186E060EE15E1850000924E007017E
:1040F000010EBE6FBF0EE66E070EE66ED9CFE6FF6D
:10410000DACFE6FFFD0EDBCFE6FFFE0EDBCFE6FFEC
:10411000D6EC0EF0146E060EE15E1450000903E1B9
:10412000000EE0EF26F00701280EC36F1EEC0AF028
:10413000010EE0EF26F0010EDB50DF6E0B0EE66E97
:10414000E00EE66ED950020FE66E000EDA20E66E43
:104150001CEC00F0E552E552E552E552D9CFE6FFFE
:10416000DACFE6FFD950020FE66E000EDA20E66ED7
:10417000DFCF16F0176A16BE1768FD0EDB50162447
:10418000146EFE0EDB501720156E14C0E6FF15C02E
:10419000E6FFC8EC0CF0186E060EE15E1850000940
:1041A00024E00701010EBE6FBF0EE66E070EE66E3D
:1041B000D9CFE6FFDACFE6FFFD0EDBCFE6FFFE0E3E
:1041C000DBCFE6FFD6EC0EF0146E060EE15E145067
:1041D000000903E1000EE0EF26F00701290EC36F8E
:1041E0001EEC0AF0010EE0EF26F0010EDB50DF6E50
:1041F000F90EE66EDF0EE66ED950020FE66E000E87
:10420000DA20E66E1CEC00F0E552E552E552E5528C
:10421000D9CFE6FFDACFE6FFD950020FE66E000EE7
:10422000DA20E66EDFCF16F0176A16BE1768FD0EAD
:10423000DB501624146EFE0EDB501720156E14C0D2
:10424000E6FF15C0E6FFC8EC0CF0186E060EE15E46
:104250001850000901E141D20701010EC46FD9CF06
:10426000E6FFDACFE6FFC50EE66E070EE66EDFCF9D
:1042700016F0176A16BE1768FD0EDB501624146E72
:10428000FE0EDB501720156E14C0E6FF15C0E6FFCA
:10429000D0EC0DF0186E060EE15E1850000903E137
:1042A000000EE0EF26F0D60EE66EDF0EE66ED95079
:1042B000020FE66E000EDA20E66E1CEC00F0E5520E
:1042C000E552E552E552D9CFE6FFDACFE6FFD95005
:1042D000020FE66E000EDA20E66EDFCF16F0176AE8
:1042E00016BE1768FD0EDB501624146EFE0EDB5052
:1042F0001720156E14C0E6FF15C0E6FFC8EC0CF0E1
:10430000186E060EE15E1850000903E1000EE0EFA2
:1043100026F0010EDFCFDBFFD00EE66EDF0EE66E7D
:10432000D950020FE66E000EDA20E66E1CEC00F0AB
:10433000E552E552E552E552D9CFE6FFDACFE6FF86
:10434000D950020FE66E000EDA20E66EDFCF16F0CF
:10435000176A16BE1768FD0EDB501624146EFE0E8B
:10436000DB501720156E14C0E6FF15C0E6FFC8EC41
:104370000CF0186E060EE15E1850000903E007010C
:10438000C66961D0010EDB50DF6ECA0EE66EDF0E2D
:10439000E66ED950020FE66E000EDA20E66E1CECD7
:1043A00000F0E552E552E552E552D9CFE6FFDACF0B
:1043B000E6FFD950020FE66E000EDA20E66EDFCF80
:1043C00016F0176A16BE1768FD0EDB501624146E21
:1043D000FE0EDB501720156E14C0E6FF15C0E6FF79
:1043E000C8EC0CF0186E060EE15E1850000904E0EF
:1043F0000701EE0EC66F27D0010EDB50DF6ED9CF5E
:10440000E6FFDACFE6FFC60EE66E070EE66EDFCFFA
:1044100016F0176A16BE1768FD0EDB501624146ED0
:10442000FE0EDB501720156E14C0E6FF15C0E6FF28
:10443000D0EC0DF0186E060EE15E1850000903E195
:10444000000EE0EF26F0010EDFCFDBFFC50EE66EBB
:10445000DF0EE66ED950020FE66E000EDA20E66E31
:104460001CEC00F0E552E552E552E552D9CFE6FFEB
:10447000DACFE6FFD950020FE66E000EDA20E66EC4
:10448000DFCF16F0176A16BE1768FD0EDB50162434
:10449000146EFE0EDB501720156E14C0E6FF15C01B
:1044A000E6FFC8EC0CF0186E060EE15E185000092D
:1044B00004E00701130EC76F3DD0010EDB50DF6E25
:1044C000C00EE66EDF0EE66ED950020FE66E000EED
:1044D000DA20E66E1CEC00F0E552E552E552E552BA
:1044E000D9CFE6FFDACFE6FFD950020FE66E000E15
:1044F000DA20E66EDFCF16F0176A16BE1768FD0EDB
:10450000DB501624146EFE0EDB501720156E14C0FF
:10451000E6FF15C0E6FFC8EC0CF0186E060EE15E73
:104520001850000904E00701140EC76F03D0000EF5
:10453000E0EF26F0B80EE66EDF0EE66ED950020F01
:10454000E66E000EDA20E66E1CEC00F0E552E55255
:10455000E552E552D9CFE6FFDACFE6FFD950020F98
:10456000E66E000EDA20E66EDFCF16F0176A16BE92
:104570001768FD0EDB501624146EFE0EDB5017205C
:10458000156E14C0E6FF15C0E6FFC8EC0CF0186EFF
:10459000060EE15E1850000903E1000EE0EF26F080
:1045A000010EDFCFDBFFD00EE66EDF0EE66ED950D8
:1045B000020FE66E000EDA20E66E1CEC00F0E5520B
:1045C000E552E552E552D9CFE6FFDACFE6FFD95002
:1045D000020FE66E000EDA20E66EDFCF16F0176AE5
:1045E00016BE1768FD0EDB501624146EFE0EDB504F
:1045F0001720156E14C0E6FF15C0E6FFC8EC0CF0DE
:10460000186E060EE15E1850000903E00701C86944
:1046100060D0010EDB50DF6ECA0EE66EDF0EE66E76
:10462000D950020FE66E000EDA20E66E1CEC00F0A8
:10463000E552E552E552E552D9CFE6FFDACFE6FF83
:10464000D950020FE66E000EDA20E66EDFCF16F0CC
:10465000176A16BE1768FD0EDB501624146EFE0E88
:10466000DB501720156E14C0E6FF15C0E6FFC8EC3E
:104670000CF0186E060EE15E1850000904E0070108
:10468000EE0EC86F26D0010EDB50DF6ED9CFE6FFED
:10469000DACFE6FFC80EE66E070EE66EDFCF16F045
:1046A000176A16BE1768FD0EDB501624146EFE0E38
:1046B000DB501720156E14C0E6FF15C0E6FFD0ECE6
:1046C0000DF0186E060EE15E1850000902E1000EB2
:1046D00077D31EEC0AF0010E73D3010EDB50DF6EB0
:1046E000B00EE66EDF0EE66ED950020FE66E000EDB
:1046F000DA20E66E1CEC00F0E552E552E552E55298
:10470000D9CFE6FFDACFE6FFD950020FE66E000EF2
:10471000DA20E66EDFCF16F0176A16BE1768FD0EB8
:10472000DB501624146EFE0EDB501720156E14C0DD
:10473000E6FF15C0E6FFC8EC0CF0186E060EE15E51
:10474000185000090AE00701010EC96F07012E0E7B
:10475000CA6F1EEC0AF0010E33D3010EDB50DF6E80
:10476000A80EE66EDF0EE66ED950020FE66E000E62
:10477000DA20E66E1CEC00F0E552E552E552E55217
:10478000D9CFE6FFDACFE6FFD950020FE66E000E72
:10479000DA20E66EDFCF16F0176A16BE1768FD0E38
:1047A000DB501624146EFE0EDB501720156E14C05D
:1047B000E6FF15C0E6FFC8EC0CF0186E060EE15ED1
:1047C000185000090AE00701010EC96F07012F0EFA
:1047D000CA6F1EEC0AF0010EF3D2010EDB50DF6E41
:1047E000A00EE66EDF0EE66ED950020FE66E000EEA
:1047F000DA20E66E1CEC00F0E552E552E552E55297
:10480000D9CFE6FFDACFE6FFD950020FE66E000EF1
:10481000DA20E66EDFCF16F0176A16BE1768FD0EB7
:10482000DB501624146EFE0EDB501720156E14C0DC
:10483000E6FF15C0E6FFC8EC0CF0186E060EE15E50
:10484000185000090AE00701010EC96F0701300E78
:10485000CA6F1EEC0AF0010EB3D2010EDB50DF6E00
:10486000980EE66EDF0EE66ED950020FE66E000E71
:10487000DA20E66E1CEC00F0E552E552E552E55216
:10488000D9CFE6FFDACFE6FFD950020FE66E000E71
:10489000DA20E66EDFCF16F0176A16BE1768FD0E37
:1048A000DB501624146EFE0EDB501720156E14C05C
:1048B000E6FF15C0E6FFC8EC0CF0186E060EE15ED0
:1048C000185000090AE00701010EC96F0701310EF7
:1048D000CA6F1EEC0AF0010E73D2010EDB50DF6EC0
:1048E000910EE66EDF0EE66ED950020FE66E000EF8
:1048F000DA20E66E1CEC00F0E552E552E552E55296
:10490000D9CFE6FFDACFE6FFD950020FE66E000EF0
:10491000DA20E66EDFCF16F0176A16BE1768FD0EB6
:10492000DB501624146EFE0EDB501720156E14C0DB
:10493000E6FF15C0E6FFC8EC0CF0186E060EE15E4F
:10494000185000090AE00701010EC96F07012B0E7C
:10495000CA6F1EEC0AF0010E33D2010EDB50DF6E7F
:10496000870EE66EDF0EE66ED950020FE66E000E81
:10497000DA20E66E1CEC00F0E552E552E552E55215
:10498000D9CFE6FFDACFE6FFD950020FE66E000E70
:10499000DA20E66EDFCF16F0176A16BE1768FD0E36
:1049A000DB501624146EFE0EDB501720156E14C05B
:1049B000E6FF15C0E6FFC8EC0CF0186E060EE15ECF
:1049C000185000090AE00701010EC96F07012C0EFB
:1049D000CA6F1EEC0AF0010EF3D1010EDB50DF6E40
:1049E0002C0EE66EE00EE66ED950020FE66E000E5B
:1049F000DA20E66E1CEC00F0E552E552E552E55295
:104A0000D9CFE6FFDACFE6FFD950020FE66E000EEF
:104A1000DA20E66EDFCF16F0176A16BE1768FD0EB5
:104A2000DB501624146EFE0EDB501720156E14C0DA
:104A3000E6FF15C0E6FFC8EC0CF0186E060EE15E4E
:104A4000185000094DE00701010ECB6FD9CFE6FFEA
:104A5000DACFE6FFCC0EE66E070EE66EDFCF16F07D
:104A6000176A16BE1768FD0EDB501624146EFE0E74
:104A7000DB501720156E14C0E6FF15C0E6FFD0EC22
:104A80000DF0186E060EE15E1850000902E1000EEE
:104A900097D1D9CFE6FFDACFE6FFCD0EE66E070E4F
:104AA000E66EDFCF16F0176A16BE1768FD0EDB50F4
:104AB0001624146EFE0EDB501720156E14C0E6FF90
:104AC00015C0E6FFD0EC0DF0186E060EE15E185032
:104AD000000902E1000E74D11EEC0AF0010E70D143
:104AE000010EDB50DF6E790EE66EDF0EE66ED950FA
:104AF000020FE66E000EDA20E66E1CEC00F0E552C6
:104B0000E552E552E552D9CFE6FFDACFE6FFD950BC
:104B1000020FE66E000EDA20E66EDFCF16F0176A9F
:104B200016BE1768FD0EDB501624146EFE0EDB5009
:104B30001720156E14C0E6FF15C0E6FFC8EC0CF098
:104B4000186E060EE15E1850000907E00701010E1D
:104B5000CE6F1EEC0AF0010E33D1010EDB50DF6E7A
:104B6000730EE66EDF0EE66ED950020FE66E000E93
:104B7000DA20E66E1CEC00F0E552E552E552E55213
:104B8000D9CFE6FFDACFE6FFD950020FE66E000E6E
:104B9000DA20E66EDFCF16F0176A16BE1768FD0E34
:104BA000DB501624146EFE0EDB501720156E14C059
:104BB000E6FF15C0E6FFC8EC0CF0186E060EE15ECD
:104BC0001850000907E00701010ECF6F1EEC0AF034
:104BD000010EF6D0010EDB50DF6E6D0EE66EDF0EBD
:104BE000E66ED950020FE66E000EDA20E66E1CEC7F
:104BF00000F0E552E552E552E552D9CFE6FFDACFB3
:104C0000E6FFD950020FE66E000EDA20E66EDFCF27
:104C100016F0176A16BE1768FD0EDB501624146EC8
:104C2000FE0EDB501720156E14C0E6FF15C0E6FF20
:104C3000C8EC0CF0186E060EE15E1850000907E093
:104C40000701010ED06F1EEC0AF0010EB9D0010E63
:104C5000DB50DF6E670EE66EDF0EE66ED950020F98
:104C6000E66E000EDA20E66E1CEC00F0E552E5522E
:104C7000E552E552D9CFE6FFDACFE6FFD950020F71
:104C8000E66E000EDA20E66EDFCF16F0176A16BE6B
:104C90001768FD0EDB501624146EFE0EDB50172035
:104CA000156E14C0E6FF15C0E6FFC8EC0CF0186ED8
:104CB000060EE15E1850000907E00701010ED16FF2
:104CC0001EEC0AF0010E7CD0010EDB50DF6E5F0E91
:104CD000E66EDF0EE66ED950020FE66E000EDA20A9
:104CE000E66E1CEC00F0E552E552E552E552D9CFF4
:104CF000E6FFDACFE6FFD950020FE66E000EDA20AB
:104D0000E66EDFCF16F0176A16BE1768FD0EDB5091
:104D10001624146EFE0EDB501720156E14C0E6FF2D
:104D200015C0E6FFC8EC0CF0186E060EE15E1850D8
:104D3000000907E00701010ED26F1EEC0AF0010E18
:104D40003FD0010EDB50DF6E5A0EE66EDF0EE66ED0
:104D5000D950020FE66E000EDA20E66E1CEC00F071
:104D6000E552E552E552E552D9CFE6FFDACFE6FF4C
:104D7000D950020FE66E000EDA20E66EDFCF16F095
:104D8000176A16BE1768FD0EDB501624146EFE0E51
:104D9000DB501720156E14C0E6FF15C0E6FFC8EC07
:104DA0000CF0186E060EE15E1850000907E00701CE
:104DB000010ED36F1EEC0AF0010E02D0000E00D0DF
:104DC000146E0D0EE15C02E2E16AE552E16E1450F0
:104DD000E552E7CFD9FF1200D9CFE6FFE1CFD9FFE7
:104DE000030EE126010EDB6ADF6ADFCF14F0620EEC
:104DF000E76E1418E8AE02D0E73402D0E750145C36
:104E00000CE2DFCFE9FFEA6AE9BEEA68140EE926A0
:104E1000080EEA22EF6ADF2AE8D7DF6ADFCF14F054
:104E20004E0EE76E1418E8AE02D0E73402D0E75019
:104E3000145C55E2DFCFE9FFEA6AE9BEEA68B20E28
:104E4000E926070EEA22EF5001E149D0020EDB6AA3
:104E5000020EDBCF14F0DFCFE9FFEA6AE9BEEA68B1
:104E6000B20EE926070EEA22EF50E76E1418E8AEFC
:104E700002D0E73402D0E750145C2EE2010EDBCF03
:104E800014F0620EE76E1418E8AE02D0E73402D0D8
:104E9000E750145C03E357D9000E49D0DF28E96ED0
:104EA000EA6AE9BEEA68B20EE926070EEA22EF5086
:104EB000E66E010EDBCFF3FFDB2AF350E96EEA6A00
:104EC000E9BEEA68140EE926080EEA22E552E75028
:104ED000EF6E020EDB2ABCD7020EDF269FD7DF6AF9
:104EE000DFCF14F0620EE76E1418E8AE02D0E7349C
:104EF00002D0E750145C19E2DFCFE9FFEA6AE9BEAD
:104F0000EA68140EE926080EEA22EF50E66EDFCFBB
:104F1000E9FFEA6AE9BEEA68B20EE926070EEA226C
:104F2000E552E750EF6EDF2ADBD7010E00D0146E9A
:104F3000030EE15C02E2E16AE552E16E1450E552D3
:104F4000E7CFD9FF1200D9CFE6FFE1CFD9FF040E9A
:104F5000E126010EDB6ADF6A030EB2C7DBFF020E39
:104F6000DB6A010EDBCF14F0620EE76E1418E8AEB8
:104F700002D0E73402D0E750145C01E390D0010E78
:104F8000DBCFE9FFEA6AE9BEEA68B20EE926070E5E
:104F9000EA22EFCF14F0030EDB50145C13E1020E93
:104FA000DB2A010EDB2A010EDBCF14F0620EE76E66
:104FB0001418E8AE02D0E73402D0E750145C01E3E5
:104FC00001D0DDD7DFCF14F04F0EE76E1418E8AE36
:104FD00002D0E73402D0E750145C26E2DFCF15F0B0
:104FE000600EE76E1518E8AE02D0E73402D0E75045
:104FF000155C1AE2DF50DF2AE96EEA6AE9BEEA6868
:10500000140EE926080EEA22020EDBCFEFFFDF5076
:10501000DF2AE96EEA6AE9BEEA68140EE926080E9C
:10502000EA22030EDBCFEFFFDFCF14F0500EE76E66
:105030001418E8AE02D0E73402D0E750145C1FE346
:10504000010EDB6A010EDBCF14F0620EE76E14185E
:10505000E8AE02D0E73402D0E750145C0EE2010E55
:10506000DBCFE9FFEA6AE9BEEA68B20EE926070E7D
:10507000EA22EF6A010EDB2AE5D7000E58D0010EB6
:10508000DBCFE9FFEA6AE9BEEA68B20EE926070E5D
:10509000EA22030EEFCFDBFF020EDB6A62D7010EBE
:1050A000DB6A010EDBCF14F0DF50E76E1418E8AEB8
:1050B00002D0E73402D0E750145C1CE2010EDBCFD3
:1050C000E9FFEA6AE9BEEA68140EE926080EEA2258
:1050D000EF50E66E010EDBCFE9FFEA6AE9BEEA684F
:1050E000B20EE926070EEA22E552E750EF6E010EF6
:1050F000DB2AD7D7010EDBCF14F0620EE76E14184F
:10510000E8AE02D0E73402D0E750145C0EE2010EA4
:10511000DBCFE9FFEA6AE9BEEA68B20EE926070ECC
:10512000EA22EF6A010EDB2AE5D7DF5000D0146EC9
:10513000040EE15C02E2E16AE552E16E1450E552D0
:10514000E7CFD9FF1200D9CFE6FFE1CFD9FFE65272
:10515000DF6A620EDF5C09E2DF50EA6AB20FE96ED5
:10516000070EEA22EF6ADF2AF4D7E552E552E7CFCD
:10517000D9FF1200D9CFE6FFE1CFD9FFE652FE0EEC
:10518000DBCF14F000017351E76E1418E8AE02D0C3
:10519000E73402D0E750145C1DE3FE0EDBCF14F0C1
:1051A000156A14BE156814C0E6FF15C0E6FF680E48
:1051B000E66EE00EE66E760EE66E070EE66E1CEC10
:1051C00000F0166E060EE15E16500001150E746FAB
:1051D000000E59D0DF6ADFCF14F00F0EE76E1418FF
:1051E000E8AE02D0E73402D0E750145C49E2000197
:1051F000010E696F73C018F0196A18BE19680F0E96
:105200001902F3CF19F00F0E1802F3CF18F0F45073
:105210001926760E1826080E1922DFCF1AF01B6AFF
:105220001ABE1B6818501A24E96E19501B20EA6E2A
:10523000EF50E66EFE0EDBCF14F0156A14BE156853
:105240000F0E1502F3CF15F00F0E1402F3CF14F06A
:10525000F4501526760E1426080E1522DFCF16F010
:10526000176A16BE176814501624E96E15501720D9
:10527000EA6EE552E750EF6E0001696BDF2AABD7AB
:1052800090EC07F000D0E552E552E7CFD9FF1200CD
:10529000D9CFE6FFE1CFD9FF050EE126FE0EDBCF29
:1052A00014F0460EE76E1418E8AE02D0E73402D0D0
:1052B000E750145C17E3FE0EDBCFE6FF680EE66EE8
:1052C000E00EE66E760EE66E070EE66E1CEC00F063
:1052D000146E050EE15E14500001110E746F000E85
:1052E0008FEF2DF00001010E696F0701DE0564E10B
:1052F000FE0EDBCFE9FFEA6AE9BEEA680F0EEA02BA
:10530000F3CFEAFF0F0EE902F3CFE9FFF450EA26EC
:10531000760EE926080EEA22EF6AFE0EDBCFE9FFE1
:10532000EA6AE9BEEA680F0EEA02F3CFEAFF0F0E5F
:10533000E902F3CFE9FFF450EA26760EE926080EDB
:10534000EA22010EE926000EEA22DFC7EFFFFE0E79
:10535000DBCFE9FFEA6AE9BEEA680F0EEA02F3CFA3
:10536000EAFF0F0EE902F3CFE9FFF450EA26760ECA
:10537000E926080EEA22020EE926000EEA22E0C71C
:10538000EFFFFE0EDBCFE9FFEA6AE9BEEA680F0E27
:10539000EA02F3CFEAFF0F0EE902F3CFE9FFF45080
:1053A000EA26760EE926080EEA22030EE926000E0A
:1053B000EA22E1C7EFFFB5D00701E2054BE1FE0E9F
:1053C000DBCFE9FFEA6AE9BEEA680F0EEA02F3CF33
:1053D000EAFF0F0EE902F3CFE9FFF450EA26760E5A
:1053E000E926080EEA22010EEF6EFE0EDBCFE9FF82
:1053F000EA6AE9BEEA680F0EEA02F3CFEAFF0F0E8F
:10540000E902F3CFE9FFF450EA26760EE926080E0A
:10541000EA22010EE926000EEA22E3C7EFFFFE0EA4
:10542000DBCFE9FFEA6AE9BEEA680F0EEA02F3CFD2
:10543000EAFF0F0EE902F3CFE9FFF450EA26760EF9
:10544000E926080EEA22020EE926000EEA22E4C747
:10545000EFFF67D00701E50564E1FE0EDBCFE9FF52
:10546000EA6AE9BEEA680F0EEA02F3CFEAFF0F0E1E
:10547000E902F3CFE9FFF450EA26760EE926080E9A
:10548000EA22020EEF6EFE0EDBCFE9FFEA6AE9BE0A
:10549000EA680F0EEA02F3CFEAFF0F0EE902F3CF3C
:1054A000E9FFF450EA26760EE926080EEA22010EFC
:1054B000E926000EEA22E6C7EFFFFE0EDBCFE9FF8A
:1054C000EA6AE9BEEA680F0EEA02F3CFEAFF0F0EBE
:1054D000E902F3CFE9FFF450EA26760EE926080E3A
:1054E000EA22020EE926000EEA22E7C7EFFFFE0ECF
:1054F000DBCFE9FFEA6AE9BEEA680F0EEA02F3CF02
:10550000EAFF0F0EE902F3CFE9FFF450EA26760E28
:10551000E926080EEA22030EE926000EEA22E8C771
:10552000EFFF0701E9054EE1FE0EDBCFE9FFEA6A76
:10553000E9BEEA680F0EEA02F3CFEAFF0F0EE902B6
:10554000F3CFE9FFF450EA26760EE926080EEA22A8
:10555000040EE926000EEA22EF6AFE0EDBCFE9FF19
:10556000EA6AE9BEEA680F0EEA02F3CFEAFF0F0E1D
:10557000E902F3CFE9FFF450EA26760EE926080E99
:10558000EA22050EE926000EEA22EAC7EFFFFE0E28
:10559000DBCFE9FFEA6AE9BEEA680F0EEA02F3CF61
:1055A000EAFF0F0EE902F3CFE9FFF450EA26760E88
:1055B000E926080EEA22060EE926000EEA22EBC7CB
:1055C000EFFF20D20701EC054FE1FE0EDBCFE9FF34
:1055D000EA6AE9BEEA680F0EEA02F3CFEAFF0F0EAD
:1055E000E902F3CFE9FFF450EA26760EE926080E29
:1055F000EA22040EE926000EEA22010EEF6EFE0EEC
:10560000DBCFE9FFEA6AE9BEEA680F0EEA02F3CFF0
:10561000EAFF0F0EE902F3CFE9FFF450EA26760E17
:10562000E926080EEA22050EE926000EEA22EDC759
:10563000EFFFFE0EDBCFE9FFEA6AE9BEEA680F0E74
:10564000EA02F3CFEAFF0F0EE902F3CFE9FFF450CD
:10565000EA26760EE926080EEA22060EE926000E54
:10566000EA22EEC7EFFFCED10701EF054FE1FE0EB4
:10567000DBCFE9FFEA6AE9BEEA680F0EEA02F3CF80
:10568000EAFF0F0EE902F3CFE9FFF450EA26760EA7
:10569000E926080EEA22040EE926000EEA22020E8E
:1056A000EF6EFE0EDBCFE9FFEA6AE9BEEA680F0E95
:1056B000EA02F3CFEAFF0F0EE902F3CFE9FFF4505D
:1056C000EA26760EE926080EEA22050EE926000EE5
:1056D000EA22F0C7EFFFFE0EDBCFE9FFEA6AE9BE80
:1056E000EA680F0EEA02F3CFEAFF0F0EE902F3CFEA
:1056F000E9FFF450EA26760EE926080EEA22060EA5
:10570000E926000EEA22F1C7EFFF7CD10701F2057E
:1057100069E1FE0EDBCFE9FFEA6AE9BEEA680F0E37
:10572000EA02F3CFEAFF0F0EE902F3CFE9FFF450EC
:10573000EA26760EE926080EEA22040EE926000E75
:10574000EA22030EEF6EFE0EDBCFE9FFEA6AE9BE46
:10575000EA680F0EEA02F3CFEAFF0F0EE902F3CF79
:10576000E9FFF450EA26760EE926080EEA22050E35
:10577000E926000EEA22F3C7EFFFFE0EDBCFE9FFBA
:10578000EA6AE9BEEA680F0EEA02F3CFEAFF0F0EFB
:10579000E902F3CFE9FFF450EA26760EE926080E77
:1057A000EA22060EE926000EEA22F4C7EFFFFE0EFB
:1057B000DBCFE9FFEA6AE9BEEA680F0EEA02F3CF3F
:1057C000EAFF0F0EE902F3CFE9FFF450EA26760E66
:1057D000E926080EEA22070EE926000EEA22F7C79C
:1057E000EFFF10D10701F80501E083D0FE0EDBCFFB
:1057F000E9FFEA6AE9BEEA680F0EEA02F3CFEAFFC0
:105800000F0EE902F3CFE9FFF450EA26760EE926FF
:10581000080EEA22040EE926000EEA22040EEF6EBC
:10582000FE0EDBCFE9FFEA6AE9BEEA680F0EEA0284
:10583000F3CFEAFF0F0EE902F3CFE9FFF450EA26B7
:10584000760EE926080EEA22050EE926000EEA2267
:10585000F9C7EFFFFE0EDBCFE9FFEA6AE9BEEA68AF
:105860000F0EEA02F3CFEAFF0F0EE902F3CFE9FFD2
:10587000F450EA26760EE926080EEA22060EE926FC
:10588000000EEA22FAC7EFFFFE0EDBCFE9FFEA6A5D
:10589000E9BEEA680F0EEA02F3CFEAFF0F0EE90253
:1058A000F3CFE9FFF450EA26760EE926080EEA2245
:1058B000070EE926000EEA22FBC7EFFFFE0EDBCF44
:1058C000E9FFEA6AE9BEEA680F0EEA02F3CFEAFFEF
:1058D0000F0EE902F3CFE9FFF450EA26760EE9262F
:1058E000080EEA22080EE926000EEA22FCC7EFFFA6
:1058F00089D00701FD0535E1FE0EDBCFE9FFEA6A3D
:10590000E9BEEA680F0EEA02F3CFEAFF0F0EE902E2
:10591000F3CFE9FFF450EA26760EE926080EEA22D4
:10592000040EE926000EEA22050EEF6EFE0EDBCF16
:10593000E9FFEA6AE9BEEA680F0EEA02F3CFEAFF7E
:105940000F0EE902F3CFE9FFF450EA26760EE926BE
:10595000080EEA22050EE926000EEA22FEC7EFFF36
:1059600051D00701FF054EE1FE0EDBCFE9FFEA6AE9
:10597000E9BEEA680F0EEA02F3CFEAFF0F0EE90272
:10598000F3CFE9FFF450EA26760EE926080EEA2264
:10599000040EE926000EEA22060EEF6EFE0EDBCFA5
:1059A000E9FFEA6AE9BEEA680F0EEA02F3CFEAFF0E
:1059B0000F0EE902F3CFE9FFF450EA26760EE9264E
:1059C000080EEA22050EE926000EEA2200C8EFFFC3
:1059D000FE0EDBCFE9FFEA6AE9BEEA680F0EEA02D3
:1059E000F3CFEAFF0F0EE902F3CFE9FFF450EA2606
:1059F000760EE926080EEA22060EE926000EEA22B5
:105A000001C8EFFFFE0EDBCFE9FFEA6AE9BEEA68F4
:105A10000F0EEA02F3CFEAFF0F0EE902F3CFE9FF20
:105A2000F450EA26760EE926080EEA22090EE92647
:105A3000000EEA2202C8EFFFFE0EDBCFE9FFEA6AA2
:105A4000E9BEEA680F0EEA02F3CFEAFF0F0EE902A1
:105A5000F3CFE9FFF450EA26760EE926080EEA2293
:105A60000A0EE926000EEA2203C8EFFFFE0EDBCF86
:105A7000E9FFEA6AE9BEEA680F0EEA02F3CFEAFF3D
:105A80000F0EE902F3CFE9FFF450EA26760EE9267D
:105A9000080EEA220B0EE926000EEA2204C8EFFFE8
:105AA000FE0EDBCFE9FFEA6AE9BEEA680F0EEA0202
:105AB000F3CFEAFF0F0EE902F3CFE9FFF450EA2635
:105AC000760EE926080EEA220C0EE926000EEA22DE
