:020000040000FA
:060000007FEF79F0120011
:020006001200E6
:06000800A2EF56F0120009
:02000E00FEFFF3
:0600180052EF62F012003D
:02001E000200DE
:1000200047F300009B0000002E0000000E000000BF
:08003000D500000002000000F1
:08003800D9CFE6FFE1CFD9FFAB
:10004000040EE126D950FB0F146EFF0EDA20156E58
:10005000020E14C0DBFF030E15C0DBFF020EDBCF68
:10006000E6FF030EDBCFE6FFFB0EDBCF14F0FC0E4A
:10007000DBCF15F0166A14C0E6FF15C0E6FF16C008
:10008000E6FFFD0EDBCFE6FFFE0EDBCFE6FF65EC05
:1000900078F0176E070EE15E1750F3CFDEFFF4CF56
:1000A000DDFFDECF14F0DDCF15F014C0F3FF15C077
:1000B000F4FF00D0040EE15C02E2E16AE552E16E79
:1000C000E552E7CFD9FF1200D9CFE6FFE1CFD9FF44
:1000D000FD0EDBCF14F0FE0EDBCF15F0153404E27D
:1000E0001450FF08030E155403E2000E27D026D04B
:1000F000FF0EE76EFD0EDBCF14F0FE0EDBCF15F02A
:10010000E7501416156A1450A96EFD0EDBCF14F0DB
:10011000FE0EDBCF15F015C014F0156A030E141493
:10012000AA6EA69EA69CA680FB0EDBCFE9FFFC0E66
:10013000DBCFEAFFA8CFEFFF010E00D0E552E7CFFB
:10014000D9FF1200D9CFE6FFE1CFD9FF030EE12698
:10015000090EDE6EDD6A0001010E696F00018A6919
:100160008B6900018E698F690001010E936F000198
:10017000696B050EF36E020EF3CFDBFF020EDBCFD1
:1001800014F0000EE76E1418E8AE02D0143403D059
:10019000E750D880145429E2020EDBCF14F0156A20
:1001A00014BE156814C0E6FF15C0E6FF710EE66EBA
:1001B000EB0EE66E030EE66E070EE66E3DDF166E84
:1001C000060EE15E1650030EE66E070EE66E4FEC6D
:1001D00054F0E552E552020EE66EE66A8BEC64F0EE
:1001E000E552E552020EDB06C9D70001010E696F28
:1001F00000018C6B8D6B0001906B916B0001696B42
:10020000050EF36E020EF3CFDBFF020EDBCF14F010
:10021000000EE76E1418E8AE02D0143403D0E75095
:10022000D880145429E2020EDBCF14F0156A14BEF4
:10023000156814C0E6FF15C0E6FF690EE66EEB0E0A
:10024000E66E030EE66E070EE66EF6DE166E060E20
:10025000E15E1650030EE66E070EE66E4FEC54F0AC
:10026000E552E552020EE66EE66A8BEC64F0E5526A
:10027000E552020EDB06C9D7070EE66EEC0EE66EFF
:10028000660EE66EEB0EE66E030EE66E070EE66E8B
:10029000D3DE146E060EE15E1450030EE66E070EFA
:1002A000E66E4FEC54F0E552E552020EE66EE66A59
:1002B0008BEC64F0E552E5520001010E696F00011C
:1002C000936B0001696B8BC014F0156A1450E66ED5
:1002D000DFCF16F0DF2A010EDBCF17F001E3DB2AB8
:1002E00016C0E6FF17C0E6FFCDDBE552E552E5524A
:1002F00000018A51E66EDFCF14F0DF2A010EDBCF5A
:1003000015F001E3DB2A14C0E6FF15C0E6FFBADBF7
:10031000E552E552E5528DC014F0156A1450E66EB0
:10032000DFCF16F0DF2A010EDBCF17F001E3DB2A67
:1003300016C0E6FF17C0E6FFA5DBE552E552E55221
:1003400000018C51E66EDFCF14F0DF2A010EDBCF07
:1003500015F001E3DB2A14C0E6FF15C0E6FF92DBCF
:10036000E552E552E5528FC014F0156A1450E66E5E
:10037000DFCF16F0DF2A010EDBCF17F001E3DB2A17
:1003800016C0E6FF17C0E6FF7DDBE552E552E552F9
:1003900000018E51E66EDFCF14F0DF2A010EDBCFB5
:1003A00015F001E3DB2A14C0E6FF15C0E6FF6ADBA7
:1003B000E552E552E55291C014F0156A1450E66E0C
:1003C000DFCF16F0DF2A010EDBCF17F001E3DB2AC7
:1003D00016C0E6FF17C0E6FF55DBE552E552E552D1
:1003E00000019051E66EDECFE6FFDDCFE6FF4ADB8F
:1003F000E552E552E552030EE15C02E2E16AE552A4
:10040000E16EE552E7CFD9FF1200D9CFE6FFE1CF89
:10041000D9FF040EE126010EDB6A020EDB6A030E31
:10042000DB6A030EDBCF14F0080EE76E1418E8AE9B
:1004300002D0E73402D0E750145C17E2030EDBCFA2
:10044000E6FF010EDBCF14F0DB2A020EDBCF15F046
:1004500001E3DB2A14C0E6FF15C0E6FF13DBE5521B
:10046000E552E552030EDB2ADCD7080EF36E010ECF
:10047000F3CFDBFF020EDB6A060EDF6EDFCFE6FF97
:10048000010EDBCFE6FF020EDBCFE6FFFBDAE55223
:10049000E552E552110EF36E010EF3CFDBFF020EB3
:1004A000DB6ADF6ADFCFE6FF010EDBCFE6FF020E7D
:1004B000DBCFE6FFE7DAE552E552E5520001010E37
:1004C000696F0001060E686F0001736B0001696BB4
:1004D000120EF36E010EF3CFDBFF020EDB6A010E8C
:1004E000DBCF14F0020EDBCF15F0153404E214500C
:1004F0001508000E155412E3010EE66E010EDBCF57
:10050000E6FF020EDBCFE6FFBDDAE552E552E5522B
:10051000010EDB2A020E01E3DB2AE1D7160EF36E91
:10052000010EF3CFDBFF020EDB6A010EDBCF14F00E
:10053000020EDBCF15F0D890155004E61A0E145CAD
:10054000000E155811E2E66A010EDBCFE6FF020E3F
:10055000DBCFE6FF97DAE552E552E552010EDB2AE2
:10056000020E01E3DB2AE1D71A0EF36E010EF3CF80
:10057000DBFF020EDB6A010EDBCF14F0020EDBCFD5
:1005800015F0D890155004E61E0E145C000E155898
:1005900011E2E66A010EDBCFE6FF020EDBCFE6FFDB
:1005A00071DAE552E552E552010EDB2A020E01E353
:1005B000DB2AE1D71E0EF36E010EF3CFDBFF020E36
:1005C000DB6A010EDBCF14F0020EDBCF15F0D89002
:1005D000155004E62D0E145C000E155811E2E66A63
:1005E000010EDBCFE6FF020EDBCFE6FF4BDAE55272
:1005F000E552E552010EDB2A020E01E3DB2AE1D7C8
:10060000040EE15C02E2E16AE552E16EE552E7CFF9
:10061000D9FF1200D9CFE6FFE1CFD9FF070EE126BF
:10062000020EDB6A030EDB6A060EDB6A060EDBCF08
:1006300014F0080EE76E1418E8AE02D0E73402D0CA
:10064000E750145C1FE2D9CFE6FFDACFE6FF020ED7
:10065000DBCF14F0DB2A030EDBCF15F001E3DB2A3E
:1006600014C0E6FF15C0E6FF2FDDE552E552E55266
:10067000E552060EDB50DF5C02E0C7DEE7D1060E76
:10068000DB2AD4D7080EF36E020EF3CFDBFF030E86
:10069000DB6AD9CFE6FFDACFE6FF020EDBCFE6FF5B
:1006A000030EDBCFE6FF10DDE552E552E552E552E1
:1006B0000001010E696FDFCF68F00001696B120E57
:1006C000F36E020EF3CFDBFF030EDB6AD9CFE6FF3A
:1006D000DACFE6FF020EDBCF14F0DB2A030EDBCF0E
:1006E00015F001E3DB2A14C0E6FF15C0E6FFECDCE1
:1006F000E552E552E552E552DF50E8B09582E8A0B8
:100700009592D9CFE6FFDACFE6FF020EDBCF14F0E9
:10071000DB2A030EDBCF15F001E3DB2A14C0E6FF72
:1007200015C0E6FFD1DCE552E552E552E552DF5057
:10073000E8B09584E8A09594D9CFE6FFDACFE6FF3C
:10074000020EDBCF14F0DB2A030EDBCF15F001E342
:10075000DB2A14C0E6FF15C0E6FFB6DCE552E55221
:10076000E552E552DF50E8B09586E8A09596D9CFDE
:10077000E6FFDACFE6FF020EDBCFE6FF030EDBCFAC
:10078000E6FFA2DCE552E552E552E552DF50E8B063
:100790009488E8A09498090EF36E020EF3CFDBFF65
:1007A000030EDB6AD9CFE6FFDACFE6FF020EDBCF1E
:1007B00014F0DB2A030EDBCF15F001E3DB2A14C0B3
:1007C000E6FF15C0E6FF80DCE552E552E552E55252
:1007D0000001010E696FDFCF8AF000018B6B8ABFC9
:1007E0008B690001696BD9CFE6FFDACFE6FF020E15
:1007F000DBCF14F0DB2A030EDBCF15F001E3DB2A9D
:1008000014C0E6FF15C0E6FF5FDCE552E552E55295
:10081000E5520001010E696FDFCF14F0156A14BEB6
:1008200015688AC017F0166A1450162400018A6FE2
:100830001550172000018B6F0001696BD9CFE6FFBF
:10084000DACFE6FF020EDBCF14F0DB2A030EDBCF9C
:1008500015F001E3DB2A14C0E6FF15C0E6FF34DC27
:10086000E552E552E552E5520001010E696FDFCF16
:100870008CF000018D6B8CBF8D690001696BD9CF45
:10088000E6FFDACFE6FF020EDBCF14F0DB2A030E21
:10089000DBCF15F001E3DB2A14C0E6FF15C0E6FF4D
:1008A00013DCE552E552E552E5520001010E696F95
:1008B000DFCF14F0156A14BE15688CC017F0166AE5
:1008C0001450162400018C6F1550172000018D6FF5
:1008D0000001696BD9CFE6FFDACFE6FF020EDBCF6E
:1008E00014F0DB2A030EDBCF15F001E3DB2A14C082
:1008F000E6FF15C0E6FF64EC00F0E552E552E55274
:10090000E5520001010E696FDFCF8EF000018F6BA1
:100910008EBF8F690001696BD9CFE6FFDACFE6FFA2
:10092000020EDBCF14F0DB2A030EDBCF15F001E360
:10093000DB2A14C0E6FF15C0E6FF64EC00F0E552C8
:10094000E552E552E5520001010E696FDFCF14F068
:10095000156A14BE15688EC017F0166A1450162456
:1009600000018E6F1550172000018F6F0001696B19
:10097000D9CFE6FFDACFE6FF020EDBCF14F0DB2A99
:10098000030EDBCF15F001E3DB2A14C0E6FF15C030
:10099000E6FF64EC00F0E552E552E552E552000155
:1009A000010E696FDFCF90F00001916B90BF9169EC
:1009B0000001696BD9CFE6FFDACFE6FF020EDBCF8D
:1009C000E6FF030EDBCFE6FF64EC00F0E552E552F4
:1009D000E552E5520001010E696FDFCF14F0156A90
:1009E00014BE156890C017F0166A14501624000142
:1009F000906F155017200001916F0001696B000185
:100A0000010E696F00018A5100018C5D0001946F35
:100A100000018B5100018D590001956F0001696B38
:100A20000001010E696F00018E510001905D00010F
:100A3000966F00018F51000191590001976F0001DD
:100A4000696B5ADAE76E010EE7CFDBFF070EE15C58
:100A500002E2E16AE552E16EE552E7CFD9FF12000A
:100A6000A1A805D0A198A694010E03D002D0000E33
:100A700000D01200A6B203D0010E03D002D0000EA7
:100A800000D01200D9CFE6FFE1CFD9FFE652FD0E2C
:100A9000DBCF14F0FE0EDBCF15F0153404E214505A
:100AA000FF08030E155403E2000E4BD04AD0E2DFDC
:100AB000000901E1FCD7D9CFE6FFDACFE6FFFD0E52
:100AC000DBCFE6FFFE0EDBCFE6FF64EC00F0E55285
:100AD000E552E552E552FC0EDB50DF5C02E1010E0F
:100AE00030D0FF0EE76EFD0EDBCF14F0FE0EDBCF35
:100AF00015F0E7501416156A1450A96EFD0EDBCFE1
:100B000014F0FE0EDBCF15F015C014F0156A030EBD
:100B10001414AA6EFC0EDB50A86EA69EA69CA6849A
:100B2000F29E550EA76EAA0EA76EA68299DFFF0849
:100B300001E1FCD79FDF000901E1FCD7F28E010E35
:100B400000D0E552E552E7CFD9FF1200D5D900D049
:100B50001200D9CFE6FFE1CFD9FF040EE126790ECE
:100B6000E66EEB0EE66E660EE66EEB0EE66E030EBE
:100B7000E66E070EE66E1CEC00F0146E060EE15EEB
:100B80001450030EE66E070EE66E45EC49F0E55292
:100B9000E5528D0EE66EEB0EE66E660EE66EEB0E21
:100BA000E66E030EE66E070EE66E1CEC00F0146EA9
:100BB000060EE15E1450030EE66E070EE66E45EC7F
:100BC00049F0E552E552A10EE66EEB0EE66E660EBA
:100BD000E66EEB0EE66E030EE66E070EE66E1CEC9E
:100BE00000F0146E060EE15E145060C014F0156A39
:100BF00014BE156814C0E6FF15C0E6FF030EE66ECE
:100C0000070EE66E610EE66EEB0EE66E030EE66E06
:100C1000070EE66E1CEC00F0166E080EE15E165034
:100C2000030EE66E070EE66E45EC49F0E552E5521E
:100C3000A90EE66EEB0EE66E660EE66EEB0EE66E47
:100C4000030EE66E070EE66E1CEC00F0146E060E48
:100C5000E15E1450060E0001685D13E1030EE66EBE
:100C6000070EE66E5B0EE66EEB0EE66E030EE66EAC
:100C7000070EE66E1CEC00F0146E060EE15E1450DA
:100C800012D0030EE66E070EE66E550EE66EEB0E04
:100C9000E66E030EE66E070EE66E1CEC00F0146EB8
:100CA000060EE15E1450030EE66E070EE66E45EC8E
:100CB00049F0E552E552B00EE66EEB0EE66E660EBA
:100CC000E66EEB0EE66E030EE66E070EE66E1CECAD
:100CD00000F0146E060EE15E145038DF146E156AD3
:100CE00014BE156814C0E6FF15C0E6FF030EE66EDD
:100CF000070EE66E4E0EE66EEB0EE66E030EE66E29
:100D0000070EE66E1CEC00F0166E080EE15E165043
:100D1000030EE66E070EE66E45EC49F0E552E5522D
:100D2000B90EE66EEB0EE66E660EE66EEB0EE66E46
:100D3000030EE66E070EE66E1CEC00F0146E060E57
:100D4000E15E14502C0E0001775D13E0030EE66E99
:100D5000070EE66E450EE66EEB0EE66E030EE66ED1
:100D6000070EE66E1CEC00F0146E060EE15E1450E9
:100D700012D0030EE66E070EE66E390EE66EEB0E2F
:100D8000E66E030EE66E070EE66E1CEC00F0146EC7
:100D9000060EE15E1450030EE66E070EE66E45EC9D
:100DA00049F0E552E552CB0EE66EEB0EE66E660EAE
:100DB000E66EEB0EE66E030EE66E070EE66E1CECBC
:100DC00000F0146E060EE15E145073C014F0156A44
:100DD00014BE156814C0E6FF15C0E6FF030EE66EEC
:100DE000070EE66E610EE66EEB0EE66E030EE66E25
:100DF000070EE66E1CEC00F0166E080EE15E165053
:100E0000030EE66E070EE66E45EC49F0E552E5523C
:100E1000030EDB6A030EDBCF14F00F0EE76E14181F
:100E2000E8AE02D0E73402D0E750145C45E2030E8E
:100E3000DBCF14F0156A14BE15681E0E1426000EC2
:100E40001522010E14C0DBFF020E15C0DBFFD9CF47
:100E5000E6FFDACFE6FF010EDBCFE6FF020EDBCFC7
:100E6000E6FF64EC00F0E552E552E552E552DF049E
:100E700020E1030EDBCF14F0156A14BE156814C010
:100E8000E6FF15C0E6FF290EE66EEB0EE66E030EDA
:100E9000E66E070EE66E1CEC00F0166E060EE15EC6
:100EA0001650030EE66E070EE66E45EC49F0E5526D
:100EB000E552030EDB2AAED7280EE66EEB0EE66E89
:100EC000030EE66E070EE66E1CEC00F0E552E552EE
:100ED000E552E552030EE66E070EE66E45EC49F06C
:100EE000E552E552040EE15C02E2E16AE552E16E90
:100EF000E552E7CFD9FF1200D9CFE6FFE1CFD9FF06
:100F0000090EE126110EF36E030EF3CFDBFF040E84
:100F1000DB6AD950020FE66E000EDA20E66E030E91
:100F2000DBCFE6FF040EDBCFE6FF64EC00F0E5521A
:100F3000E552E552E5520001010E696F020EDBCF6A
:100F400073F00001696B0001735102E1640EB4D0CB
:100F50002D0EF36E030EF3CFDBFF040EDB6ADF6AA8
:100F6000DFCF14F000017351E76E1418E8AE02D021
:100F7000E73402D0E750145C54E2010EDB6A010E44
:100F8000DBCF14F00F0EE76E1418E8AE02D0E73492
:100F900002D0E750145C43E2D950020FE66E000E17
:100FA000DA20E66E030EDBCF14F0DB2A040EDBCF73
:100FB00015F001E3DB2A14C0E6FF15C0E6FF64EC80
:100FC00000F0E552E552E552E5520001010E696F6D
:100FD000DFCF14F0156A14BE15680F0E1502F3CF9B
:100FE00015F00F0E1402F3CF14F0F45015268A0EEC
:100FF0001426080E1522010EDBCF16F0176A16BE56
:10100000176814501624E96E15501720EA6E020E68
:10101000DBCFEFFF0001696B010EDB2AB0D7DF2ABF
:101020009FD7146A040E156E166A176A030EDBCF7B
:1010300018F0040EDBCF19F01A6A1B6A19AE02D041
:101040001A681B681850145C066E19501558076E04
:101050001A501658086E1B501758096E640E0B6E06
:101060000C6A0D6A0E6A06C006F007C007F008C0D9
:1010700008F009C009F0EBEC78F002C006F003C0FC
:1010800007F004C008F005C009F0D30E0B6E030E84
:101090000C6E0D6A0E6A57EC77F0050E06C0DBFF8A
:1010A000060E07C0DBFF070E08C0DBFF080E09C0F5
:1010B000DBFF050EDB5000D0146E090EE15C02E28E
:1010C000E16AE552E16E1450E552E7CFD9FF120014
:1010D000D9CFE6FFE1CFD9FF050EE1262D0EF36E45
:1010E000020EF3CFDBFF030EDB6ADF6ADFCF14F003
:1010F00000017351E76E1418E8AE02D0E73402D055
:10110000E750145C01E37AD00F0EE76E020EDBCFDE
:1011100014F0030EDBCF15F0E7501426000E152255
:10112000D890155004E6000E145C040E15581CE30C
:1011300073C014F0156A14BE156814C0E6FF15C01C
:10114000E6FF1C0EE66EEB0EE66E820EE66E070EF6
:10115000E66E1CEC00F0166E060EE15E1650000105
:10116000110E746F000E63D0010EDB6A010EDBCF2F
:1011700014F00F0EE76E1418E8AE02D0E73402D078
:10118000E750145C39E2DFCF14F0156A14BE15681D
:101190000F0E1502F3CF15F00F0E1402F3CF14F05B
:1011A000F45015268A0E1426080E1522010EDBCFE8
:1011B00016F0176A16BE176814501624E96E1550FB
:1011C0001720EA6E040EEFCFDBFF040EDBCFE6FF45
:1011D000020EDBCF14F0DB2A030EDBCF15F001E3A8
:1011E000DB2A14C0E6FF15C0E6FF4CDCE552E552F1
:1011F000E552010EDB2ABAD7DF2A78D7110EF36E3B
:10120000020EF3CFDBFF030EDB6A040E73C0DBFFBD
:10121000040EDBCFE6FF020EDBCFE6FF030EDBCFD3
:10122000E6FF30DCE552E552E552010E00D0146EC7
:10123000050EE15C02E2E16AE552E16E1450E5520E
:10124000E7CFD9FF1200D9CFE6FFE1CFD9FFFE0EDD
:10125000DBCF14F0300EE76E1418E8AE02D0E7349E
:1012600002D0E750145C11E3FE0EDBCF15F0390E0F
:10127000E76E1518E8AE02D0153403D0E750D880D9
:10128000155403E3010E03D002D0000E00D0E55246
:10129000E7CFD9FF1200D9CFE6FFE1CFD9FFFE0E8D
:1012A000DBCF14F0410EE76E1418E8AE02D0E7343D
:1012B00002D0E750145C11E3FE0EDBCF15F0460EB2
:1012C000E76E1518E8AE02D0153403D0E750D88089
:1012D000155403E3010E03D002D0000E00D0E552F6
:1012E000E7CFD9FF1200D9CFE6FFE1CFD9FFE65211
:1012F000FE0EDBCF14F0610EE76E1418E8AE02D0DC
:10130000E73402D0E750145C13E3FE0EDBCF15F098
:101310007A0EE76E1518E8AE02D0153403D0E75008
:10132000D880155405E3FE0EDB50E00FDF6E03D0CE
:10133000FE0EDB50DF6EDF5000D0E552E552E7CF06
:10134000D9FF1200D9CFE6FFE1CFD9FF090EE12680
:10135000DE6ADD6A020EDB6A030EDB6A0A0EF36EDA
:10136000040EF3CFDBFF050EDB6A060EDB6AFD0E13
:10137000DBCFE9FFFE0EDBCFEAFFEF50300805E1DF
:10138000FD0EDB2AFE0E01E3DB2AFD0EDBCFE9FFBB
:10139000FE0EDBCFEAFFEF5009E0FD0EDBCFE9FFE9
:1013A000FE0EDBCFEAFFEF5020080BE1050EDBCF8E
:1013B00014F0060EDBCF15F014C0F3FF15C0F4FFD8
:1013C0000BD1FD0EDBCFE9FFFE0EDBCFEAFFEF50C6
:1013D000E66E89DFE55258080AE1FD0EDB2AFE0EB3
:1013E00001E3DB2A100EF36E040EF3CFDBFFFD0EDC
:1013F000DBCFE9FFFE0EDBCFEAFFEF5001E1ADD01E
:10140000FD0EDBCFE9FFFE0EDBCFEAFFEF50200839
:1014100001E1A3D0FD0EDBCFE9FFFE0EDBCFEAFF3B
:10142000EF50E66E10DFE552000913E0FD0EDBCF52
:10143000E9FFFE0EDBCFEAFFEF50D00FE66ED9508A
:10144000070FE96EDACFEAFFE552E750EE6EED6A7C
:1014500048D0FD0EDBCFE9FFFE0EDBCFEAFFEF50F9
:10146000E66E41DFE552E66E16DFE55200092AE03E
:10147000FD0EDBCFE9FFFE0EDBCFEAFFEF50E66E9D
:1014800032DFE552BF0F0A0FE66ED950070FE96E43
:10149000DACFEAFFE552E750EE6EED6A070EDBCFDA
:1014A00014F0080EDBCF15F0D890155004E60A0EA4
:1014B000145C000E155805E3100EF36E040EF3CF06
:1014C000DBFF0FD0220E0001D36FD46B050EDBCFF4
:1014D00014F0060EDBCF15F014C0F3FF15C0F4FFB7
:1014E0007BD0070EDBCF16F0080EDBCF17F0100E07
:1014F000086E096ADECF0DF0DDCF0EF08BEC77F0D1
:1015000006501624146E07501720156E14C0DEFF07
:1015100015C0DDFF070EDBCF16F0080EDBCF17F08E
:101520000A0E086E096A020EDBCF0DF0030EDBCF48
:101530000EF08BEC77F006501624146E075017202F
:10154000156E020E14C0DBFF030E15C0DBFFFD0E8F
:10155000DB2AFE0E01E3DB2A4AD7040EDB500A0821
:101560000DE1020EDBCF08F0030EDBCF09F0050E14
:1015700008C0DBFF060E09C0DBFF0AD0D9CFE9FFA8
:10158000DACFEAFF050EEECFDBFF060EEDCFDBFF75
:10159000050EDBCF14F0060EDBCF15F00001800E38
:1015A00015140FE0220E0001D36FD46B050EDBCFB4
:1015B00014F0060EDBCF15F014C0F3FF15C0F4FFD6
:1015C0000BD0050EDBCF14F0060EDBCF15F014C0E8
:1015D000F3FF15C0F4FF00D0090EE15C02E2E16AFE
:1015E000E552E16EE552E7CFD9FF1200280EE66E14
:1015F000EB0EE66E820EE66E070EE66E1CEC00F059
:10160000E552E552E552E5520001746B120000010B
:1016100074511C0A01E14DD2140A01E137D2100ABB
:1016200001E121D20D0A01E10BD2010A01E1F5D15C
:10163000070A01E1DFD1010A01E1C9D1030A01E191
:10164000B3D1010A01E19DD11F0A01E187D1010A4D
:1016500001E171D1030A01E15BD1010A01E145D148
:10166000060A01E12FD1030A01E119D10E0A01E1B5
:1016700003D11C0A01E1EDD0010A01E1D7D0030A30
:1016800001E1C1D0120A01E1ABD01C0A01E195D001
:10169000010A01E17FD0100A6AE0030A55E0010A5D
:1016A00040E0070A2BE0010A16E0030A01E014D229
:1016B000440EE66EEC0EE66E660EE66EEB0EE66E21
:1016C000030EE66E070EE66E1CEC00F0146E060EBE
:1016D000E15E145015D2530EE66EEC0EE66E660E09
:1016E000E66EEB0EE66E030EE66E070EE66E1CEC83
:1016F00000F0146E060EE15E145002D2630EE66E28
:10170000EC0EE66E660EE66EEB0EE66E030EE66E11
:10171000070EE66E1CEC00F0146E060EE15E14502F
:10172000EFD1770EE66EEC0EE66E660EE66EEB0E11
:10173000E66E030EE66E070EE66E1CEC00F0146E0D
:10174000060EE15E1450DCD1830EE66EEC0EE66E02
:10175000660EE66EEB0EE66E030EE66E070EE66EA6
:101760001CEC00F0146E060EE15E1450C9D1910E0F
:10177000E66EEC0EE66E660EE66EEB0EE66E030EA1
:10178000E66E070EE66E1CEC00F0146E060EE15ECF
:101790001450B6D1A20EE66EEC0EE66E660EE66E44
:1017A000EB0EE66E030EE66E070EE66E1CEC00F026
:1017B000146E060EE15E1450A3D1B40EE66EEC0E6C
:1017C000E66E660EE66EEB0EE66E030EE66E070E36
:1017D000E66E1CEC00F0146E060EE15E145090D123
:1017E000C50EE66EEC0EE66E660EE66EEB0EE66E6F
:1017F000030EE66E070EE66E1CEC00F0146E060E8D
:10180000E15E14507DD1D50EE66EEC0EE66E660EEE
:10181000E66EEB0EE66E030EE66E070EE66E1CEC51
:1018200000F0146E060EE15E14506AD1EC0EE66E06
:10183000EC0EE66E660EE66EEB0EE66E030EE66EE0
:10184000070EE66E1CEC00F0146E060EE15E1450FE
:1018500057D1010EE66EED0EE66E660EE66EEB0EED
:10186000E66E030EE66E070EE66E1CEC00F0146EDC
:10187000060EE15E145044D11A0EE66EED0EE66ED1
:10188000660EE66EEB0EE66E030EE66E070EE66E75
:101890001CEC00F0146E060EE15E145031D12E0ED9
:1018A000E66EED0EE66E660EE66EEB0EE66E030E6F
:1018B000E66E070EE66E1CEC00F0146E060EE15E9E
:1018C00014501ED13E0EE66EED0EE66E660EE66E0E
:1018D000EB0EE66E030EE66E070EE66E1CEC00F0F5
:1018E000146E060EE15E14500BD14D0EE66EED0E39
:1018F000E66E660EE66EEB0EE66E030EE66E070E05
:10190000E66E1CEC00F0146E060EE15E1450F8D08A
:101910005E0EE66EED0EE66E660EE66EEB0EE66EA3
:10192000030EE66E070EE66E1CEC00F0146E060E5B
:10193000E15E1450E5D0730EE66EED0EE66E660EB7
:10194000E66EEB0EE66E030EE66E070EE66E1CEC20
:1019500000F0146E060EE15E1450D2D0850EE66ED5
:10196000ED0EE66E660EE66EEB0EE66E030EE66EAE
:10197000070EE66E1CEC00F0146E060EE15E1450CD
:10198000BFD0950EE66EED0EE66E660EE66EEB0EC1
:10199000E66E030EE66E070EE66E1CEC00F0146EAB
:1019A000060EE15E1450ACD0A90EE66EED0EE66EAA
:1019B000660EE66EEB0EE66E030EE66E070EE66E44
:1019C0001CEC00F0146E060EE15E145099D0C30EAC
:1019D000E66EED0EE66E660EE66EEB0EE66E030E3E
:1019E000E66E070EE66E1CEC00F0146E060EE15E6D
:1019F000145086D0D20EE66EED0EE66E660EE66EE2
:101A0000EB0EE66E030EE66E070EE66E1CEC00F0C3
:101A1000146E060EE15E145073D0E70EE66EED0E06
:101A2000E66E660EE66EEB0EE66E030EE66E070ED3
:101A3000E66E1CEC00F0146E060EE15E145060D0F1
:101A4000030EE66EEE0EE66E660EE66EEB0EE66ECC
:101A5000030EE66E070EE66E1CEC00F0146E060E2A
:101A6000E15E14504DD01C0EE66EEE0EE66E660E74
:101A7000E66EEB0EE66E030EE66E070EE66E1CECEF
:101A800000F0146E060EE15E14503AD02F0EE66E92
:101A9000EE0EE66E660EE66EEB0EE66E030EE66E7C
:101AA000070EE66E1CEC00F0146E060EE15E14509C
:101AB00027D04D0EE66EEE0EE66E660EE66EEB0E6F
:101AC000E66E030EE66E070EE66E1CEC00F0146E7A
:101AD000060EE15E145014D074C0E6FF3E0EE66EB2
:101AE000EE0EE66E140EE66EEB0EE66E030EE66E7E
:101AF000070EE66E1CEC00F0146E070EE15E14504B
:101B0000820EE66E070EE66E030EE66E070EE66EBA
:101B10000E0EE66EEB0EE66E030EE66E070EE66E3A
:101B20001CEC00F0146E080EE15E1450030EE66E1D
:101B3000070EE66E45EC49F0E552E552280EE66EDA
:101B4000EB0EE66E030EE66E070EE66E1CEC00F082
:101B5000E552E552E552E552030EE66E070EE66EDB
:101B600045EC49F0E552E55241DD1200D9CFE6FFE0
:101B7000E1CFD9FF110EE126DF6A0F0EDB6A100EEE
:101B8000DB6AFD0EDBCFE6FFFE0EDBCFE6FFB8EC37
:101B900077F0E552E5520B0EF3CFDBFF0C0EF4CFDE
:101BA000DBFFFB0EDBCFE6FFFC0EDBCFE6FFB8EC86
:101BB00077F0E552E5520D0EF3CFDBFF0E0EF4CFBA
:101BC000DBFFDFCF14F0156A14BE15680B0EDBCFF8
:101BD00016F00C0EDBCF17F015501718E8AE02D038
:101BE000173404D01650145C1750155815E2DFCF87
:101BF00014F0156A14BE1568FD0EDB501424E96E4E
:101C0000FE0EDB501520EA6EEF50200803E1DF2ABC
:101C1000D8D701D001D0D5D7DFCF14F0156A14BEC4
:101C200015680B0EDBCF16F00C0EDBCF17F015503E
:101C30001718E8AE02D0173404D01650145C1750B1
:101C400015583FE20F0EDBCF18F0100EDBCF19F066
:101C50000D0EDBCF1AF00E0EDBCF1BF019501B1848
:101C6000E8AE02D01B3404D01A50185C1B5019582F
:101C700028E2DF50DF2A186E196A18BE1968FD0EB7
:101C8000DB501824E96EFE0EDB501920EA6EEF508F
:101C9000E66ED950010F146EDACF15F00F0EDBCFC0
:101CA00016F0DB2A100EDBCF17F001E3DB2A14500D
:101CB0001624E96E15501720EA6EE552E750EF6ED4
:101CC000ABD70D0EDBCFE6FF0E0EDBCFE6FFFB0E34
:101CD000DBCFE6FFFC0EDBCFE6FFD950010FE66E4F
:101CE000000EDA20E66EC6EC77F0146E060EE15EAA
:101CF000145000090AE1F90EDBCFE9FFFA0EDBCF41
:101D0000EAFFDF50EF26010E2DD0D950010F146EDF
:101D1000DACF15F00F0EDB501424E96E100EDB50F5
:101D20001520EA6EEF6AFB0EDBCFE6FFFC0EDBCF81
:101D3000E6FFD950010FE66E000EDA20E66EFE0EC9
:101D4000E66EEA0EE66E820EE66E070EE66E1CEC9E
:101D500000F0146E080EE15E14500001010E746F65
:101D6000000E00D0146E110EE15C02E2E16AE55251
:101D7000E16E1450E552E7CFD9FF1200D9CFE6FF4C
:101D8000E1CFD9FF070EE126DF6A010EDB6A000111
:101D9000D36BD46BFD0EDBCFE6FFFE0EDBCFE6FF91
:101DA000B8EC77F0E552E552050EF3CFDBFF060EF7
:101DB000F4CFDBFFDFCF14F0156A14BE1568FD0EFB
:101DC000DB501424E96EFE0EDB501520EA6EEF5056
:101DD00020081FE1DFCF16F0176A16BE1768050E40
:101DE000DBCF18F0060EDBCF19F017501918E8AE4C
:101DF00002D0193404D01850165C1950175809E253
:101E0000F90EDBCFE9FFFA0EDBCFEAFFEF2ADF2A7C
:101E1000D1D7DFCF16F0176A16BE1768FD0EDB505C
:101E20001624146EFE0EDB501720156E14C0E6FF4C
:101E300015C0E6FFA2EC09F0E552E552030EF3CF20
:101E4000DBFF040EF4CFDBFF0001220ED31901E10A
:101E5000D45106E00001160ED31901E1D45103E17B
:101E6000020EDB6A05D0010EF36E020EF3CFDBFF2C
:101E7000030EDBCF14F0040EDBCF15F0153404E2B3
:101E80001450FF08000E155422E20001220ED3194F
:101E900001E1D45102E0000E01D0010E030EDBCFB0
:101EA000E6FF040EDBCFE6FFFB0EE66EEA0EE66E03
:101EB000820EE66E070EE66E1CEC00F0146E060E47
:101EC000E15E14500001040E746F000E51D0020E3A
:101ED000DB043BE1DFCF14F0156A14BE1568FD0E7C
:101EE000DB501424E96EFE0EDB501520EA6EEF5035
:101EF00020081FE0DFCF16F0176A16BE1768050E20
:101F0000DBCF18F0060EDBCF19F017501918E8AE2A
:101F100002D0193404D01850165C1950175809E231
:101F2000F90EDBCFE9FFFA0EDBCFEAFFEF2ADF2A5B
:101F3000D1D7FB0EDBCFE9FFFC0EDBCFEAFF030EB0
:101F4000DBCFEFFF010E14D013D0280EE66EEB0EA0
:101F5000E66E820EE66E070EE66E1CEC00F0E552B1
:101F6000E552E552E5520001020E746F000E00D0FA
:101F7000146E070EE15C02E2E16AE552E16E145074
:101F8000E552E7CFD9FF1200D9CFE6FFE1CFD9FF65
:101F9000020EE126010EDB6ADF6A010EDBCF14F0D0
:101FA000030EE76E1418E8AE02D0E73402D0E75013
:101FB000145C01E325D1FB0EDBCFE9FFFC0EDBCF88
:101FC000EAFFEFCF14F0156A14BE1568FD0EDB5062
:101FD0001424E96EFE0EDB501520EA6EEF50200847
:101FE00001E1C4D0010EDB503AE1DF5038E1FB0ED5
:101FF000DBCFE9FFFC0EDBCFEAFFEFCF14F0156A71
:1020000014BE1568FD0EDB501424E96EFE0EDB5085
:102010001520EA6EEF50E66EFB0EDBCFE9FFFC0EFB
:10202000DBCFEAFFEFCF16F0176A16BE176816C0AF
:10203000E6FF17C0E6FFEC0EE66EEA0EE66E820ED5
:10204000E66E070EE66E1CEC00F0186E070EE15E01
:1020500018500001120E746F000ED4D086D0FB0E03
:10206000DBCFE9FFFC0EDBCFEAFFEFCF14F0156A00
:1020700014BE156814C0E6FF15C0E6FFFD0EDBCFE9
:10208000E6FFFE0EDBCFE6FFB8EC77F0E552E55257
:10209000E552E7CF15F0E552E7CF14F0F3CF16F095
:1020A000F4CF17F01650141802E11750151833E149
:1020B000010EDBCF14F0000EE76E1418E8AE02D06C
:1020C000143403D0E750D880145411E2010EDBCF52
:1020D00014F0156A14BE1568F90EDB501424E96E6D
:1020E000FA0EDB501520EA6EEF6A8AD013D0280E64
:1020F000E66EEB0EE66E820EE66E070EE66E1CECEA
:1021000000F0E552E552E552E55200011B0E746FF6
:10211000000E78D02AD0FB0EDBCFE9FFFC0EDBCF20
:10212000EAFFEF50EF2A166E176A16BE1768FD0E0B
:10213000DB501624E96EFE0EDB501720EA6EEF50DE
:10214000E66E010EDBCFF3FFDB2AF350146E156A47
:1021500014BE1568F90EDB501424E96EFA0EDB503C
:102160001520EA6EE552E750EF6E1DD0010EDB50F0
:102170000AE1010EDF6EFB0EDBCFE9FFFC0EDBCFC9
:10218000EAFFEF2A10D0010EDBCF14F0156A14BE5F
:102190001568F90EDB501424E96EFA0EDB50152099
:1021A000EA6EEF6A2DD0010EDB50030828E1010E24
:1021B000DB04146E156A14BE1568F90EDB50142486
:1021C000E96EFA0EDB501520EA6EEF6AF90EDBCFEE
:1021D000E6FFFA0EDBCFE6FFE90EE66EEA0EE66EEC
:1021E000820EE66E070EE66E1CEC00F0146E060E14
:1021F000E15E14500001130E746F000E03D0CDD6B3
:10220000010E00D0146E020EE15C02E2E16AE552BA
:10221000E16E1450E552E7CFD9FF1200D9CFE6FFA7
:10222000E1CFD9FF0D0EE126DF6A010EDB6AE7EC94
:102230002BF0E40EE66EEA0EE66ED950020FE66E63
:10224000000EDA20E66E1CEC00F0E552E552E55295
:10225000E552D9CFE6FFDACFE6FFD950020FE66E9E
:10226000000EDA20E66EDFCF16F0176A16BE17688A
:10227000FD0EDB501624146EFE0EDB501720156E7B
:1022800014C0E6FF15C0E6FF71DC186E060EE15EB5
:10229000185000090AE00701040EC06F60C0BFF7C4
:1022A000F6EC0AF0010E24EF2AF0DD0EE66EEA0EDF
:1022B000E66ED950020FE66E000EDA20E66E1CECD8
:1022C00000F0E552E552E552E552DF6AD9CFE6FF6C
:1022D000DACFE6FFD950020FE66E000EDA20E66E86
:1022E000DFCF16F0176A16BE1768FD0EDB501624F6
:1022F000146EFE0EDB501720156E14C0E6FF15C0DD
:10230000E6FF34DC186E060EE15E185000090AE0A4
:102310000701050EC06F60C0BFF7F6EC0AF0010EB2
:1023200024EF2AF0D80EE66EEA0EE66ED950020FC0
:10233000E66E000EDA20E66E1CEC00F0E552E55287
:10234000E552E552DF6AD9CFE6FFDACFE6FFD95092
:10235000020FE66E000EDA20E66EDFCF16F0176A87
:1023600016BE1768FD0EDB501624146EFE0EDB50F1
:102370001720156E14C0E6FF15C0E6FFB6EC0DF091
:10238000186E060EE15E185000090AE00701400EC3
:10239000C06F60C0BFF7F6EC0AF0010E24EF2AF020
:1023A000D40EE66EEA0EE66ED950020FE66E000E0F
:1023B000DA20E66E1CEC00F0E552E552E552E552FB
:1023C000DF6AD9CFE6FFDACFE6FFD950020FE66E1B
:1023D000000EDA20E66EDFCF16F0176A16BE176819
:1023E000FD0EDB501624146EFE0EDB501720156E0A
:1023F00014C0E6FF15C0E6FFB6EC0DF0186E060E31
:10240000E15E185000092BE00701230EC06FD9CF01
:10241000E6FFDACFE6FFBF0EE66E070EE66EDFCF11
:1024200016F0176A16BE1768FD0EDB501624146EE0
:10243000FE0EDB501720156E14C0E6FF15C0E6FF38
:102440009DDC186E060EE15E1850000903E1000ED7
:1024500024EF2AF0F6EC0AF0010E24EF2AF0CE0E5B
:10246000E66EEA0EE66ED950020FE66E000EDA2036
:10247000E66E1CEC00F0E552E552E552E552DF6AEB
:10248000D9CFE6FFDACFE6FFD950020FE66E000E95
:10249000DA20E66EDFCF16F0176A16BE1768FD0E5B
:1024A000DB501624146EFE0EDB501720156E14C080
:1024B000E6FF15C0E6FFB6EC0DF0186E060EE15E05
:1024C000185000092BE007012D0EC06FD9CFE6FF91
:1024D000DACFE6FFBF0EE66E070EE66EDFCF16F030
:1024E000176A16BE1768FD0EDB501624146EFE0E1A
:1024F000DB501720156E14C0E6FF15C0E6FF3EDC6A
:10250000186E060EE15E1850000903E1000E24EF7C
:102510002AF0F6EC0AF0010E24EF2AF0C80EE66E5F
:10252000EA0EE66ED950020FE66E000EDA20E66E75
:102530001CEC00F0E552E552E552E552DF6AD9CFD6
:10254000E6FFDACFE6FFD950020FE66E000EDA2082
:10255000E66EDFCF16F0176A16BE1768FD0EDB5069
:102560001624146EFE0EDB501720156E14C0E6FF05
:1025700015C0E6FFB6EC0DF0186E060EE15E1850C1
:1025800000092CE00701240EC06FD9CFE6FFDACF97
:10259000E6FFBF0EE66E070EE66EDFCF16F0176A97
:1025A00016BE1768FD0EDB501624146EFE0EDB50AF
:1025B0001720156E14C0E6FF15C0E6FFBEEC0EF046
:1025C000186E060EE15E1850000903E1000E24EFBC
:1025D0002AF0F6EC0AF0010E24EF2AF0DF6AC30EAF
:1025E000E66EEA0EE66ED950020FE66E000EDA20B5
:1025F000E66E1CEC00F0E552E552E552E552D9CF0B
:10260000E6FFDACFE6FFD950020FE66E000EDA20C1
:10261000E66EDFCF16F0176A16BE1768FD0EDB50A8
:102620001624146EFE0EDB501720156E14C0E6FF44
:1026300015C0E6FFB6EC0DF0186E060EE15E185000
:10264000000902E196EF21F00701010EBE6FD9CF1C
:10265000E6FFDACFE6FFBF0EE66E070EE66EDFCFCF
:1026600016F0176A16BE1768FD0EDB501624146E9E
:10267000FE0EDB501720156E14C0E6FF15C0E6FFF6
:10268000BEEC0EF0186E060EE15E1850000903E174
:10269000000E24EF2AF0010EDFCFDBFFBF0EE66E47
:1026A000EA0EE66ED950020FE66E000EDA20E66EF4
:1026B0001CEC00F0E552E552E552E552D9CFE6FFB9
:1026C000DACFE6FFD950020FE66E000EDA20E66E92
:1026D000DFCF16F0176A16BE1768FD0EDB50162402
:1026E000146EFE0EDB501720156E14C0E6FF15C0E9
:1026F000E6FFB6EC0DF0186E060EE15E185000090C
:102700000BE00701010EE16F0701030EE26FF6EC2B
:102710000AF0010E24EF2AF0BB0EE66EEA0EE66E1A
:10272000D950020FE66E000EDA20E66E1CEC00F0C7
:10273000E552E552E552E552010EDB50DF6ED9CF8E
:10274000E6FFDACFE6FFD950020FE66E000EDA2080
:10275000E66EDFCF16F0176A16BE1768FD0EDB5067
:102760001624146EFE0EDB501720156E14C0E6FF03
:1027700015C0E6FFB6EC0DF0186E060EE15E1850BF
:1027800000090BE00701010EE16F0701060EE26F81
:10279000F6EC0AF0010E24EF2AF0B60EE66EEA0E11
:1027A000E66ED950020FE66E000EDA20E66E1CECE3
:1027B00000F0E552E552E552E552010EDB50DF6EC6
:1027C000D9CFE6FFDACFE6FFD950020FE66E000E52
:1027D000DA20E66EDFCF16F0176A16BE1768FD0E18
:1027E000DB501624146EFE0EDB501720156E14C03D
:1027F000E6FF15C0E6FFB6EC0DF0186E060EE15EC2
:102800001850000901E1A8D00701010EE36FD9CFEC
:10281000E6FFDACFE6FFE40EE66E070EE66EDFCFE8
:1028200016F0176A16BE1768FD0EDB501624146EDC
:10283000FE0EDB501720156E14C0E6FF15C0E6FF34
:10284000BEEC0EF0186E060EE15E1850000903E1B2
:10285000000E24EF2AF0010EDFCFDBFFB30EE66E91
:10286000EA0EE66ED950020FE66E000EDA20E66E32
:102870001CEC00F0E552E552E552E552D9CFE6FFF7
:10288000DACFE6FFD950020FE66E000EDA20E66ED0
:10289000DFCF16F0176A16BE1768FD0EDB50162440
:1028A000146EFE0EDB501720156E14C0E6FF15C027
:1028B000E6FFB6EC0DF0186E060EE15E185000094A
:1028C00009E007010B0EE56FF6EC0AF0010E24EFAC
:1028D0002AF042D0010EDB50DF6EAF0EE66EEA0E3C
:1028E000E66ED950020FE66E000EDA20E66E1CECA2
:1028F00000F0E552E552E552E552D9CFE6FFDACFD6
:10290000E6FFD950020FE66E000EDA20E66EDFCF4A
:1029100016F0176A16BE1768FD0EDB501624146EEB
:10292000FE0EDB501720156E14C0E6FF15C0E6FF43
:10293000B6EC0DF0186E060EE15E1850000909E0C5
:1029400007010E0EE56FF6EC0AF0010E24EF2AF0F7
:1029500003D0000E24EF2AF0A70EE66EEA0EE66E14
:10296000D950020FE66E000EDA20E66E1CEC00F085
:10297000E552E552E552E552010EDB50DF6ED9CF4C
:10298000E6FFDACFE6FFD950020FE66E000EDA203E
:10299000E66EDFCF16F0176A16BE1768FD0EDB5025
:1029A0001624146EFE0EDB501720156E14C0E6FFC1
:1029B00015C0E6FFB6EC0DF0186E060EE15E18507D
:1029C000000901E11FD20701010EEA6F010EDFCFFE
:1029D000DBFFA10EE66EEA0EE66ED950020FE66E40
:1029E000000EDA20E66E1CEC00F0E552E552E552EE
:1029F000E552D9CFE6FFDACFE6FFD950020FE66EF7
:102A0000000EDA20E66EDFCF16F0176A16BE1768E2
:102A1000FD0EDB501624146EFE0EDB501720156ED3
:102A200014C0E6FF15C0E6FFB6EC0DF0186E060EFA
:102A3000E15E1850000951E0D9CFE6FFDACFE6FF9A
:102A4000EB0EE66E070EE66EDFCF16F0176A16BEC7
:102A50001768FD0EDB501624146EFE0EDB50172097
:102A6000156E14C0E6FF15C0E6FFBEEC0EF0186E42
:102A7000060EE15E1850000903E1000E24EF2AF073
:102A80000701EB350CE2030E0701E76EEB19E8AE28
:102A900002D0EB3503D0E750D880EB551DE2EBC7F1
:102AA00014F0156A14BE156814C0E6FF15C0E6FFE1
:102AB000FB0EE66EEA0EE66E820EE66E070EE66E20
:102AC0001CEC00F0166E060EE15E165000011C0EA6
:102AD000746F000E24EF2AF015D1010EDB50DF6E6B
:102AE000B60EE66EEA0EE66ED950020FE66E000EE6
:102AF000DA20E66E1CEC00F0E552E552E552E552B4
:102B0000D9CFE6FFDACFE6FFD950020FE66E000E0E
:102B1000DA20E66EDFCF16F0176A16BE1768FD0ED4
:102B2000DB501624146EFE0EDB501720156E14C0F9
:102B3000E6FF15C0E6FFB6EC0DF0186E060EE15E7E
:102B40001850000955E0D9CFE6FFDACFE6FFEB0ECB
:102B5000E66E070EE66EDFCF16F0176A16BE176830
:102B6000FD0EDB501624146EFE0EDB501720156E82
:102B700014C0E6FF15C0E6FFBEEC0EF0186E060EA0
:102B8000E15E1850000904E1000E24EF2AF02FD076
:102B90000701EB350CE2030E0701E76EEB19E8AE17
:102BA00002D0EB3503D0E750D880EB551DE2EBC7E0
:102BB00014F0156A14BE156814C0E6FF15C0E6FFD0
:102BC000FB0EE66EEA0EE66E820EE66E070EE66E0F
:102BD0001CEC00F0166E060EE15E165000011C0E95
:102BE000746F000E24EF2AF0040E0701EB278AD041
:102BF000010EDB50DF6E9B0EE66EEA0EE66ED950DC
:102C0000020FE66E000EDA20E66E1CEC00F0E552D4
:102C1000E552E552E552D9CFE6FFDACFE6FFD950CB
:102C2000020FE66E000EDA20E66EDFCF16F0176AAE
:102C300016BE1768FD0EDB501624146EFE0EDB5018
:102C40001720156E14C0E6FF15C0E6FFB6EC0DF0B8
:102C5000186E060EE15E1850000954E0D9CFE6FF69
:102C6000DACFE6FFEB0EE66E070EE66EDFCF16F06C
:102C7000176A16BE1768FD0EDB501624146EFE0E82
:102C8000DB501720156E14C0E6FF15C0E6FFBEEC42
:102C90000EF0186E060EE15E1850000904E1000EF9
:102CA00024EF2AF02FD00701EB350CE20E0E0701BE
:102CB000E76EEB19E8AE02D0EB3503D0E750D880D1
:102CC000EB551DE2EBC714F0156A14BE156814C06D
:102CD000E6FF15C0E6FFFB0EE66EEA0EE66E820E1C
:102CE000E66E070EE66E1CEC00F0166E060EE15E58
:102CF000165000011C0E746F000E24EF2AF0080E0F
:102D00000701EB27950EE66EEA0EE66ED950020F2C
:102D1000E66E000EDA20E66E1CEC00F0E552E5529D
:102D2000E552E552010EDFCFDBFFD9CFE6FFDACF68
:102D3000E6FFD950020FE66E000EDA20E66EDFCF16
:102D400016F0176A16BE1768FD0EDB501624146EB7
:102D5000FE0EDB501720156E14C0E6FF15C0E6FF0F
:102D6000B6EC0DF0186E060EE15E1850000909E091
:102D70000701010EEC6FF6EC0AF0010E24EF2AF0C9
:102D800041D0010EDB50DF6E8E0EE66EEA0EE66E6F
:102D9000D950020FE66E000EDA20E66E1CEC00F051
:102DA000E552E552E552E552D9CFE6FFDACFE6FF2C
:102DB000D950020FE66E000EDA20E66EDFCF16F075
:102DC000176A16BE1768FD0EDB501624146EFE0E31
:102DD000DB501720156E14C0E6FF15C0E6FFB6ECF9
:102DE0000DF0186E060EE15E1850000908E00701AC
:102DF000EC6BF6EC0AF0010E24EF2AF003D0000E83
:102E000024EF2AF0010EDB50DF6E8A0EE66EEA0E2A
:102E1000E66ED950020FE66E000EDA20E66E1CEC6C
:102E200000F0E552E552E552E552D9CFE6FFDACFA0
:102E3000E6FFD950020FE66E000EDA20E66EDFCF15
:102E400016F0176A16BE1768FD0EDB501624146EB6
:102E5000FE0EDB501720156E14C0E6FF15C0E6FF0E
:102E6000B6EC0DF0186E060EE15E1850000902E196
:102E700034EF21F00701010EE96F130EE66E080E24
:102E8000E66ED9CFE6FFDACFE6FFFD0EDBCFE6FF39
:102E9000FE0EDBCFE6FFC4EC0FF0146E060EE15E13
:102EA0001450000903E1000E24EF2AF0010EDFCFD9
:102EB000DBFF840EE66EEA0EE66ED950020FE66E78
:102EC000000EDA20E66E1CEC00F0E552E552E55209
:102ED000E552D9CFE6FFDACFE6FFD950020FE66E12
:102EE000000EDA20E66EDFCF16F0176A16BE1768FE
:102EF000FD0EDB501624146EFE0EDB501720156EEF
:102F000014C0E6FF15C0E6FFB6EC0DF0186E060E15
:102F1000E15E1850000904E00801280E126F3DD050
:102F2000010EDB50DF6E7D0EE66EEA0EE66ED950C6
:102F3000020FE66E000EDA20E66E1CEC00F0E552A1
:102F4000E552E552E552D9CFE6FFDACFE6FFD95098
:102F5000020FE66E000EDA20E66EDFCF16F0176A7B
:102F600016BE1768FD0EDB501624146EFE0EDB50E5
:102F70001720156E14C0E6FF15C0E6FFB6EC0DF085
:102F8000186E060EE15E1850000904E00801290ED3
:102F9000126F03D0000E24EF2AF00801280E116FE3
:102FA000770EE66EEA0EE66ED950020FE66E000E60
:102FB000DA20E66E1CEC00F0E552E552E552E552EF
:102FC000D9CFE6FFDACFE6FFD950020FE66E000E4A
:102FD000DA20E66EDFCF16F0176A16BE1768FD0E10
:102FE000DB501624146EFE0EDB501720156E14C035
:102FF000E6FF15C0E6FFB6EC0DF0186E060EE15EBA
:103000001850000902E131EF21F0D9CFE6FFDACF05
:10301000E6FFD9500C0FE66E000EDA20E66EDFCF29
:1030200016F0176A16BE1768FD0EDB501624146ED4
:10303000FE0EDB501720156E14C0E6FF15C0E6FF2C
:10304000BEEC0EF0186E060EE15E1850000903E1AA
:10305000000E24EF2AF0010EDFCFDBFFB60EE66E86
:10306000EA0EE66ED950020FE66E000EDA20E66E2A
:103070001CEC00F0E552E552E552E552D9CFE6FFEF
:10308000DACFE6FFD950020FE66E000EDA20E66EC8
:10309000DFCF16F0176A16BE1768FD0EDB50162438
:1030A000146EFE0EDB501720156E14C0E6FF15C01F
:1030B000E6FFB6EC0DF0186E060EE15E1850000942
:1030C0004FE00701010EED6F0C0EDBCFEEF7D9CF0D
:1030D000E6FFDACFE6FFEF0EE66E070EE66EDFCF15
:1030E00016F0176A16BE1768FD0EDB501624146E14
:1030F000FE0EDB501720156E14C0E6FF15C0E6FF6C
:10310000BEEC0EF0186E060EE15E1850000903E1E9
:10311000000E24EF2AF0D9CFE6FFDACFE6FFF00E5B
:10312000E66E070EE66EDFCF16F0176A16BE17685A
:10313000FD0EDB501624146EFE0EDB501720156EAC
:1031400014C0E6FF15C0E6FFBEEC0EF0186E060ECA
:10315000E15E1850000903E1000E24EF2AF07BD154
:10316000010EDB50DF6E9B0EE66EEA0EE66ED95066
:10317000020FE66E000EDA20E66E1CEC00F0E5525F
:10318000E552E552E552D9CFE6FFDACFE6FFD95056
:10319000020FE66E000EDA20E66EDFCF16F0176A39
:1031A00016BE1768FD0EDB501624146EFE0EDB50A3
:1031B0001720156E14C0E6FF15C0E6FFB6EC0DF043
:1031C000186E060EE15E185000092BE00701010E93
:1031D000F16F0C0EDBCFF2F7D9CFE6FFDACFE6FFC7
:1031E000F30EE66E070EE66EDFCF16F0176A16BE18
:1031F0001768FD0EDB501624146EFE0EDB501720F0
:10320000156E14C0E6FF15C0E6FFBEEC0EF0186E9A
:10321000060EE15E1850000903E1000E24EF2AF0CB
:103220001AD1010EDB50DF6EA10EE66EEA0EE66EDD
:10323000D950020FE66E000EDA20E66E1CEC00F0AC
:10324000E552E552E552E552D9CFE6FFDACFE6FF87
:10325000D950020FE66E000EDA20E66EDFCF16F0D0
:10326000176A16BE1768FD0EDB501624146EFE0E8C
:10327000DB501720156E14C0E6FF15C0E6FFB6EC54
:103280000DF0186E060EE15E1850000901E1E0D065
:103290000701010EF46F0C0EDBCFF5F7D9CFE6FF77
:1032A000DACFE6FFF60EE66E070EE66EDFCF18F019
:1032B000196A18BE1968FD0EDB501824166EFE0E32
:1032C000DB501920176E16C0E6FF17C0E6FFBEECF4
:1032D0000EF01A6E060EE15E1A50000902E0000EB2
:1032E00001D0010E146E156A1450151003E0000E83
:1032F00024EF2AF0730EE66EEA0EE66ED950020F46
:10330000E66E000EDA20E66E1CEC00F0E552E552A7
:10331000E552E552D9CFE6FFDACFE6FFD950020FEA
:10332000E66E000EDA20E66EDFCF16F0176A16BEE4
:103330001768FD0EDB501624146EFE0EDB501720AE
:10334000156E14C0E6FF15C0E6FFB6EC0DF0186E62
:10335000060EE15E1850000903E1000E24EF2AF08A
:10336000010EDFCFDBFF6B0EE66EEA0EE66ED95084
:10337000020FE66E000EDA20E66E1CEC00F0E5525D
:10338000E552E552E552D9CFE6FFDACFE6FFD95054
:10339000020FE66E000EDA20E66EDFCF16F0176A37
:1033A00016BE1768FD0EDB501624146EFE0EDB50A1
:1033B0001720156E14C0E6FF15C0E6FFB6EC0DF041
:1033C000186E060EE15E1850000904E007010F0EAA
:1033D000F76F3DD0010EDB50DF6E620EE66EEA0E37
:1033E000E66ED950020FE66E000EDA20E66E1CEC97
:1033F00000F0E552E552E552E552D9CFE6FFDACFCB
:10340000E6FFD950020FE66E000EDA20E66EDFCF3F
:1034100016F0176A16BE1768FD0EDB501624146EE0
:10342000FE0EDB501720156E14C0E6FF15C0E6FF38
:10343000B6EC0DF0186E060EE15E1850000904E0BF
:103440000701100EF76F03D0000E24EF2AF003D00F
:10345000000E24EF2AF05E0EE66EEA0EE66ED950FC
:10346000020FE66E000EDA20E66E1CEC00F0E5526C
:10347000E552E552E552D9CFE6FFDACFE6FFD95063
:10348000020FE66E000EDA20E66EDFCF16F0176A46
:1034900016BE1768FD0EDB501624146EFE0EDB50B0
:1034A0001720156E14C0E6FF15C0E6FFB6EC0DF050
:1034B000186E060EE15E1850000903E1000E24EFBD
:1034C0002AF0010EDFCFDBFFB60EE66EEA0EE66EE7
:1034D000D950020FE66E000EDA20E66E1CEC00F00A
:1034E000E552E552E552E552D9CFE6FFDACFE6FFE5
:1034F000D950020FE66E000EDA20E66EDFCF16F02E
:10350000176A16BE1768FD0EDB501624146EFE0EE9
:10351000DB501720156E14C0E6FF15C0E6FFB6ECB1
:103520000DF0186E060EE15E1850000950E007011C
:10353000010EF86FD9CFE6FFDACFE6FFF90EE66E9F
:10354000070EE66EDFCF16F0176A16BE1768FD0E7F
:10355000DB501624146EFE0EDB501720156E14C0BF
:10356000E6FF15C0E6FFBEEC0EF0186E060EE15E3B
:103570001850000903E1000E24EF2AF0D9CFE6FF2E
:10358000DACFE6FFFA0EE66E070EE66EDFCF16F034
:10359000176A16BE1768FD0EDB501624146EFE0E59
:1035A000DB501720156E14C0E6FF15C0E6FFBEEC19
:1035B0000EF0186E060EE15E1850000903E1000ED1
:1035C00024EF2AF0F6EC0AF0010E24EF2AF0010EA7
:1035D000DB50DF6E9B0EE66EEA0EE66ED950020FF0
:1035E000E66E000EDA20E66E1CEC00F0E552E552C5
:1035F000E552E552D9CFE6FFDACFE6FFD950020F08
:10360000E66E000EDA20E66EDFCF16F0176A16BE01
:103610001768FD0EDB501624146EFE0EDB501720CB
:10362000156E14C0E6FF15C0E6FFB6EC0DF0186E7F
:10363000060EE15E1850000950E00701010EFB6F15
:10364000D9CFE6FFDACFE6FFFC0EE66E070EE66E98
:10365000DFCF16F0176A16BE1768FD0EDB50162472
:10366000146EFE0EDB501720156E14C0E6FF15C059
:10367000E6FFBEEC0EF0186E060EE15E1850000973
:1036800003E1000E24EF2AF0D9CFE6FFDACFE6FF00
:10369000FD0EE66E070EE66EDFCF16F0176A16BE59
:1036A0001768FD0EDB501624146EFE0EDB5017203B
:1036B000156E14C0E6FF15C0E6FFBEEC0EF0186EE6
:1036C000060EE15E1850000903E1000E24EF2AF017
:1036D000F6EC0AF0010E24EF2AF0010EDB50DF6E4B
:1036E0005A0EE66EEA0EE66ED950020FE66E000E36
:1036F000DA20E66E1CEC00F0E552E552E552E552A8
:10370000D9CFE6FFDACFE6FFD950020FE66E000E02
:10371000DA20E66EDFCF16F0176A16BE1768FD0EC8
:10372000DB501624146EFE0EDB501720156E14C0ED
:10373000E6FF15C0E6FFB6EC0DF0186E060EE15E72
:103740001850000950E00701010EFE6FD9CFE6FFC7
:10375000DACFE6FFFF0EE66E070EE66EDFCF16F05D
:10376000176A16BE1768FD0EDB501624146EFE0E87
:10377000DB501720156E14C0E6FF15C0E6FFBEEC47
:103780000EF0186E060EE15E1850000903E1000EFF
:1037900024EF2AF0D9CFE6FFDACFE6FF000EE66E7F
:1037A000080EE66EDFCF16F0176A16BE1768FD0E1C
:1037B000DB501624146EFE0EDB501720156E14C05D
:1037C000E6FF15C0E6FFBEEC0EF0186E060EE15ED9
:1037D0001850000903E1000E24EF2AF0F6EC0AF07D
:1037E000010E24EF2AF0010EDB50DF6E840EE66E30
:1037F000EA0EE66ED950020FE66E000EDA20E66E93
:103800001CEC00F0E552E552E552E552D9CFE6FF57
:10381000DACFE6FFD950020FE66E000EDA20E66E30
:10382000DFCF16F0176A16BE1768FD0EDB501624A0
:10383000146EFE0EDB501720156E14C0E6FF15C087
:10384000E6FFB6EC0DF0186E060EE15E18500009AA
:1038500024E00801010E016F020EE66E080EE66E0E
:10386000D9CFE6FFDACFE6FFFD0EDBCFE6FFFE0E97
:10387000DBCFE6FFC4EC0FF0146E060EE15E1450D1
:10388000000903E1000E24EF2AF00801280E066F5C
:10389000F6EC0AF0010E24EF2AF0010EDB50DF6E89
:1038A0007D0EE66EEA0EE66ED950020FE66E000E51
:1038B000DA20E66E1CEC00F0E552E552E552E552E6
:1038C000D9CFE6FFDACFE6FFD950020FE66E000E41
:1038D000DA20E66EDFCF16F0176A16BE1768FD0E07
:1038E000DB501624146EFE0EDB501720156E14C02C
:1038F000E6FF15C0E6FFB6EC0DF0186E060EE15EB1
:103900001850000924E00801010E016F020EE66E56
:10391000080EE66ED9CFE6FFDACFE6FFFD0EDBCF6D
:10392000E6FFFE0EDBCFE6FFC4EC0FF0146E060ED2
:10393000E15E1450000903E1000E24EF2AF00801B3
:10394000290E066FF6EC0AF0010E24EF2AF0010EA4
:10395000DB50DF6EA10EE66EEA0EE66ED950020F66
:10396000E66E000EDA20E66E1CEC00F0E552E55241
:10397000E552E552D9CFE6FFDACFE6FFD950020F84
:10398000E66E000EDA20E66EDFCF16F0176A16BE7E
:103990001768FD0EDB501624146EFE0EDB50172048
:1039A000156E14C0E6FF15C0E6FFB6EC0DF0186EFC
:1039B000060EE15E1850000901E143D20801010E34
:1039C000076FD9CFE6FFDACFE6FF080EE66E080EE6
:1039D000E66EDFCF16F0176A16BE1768FD0EDB50D5
:1039E0001624146EFE0EDB501720156E14C0E6FF71
:1039F00015C0E6FFBEEC0EF0186E060EE15E185024
:103A0000000903E1000E24EF2AF0540EE66EEA0EE0
:103A1000E66ED950020FE66E000EDA20E66E1CEC60
:103A200000F0E552E552E552E552D9CFE6FFDACF94
:103A3000E6FFD950020FE66E000EDA20E66EDFCF09
:103A400016F0176A16BE1768FD0EDB501624146EAA
:103A5000FE0EDB501720156E14C0E6FF15C0E6FF02
:103A6000B6EC0DF0186E060EE15E1850000903E189
:103A7000000E24EF2AF0010EDFCFDBFF4E0EE66EC4
:103A8000EA0EE66ED950020FE66E000EDA20E66E00
:103A90001CEC00F0E552E552E552E552D9CFE6FFC5
:103AA000DACFE6FFD950020FE66E000EDA20E66E9E
:103AB000DFCF16F0176A16BE1768FD0EDB5016240E
:103AC000146EFE0EDB501720156E14C0E6FF15C0F5
:103AD000E6FFB6EC0DF0186E060EE15E1850000918
:103AE00003E00801096961D0010EDB50DF6E480E6A
:103AF000E66EEA0EE66ED950020FE66E000EDA2090
:103B0000E66E1CEC00F0E552E552E552E552D9CFE5
:103B1000E6FFDACFE6FFD950020FE66E000EDA209C
:103B2000E66EDFCF16F0176A16BE1768FD0EDB5083
:103B30001624146EFE0EDB501720156E14C0E6FF1F
:103B400015C0E6FFB6EC0DF0186E060EE15E1850DB
:103B5000000904E00801EE0E096F27D0010EDB50CA
:103B6000DF6ED9CFE6FFDACFE6FF090EE66E080E6C
:103B7000E66EDFCF16F0176A16BE1768FD0EDB5033
:103B80001624146EFE0EDB501720156E14C0E6FFCF
:103B900015C0E6FFBEEC0EF0186E060EE15E185082
:103BA000000903E1000E24EF2AF0010EDFCFDBFF56
:103BB000430EE66EEA0EE66ED950020FE66E000E78
:103BC000DA20E66E1CEC00F0E552E552E552E552D3
:103BD000D9CFE6FFDACFE6FFD950020FE66E000E2E
:103BE000DA20E66EDFCF16F0176A16BE1768FD0EF4
:103BF000DB501624146EFE0EDB501720156E14C019
:103C0000E6FF15C0E6FFB6EC0DF0186E060EE15E9D
:103C10001850000904E00801130E0A6F3DD0010E90
:103C2000DB50DF6E3E0EE66EEA0EE66ED950020FF6
:103C3000E66E000EDA20E66E1CEC00F0E552E5526E
:103C4000E552E552D9CFE6FFDACFE6FFD950020FB1
:103C5000E66E000EDA20E66EDFCF16F0176A16BEAB
:103C60001768FD0EDB501624146EFE0EDB50172075
:103C7000156E14C0E6FF15C0E6FFB6EC0DF0186E29
:103C8000060EE15E1850000904E00801140E0A6FE8
:103C900003D0000E24EF2AF0360EE66EEA0EE66E32
:103CA000D950020FE66E000EDA20E66E1CEC00F032
:103CB000E552E552E552E552D9CFE6FFDACFE6FF0D
:103CC000D950020FE66E000EDA20E66EDFCF16F056
:103CD000176A16BE1768FD0EDB501624146EFE0E12
:103CE000DB501720156E14C0E6FF15C0E6FFB6ECDA
:103CF0000DF0186E060EE15E1850000903E1000E8B
:103D000024EF2AF0010EDFCFDBFF4E0EE66EEA0E47
:103D1000E66ED950020FE66E000EDA20E66E1CEC5D
:103D200000F0E552E552E552E552D9CFE6FFDACF91
:103D3000E6FFD950020FE66E000EDA20E66EDFCF06
:103D400016F0176A16BE1768FD0EDB501624146EA7
:103D5000FE0EDB501720156E14C0E6FF15C0E6FFFF
:103D6000B6EC0DF0186E060EE15E1850000903E087
:103D700008010B6961D0010EDB50DF6E480EE66E64
:103D8000EA0EE66ED950020FE66E000EDA20E66EFD
:103D90001CEC00F0E552E552E552E552D9CFE6FFC2
:103DA000DACFE6FFD950020FE66E000EDA20E66E9B
:103DB000DFCF16F0176A16BE1768FD0EDB5016240B
:103DC000146EFE0EDB501720156E14C0E6FF15C0F2
:103DD000E6FFB6EC0DF0186E060EE15E1850000915
:103DE00004E00801EE0E0B6F27D0010EDB50DF6EF2
:103DF000D9CFE6FFDACFE6FF0B0EE66E080EE66ED1
:103E0000DFCF16F0176A16BE1768FD0EDB501624BA
:103E1000146EFE0EDB501720156E14C0E6FF15C0A1
:103E2000E6FFBEEC0EF0186E060EE15E18500009BB
:103E300003E1000E24EF2AF0F6EC0AF0010E24EF65
:103E40002AF0010EDB50DF6E2E0EE66EEA0EE66EF5
:103E5000D950020FE66E000EDA20E66E1CEC00F080
:103E6000E552E552E552E552D9CFE6FFDACFE6FF5B
:103E7000D950020FE66E000EDA20E66EDFCF16F0A4
:103E8000176A16BE1768FD0EDB501624146EFE0E60
:103E9000DB501720156E14C0E6FF15C0E6FFB6EC28
:103EA0000DF0186E060EE15E185000090BE00801D7
:103EB000010E0C6F08012E0E0D6FF6EC0AF0010ECC
:103EC00024EF2AF0010EDB50DF6E260EE66EEA0EBE
:103ED000E66ED950020FE66E000EDA20E66E1CEC9C
:103EE00000F0E552E552E552E552D9CFE6FFDACFD0
:103EF000E6FFD950020FE66E000EDA20E66EDFCF45
:103F000016F0176A16BE1768FD0EDB501624146EE5
:103F1000FE0EDB501720156E14C0E6FF15C0E6FF3D
:103F2000B6EC0DF0186E060EE15E185000090BE0BD
:103F30000801010E0C6F08012F0E0D6FF6EC0AF050
:103F4000010E24EF2AF0010EDB50DF6E1E0EE66E2E
:103F5000EA0EE66ED950020FE66E000EDA20E66E2B
:103F60001CEC00F0E552E552E552E552D9CFE6FFF0
:103F7000DACFE6FFD950020FE66E000EDA20E66EC9
:103F8000DFCF16F0176A16BE1768FD0EDB50162439
:103F9000146EFE0EDB501720156E14C0E6FF15C020
:103FA000E6FFB6EC0DF0186E060EE15E1850000943
:103FB0000BE00801010E0C6F0801300E0D6FF6ECDE
:103FC0000AF0010E24EF2AF0010EDB50DF6E160E10
:103FD000E66EEA0EE66ED950020FE66E000EDA20AB
:103FE000E66E1CEC00F0E552E552E552E552D9CF01
:103FF000E6FFDACFE6FFD950020FE66E000EDA20B8
:10400000E66EDFCF16F0176A16BE1768FD0EDB509E
:104010001624146EFE0EDB501720156E14C0E6FF3A
:1040200015C0E6FFB6EC0DF0186E060EE15E1850F6
:1040300000090BE00801010E0C6F0801310E0D6F35
:10404000F6EC0AF0010E24EF2AF0010EDB50DF6ED1
:104050000F0EE66EEA0EE66ED950020FE66E000E07
:10406000DA20E66E1CEC00F0E552E552E552E5522E
:10407000D9CFE6FFDACFE6FFD950020FE66E000E89
:10408000DA20E66EDFCF16F0176A16BE1768FD0E4F
:10409000DB501624146EFE0EDB501720156E14C074
:1040A000E6FF15C0E6FFB6EC0DF0186E060EE15EF9
:1040B000185000090BE00801010E0C6F08012B0ECF
:1040C0000D6FF6EC0AF0010E24EF2AF0010EDB5022
:1040D000DF6E050EE66EEA0EE66ED950020FE66E52
:1040E000000EDA20E66E1CEC00F0E552E552E552D7
:1040F000E552D9CFE6FFDACFE6FFD950020FE66EE0
:10410000000EDA20E66EDFCF16F0176A16BE1768CB
:10411000FD0EDB501624146EFE0EDB501720156EBC
:1041200014C0E6FF15C0E6FFB6EC0DF0186E060EE3
:10413000E15E185000090BE00801010E0C6F080148
:104140002C0E0D6FF6EC0AF0010E24EF2AF0010E92
:10415000DB50DF6EBF0EE66EEA0EE66ED950020F40
:10416000E66E000EDA20E66E1CEC00F0E552E55239
:10417000E552E552D9CFE6FFDACFE6FFD950020F7C
:10418000E66E000EDA20E66EDFCF16F0176A16BE76
:104190001768FD0EDB501624146EFE0EDB50172040
:1041A000156E14C0E6FF15C0E6FFB6EC0DF0186EF4
:1041B000060EE15E1850000950E00801010E0E6F76
:1041C000D9CFE6FFDACFE6FF0F0EE66E080EE66EF9
:1041D000DFCF16F0176A16BE1768FD0EDB501624E7
:1041E000146EFE0EDB501720156E14C0E6FF15C0CE
:1041F000E6FFBEEC0EF0186E060EE15E18500009E8
:1042000003E1000E24EF2AF0D9CFE6FFDACFE6FF74
:10421000100EE66E080EE66EDFCF16F0176A16BEB9
:104220001768FD0EDB501624146EFE0EDB501720AF
:10423000156E14C0E6FF15C0E6FFBEEC0EF0186E5A
:10424000060EE15E1850000903E1000E24EF2AF08B
:10425000F6EC0AF0010E24EF2AF0000E24EF2AF00B
:1042600003D0000E24EF2AF0010EDB50DF6E010EAA
:10427000E66EEA0EE66ED950020FE66E000EDA2008
:10428000E66E1CEC00F0E552E552E552E552D9CF5E
:10429000E6FFDACFE6FFD950020FE66E000EDA2015
:1042A000E66EDFCF16F0176A16BE1768FD0EDB50FC
:1042B0001624146EFE0EDB501720156E14C0E6FF98
:1042C00015C0E6FFB6EC0DF0186E060EE15E185054
:1042D00000092CE00801010E166FD9CFE6FFDACFF6
:1042E000E6FF170EE66E080EE66EDFCF16F0176AD1
:1042F00016BE1768FD0EDB501624146EFE0EDB5042
:104300001720156E14C0E6FF15C0E6FFBEEC0EF0D8
:10431000186E060EE15E1850000903E1000E24EF4E
:104320002AF0F6EC0AF0010E24EF2AF0DF6AFD0E07
:10433000E66EE90EE66ED950020FE66E000EDA2048
:10434000E66E1CEC00F0E552E552E552E552D9CF9D
:10435000E6FFDACFE6FFD950020FE66E000EDA2054
:10436000E66EDFCF16F0176A16BE1768FD0EDB503B
:104370001624146EFE0EDB501720156E14C0E6FFD7
:1043800015C0E6FFB6EC0DF0186E060EE15E185093
:10439000000902E122EF2AF00701020EBE6FD9CF19
:1043A000E6FFDACFE6FFBF0EE66E070EE66EDFCF62
:1043B00016F0176A16BE1768FD0EDB501624146E31
:1043C000FE0EDB501720156E14C0E6FF15C0E6FF89
:1043D000BEEC0EF0186E060EE15E1850000903E107
:1043E000000E24EF2AF0010EDFCFDBFFB60EE66EE3
:1043F000EA0EE66ED950020FE66E000EDA20E66E87
:104400001CEC00F0E552E552E552E552D9CFE6FF4B
:10441000DACFE6FFD950020FE66E000EDA20E66E24
:10442000DFCF16F0176A16BE1768FD0EDB50162494
:10443000146EFE0EDB501720156E14C0E6FF15C07B
:10444000E6FFB6EC0DF0186E060EE15E185000099E
:1044500050E00701010EC16FD9CFE6FFDACFE6FFCA
:10446000C20EE66E070EE66EDFCF16F0176A16BEB6
:104470001768FD0EDB501624146EFE0EDB5017205D
:10448000156E14C0E6FF15C0E6FFBEEC0EF0186E08
:10449000060EE15E1850000903E1000E24EF2AF039
:1044A000D9CFE6FFDACFE6FFC30EE66E070EE66E63
:1044B000DFCF16F0176A16BE1768FD0EDB50162404
:1044C000146EFE0EDB501720156E14C0E6FF15C0EB
:1044D000E6FFBEEC0EF0186E060EE15E1850000905
:1044E00003E1000E24EF2AF0F6EC0AF0010E24EFAF
:1044F0002AF0010EDB50DF6E9B0EE66EEA0EE66ED2
:10450000D950020FE66E000EDA20E66E1CEC00F0C9
:10451000E552E552E552E552D9CFE6FFDACFE6FFA4
:10452000D950020FE66E000EDA20E66EDFCF16F0ED
:10453000176A16BE1768FD0EDB501624146EFE0EA9
:10454000DB501720156E14C0E6FF15C0E6FFB6EC71
:104550000DF0186E060EE15E1850000950E00701DC
:10456000010EC46FD9CFE6FFDACFE6FFC50EE66EC7
:10457000070EE66EDFCF16F0176A16BE1768FD0E3F
:10458000DB501624146EFE0EDB501720156E14C07F
:10459000E6FF15C0E6FFBEEC0EF0186E060EE15EFB
:1045A0001850000903E1000E24EF2AF0D9CFE6FFEE
:1045B000DACFE6FFC60EE66E070EE66EDFCF16F028
:1045C000176A16BE1768FD0EDB501624146EFE0E19
:1045D000DB501720156E14C0E6FF15C0E6FFBEECD9
:1045E0000EF0186E060EE15E1850000903E1000E91
:1045F00024EF2AF0F6EC0AF0010E24EF2AF0010E67
:10460000DB50DF6E5A0EE66EEA0EE66ED950020FF0
:10461000E66E000EDA20E66E1CEC00F0E552E55284
:10462000E552E552D9CFE6FFDACFE6FFD950020FC7
:10463000E66E000EDA20E66EDFCF16F0176A16BEC1
:104640001768FD0EDB501624146EFE0EDB5017208B
:10465000156E14C0E6FF15C0E6FFB6EC0DF0186E3F
:10466000060EE15E1850000950E00701010EC76F09
:10467000D9CFE6FFDACFE6FFC80EE66E070EE66E8C
:10468000DFCF16F0176A16BE1768FD0EDB50162432
:10469000146EFE0EDB501720156E14C0E6FF15C019
:1046A000E6FFBEEC0EF0186E060EE15E1850000933
:1046B00003E1000E24EF2AF0D9CFE6FFDACFE6FFC0
:1046C000C90EE66E070EE66EDFCF16F0176A16BE4D
:1046D0001768FD0EDB501624146EFE0EDB501720FB
:1046E000156E14C0E6FF15C0E6FFBEEC0EF0186EA6
:1046F000060EE15E1850000903E1000E24EF2AF0D7
:10470000F6EC0AF0010E24EF2AF0010EDB50DF6E0A
:10471000840EE66EEA0EE66ED950020FE66E000ECB
:10472000DA20E66E1CEC00F0E552E552E552E55267
:10473000D9CFE6FFDACFE6FFD950020FE66E000EC2
:10474000DA20E66EDFCF16F0176A16BE1768FD0E88
:10475000DB501624146EFE0EDB501720156E14C0AD
:10476000E6FF15C0E6FFB6EC0DF0186E060EE15E32
:104770001850000924E00701010ECA6FCB0EE66E47
:10478000070EE66ED9CFE6FFDACFE6FFFD0EDBCFF0
:10479000E6FFFE0EDBCFE6FFC4EC0FF0146E060E54
:1047A000E15E1450000903E1000E24EF2AF0070136
:1047B000280ECF6FF6EC0AF0010E24EF2AF0010E5E
:1047C000DB50DF6E7D0EE66EEA0EE66ED950020F0C
:1047D000E66E000EDA20E66E1CEC00F0E552E552C3
:1047E000E552E552D9CFE6FFDACFE6FFD950020F06
:1047F000E66E000EDA20E66EDFCF16F0176A16BE00
:104800001768FD0EDB501624146EFE0EDB501720C9
:10481000156E14C0E6FF15C0E6FFB6EC0DF0186E7D
:10482000060EE15E1850000924E00701010ECA6F70
:10483000CB0EE66E070EE66ED9CFE6FFDACFE6FFC7
:10484000FD0EDBCFE6FFFE0EDBCFE6FFC4EC0FF084
:10485000146E060EE15E1450000903E1000E24EF11
:104860002AF00701290ECF6FF6EC0AF0010E24EFB3
:104870002AF0010EDB50DF6EA10EE66EEA0EE66E48
:10488000D950020FE66E000EDA20E66E1CEC00F046
:10489000E552E552E552E552D9CFE6FFDACFE6FF21
:1048A000D950020FE66E000EDA20E66EDFCF16F06A
:1048B000176A16BE1768FD0EDB501624146EFE0E26
:1048C000DB501720156E14C0E6FF15C0E6FFB6ECEE
:1048D0000DF0186E060EE15E1850000901E141D29C
:1048E0000701010ED06FD9CFE6FFDACFE6FFD10E78
:1048F000E66E070EE66EDFCF16F0176A16BE176873
:10490000FD0EDB501624146EFE0EDB501720156EC4
:1049100014C0E6FF15C0E6FFBEEC0EF0186E060EE2
:10492000E15E1850000903E1000E24EF2AF0540E56
:10493000E66EEA0EE66ED950020FE66E000EDA2041
:10494000E66E1CEC00F0E552E552E552E552D9CF97
:10495000E6FFDACFE6FFD950020FE66E000EDA204E
:10496000E66EDFCF16F0176A16BE1768FD0EDB5035
:104970001624146EFE0EDB501720156E14C0E6FFD1
:1049800015C0E6FFB6EC0DF0186E060EE15E18508D
:10499000000903E1000E24EF2AF0010EDFCFDBFF58
:1049A0004E0EE66EEA0EE66ED950020FE66E000E6F
:1049B000DA20E66E1CEC00F0E552E552E552E552D5
:1049C000D9CFE6FFDACFE6FFD950020FE66E000E30
:1049D000DA20E66EDFCF16F0176A16BE1768FD0EF6
:1049E000DB501624146EFE0EDB501720156E14C01B
:1049F000E6FF15C0E6FFB6EC0DF0186E060EE15EA0
:104A00001850000903E00701D26961D0010EDB50A4
:104A1000DF6E480EE66EEA0EE66ED950020FE66EC5
:104A2000000EDA20E66E1CEC00F0E552E552E5528D
:104A3000E552D9CFE6FFDACFE6FFD950020FE66E96
:104A4000000EDA20E66EDFCF16F0176A16BE176882
:104A5000FD0EDB501624146EFE0EDB501720156E73
:104A600014C0E6FF15C0E6FFB6EC0DF0186E060E9A
:104A7000E15E1850000904E00701EE0ED26F27D066
:104A8000010EDB50DF6ED9CFE6FFDACFE6FFD20EA4
:104A9000E66E070EE66EDFCF16F0176A16BE1768D1
:104AA000FD0EDB501624146EFE0EDB501720156E23
:104AB00014C0E6FF15C0E6FFBEEC0EF0186E060E41
:104AC000E15E1850000903E1000E24EF2AF0010E08
:104AD000DFCFDBFF430EE66EEA0EE66ED950020F23
:104AE000E66E000EDA20E66E1CEC00F0E552E552B0
:104AF000E552E552D9CFE6FFDACFE6FFD950020FF3
:104B0000E66E000EDA20E66EDFCF16F0176A16BEEC
:104B10001768FD0EDB501624146EFE0EDB501720B6
:104B2000156E14C0E6FF15C0E6FFB6EC0DF0186E6A
:104B3000060EE15E1850000904E00701130ED36F62
:104B40003DD0010EDB50DF6E3E0EE66EEA0EE66EE5
:104B5000D950020FE66E000EDA20E66E1CEC00F073
:104B6000E552E552E552E552D9CFE6FFDACFE6FF4E
:104B7000D950020FE66E000EDA20E66EDFCF16F097
:104B8000176A16BE1768FD0EDB501624146EFE0E53
:104B9000DB501720156E14C0E6FF15C0E6FFB6EC1B
:104BA0000DF0186E060EE15E1850000904E00701D2
:104BB000140ED36F03D0000E24EF2AF0360EE66EEB
:104BC000EA0EE66ED950020FE66E000EDA20E66EAF
:104BD0001CEC00F0E552E552E552E552D9CFE6FF74
:104BE000DACFE6FFD950020FE66E000EDA20E66E4D
:104BF000DFCF16F0176A16BE1768FD0EDB501624BD
:104C0000146EFE0EDB501720156E14C0E6FF15C0A3
:104C1000E6FFB6EC0DF0186E060EE15E18500009C6
:104C200003E1000E24EF2AF0010EDFCFDBFF4E0E72
:104C3000E66EEA0EE66ED950020FE66E000EDA203E
:104C4000E66E1CEC00F0E552E552E552E552D9CF94
:104C5000E6FFDACFE6FFD950020FE66E000EDA204B
:104C6000E66EDFCF16F0176A16BE1768FD0EDB5032
:104C70001624146EFE0EDB501720156E14C0E6FFCE
:104C800015C0E6FFB6EC0DF0186E060EE15E18508A
:104C9000000903E00701D46960D0010EDB50DF6E2C
:104CA000480EE66EEA0EE66ED950020FE66E000E72
:104CB000DA20E66E1CEC00F0E552E552E552E552D2
:104CC000D9CFE6FFDACFE6FFD950020FE66E000E2D
:104CD000DA20E66EDFCF16F0176A16BE1768FD0EF3
:104CE000DB501624146EFE0EDB501720156E14C018
:104CF000E6FF15C0E6FFB6EC0DF0186E060EE15E9D
:104D00001850000904E00701EE0ED46F26D0010E02
:104D1000DB50DF6ED9CFE6FFDACFE6FFD40EE66ECA
:104D2000070EE66EDFCF16F0176A16BE1768FD0E87
:104D3000DB501624146EFE0EDB501720156E14C0C7
:104D4000E6FF15C0E6FFBEEC0EF0186E060EE15E43
:104D50001850000902E1000E77D3F6EC0AF0010EBC
:104D600073D3010EDB50DF6E2E0EE66EEA0EE66E9A
:104D7000D950020FE66E000EDA20E66E1CEC00F051
:104D8000E552E552E552E552D9CFE6FFDACFE6FF2C
:104D9000D950020FE66E000EDA20E66EDFCF16F075
:104DA000176A16BE1768FD0EDB501624146EFE0E31
:104DB000DB501720156E14C0E6FF15C0E6FFB6ECF9
:104DC0000DF0186E060EE15E185000090AE00701AA
:104DD000010ED56F07012E0ED66FF6EC0AF0010E0C
:104DE00033D3010EDB50DF6E260EE66EEA0EE66E62
:104DF000D950020FE66E000EDA20E66E1CEC00F0D1
:104E0000E552E552E552E552D9CFE6FFDACFE6FFAB
:104E1000D950020FE66E000EDA20E66EDFCF16F0F4
:104E2000176A16BE1768FD0EDB501624146EFE0EB0
:104E3000DB501720156E14C0E6FF15C0E6FFB6EC78
:104E40000DF0186E060EE15E185000090AE0070129
:104E5000010ED56F07012F0ED66FF6EC0AF0010E8A
:104E6000F3D2010EDB50DF6E1E0EE66EEA0EE66E2A
:104E7000D950020FE66E000EDA20E66E1CEC00F050
:104E8000E552E552E552E552D9CFE6FFDACFE6FF2B
:104E9000D950020FE66E000EDA20E66EDFCF16F074
:104EA000176A16BE1768FD0EDB501624146EFE0E30
:104EB000DB501720156E14C0E6FF15C0E6FFB6ECF8
:104EC0000DF0186E060EE15E185000090AE00701A9
:104ED000010ED56F0701300ED66FF6EC0AF0010E09
:104EE000B3D2010EDB50DF6E160EE66EEA0EE66EF2
:104EF000D950020FE66E000EDA20E66E1CEC00F0D0
:104F0000E552E552E552E552D9CFE6FFDACFE6FFAA
:104F1000D950020FE66E000EDA20E66EDFCF16F0F3
:104F2000176A16BE1768FD0EDB501624146EFE0EAF
:104F3000DB501720156E14C0E6FF15C0E6FFB6EC77
:104F40000DF0186E060EE15E185000090AE0070128
:104F5000010ED56F0701310ED66FF6EC0AF0010E87
:104F600073D2010EDB50DF6E0F0EE66EEA0EE66EB8
:104F7000D950020FE66E000EDA20E66E1CEC00F04F
:104F8000E552E552E552E552D9CFE6FFDACFE6FF2A
:104F9000D950020FE66E000EDA20E66EDFCF16F073
:104FA000176A16BE1768FD0EDB501624146EFE0E2F
:104FB000DB501720156E14C0E6FF15C0E6FFB6ECF7
:104FC0000DF0186E060EE15E185000090AE00701A8
:104FD000010ED56F07012B0ED66FF6EC0AF0010E0D
:104FE00033D2010EDB50DF6E050EE66EEA0EE66E82
:104FF000D950020FE66E000EDA20E66E1CEC00F0CF
:10500000E552E552E552E552D9CFE6FFDACFE6FFA9
:10501000D950020FE66E000EDA20E66EDFCF16F0F2
:10502000176A16BE1768FD0EDB501624146EFE0EAE
:10503000DB501720156E14C0E6FF15C0E6FFB6EC76
:105040000DF0186E060EE15E185000090AE0070127
:10505000010ED56F07012C0ED66FF6EC0AF0010E8B
:10506000F3D1010EDB50DF6EBF0EE66EEA0EE66E88
:10507000D950020FE66E000EDA20E66E1CEC00F04E
:10508000E552E552E552E552D9CFE6FFDACFE6FF29
:10509000D950020FE66E000EDA20E66EDFCF16F072
:1050A000176A16BE1768FD0EDB501624146EFE0E2E
:1050B000DB501720156E14C0E6FF15C0E6FFB6ECF6
:1050C0000DF0186E060EE15E185000094DE0070164
:1050D000010ED76FD9CFE6FFDACFE6FFD80EE66E26
:1050E000070EE66EDFCF16F0176A16BE1768FD0EC4
:1050F000DB501624146EFE0EDB501720156E14C004
:10510000E6FF15C0E6FFBEEC0EF0186E060EE15E7F
:105110001850000902E1000E97D1D9CFE6FFDACF8F
:10512000E6FFD90EE66E070EE66EDFCF16F0176AC1
:1051300016BE1768FD0EDB501624146EFE0EDB50F3
:105140001720156E14C0E6FF15C0E6FFBEEC0EF08A
:10515000186E060EE15E1850000902E1000E74D1CF
:10516000F6EC0AF0010E70D1010EDB50DF6EF70E87
:10517000E66EE90EE66ED950020FE66E000EDA20FA
:10518000E66E1CEC00F0E552E552E552E552D9CF4F
:10519000E6FFDACFE6FFD950020FE66E000EDA2006
:1051A000E66EDFCF16F0176A16BE1768FD0EDB50ED
:1051B0001624146EFE0EDB501720156E14C0E6FF89
:1051C00015C0E6FFB6EC0DF0186E060EE15E185045
:1051D000000907E00701010EDA6FF6EC0AF0010E94
:1051E00033D1010EDB50DF6EF10EE66EE90EE66E96
:1051F000D950020FE66E000EDA20E66E1CEC00F0CD
:10520000E552E552E552E552D9CFE6FFDACFE6FFA7
:10521000D950020FE66E000EDA20E66EDFCF16F0F0
:10522000176A16BE1768FD0EDB501624146EFE0EAC
:10523000DB501720156E14C0E6FF15C0E6FFB6EC74
:105240000DF0186E060EE15E1850000907E0070128
:10525000010EDB6FF6EC0AF0010EF6D0010EDB500A
:10526000DF6EEB0EE66EE90EE66ED950020FE66ECB
:10527000000EDA20E66E1CEC00F0E552E552E55235
:10528000E552D9CFE6FFDACFE6FFD950020FE66E3E
:10529000000EDA20E66EDFCF16F0176A16BE17682A
:1052A000FD0EDB501624146EFE0EDB501720156E1B
:1052B00014C0E6FF15C0E6FFB6EC0DF0186E060E42
:1052C000E15E1850000907E00701010EDC6FF6EC03
:1052D0000AF0010EB9D0010EDB50DF6EE50EE66E6E
:1052E000E90EE66ED950020FE66E000EDA20E66E89
:1052F0001CEC00F0E552E552E552E552D9CFE6FF4D
:10530000DACFE6FFD950020FE66E000EDA20E66E25
:10531000DFCF16F0176A16BE1768FD0EDB50162495
:10532000146EFE0EDB501720156E14C0E6FF15C07C
:10533000E6FFB6EC0DF0186E060EE15E185000099F
:1053400007E00701010EDD6FF6EC0AF0010E7CD0DC
:10535000010EDB50DF6EDD0EE66EE90EE66ED95013
:10536000020FE66E000EDA20E66E1CEC00F0E5524D
:10537000E552E552E552D9CFE6FFDACFE6FFD95044
:10538000020FE66E000EDA20E66EDFCF16F0176A27
:1053900016BE1768FD0EDB501624146EFE0EDB5091
:1053A0001720156E14C0E6FF15C0E6FFB6EC0DF031
:1053B000186E060EE15E1850000907E00701010EA5
:1053C000DE6FF6EC0AF0010E3FD0010EDB50DF6E0F
:1053D000D80EE66EE90EE66ED950020FE66E000EAC
:1053E000DA20E66E1CEC00F0E552E552E552E5529B
:1053F000D9CFE6FFDACFE6FFD950020FE66E000EF6
:10540000DA20E66EDFCF16F0176A16BE1768FD0EBB
:10541000DB501624146EFE0EDB501720156E14C0E0
:10542000E6FF15C0E6FFB6EC0DF0186E060EE15E65
:105430001850000907E00701010EDF6FF6EC0AF0D3
:10544000010E02D0000E00D0146E0D0EE15C02E2DF
:10545000E16AE552E16E1450E552E7CFD9FF120040
:10546000D9CFE6FFE1CFD9FF030EE126010EDB6ABB
:10547000DF6ADFCF14F0660EE76E1418E8AE02D0D4
:10548000E73402D0E750145C0CE2DFCFE9FFEA6AB0
:10549000E9BEEA68240EE926080EEA22EF6ADF2A4E
:1054A000E8D7DF6ADFCF14F0500EE76E1418E8AECD
:1054B00002D0E73402D0E750145C55E2DFCFE9FFB9
:1054C000EA6AE9BEEA68BE0EE926070EEA22EF5054
:1054D00001E149D0020EDB6A020EDBCF14F0DFCF10
:1054E000E9FFEA6AE9BEEA68BE0EE926070EEA228B
:1054F000EF50E76E1418E8AE02D0E73402D0E75060
:10550000145C2EE2010EDBCF14F0660EE76E141869
:10551000E8AE02D0E73402D0E750145C03E357D979
:10552000000E49D0DF28E96EEA6AE9BEEA68BE0EDD
:10553000E926070EEA22EF50E66E010EDBCFF3FFFD
:10554000DB2AF350E96EEA6AE9BEEA68240EE9262E
:10555000080EEA22E552E750EF6E020EDB2ABCD7B6
:10556000020EDF269FD7DF6ADFCF14F0660EE76EEC
:105570001418E8AE02D0E73402D0E750145C19E208
:10558000DFCFE9FFEA6AE9BEEA68240EE926080EE1
:10559000EA22EF50E66EDFCFE9FFEA6AE9BEEA6889
:1055A000BE0EE926070EEA22E552E750EF6EDF2A2B
:1055B000DBD7010E00D0146E030EE15C02E2E16A5B
:1055C000E552E16E1450E552E7CFD9FF1200D9CF72
:1055D000E6FFE1CFD9FF040EE126010EDB6ADF6AA8
:1055E000030EBEC7DBFF020EDB6A010EDBCF14F039
:1055F000660EE76E1418E8AE02D0E73402D0E7502A
:10560000145C01E390D0010EDBCFE9FFEA6AE9BE4A
:10561000EA68BE0EE926070EEA22EFCF14F0030E69
:10562000DB50145C13E1020EDB2A010EDB2A010EB3
:10563000DBCF14F0660EE76E1418E8AE02D0E73444
:1056400002D0E750145C01E301D0DDD7DFCF14F0C6
:10565000510EE76E1418E8AE02D0E73402D0E750DE
:10566000145C26E2DFCF15F0640EE76E1518E8AE85
:1056700002D0E73402D0E750155C1AE2DF50DF2A8F
:10568000E96EEA6AE9BEEA68240EE926080EEA2213
:10569000020EDBCFEFFFDF50DF2AE96EEA6AE9BED8
:1056A000EA68240EE926080EEA22030EDBCFEFFF9C
:1056B000DFCF14F0520EE76E1418E8AE02D0E734D4
:1056C00002D0E750145C1FE3010EDB6A010EDBCF52
:1056D00014F0660EE76E1418E8AE02D0E73402D07C
:1056E000E750145C0EE2010EDBCFE9FFEA6AE9BE87
:1056F000EA68BE0EE926070EEA22EF6A010EDB2AEF
:10570000E5D7000E58D0010EDBCFE9FFEA6AE9BE0B
:10571000EA68BE0EE926070EEA22030EEFCFDBFF92
:10572000020EDB6A62D7010EDB6A010EDBCF14F0DA
:10573000DF50E76E1418E8AE02D0E73402D0E7502D
:10574000145C1CE2010EDBCFE9FFEA6AE9BEEA68FD
:10575000240EE926080EEA22EF50E66E010EDBCF9A
:10576000E9FFEA6AE9BEEA68BE0EE926070EEA2208
:10577000E552E750EF6E010EDB2AD7D7010EDBCFE3
:1057800014F0660EE76E1418E8AE02D0E73402D0CB
:10579000E750145C0EE2010EDBCFE9FFEA6AE9BED6
:1057A000EA68BE0EE926070EEA22EF6A010EDB2A3E
:1057B000E5D7DF5000D0146E040EE15C02E2E16A2E
:1057C000E552E16E1450E552E7CFD9FF1200D9CF70
:1057D000E6FFE1CFD9FFE652DF6A660EDF5C09E241
:1057E000DF50EA6ABE0FE96E070EEA22EF6ADF2A8F
:1057F000F4D7E552E552E7CFD9FF1200D9CFE6FF43
:10580000E1CFD9FFE652FE0EDBCF14F00001735159
:10581000E76E1418E8AE02D0E73402D0E750145C0B
:105820001DE3FE0EDBCF14F0156A14BE156814C01C
:10583000E6FF15C0E6FFFB0EE66EEA0EE66E820E90
:10584000E66E070EE66E1CEC00F0166E060EE15ECC
:1058500016500001150E746F000E59D0DF6ADFCFAD
:1058600014F00F0EE76E1418E8AE02D0E73402D041
:10587000E750145C49E20001010E696F73C018F033
:10588000196A18BE19680F0E1902F3CF19F00F0E1E
:105890001802F3CF18F0F45019268A0E1826080EB5
:1058A0001922DFCF1AF01B6A1ABE1B6818501A247F
:1058B000E96E19501B20EA6EEF50E66EFE0EDBCF4C
:1058C00014F0156A14BE15680F0E1502F3CF15F00B
:1058D0000F0E1402F3CF14F0F45015268A0E14267E
:1058E000080E1522DFCF16F0176A16BE176814507F
:1058F0001624E96E15501720EA6EE552E750EF6E58
:105900000001696BDF2AABD768EC08F000D0E552E4
:10591000E552E7CFD9FF1200D9CFE6FFE1CFD9FF9B
:10592000050EE126FE0EDBCF14F0460EE76E1418CE
:10593000E8AE02D0E73402D0E750145C17E3FE0E65
:10594000DBCFE6FFFB0EE66EEA0EE66E820EE66E3B
:10595000070EE66E1CEC00F0146E050EE15E1450AE
:105960000001110E746F000ED3EF30F00001010E34
:10597000696F0701ED0564E1FE0EDBCFE9FFEA6A1E
:10598000E9BEEA680F0EEA02F3CFEAFF0F0EE90262
:10599000F3CFE9FFF450EA268A0EE926080EEA2240
:1059A000EF6AFE0EDBCFE9FFEA6AE9BEEA680F0E96
:1059B000EA02F3CFEAFF0F0EE902F3CFE9FFF4505A
:1059C000EA268A0EE926080EEA22010EE926000ED2
:1059D000EA22EEC7EFFFFE0EDBCFE9FFEA6AE9BE7F
:1059E000EA680F0EEA02F3CFEAFF0F0EE902F3CFE7
:1059F000E9FFF450EA268A0EE926080EEA22020E92
:105A0000E926000EEA22EFC7EFFFFE0EDBCFE9FF2B
:105A1000EA6AE9BEEA680F0EEA02F3CFEAFF0F0E68
:105A2000E902F3CFE9FFF450EA268A0EE926080ED0
:105A3000EA22030EE926000EEA22F0C7EFFFB5D0F6
:105A40000701F1054BE1FE0EDBCFE9FFEA6AE9BE93
:105A5000EA680F0EEA02F3CFEAFF0F0EE902F3CF76
:105A6000E9FFF450EA268A0EE926080EEA22010E22
:105A7000EF6EFE0EDBCFE9FFEA6AE9BEEA680F0EC1
:105A8000EA02F3CFEAFF0F0EE902F3CFE9FFF45089
:105A9000EA268A0EE926080EEA22010EE926000E01
:105AA000EA22F2C7EFFFFE0EDBCFE9FFEA6AE9BEAA
:105AB000EA680F0EEA02F3CFEAFF0F0EE902F3CF16
:105AC000E9FFF450EA268A0EE926080EEA22020EC1
