:020000040000FA
:06000000C6EF73F01200D0
:020006001200E6
:06000800BDEF51F01200F3
:02000E00FEFFF3
:060018004EEF5DF0120046
:02001E000200DE
:10002000D5E70000960000002E0000000E00000042
:08003000D000000002000000F6
:08003800D9CFE6FFE1CFD9FFAB
:10004000040EE126D950FB0F146EFF0EDA20156E58
:10005000020E14C0DBFF030E15C0DBFF020EDBCF68
:10006000E6FF030EDBCFE6FFFB0EDBCF14F0FC0E4A
:10007000DBCF15F0166A14C0E6FF15C0E6FF16C008
:10008000E6FFFD0EDBCFE6FFFE0EDBCFE6FFACECBE
:1000900072F0176E070EE15E1750F3CFDEFFF4CF5C
:1000A000DDFFDECF14F0DDCF15F014C0F3FF15C077
:1000B000F4FF00D0040EE15C02E2E16AE552E16E79
:1000C000E552E7CFD9FF1200D9CFE6FFE1CFD9FF44
:1000D000FD0EDBCF14F0FE0EDBCF15F0153404E27D
:1000E0001450FF08030E155403E2000E27D026D04B
:1000F000FF0EE76EFD0EDBCF14F0FE0EDBCF15F02A
:10010000E7501416156A1450A96EFD0EDBCF14F0DB
:10011000FE0EDBCF15F015C014F0156A030E141493
:10012000AA6EA69EA69CA680FB0EDBCFE9FFFC0E66
:10013000DBCFEAFFA8CFEFFF010E00D0E552E7CFFB
:10014000D9FF1200D9CFE6FFE1CFD9FF030EE12698
:10015000090EDE6EDD6A0001010E696F000185691E
:100160008669000189698A690001010E8E6F0001AC
:10017000696B050EF36E020EF3CFDBFF020EDBCFD1
:1001800014F0000EE76E1418E8AE02D0143403D059
:10019000E750D880145429E2020EDBCF14F0156A20
:1001A00014BE156814C0E6FF15C0E6FFD20EE66E59
:1001B000DF0EE66EF70EE66E060EE66E3DDF166E9D
:1001C000060EE15E1650F70EE66E060EE66E6AEC5F
:1001D0004FF0E552E552020EE66EE66A79EC5FF00A
:1001E000E552E552020EDB06C9D70001010E696F28
:1001F0000001876B886B00018B6B8C6B0001696B56
:10020000050EF36E020EF3CFDBFF020EDBCF14F010
:10021000000EE76E1418E8AE02D0143403D0E75095
:10022000D880145429E2020EDBCF14F0156A14BEF4
:10023000156814C0E6FF15C0E6FFCA0EE66EDF0EB5
:10024000E66EF70EE66E060EE66EF6DE166E060E2D
:10025000E15E1650F70EE66E060EE66E6AEC4FF0A3
:10026000E552E552020EE66EE66A79EC5FF0E55281
:10027000E552020EDB06C9D7690EE66EE00EE66EA9
:10028000C70EE66EDF0EE66EF70EE66E060EE66E43
:10029000D3DE146E060EE15E1450F70EE66E060E07
:1002A000E66E6AEC4FF0E552E552020EE66EE66A43
:1002B00079EC5FF0E552E5520001010E696F000133
:1002C0008E6B0001696B86C014F0156A1450E66EDF
:1002D000DFCF16F0DF2A010EDBCF17F001E3DB2AB8
:1002E00016C0E6FF17C0E6FF58DBE552E552E552BF
:1002F00000018551E66EDFCF14F0DF2A010EDBCF5F
:1003000015F001E3DB2A14C0E6FF15C0E6FF45DB6C
:10031000E552E552E55288C014F0156A1450E66EB5
:10032000DFCF16F0DF2A010EDBCF17F001E3DB2A67
:1003300016C0E6FF17C0E6FF30DBE552E552E55296
:1003400000018751E66EDFCF14F0DF2A010EDBCF0C
:1003500015F001E3DB2A14C0E6FF15C0E6FF1DDB44
:10036000E552E552E5528AC014F0156A1450E66E63
:10037000DFCF16F0DF2A010EDBCF17F001E3DB2A17
:1003800016C0E6FF17C0E6FF08DBE552E552E5526E
:1003900000018951E66EDFCF14F0DF2A010EDBCFBA
:1003A00015F001E3DB2A14C0E6FF15C0E6FFF5DA1D
:1003B000E552E552E5528CC014F0156A1450E66E11
:1003C000DFCF16F0DF2A010EDBCF17F001E3DB2AC7
:1003D00016C0E6FF17C0E6FFE0DAE552E552E55247
:1003E00000018B51E66EDECFE6FFDDCFE6FFD5DA0A
:1003F000E552E552E552030EE15C02E2E16AE552A4
:10040000E16EE552E7CFD9FF1200D9CFE6FFE1CF89
:10041000D9FF040EE126010EDB6A020EDB6A030E31
:10042000DB6A030EDBCF14F0080EE76E1418E8AE9B
:1004300002D0E73402D0E750145C17E2030EDBCFA2
:10044000E6FF010EDBCF14F0DB2A020EDBCF15F046
:1004500001E3DB2A14C0E6FF15C0E6FF9EDAE55291
:10046000E552E552030EDB2ADCD7080EF36E010ECF
:10047000F3CFDBFF020EDB6A060EDF6EDFCFE6FF97
:10048000010EDBCFE6FF020EDBCFE6FF86DAE55298
:10049000E552E552110EF36E010EF3CFDBFF020EB3
:1004A000DB6ADF6ADFCFE6FF010EDBCFE6FF020E7D
:1004B000DBCFE6FF72DAE552E552E5520001010EAC
:1004C000696F0001060E686F00016F6B0001696BB8
:1004D000120EF36E010EF3CFDBFF020EDB6A010E8C
:1004E000DBCF14F0020EDBCF15F0153404E214500C
:1004F0001508000E155412E3010EE66E010EDBCF57
:10050000E6FF020EDBCFE6FF48DAE552E552E552A0
:10051000010EDB2A020E01E3DB2AE1D7040EE15CC7
:1005200002E2E16AE552E16EE552E7CFD9FF12003F
:10053000D9CFE6FFE1CFD9FF070EE126020EDB6A35
:10054000030EDB6A060EDB6A060EDBCF14F0080E24
:10055000E76E1418E8AE02D0E73402D0E750145C1E
:100560001FE2D9CFE6FFDACFE6FF020EDBCF14F0B1
:10057000DB2A030EDBCF15F001E3DB2A14C0E6FF14
:1005800015C0E6FFA1DDE552E552E552E552060E43
:10059000DB50DF5C02E039DFE4D1060EDB2AD4D782
:1005A000080EF36E020EF3CFDBFF030EDB6AD9CF2A
:1005B000E6FFDACFE6FF020EDBCFE6FF030EDBCF6E
:1005C000E6FF82DDE552E552E552E5520001010EFB
:1005D000696FDFCF68F00001696B120EF36E020ED7
:1005E000F3CFDBFF030EDB6AD9CFE6FFDACFE6FFFE
:1005F000020EDBCF14F0DB2A030EDBCF15F001E394
:10060000DB2A14C0E6FF15C0E6FF5EDDE552E552C9
:10061000E552E552DF50E8B09582E8A09592D9CF37
:10062000E6FFDACFE6FF020EDBCF14F0DB2A030E83
:10063000DBCF15F001E3DB2A14C0E6FF15C0E6FFAF
:1006400043DDE552E552E552E552DF50E8B09584CE
:10065000E8A09594D9CFE6FFDACFE6FF020EDBCF14
:1006600014F0DB2A030EDBCF15F001E3DB2A14C004
:10067000E6FF15C0E6FF28DDE552E552E552E552FA
:10068000DF50E8B09586E8A09596D9CFE6FFDACF9F
:10069000E6FF020EDBCFE6FF030EDBCFE6FF14DD45
:1006A000E552E552E552E552DF50E8B09488E8A003
:1006B0009498090EF36E020EF3CFDBFF030EDB6A94
:1006C000D9CFE6FFDACFE6FF020EDBCF14F0DB2A4C
:1006D000030EDBCF15F001E3DB2A14C0E6FF15C0E3
:1006E000E6FFF2DCE552E552E552E5520001010E6B
:1006F000696FDFCF85F00001866B85BF86690001D9
:10070000696BD9CFE6FFDACFE6FF020EDBCF14F03C
:10071000DB2A030EDBCF15F001E3DB2A14C0E6FF72
:1007200015C0E6FFD1DCE552E552E552E552000185
:10073000010E696FDFCF14F0156A14BE156885C00D
:1007400017F0166A145016240001856F15501720F3
:100750000001866F0001696BD9CFE6FFDACFE6FFB3
:10076000020EDBCF14F0DB2A030EDBCF15F001E322
:10077000DB2A14C0E6FF15C0E6FFA6DCE552E55211
:10078000E552E5520001010E696FDFCF87F00001ED
:10079000886B87BF88690001696BD9CFE6FFDACF24
:1007A000E6FF020EDBCF14F0DB2A030EDBCF15F0E1
:1007B00001E3DB2A14C0E6FF15C0E6FF85DCE55245
:1007C000E552E552E5520001010E696FDFCF14F0EA
:1007D000156A14BE156887C017F0166A14501624DF
:1007E0000001876F155017200001886F0001696BA9
:1007F000D9CFE6FFDACFE6FF020EDBCF14F0DB2A1B
:10080000030EDBCF15F001E3DB2A14C0E6FF15C0B1
:10081000E6FF5ADCE552E552E552E5520001010ED1
:10082000696FDFCF89F000018A6B89BF8A69000197
:10083000696BD9CFE6FFDACFE6FF020EDBCF14F00B
:10084000DB2A030EDBCF15F001E3DB2A14C0E6FF41
:1008500015C0E6FF39DCE552E552E552E5520001EC
:10086000010E696FDFCF14F0156A14BE156889C0D8
:1008700017F0166A145016240001896F15501720BE
:1008800000018A6F0001696BD9CFE6FFDACFE6FF7E
:10089000020EDBCF14F0DB2A030EDBCF15F001E3F1
:1008A000DB2A14C0E6FF15C0E6FF0EDCE552E55278
:1008B000E552E5520001010E696FDFCF8BF00001B8
:1008C0008C6B8BBF8C690001696BD9CFE6FFDACFE7
:1008D000E6FF020EDBCFE6FF030EDBCFE6FF64ECA4
:1008E00000F0E552E552E552E5520001010E696F54
:1008F000DFCF14F0156A14BE15688BC017F0166AA6
:100900001450162400018B6F1550172000018C6FB6
:100910000001696B0001010E696F00018551000142
:10092000875D00018F6F0001865100018859000129
:10093000906F0001696B0001010E696F0001895120
:1009400000018B5D0001916F00018A5100018C59FB
:100950000001926F0001696BF7D9E76E010EE7CFD6
:10096000DBFF070EE15C02E2E16AE552E16EE5526F
:10097000E7CFD9FF1200A1A805D0A198A694010E37
:1009800003D002D0000E00D01200A6B203D0010E98
:1009900003D002D0000E00D01200D9CFE6FFE1CF85
:1009A000D9FFE652FD0EDBCF14F0FE0EDBCF15F0C3
:1009B000153404E21450FF08030E155403E2000E30
:1009C0004BD04AD0E2DF000901E1FCD7D9CFE6FFE6
:1009D000DACFE6FFFD0EDBCFE6FFFE0EDBCFE6FF54
:1009E00064EC00F0E552E552E552E552FC0EDB50B6
:1009F000DF5C02E1010E30D0FF0EE76EFD0EDBCFB3
:100A000014F0FE0EDBCF15F0E7501416156A1450E3
:100A1000A96EFD0EDBCF14F0FE0EDBCF15F015C076
:100A200014F0156A030E1414AA6EFC0EDB50A86EA7
:100A3000A69EA69CA684F29E550EA76EAA0EA76E31
:100A4000A68299DFFF0801E1FCD79FDF000901E1E1
:100A5000FCD7F28E010E00D0E552E552E7CFD9FF68
:100A6000120072D900D01200DA0EE66EDF0EE66ECA
:100A7000C70EE66EDF0EE66EF70EE66E060EE66E4B
:100A80001CEC00F0146E060EE15E1450F70EE66EDC
:100A9000060EE66EB7EC44F0E552E552EF0EE66E58
:100AA000DF0EE66EC70EE66EDF0EE66EF70EE66E42
:100AB000060EE66E1CEC00F0146E060EE15E14509D
:100AC000F70EE66E060EE66EB7EC44F0E552E55220
:100AD000030EE66EE00EE66EC70EE66EDF0EE66E05
:100AE000F70EE66E060EE66E1CEC00F0146E060EB7
:100AF000E15E145060C014F0156A14BE156814C08D
:100B0000E6FF15C0E6FFF70EE66E060EE66EC20EB5
:100B1000E66EDF0EE66EF70EE66E060EE66E1CEC77
:100B200000F0166E080EE15E1650F70EE66E060E29
:100B3000E66EB7EC44F0E552E5520B0EE66EE00EC1
:100B4000E66EC70EE66EDF0EE66EF70EE66E060E7A
:100B5000E66E1CEC00F0146E060EE15E1450060EFC
:100B60000001685D13E1F70EE66E060EE66EBC0E40
:100B7000E66EDF0EE66EF70EE66E060EE66E1CEC17
:100B800000F0146E060EE15E145012D0F70EE66E01
:100B9000060EE66EB60EE66EDF0EE66EF70EE66E3B
:100BA000060EE66E1CEC00F0146E060EE15E1450AC
:100BB000F70EE66E060EE66EB7EC44F0E552E5522F
:100BC000120EE66EE00EE66EC70EE66EDF0EE66E05
:100BD000F70EE66E060EE66E1CEC00F0146E060EC6
:100BE000E15E14503EDF146E156A14BE156814C021
:100BF000E6FF15C0E6FFF70EE66E060EE66EAF0ED8
:100C0000E66EDF0EE66EF70EE66E060EE66E1CEC86
:100C100000F0166E080EE15E1650F70EE66E060E38
:100C2000E66EB7EC44F0E552E5521B0EE66EE00EC0
:100C3000E66EC70EE66EDF0EE66EF70EE66E060E89
:100C4000E66E1CEC00F0146E060EE15E14502C0EE5
:100C50000001735D13E0F70EE66E060EE66EA60E5B
:100C6000E66EDF0EE66EF70EE66E060EE66E1CEC26
:100C700000F0146E060EE15E145012D0F70EE66E10
:100C8000060EE66E9A0EE66EDF0EE66EF70EE66E66
:100C9000060EE66E1CEC00F0146E060EE15E1450BB
:100CA000F70EE66E060EE66EB7EC44F0E552E5523E
:100CB0002D0EE66EE00EE66EC70EE66EDF0EE66EF9
:100CC000F70EE66E060EE66E1CEC00F0146E060ED5
:100CD000E15E14506FC014F0156A14BE156814C09C
:100CE000E6FF15C0E6FFF70EE66E060EE66EC20ED4
:100CF000E66EDF0EE66EF70EE66E060EE66E1CEC96
:100D000000F0166E080EE15E1650F70EE66E060E47
:100D1000E66EB7EC44F0E552E552990EE66EDF0E52
:100D2000E66EF70EE66E060EE66E1CEC00F0E5527F
:100D3000E552E552E552F70EE66E060EE66EB7ECAA
:100D400044F0E552E5521200D9CFE6FFE1CFD9FFDA
:100D5000090EE126110EF36E030EF3CFDBFF040E36
:100D6000DB6AD950020FE66E000EDA20E66E030E43
:100D7000DBCFE6FF040EDBCFE6FF64EC00F0E552CC
:100D8000E552E552E5520001010E696F020EDBCF1C
:100D90006FF00001696B00016F5102E1640EB4D085
:100DA000160EF36E030EF3CFDBFF040EDB6ADF6A71
:100DB000DFCF14F000016F51E76E1418E8AE02D0D7
:100DC000E73402D0E750145C54E2010EDB6A010EF6
:100DD000DBCF14F00F0EE76E1418E8AE02D0E73444
:100DE00002D0E750145C43E2D950020FE66E000EC9
:100DF000DA20E66E030EDBCF14F0DB2A040EDBCF25
:100E000015F001E3DB2A14C0E6FF15C0E6FF64EC31
:100E100000F0E552E552E552E5520001010E696F1E
:100E2000DFCF14F0156A14BE15680F0E1502F3CF4C
:100E300015F00F0E1402F3CF14F0F4501526760EB1
:100E40001426080E1522010EDBCF16F0176A16BE07
:100E5000176814501624E96E15501720EA6E020E1A
:100E6000DBCFEFFF0001696B010EDB2AB0D7DF2A71
:100E70009FD7146A040E156E166A176A030EDBCF2D
:100E800018F0040EDBCF19F01A6A1B6A19AE02D0F3
:100E90001A681B681850145C066E19501558076EB6
:100EA0001A501658086E1B501758096E640E0B6EB8
:100EB0000C6A0D6A0E6A06C006F007C007F008C08B
:100EC00008F009C009F032EC73F002C006F003C06C
:100ED00007F004C008F005C009F0EA0E0B6E030E1F
:100EE0000C6E0D6A0E6A9EEC71F0050E06C0DBFFFB
:100EF000060E07C0DBFF070E08C0DBFF080E09C0A7
:100F0000DBFF050EDB5000D0146E090EE15C02E23F
:100F1000E16AE552E16E1450E552E7CFD9FF1200C5
:100F2000D9CFE6FFE1CFD9FF050EE126160EF36E0D
:100F3000020EF3CFDBFF030EDB6ADF6ADFCF14F0B4
:100F400000016F51E76E1418E8AE02D0E73402D00A
:100F5000E750145C01E37AD00F0EE76E020EDBCF90
:100F600014F0030EDBCF15F0E7501426000E152207
:100F7000D890155004E6000E145C040E15581CE3BE
:100F80006FC014F0156A14BE156814C0E6FF15C0D2
:100F9000E6FF8D0EE66EDF0EE66E760EE66E070E4F
:100FA000E66E1CEC00F0166E060EE15E16500001B7
:100FB000110E706F000E63D0010EDB6A010EDBCFE5
:100FC00014F00F0EE76E1418E8AE02D0E73402D02A
:100FD000E750145C39E2DFCF14F0156A14BE1568CF
:100FE0000F0E1502F3CF15F00F0E1402F3CF14F00D
:100FF000F4501526760E1426080E1522010EDBCFAE
:1010000016F0176A16BE176814501624E96E1550AC
:101010001720EA6E040EEFCFDBFF040EDBCFE6FFF6
:10102000020EDBCF14F0DB2A030EDBCF15F001E359
:10103000DB2A14C0E6FF15C0E6FFAFDCE552E5523F
:10104000E552010EDB2ABAD7DF2A78D7110EF36EEC
:10105000020EF3CFDBFF030EDB6A040E6FC0DBFF73
:10106000040EDBCFE6FF020EDBCFE6FF030EDBCF85
:10107000E6FF93DCE552E552E552010E00D0146E16
:10108000050EE15C02E2E16AE552E16E1450E552C0
:10109000E7CFD9FF1200D9CFE6FFE1CFD9FFFE0E8F
:1010A000DBCF14F0300EE76E1418E8AE02D0E73450
:1010B00002D0E750145C11E3FE0EDBCF15F0390EC1
:1010C000E76E1518E8AE02D0153403D0E750D8808B
:1010D000155403E3010E03D002D0000E00D0E552F8
:1010E000E7CFD9FF1200D9CFE6FFE1CFD9FFFE0E3F
:1010F000DBCF14F0410EE76E1418E8AE02D0E734EF
:1011000002D0E750145C11E3FE0EDBCF15F0460E63
:10111000E76E1518E8AE02D0153403D0E750D8803A
:10112000155403E3010E03D002D0000E00D0E552A7
:10113000E7CFD9FF1200D9CFE6FFE1CFD9FFE652C2
:10114000FE0EDBCF14F0610EE76E1418E8AE02D08D
:10115000E73402D0E750145C13E3FE0EDBCF15F04A
:101160007A0EE76E1518E8AE02D0153403D0E750BA
:10117000D880155405E3FE0EDB50E00FDF6E03D080
:10118000FE0EDB50DF6EDF5000D0E552E552E7CFB8
:10119000D9FF1200D9CFE6FFE1CFD9FF090EE12632
:1011A000DE6ADD6A020EDB6A030EDB6A0A0EF36E8C
:1011B000040EF3CFDBFF050EDB6A060EDB6AFD0EC5
:1011C000DBCFE9FFFE0EDBCFEAFFEF50300805E191
:1011D000FD0EDB2AFE0E01E3DB2AFD0EDBCFE9FF6D
:1011E000FE0EDBCFEAFFEF5009E0FD0EDBCFE9FF9B
:1011F000FE0EDBCFEAFFEF5020080BE1050EDBCF40
:1012000014F0060EDBCF15F014C0F3FF15C0F4FF89
:101210000BD1FD0EDBCFE9FFFE0EDBCFEAFFEF5077
:10122000E66E89DFE55258080AE1FD0EDB2AFE0E64
:1012300001E3DB2A100EF36E040EF3CFDBFFFD0E8D
:10124000DBCFE9FFFE0EDBCFEAFFEF5001E1ADD0CF
:10125000FD0EDBCFE9FFFE0EDBCFEAFFEF502008EB
:1012600001E1A3D0FD0EDBCFE9FFFE0EDBCFEAFFED
:10127000EF50E66E10DFE552000913E0FD0EDBCF04
:10128000E9FFFE0EDBCFEAFFEF50D00FE66ED9503C
:10129000070FE96EDACFEAFFE552E750EE6EED6A2E
:1012A00048D0FD0EDBCFE9FFFE0EDBCFEAFFEF50AB
:1012B000E66E41DFE552E66E16DFE55200092AE0F0
:1012C000FD0EDBCFE9FFFE0EDBCFEAFFEF50E66E4F
:1012D00032DFE552BF0F0A0FE66ED950070FE96EF5
:1012E000DACFEAFFE552E750EE6EED6A070EDBCF8C
:1012F00014F0080EDBCF15F0D890155004E60A0E56
:10130000145C000E155805E3100EF36E040EF3CFB7
:10131000DBFF0FD0220E0001CE6FCF6B050EDBCFAF
:1013200014F0060EDBCF15F014C0F3FF15C0F4FF68
:101330007BD0070EDBCF16F0080EDBCF17F0100EB8
:10134000086E096ADECF0DF0DDCF0EF0D2EC71F041
:1013500006501624146E07501720156E14C0DEFFB9
:1013600015C0DDFF070EDBCF16F0080EDBCF17F040
:101370000A0E086E096A020EDBCF0DF0030EDBCFFA
:101380000EF0D2EC71F006501624146E07501720A0
:10139000156E020E14C0DBFF030E15C0DBFFFD0E41
:1013A000DB2AFE0E01E3DB2A4AD7040EDB500A08D3
:1013B0000DE1020EDBCF08F0030EDBCF09F0050EC6
:1013C00008C0DBFF060E09C0DBFF0AD0D9CFE9FF5A
:1013D000DACFEAFF050EEECFDBFF060EEDCFDBFF27
:1013E000050EDBCF14F0060EDBCF15F00001800EEA
:1013F00015140FE0220E0001CE6FCF6B050EDBCF70
:1014000014F0060EDBCF15F014C0F3FF15C0F4FF87
:101410000BD0050EDBCF14F0060EDBCF15F014C099
:10142000F3FF15C0F4FF00D0090EE15C02E2E16AAF
:10143000E552E16EE552E7CFD9FF1200990EE66E54
:10144000DF0EE66E760EE66E070EE66E1CEC00F022
:10145000E552E552E552E5520001706B12000001C1
:101460007051080A01E137D2100A01E121D20D0AB8
:1014700001E10BD2010A01E1F5D1070A01E1DFD157
:10148000010A01E1C9D1030A01E1B3D1010A01E175
:101490009DD11F0A01E187D1010A01E171D1030A3F
:1014A00001E15BD1010A01E145D1060A01E12FD139
:1014B000030A01E119D10E0A01E103D11C0A01E17D
:1014C000EDD0010A01E1D7D0030A01E1C1D0120A2F
:1014D00001E1ABD01C0A01E195D0010A01E17FD006
:1014E000100A6AE0030A55E0010A40E0070A2BE00F
:1014F000010A16E0030A01E001D2E70EE66EE00EF3
:10150000E66EC70EE66EDF0EE66EF70EE66E060EB0
:10151000E66E1CEC00F0146E060EE15E145002D272
:10152000F60EE66EE00EE66EC70EE66EDF0EE66EB7
:10153000F70EE66E060EE66E1CEC00F0146E060E5C
:10154000E15E1450EFD1060EE66EE10EE66EC70EB8
:10155000E66EDF0EE66EF70EE66E060EE66E1CEC2D
:1015600000F0146E060EE15E1450DCD11A0EE66E29
:10157000E10EE66EC70EE66EDF0EE66EF70EE66E65
:10158000060EE66E1CEC00F0146E060EE15E1450C2
:10159000C9D1260EE66EE10EE66EC70EE66EDF0ED0
:1015A000E66EF70EE66E060EE66E1CEC00F0146EAC
:1015B000060EE15E1450B6D1340EE66EE10EE66E14
:1015C000C70EE66EDF0EE66EF70EE66E060EE66EF0
:1015D0001CEC00F0146E060EE15E1450A3D1450E13
:1015E000E66EE10EE66EC70EE66EDF0EE66EF70EF5
:1015F000E66E060EE66E1CEC00F0146E060EE15E62
:10160000145090D1570EE66EE10EE66EC70EE66EF0
:10161000DF0EE66EF70EE66E060EE66E1CEC00F0D0
:10162000146E060EE15E14507DD1680EE66EE10E7A
:10163000E66EC70EE66EDF0EE66EF70EE66E060E7F
:10164000E66E1CEC00F0146E060EE15E14506AD1DA
:10165000780EE66EE10EE66EC70EE66EDF0EE66E03
:10166000F70EE66E060EE66E1CEC00F0146E060E2B
:10167000E15E145057D18F0EE66EE10EE66EC70E96
:10168000E66EDF0EE66EF70EE66E060EE66E1CECFC
:1016900000F0146E060EE15E145044D1A40EE66E06
:1016A000E10EE66EC70EE66EDF0EE66EF70EE66E34
:1016B000060EE66E1CEC00F0146E060EE15E145091
:1016C00031D1BD0EE66EE10EE66EC70EE66EDF0EA0
:1016D000E66EF70EE66E060EE66E1CEC00F0146E7B
:1016E000060EE15E14501ED1D10EE66EE10EE66EDE
:1016F000C70EE66EDF0EE66EF70EE66E060EE66EBF
:101700001CEC00F0146E060EE15E14500BD1E10EDD
:10171000E66EE10EE66EC70EE66EDF0EE66EF70EC3
:10172000E66E060EE66E1CEC00F0146E060EE15E30
:101730001450F8D0F00EE66EE10EE66EC70EE66EBF
:10174000DF0EE66EF70EE66E060EE66E1CEC00F09F
:10175000146E060EE15E1450E5D0010EE66EE20E48
:10176000E66EC70EE66EDF0EE66EF70EE66E060E4E
:10177000E66E1CEC00F0146E060EE15E1450D2D042
:10178000160EE66EE20EE66EC70EE66EDF0EE66E33
:10179000F70EE66E060EE66E1CEC00F0146E060EFA
:1017A000E15E1450BFD0280EE66EE20EE66EC70E64
:1017B000E66EDF0EE66EF70EE66E060EE66E1CECCB
:1017C00000F0146E060EE15E1450ACD0380EE66EDA
:1017D000E20EE66EC70EE66EDF0EE66EF70EE66E02
:1017E000060EE66E1CEC00F0146E060EE15E145060
:1017F00099D04C0EE66EE20EE66EC70EE66EDF0E78
:10180000E66EF70EE66E060EE66E1CEC00F0146E49
:10181000060EE15E145086D0660EE66EE20EE66EAF
:10182000C70EE66EDF0EE66EF70EE66E060EE66E8D
:101830001CEC00F0146E060EE15E145073D0750EB1
:10184000E66EE20EE66EC70EE66EDF0EE66EF70E91
:10185000E66E060EE66E1CEC00F0146E060EE15EFF
:10186000145060D08A0EE66EE20EE66EC70EE66E8B
:10187000DF0EE66EF70EE66E060EE66E1CEC00F06E
:10188000146E060EE15E14504DD0A60EE66EE20E0A
:10189000E66EC70EE66EDF0EE66EF70EE66E060E1D
:1018A000E66E1CEC00F0146E060EE15E14503AD0A9
:1018B000BF0EE66EE20EE66EC70EE66EDF0EE66E59
:1018C000F70EE66E060EE66E1CEC00F0146E060EC9
:1018D000E15E145027D0D20EE66EE20EE66EC70E21
:1018E000E66EDF0EE66EF70EE66E060EE66E1CEC9A
:1018F00000F0146E060EE15E145014D070C0E6FFC6
:10190000E10EE66EE20EE66E850EE66EDF0EE66E28
:10191000F70EE66E060EE66E1CEC00F0146E070E77
:10192000E15E1450760EE66E070EE66EF70EE66E7A
:10193000060EE66E7F0EE66EDF0EE66EF70EE66EC4
:10194000060EE66E1CEC00F0146E080EE15E1450FC
:10195000F70EE66E060EE66EB7EC44F0E552E55281
:10196000990EE66EDF0EE66EF70EE66E060EE66E7A
:101970001CEC00F0E552E552E552E552F70EE66E3A
:10198000060EE66EB7EC44F0E552E55257DD120064
:10199000D9CFE6FFE1CFD9FF100EE126DF6A010EB5
:1019A000DB6AFD0EDBCFE6FFFE0EDBCFE6FFFFECD2
:1019B00071F0E552E5520C0EF3CFDBFF0D0EF4CFC4
:1019C000DBFFFB0EDBCFE6FFFC0EDBCFE6FFFFEC21
:1019D00071F0E552E5520E0EF3CFDBFF0F0EF4CFA0
:1019E000DBFFDF6ADFCF14F0156A14BE15680C0E3A
:1019F000DBCF16F00D0EDBCF17F015501718E8AE41
:101A000002D0173404D01650145C1750155801E357
:101A10009AD0DFCF14F0156A14BE1568FD0EDB50A6
:101A20001424E96EFE0EDB501520EA6EEF502008FC
:101A300008E1F90EDBCFE9FFFA0EDBCFEAFFEF2A70
:101A400080D0DFCF18F0196A18BE1968FD0EDB5080
:101A50001824E96EFE0EDB501920EA6EEF50E66E98
:101A6000D950020F146EDACF15F0010EDBCFF3FF61
:101A7000DB2AF350166E176A16BE17681450162428
:101A8000E96E15501720EA6EE552E750EF6EF90E39
:101A9000DBCFE9FFFA0EDBCFEAFFEF2A0E0EDBCF3A
:101AA000E6FF0F0EDBCFE6FFFB0EDBCFE6FFFC0E03
:101AB000DBCFE6FFD950020FE66E000EDA20E66EAD
:101AC0000DEC72F0146E060EE15E1450000902E196
:101AD000010E6AD0010EDBCF14F0156A14BE156832
:101AE00014C0E6FF15C0E6FFFB0EDBCFE6FFFC0EE1
:101AF000DBCFE6FFFFEC71F0E552E552E552E7CFB0
:101B000015F0E552E7CF14F0F3CF18F0F4CF19F049
:101B1000D890195004E6090E185C000E195807E217
:101B20000E0EDBCF16F00F0EDBCF17F003D0090E31
:101B3000166E176A1650141802E11750151801E1B5
:101B400002D0DF2A4FD7D950020F146EDACF15F02A
:101B5000010EDBCF16F0176A16BE17681450162454
:101B6000E96E15501720EA6EEF6AFB0EDBCFE6FF39
:101B7000FC0EDBCFE6FFD950020FE66E000EDA2036
:101B8000E66E6F0EE66EDF0EE66E760EE66E070E02
:101B9000E66E1CEC00F0146E080EE15E14500001BD
:101BA000010E706F000E00D0146E100EE15C02E2A8
:101BB000E16AE552E16E1450E552E7CFD9FF120019
:101BC000D9CFE6FFE1CFD9FF070EE126DF6A010E8C
:101BD000DB6A0001CE6BCF6BFD0EDBCFE6FFFE0EA6
:101BE000DBCFE6FFFFEC71F0E552E552050EF3CFD7
:101BF000DBFF060EF4CFDBFFDFCF14F0156A14BE57
:101C00001568FD0EDB501424E96EFE0EDB50152026
:101C1000EA6EEF5020081FE1DFCF16F0176A16BEFC
:101C20001768050EDBCF18F0060EDBCF19F0175042
:101C30001918E8AE02D0193404D01850165C1950A7
:101C4000175809E2F90EDBCFE9FFFA0EDBCFEAFF06
:101C5000EF2ADF2AD1D7DFCF16F0176A16BE176832
:101C6000FD0EDB501624146EFE0EDB501720156E91
:101C700014C0E6FF15C0E6FFCAEC08F0E552E552D5
:101C8000030EF3CFDBFF040EF4CFDBFF0001220EC7
:101C9000CE1901E1CF5106E00001160ECE1901E187
:101CA000CF5103E1020EDB6A05D0010EF36E020E86
:101CB000F3CFDBFF030EDBCF14F0040EDBCF15F008
:101CC000153404E21450FF08000E155422E20001FE
:101CD000220ECE1901E1CF5102E0000E01D0010E1B
:101CE000030EDBCFE6FF040EDBCFE6FF6C0EE66EE5
:101CF000DF0EE66E760EE66E070EE66E1CEC00F06A
:101D0000146E060EE15E14500001040E706F000E9A
:101D100051D0020EDB043BE1DFCF14F0156A14BE94
:101D20001568FD0EDB501424E96EFE0EDB50152005
:101D3000EA6EEF5020081FE0DFCF16F0176A16BEDC
:101D40001768050EDBCF18F0060EDBCF19F0175021
:101D50001918E8AE02D0193404D01850165C195086
:101D6000175809E2F90EDBCFE9FFFA0EDBCFEAFFE5
:101D7000EF2ADF2AD1D7FB0EDBCFE9FFFC0EDBCF4A
:101D8000EAFF030EDBCFEFFF010E14D013D0990E44
:101D9000E66EDF0EE66E760EE66E070EE66E1CEC65
:101DA00000F0E552E552E552E5520001020E706F77
:101DB000000E00D0146E070EE15C02E2E16AE5520B
:101DC000E16E1450E552E7CFD9FF1200D9CFE6FFFC
:101DD000E1CFD9FF020EE126010EDB6ADF6A010EB8
:101DE000DBCF14F0030EE76E1418E8AE02D0E73430
:101DF00002D0E750145C01E325D1FB0EDBCFE9FFF5
:101E0000FC0EDBCFEAFFEFCF14F0156A14BE1568A5
:101E1000FD0EDB501424E96EFE0EDB501520EA6E39
:101E2000EF50200801E1C4D0010EDB503AE1DF5051
:101E300038E1FB0EDBCFE9FFFC0EDBCFEAFFEFCF93
:101E400014F0156A14BE1568FD0EDB501424E96EFB
:101E5000FE0EDB501520EA6EEF50E66EFB0EDBCF78
:101E6000E9FFFC0EDBCFEAFFEFCF16F0176A16BED4
:101E7000176816C0E6FF17C0E6FF5D0EE66EDF0EC0
:101E8000E66E760EE66E070EE66E1CEC00F0186E3F
:101E9000070EE15E18500001120E706F000ED4D0D4
:101EA00086D0FB0EDBCFE9FFFC0EDBCFEAFFEFCFE6
:101EB00014F0156A14BE156814C0E6FF15C0E6FFDD
:101EC000FD0EDBCFE6FFFE0EDBCFE6FFFFEC71F091
:101ED000E552E552E552E7CF15F0E552E7CF14F0B1
:101EE000F3CF16F0F4CF17F01650141802E1175084
:101EF000151833E1010EDBCF14F0000EE76E141855
:101F0000E8AE02D0143403D0E750D880145411E264
:101F1000010EDBCF14F0156A14BE1568F90EDB5004
:101F20001424E96EFA0EDB501520EA6EEF6A8AD0AF
:101F300013D0990EE66EDF0EE66E760EE66E070E95
:101F4000E66E1CEC00F0E552E552E552E552000168
:101F50001B0E706F000E78D02AD0FB0EDBCFE9FF8E
:101F6000FC0EDBCFEAFFEF50EF2A166E176A16BEA3
:101F70001768FD0EDB501624E96EFE0EDB501720AD
:101F8000EA6EEF50E66E010EDBCFF3FFDB2AF35073
:101F9000146E156A14BE1568F90EDB501424E96E30
:101FA000FA0EDB501520EA6EE552E750EF6E1DD0B9
:101FB000010EDB500AE1010EDF6EFB0EDBCFE9FF05
:101FC000FC0EDBCFEAFFEF2A10D0010EDBCF14F0BE
:101FD000156A14BE1568F90EDB501424E96EFA0E6A
:101FE000DB501520EA6EEF6A2DD0010EDB5003089E
:101FF00028E1010EDB04146E156A14BE1568F90E93
:10200000DB501424E96EFA0EDB501520EA6EEF6AFD
:10201000F90EDBCFE6FFFA0EDBCFE6FF5A0EE66ED7
:10202000DF0EE66E760EE66E070EE66E1CEC00F036
:10203000146E060EE15E14500001130E706F000E58
:1020400003D0CDD6010E00D0146E020EE15C02E288
:10205000E16AE552E16E1450E552E7CFD9FF120074
:10206000D9CFE6FFE1CFD9FF0D0EE126DF6A010EE1
:10207000DB6AB3EC28F0550EE66EDF0EE66ED95043
:10208000020FE66E000EDA20E66E1CEC00F0E55260
:10209000E552E552E552D9CFE6FFDACFE6FFD95057
:1020A000020FE66E000EDA20E66EDFCF16F0176A3A
:1020B00016BE1768FD0EDB501624146EFE0EDB50A4
:1020C0001720156E14C0E6FF15C0E6FF61DC186E20
:1020D000060EE15E185000090AE00701040EB46F15
:1020E00060C0B3F71EEC0AF0010EF0EF26F04E0EC2
:1020F000E66EDF0EE66ED950020FE66E000EDA20B5
:10210000E66E1CEC00F0E552E552E552E552DF6A5E
:10211000D9CFE6FFDACFE6FFD950020FE66E000E08
:10212000DA20E66EDFCF16F0176A16BE1768FD0ECE
:10213000DB501624146EFE0EDB501720156E14C0F3
:10214000E6FF15C0E6FF24DC186E060EE15E1850AF
:1021500000090AE00701050EB46F60C0B3F71EEC7A
:102160000AF0010EF0EF26F0490EE66EDF0EE66E85
:10217000D950020FE66E000EDA20E66E1CEC00F07D
:10218000E552E552E552E552DF6AD9CFE6FFDACFF4
:10219000E6FFD950020FE66E000EDA20E66EDFCFC2
:1021A00016F0176A16BE1768FD0EDB501624146E63
:1021B000FE0EDB501720156E14C0E6FF15C0E6FFBB
:1021C000C8EC0CF0186E060EE15E185000090AE02B
:1021D0000701400EB46F60C0B3F71EEC0AF0010EA9
:1021E000F0EF26F0450EE66EDF0EE66ED950020FD8
:1021F000E66E000EDA20E66E1CEC00F0E552E552C9
:10220000E552E552DF6AD9CFE6FFDACFE6FFD950D3
:10221000020FE66E000EDA20E66EDFCF16F0176AC8
:1022200016BE1768FD0EDB501624146EFE0EDB5032
:102230001720156E14C0E6FF15C0E6FFC8EC0CF0C1
:10224000186E060EE15E185000092BE00701230E00
:10225000B46FD9CFE6FFDACFE6FFB30EE66E070E16
:10226000E66EDFCF16F0176A16BE1768FD0EDB505C
:102270001624146EFE0EDB501720156E14C0E6FFF8
:1022800015C0E6FF9DDC186E060EE15E18500009D1
:1022900003E1000EF0EF26F01EEC0AF0010EF0EF65
:1022A00026F03F0EE66EDF0EE66ED950020FE66EA8
:1022B000000EDA20E66E1CEC00F0E552E552E55225
:1022C000E552DF6AD9CFE6FFDACFE6FFD950020F39
:1022D000E66E000EDA20E66EDFCF16F0176A16BE45
:1022E0001768FD0EDB501624146EFE0EDB5017200F
:1022F000156E14C0E6FF15C0E6FFC8EC0CF0186EB2
:10230000060EE15E185000092BE007012D0EB46F98
:10231000D9CFE6FFDACFE6FFB30EE66E070EE66E24
:10232000DFCF16F0176A16BE1768FD0EDB501624B5
:10233000146EFE0EDB501720156E14C0E6FF15C09C
:10234000E6FF3EDC186E060EE15E1850000903E160
:10235000000EF0EF26F01EEC0AF0010EF0EF26F072
:10236000390EE66EDF0EE66ED950020FE66E000EF5
:10237000DA20E66E1CEC00F0E552E552E552E5523B
:10238000DF6AD9CFE6FFDACFE6FFD950020FE66E5B
:10239000000EDA20E66EDFCF16F0176A16BE176859
:1023A000FD0EDB501624146EFE0EDB501720156E4A
:1023B00014C0E6FF15C0E6FFC8EC0CF0186E060E60
:1023C000E15E185000092CE00701240EB46FD9CF4C
:1023D000E6FFDACFE6FFB30EE66E070EE66EDFCF5E
:1023E00016F0176A16BE1768FD0EDB501624146E21
:1023F000FE0EDB501720156E14C0E6FF15C0E6FF79
:10240000E0EC0DF0186E060EE15E1850000903E1D5
:10241000000EF0EF26F01EEC0AF0010EF0EF26F0B1
:10242000DF6A340EE66EDF0EE66ED950020FE66EFE
:10243000000EDA20E66E1CEC00F0E552E552E552A3
:10244000E552D9CFE6FFDACFE6FFD950020FE66EAC
:10245000000EDA20E66EDFCF16F0176A16BE176898
:10246000FD0EDB501624146EFE0EDB501720156E89
:1024700014C0E6FF15C0E6FFC8EC0CF0186E060E9F
:10248000E15E1850000902E162EF1EF00701010E43
:10249000B26FD9CFE6FFDACFE6FFB30EE66E070ED6
:1024A000E66EDFCF16F0176A16BE1768FD0EDB501A
:1024B0001624146EFE0EDB501720156E14C0E6FFB6
:1024C00015C0E6FFE0EC0DF0186E060EE15E185048
:1024D000000903E1000EF0EF26F0010EDFCFDBFF75
:1024E000300EE66EDF0EE66ED950020FE66E000E7D
:1024F000DA20E66E1CEC00F0E552E552E552E552BA
:10250000D9CFE6FFDACFE6FFD950020FE66E000E14
:10251000DA20E66EDFCF16F0176A16BE1768FD0EDA
:10252000DB501624146EFE0EDB501720156E14C0FF
:10253000E6FF15C0E6FFC8EC0CF0186E060EE15E73
:10254000185000090BE00701010ED56F0701030EBB
:10255000D66F1EEC0AF0010EF0EF26F02C0EE66EA0
:10256000DF0EE66ED950020FE66E000EDA20E66E40
:102570001CEC00F0E552E552E552E552010EDB504D
:10258000DF6ED9CFE6FFDACFE6FFD950020FE66E55
:10259000000EDA20E66EDFCF16F0176A16BE176857
:1025A000FD0EDB501624146EFE0EDB501720156E48
:1025B00014C0E6FF15C0E6FFC8EC0CF0186E060E5E
:1025C000E15E185000090BE00701010ED56F07010D
:1025D000060ED66F1EEC0AF0010EF0EF26F0270E65
:1025E000E66EDF0EE66ED950020FE66E000EDA20C0
:1025F000E66E1CEC00F0E552E552E552E552010EA4
:10260000DB50DF6ED9CFE6FFDACFE6FFD950020FFD
:10261000E66E000EDA20E66EDFCF16F0176A16BE01
:102620001768FD0EDB501624146EFE0EDB501720CB
:10263000156E14C0E6FF15C0E6FFC8EC0CF0186E6E
:10264000060EE15E1850000901E1A8D00701010E55
:10265000D76FD9CFE6FFDACFE6FFD80EE66E070ECA
:10266000E66EDFCF16F0176A16BE1768FD0EDB5058
:102670001624146EFE0EDB501720156E14C0E6FFF4
:1026800015C0E6FFE0EC0DF0186E060EE15E185086
:10269000000903E1000EF0EF26F0010EDFCFDBFFB3
:1026A000240EE66EDF0EE66ED950020FE66E000EC7
:1026B000DA20E66E1CEC00F0E552E552E552E552F8
:1026C000D9CFE6FFDACFE6FFD950020FE66E000E53
:1026D000DA20E66EDFCF16F0176A16BE1768FD0E19
:1026E000DB501624146EFE0EDB501720156E14C03E
:1026F000E6FF15C0E6FFC8EC0CF0186E060EE15EB2
:102700001850000909E007010B0ED96F1EEC0AF002
:10271000010EF0EF26F042D0010EDB50DF6E200EEE
:10272000E66EDF0EE66ED950020FE66E000EDA207E
:10273000E66E1CEC00F0E552E552E552E552D9CFC9
:10274000E6FFDACFE6FFD950020FE66E000EDA2080
:10275000E66EDFCF16F0176A16BE1768FD0EDB5067
:102760001624146EFE0EDB501720156E14C0E6FF03
:1027700015C0E6FFC8EC0CF0186E060EE15E1850AE
:10278000000909E007010E0ED96F1EEC0AF0010ED8
:10279000F0EF26F003D0000EF0EF26F0010EDB5034
:1027A000DF6E1C0EE66EDF0EE66ED950020FE66E8F
:1027B000000EDA20E66E1CEC00F0E552E552E55220
:1027C000E552D9CFE6FFDACFE6FFD950020FE66E29
:1027D000000EDA20E66EDFCF16F0176A16BE176815
:1027E000FD0EDB501624146EFE0EDB501720156E06
:1027F00014C0E6FF15C0E6FFC8EC0CF0186E060E1C
:10280000E15E1850000902E100EF1EF00701010E21
:10281000DD6F040EE66E080EE66ED9CFE6FFDACF66
:10282000E6FFFD0EDBCFE6FFFE0EDBCFE6FFE6ECBC
:102830000EF0146E060EE15E1450000903E1000E66
:10284000F0EF26F0010EDFCFDBFF160EE66EDF0E97
:10285000E66ED950020FE66E000EDA20E66E1CEC32
:1028600000F0E552E552E552E552D9CFE6FFDACF66
:10287000E6FFD950020FE66E000EDA20E66EDFCFDB
:1028800016F0176A16BE1768FD0EDB501624146E7C
:10289000FE0EDB501720156E14C0E6FF15C0E6FFD4
:1028A000C8EC0CF0186E060EE15E1850000904E04A
:1028B0000801280E036F3DD0010EDB50DF6E0F0EB6
:1028C000E66EDF0EE66ED950020FE66E000EDA20DD
:1028D000E66E1CEC00F0E552E552E552E552D9CF28
:1028E000E6FFDACFE6FFD950020FE66E000EDA20DF
:1028F000E66EDFCF16F0176A16BE1768FD0EDB50C6
:102900001624146EFE0EDB501720156E14C0E6FF61
:1029100015C0E6FFC8EC0CF0186E060EE15E18500C
:10292000000904E00801290E036F03D0000EF0EF48
:1029300026F00801280E026F090EE66EDF0EE66E25
:10294000D950020FE66E000EDA20E66E1CEC00F0A5
:10295000E552E552E552E552D9CFE6FFDACFE6FF80
:10296000D950020FE66E000EDA20E66EDFCF16F0C9
:10297000176A16BE1768FD0EDB501624146EFE0E85
:10298000DB501720156E14C0E6FF15C0E6FFC8EC3B
:102990000CF0186E060EE15E1850000902E1FDEF22
:1029A0001DF0D9CFE6FFDACFE6FFD9500C0FE66E67
:1029B000000EDA20E66EDFCF16F0176A16BE176833
:1029C000FD0EDB501624146EFE0EDB501720156E24
:1029D00014C0E6FF15C0E6FFE0EC0DF0186E060E21
:1029E000E15E1850000903E1000EF0EF26F0010E41
:1029F000DFCFDBFF270EE66EDF0EE66ED950020F4B
:102A0000E66E000EDA20E66E1CEC00F0E552E552B0
:102A1000E552E552D9CFE6FFDACFE6FFD950020FF3
:102A2000E66E000EDA20E66EDFCF16F0176A16BEED
:102A30001768FD0EDB501624146EFE0EDB501720B7
:102A4000156E14C0E6FF15C0E6FFC8EC0CF0186E5A
:102A5000060EE15E185000094FE00701010EDE6F1F
:102A60000C0EDBCFDFF7D9CFE6FFDACFE6FFE00EC3
:102A7000E66E070EE66EDFCF16F0176A16BE176811
:102A8000FD0EDB501624146EFE0EDB501720156E63
:102A900014C0E6FF15C0E6FFE0EC0DF0186E060E60
:102AA000E15E1850000903E1000EF0EF26F0D9CFE7
:102AB000E6FFDACFE6FFE10EE66E070EE66EDFCF49
:102AC00016F0176A16BE1768FD0EDB501624146E3A
:102AD000FE0EDB501720156E14C0E6FF15C0E6FF92
:102AE000E0EC0DF0186E060EE15E1850000903E1EF
:102AF000000EF0EF26F07BD1010EDB50DF6E030EEF
:102B0000E66EDF0EE66ED950020FE66E000EDA209A
:102B1000E66E1CEC00F0E552E552E552E552D9CFE5
:102B2000E6FFDACFE6FFD950020FE66E000EDA209C
:102B3000E66EDFCF16F0176A16BE1768FD0EDB5083
:102B40001624146EFE0EDB501720156E14C0E6FF1F
:102B500015C0E6FFC8EC0CF0186E060EE15E1850CA
:102B600000092BE00701010EE26F0C0EDBCFE3F74B
:102B7000D9CFE6FFDACFE6FFE40EE66E070EE66E8B
:102B8000DFCF16F0176A16BE1768FD0EDB5016244D
:102B9000146EFE0EDB501720156E14C0E6FF15C034
:102BA000E6FFE0EC0DF0186E060EE15E185000092D
:102BB00003E1000EF0EF26F01AD1010EDB50DF6EBC
:102BC000FD0EE66EDE0EE66ED950020FE66E000ECA
:102BD000DA20E66E1CEC00F0E552E552E552E552D3
:102BE000D9CFE6FFDACFE6FFD950020FE66E000E2E
:102BF000DA20E66EDFCF16F0176A16BE1768FD0EF4
:102C0000DB501624146EFE0EDB501720156E14C018
:102C1000E6FF15C0E6FFC8EC0CF0186E060EE15E8C
:102C20001850000901E1E0D00701010EE56F0C0E1C
:102C3000DBCFE6F7D9CFE6FFDACFE6FFE70EE66EA9
:102C4000070EE66EDFCF18F0196A18BE1968FD0E80
:102C5000DB501824166EFE0EDB501920176E16C0BE
:102C6000E6FF17C0E6FFE0EC0DF01A6E060EE15E1F
:102C70001A50000902E0000E01D0010E146E156A10
:102C80001450151003E0000EF0EF26F0F90EE66E7A
:102C9000DE0EE66ED950020FE66E000EDA20E66E0A
:102CA0001CEC00F0E552E552E552E552D9CFE6FFC3
:102CB000DACFE6FFD950020FE66E000EDA20E66E9C
:102CC000DFCF16F0176A16BE1768FD0EDB5016240C
:102CD000146EFE0EDB501720156E14C0E6FF15C0F3
:102CE000E6FFC8EC0CF0186E060EE15E1850000905
:102CF00003E1000EF0EF26F0010EDFCFDBFFF10E57
:102D0000E66EDE0EE66ED950020FE66E000EDA2099
:102D1000E66E1CEC00F0E552E552E552E552D9CFE3
:102D2000E6FFDACFE6FFD950020FE66E000EDA209A
:102D3000E66EDFCF16F0176A16BE1768FD0EDB5081
:102D40001624146EFE0EDB501720156E14C0E6FF1D
:102D500015C0E6FFC8EC0CF0186E060EE15E1850C8
:102D6000000904E007010F0EE86F3DD0010EDB50B3
:102D7000DF6EE80EE66EDE0EE66ED950020FE66EEE
:102D8000000EDA20E66E1CEC00F0E552E552E5524A
:102D9000E552D9CFE6FFDACFE6FFD950020FE66E53
:102DA000000EDA20E66EDFCF16F0176A16BE17683F
:102DB000FD0EDB501624146EFE0EDB501720156E30
:102DC00014C0E6FF15C0E6FFC8EC0CF0186E060E46
:102DD000E15E1850000904E00701100EE86F03D00F
:102DE000000EF0EF26F003D0000EF0EF26F0E40E18
:102DF000E66EDE0EE66ED950020FE66E000EDA20A9
:102E0000E66E1CEC00F0E552E552E552E552D9CFF2
:102E1000E6FFDACFE6FFD950020FE66E000EDA20A9
:102E2000E66EDFCF16F0176A16BE1768FD0EDB5090
:102E30001624146EFE0EDB501720156E14C0E6FF2C
:102E400015C0E6FFC8EC0CF0186E060EE15E1850D7
:102E5000000903E1000EF0EF26F0010EDFCFDBFFEB
:102E6000270EE66EDF0EE66ED950020FE66E000EFC
:102E7000DA20E66E1CEC00F0E552E552E552E55230
:102E8000D9CFE6FFDACFE6FFD950020FE66E000E8B
:102E9000DA20E66EDFCF16F0176A16BE1768FD0E51
:102EA000DB501624146EFE0EDB501720156E14C076
:102EB000E6FF15C0E6FFC8EC0CF0186E060EE15EEA
:102EC0001850000950E00701010EE96FD9CFE6FF65
:102ED000DACFE6FFEA0EE66E070EE66EDFCF16F0FB
:102EE000176A16BE1768FD0EDB501624146EFE0E10
:102EF000DB501720156E14C0E6FF15C0E6FFE0ECAE
:102F00000DF0186E060EE15E1850000903E1000E88
:102F1000F0EF26F0D9CFE6FFDACFE6FFEB0EE66E54
:102F2000070EE66EDFCF16F0176A16BE1768FD0EA5
:102F3000DB501624146EFE0EDB501720156E14C0E5
:102F4000E6FF15C0E6FFE0EC0DF0186E060EE15E40
:102F50001850000903E1000EF0EF26F01EEC0AF015
:102F6000010EF0EF26F0010EDB50DF6E030EE66E71
:102F7000DF0EE66ED950020FE66E000EDA20E66E26
:102F80001CEC00F0E552E552E552E552D9CFE6FFE0
:102F9000DACFE6FFD950020FE66E000EDA20E66EB9
:102FA000DFCF16F0176A16BE1768FD0EDB50162429
:102FB000146EFE0EDB501720156E14C0E6FF15C010
:102FC000E6FFC8EC0CF0186E060EE15E1850000922
:102FD00050E00701010EEC6FD9CFE6FFDACFE6FF34
:102FE000ED0EE66E070EE66EDFCF16F0176A16BE20
:102FF0001768FD0EDB501624146EFE0EDB501720F2
:10300000156E14C0E6FF15C0E6FFE0EC0DF0186E7B
:10301000060EE15E1850000903E1000EF0EF26F005
:10302000D9CFE6FFDACFE6FFEE0EE66E070EE66ECC
:10303000DFCF16F0176A16BE1768FD0EDB50162498
:10304000146EFE0EDB501720156E14C0E6FF15C07F
:10305000E6FFE0EC0DF0186E060EE15E1850000978
:1030600003E1000EF0EF26F01EEC0AF0010EF0EF87
:1030700026F0010EDB50DF6EE00EE66EDE0EE66E31
:10308000D950020FE66E000EDA20E66E1CEC00F05E
:10309000E552E552E552E552D9CFE6FFDACFE6FF39
:1030A000D950020FE66E000EDA20E66EDFCF16F082
:1030B000176A16BE1768FD0EDB501624146EFE0E3E
:1030C000DB501720156E14C0E6FF15C0E6FFC8ECF4
:1030D0000CF0186E060EE15E1850000950E0070172
:1030E000010EEF6FD9CFE6FFDACFE6FFF00EE66E06
:1030F000070EE66EDFCF16F0176A16BE1768FD0ED4
:10310000DB501624146EFE0EDB501720156E14C013
:10311000E6FF15C0E6FFE0EC0DF0186E060EE15E6E
:103120001850000903E1000EF0EF26F0D9CFE6FFBA
:10313000DACFE6FFF10EE66E070EE66EDFCF16F091
:10314000176A16BE1768FD0EDB501624146EFE0EAD
:10315000DB501720156E14C0E6FF15C0E6FFE0EC4B
:103160000DF0186E060EE15E1850000903E1000E26
:10317000F0EF26F01EEC0AF0010EF0EF26F0010E43
:10318000DB50DF6E160EE66EDF0EE66ED950020FD4
:10319000E66E000EDA20E66E1CEC00F0E552E55219
:1031A000E552E552D9CFE6FFDACFE6FFD950020F5C
:1031B000E66E000EDA20E66EDFCF16F0176A16BE56
:1031C0001768FD0EDB501624146EFE0EDB50172020
:1031D000156E14C0E6FF15C0E6FFC8EC0CF0186EC3
:1031E000060EE15E1850000924E00701010EF26F9F
:1031F000F30EE66E070EE66ED9CFE6FFDACFE6FFF6
:10320000FD0EDBCFE6FFFE0EDBCFE6FFE6EC0EF0B9
:10321000146E060EE15E1450000903E1000EF0EF9B
:1032200026F00701280EF76F1EEC0AF0010EF0EFF2
:1032300026F0010EDB50DF6E0F0EE66EDF0EE66E3F
:10324000D950020FE66E000EDA20E66E1CEC00F09C
:10325000E552E552E552E552D9CFE6FFDACFE6FF77
:10326000D950020FE66E000EDA20E66EDFCF16F0C0
:10327000176A16BE1768FD0EDB501624146EFE0E7C
:10328000DB501720156E14C0E6FF15C0E6FFC8EC32
:103290000CF0186E060EE15E1850000924E00701DC
:1032A000010EF26FF30EE66E070EE66ED9CFE6FF63
:1032B000DACFE6FFFD0EDBCFE6FFFE0EDBCFE6FF4B
:1032C000E6EC0EF0146E060EE15E1450000903E108
:1032D000000EF0EF26F00701290EF76F1EEC0AF042
:1032E000010EF0EF26F0010EDB50DF6EFD0EE66EF4
:1032F000DE0EE66ED950020FE66E000EDA20E66EA4
:103300001CEC00F0E552E552E552E552D9CFE6FF5C
:10331000DACFE6FFD950020FE66E000EDA20E66E35
:10332000DFCF16F0176A16BE1768FD0EDB501624A5
:10333000146EFE0EDB501720156E14C0E6FF15C08C
:10334000E6FFC8EC0CF0186E060EE15E185000099E
:1033500001E143D20701010EF86FD9CFE6FFDACFC2
:10336000E6FFF90EE66E070EE66EDFCF16F0176A7F
:1033700016BE1768FD0EDB501624146EFE0EDB50D1
:103380001720156E14C0E6FF15C0E6FFE0EC0DF047
:10339000186E060EE15E1850000903E1000EF0EF12
:1033A00026F0DA0EE66EDE0EE66ED950020FE66EFD
:1033B000000EDA20E66E1CEC00F0E552E552E55214
:1033C000E552D9CFE6FFDACFE6FFD950020FE66E1D
:1033D000000EDA20E66EDFCF16F0176A16BE176809
:1033E000FD0EDB501624146EFE0EDB501720156EFA
:1033F00014C0E6FF15C0E6FFC8EC0CF0186E060E10
:10340000E15E1850000903E1000EF0EF26F0010E16
:10341000DFCFDBFFD40EE66EDE0EE66ED950020F74
:10342000E66E000EDA20E66E1CEC00F0E552E55286
:10343000E552E552D9CFE6FFDACFE6FFD950020FC9
:10344000E66E000EDA20E66EDFCF16F0176A16BEC3
:103450001768FD0EDB501624146EFE0EDB5017208D
:10346000156E14C0E6FF15C0E6FFC8EC0CF0186E30
:10347000060EE15E1850000903E00701FA6961D009
:10348000010EDB50DF6ECE0EE66EDE0EE66ED9501C
:10349000020FE66E000EDA20E66E1CEC00F0E5523C
:1034A000E552E552E552D9CFE6FFDACFE6FFD95033
:1034B000020FE66E000EDA20E66EDFCF16F0176A16
:1034C00016BE1768FD0EDB501624146EFE0EDB5080
:1034D0001720156E14C0E6FF15C0E6FFC8EC0CF00F
:1034E000186E060EE15E1850000904E00701EE0EAA
:1034F000FA6F27D0010EDB50DF6ED9CFE6FFDACFAF
:10350000E6FFFA0EE66E070EE66EDFCF16F0176ADC
:1035100016BE1768FD0EDB501624146EFE0EDB502F
:103520001720156E14C0E6FF15C0E6FFE0EC0DF0A5
:10353000186E060EE15E1850000903E1000EF0EF70
:1035400026F0010EDFCFDBFFC90EE66EDE0EE66E63
:10355000D950020FE66E000EDA20E66E1CEC00F089
:10356000E552E552E552E552D9CFE6FFDACFE6FF64
:10357000D950020FE66E000EDA20E66EDFCF16F0AD
:10358000176A16BE1768FD0EDB501624146EFE0E69
:10359000DB501720156E14C0E6FF15C0E6FFC8EC1F
:1035A0000CF0186E060EE15E1850000904E00701E9
:1035B000130EFB6F3DD0010EDB50DF6EC40EE66EC6
:1035C000DE0EE66ED950020FE66E000EDA20E66ED1
:1035D0001CEC00F0E552E552E552E552D9CFE6FF8A
:1035E000DACFE6FFD950020FE66E000EDA20E66E63
:1035F000DFCF16F0176A16BE1768FD0EDB501624D3
:10360000146EFE0EDB501720156E14C0E6FF15C0B9
:10361000E6FFC8EC0CF0186E060EE15E18500009CB
:1036200004E00701140EFB6F03D0000EF0EF26F04C
:10363000BC0EE66EDE0EE66ED950020FE66E000E90
:10364000DA20E66E1CEC00F0E552E552E552E55258
:10365000D9CFE6FFDACFE6FFD950020FE66E000EB3
:10366000DA20E66EDFCF16F0176A16BE1768FD0E79
:10367000DB501624146EFE0EDB501720156E14C09E
:10368000E6FF15C0E6FFC8EC0CF0186E060EE15E12
:103690001850000903E1000EF0EF26F0010EDFCF15
:1036A000DBFFD40EE66EDE0EE66ED950020FE66E3C
:1036B000000EDA20E66E1CEC00F0E552E552E55211
:1036C000E552D9CFE6FFDACFE6FFD950020FE66E1A
:1036D000000EDA20E66EDFCF16F0176A16BE176806
:1036E000FD0EDB501624146EFE0EDB501720156EF7
:1036F00014C0E6FF15C0E6FFC8EC0CF0186E060E0D
:10370000E15E1850000903E00701FC6961D0010E79
:10371000DB50DF6ECE0EE66EDE0EE66ED950020F87
:10372000E66E000EDA20E66E1CEC00F0E552E55283
:10373000E552E552D9CFE6FFDACFE6FFD950020FC6
:10374000E66E000EDA20E66EDFCF16F0176A16BEC0
:103750001768FD0EDB501624146EFE0EDB5017208A
:10376000156E14C0E6FF15C0E6FFC8EC0CF0186E2D
:10377000060EE15E1850000904E00701EE0EFC6F32
:1037800027D0010EDB50DF6ED9CFE6FFDACFE6FFA0
:10379000FC0EE66E070EE66EDFCF16F0176A16BE59
:1037A0001768FD0EDB501624146EFE0EDB5017203A
:1037B000156E14C0E6FF15C0E6FFE0EC0DF0186EC4
:1037C000060EE15E1850000903E1000EF0EF26F04E
:1037D0001EEC0AF0010EF0EF26F0010EDB50DF6E5A
:1037E000B40EE66EDE0EE66ED950020FE66E000EE7
:1037F000DA20E66E1CEC00F0E552E552E552E552A7
:10380000D9CFE6FFDACFE6FFD950020FE66E000E01
:10381000DA20E66EDFCF16F0176A16BE1768FD0EC7
:10382000DB501624146EFE0EDB501720156E14C0EC
:10383000E6FF15C0E6FFC8EC0CF0186E060EE15E60
:10384000185000090BE00701010EFD6F07012E0E55
:10385000FE6F1EEC0AF0010EF0EF26F0010EDB50B9
:10386000DF6EAC0EE66EDE0EE66ED950020FE66E2F
:10387000000EDA20E66E1CEC00F0E552E552E5524F
:10388000E552D9CFE6FFDACFE6FFD950020FE66E58
:10389000000EDA20E66EDFCF16F0176A16BE176844
:1038A000FD0EDB501624146EFE0EDB501720156E35
:1038B00014C0E6FF15C0E6FFC8EC0CF0186E060E4B
:1038C000E15E185000090BE00701010EFD6F0701D2
:1038D0002F0EFE6F1EEC0AF0010EF0EF26F0010E27
:1038E000DB50DF6EA40EE66EDE0EE66ED950020FE0
:1038F000E66E000EDA20E66E1CEC00F0E552E552B2
:10390000E552E552D9CFE6FFDACFE6FFD950020FF4
:10391000E66E000EDA20E66EDFCF16F0176A16BEEE
:103920001768FD0EDB501624146EFE0EDB501720B8
:10393000156E14C0E6FF15C0E6FFC8EC0CF0186E5B
:10394000060EE15E185000090BE00701010EFD6F45
:103950000701300EFE6F1EEC0AF0010EF0EF26F0AC
:10396000010EDB50DF6E9C0EE66EDE0EE66ED95069
:10397000020FE66E000EDA20E66E1CEC00F0E55257
:10398000E552E552E552D9CFE6FFDACFE6FFD9504E
:10399000020FE66E000EDA20E66EDFCF16F0176A31
:1039A00016BE1768FD0EDB501624146EFE0EDB509B
:1039B0001720156E14C0E6FF15C0E6FFC8EC0CF02A
:1039C000186E060EE15E185000090BE00701010EAB
:1039D000FD6F0701310EFE6F1EEC0AF0010EF0EFD5
:1039E00026F0010EDB50DF6E950EE66EDE0EE66E03
:1039F000D950020FE66E000EDA20E66E1CEC00F0E5
:103A0000E552E552E552E552D9CFE6FFDACFE6FFBF
:103A1000D950020FE66E000EDA20E66EDFCF16F008
:103A2000176A16BE1768FD0EDB501624146EFE0EC4
:103A3000DB501720156E14C0E6FF15C0E6FFC8EC7A
:103A40000CF0186E060EE15E185000090BE007013D
:103A5000010EFD6F07012B0EFE6F1EEC0AF0010E2A
:103A6000F0EF26F0010EDB50DF6E8B0EE66EDE0E01
:103A7000E66ED950020FE66E000EDA20E66E1CEC00
:103A800000F0E552E552E552E552D9CFE6FFDACF34
:103A9000E6FFD950020FE66E000EDA20E66EDFCFA9
:103AA00016F0176A16BE1768FD0EDB501624146E4A
:103AB000FE0EDB501720156E14C0E6FF15C0E6FFA2
:103AC000C8EC0CF0186E060EE15E185000090BE011
:103AD0000701010EFD6F07012C0EFE6F1EEC0AF0B0
:103AE000010EF0EF26F0010EDB50DF6E300EE66EB9
:103AF000DF0EE66ED950020FE66E000EDA20E66E9B
:103B00001CEC00F0E552E552E552E552D9CFE6FF54
:103B1000DACFE6FFD950020FE66E000EDA20E66E2D
:103B2000DFCF16F0176A16BE1768FD0EDB5016249D
:103B3000146EFE0EDB501720156E14C0E6FF15C084
:103B4000E6FFC8EC0CF0186E060EE15E1850000996
:103B500050E00701010EFF6FD9CFE6FFDACFE6FF95
:103B6000000EE66E080EE66EDFCF16F0176A16BE80
:103B70001768FD0EDB501624146EFE0EDB50172066
:103B8000156E14C0E6FF15C0E6FFE0EC0DF0186EF0
:103B9000060EE15E1850000903E1000EF0EF26F07A
:103BA000D9CFE6FFDACFE6FF010EE66E080EE66E2D
:103BB000DFCF16F0176A16BE1768FD0EDB5016240D
:103BC000146EFE0EDB501720156E14C0E6FF15C0F4
:103BD000E6FFE0EC0DF0186E060EE15E18500009ED
:103BE00003E1000EF0EF26F01EEC0AF0010EF0EFFC
:103BF00026F0000EF0EF26F003D0000EF0EF26F0D6
:103C0000010EDB50DF6E870EE66EDE0EE66ED950DB
:103C1000020FE66E000EDA20E66E1CEC00F0E552B4
:103C2000E552E552E552D9CFE6FFDACFE6FFD950AB
:103C3000020FE66E000EDA20E66EDFCF16F0176A8E
:103C400016BE1768FD0EDB501624146EFE0EDB50F8
:103C50001720156E14C0E6FF15C0E6FFC8EC0CF087
:103C6000186E060EE15E185000092CE00801010EE6
:103C7000076FD9CFE6FFDACFE6FF080EE66E080E33
:103C8000E66EDFCF16F0176A16BE1768FD0EDB5022
:103C90001624146EFE0EDB501720156E14C0E6FFBE
:103CA00015C0E6FFE0EC0DF0186E060EE15E185050
:103CB000000903E1000EF0EF26F01EEC0AF0010E01
:103CC000F0EF26F0DF6A830EE66EDE0EE66ED95068
:103CD000020FE66E000EDA20E66E1CEC00F0E552F4
:103CE000E552E552E552D9CFE6FFDACFE6FFD950EB
:103CF000020FE66E000EDA20E66EDFCF16F0176ACE
:103D000016BE1768FD0EDB501624146EFE0EDB5037
:103D10001720156E14C0E6FF15C0E6FFC8EC0CF0C6
:103D2000186E060EE15E1850000902E1EEEF26F073
:103D30000701020EB26FD9CFE6FFDACFE6FFB30E6E
:103D4000E66E070EE66EDFCF16F0176A16BE17682E
:103D5000FD0EDB501624146EFE0EDB501720156E80
:103D600014C0E6FF15C0E6FFE0EC0DF0186E060E7D
:103D7000E15E1850000903E1000EF0EF26F0010E9D
:103D8000DFCFDBFF270EE66EDF0EE66ED950020FA7
:103D9000E66E000EDA20E66E1CEC00F0E552E5520D
:103DA000E552E552D9CFE6FFDACFE6FFD950020F50
:103DB000E66E000EDA20E66EDFCF16F0176A16BE4A
:103DC0001768FD0EDB501624146EFE0EDB50172014
:103DD000156E14C0E6FF15C0E6FFC8EC0CF0186EB7
:103DE000060EE15E1850000950E00701010EB56FA4
:103DF000D9CFE6FFDACFE6FFB60EE66E070EE66E27
:103E0000DFCF16F0176A16BE1768FD0EDB501624BA
:103E1000146EFE0EDB501720156E14C0E6FF15C0A1
:103E2000E6FFE0EC0DF0186E060EE15E185000099A
:103E300003E1000EF0EF26F0D9CFE6FFDACFE6FF80
:103E4000B70EE66E070EE66EDFCF16F0176A16BEE7
:103E50001768FD0EDB501624146EFE0EDB50172083
:103E6000156E14C0E6FF15C0E6FFE0EC0DF0186E0D
:103E7000060EE15E1850000903E1000EF0EF26F097
:103E80001EEC0AF0010EF0EF26F0010EDB50DF6EA3
:103E9000030EE66EDF0EE66ED950020FE66E000EE0
:103EA000DA20E66E1CEC00F0E552E552E552E552F0
:103EB000D9CFE6FFDACFE6FFD950020FE66E000E4B
:103EC000DA20E66EDFCF16F0176A16BE1768FD0E11
:103ED000DB501624146EFE0EDB501720156E14C036
:103EE000E6FF15C0E6FFC8EC0CF0186E060EE15EAA
:103EF0001850000950E00701010EB86FD9CFE6FF56
:103F0000DACFE6FFB90EE66E070EE66EDFCF16F0EB
:103F1000176A16BE1768FD0EDB501624146EFE0ECF
:103F2000DB501720156E14C0E6FF15C0E6FFE0EC6D
:103F30000DF0186E060EE15E1850000903E1000E48
:103F4000F0EF26F0D9CFE6FFDACFE6FFBA0EE66E45
:103F5000070EE66EDFCF16F0176A16BE1768FD0E65
:103F6000DB501624146EFE0EDB501720156E14C0A5
:103F7000E6FF15C0E6FFE0EC0DF0186E060EE15E00
:103F80001850000903E1000EF0EF26F01EEC0AF0D5
:103F9000010EF0EF26F0010EDB50DF6EE00EE66E54
:103FA000DE0EE66ED950020FE66E000EDA20E66EE7
:103FB0001CEC00F0E552E552E552E552D9CFE6FFA0
:103FC000DACFE6FFD950020FE66E000EDA20E66E79
:103FD000DFCF16F0176A16BE1768FD0EDB501624E9
:103FE000146EFE0EDB501720156E14C0E6FF15C0D0
:103FF000E6FFC8EC0CF0186E060EE15E18500009E2
:1040000050E00701010EBB6FD9CFE6FFDACFE6FF24
:10401000BC0EE66E070EE66EDFCF16F0176A16BE10
:104020001768FD0EDB501624146EFE0EDB501720B1
:10403000156E14C0E6FF15C0E6FFE0EC0DF0186E3B
:10404000060EE15E1850000903E1000EF0EF26F0C5
:10405000D9CFE6FFDACFE6FFBD0EE66E070EE66EBD
:10406000DFCF16F0176A16BE1768FD0EDB50162458
:10407000146EFE0EDB501720156E14C0E6FF15C03F
:10408000E6FFE0EC0DF0186E060EE15E1850000938
:1040900003E1000EF0EF26F01EEC0AF0010EF0EF47
:1040A00026F0010EDB50DF6E160EE66EDF0EE66EBA
:1040B000D950020FE66E000EDA20E66E1CEC00F01E
:1040C000E552E552E552E552D9CFE6FFDACFE6FFF9
:1040D000D950020FE66E000EDA20E66EDFCF16F042
:1040E000176A16BE1768FD0EDB501624146EFE0EFE
:1040F000DB501720156E14C0E6FF15C0E6FFC8ECB4
:104100000CF0186E060EE15E1850000924E007015D
:10411000010EBE6FBF0EE66E070EE66ED9CFE6FF4C
:10412000DACFE6FFFD0EDBCFE6FFFE0EDBCFE6FFCC
:10413000E6EC0EF0146E060EE15E1450000903E189
:10414000000EF0EF26F00701280EC36F1EEC0AF0F8
:10415000010EF0EF26F0010EDB50DF6E0F0EE66E63
:10416000DF0EE66ED950020FE66E000EDA20E66E24
:104170001CEC00F0E552E552E552E552D9CFE6FFDE
:10418000DACFE6FFD950020FE66E000EDA20E66EB7
:10419000DFCF16F0176A16BE1768FD0EDB50162427
:1041A000146EFE0EDB501720156E14C0E6FF15C00E
:1041B000E6FFC8EC0CF0186E060EE15E1850000920
:1041C00024E00701010EBE6FBF0EE66E070EE66E1D
:1041D000D9CFE6FFDACFE6FFFD0EDBCFE6FFFE0E1E
:1041E000DBCFE6FFE6EC0EF0146E060EE15E145037
:1041F000000903E1000EF0EF26F00701290EC36F5E
:104200001EEC0AF0010EF0EF26F0010EDB50DF6E1F
:10421000FD0EE66EDE0EE66ED950020FE66E000E63
:10422000DA20E66E1CEC00F0E552E552E552E5526C
:10423000D9CFE6FFDACFE6FFD950020FE66E000EC7
:10424000DA20E66EDFCF16F0176A16BE1768FD0E8D
:10425000DB501624146EFE0EDB501720156E14C0B2
:10426000E6FF15C0E6FFC8EC0CF0186E060EE15E26
:104270001850000901E141D20701010EC46FD9CFE6
:10428000E6FFDACFE6FFC50EE66E070EE66EDFCF7D
:1042900016F0176A16BE1768FD0EDB501624146E52
:1042A000FE0EDB501720156E14C0E6FF15C0E6FFAA
:1042B000E0EC0DF0186E060EE15E1850000903E107
:1042C000000EF0EF26F0DA0EE66EDE0EE66ED95046
:1042D000020FE66E000EDA20E66E1CEC00F0E552EE
:1042E000E552E552E552D9CFE6FFDACFE6FFD950E5
:1042F000020FE66E000EDA20E66EDFCF16F0176AC8
:1043000016BE1768FD0EDB501624146EFE0EDB5031
:104310001720156E14C0E6FF15C0E6FFC8EC0CF0C0
:10432000186E060EE15E1850000903E1000EF0EF72
:1043300026F0010EDFCFDBFFD40EE66EDE0EE66E5A
:10434000D950020FE66E000EDA20E66E1CEC00F08B
:10435000E552E552E552E552D9CFE6FFDACFE6FF66
:10436000D950020FE66E000EDA20E66EDFCF16F0AF
:10437000176A16BE1768FD0EDB501624146EFE0E6B
:10438000DB501720156E14C0E6FF15C0E6FFC8EC21
:104390000CF0186E060EE15E1850000903E00701EC
:1043A000C66961D0010EDB50DF6ECE0EE66EDE0E0A
:1043B000E66ED950020FE66E000EDA20E66E1CECB7
:1043C00000F0E552E552E552E552D9CFE6FFDACFEB
:1043D000E6FFD950020FE66E000EDA20E66EDFCF60
:1043E00016F0176A16BE1768FD0EDB501624146E01
:1043F000FE0EDB501720156E14C0E6FF15C0E6FF59
:10440000C8EC0CF0186E060EE15E1850000904E0CE
:104410000701EE0EC66F27D0010EDB50DF6ED9CF3D
:10442000E6FFDACFE6FFC60EE66E070EE66EDFCFDA
:1044300016F0176A16BE1768FD0EDB501624146EB0
:10444000FE0EDB501720156E14C0E6FF15C0E6FF08
:10445000E0EC0DF0186E060EE15E1850000903E165
:10446000000EF0EF26F0010EDFCFDBFFC90EE66E87
:10447000DE0EE66ED950020FE66E000EDA20E66E12
:104480001CEC00F0E552E552E552E552D9CFE6FFCB
:10449000DACFE6FFD950020FE66E000EDA20E66EA4
:1044A000DFCF16F0176A16BE1768FD0EDB50162414
:1044B000146EFE0EDB501720156E14C0E6FF15C0FB
:1044C000E6FFC8EC0CF0186E060EE15E185000090D
:1044D00004E00701130EC76F3DD0010EDB50DF6E05
:1044E000C40EE66EDE0EE66ED950020FE66E000ECA
:1044F000DA20E66E1CEC00F0E552E552E552E5529A
:10450000D9CFE6FFDACFE6FFD950020FE66E000EF4
:10451000DA20E66EDFCF16F0176A16BE1768FD0EBA
:10452000DB501624146EFE0EDB501720156E14C0DF
:10453000E6FF15C0E6FFC8EC0CF0186E060EE15E53
:104540001850000904E00701140EC76F03D0000ED5
:10455000F0EF26F0BC0EE66EDE0EE66ED950020FCE
:10456000E66E000EDA20E66E1CEC00F0E552E55235
:10457000E552E552D9CFE6FFDACFE6FFD950020F78
:10458000E66E000EDA20E66EDFCF16F0176A16BE72
:104590001768FD0EDB501624146EFE0EDB5017203C
:1045A000156E14C0E6FF15C0E6FFC8EC0CF0186EDF
:1045B000060EE15E1850000903E1000EF0EF26F050
:1045C000010EDFCFDBFFD40EE66EDE0EE66ED950B5
:1045D000020FE66E000EDA20E66E1CEC00F0E552EB
:1045E000E552E552E552D9CFE6FFDACFE6FFD950E2
:1045F000020FE66E000EDA20E66EDFCF16F0176AC5
:1046000016BE1768FD0EDB501624146EFE0EDB502E
:104610001720156E14C0E6FF15C0E6FFC8EC0CF0BD
:10462000186E060EE15E1850000903E00701C86924
:1046300060D0010EDB50DF6ECE0EE66EDE0EE66E53
:10464000D950020FE66E000EDA20E66E1CEC00F088
:10465000E552E552E552E552D9CFE6FFDACFE6FF63
:10466000D950020FE66E000EDA20E66EDFCF16F0AC
:10467000176A16BE1768FD0EDB501624146EFE0E68
:10468000DB501720156E14C0E6FF15C0E6FFC8EC1E
:104690000CF0186E060EE15E1850000904E00701E8
:1046A000EE0EC86F26D0010EDB50DF6ED9CFE6FFCD
:1046B000DACFE6FFC80EE66E070EE66EDFCF16F025
:1046C000176A16BE1768FD0EDB501624146EFE0E18
:1046D000DB501720156E14C0E6FF15C0E6FFE0ECB6
:1046E0000DF0186E060EE15E1850000902E1000E92
:1046F00077D31EEC0AF0010E73D3010EDB50DF6E90
:10470000B40EE66EDE0EE66ED950020FE66E000EB7
:10471000DA20E66E1CEC00F0E552E552E552E55277
:10472000D9CFE6FFDACFE6FFD950020FE66E000ED2
:10473000DA20E66EDFCF16F0176A16BE1768FD0E98
:10474000DB501624146EFE0EDB501720156E14C0BD
:10475000E6FF15C0E6FFC8EC0CF0186E060EE15E31
:10476000185000090AE00701010EC96F07012E0E5B
:10477000CA6F1EEC0AF0010E33D3010EDB50DF6E60
:10478000AC0EE66EDE0EE66ED950020FE66E000E3F
:10479000DA20E66E1CEC00F0E552E552E552E552F7
:1047A000D9CFE6FFDACFE6FFD950020FE66E000E52
:1047B000DA20E66EDFCF16F0176A16BE1768FD0E18
:1047C000DB501624146EFE0EDB501720156E14C03D
:1047D000E6FF15C0E6FFC8EC0CF0186E060EE15EB1
:1047E000185000090AE00701010EC96F07012F0EDA
:1047F000CA6F1EEC0AF0010EF3D2010EDB50DF6E21
:10480000A40EE66EDE0EE66ED950020FE66E000EC6
:10481000DA20E66E1CEC00F0E552E552E552E55276
:10482000D9CFE6FFDACFE6FFD950020FE66E000ED1
:10483000DA20E66EDFCF16F0176A16BE1768FD0E97
:10484000DB501624146EFE0EDB501720156E14C0BC
:10485000E6FF15C0E6FFC8EC0CF0186E060EE15E30
:10486000185000090AE00701010EC96F0701300E58
:10487000CA6F1EEC0AF0010EB3D2010EDB50DF6EE0
:104880009C0EE66EDE0EE66ED950020FE66E000E4E
:10489000DA20E66E1CEC00F0E552E552E552E552F6
:1048A000D9CFE6FFDACFE6FFD950020FE66E000E51
:1048B000DA20E66EDFCF16F0176A16BE1768FD0E17
:1048C000DB501624146EFE0EDB501720156E14C03C
:1048D000E6FF15C0E6FFC8EC0CF0186E060EE15EB0
:1048E000185000090AE00701010EC96F0701310ED7
:1048F000CA6F1EEC0AF0010E73D2010EDB50DF6EA0
:10490000950EE66EDE0EE66ED950020FE66E000ED4
:10491000DA20E66E1CEC00F0E552E552E552E55275
:10492000D9CFE6FFDACFE6FFD950020FE66E000ED0
:10493000DA20E66EDFCF16F0176A16BE1768FD0E96
:10494000DB501624146EFE0EDB501720156E14C0BB
:10495000E6FF15C0E6FFC8EC0CF0186E060EE15E2F
:10496000185000090AE00701010EC96F07012B0E5C
:10497000CA6F1EEC0AF0010E33D2010EDB50DF6E5F
:104980008B0EE66EDE0EE66ED950020FE66E000E5E
:10499000DA20E66E1CEC00F0E552E552E552E552F5
:1049A000D9CFE6FFDACFE6FFD950020FE66E000E50
:1049B000DA20E66EDFCF16F0176A16BE1768FD0E16
:1049C000DB501624146EFE0EDB501720156E14C03B
:1049D000E6FF15C0E6FFC8EC0CF0186E060EE15EAF
:1049E000185000090AE00701010EC96F07012C0EDB
:1049F000CA6F1EEC0AF0010EF3D1010EDB50DF6E20
:104A0000300EE66EDF0EE66ED950020FE66E000E37
:104A1000DA20E66E1CEC00F0E552E552E552E55274
:104A2000D9CFE6FFDACFE6FFD950020FE66E000ECF
:104A3000DA20E66EDFCF16F0176A16BE1768FD0E95
:104A4000DB501624146EFE0EDB501720156E14C0BA
:104A5000E6FF15C0E6FFC8EC0CF0186E060EE15E2E
:104A6000185000094DE00701010ECB6FD9CFE6FFCA
:104A7000DACFE6FFCC0EE66E070EE66EDFCF16F05D
:104A8000176A16BE1768FD0EDB501624146EFE0E54
:104A9000DB501720156E14C0E6FF15C0E6FFE0ECF2
:104AA0000DF0186E060EE15E1850000902E1000ECE
:104AB00097D1D9CFE6FFDACFE6FFCD0EE66E070E2F
:104AC000E66EDFCF16F0176A16BE1768FD0EDB50D4
:104AD0001624146EFE0EDB501720156E14C0E6FF70
:104AE00015C0E6FFE0EC0DF0186E060EE15E185002
:104AF000000902E1000E74D11EEC0AF0010E70D123
:104B0000010EDB50DF6E7D0EE66EDE0EE66ED950D6
:104B1000020FE66E000EDA20E66E1CEC00F0E552A5
:104B2000E552E552E552D9CFE6FFDACFE6FFD9509C
:104B3000020FE66E000EDA20E66EDFCF16F0176A7F
:104B400016BE1768FD0EDB501624146EFE0EDB50E9
:104B50001720156E14C0E6FF15C0E6FFC8EC0CF078
:104B6000186E060EE15E1850000907E00701010EFD
:104B7000CE6F1EEC0AF0010E33D1010EDB50DF6E5A
:104B8000770EE66EDE0EE66ED950020FE66E000E70
:104B9000DA20E66E1CEC00F0E552E552E552E552F3
:104BA000D9CFE6FFDACFE6FFD950020FE66E000E4E
:104BB000DA20E66EDFCF16F0176A16BE1768FD0E14
:104BC000DB501624146EFE0EDB501720156E14C039
:104BD000E6FF15C0E6FFC8EC0CF0186E060EE15EAD
:104BE0001850000907E00701010ECF6F1EEC0AF014
:104BF000010EF6D0010EDB50DF6E710EE66EDE0E9A
:104C0000E66ED950020FE66E000EDA20E66E1CEC5E
:104C100000F0E552E552E552E552D9CFE6FFDACF92
:104C2000E6FFD950020FE66E000EDA20E66EDFCF07
:104C300016F0176A16BE1768FD0EDB501624146EA8
:104C4000FE0EDB501720156E14C0E6FF15C0E6FF00
:104C5000C8EC0CF0186E060EE15E1850000907E073
:104C60000701010ED06F1EEC0AF0010EB9D0010E43
:104C7000DB50DF6E6B0EE66EDE0EE66ED950020F75
:104C8000E66E000EDA20E66E1CEC00F0E552E5520E
:104C9000E552E552D9CFE6FFDACFE6FFD950020F51
:104CA000E66E000EDA20E66EDFCF16F0176A16BE4B
:104CB0001768FD0EDB501624146EFE0EDB50172015
:104CC000156E14C0E6FF15C0E6FFC8EC0CF0186EB8
:104CD000060EE15E1850000907E00701010ED16FD2
:104CE0001EEC0AF0010E7CD0010EDB50DF6E630E6D
:104CF000E66EDE0EE66ED950020FE66E000EDA208A
:104D0000E66E1CEC00F0E552E552E552E552D9CFD3
:104D1000E6FFDACFE6FFD950020FE66E000EDA208A
:104D2000E66EDFCF16F0176A16BE1768FD0EDB5071
:104D30001624146EFE0EDB501720156E14C0E6FF0D
:104D400015C0E6FFC8EC0CF0186E060EE15E1850B8
:104D5000000907E00701010ED26F1EEC0AF0010EF8
:104D60003FD0010EDB50DF6E5E0EE66EDE0EE66EAD
:104D7000D950020FE66E000EDA20E66E1CEC00F051
:104D8000E552E552E552E552D9CFE6FFDACFE6FF2C
:104D9000D950020FE66E000EDA20E66EDFCF16F075
:104DA000176A16BE1768FD0EDB501624146EFE0E31
:104DB000DB501720156E14C0E6FF15C0E6FFC8ECE7
:104DC0000CF0186E060EE15E1850000907E00701AE
:104DD000010ED36F1EEC0AF0010E02D0000E00D0BF
:104DE000146E0D0EE15C02E2E16AE552E16E1450D0
:104DF000E552E7CFD9FF1200D9CFE6FFE1CFD9FFC7
:104E0000030EE126010EDB6ADF6ADFCF14F0620ECB
:104E1000E76E1418E8AE02D0E73402D0E750145C15
:104E20000CE2DFCFE9FFEA6AE9BEEA68140EE92680
:104E3000080EEA22EF6ADF2AE8D7DF6ADFCF14F034
:104E40004E0EE76E1418E8AE02D0E73402D0E750F9
:104E5000145C55E2DFCFE9FFEA6AE9BEEA68B20E08
:104E6000E926070EEA22EF5001E149D0020EDB6A83
:104E7000020EDBCF14F0DFCFE9FFEA6AE9BEEA6891
:104E8000B20EE926070EEA22EF50E76E1418E8AEDC
:104E900002D0E73402D0E750145C2EE2010EDBCFE3
:104EA00014F0620EE76E1418E8AE02D0E73402D0B8
:104EB000E750145C03E357D9000E49D0DF28E96EB0
:104EC000EA6AE9BEEA68B20EE926070EEA22EF5066
:104ED000E66E010EDBCFF3FFDB2AF350E96EEA6AE0
:104EE000E9BEEA68140EE926080EEA22E552E75008
:104EF000EF6E020EDB2ABCD7020EDF269FD7DF6AD9
:104F0000DFCF14F0620EE76E1418E8AE02D0E7347B
:104F100002D0E750145C19E2DFCFE9FFEA6AE9BE8C
:104F2000EA68140EE926080EEA22EF50E66EDFCF9B
:104F3000E9FFEA6AE9BEEA68B20EE926070EEA224C
:104F4000E552E750EF6EDF2ADBD7010E00D0146E7A
:104F5000030EE15C02E2E16AE552E16E1450E552B3
:104F6000E7CFD9FF1200D9CFE6FFE1CFD9FF040E7A
:104F7000E126010EDB6ADF6A030EB2C7DBFF020E19
:104F8000DB6A010EDBCF14F0620EE76E1418E8AE98
:104F900002D0E73402D0E750145C01E390D0010E58
:104FA000DBCFE9FFEA6AE9BEEA68B20EE926070E3E
:104FB000EA22EFCF14F0030EDB50145C13E1020E73
:104FC000DB2A010EDB2A010EDBCF14F0620EE76E46
:104FD0001418E8AE02D0E73402D0E750145C01E3C5
:104FE00001D0DDD7DFCF14F04F0EE76E1418E8AE16
:104FF00002D0E73402D0E750145C26E2DFCF15F090
:10500000600EE76E1518E8AE02D0E73402D0E75024
:10501000155C1AE2DF50DF2AE96EEA6AE9BEEA6847
:10502000140EE926080EEA22020EDBCFEFFFDF5056
:10503000DF2AE96EEA6AE9BEEA68140EE926080E7C
:10504000EA22030EDBCFEFFFDFCF14F0500EE76E46
:105050001418E8AE02D0E73402D0E750145C1FE326
:10506000010EDB6A010EDBCF14F0620EE76E14183E
:10507000E8AE02D0E73402D0E750145C0EE2010E35
:10508000DBCFE9FFEA6AE9BEEA68B20EE926070E5D
:10509000EA22EF6A010EDB2AE5D7000E58D0010E96
:1050A000DBCFE9FFEA6AE9BEEA68B20EE926070E3D
:1050B000EA22030EEFCFDBFF020EDB6A62D7010E9E
:1050C000DB6A010EDBCF14F0DF50E76E1418E8AE98
:1050D00002D0E73402D0E750145C1CE2010EDBCFB3
:1050E000E9FFEA6AE9BEEA68140EE926080EEA2238
:1050F000EF50E66E010EDBCFE9FFEA6AE9BEEA682F
:10510000B20EE926070EEA22E552E750EF6E010ED5
:10511000DB2AD7D7010EDBCF14F0620EE76E14182E
:10512000E8AE02D0E73402D0E750145C0EE2010E84
:10513000DBCFE9FFEA6AE9BEEA68B20EE926070EAC
:10514000EA22EF6A010EDB2AE5D7DF5000D0146EA9
:10515000040EE15C02E2E16AE552E16E1450E552B0
:10516000E7CFD9FF1200D9CFE6FFE1CFD9FFE65252
:10517000DF6A620EDF5C09E2DF50EA6AB20FE96EB5
:10518000070EEA22EF6ADF2AF4D7E552E552E7CFAD
:10519000D9FF1200D9CFE6FFE1CFD9FFE652FE0ECC
:1051A000DBCF14F000016F51E76E1418E8AE02D0A7
:1051B000E73402D0E750145C1DE3FE0EDBCF14F0A1
:1051C000156A14BE156814C0E6FF15C0E6FF6C0E24
:1051D000E66EDF0EE66E760EE66E070EE66E1CECF1
:1051E00000F0166E060EE15E16500001150E706F8F
:1051F000000E59D0DF6ADFCF14F00F0EE76E1418DF
:10520000E8AE02D0E73402D0E750145C49E2000176
:10521000010E696F6FC018F0196A18BE19680F0E79
:105220001902F3CF19F00F0E1802F3CF18F0F45053
:105230001926760E1826080E1922DFCF1AF01B6ADF
:105240001ABE1B6818501A24E96E19501B20EA6E0A
:10525000EF50E66EFE0EDBCF14F0156A14BE156833
:105260000F0E1502F3CF15F00F0E1402F3CF14F04A
:10527000F4501526760E1426080E1522DFCF16F0F0
:10528000176A16BE176814501624E96E15501720B9
:10529000EA6EE552E750EF6E0001696BDF2AABD78B
:1052A00090EC07F000D0E552E552E7CFD9FF1200AD
:1052B000D9CFE6FFE1CFD9FF050EE126FE0EDBCF09
:1052C00014F0460EE76E1418E8AE02D0E73402D0B0
:1052D000E750145C17E3FE0EDBCFE6FF6C0EE66EC4
:1052E000DF0EE66E760EE66E070EE66E1CEC00F044
:1052F000146E050EE15E14500001110E706F000E69
:105300009FEF2DF00001010E696F0701DE0564E1DA
:10531000FE0EDBCFE9FFEA6AE9BEEA680F0EEA0299
:10532000F3CFEAFF0F0EE902F3CFE9FFF450EA26CC
:10533000760EE926080EEA22EF6AFE0EDBCFE9FFC1
:10534000EA6AE9BEEA680F0EEA02F3CFEAFF0F0E3F
:10535000E902F3CFE9FFF450EA26760EE926080EBB
:10536000EA22010EE926000EEA22DFC7EFFFFE0E59
:10537000DBCFE9FFEA6AE9BEEA680F0EEA02F3CF83
:10538000EAFF0F0EE902F3CFE9FFF450EA26760EAA
:10539000E926080EEA22020EE926000EEA22E0C7FC
:1053A000EFFFFE0EDBCFE9FFEA6AE9BEEA680F0E07
:1053B000EA02F3CFEAFF0F0EE902F3CFE9FFF45060
:1053C000EA26760EE926080EEA22030EE926000EEA
:1053D000EA22E1C7EFFFB5D00701E2054BE1FE0E7F
:1053E000DBCFE9FFEA6AE9BEEA680F0EEA02F3CF13
:1053F000EAFF0F0EE902F3CFE9FFF450EA26760E3A
:10540000E926080EEA22010EEF6EFE0EDBCFE9FF61
:10541000EA6AE9BEEA680F0EEA02F3CFEAFF0F0E6E
:10542000E902F3CFE9FFF450EA26760EE926080EEA
:10543000EA22010EE926000EEA22E3C7EFFFFE0E84
:10544000DBCFE9FFEA6AE9BEEA680F0EEA02F3CFB2
:10545000EAFF0F0EE902F3CFE9FFF450EA26760ED9
:10546000E926080EEA22020EE926000EEA22E4C727
:10547000EFFF67D00701E50564E1FE0EDBCFE9FF32
:10548000EA6AE9BEEA680F0EEA02F3CFEAFF0F0EFE
:10549000E902F3CFE9FFF450EA26760EE926080E7A
:1054A000EA22020EEF6EFE0EDBCFE9FFEA6AE9BEEA
:1054B000EA680F0EEA02F3CFEAFF0F0EE902F3CF1C
:1054C000E9FFF450EA26760EE926080EEA22010EDC
:1054D000E926000EEA22E6C7EFFFFE0EDBCFE9FF6A
:1054E000EA6AE9BEEA680F0EEA02F3CFEAFF0F0E9E
:1054F000E902F3CFE9FFF450EA26760EE926080E1A
:10550000EA22020EE926000EEA22E7C7EFFFFE0EAE
:10551000DBCFE9FFEA6AE9BEEA680F0EEA02F3CFE1
:10552000EAFF0F0EE902F3CFE9FFF450EA26760E08
:10553000E926080EEA22030EE926000EEA22E8C751
:10554000EFFF0701E9054EE1FE0EDBCFE9FFEA6A56
:10555000E9BEEA680F0EEA02F3CFEAFF0F0EE90296
:10556000F3CFE9FFF450EA26760EE926080EEA2288
:10557000040EE926000EEA22EF6AFE0EDBCFE9FFF9
:10558000EA6AE9BEEA680F0EEA02F3CFEAFF0F0EFD
:10559000E902F3CFE9FFF450EA26760EE926080E79
:1055A000EA22050EE926000EEA22EAC7EFFFFE0E08
:1055B000DBCFE9FFEA6AE9BEEA680F0EEA02F3CF41
:1055C000EAFF0F0EE902F3CFE9FFF450EA26760E68
:1055D000E926080EEA22060EE926000EEA22EBC7AB
:1055E000EFFF20D20701EC054FE1FE0EDBCFE9FF14
:1055F000EA6AE9BEEA680F0EEA02F3CFEAFF0F0E8D
:10560000E902F3CFE9FFF450EA26760EE926080E08
:10561000EA22040EE926000EEA22010EEF6EFE0ECB
:10562000DBCFE9FFEA6AE9BEEA680F0EEA02F3CFD0
:10563000EAFF0F0EE902F3CFE9FFF450EA26760EF7
:10564000E926080EEA22050EE926000EEA22EDC739
:10565000EFFFFE0EDBCFE9FFEA6AE9BEEA680F0E54
:10566000EA02F3CFEAFF0F0EE902F3CFE9FFF450AD
:10567000EA26760EE926080EEA22060EE926000E34
:10568000EA22EEC7EFFFCED10701EF054FE1FE0E94
:10569000DBCFE9FFEA6AE9BEEA680F0EEA02F3CF60
:1056A000EAFF0F0EE902F3CFE9FFF450EA26760E87
:1056B000E926080EEA22040EE926000EEA22020E6E
:1056C000EF6EFE0EDBCFE9FFEA6AE9BEEA680F0E75
:1056D000EA02F3CFEAFF0F0EE902F3CFE9FFF4503D
:1056E000EA26760EE926080EEA22050EE926000EC5
:1056F000EA22F0C7EFFFFE0EDBCFE9FFEA6AE9BE60
:10570000EA680F0EEA02F3CFEAFF0F0EE902F3CFC9
:10571000E9FFF450EA26760EE926080EEA22060E84
:10572000E926000EEA22F1C7EFFF7CD10701F2055E
:1057300069E1FE0EDBCFE9FFEA6AE9BEEA680F0E17
:10574000EA02F3CFEAFF0F0EE902F3CFE9FFF450CC
:10575000EA26760EE926080EEA22040EE926000E55
:10576000EA22030EEF6EFE0EDBCFE9FFEA6AE9BE26
:10577000EA680F0EEA02F3CFEAFF0F0EE902F3CF59
:10578000E9FFF450EA26760EE926080EEA22050E15
:10579000E926000EEA22F3C7EFFFFE0EDBCFE9FF9A
:1057A000EA6AE9BEEA680F0EEA02F3CFEAFF0F0EDB
:1057B000E902F3CFE9FFF450EA26760EE926080E57
:1057C000EA22060EE926000EEA22F4C7EFFFFE0EDB
:1057D000DBCFE9FFEA6AE9BEEA680F0EEA02F3CF1F
:1057E000EAFF0F0EE902F3CFE9FFF450EA26760E46
:1057F000E926080EEA22070EE926000EEA22F7C77C
:10580000EFFF10D10701F80501E083D0FE0EDBCFDA
:10581000E9FFEA6AE9BEEA680F0EEA02F3CFEAFF9F
:105820000F0EE902F3CFE9FFF450EA26760EE926DF
:10583000080EEA22040EE926000EEA22040EEF6E9C
:10584000FE0EDBCFE9FFEA6AE9BEEA680F0EEA0264
:10585000F3CFEAFF0F0EE902F3CFE9FFF450EA2697
:10586000760EE926080EEA22050EE926000EEA2247
:10587000F9C7EFFFFE0EDBCFE9FFEA6AE9BEEA688F
:105880000F0EEA02F3CFEAFF0F0EE902F3CFE9FFB2
:10589000F450EA26760EE926080EEA22060EE926DC
:1058A000000EEA22FAC7EFFFFE0EDBCFE9FFEA6A3D
:1058B000E9BEEA680F0EEA02F3CFEAFF0F0EE90233
:1058C000F3CFE9FFF450EA26760EE926080EEA2225
:1058D000070EE926000EEA22FBC7EFFFFE0EDBCF24
:1058E000E9FFEA6AE9BEEA680F0EEA02F3CFEAFFCF
:1058F0000F0EE902F3CFE9FFF450EA26760EE9260F
:10590000080EEA22080EE926000EEA22FCC7EFFF85
:1059100089D00701FD0535E1FE0EDBCFE9FFEA6A1C
:10592000E9BEEA680F0EEA02F3CFEAFF0F0EE902C2
:10593000F3CFE9FFF450EA26760EE926080EEA22B4
:10594000040EE926000EEA22050EEF6EFE0EDBCFF6
:10595000E9FFEA6AE9BEEA680F0EEA02F3CFEAFF5E
:105960000F0EE902F3CFE9FFF450EA26760EE9269E
:10597000080EEA22050EE926000EEA22FEC7EFFF16
:1059800051D00701FF054EE1FE0EDBCFE9FFEA6AC9
:10599000E9BEEA680F0EEA02F3CFEAFF0F0EE90252
:1059A000F3CFE9FFF450EA26760EE926080EEA2244
:1059B000040EE926000EEA22060EEF6EFE0EDBCF85
:1059C000E9FFEA6AE9BEEA680F0EEA02F3CFEAFFEE
:1059D0000F0EE902F3CFE9FFF450EA26760EE9262E
:1059E000080EEA22050EE926000EEA2200C8EFFFA3
:1059F000FE0EDBCFE9FFEA6AE9BEEA680F0EEA02B3
:105A0000F3CFEAFF0F0EE902F3CFE9FFF450EA26E5
:105A1000760EE926080EEA22060EE926000EEA2294
:105A200001C8EFFFFE0EDBCFE9FFEA6AE9BEEA68D4
:105A30000F0EEA02F3CFEAFF0F0EE902F3CFE9FF00
:105A4000F450EA26760EE926080EEA22090EE92627
:105A5000000EEA2202C8EFFFFE0EDBCFE9FFEA6A82
:105A6000E9BEEA680F0EEA02F3CFEAFF0F0EE90281
:105A7000F3CFE9FFF450EA26760EE926080EEA2273
:105A80000A0EE926000EEA2203C8EFFFFE0EDBCF66
:105A9000E9FFEA6AE9BEEA680F0EEA02F3CFEAFF1D
:105AA0000F0EE902F3CFE9FFF450EA26760EE9265D
:105AB000080EEA220B0EE926000EEA2204C8EFFFC8
:105AC000FE0EDBCFE9FFEA6AE9BEEA680F0EEA02E2
