:020000040000FA
:06000000AEEF6AF01200F1
:020006001200E6
:0600080065EF4AF0120052
:02000E00FEFFF3
:06001800DDEF54F01200C0
:02001E000200DE
:10002000A5D50000960000002E0000000E00000084
:08003000D000000002000000F6
:08003800D9CFE6FFE1CFD9FFAB
:10004000040EE126D950FB0F146EFF0EDA20156E58
:10005000020E14C0DBFF030E15C0DBFF020EDBCF68
:10006000E6FF030EDBCFE6FFFB0EDBCF14F0FC0E4A
:10007000DBCF15F0166A14C0E6FF15C0E6FF16C008
:10008000E6FFFD0EDBCFE6FFFE0EDBCFE6FF94ECD6
:1000900069F0176E070EE15E1750F3CFDEFFF4CF65
:1000A000DDFFDECF14F0DDCF15F014C0F3FF15C077
:1000B000F4FF040EE15C02E2E16AE552E16EE55212
:1000C000E7CFD9FF1200D9CFE6FFE1CFD9FFFD0E70
:1000D000DBCF14F0FE0EDBCF15F0153407E2145021
:1000E000FF08030E155402E2000E23D0FF0EE76E48
:1000F000FD0EDBCF14F0FE0EDBCF15F0E75014162B
:10010000156A1450A96EFD0EFE0EDBCF15F015C05A
:1001100014F0156A030E1414AA6EA69EA69CA6805F
:10012000FB0EDBCFE9FFFC0EDBCFEAFFA8CFEFFF32
:10013000010EE552E7CFD9FF1200D9CFE6FFE1CF9C
:10014000D9FF030EE126090EDE6EDD6A0001010E05
:10015000696F8569866989698A698E6F696B050E21
:10016000F36E020EF3CFDBFFDBCF14F0000EE76E71
:100170001418E8AE02D0143403D0E750D8801454D9
:1001800029E2020EDBCF14F0156A14BE156814C004
:10019000E6FF15C0E6FFF60EE66ECD0EE66EF70E34
:1001A000E66E060EE66E48DF166E060EE15E16502F
:1001B000F70EE66E060EE66E2EEC48F0E552E552BE
:1001C000020EE66EE66ABBEC56F0E552E552020E10
:1001D000DB06CAD70001010E696F876B886B8B6BDA
:1001E0008C6B696B050EF36E020EF3CFDBFFDBCF7A
:1001F00014F0000EE76E1418E8AE02D0143403D0E9
:10020000E750D880145429E2020EDBCF14F0156AAF
:1002100014BE156814C0E6FF15C0E6FFEE0EE66ECC
:10022000CD0EE66EF70EE66E060EE66E05DF166E76
:10023000060EE15E1650F70EE66E060EE66E2EEC2A
:1002400048F0E552E552020EE66EE66ABBEC56F067
:10025000E552E552020EDB06CAD78D0EE66ECE0ED3
:10026000E66EEB0EE66ECD0EE66EF70EE66E060E51
:10027000E66EE2DE146E060EE15E1450F70EE66ED8
:10028000060EE66E2EEC48F0E552E552020EE66EE2
:10029000E66ABBEC56F0E552E5520001010E696FCB
:1002A0008E6B696B86C014F0156A1450E66EDFCF52
:1002B00016F0DF2A010EDBCF17F001E3DB2A16C0B0
:1002C000E6FF17C0E6FF23DBE552E552E5520001E9
:1002D0008551E66EDFCF14F0DF2A010EDBCF15F07B
:1002E00001E3DB2A14C0E6FF15C0E6FF10DBE55290
:1002F000E552E55288C014F0156A1450E66EDFCF5F
:1003000016F0DF2A010EDBCF17F001E3DB2A16C05F
:10031000E6FF17C0E6FFFBDAE552E552E5520001C1
:100320008751E66EDFCF14F0DF2A010EDBCF15F028
:1003300001E3DB2A14C0E6FF15C0E6FFE8DAE55268
:10034000E552E5528AC014F0156A1450E66EDFCF0C
:1003500016F0DF2A010EDBCF17F001E3DB2A16C00F
:10036000E6FF17C0E6FFD3DAE552E552E552000199
:100370008951E66EDFCF14F0DF2A010EDBCF15F0D6
:1003800001E3DB2A14C0E6FF15C0E6FFC0DAE55240
:10039000E552E5528CC014F0156A1450E66EDFCFBA
:1003A00016F0DF2A010EDBCF17F001E3DB2A16C0BF
:1003B000E6FF17C0E6FFABDAE552E552E552000171
:1003C0008B51E66EDECFE6FFDDCFE6FFA0DAE55229
:1003D000E552E552030EE15C02E2E16AE552E16EAC
:1003E000E552E7CFD9FF1200D9CFE6FFE1CFD9FF21
:1003F000040EE126010EDB6A020EDB6A030EDB6AE5
:10040000DBCF14F0080EE76E1418E8AE02D0E73424
:1004100002D0E750145C17E2030EDBCFE6FF010EBB
:10042000DBCF14F0DB2A020EDBCF15F001E3DB2A71
:1004300014C0E6FF15C0E6FF6ADAE552E552E55260
:10044000030EDB2ADDD7080EF36E010EF3CFDBFFC0
:10045000020EDB6A060EDF6EDFCFE6FF010EDBCF9A
:10046000E6FF020EDBCFE6FF52DAE552E552E55237
:10047000110EF36E010EF3CFDBFF020EDB6ADF6AB3
:10048000DFCFE6FF010EDBCFE6FF020EDBCFE6FF9C
:100490003EDAE552E552E5520001010E696F060EA3
:1004A000686F6F6B696B120EF36E010EF3CFDBFF9B
:1004B000020EDB6A010EDBCF14F0020EDBCF15F06B
:1004C000153404E214501508000E155411E3010E02
:1004D000E66EDBCFE6FF020EDBCFE6FF18DAE55271
:1004E000E552E552010EDB2A020EE4E3DB2AE2D7F5
:1004F000040EE15C02E2E16AE552E16EE552E7CF0B
:10050000D9FF1200D9CFE6FFE1CFD9FF070EE126D0
:10051000020EDB6A030EDB6A060EDB6ADBCF14F029
:10052000080EE76E1418E8AE02D0E73402D0E750A8
:10053000145C1FE2D9CFE6FFDACFE6FF020EDBCF75
:1005400014F0DB2A030EDBCF15F001E3DB2A14C025
:10055000E6FF15C0E6FFB7DDE552E552E552E5528C
:10056000060EDB50DF5C02E03FDFBED1060EDB2A69
:10057000D5D7080EF36E020EF3CFDBFF030EDB6A56
:10058000D9CFE6FFDACFE6FF020EDBCFE6FF030EA0
:10059000DBCFE6FF98DDE552E552E552E55200017A
:1005A000010E696FDFCF68F0696B120EF36E020EF9
:1005B000F3CFDBFF030EDB6AD9CFE6FFDACFE6FF2E
:1005C000020EDBCF14F0DB2A030EDBCF15F001E3C4
:1005D000DB2A14C0E6FF15C0E6FF75DDE552E552E3
:1005E000E552E552DF50E8B09582E8A09592D9CF68
:1005F000E6FFDACFE6FF020EDBCF14F0DB2A030EB4
:10060000DBCF15F001E3DB2A14C0E6FF15C0E6FFDF
:100610005ADDE552E552E552E552DF50E8B09584E7
:10062000E8A09594D9CFE6FFDACFE6FF020EDBCF44
:1006300014F0DB2A030EDBCF15F001E3DB2A14C034
:10064000E6FF15C0E6FF3FDDE552E552E552E55213
:10065000DF50E8B09586E8A09596D9CFE6FFDACFCF
:10066000E6FF020EDBCFE6FF030EDBCFE6FF2BDD5E
:10067000E552E552E552E552DF50E8B09488E8A033
:100680009498090EF36E020EF3CFDBFF030EDB6AC4
:10069000D9CFE6FFDACFE6FF020EDBCF14F0DB2A7C
:1006A000030EDBCF15F001E3DB2A14C0E6FF15C013
:1006B000E6FF09DDE552E552E552E5520001010E83
:1006C000696FDFCF85F0866B85BF8669696BD9CF8F
:1006D000E6FFDACFE6FF020EDBCF14F0DB2A030ED3
:1006E000DBCF15F001E3DB2A14C0E6FF15C0E6FFFF
:1006F000EADCE552E552E552E5520001010E696F70
:10070000DFCF14F0156A14BE156885C017F0166A9D
:1007100014501624856F15501720866F696BD9CF3A
:10072000E6FFDACFE6FF020EDBCF14F0DB2A030E82
:10073000DBCF15F001E3DB2A14C0E6FF15C0E6FFAE
:10074000C2DCE552E552E552E5520001010E696F47
:10075000DFCF87F0886B87BF8869696BD9CFE6FFE9
:10076000DACFE6FF020EDBCF14F0DB2A030EDBCF7D
:1007700015F001E3DB2A14C0E6FF15C0E6FFA3DC99
:10078000E552E552E552E5520001010E696FDFCFF7
:1007900014F0156A14BE156887C017F0166A145055
:1007A0001624876F15501720886F696BD9CFE6FF25
:1007B000DACFE6FF020EDBCF14F0DB2A030EDBCF2D
:1007C00015F001E3DB2A14C0E6FF15C0E6FF7BDC71
:1007D000E552E552E552E5520001010E696FDFCFA7
:1007E00089F08A6B89BF8A69696BD9CFE6FFDACF56
:1007F000E6FF020EDBCF14F0DB2A030EDBCF15F091
:1008000001E3DB2A14C0E6FF15C0E6FF5CDCE5521D
:10081000E552E552E5520001010E696FDFCF14F099
:10082000156A14BE156889C017F0166A145016248C
:10083000896F155017208A6F696BD9CFE6FFDACF21
:10084000E6FF020EDBCF14F0DB2A030EDBCF15F040
:1008500001E3DB2A14C0E6FF15C0E6FF34DCE552F5
:10086000E552E552E5520001010E696FDFCF8BF0D2
:100870008C6B8BBF8C69696BD9CFE6FFDACFE6FF53
:10088000020EDBCFE6FF030EDBCFE6FF1CDCE552FA
:10089000E552E552E5520001010E696FDFCF14F019
:1008A000156A14BE15688BC017F0166A145016240A
:1008B0008B6F155017208C6F696B010E696F855116
:1008C000875D8F6F86518859906F696B010E696FD4
:1008D00089518B5D916F8A518C59926F696BCED91A
:1008E000E76E010EE7CFDBFF070EE15C02E2E16A93
:1008F000E552E16EE552E7CFD9FF1200A1A803D07F
:10090000A198A694010C000CA6A2010C000CD9CF52
:10091000E6FFE1CFD9FFE652FD0EDBCF14F0FE0E6D
:10092000DBCF15F0153407E21450FF08030E155401
:1009300002E2000E42D0E8DF0009FDE0D9CFE6FF79
:10094000DACFE6FFFD0EDBCFE6FFFE0EDBCFE6FFE4
:1009500063EC00F0E552E552E552E552FC0EDB5047
:10096000DF5C2AE0FF0EE76EFD0EDBCF14F0FE0E1B
:10097000DBCF15F0E7501416156A1450A96EFD0E62
:10098000FE0EDBCF15F015C014F0156A030E14141B
:10099000AA6EFC0EDB50A86EA69EA69CA684F29EB4
:1009A000550EA76EAA0EA76EA682A8DFFF08FDE06F
:1009B000ABDF0009FDE0F28E010EE552E552E7CF14
:1009C000D9FF12003EEF06F0FE0EE66ECD0EE66E8B
:1009D000EB0EE66ECD0EE66EF70EE66E060EE66EDA
:1009E0001CEC00F0146E060EE15E1450F70EE66E7D
:1009F000060EE66E7BEC3EF0E552E552130EE66E17
:100A0000CE0EE66EEB0EE66ECD0EE66EF70EE66EE1
:100A1000060EE66E1CEC00F0146E060EE15E14503D
:100A2000F70EE66E060EE66E7BEC3EF0E552E55202
:100A3000270EE66ECE0EE66EEB0EE66ECD0EE66E81
:100A4000F70EE66E060EE66E1CEC00F0146E060E57
:100A5000E15E145060C014F0156A14BE156814C02D
:100A6000E6FF15C0E6FFF70EE66E060EE66EE60E32
:100A7000E66ECD0EE66EF70EE66E060EE66E1CEC2A
:100A800000F0166E080EE15E1650F70EE66E060ECA
:100A9000E66E7BEC3EF0E552E5522F0EE66ECE0E92
:100AA000E66EEB0EE66ECD0EE66EF70EE66E060E09
:100AB000E66E1CEC00F0146E060EE15E1450060E9D
:100AC0000001685D08E1F70EE66E060EE66EE00EC8
:100AD000E66ECD0E07D0F70EE66E060EE66EDA0E67
:100AE000E66ECD0EE66EF70EE66E060EE66E1CECBA
:100AF00000F0146E060EE15E1450F70EE66E060E60
:100B0000E66E7BEC3EF0E552E552360EE66ECE0E1A
:100B1000E66EEB0EE66ECD0EE66EF70EE66E060E98
:100B2000E66E1CEC00F0146E060EE15E14504ADF17
:100B3000146E156A14BE156814C0E6FF15C0E6FFF2
:100B4000F70EE66E060EE66ED30EE66ECD0EE66E80
:100B5000F70EE66E060EE66E1CEC00F0166E080E42
:100B6000E15E1650F70EE66E060EE66E7BEC3EF08A
:100B7000E552E5523F0EE66ECE0EE66EEB0EE66EE9
:100B8000CD0EE66EF70EE66E060EE66E1CEC00F07D
:100B9000146E060EE15E14502C0E0001735D08E029
:100BA000F70EE66E060EE66ECA0EE66ECD0E07D0A6
:100BB000F70EE66E060EE66EBE0EE66ECD0EE66E25
:100BC000F70EE66E060EE66E1CEC00F0146E060ED6
:100BD000E15E1450F70EE66E060EE66E7BEC3EF01C
:100BE000E552E552510EE66ECE0EE66EEB0EE66E67
:100BF000CD0EE66EF70EE66E060EE66E1CEC00F00D
:100C0000146E060EE15E14506FC014F0156A14BE27
:100C1000156814C0E6FF15C0E6FFF70EE66E060E77
:100C2000E66EE60EE66ECD0EE66EF70EE66E060E8C
:100C3000E66E1CEC00F0166E080EE15E1650F70E24
:100C4000E66E060EE66E7BEC3EF0E552E552BD0E1A
:100C5000E66ECD0EE66EF70EE66E060EE66E1CEC48
:100C600000F0E552E552E552E552F70EE66E060E4B
:100C7000E66E7BEC3EF0E552E5521200D9CFE6FF7E
:100C8000E1CFD9FF090EE126110EF36E030EF3CF6B
:100C9000DBFF040EDB6AD950020FE66E000EDA208D
:100CA000E66E030EDBCFE6FF040EDBCFE6FF63EC60
:100CB00000F0E552E552E552E5520001010E696F80
:100CC000020EDBCF6FF0696B6F5102E1640EA7D0AB
:100CD000160EF36E030EF3CFDBFF040EDB6ADF6A42
:100CE000DFCF14F06F51E76E1418E8AE02D0E7348E
:100CF00002D0E750145C51E2010EDB6ADBCF14F046
:100D00000F0EE76E1418E8AE02D0E73402D0E750B9
:100D1000145C41E2D950020FE66E000EDA20E66E56
:100D2000030EDBCF14F0DB2A040EDBCF15F001E35A
:100D3000DB2A14C0E6FF15C0E6FF63EC00F0E552C5
:100D4000E552E552E5520001010E696FDFCF14F064
:100D5000156A14BE15680F0E1502F3CF15F01402B4
:100D6000F3CF14F0F4501526760E1426080E152233
:100D7000010EDBCF16F0176A16BE17681450162442
:100D8000E96E15501720EA6E020EDBCFEFFF696B9C
:100D9000010EDB2AB3D7DF2AA3D7146A040E156E1F
:100DA000166A176A030EDBCF18F0040EDBCF19F0BA
:100DB0001A6A1B6A19AE02D01A681B681850145CB4
:100DC000066E19501558076E1A501658086E1B50AB
:100DD0001758096E640E0B6E0C6A0D6A0E6A1AECD7
:100DE0006AF002C006F003C007F004C008F005C0B6
:100DF00009F0EA0E0B6E030E0C6E0D6A0E6A86EC9D
:100E000068F0050E06C0DBFF060E07C0DBFF070E0D
:100E100008C0DBFF080E09C0DBFF050EDB50146EB7
:100E2000090EE15C02E2E16AE552E16E1450E5521E
:100E3000E7CFD9FF1200D9CFE6FFE1CFD9FF050EEA
:100E4000E126160EF36E020EF3CFDBFF030EDB6A14
:100E5000DF6ADFCF14F000016F51E76E1418E8AEBF
:100E600002D0E73402D0E750145C01E377D00F0ED4
:100E7000E76E020EDBCF14F0030EDBCF15F0E75068
:100E80001426000E1522D890155004E6000E145CAE
:100E9000040E15581CE36FC014F0156A14BE1568D3
:100EA00014C0E6FF15C0E6FFB10EE66ECD0EE66E8D
:100EB000760EE66E070EE66E1CEC00F0166E060E61
:100EC000E15E16500001110E706F000E5ED0010E33
:100ED000DB6ADBCF14F00F0EE76E1418E8AE02D019
:100EE000E73402D0E750145C37E2DFCF14F0156A24
:100EF00014BE15680F0E1502F3CF15F01402F3CFD0
:100F000014F0F4501526760E1426080E1522010E44
:100F1000DBCF16F0176A16BE176814501624E96E58
:100F200015501720EA6E040EEFCFDBFFDBCFE6FF94
:100F3000020EDBCF14F0DB2A030EDBCF15F001E34A
:100F4000DB2A14C0E6FF15C0E6FFE1DCE552E552FE
:100F5000E552010EDB2ABDD7DF2A7BD7110EF36ED7
:100F6000020EF3CFDBFF030EDB6A040E6FC0DBFF64
:100F7000DBCFE6FF020EDBCFE6FF030EDBCFE6FFA3
:100F8000C6DCE552E552E552010E146E050EE15C39
:100F900002E2E16AE552E16E1450E552E7CFD9FF73
:100FA0001200D9CFE6FFE1CFD9FFFE0EDBCF14F060
:100FB000300EE76E1418E8AE02D0E73402D0E750E6
:100FC000145C10E3FE0EDBCF15F0390EE76E15183A
:100FD000E8AE02D0153403D0E750D880155402E3B0
:100FE000010E01D0000EE552E7CFD9FF1200D9CF94
:100FF000E6FFE1CFD9FFFE0EDBCF14F0410EE76E26
:101000001418E8AE02D0E73402D0E750145C10E3C5
:10101000FE0EDBCF15F0460EE76E1518E8AE02D0D7
:10102000153403D0E750D880155402E3010E01D0E7
:10103000000EE552E7CFD9FF1200D9CFE6FFE1CF8E
:10104000D9FFE652FE0EDBCF14F0610EE76E1418E6
:10105000E8AE02D0E73402D0E750145C12E3FE0E93
:10106000DBCF15F07A0EE76E1518E8AE02D0153416
:1010700003D0E750D880155404E3FE0EDB50E00F98
:1010800002D0FE0EDB50DF6EDF50E552E552E7CFB7
:10109000D9FF1200D9CFE6FFE1CFD9FF090EE12633
:1010A000DE6ADD6A020EDB6A030EDB6A0A0EF36E8D
:1010B000040EF3CFDBFF050EDB6A060EDB6AFD0EC6
:1010C000DBCFE9FFFE0EDBCFEAFFEF50300805E192
:1010D000FD0EDB2AFE0E01E3DB2AFD0EDBCFE9FF6E
:1010E000FE0EDBCFEAFFEF5001E1EDD0FD0EDBCFCE
:1010F000E9FFFE0EDBCFEAFFEF50200801E1E3D06D
:10110000FD0EDBCFE9FFFE0EDBCFEAFFEF50E66E10
:1011100094DFE55258080AE1FD0EDB2AFE0E01E3DA
:10112000DB2A100EF36E040EF3CFDBFFFD0EDBCFD8
:10113000E9FFFE0EDBCFEAFFEF5001E19ED0FD0E8E
:10114000DBCFE9FFFE0EDBCFEAFFEF50200801E125
:1011500094D0FD0EDBCFE9FFFE0EDBCFEAFFEF50B0
:10116000E66E1FDFE552000913E0FD0EDBCFE9FF5D
:10117000FE0EDBCFEAFFEF50D00FE66ED950070F1F
:10118000E96EDACFEAFFE552E750EE6EED6A39D04C
:10119000FD0EDBCFE9FFFE0EDBCFEAFFEF50E66E80
:1011A0004CDFE552E66E23DFE552000901E187D00E
:1011B000FD0EDBCFE9FFFE0EDBCFEAFFEF50E66E60
:1011C0003CDFE552BF0F0A0FE66ED950070FE96EFC
:1011D000DACFEAFFE552E750EE6EED6A070EDBCF9D
:1011E00014F0080EDBCF15F0D890155004E60A0E67
:1011F000145C000E155805E3100EF36E040EF3CFC9
:10120000DBFF070EDBCF16F0080EDBCF17F0100E5A
:10121000086E096ADECF0DF0DDCF0EF0BAEC68F093
:1012200006501624146E07501720156E14C0DEFFEA
:10123000DD6E070EDBCF16F0080EDBCF17F00A0EBF
:10124000086E096A020EDBCF0DF0030EDBCF0EF045
:10125000BAEC68F006501624146E07501720156E6D
:10126000020E14C0DBFF030E15C0DBFFFD0EDB2AF0
:10127000FE0E01E25BD7DB2A59D7040EDB500A08C9
:101280000DE1020EDBCF08F0030EDBCF09F0050EF7
:1012900008C0DBFF060E09C0DBFF0AD0D9CFE9FF8B
:1012A000DACFEAFF050EEECFDBFF060EEDCFDBFF58
:1012B000050E060EDBCF15F0800E151404E0220E8D
:1012C0000001CE6FCF6B050EDBCF14F0060EDBCF27
:1012D00015F014C0F3FF15C0F4FF090EE15C02E243
:1012E000E16AE552E16EE552E7CFD9FF1200BD0E8B
:1012F000E66ECD0EE66E760EE66E070EE66E1CEC22
:1013000000F0E552E552E552E5520001706B120023
:1013100000017051080A01E1A3D0100A01E19CD03C
:101320000D0A01E195D0010A01E18ED0070A01E121
:1013300087D0010A01E180D0030A01E179D0010AD6
:1013400073E01F0A6DE0010A67E0030A61E0010A29
:101350005BE0060A55E0030A4FE00E0A49E01C0A6A
:1013600043E0010A3DE0030A37E0120A31E01C0ABB
:101370002BE0010A25E0100A1FE0030A19E0010A28
:1013800013E0070A0DE0010A07E0030A01E079D043
:10139000CC0EE66ECE0E67D0DA0EE66ECE0E63D0C1
:1013A000E90EE66ECE0E5FD0FC0EE66ECE0E5BD082
:1013B000070EE66ECF0E57D0140EE66ECF0E53D04A
:1013C000240EE66ECF0E4FD0350EE66ECF0E4BD00C
:1013D000450EE66ECF0E47D0540EE66ECF0E43D0CC
:1013E0006A0EE66ECF0E3FD07E0EE66ECF0E3BD07D
:1013F000960EE66ECF0E37D0A90EE66ECF0E33D026
:10140000B80EE66ECF0E2FD0C60EE66ECF0E2BD0E6
:10141000D60EE66ECF0E27D0EA0EE66ECF0E23D0A4
:10142000FB0EE66ECF0E1FD00A0EE66ED00E1BD05E
:101430001D0EE66ED00E17D0360EE66ED00E13D00F
:10144000440EE66ED00E0FD0580EE66ED00E0BD0C6
:10145000730EE66ED00E07D08B0EE66ED00E03D064
:101460009D0EE66ED00EE66EEB0EE66ECD0EE66ECF
:10147000F70EE66E060EE66E1CEC00F0146E060E1D
:1014800012D070C0E6FFAB0EE66ED00EE66EA90E6F
:10149000E66ECD0EE66EF70EE66E060EE66E1CEC00
:1014A00000F0146E070EE15E1450760EE66E070E25
:1014B000E66EF70EE66E060EE66EA30EE66ECD0E37
:1014C000E66EF70EE66E060EE66E1CEC00F0146E8D
:1014D000080EE15E1450F70EE66E060EE66E7BEC2B
:1014E0003EF0E552E552BD0EE66ECD0EE66EF70E0D
:1014F000E66E060EE66E1CEC00F0E552E552E55293
:10150000E552F70EE66E060EE66E7BEC3EF0E55217
:10151000E55277EF09F0D9CFE6FFE1CFD9FF100E02
:10152000E126DF6A010EDB6AFD0EDBCFE6FFFE0E71
:10153000DBCFE6FFE7EC68F0E552E5520C0EF3CFA7
:10154000DBFF0D0EF4CFDBFFFB0EDBCFE6FFFC0E67
:10155000DBCFE6FFE7EC68F0E552E5520E0EF3CF85
:10156000DBFF0F0EF4CFDBFFDF6ADFCF14F0156A6D
:1015700014BE15680C0EDBCF16F00D0EDBCF17F086
:1015800015501718E8AE02D0173404D01650145C6A
:101590001750155801E399D0DFCF14F0156A14BE27
:1015A0001568FD0EDB501424E96EFE0EDB5015208D
:1015B000EA6EEF50200808E1F90EDBCFE9FFFA0EE2
:1015C000DBCFEAFFEF2A7FD0DFCF18F0196A18BE11
:1015D0001968FD0EDB501824E96EFE0EDB50192051
:1015E000EA6EEF50E66ED950020F146EDACF15F0A6
:1015F000010EDBCFF3FFDB2AF350166E176A16BE1F
:10160000176814501624E96E15501720EA6EE5523B
:10161000E750EF6EF90EDBCFE9FFFA0EDBCFEAFF02
:10162000EF2A0E0EDBCFE6FF0F0EDBCFE6FFFB0E41
:10163000DBCFE6FFFC0EDBCFE6FFD950020FE66EF4
:10164000000EDA20E66EF5EC68F0146E060EE15E30
:101650001450000902E1010E68D0010EDBCF14F036
:10166000156A14BE156814C0E6FF15C0E6FFFB0E30
:10167000DBCFE6FFFC0EDBCFE6FFE7EC68F0E552E0
:10168000E552E552E7CF15F0E552E7CF14F0F3CF7E
:1016900018F0F4CF19F0D890F45004E6090E185C55
:1016A000000E195807E20E0EDBCF16F00F0EDBCF3F
:1016B00017F003D0090E166E176A1650141803E1BE
:1016C0001750151802E0DF2A50D7D950020F146EB8
:1016D000DACF15F0010EDBCF16F0176A16BE1768C9
:1016E00014501624E96E15501720EA6EEF6AFB0EAF
:1016F000DBCFE6FFFC0EDBCFE6FFD950020FE66E34
:10170000000EDA20E66E930EE66ECD0EE66E760ED5
:10171000E66E070EE66E1CEC00F0146E080EE15E3D
:1017200014500001010E706F000E146E100EE15C7B
:1017300002E2E16AE552E16E1450E552E7CFD9FFCB
:101740001200D9CFE6FFE1CFD9FF070EE126DF6A0D
:10175000010EDB6A0001CE6BCF6BFD0EDBCFE6FF27
:10176000FE0EDBCFE6FFE7EC68F0E552E552050E32
:10177000F3CFDBFF060EF4CFDBFFDFCF14F0156AEB
:1017800014BE1568FD0EDB501424E96EFE0EDB500E
:101790001520EA6EEF5020081FE1DFCF16F0176A20
:1017A00016BE1768050EDBCF18F0060EDBCF19F05A
:1017B00017501918E8AE02D0193404D01850165C2E
:1017C0001950175809E2F90EDBCFE9FFFA0EDBCF0B
:1017D000EAFFEF2ADF2AD1D7DFCF16F0176A16BE4D
:1017E0001768FD0EDB501624146EFE0EDB5017201A
:1017F000156E14C0E6FFE66E4DDCE552E552030EB1
:10180000F3CFDBFF040EF4CFDBFF0001220ECE1975
:1018100001E1CF5105E0160ECE1905E1CF5103E1EC
:10182000020EDB6A05D0010EF36E020EF3CFDBFF72
:10183000030EDBCF14F0040EDBCF15F0153424E2D9
:101840001450FF08000E15541FE2220ECE1901E1BC
:10185000CF5102E0000E01D0010E030EDBCFE6FFF8
:10186000040EDBCFE6FF900EE66ECD0EE66E760E32
:10187000E66E070EE66E1CEC00F0146E060EE15EDE
:1018800014500001040E4DD0020EDB043AE1DFCF0C
:1018900014F0156A14BE1568FD0EDB501424E96EB1
:1018A000FE0EDB501520EA6EEF5020081FE0DFCF60
:1018B00016F0176A16BE1768050EDBCF18F0060E75
:1018C000DBCF19F017501918E8AE02D0193404D044
:1018D0001850165C1950175809E2F90EDBCFE9FFD2
:1018E000FA0EDBCFEAFFEF2ADF2AD1D7FB0EDBCFE0
:1018F000E9FFFC0EDBCFEAFF030EDBCFEFFF010EAB
:1019000012D0BD0EE66ECD0EE66E760EE66E070EBA
:10191000E66E1CEC00F0E552E552E552E55200019E
:10192000020E706F000E146E070EE15C02E2E16AB7
:10193000E552E16E1450E552E7CFD9FF1200D9CF3E
:10194000E6FFE1CFD9FF020EE126010EDB6ADF6A76
:10195000010EDBCF14F0030EE76E1418E8AE02D0D0
:10196000E73402D0E750145C01E316D1FB0EDBCF65
:10197000E9FFFC0EDBCFEAFFEFCF14F0156A14BECF
:101980001568FD0EDB501424E96EFE0EDB501520A9
:10199000EA6EEF50200801E1B5D0010EDB5037E1CF
:1019A000DF5035E1FB0EDBCFE9FFFC0EDBCFEAFFBA
:1019B000EFCF14F0156A14BE1568FD0EDB50142429
:1019C000E96EFE0EDB501520EA6EEF50E66EFB0E60
:1019D000DBCFE9FFFC0EDBCFEAFFEFCF16F0176A93
:1019E00016BE176816C0E6FF17C0E6FF810EE66E4A
:1019F000CD0EE66E760EE66E070EE66E1CEC00F07F
:101A0000186E070EE15E18500001120EC2D0FB0ED8
:101A1000DBCFE9FFFC0EDBCFEAFFEFCF14F0156A56
:101A200014BE156814C0E6FF15C0E6FFFD0EDBCF3F
:101A3000E6FFFE0EDBCFE6FFE7EC68F0E552E5528D
:101A4000E552E7CF15F0E552E7CF14F0F3CF16F0EB
:101A5000F4CF17F0F35014182AE11750151827E1A6
:101A6000010EDBCF14F0000EE76E1418E8AE02D0C2
:101A7000143403D0E750D880145408E2010EDBCFB1
:101A800014F0156A14AE51D015684FD0BD0EE66E35
:101A9000CD0EE66E760EE66E070EE66E1CEC00F0DE
:101AA000E552E552E552E55200011B0E72D0FB0EE5
:101AB000DBCFE9FFFC0EDBCFEAFFEF50EF2A166E1B
:101AC000176A16BE1768FD0EDB501624E96EFE0E6F
:101AD000DB501720EA6EEF50E66E010EDBCFF3FF0E
:101AE000DB2AF350146E156A14BE1568F90EDB502C
:101AF0001424E96EFA0EDB501520EA6EE552E75029
:101B0000EF6E1DD0010EDB500AE1010EDF6EFB0E01
:101B1000DBCFE9FFFC0EDBCFEAFFEF2A10D0010E8E
:101B2000DBCF14F0156A14BE1568F90EDB501424CF
:101B3000E96EFA0EDB501520EA6EEF6A2DD0010E29
:101B4000DB50030801E004D7010EDB04146E156AB4
:101B500014BE1568F90EDB501424E96EFA0EDB5042
:101B60001520EA6EEF6AF90EDBCFE6FFFA0EDBCF47
:101B7000E6FF7E0EE66ECD0EE66E760EE66E070E84
:101B8000E66E1CEC00F0146E060EE15E14500001CF
:101B9000130E706F000E01D0010E146E020EE15C88
:101BA00002E2E16AE552E16E1450E552E7CFD9FF57
:101BB0001200D9CFE6FFE1CFD9FF0D0EE126DF6A93
:101BC000010EDB6AF0EC24F0790EE66ECD0EE66EC7
:101BD000D950020FE66E000EDA20E66E1CEC00F023
:101BE000E552E552E552E552D9CFE6FFDACFE6FFFE
:101BF000D950020FE66E000EDA20E66EDFCF16F047
:101C0000176A16BE1768FD0EDB501624146EFE0E02
:101C1000DB501720156E14C0E6FFE66E7CDC186EF4
:101C2000060EE15E1850000903E00701040E69D0BA
:101C3000720EE66ECD0EE66ED950020FE66E000E05
:101C4000DA20E66E1CEC00F0E552E552E552E55272
:101C5000DF6AD9CFE6FFDACFE6FFD950020FE66E92
:101C6000000EDA20E66EDFCF16F0176A16BE176890
:101C7000FD0EDB501624146EFE0EDB501720156E81
:101C800014C0E6FFE66E47DC186E060EE15E1850E3
:101C9000000903E00701050E34D06D0EE66ECD0E8F
:101CA000E66ED950020FE66E000EDA20E66E1CECEE
:101CB00000F0E552E552E552E552DF6AD9CFE6FF82
:101CC000DACFE6FFD950020FE66E000EDA20E66E9C
:101CD000DFCF16F0176A16BE1768FD0EDB5016240C
:101CE000146EFE0EDB501720156E14C0E6FFE66E74
:101CF00012DC186E060EE15E1850000907E00701BD
:101D0000400EB46F60C0B3F733EF23F0690EE66E98
:101D1000CD0EE66ED950020FE66E000EDA20E66EAA
:101D20001CEC00F0E552E552E552E552DF6AD9CFEE
:101D3000E6FFDACFE6FFD950020FE66E000EDA209A
:101D4000E66EDFCF16F0176A16BE1768FD0EDB5081
:101D50001624146EFE0EDB501720156E14C0E6FF1D
:101D6000E66E8BEC0AF0186E060EE15E1850000964
:101D700026E00701230EB46FD9CFE6FFDACFE6FFE6
:101D8000B30EE66E070EE66EDFCF16F0176A16BECC
:101D90001768FD0EDB501624146EFE0EDB50172064
:101DA000156E14C0E6FFE66ECCDC186E060EE15E22
:101DB0001850000902E1DCEF21F033EF23F0630E4D
:101DC000E66ECD0EE66ED950020FE66E000EDA20FA
:101DD000E66E1CEC00F0E552E552E552E552DF6A92
:101DE000D9CFE6FFDACFE6FFD950020FE66E000E3C
:101DF000DA20E66EDFCF16F0176A16BE1768FD0E02
:101E0000DB501624146EFE0EDB501720156E14C026
:101E1000E6FFE66E8BEC0AF0186E060EE15E1850D7
:101E2000000926E007012D0EB46FD9CFE6FFDACF07
:101E3000E6FFB30EE66E070EE66EDFCF16F0176A0A
:101E400016BE1768FD0EDB501624146EFE0EDB5016
:101E50001720156E14C0E6FFE66E73DC186E060ED2
:101E6000E15E1850000902E033EF23F0DCEF21F0CF
:101E70005D0EE66ECD0EE66ED950020FE66E000ED8
:101E8000DA20E66E1CEC00F0E552E552E552E55230
:101E9000DF6AD9CFE6FFDACFE6FFD950020FE66E50
:101EA000000EDA20E66EDFCF16F0176A16BE17684E
:101EB000FD0EDB501624146EFE0EDB501720156E3F
:101EC00014C0E6FFE66E8BEC0AF0186E060EE15EBB
:101ED0001850000926E00701240EB46FD9CFE6FFA1
:101EE000DACFE6FFB30EE66E070EE66EDFCF16F032
:101EF000176A16BE1768FD0EDB501624146EFE0E10
:101F0000DB501720156E14C0E6FFE66E1ADC186E63
:101F1000060EE15E1850000902E033EF23F0DCEF1B
:101F200021F0DF6A580EE66ECD0EE66ED950020F34
:101F3000E66E000EDA20E66E1CEC00F0E552E5528B
:101F4000E552E552D9CFE6FFDACFE6FFD950020FCE
:101F5000E66E000EDA20E66EDFCF16F0176A16BEC8
:101F60001768FD0EDB501624146EFE0EDB50172092
:101F7000156E14C0E6FFE66E8BEC0AF0186E060EC6
:101F8000E15E1850000902E12EEF1BF00701010E7F
:101F9000B26FD9CFE6FFDACFE6FFB30EE66E070EDB
:101FA000E66EDFCF16F0176A16BE1768FD0EDB501F
:101FB0001624146EFE0EDB501720156E14C0E6FFBB
:101FC000E66EA1EC0BF0186E060EE15E18500009EB
:101FD00002E1DCEF21F0010EDFCFDBFF540EE66EF5
:101FE000CD0EE66ED950020FE66E000EDA20E66ED8
:101FF0001CEC00F0E552E552E552E552D9CFE6FF80
:10200000DACFE6FFD950020FE66E000EDA20E66E58
:10201000DFCF16F0176A16BE1768FD0EDB501624C8
:10202000146EFE0EDB501720156E14C0E6FFE66E30
:102030008BEC0AF0186E060EE15E1850000905E000
:102040000701010ED56F030E39D0500EE66ECD0E8E
:10205000E66ED950020FE66E000EDA20E66E1CEC3A
:1020600000F0E552E552E552E552010EDB50DF6E1D
:10207000D9CFE6FFDACFE6FFD950020FE66E000EA9
:10208000DA20E66EDFCF16F0176A16BE1768FD0E6F
:10209000DB501624146EFE0EDB501720156E14C094
:1020A000E6FFE66E8BEC0AF0186E060EE15E185045
:1020B000000907E00701010ED56F060ED66F33EF5A
:1020C00023F04B0EE66ECD0EE66ED950020FE66E93
:1020D000000EDA20E66E1CEC00F0E552E552E55207
:1020E000E552010EDB50DF6ED9CFE6FFDACFE6FF17
:1020F000D950020FE66E000EDA20E66EDFCF16F042
:10210000176A16BE1768FD0EDB501624146EFE0EFD
:10211000DB501720156E14C0E6FFE66E8BEC0AF05C
:10212000186E060EE15E1850000901E199D0070112
:10213000010ED76FD9CFE6FFDACFE6FFD80EE66EF5
:10214000070EE66EDFCF16F0176A16BE1768FD0E93
:10215000DB501624146EFE0EDB501720156E14C0D3
:10216000E6FFE66EA1EC0BF0186E060EE15E18506D
:10217000000902E1DCEF21F0010EDFCFDBFF480EAA
:10218000E66ECD0EE66ED950020FE66E000EDA2036
:10219000E66E1CEC00F0E552E552E552E552D9CF6F
:1021A000E6FFDACFE6FFD950020FE66E000EDA2026
:1021B000E66EDFCF16F0176A16BE1768FD0EDB500D
:1021C0001624146EFE0EDB501720156E14C0E6FFA9
:1021D000E66E8BEC0AF0186E060EE15E18500009F0
:1021E00003E007010B0E39D0010EDB50DF6E440E09
:1021F000E66ECD0EE66ED950020FE66E000EDA20C6
:10220000E66E1CEC00F0E552E552E552E552D9CFFE
:10221000E6FFDACFE6FFD950020FE66E000EDA20B5
:10222000E66EDFCF16F0176A16BE1768FD0EDB509C
:102230001624146EFE0EDB501720156E14C0E6FF38
:10224000E66E8BEC0AF0186E060EE15E185000097F
:1022500002E1DCEF21F007010E0ED96F33EF23F01E
:10226000010EDB50DF6E400EE66ECD0EE66ED950ED
:10227000020FE66E000EDA20E66E1CEC00F0E5526E
:10228000E552E552E552D9CFE6FFDACFE6FFD95065
:10229000020FE66E000EDA20E66EDFCF16F0176A48
:1022A00016BE1768FD0EDB501624146EFE0EDB50B2
:1022B0001720156E14C0E6FFE66E8BEC0AF0186E60
:1022C000060EE15E1850000902E1D2EF1AF0070194
:1022D000010EDD6F040EE66E080EE66ED9CFE6FF46
:1022E000DACFE6FFFD0EDBCFE6FFFE0EDBCFE6FF2B
:1022F0009FEC0CF0146E060EE15E1450000902E132
:10230000DCEF21F0010EDFCFDBFF3A0EE66ECD0EE3
:10231000E66ED950020FE66E000EDA20E66E1CEC77
:1023200000F0E552E552E552E552D9CFE6FFDACFAB
:10233000E6FFD950020FE66E000EDA20E66EDFCF20
:1023400016F0176A16BE1768FD0EDB501624146EC1
:10235000FE0EDB501720156E14C0E6FFE66E8BEC08
:102360000AF0186E060EE15E1850000903E008013D
:10237000280E39D0010EDB50DF6E330EE66ECD0E27
:10238000E66ED950020FE66E000EDA20E66E1CEC07
:1023900000F0E552E552E552E552D9CFE6FFDACF3B
:1023A000E6FFD950020FE66E000EDA20E66EDFCFB0
:1023B00016F0176A16BE1768FD0EDB501624146E51
:1023C000FE0EDB501720156E14C0E6FFE66E8BEC98
:1023D0000AF0186E060EE15E1850000902E1DCEF0B
:1023E00021F00801290E036F280E026F2D0EE66EF4
:1023F000CD0EE66ED950020FE66E000EDA20E66EC4
:102400001CEC00F0E552E552E552E552D9CFE6FF6B
:10241000DACFE6FFD950020FE66E000EDA20E66E44
:10242000DFCF16F0176A16BE1768FD0EDB501624B4
:10243000146EFE0EDB501720156E14C0E6FFE66E1C
:102440008BEC0AF0186E060EE15E1850000902E1EE
:10245000DCEF21F0D9CFE6FFDACFE6FFD9500C0F41
:10246000E66E000EDA20E66EDFCF16F0176A16BEB3
:102470001768FD0EDB501624146EFE0EDB5017207D
:10248000156E14C0E6FFE66EA1EC0BF0186E060E9A
:10249000E15E1850000902E1DCEF21F0010EDFCF10
:1024A000DBFF4B0EE66ECD0EE66ED950020FE66EE8
:1024B000000EDA20E66E1CEC00F0E552E552E55223
:1024C000E552D9CFE6FFDACFE6FFD950020FE66E2C
:1024D000000EDA20E66EDFCF16F0176A16BE176818
:1024E000FD0EDB501624146EFE0EDB501720156E09
:1024F00014C0E6FFE66E8BEC0AF0186E060EE15E85
:10250000185000094BE00701010EDE6F0C0EDBCF07
:10251000DFF7D9CFE6FFDACFE6FFE00EE66E070E73
:10252000E66EDFCF16F0176A16BE1768FD0EDB5099
:102530001624146EFE0EDB501720156E14C0E6FF35
:10254000E66EA1EC0BF0186E060EE15E1850000965
:1025500002E1DCEF21F0D9CFE6FFDACFE6FFE10EB2
:10256000E66E070EE66EDFCF16F0176A16BE176826
:10257000FD0EDB501624146EFE0EDB501720156E78
:1025800014C0E6FFE66EA1EC0BF0186E060EE15EDD
:102590001850000901E06DD1DCEF21F0010EDB5095
:1025A000DF6E270EE66ECD0EE66ED950020FE66E98
:1025B000000EDA20E66E1CEC00F0E552E552E55222
:1025C000E552D9CFE6FFDACFE6FFD950020FE66E2B
:1025D000000EDA20E66EDFCF16F0176A16BE176817
:1025E000FD0EDB501624146EFE0EDB501720156E08
:1025F00014C0E6FFE66E8BEC0AF0186E060EE15E84
:102600001850000929E00701010EE26F0C0EDBCF24
:10261000E3F7D9CFE6FFDACFE6FFE40EE66E070E6A
:10262000E66EDFCF16F0176A16BE1768FD0EDB5098
:102630001624146EFE0EDB501720156E14C0E6FF34
:10264000E66EA1EC0BF0186E060EE15E1850000964
:1026500001E00FD1DCEF21F0010EDB50DF6E210E27
:10266000E66ECD0EE66ED950020FE66E000EDA2051
:10267000E66E1CEC00F0E552E552E552E552D9CF8A
:10268000E6FFDACFE6FFD950020FE66E000EDA2041
:10269000E66EDFCF16F0176A16BE1768FD0EDB5028
:1026A0001624146EFE0EDB501720156E14C0E6FFC4
:1026B000E66E8BEC0AF0186E060EE15E185000090B
:1026C00002E1DCEF21F00701010EE56F0C0EDBCF1C
:1026D000E6F7D9CFE6FFDACFE6FFE70EE66E070EA4
:1026E000E66EDFCF18F0196A18BE1968FD0EDB50D0
:1026F0001824166EFE0EDB501920176E16C0E6FF6A
:10270000E66EA1EC0BF01A6E060EE15E1A5000099F
:1027100002E0000E01D0010E146E156AE85015108B
:1027200002E0DCEF21F01D0EE66ECD0EE66ED95014
:10273000020FE66E000EDA20E66E1CEC00F0E552A9
:10274000E552E552E552D9CFE6FFDACFE6FFD950A0
:10275000020FE66E000EDA20E66EDFCF16F0176A83
:1027600016BE1768FD0EDB501624146EFE0EDB50ED
:102770001720156E14C0E6FFE66E8BEC0AF0186E9B
:10278000060EE15E1850000902E1DCEF21F0010EB7
:10279000DFCFDBFF150EE66ECD0EE66ED950020FD1
:1027A000E66E000EDA20E66E1CEC00F0E552E55213
:1027B000E552E552D9CFE6FFDACFE6FFD950020F56
:1027C000E66E000EDA20E66EDFCF16F0176A16BE50
:1027D0001768FD0EDB501624146EFE0EDB5017201A
:1027E000156E14C0E6FFE66E8BEC0AF0186E060E4E
:1027F000E15E1850000903E007010F0E39D0010E09
:10280000DB50DF6E0C0EE66ECD0EE66ED950020F79
:10281000E66E000EDA20E66E1CEC00F0E552E552A2
:10282000E552E552D9CFE6FFDACFE6FFD950020FE5
:10283000E66E000EDA20E66EDFCF16F0176A16BEDF
:102840001768FD0EDB501624146EFE0EDB501720A9
:10285000156E14C0E6FFE66E8BEC0AF0186E060EDD
:10286000E15E1850000902E1DCEF21F00701100ED3
:10287000E86F080EE66ECD0EE66ED950020FE66EDA
:10288000000EDA20E66E1CEC00F0E552E552E5524F
:10289000E552D9CFE6FFDACFE6FFD950020FE66E58
:1028A000000EDA20E66EDFCF16F0176A16BE176844
:1028B000FD0EDB501624146EFE0EDB501720156E35
:1028C00014C0E6FFE66E8BEC0AF0186E060EE15EB1
:1028D0001850000902E1DCEF21F0010EDFCFDBFF31
:1028E0004B0EE66ECD0EE66ED950020FE66E000E70
:1028F000DA20E66E1CEC00F0E552E552E552E552B6
:10290000D9CFE6FFDACFE6FFD950020FE66E000E10
:10291000DA20E66EDFCF16F0176A16BE1768FD0ED6
:10292000DB501624146EFE0EDB501720156E14C0FB
:10293000E6FFE66E8BEC0AF0186E060EE15E1850AC
:10294000000949E00701010EE96FD9CFE6FFDACFB0
:10295000E6FFEA0EE66E070EE66EDFCF16F0176AA8
:1029600016BE1768FD0EDB501624146EFE0EDB50EB
:102970001720156E14C0E6FFE66EA1EC0BF0186E82
:10298000060EE15E1850000902E1DCEF21F0D9CF1C
:10299000E6FFDACFE6FFEB0EE66E070EE66EDFCF60
:1029A00016F0176A16BE1768FD0EDB501624146E5B
:1029B000FE0EDB501720156E14C0E6FFE66EA1EC8C
:1029C0000BF0186E060EE15E1850000902E033EFBE
:1029D00023F0DCEF21F0010EDB50DF6E270EE66EF8
:1029E000CD0EE66ED950020FE66E000EDA20E66ECE
:1029F0001CEC00F0E552E552E552E552D9CFE6FF76
:102A0000DACFE6FFD950020FE66E000EDA20E66E4E
:102A1000DFCF16F0176A16BE1768FD0EDB501624BE
:102A2000146EFE0EDB501720156E14C0E6FFE66E26
:102A30008BEC0AF0186E060EE15E1850000949E0B2
:102A40000701010EEC6FD9CFE6FFDACFE6FFED0EFE
:102A5000E66E070EE66EDFCF16F0176A16BE176831
:102A6000FD0EDB501624146EFE0EDB501720156E83
:102A700014C0E6FFE66EA1EC0BF0186E060EE15EE8
:102A80001850000902E1DCEF21F0D9CFE6FFDACFE0
:102A9000E6FFEE0EE66E070EE66EDFCF16F0176A63
:102AA00016BE1768FD0EDB501624146EFE0EDB50AA
:102AB0001720156E14C0E6FFE66EA1EC0BF0186E41
:102AC000060EE15E1850000902E033EF23F0DCEF60
:102AD00021F0010EDB50DF6E040EE66ECD0EE66EC9
:102AE000D950020FE66E000EDA20E66E1CEC00F004
:102AF000E552E552E552E552D9CFE6FFDACFE6FFDF
:102B0000D950020FE66E000EDA20E66EDFCF16F027
:102B1000176A16BE1768FD0EDB501624146EFE0EE3
:102B2000DB501720156E14C0E6FFE66E8BEC0AF042
:102B3000186E060EE15E1850000949E00701010E0B
:102B4000EF6FD9CFE6FFDACFE6FFF00EE66E070EA5
:102B5000E66EDFCF16F0176A16BE1768FD0EDB5063
:102B60001624146EFE0EDB501720156E14C0E6FFFF
:102B7000E66EA1EC0BF0186E060EE15E185000092F
:102B800002E1DCEF21F0D9CFE6FFDACFE6FFF10E6C
:102B9000E66E070EE66EDFCF16F0176A16BE1768F0
:102BA000FD0EDB501624146EFE0EDB501720156E42
:102BB00014C0E6FFE66EA1EC0BF0186E060EE15EA7
:102BC0001850000902E033EF23F0DCEF21F0010E92
:102BD000DB50DF6E3A0EE66ECD0EE66ED950020F78
:102BE000E66E000EDA20E66E1CEC00F0E552E552CF
:102BF000E552E552D9CFE6FFDACFE6FFD950020F12
:102C0000E66E000EDA20E66EDFCF16F0176A16BE0B
:102C10001768FD0EDB501624146EFE0EDB501720D5
:102C2000156E14C0E6FFE66E8BEC0AF0186E060E09
:102C3000E15E185000091EE00701010EF26FF30E6D
:102C4000E66E070EE66ED9CFE6FFDACFE6FFFD0EA1
:102C5000DBCFE6FFFE0EDBCFE6FF9FEC0CF0146E41
:102C6000060EE15E1450000902E1DCEF21F00701DD
:102C7000280E52D0010EDB50DF6E330EE66ECD0E05
:102C8000E66ED950020FE66E000EDA20E66E1CECFE
:102C900000F0E552E552E552E552D9CFE6FFDACF32
:102CA000E6FFD950020FE66E000EDA20E66EDFCFA7
:102CB00016F0176A16BE1768FD0EDB501624146E48
:102CC000FE0EDB501720156E14C0E6FFE66E8BEC8F
:102CD0000AF0186E060EE15E1850000920E00701A8
:102CE000010EF26FF30EE66E070EE66ED9CFE6FF29
:102CF000DACFE6FFFD0EDBCFE6FFFE0EDBCFE6FF11
:102D00009FEC0CF0146E060EE15E1450000902E117
:102D1000DCEF21F00701290EF76F33EF23F0010EEE
:102D2000DB50DF6E210EE66ECD0EE66ED950020F3F
:102D3000E66E000EDA20E66E1CEC00F0E552E5527D
:102D4000E552E552D9CFE6FFDACFE6FFD950020FC0
:102D5000E66E000EDA20E66EDFCF16F0176A16BEBA
:102D60001768FD0EDB501624146EFE0EDB50172084
:102D7000156E14C0E6FFE66E8BEC0AF0186E060EB8
:102D8000E15E1850000901E12FD20701010EF86F32
:102D9000D9CFE6FFDACFE6FFF90EE66E070EE66E54
:102DA000DFCF16F0176A16BE1768FD0EDB5016242B
:102DB000146EFE0EDB501720156E14C0E6FFE66E93
:102DC000A1EC0BF0186E060EE15E1850000902E14E
:102DD000DCEF21F0FE0EE66ECC0EE66ED950020F4F
:102DE000E66E000EDA20E66E1CEC00F0E552E552CD
:102DF000E552E552D9CFE6FFDACFE6FFD950020F10
:102E0000E66E000EDA20E66EDFCF16F0176A16BE09
:102E10001768FD0EDB501624146EFE0EDB501720D3
:102E2000156E14C0E6FFE66E8BEC0AF0186E060E07
:102E3000E15E1850000902E1DCEF21F0010EDFCF66
:102E4000DBFFF80EE66ECC0EE66ED950020FE66E92
:102E5000000EDA20E66E1CEC00F0E552E552E55279
:102E6000E552D9CFE6FFDACFE6FFD950020FE66E82
:102E7000000EDA20E66EDFCF16F0176A16BE17686E
:102E8000FD0EDB501624146EFE0EDB501720156E5F
:102E900014C0E6FFE66E8BEC0AF0186E060EE15EDB
:102EA0001850000903E00701FA695ED0010EDB50FB
:102EB000DF6EF20EE66ECC0EE66ED950020FE66EB5
:102EC000000EDA20E66E1CEC00F0E552E552E55209
:102ED000E552D9CFE6FFDACFE6FFD950020FE66E12
:102EE000000EDA20E66EDFCF16F0176A16BE1768FE
:102EF000FD0EDB501624146EFE0EDB501720156EEF
:102F000014C0E6FFE66E8BEC0AF0186E060EE15E6A
:102F10001850000904E00701EE0EFA6F25D0010EEB
:102F2000DB50DF6ED9CFE6FFDACFE6FFFA0EE66EB2
:102F3000070EE66EDFCF16F0176A16BE1768FD0E95
:102F4000DB501624146EFE0EDB501720156E14C0D5
:102F5000E6FFE66EA1EC0BF0186E060EE15E18506F
:102F6000000902E1DCEF21F0010EDFCFDBFFED0E07
:102F7000E66ECC0EE66ED950020FE66E000EDA2039
:102F8000E66E1CEC00F0E552E552E552E552D9CF71
:102F9000E6FFDACFE6FFD950020FE66E000EDA2028
:102FA000E66EDFCF16F0176A16BE1768FD0EDB500F
:102FB0001624146EFE0EDB501720156E14C0E6FFAB
:102FC000E66E8BEC0AF0186E060EE15E18500009F2
:102FD00003E00701130E39D0010EDB50DF6EE80E5F
:102FE000E66ECC0EE66ED950020FE66E000EDA20C9
:102FF000E66E1CEC00F0E552E552E552E552D9CF01
:10300000E6FFDACFE6FFD950020FE66E000EDA20B7
:10301000E66EDFCF16F0176A16BE1768FD0EDB509E
:103020001624146EFE0EDB501720156E14C0E6FF3A
:10303000E66E8BEC0AF0186E060EE15E1850000981
:1030400002E1DCEF21F00701140EFB6FE00EE66EEB
:10305000CC0EE66ED950020FE66E000EDA20E66E58
:103060001CEC00F0E552E552E552E552D9CFE6FFFF
:10307000DACFE6FFD950020FE66E000EDA20E66ED8
:10308000DFCF16F0176A16BE1768FD0EDB50162448
:10309000146EFE0EDB501720156E14C0E6FFE66EB0
:1030A0008BEC0AF0186E060EE15E1850000902E182
:1030B000DCEF21F0010EDFCFDBFFF80EE66ECC0E69
:1030C000E66ED950020FE66E000EDA20E66E1CECBA
:1030D00000F0E552E552E552E552D9CFE6FFDACFEE
:1030E000E6FFD950020FE66E000EDA20E66EDFCF63
:1030F00016F0176A16BE1768FD0EDB501624146E04
:10310000FE0EDB501720156E14C0E6FFE66E8BEC4A
:103110000AF0186E060EE15E1850000904E007017F
:10312000FC6933EF23F0010EDB50DF6EF20EE66E2A
:10313000CC0EE66ED950020FE66E000EDA20E66E77
:103140001CEC00F0E552E552E552E552D9CFE6FF1E
:10315000DACFE6FFD950020FE66E000EDA20E66EF7
:10316000DFCF16F0176A16BE1768FD0EDB50162467
:10317000146EFE0EDB501720156E14C0E6FFE66ECF
:103180008BEC0AF0186E060EE15E1850000905E09F
:103190000701EE0EFC6F33EF23F0010EDB50DF6E04
:1031A000D9CFE6FFDACFE6FFFC0EE66E070EE66E3D
:1031B000DFCF16F0176A16BE1768FD0EDB50162417
:1031C000146EFE0EDB501720156E14C0E6FFE66E7F
:1031D000A1EC0BF0186E060EE15E1850000902E03B
:1031E00033EF23F0DCEF21F0010EDB50DF6ED80E61
:1031F000E66ECC0EE66ED950020FE66E000EDA20B7
:10320000E66E1CEC00F0E552E552E552E552D9CFEE
:10321000E6FFDACFE6FFD950020FE66E000EDA20A5
:10322000E66EDFCF16F0176A16BE1768FD0EDB508C
:103230001624146EFE0EDB501720156E14C0E6FF28
:10324000E66E8BEC0AF0186E060EE15E185000096F
:1032500005E00701010EFD6F2E0E21D1010EDB509E
:10326000DF6ED00EE66ECC0EE66ED950020FE66E23
:10327000000EDA20E66E1CEC00F0E552E552E55255
:10328000E552D9CFE6FFDACFE6FFD950020FE66E5E
:10329000000EDA20E66EDFCF16F0176A16BE17684A
:1032A000FD0EDB501624146EFE0EDB501720156E3B
:1032B00014C0E6FFE66E8BEC0AF0186E060EE15EB7
:1032C0001850000905E00701010EFD6F2F0EE7D031
:1032D000010EDB50DF6EC80EE66ECC0EE66ED950E6
:1032E000020FE66E000EDA20E66E1CEC00F0E552EE
:1032F000E552E552E552D9CFE6FFDACFE6FFD950E5
:10330000020FE66E000EDA20E66EDFCF16F0176AC7
:1033100016BE1768FD0EDB501624146EFE0EDB5031
:103320001720156E14C0E6FFE66E8BEC0AF0186EDF
:10333000060EE15E1850000905E00701010EFD6F61
:10334000300EADD0010EDB50DF6EC00EE66ECC0E3F
:10335000E66ED950020FE66E000EDA20E66E1CEC27
:1033600000F0E552E552E552E552D9CFE6FFDACF5B
:10337000E6FFD950020FE66E000EDA20E66EDFCFD0
:1033800016F0176A16BE1768FD0EDB501624146E71
:10339000FE0EDB501720156E14C0E6FFE66E8BECB8
:1033A0000AF0186E060EE15E1850000905E00701EC
:1033B000010EFD6F310E73D0010EDB50DF6EB90EC2
:1033C000E66ECC0EE66ED950020FE66E000EDA20E5
:1033D000E66E1CEC00F0E552E552E552E552D9CF1D
:1033E000E6FFDACFE6FFD950020FE66E000EDA20D4
:1033F000E66EDFCF16F0176A16BE1768FD0EDB50BB
:103400001624146EFE0EDB501720156E14C0E6FF56
:10341000E66E8BEC0AF0186E060EE15E185000099D
:1034200005E00701010EFD6F2B0E39D0010EDB50B8
:10343000DF6EAF0EE66ECC0EE66ED950020FE66E72
:10344000000EDA20E66E1CEC00F0E552E552E55283
:10345000E552D9CFE6FFDACFE6FFD950020FE66E8C
:10346000000EDA20E66EDFCF16F0176A16BE176878
:10347000FD0EDB501624146EFE0EDB501720156E69
:1034800014C0E6FFE66E8BEC0AF0186E060EE15EE5
:103490001850000907E00701010EFD6F2C0EFE6FAA
:1034A00033EF23F0010EDB50DF6E540EE66ECD0ECF
:1034B000E66ED950020FE66E000EDA20E66E1CECC6
:1034C00000F0E552E552E552E552D9CFE6FFDACFFA
:1034D000E6FFD950020FE66E000EDA20E66EDFCF6F
:1034E00016F0176A16BE1768FD0EDB501624146E10
:1034F000FE0EDB501720156E14C0E6FFE66E8BEC57
:103500000AF0186E060EE15E1850000902E1DCEFC9
:1035100021F00701010EFF6FD9CFE6FFDACFE6FFFA
:10352000000EE66E080EE66EDFCF16F0176A16BEC6
:103530001768FD0EDB501624146EFE0EDB501720AC
:10354000156E14C0E6FFE66EA1EC0BF0186E060EC9
:10355000E15E1850000902E1DCEF21F0D9CFE6FF6F
:10356000DACFE6FF010EE66E080EE66EDFCF16F04C
:10357000176A16BE1768FD0EDB501624146EFE0E79
:10358000DB501720156E14C0E6FFE66EA1EC0BF0C1
:10359000186E060EE15E1850000902E033EF23F0CA
:1035A000DCEF21F0010EDB50DF6EAB0EE66ECC0ED1
:1035B000E66ED950020FE66E000EDA20E66E1CECC5
:1035C00000F0E552E552E552E552D9CFE6FFDACFF9
:1035D000E6FFD950020FE66E000EDA20E66EDFCF6E
:1035E00016F0176A16BE1768FD0EDB501624146E0F
:1035F000FE0EDB501720156E14C0E6FFE66E8BEC56
:103600000AF0186E060EE15E1850000927E0080166
:10361000010E076FD9CFE6FFDACFE6FF080EE66EA0
:10362000080EE66EDFCF16F0176A16BE1768FD0E9D
:10363000DB501624146EFE0EDB501720156E14C0DE
:10364000E6FFE66EA1EC0BF0186E060EE15E185078
:10365000000902E033EF23F0DCEF21F0DF6AA70E70
:10366000E66ECC0EE66ED950020FE66E000EDA2042
:10367000E66E1CEC00F0E552E552E552E552D9CF7A
:10368000E6FFDACFE6FFD950020FE66E000EDA2031
:10369000E66EDFCF16F0176A16BE1768FD0EDB5018
:1036A0001624146EFE0EDB501720156E14C0E6FFB4
:1036B000E66E8BEC0AF0186E060EE15E18500009FB
:1036C00002E137EF23F00701020EB26FD9CFE6FF18
:1036D000DACFE6FFB30EE66E070EE66EDFCF16F02A
:1036E000176A16BE1768FD0EDB501624146EFE0E08
:1036F000DB501720156E14C0E6FFE66EA1EC0BF050
:10370000186E060EE15E1850000902E1DCEF21F0B0
:10371000010EDFCFDBFF4B0EE66ECD0EE66ED9500D
:10372000020FE66E000EDA20E66E1CEC00F0E552A9
:10373000E552E552E552D9CFE6FFDACFE6FFD950A0
:10374000020FE66E000EDA20E66EDFCF16F0176A83
:1037500016BE1768FD0EDB501624146EFE0EDB50ED
:103760001720156E14C0E6FFE66E8BEC0AF0186E9B
:10377000060EE15E1850000949E00701010EB56F21
:10378000D9CFE6FFDACFE6FFB60EE66E070EE66E9D
:10379000DFCF16F0176A16BE1768FD0EDB50162431
:1037A000146EFE0EDB501720156E14C0E6FFE66E99
:1037B000A1EC0BF0186E060EE15E1850000902E154
:1037C000DCEF21F0D9CFE6FFDACFE6FFB70EE66EE9
:1037D000070EE66EDFCF16F0176A16BE1768FD0EED
:1037E000DB501624146EFE0EDB501720156E14C02D
:1037F000E6FFE66EA1EC0BF0186E060EE15E1850C7
:10380000000902E033EF23F0DCEF21F0010EDB5082
:10381000DF6E270EE66ECD0EE66ED950020FE66E15
:10382000000EDA20E66E1CEC00F0E552E552E5529F
:10383000E552D9CFE6FFDACFE6FFD950020FE66EA8
:10384000000EDA20E66EDFCF16F0176A16BE176894
:10385000FD0EDB501624146EFE0EDB501720156E85
:1038600014C0E6FFE66E8BEC0AF0186E060EE15E01
:103870001850000949E00701010EB86FD9CFE6FFE3
:10388000DACFE6FFB90EE66E070EE66EDFCF16F072
:10389000176A16BE1768FD0EDB501624146EFE0E56
:1038A000DB501720156E14C0E6FFE66EA1EC0BF09E
:1038B000186E060EE15E1850000902E1DCEF21F0FF
:1038C000D9CFE6FFDACFE6FFBA0EE66E070EE66E58
:1038D000DFCF16F0176A16BE1768FD0EDB501624F0
:1038E000146EFE0EDB501720156E14C0E6FFE66E58
:1038F000A1EC0BF0186E060EE15E1850000902E014
:1039000033EF23F0DCEF21F0010EDB50DF6E040E0D
:10391000E66ECD0EE66ED950020FE66E000EDA208E
:10392000E66E1CEC00F0E552E552E552E552D9CFC7
:10393000E6FFDACFE6FFD950020FE66E000EDA207E
:10394000E66EDFCF16F0176A16BE1768FD0EDB5065
:103950001624146EFE0EDB501720156E14C0E6FF01
:10396000E66E8BEC0AF0186E060EE15E1850000948
:1039700049E00701010EBB6FD9CFE6FFDACFE6FFC2
:10398000BC0EE66E070EE66EDFCF16F0176A16BEA7
:103990001768FD0EDB501624146EFE0EDB50172048
:1039A000156E14C0E6FFE66EA1EC0BF0186E060E65
:1039B000E15E1850000902E1DCEF21F0D9CFE6FF0B
:1039C000DACFE6FFBD0EE66E070EE66EDFCF16F02D
:1039D000176A16BE1768FD0EDB501624146EFE0E15
:1039E000DB501720156E14C0E6FFE66EA1EC0BF05D
:1039F000186E060EE15E1850000902E033EF23F066
:103A0000DCEF21F0010EDB50DF6E3A0EE66ECD0EDC
:103A1000E66ED950020FE66E000EDA20E66E1CEC60
:103A200000F0E552E552E552E552D9CFE6FFDACF94
:103A3000E6FFD950020FE66E000EDA20E66EDFCF09
:103A400016F0176A16BE1768FD0EDB501624146EAA
:103A5000FE0EDB501720156E14C0E6FFE66E8BECF1
:103A60000AF0186E060EE15E185000091EE007010C
:103A7000010EBE6FBF0EE66E070EE66ED9CFE6FFF3
:103A8000DACFE6FFFD0EDBCFE6FFFE0EDBCFE6FF73
:103A90009FEC0CF0146E060EE15E1450000902E17A
:103AA000DCEF21F00701280E52D0010EDB50DF6E53
:103AB000330EE66ECD0EE66ED950020FE66E000EA6
:103AC000DA20E66E1CEC00F0E552E552E552E552D4
:103AD000D9CFE6FFDACFE6FFD950020FE66E000E2F
:103AE000DA20E66EDFCF16F0176A16BE1768FD0EF5
:103AF000DB501624146EFE0EDB501720156E14C01A
:103B0000E6FFE66E8BEC0AF0186E060EE15E1850CA
:103B1000000920E00701010EBE6FBF0EE66E070E22
:103B2000E66ED9CFE6FFDACFE6FFFD0EDBCFE6FF8C
:103B3000FE0EDBCFE6FF9FEC0CF0146E060EE15E8E
:103B40001450000902E1DCEF21F00701290EC36FD8
:103B500033EF23F0010EDB50DF6E210EE66ECD0E4B
:103B6000E66ED950020FE66E000EDA20E66E1CEC0F
:103B700000F0E552E552E552E552D9CFE6FFDACF43
:103B8000E6FFD950020FE66E000EDA20E66EDFCFB8
:103B900016F0176A16BE1768FD0EDB501624146E59
:103BA000FE0EDB501720156E14C0E6FFE66E8BECA0
:103BB0000AF0186E060EE15E1850000901E126D2E7
:103BC0000701010EC46FD9CFE6FFDACFE6FFC50EBD
:103BD000E66E070EE66EDFCF16F0176A16BE1768A0
:103BE000FD0EDB501624146EFE0EDB501720156EF2
:103BF00014C0E6FFE66EA1EC0BF0186E060EE15E57
:103C00001850000901E1D8D3FE0EE66ECC0EE66E28
:103C1000D950020FE66E000EDA20E66E1CEC00F0C2
:103C2000E552E552E552E552D9CFE6FFDACFE6FF9D
:103C3000D950020FE66E000EDA20E66EDFCF16F0E6
:103C4000176A16BE1768FD0EDB501624146EFE0EA2
:103C5000DB501720156E14C0E6FFE66E8BEC0AF001
:103C6000186E060EE15E1850000901E1A5D3010EA1
:103C7000DFCFDBFFF80EE66ECC0EE66ED950020FFA
:103C8000E66E000EDA20E66E1CEC00F0E552E5521E
:103C9000E552E552D9CFE6FFDACFE6FFD950020F61
:103CA000E66E000EDA20E66EDFCF16F0176A16BE5B
:103CB0001768FD0EDB501624146EFE0EDB50172025
:103CC000156E14C0E6FFE66E8BEC0AF0186E060E59
:103CD000E15E1850000903E00701C6695DD0010EDE
:103CE000DB50DF6EF20EE66ECC0EE66ED950020FA0
:103CF000E66E000EDA20E66E1CEC00F0E552E552AE
:103D0000E552E552D9CFE6FFDACFE6FFD950020FF0
:103D1000E66E000EDA20E66EDFCF16F0176A16BEEA
:103D20001768FD0EDB501624146EFE0EDB501720B4
:103D3000156E14C0E6FFE66E8BEC0AF0186E060EE8
:103D4000E15E1850000904E00701EE0EC66F24D0B2
:103D5000010EDB50DF6ED9CFE6FFDACFE6FFC60EED
:103D6000E66E070EE66EDFCF16F0176A16BE17680E
:103D7000FD0EDB501624146EFE0EDB501720156E60
:103D800014C0E6FFE66EA1EC0BF0186E060EE15EC5
:103D90001850000901E110D3010EDFCFDBFFED0E5B
:103DA000E66ECC0EE66ED950020FE66E000EDA20FB
:103DB000E66E1CEC00F0E552E552E552E552D9CF33
:103DC000E6FFDACFE6FFD950020FE66E000EDA20EA
:103DD000E66EDFCF16F0176A16BE1768FD0EDB50D1
:103DE0001624146EFE0EDB501720156E14C0E6FF6D
:103DF000E66E8BEC0AF0186E060EE15E18500009B4
:103E000003E00701130E38D0010EDB50DF6EE80E21
:103E1000E66ECC0EE66ED950020FE66E000EDA208A
:103E2000E66E1CEC00F0E552E552E552E552D9CFC2
:103E3000E6FFDACFE6FFD950020FE66E000EDA2079
:103E4000E66EDFCF16F0176A16BE1768FD0EDB5060
:103E50001624146EFE0EDB501720156E14C0E6FFFC
:103E6000E66E8BEC0AF0186E060EE15E1850000943
:103E700001E1A2D20701140EC76FE00EE66ECC0E70
:103E8000E66ED950020FE66E000EDA20E66E1CECEC
:103E900000F0E552E552E552E552D9CFE6FFDACF20
:103EA000E6FFD950020FE66E000EDA20E66EDFCF95
:103EB00016F0176A16BE1768FD0EDB501624146E36
:103EC000FE0EDB501720156E14C0E6FFE66E8BEC7D
:103ED0000AF0186E060EE15E1850000901E16CD27E
:103EE000010EDFCFDBFFF80EE66ECC0EE66ED9508A
:103EF000020FE66E000EDA20E66E1CEC00F0E552D2
:103F0000E552E552E552D9CFE6FFDACFE6FFD950C8
:103F1000020FE66E000EDA20E66EDFCF16F0176AAB
:103F200016BE1768FD0EDB501624146EFE0EDB5015
:103F30001720156E14C0E6FFE66E8BEC0AF0186EC3
:103F4000060EE15E1850000903E00701C8698BD333
:103F5000010EDB50DF6EF20EE66ECC0EE66ED9502F
:103F6000020FE66E000EDA20E66E1CEC00F0E55261
:103F7000E552E552E552D9CFE6FFDACFE6FFD95058
:103F8000020FE66E000EDA20E66EDFCF16F0176A3B
:103F900016BE1768FD0EDB501624146EFE0EDB50A5
:103FA0001720156E14C0E6FFE66E8BEC0AF0186E53
:103FB000060EE15E1850000904E00701EE0EC86F1E
:103FC00052D3010EDB50DF6ED9CFE6FFDACFE6FF2A
:103FD000C80EE66E070EE66EDFCF16F0176A16BE45
:103FE0001768FD0EDB501624146EFE0EDB501720F2
:103FF000156E14C0E6FFE66EA1EC0BF0186E060E0F
:10400000E15E1850000901E02ED3D6D1010EDB503D
:10401000DF6ED80EE66ECC0EE66ED950020FE66E5D
:10402000000EDA20E66E1CEC00F0E552E552E55297
:10403000E552D9CFE6FFDACFE6FFD950020FE66EA0
:10404000000EDA20E66EDFCF16F0176A16BE17688C
:10405000FD0EDB501624146EFE0EDB501720156E7D
:1040600014C0E6FFE66E8BEC0AF0186E060EE15EF9
:104070001850000905E00701010EC96F2E0E21D16D
:10408000010EDB50DF6ED00EE66ECC0EE66ED95020
:10409000020FE66E000EDA20E66E1CEC00F0E55230
:1040A000E552E552E552D9CFE6FFDACFE6FFD95027
:1040B000020FE66E000EDA20E66EDFCF16F0176A0A
:1040C00016BE1768FD0EDB501624146EFE0EDB5074
:1040D0001720156E14C0E6FFE66E8BEC0AF0186E22
:1040E000060EE15E1850000905E00701010EC96FD8
:1040F0002F0EE7D0010EDB50DF6EC80EE66ECC0E41
:10410000E66ED950020FE66E000EDA20E66E1CEC69
:1041100000F0E552E552E552E552D9CFE6FFDACF9D
:10412000E6FFD950020FE66E000EDA20E66EDFCF12
:1041300016F0176A16BE1768FD0EDB501624146EB3
:10414000FE0EDB501720156E14C0E6FFE66E8BECFA
:104150000AF0186E060EE15E1850000905E007012E
:10416000010EC96F300EADD0010EDB50DF6EC00EF8
:10417000E66ECC0EE66ED950020FE66E000EDA2027
:10418000E66E1CEC00F0E552E552E552E552D9CF5F
:10419000E6FFDACFE6FFD950020FE66E000EDA2016
:1041A000E66EDFCF16F0176A16BE1768FD0EDB50FD
:1041B0001624146EFE0EDB501720156E14C0E6FF99
:1041C000E66E8BEC0AF0186E060EE15E18500009E0
:1041D00005E00701010EC96F310E73D0010EDB50EF
:1041E000DF6EB90EE66ECC0EE66ED950020FE66EAB
:1041F000000EDA20E66E1CEC00F0E552E552E552C6
:10420000E552D9CFE6FFDACFE6FFD950020FE66ECE
:10421000000EDA20E66EDFCF16F0176A16BE1768BA
:10422000FD0EDB501624146EFE0EDB501720156EAB
:1042300014C0E6FFE66E8BEC0AF0186E060EE15E27
:104240001850000905E00701010EC96F2B0E39D087
:10425000010EDB50DF6EAF0EE66ECC0EE66ED9506F
:10426000020FE66E000EDA20E66E1CEC00F0E5525E
:10427000E552E552E552D9CFE6FFDACFE6FFD95055
:10428000020FE66E000EDA20E66EDFCF16F0176A38
:1042900016BE1768FD0EDB501624146EFE0EDB50A2
:1042A0001720156E14C0E6FFE66E8BEC0AF0186E50
:1042B000060EE15E1850000906E00701010EC96F05
:1042C0002C0ECA6FD0D1010EDB50DF6E540EE66E9D
:1042D000CD0EE66ED950020FE66E000EDA20E66EC5
:1042E0001CEC00F0E552E552E552E552D9CFE6FF6D
:1042F000DACFE6FFD950020FE66E000EDA20E66E46
:10430000DFCF16F0176A16BE1768FD0EDB501624B5
:10431000146EFE0EDB501720156E14C0E6FFE66E1D
:104320008BEC0AF0186E060EE15E1850000946E0AC
:104330000701010ECB6FD9CFE6FFDACFE6FFCC0E37
:10434000E66E070EE66EDFCF16F0176A16BE176828
:10435000FD0EDB501624146EFE0EDB501720156E7A
:1043600014C0E6FFE66EA1EC0BF0186E060EE15EDF
:104370001850000921E0D9CFE6FFDACFE6FFCD0ED5
:10438000E66E070EE66EDFCF16F0176A16BE1768E8
:10439000FD0EDB501624146EFE0EDB501720156E3A
:1043A00014C0E6FFE66EA1EC0BF0186E060EE15E9F
:1043B0001850000901E057D1000E5AD1010EDB5010
:1043C000DF6EA10EE66ECC0EE66ED950020FE66EE1
:1043D000000EDA20E66E1CEC00F0E552E552E552E4
:1043E000E552D9CFE6FFDACFE6FFD950020FE66EED
:1043F000000EDA20E66EDFCF16F0176A16BE1768D9
:10440000FD0EDB501624146EFE0EDB501720156EC9
:1044100014C0E6FFE66E8BEC0AF0186E060EE15E45
:104420001850000904E00701010ECE6F1CD1010EE7
:10443000DB50DF6E9B0EE66ECC0EE66ED950020F9F
:10444000E66E000EDA20E66E1CEC00F0E552E55256
:10445000E552E552D9CFE6FFDACFE6FFD950020F99
:10446000E66E000EDA20E66EDFCF16F0176A16BE93
:104470001768FD0EDB501624146EFE0EDB5017205D
:10448000156E14C0E6FFE66E8BEC0AF0186E060E91
:10449000E15E1850000904E00701010ECF6FE3D080
:1044A000010EDB50DF6E950EE66ECC0EE66ED95037
:1044B000020FE66E000EDA20E66E1CEC00F0E5520C
:1044C000E552E552E552D9CFE6FFDACFE6FFD95003
:1044D000020FE66E000EDA20E66EDFCF16F0176AE6
:1044E00016BE1768FD0EDB501624146EFE0EDB5050
:1044F0001720156E14C0E6FFE66E8BEC0AF0186EFE
:10450000060EE15E1850000904E00701010ED06FAD
:10451000AAD0010EDB50DF6E8F0EE66ECC0EE66E7B
:10452000D950020FE66E000EDA20E66E1CEC00F0A9
:10453000E552E552E552E552D9CFE6FFDACFE6FF84
:10454000D950020FE66E000EDA20E66EDFCF16F0CD
:10455000176A16BE1768FD0EDB501624146EFE0E89
:10456000DB501720156E14C0E6FFE66E8BEC0AF0E8
:10457000186E060EE15E1850000904E00701010EF6
:10458000D16F71D0010EDB50DF6E870EE66ECC0E60
:10459000E66ED950020FE66E000EDA20E66E1CECD5
:1045A00000F0E552E552E552E552D9CFE6FFDACF09
:1045B000E6FFD950020FE66E000EDA20E66EDFCF7E
:1045C00016F0176A16BE1768FD0EDB501624146E1F
:1045D000FE0EDB501720156E14C0E6FFE66E8BEC66
:1045E0000AF0186E060EE15E1850000904E007019B
:1045F000010ED26F38D0010EDB50DF6E820EE66EF8
:10460000CC0EE66ED950020FE66E000EDA20E66E92
:104610001CEC00F0E552E552E552E552D9CFE6FF39
:10462000DACFE6FFD950020FE66E000EDA20E66E12
:10463000DFCF16F0176A16BE1768FD0EDB50162482
:10464000146EFE0EDB501720156E14C0E6FFE66EEA
:104650008BEC0AF0186E060EE15E1850000907E0B8
:104660000701010ED36F77EC09F0010E01D0000EA7
:10467000146E0D0EE15C02E2E16AE552E16E145047
:10468000E552E7CFD9FF1200D9CFE6FFE1CFD9FF3E
:10469000030EE126010EDB6ADF6ADFCF14F0620E43
:1046A000E76E1418E8AE02D0E73402D0E750145C8D
:1046B0000CE2DFCFE9FFEA6AE9BEEA68140EE926F8
:1046C000080EEA22EF6ADF2AE8D7DF6ADFCF14F0AC
:1046D0004E0EE76E1418E8AE02D0E73402D0E75071
:1046E000145C53E2DFCFE9FFEA6AE9BEEA68B20E82
:1046F000E926070EEA22EF5048E0020EDB6ADBCF24
:1047000014F0DFCFE9FFEA6AE9BEEA68B20EE926F3
:10471000070EEA22EF50E76E1418E8AE02D0E73435
:1047200002D0E750145C2EE2010EDBCF14F0620ED3
:10473000E76E1418E8AE02D0E73402D0E750145CFC
:1047400003E34ED9000E48D0DF28E96EEA6AE9BEDD
:10475000EA68B20EE926070EEA22EF50E66E010E75
:10476000DBCFF3FFDB2AF350E96EEA6AE9BEEA68C1
:10477000140EE926080EEA22E552E750EF6E020E0B
:10478000DB2ABDD7020EDF26A1D7DF6ADFCF14F008
:10479000620EE76E1418E8AE02D0E73402D0E7509C
:1047A000145C19E2DFCFE9FFEA6AE9BEEA68140E99
:1047B000E926080EEA22EF50E66EDFCFE9FFEA6A4B
:1047C000E9BEEA68B20EE926070EEA22E552E75092
:1047D000EF6EDF2ADBD7010E146E030EE15C02E2FE
:1047E000E16AE552E16E1450E552E7CFD9FF1200BD
:1047F000D9CFE6FFE1CFD9FF040EE126010EDB6A37
:10480000DF6A030EB2C7DBFF020EDB6A010EDBCFED
:1048100014F0620EE76E1418E8AE02D0E73402D04E
:10482000E750145C01E38AD0010EDBCFE9FFEA6AAE
:10483000E9BEEA68B20EE926070EEA22EFCF14F0CD
:10484000030EDB50145C10E1020EDB2A010EDB2AA2
:10485000DBCF14F0620EE76E1418E8AE02D0E73436
:1048600002D0E750145CE0E3DFCF14F04F0EE76EA8
:104870001418E8AE02D0E73402D0E750145C26E208
:10488000DFCF15F0600EE76E1518E8AE02D0E73402
:1048900002D0E750155C1AE2DF50DF2AE96EEA6ABF
:1048A000E9BEEA68140EE926080EEA22020EDBCF02
:1048B000EFFFDF50DF2AE96EEA6AE9BEEA68140E0C
:1048C000E926080EEA22030EDBCFEFFFDFCF14F05C
:1048D000500EE76E1418E8AE02D0E73402D0E7506D
:1048E000145C1EE3010EDB6ADBCF14F0620EE76E90
:1048F0001418E8AE02D0E73402D0E750145C0EE2A0
:10490000010EDBCFE9FFEA6AE9BEEA68B20EE926EA
:10491000070EEA22EF6A010EDB2AE6D7000E54D01A
:10492000010EDBCFE9FFEA6AE9BEEA68B20EE926CA
:10493000070EEA22030EEFCFDBFF66D7010EDB6A1C
:10494000DBCF14F0DF50E76E1418E8AE02D0E73486
:1049500002D0E750145C1CE2010EDBCFE9FFEA6AEB
:10496000E9BEEA68140EE926080EEA22EF50E66E68
:10497000010EDBCFE9FFEA6AE9BEEA68B20EE9267A
:10498000070EEA22E552E750EF6E010EDB2AD8D778
:10499000010EDBCF14F0620EE76E1418E8AE02D001
:1049A000E73402D0E750145C0EE2010EDBCFE9FFE2
:1049B000EA6AE9BEEA68B20EE926070EEA22EF6A61
:1049C000010EDB2AE5D7DF50146E040EE15C02E233
:1049D000E16AE552E16E1450E552E7CFD9FF1200CB
:1049E000D9CFE6FFE1CFD9FFE652DF6A620EDF5C86
:1049F00009E2DF50EA6AB20FE96E070EEA22EF6AB7
:104A0000DF2AF4D7E552E552E7CFD9FF1200D9CF1C
:104A1000E6FFE1CFD9FFE652FE0EDBCF14F0000136
:104A20006F51E76E1418E8AE02D0E73402D0E750B9
:104A3000145C1DE3FE0EDBCF14F0156A14BE15687E
:104A400014C0E6FF15C0E6FF900EE66ECD0EE66ED2
:104A5000760EE66E070EE66E1CEC00F0166E060E85
:104A6000E15E16500001150E706F000E54D0DF6A23
:104A7000DFCF14F00F0EE76E1418E8AE02D0E73463
:104A800002D0E750145C45E2010E696F6FC018F068
:104A9000196A18BE19680F0E1902F3CF19F018021F
:104AA000F3CF18F0F4501926760E1826080E1922A6
:104AB000DFCF1AF01B6A1ABE1B6818501A24E96E61
:104AC00019501B20EA6EEF50E66EFE0EDBCF14F09D
:104AD000156A14BE15680F0E1502F3CF15F01402F7
:104AE000F3CF14F0F4501526760E1426080E152276
:104AF000DFCF16F0176A16BE176814501624E96E39
:104B000015501720EA6EE552E750EF6E696BDF2A09
:104B1000AFD71BEC07F0E552E552E7CFD9FF120003
:104B2000D9CFE6FFE1CFD9FF050EE126FE0EDBCFA0
:104B300014F0460EE76E1418E8AE02D0E73402D047
:104B4000E750145C16E3FE0EDBCFE6FF900EE66E38
:104B5000CD0EE66E760EE66E070EE66E1CEC00F0ED
:104B6000146E050EE15E14500001110E706F000E00
:104B7000EAD30001010E696F0701DE0560E1FE0E58
:104B8000DBCFE9FFEA6AE9BEEA680F0EEA02F3CF7B
:104B9000EAFFE902F3CFE9FFF450EA26760EE926B0
:104BA000080EEA22EF6AFE0EDBCFE9FFEA6AE9BEF1
:104BB000EA680F0EEA02F3CFEAFFE902F3CFE9FF5A
:104BC000F450EA26760EE926080EEA22010EE926BE
:104BD000000EEA22DFC7EFFFFE0EDBCFE9FFEA6A35
:104BE000E9BEEA680F0EEA02F3CFEAFFE902F3CF6B
:104BF000E9FFF450EA26760EE926080EEA22020EB4
:104C0000E926000EEA22E0C7EFFFFE0EDBCFE9FF48
:104C1000EA6AE9BEEA680F0EEA02F3CFEAFFE902A8
:104C2000F3CFE9FFF450EA26760EE926080EEA22D1
:104C3000030EE926000EEA22E1C7EFFFACD0E20541
:104C400048E1FE0EDBCFE9FFEA6AE9BEEA680F0E33
:104C5000EA02F3CFEAFFE902F3CFE9FFF450EA26D4
:104C6000760EE926080EEA22010EEF6EFE0EDBCF6D
:104C7000E9FFEA6AE9BEEA680F0EEA02F3CFEAFF4B
:104C8000E902F3CFE9FFF450EA26760EE926080E92
:104C9000EA22010EE926000EEA22E3C7EFFFFE0E2C
:104CA000DBCFE9FFEA6AE9BEEA680F0EEA02F3CF5A
:104CB000EAFFE902F3CFE9FFF450EA26760EE9268F
:104CC000080EEA22020EE926000EEA22E4C7EFFFF0
:104CD00062D0E50560E1FE0EDBCFE9FFEA6AE9BEDE
:104CE000EA680F0EEA02F3CFEAFFE902F3CFE9FF29
:104CF000F450EA26760EE926080EEA22020EEF6E3E
:104D0000FE0EDBCFE9FFEA6AE9BEEA680F0EEA02AF
:104D1000F3CFEAFFE902F3CFE9FFF450EA26760E7B
:104D2000E926080EEA22010EE926000EEA22E6C76D
:104D3000EFFFFE0EDBCFE9FFEA6AE9BEEA680F0E7D
:104D4000EA02F3CFEAFFE902F3CFE9FFF450EA26E3
:104D5000760EE926080EEA22020EE926000EEA2265
:104D6000E7C7EFFFFE0EDBCFE9FFEA6AE9BEEA68BC
:104D70000F0EEA02F3CFEAFFE902F3CFE9FFF450A6
:104D8000EA26760EE926080EEA22030EE926000E30
:104D9000EA22E8C7EFFFE9054BE1FE0EDBCFE9FFB2
:104DA000EA6AE9BEEA680F0EEA02F3CFEAFFE90217
:104DB000F3CFE9FFF450EA26760EE926080EEA2240
:104DC000040EE926000EEA22EF6AFE0EDBCFE9FFB1
:104DD000EA6AE9BEEA680F0EEA02F3CFEAFFE902E7
:104DE000F3CFE9FFF450EA26760EE926080EEA2210
:104DF000050EE926000EEA22EAC7EFFFFE0EDBCF22
:104E0000E9FFEA6AE9BEEA680F0EEA02F3CFEAFFB9
:104E1000E902F3CFE9FFF450EA26760EE926080E00
:104E2000EA22060EE926000EEA22EBC7EFFF06D2C1
:104E3000EC054CE1FE0EDBCFE9FFEA6AE9BEEA6869
:104E40000F0EEA02F3CFEAFFE902F3CFE9FFF450D5
:104E5000EA26760EE926080EEA22040EE926000E5E
:104E6000EA22010EEF6EFE0EDBCFE9FFEA6AE9BE31
:104E7000EA680F0EEA02F3CFEAFFE902F3CFE9FF97
:104E8000F450EA26760EE926080EEA22050EE926F7
:104E9000000EEA22EDC7EFFFFE0EDBCFE9FFEA6A64
:104EA000E9BEEA680F0EEA02F3CFEAFFE902F3CFA8
:104EB000E9FFF450EA26760EE926080EEA22060EED
:104EC000E926000EEA22EEC7EFFFB8D1EF054CE16C
:104ED000FE0EDBCFE9FFEA6AE9BEEA680F0EEA02DE
:104EE000F3CFEAFFE902F3CFE9FFF450EA26760EAA
:104EF000E926080EEA22040EE926000EEA22020E36
:104F0000EF6EFE0EDBCFE9FFEA6AE9BEEA680F0E3C
:104F1000EA02F3CFEAFFE902F3CFE9FFF450EA2611
:104F2000760EE926080EEA22050EE926000EEA2290
:104F3000F0C7EFFFFE0EDBCFE9FFEA6AE9BEEA68E1
:104F40000F0EEA02F3CFEAFFE902F3CFE9FFF450D4
:104F5000EA26760EE926080EEA22060EE926000E5B
:104F6000EA22F1C7EFFF6AD1F20565E1FE0EDBCF61
:104F7000E9FFEA6AE9BEEA680F0EEA02F3CFEAFF48
:104F8000E902F3CFE9FFF450EA26760EE926080E8F
:104F9000EA22040EE926000EEA22030EEF6EFE0E50
:104FA000DBCFE9FFEA6AE9BEEA680F0EEA02F3CF57
:104FB000EAFFE902F3CFE9FFF450EA26760EE9268C
:104FC000080EEA22050EE926000EEA22F3C7EFFFDB
:104FD000FE0EDBCFE9FFEA6AE9BEEA680F0EEA02DD
:104FE000F3CFEAFFE902F3CFE9FFF450EA26760EA9
:104FF000E926080EEA22060EE926000EEA22F4C788
:10500000EFFFFE0EDBCFE9FFEA6AE9BEEA680F0EAA
:10501000EA02F3CFEAFFE902F3CFE9FFF450EA2610
:10502000760EE926080EEA22070EE926000EEA228D
:10503000F7C7EFFF03D1F80501E07ED0FE0EDBCF0E
:10504000E9FFEA6AE9BEEA680F0EEA02F3CFEAFF77
:10505000E902F3CFE9FFF450EA26760EE926080EBE
:10506000EA22040EE926000EEA22040EEF6EFE0E7E
:10507000DBCFE9FFEA6AE9BEEA680F0EEA02F3CF86
:10508000EAFFE902F3CFE9FFF450EA26760EE926BB
:10509000080EEA22050EE926000EEA22F9C7EFFF04
:1050A000FE0EDBCFE9FFEA6AE9BEEA680F0EEA020C
:1050B000F3CFEAFFE902F3CFE9FFF450EA26760ED8
:1050C000E926080EEA22060EE926000EEA22FAC7B1
:1050D000EFFFFE0EDBCFE9FFEA6AE9BEEA680F0EDA
:1050E000EA02F3CFEAFFE902F3CFE9FFF450EA2640
:1050F000760EE926080EEA22070EE926000EEA22BD
:10510000FBC7EFFFFE0EDBCFE9FFEA6AE9BEEA6804
:105110000F0EEA02F3CFEAFFE902F3CFE9FFF45002
:10512000EA26760EE926080EEA22080EE926000E87
:10513000EA22FCC7EFFF82D0FD0533E1FE0EDBCF94
:10514000E9FFEA6AE9BEEA680F0EEA02F3CFEAFF76
:10515000E902F3CFE9FFF450EA26760EE926080EBD
:10516000EA22040EE926000EEA22050EEF6EFE0E7C
:10517000DBCFE9FFEA6AE9BEEA680F0EEA02F3CF85
:10518000EAFFE902F3CFE9FFF450EA26760EE926BA
:10519000080EEA22050EE926000EEA22FEC7EFFFFE
:1051A0004DD0FF054BE1FE0EDBCFE9FFEA6AE9BE19
:1051B000EA680F0EEA02F3CFEAFFE902F3CFE9FF54
:1051C000F450EA26760EE926080EEA22040EE926B5
:1051D000000EEA22060EEF6EFE0EDBCFE9FFEA6A52
:1051E000E9BEEA680F0EEA02F3CFEAFFE902F3CF65
:1051F000E9FFF450EA26760EE926080EEA22050EAB
:10520000E926000EEA2200C8EFFFFE0EDBCFE9FF21
:10521000EA6AE9BEEA680F0EEA02F3CFEAFFE902A2
:10522000F3CFE9FFF450EA26760EE926080EEA22CB
:10523000060EE926000EEA2201C8EFFFFE0EDBCFC4
:10524000E9FFEA6AE9BEEA680F0EEA02F3CFEAFF75
:10525000E902F3CFE9FFF450EA26760EE926080EBC
:10526000EA22090EE926000EEA2202C8EFFFFE0E2E
:10527000DBCFE9FFEA6AE9BEEA680F0EEA02F3CF84
:10528000EAFFE902F3CFE9FFF450EA26760EE926B9
:10529000080EEA220A0EE926000EEA2203C8EFFFF2
:1052A000FE0EDBCFE9FFEA6AE9BEEA680F0EEA020A
:1052B000F3CFEAFFE902F3CFE9FFF450EA26760ED6
:1052C000E926080EEA220B0EE926000EEA2204C89F
:1052D000EFFFFE0EDBCFE9FFEA6AE9BEEA680F0ED8
:1052E000EA02F3CFEAFFE902F3CFE9FFF450EA263E
:1052F000760EE926080EEA220C0EE926000EEA22B6
:1053000005C8EFFFFE0EDBCFE9FFEA6AE9BEEA68F7
:105310000F0EEA02F3CFEAFFE902F3CFE9FFF45000
:10532000EA26760EE926080EEA220D0EE926000E80
:10533000EA22EF6AFE0EDB5000016F5D01E16F2B88
:10534000696B1BEC07F0146E050EE15C02E2E16A8A
:10535000E552E16E1450E552E7CFD9FF1200D9CFE4
:10536000E6FFE1CFD9FF020EE126F0EC24F00701C1
:10537000020EB26F60C0B3F7030EDF6EDFCF14F022
:105380001B0EE76E1418E8AE02D0143403D0E750B9
:10539000D88014540CE3DFCFE9FFEA6AE9BEEA687B
:1053A000B20EE926070EEA22EF6ADF2AE7D7FE0EE1
:1053B000DBCFE9FFEA6AE9BEEA680F0EEA02F3CF43
:1053C000EAFFE902F3CFE9FFF450EA26760EE92678
:1053D000080EEA22040EE926000EEA22010EEFCFA3
:1053E000DBFFDB50060A01E186D1030A01E166D149
:1053F000010A01E1FBD0070A01E1A9D0010A71E02D
:10540000030A39E0010A01E0ABD10701010EB56FD3
:10541000FE0EDBCFE9FFEA6AE9BEEA680F0EEA0298
:10542000F3CFEAFFE902F3CFE9FFF450EA26760E64
:10543000E926080EEA22050EE926000EEA22EFCF41
:10544000B6F7FE0EDBCFE9FFEA6AE9BEEA680F0EA7
:10545000EA02F3CFEAFFE902F3CFE9FFF450EA26CC
:10546000760EE926080EEA22060EE926000EEA224A
:10547000EFCFB7F775D10701010EB86FFE0EDBCF86
:10548000E9FFEA6AE9BEEA680F0EEA02F3CFEAFF33
:10549000E902F3CFE9FFF450EA26760EE926080E7A
:1054A000EA22050EE926000EEA22EFCFB9F7FE0E3A
:1054B000DBCFE9FFEA6AE9BEEA680F0EEA02F3CF42
:1054C000EAFFE902F3CFE9FFF450EA26760EE92677
:1054D000080EEA22060EE926000EEA22EFCFBAF7FE
:1054E0003FD10701010EBB6FFE0EDBCFE9FFEA6A79
:1054F000E9BEEA680F0EEA02F3CFEAFFE902F3CF52
:10550000E9FFF450EA26760EE926080EEA22050E97
:10551000E926000EEA22EFCFBCF7FE0EDBCFE9FF53
:10552000EA6AE9BEEA680F0EEA02F3CFEAFFE9028F
:10553000F3CFE9FFF450EA26760EE926080EEA22B8
:10554000060EE926000EEA22EFCFBDF709D10701CA
:10555000010EBE6FFE0EDBCFE9FFEA6AE9BEEA6824
:105560000F0EEA02F3CFEAFFE902F3CFE9FFF450AE
:10557000EA26760EE926080EEA22050EE926000E36
:10558000EA22EFCFBFF7FE0EDBCFE9FFEA6AE9BE02
:10559000EA680F0EEA02F3CFEAFFE902F3CFE9FF70
:1055A000F450EA26760EE926080EEA22060EE926CF
:1055B000000EEA22EFCFC0F7FE0EDBCFE9FFEA6A6A
:1055C000E9BEEA680F0EEA02F3CFEAFFE902F3CF81
:1055D000E9FFF450EA26760EE926080EEA22070EC5
:1055E000E926000EEA22EFCFC3F7BAD00701010E79
:1055F000C46FFE0EDBCFE9FFEA6AE9BEEA680F0E70
:10560000EA02F3CFEAFFE902F3CFE9FFF450EA261A
:10561000760EE926080EEA22050EE926000EEA2299
:10562000EFCFC5F7FE0EDBCFE9FFEA6AE9BEEA6815
:105630000F0EEA02F3CFEAFFE902F3CFE9FFF450DD
:10564000EA26760EE926080EEA22060EE926000E64
:10565000EA22EFCFC6F7FE0EDBCFE9FFEA6AE9BE2A
:10566000EA680F0EEA02F3CFEAFFE902F3CFE9FF9F
:10567000F450EA26760EE926080EEA22070EE926FD
:10568000000EEA22EFCFC7F7FE0EDBCFE9FFEA6A92
:10569000E9BEEA680F0EEA02F3CFEAFFE902F3CFB0
:1056A000E9FFF450EA26760EE926080EEA22080EF3
:1056B000E926000EEA22EFCFC8F752D00701010E0B
:1056C000C96FFE0EDBCFE9FFEA6AE9BEEA680F0E9A
:1056D000EA02F3CFEAFFE902F3CFE9FFF450EA264A
:1056E000760EE926080EEA22050EE926000EEA22C9
:1056F000EFCFCAF735D00701010ECB6FFE0EDBCF1F
:10570000E9FFEA6AE9BEEA680F0EEA02F3CFEAFFB0
:10571000E902F3CFE9FFF450EA26760EE926080EF7
:10572000EA22050EE926000EEA22EFCFCCF7FE0EA4
:10573000DBCFE9FFEA6AE9BEEA680F0EEA02F3CFBF
:10574000EAFFE902F3CFE9FFF450EA26760EE926F4
:10575000080EEA22060EE926000EEA22EFCFCDF768
:10576000020EE15C02E2E16AE552E16EE552E7CF4A
:10577000D9FF1200D9CFE6FFE1CFD9FF0001010E1A
:10578000696FFE0EDBCF14F0156A14BE1568D00EDB
:105790001502F3CF15F0070E1402F3501526D00EA4
:1057A0001402F3CF14F0F4501526FC0EDBCFE9FF02
:1057B000EA6AE9BEEA68D890E936EA36A60EE92632
:1057C000030EEA2214C0EEFF15C0EDFF696B010E57
:1057D000696FFD0EDBCF14F0156A14BE1568FC0E60
:1057E000DBCFE9FFEA6AE9BEEA68D890E936EA3633
:1057F000AE0EE926030EEA2214C0EEFF15C0EDFF3F
:10580000696BE552E7CFD9FF1200D9CFE6FFE1CFB0
:10581000D9FF1D0EE1260801090501E0B0D0000105
:1058200060510701B35D02E10AEC41F0020E0AC8C3
:10583000DBFF030E0BC8DBFF040E0CC8DBFFDF6AC7
:10584000DFCF14F000016F51E76E1418E8AE02D0FC
:10585000E73402D0E750145C02E376EF3DF0DFCF8F
:10586000E9FFEA6AE9BEEA680F0EEA02F3CFEAFF4F
:10587000E902F3CFE9FFF450EA26760EE926080E96
:10588000EA22EF50020801E078D0DFCFE9FFEA6AB0
:10589000E9BEEA680F0EEA02F3CFEAFFE902F3CFAE
:1058A000E9FFF450EA26760EE926080EEA22090EF0
:1058B000E926000EEA22EF5028085FE1DFCFE9FF7A
:1058C000EA6AE9BEEA680F0EEA02F3CFEAFFE902EC
:1058D000F3CFE9FFF450EA26760EE926080EEA2215
:1058E000010EE926000EEA22EFCF14F0020EDB5083
:1058F000145C43E1DFCFE9FFEA6AE9BEEA680F0E14
:10590000EA02F3CFEAFFE902F3CFE9FFF450EA2617
:10591000760EE926080EEA22020EE926000EEA2299
:10592000EFCF15F0030EDB50155C27E1DFCFE9FF69
:10593000EA6AE9BEEA680F0EEA02F3CFEAFFE9027B
:10594000F3CFE9FFF450EA26760EE926080EEA22A4
:10595000030EE926000EEA22EFCF16F0040EDB500C
:10596000165C0BE1DFCFE6FFFADCE552E66A4DDFBD
:10597000E552000902E1C6EF37F0DF2A61D70D05D5
:1059800001E0AFD0000160510701B35D02E10AEC14
:1059900041F0070E0EC8DBFF080E0FC8DBFF090E33
:1059A00010C8DBFFDF6ADFCF14F000016F51E76E34
:1059B0001418E8AE02D0E73402D0E750145C02E3DA
:1059C00076EF3DF0DFCFE9FFEA6AE9BEEA680F0E45
:1059D000EA02F3CFEAFFE902F3CFE9FFF450EA2647
:1059E000760EE926080EEA22EF5001E078D0DFCFEC
:1059F000E9FFEA6AE9BEEA680F0EEA02F3CFEAFFBE
:105A0000E902F3CFE9FFF450EA26760EE926080E04
:105A1000EA22090EE926000EEA22EF5028085FE18B
:105A2000DFCFE9FFEA6AE9BEEA680F0EEA02F3CFC8
:105A3000EAFFE902F3CFE9FFF450EA26760EE92601
:105A4000080EEA22010EE926000EEA22EFCF14F03A
:105A5000070EDB50145C43E1DFCFE9FFEA6AE9BEE1
:105A6000EA680F0EEA02F3CFEAFFE902F3CFE9FF9B
:105A7000F450EA26760EE926080EEA22020EE926FE
:105A8000000EEA22EFCF15F0080EDB50155C27E17F
:105A9000DFCFE9FFEA6AE9BEEA680F0EEA02F3CF58
:105AA000EAFFE902F3CFE9FFF450EA26760EE92691
:105AB000080EEA22030EE926000EEA22EFCF16F0C6
:105AC000090EDB50165C0BE1DFCFE6FF48DCE55248
