:020000040000FA
:0600000017EF73F012007F
:020006001200E6
:0600080016EF55F0120096
:02000E00FEFFF3
:0600180012EF5EF0120081
:02001E000200DE
:1000200077E60000600000002E0000000E000000D7
:08003000EB02000002000000D9
:08003800D9CFE6FFE1CFD9FFAB
:10004000D950FD0FE96EFF0EDA20EA6EFF0ED88060
:10005000EE54030EED5403E2000E27D026D0FF0E1F
:10006000E76EFD0EDBCF14F0FE0EDBCF15F0E75090
:100070001416156A1450A96EFD0EDBCF14F0FE0E97
:10008000DBCF15F015C014F0156A030E1414AA6E18
:10009000A69EA69CA680FB0EDBCFE9FFFC0EDBCF65
:1000A000EAFFA8CFEFFF010E00D0E552E7CFD9FF5E
:1000B0001200D9CFE6FFE1CFD9FF030EE126090EEA
:1000C000DE6EDD6A0201010E666F8F6990699369C9
:1000D0009469996F666B040EE66E61EC54F0E5521C
:1000E000050EF36E020EF3CFDBFFDB5000082BE2B0
:1000F000020EDBCFE6FFE66A910E146EE00E156E7F
:10010000166A14C0E6FF15C0E6FF16C0E6FFDC0E57
:10011000E66E050EE66E50EC71F0176E070EE15EAE
:100120001750DC0EE66E050EE66EF5EC53F0E55268
:10013000E552050EE66EE66A37EC53F0E552E552FD
:10014000020EDB06D2D70201010E666F916B926B35
:10015000956B966B666B050EF36E020EF3CFDBFFAD
:10016000DB5000082BE2020EDBCFE6FFE66A890EC9
:10017000146EE00E156E166A14C0E6FF15C0E6FF99
:1001800016C0E6FFDC0EE66E050EE66E50EC71F072
:10019000176E070EE15E1750DC0EE66E050EE66E7A
:1001A000F5EC53F0E552E552050EE66EE66A37ECE3
:1001B00053F0E552E552020EDB06D2D70201010EE2
:1001C000666F996B666B90C214F0156A1450E66EF8
:1001D000DFCF16F0DF2A010EDBCF17F001E3DB2AB9
:1001E00016C0E6FF17C0E6FFE8DAE552E552E55231
:1001F00002018F51E66EDFCF14F0DF2A010EDBCF54
:1002000015F001E3DB2A14C0E6FF15C0E6FFD5DADE
:10021000E552E552E55292C214F0156A1450E66EAA
:10022000DFCF16F0DF2A010EDBCF17F001E3DB2A68
:1002300016C0E6FF17C0E6FFC0DAE552E552E55208
:1002400002019151E66EDFCF14F0DF2A010EDBCF01
:1002500015F001E3DB2A14C0E6FF15C0E6FFADDAB6
:10026000E552E552E55294C214F0156A1450E66E58
:10027000DFCF16F0DF2A010EDBCF17F001E3DB2A18
:1002800016C0E6FF17C0E6FF98DAE552E552E552E0
:1002900002019351E66EDFCF14F0DF2A010EDBCFAF
:1002A00015F001E3DB2A14C0E6FF15C0E6FF85DA8E
:1002B000E552E552E55296C214F0156A1450E66E06
:1002C000DFCF16F0DF2A010EDBCF17F001E3DB2AC8
:1002D00016C0E6FF17C0E6FF70DAE552E552E552B8
:1002E00002019551E66EDECFE6FFDDCFE6FF65DA6F
:1002F000E552E552E552030EE15C02E2E16AE552A5
:10030000E16EE552E7CFD9FF1200D9CFE6FFE1CF8A
:10031000D9FF040EE126010EDB6A020EDB6A030E32
:10032000DB6A080EF36E030EDBCFF4FFF350F45CD0
:1003300017E2030EDBCFE6FF010EDBCF14F0DB2A62
:10034000020EDBCF15F001E3DB2A14C0E6FF15C077
:10035000E6FF33DAE552E552E552030EDB2AE1D738
:10036000080EF36E010EF3CFDBFF020EDB6A060E02
:10037000DF6EDFCFE6FF010EDBCFE6FF020EDBCF45
:10038000E6FF1BDAE552E552E552110EF36E010E5F
:10039000F3CFDBFF020EDB6ADF6ADFCFE6FF010E81
:1003A000DBCFE6FF020EDBCFE6FF07DAE552E552D0
:1003B000E5520201010E666F060E656F686B666B93
:1003C000120EF36E010EF3CFDBFF020EDB6AD95083
:1003D000010FE96EDACFEAFF150ED880EE54000E59
:1003E000ED5411E3010EE66EDBCFE6FF020EDBCF2C
:1003F000E6FFE3D9E552E552E552010EDB2A020E93
:1004000001E3DB2AE4D771EC5EF013EC60F0040E3C
:10041000E15C02E2E16AE552E16EE552E7CFD9FF25
:100420001200D9CFE6FFE1CFD9FF060EE126010E7B
:10043000DB6A020EDB6A050EDB6A080EF36E050E40
:10044000DBCFF4FFF350F45C1FE2D9CFE6FFDACF45
:10045000E6FF010EDBCF14F0DB2A020EDBCF15F036
:1004600001E3DB2A14C0E6FF15C0E6FFE5DDE55237
:10047000E552E552E552050EDB50DF5C02E045DF58
:1004800080D1050EDB2AD9D7080EF36E010EF3CF0B
:10049000DBFF020EDB6AD9CFE6FFDACFE6FF010E03
:1004A000DBCFE6FF020EDBCFE6FFC6DDE552E5520D
:1004B000E552E5520201010E666FDFCF65F2666B11
:1004C000120EF36E010EF3CFDBFF020EDB6AD9CF03
:1004D000E6FFDACFE6FF010EDBCF14F0DB2A020ED7
:1004E000DBCF15F001E3DB2A14C0E6FF15C0E6FF01
:1004F000A3DDE552E552E552E552DF50E8B09582C2
:10050000E8A09592D9CFE6FFDACFE6FF010EDBCF68
:1005100014F0DB2A020EDBCF15F001E3DB2A14C056
:10052000E6FF15C0E6FF88DDE552E552E552E552EB
:10053000DF50E8B09584E8A09594D9CFE6FFDACFF4
:10054000E6FF010EDBCF14F0DB2A020EDBCF15F045
:1005500001E3DB2A14C0E6FF15C0E6FF6DDDE552BE
:10056000E552E552E552DF50E8B09586E8A0959651
:10057000D9CFE6FFDACFE6FF010EDBCFE6FF020EB2
:10058000DBCFE6FF59DDE552E552E552E552DF509B
:10059000E8B09488E8A09498090EF36E010EF3CFAA
:1005A000DBFF020EDB6AD9CFE6FFDACFE6FF010EF2
:1005B000DBCF14F0DB2A020EDBCF15F001E3DB2AE0
:1005C00014C0E6FF15C0E6FF37DDE552E552E552FF
:1005D000E552DF5002018F6F906BD9CFE6FFDACF83
:1005E000E6FF010EDBCF14F0DB2A020EDBCF15F0A5
:1005F00001E3DB2A14C0E6FF15C0E6FF1DDDE5526E
:10060000E552E552E5528FC215F0146ADF5002013F
:1006100014248F6F000E1520906FD9CFE6FFDACF2C
:10062000E6FF010EDBCF14F0DB2A020EDBCF15F064
:1006300001E3DB2A14C0E6FF15C0E6FFFDDCE5524E
:10064000E552E552E552DF500201916F926BD9CF2E
:10065000E6FFDACFE6FF010EDBCF14F0DB2A020E55
:10066000DBCF15F001E3DB2A14C0E6FF15C0E6FF7F
:10067000E3DCE552E552E552E55291C215F0146A09
:10068000DF5002011424916F000E1520926FD9CF14
:10069000E6FFDACFE6FF010EDBCF14F0DB2A020E15
:1006A000DBCF15F001E3DB2A14C0E6FF15C0E6FF3F
:1006B000C3DCE552E552E552E552DF500201936F8B
:1006C000946BD9CFE6FFDACFE6FF010EDBCF14F053
:1006D000DB2A020EDBCF15F001E3DB2A14C0E6FFB4
:1006E00015C0E6FFA9DCE552E552E552E55293C29A
:1006F00015F0146ADF5002011424936F000E1520C8
:10070000946FD9CFE6FFDACFE6FF010EDBCF14F00E
:10071000DB2A020EDBCF15F001E3DB2A14C0E6FF73
:1007200015C0E6FF89DCE552E552E552E552DF509F
:100730000201956F966BD9CFE6FFDACFE6FF010E87
:10074000DBCFE6FF020EDBCFE6FF76DCE552E552BB
:10075000E552E55295C215F0146ADF5002011424E7
:10076000956F000E1520966F8F51915D9A6F905185
:1007700092599B6F9351955D9C6F945196599D6FC3
:10078000DDD9060EE15C02E2E16AE552E16EE55276
:10079000E7CFD9FF1200A1A805D0A198A694010E19
:1007A00003D002D0000E00D01200A6B203D0010E7A
:1007B00003D002D0000E00D01200D9CFE6FFE1CF67
:1007C000D9FFE652D950FD0FE96EFF0EDA20EA6E2E
:1007D000FF0ED880EE54030EED5403E2000E4AD013
:1007E00049D0E3DF000901E1FCD7D9CFE6FFDACF3A
:1007F000E6FFFD0EDBCFE6FFFE0EDBCFE6FF1CDCE7
:10080000E552E552E552E552FC0EDB50DF5C02E1B9
:10081000010E30D0FF0EE76EFD0EDBCF14F0FE0EA2
:10082000DBCF15F0E7501416156A1450A96EFD0EB3
:10083000DBCF14F0FE0EDBCF15F015C014F0156AF7
:10084000030E1414AA6EFC0EDB50A86EA69EA69C86
:10085000A684F29E550EA76EAA0EA76EA6829BDFF7
:10086000FF0801E1FCD7A1DF000901E1FCD7F28E0E
:10087000010E00D0E552E552E7CFD9FF12005ED954
:1008800000D01200760E146EE00E156E166A14C0BB
:10089000E6FF15C0E6FF16C0E6FFDC0EE66E050EAD
:1008A000E66E50EC71F0176E050EE15E1750DC0E2F
:1008B000E66E050EE66E95EC4AF0E552E552630EE3
:1008C000146EE00E156E166A14C0E6FF15C0E6FF42
:1008D00016C0E6FFDC0EE66E050EE66E50EC71F01B
:1008E000176E050EE15E1750DC0EE66E050EE66E25
:1008F00095EC4AF0E552E5525B0E146EE00E156E73
:10090000166A14C0E6FF15C0E6FF16C0E6FFDC0E4F
:10091000E66E050EE66E50EC71F0176E050EE15EA8
:10092000175002010651E66EE66ADC0EE66E050E11
:10093000E66E560E146EE00E156E166A14C0E6FFD3
:1009400015C0E6FF16C0E6FFDC0EE66E050EE66E8D
:1009500050EC71F0176E090EE15E1750DC0EE66E7A
:10096000050EE66E95EC4AF0E552E5524E0E146E19
:10097000E00E156E166A14C0E6FF15C0E6FF16C03D
:10098000E6FFDC0EE66E050EE66E50EC71F0176EBB
:10099000050EE15E175073DFE66EE66ADC0EE66E6A
:1009A000050EE66E470E146EE00E156E166A14C044
:1009B000E6FF15C0E6FF16C0E6FFDC0EE66E050E8C
:1009C000E66E50EC71F0176E090EE15E1750DC0E0A
:1009D000E66E050EE66E95EC4AF0E552E5523B0EEA
:1009E000146EE00E156E166A14C0E6FF15C0E6FF21
:1009F00016C0E6FFDC0EE66E050EE66E50EC71F0FA
:100A0000176E050EE15E175002016851E66EE66A48
:100A1000DC0EE66E050EE66E560E146EE00E156EDA
:100A2000166A14C0E6FF15C0E6FF16C0E6FFDC0E2E
:100A3000E66E050EE66E50EC71F0176E090EE15E83
:100A40001750DC0EE66E050EE66E95EC4AF0E552A8
:100A5000E552350E146EE00E156E166A14C0E6FFF0
:100A600015C0E6FF16C0E6FFDC0EE66E050EE66E6C
:100A700050EC71F0176E050EE15E1750060E020184
:100A8000655D1DE19E51E66EE66ADC0EE66E050EC2
:100A9000E66E280E146EE00E156E166A14C0E6FFA0
:100AA00015C0E6FF16C0E6FFDC0EE66E050EE66E2C
:100AB00050EC71F0176E090EE15E175019D0DC0E84
:100AC000E66E050EE66E220E146EE00E156E166AC8
:100AD00014C0E6FF15C0E6FF16C0E6FFDC0EE66EAA
:100AE000050EE66E50EC71F0176E070EE15E1750C2
:100AF000DC0EE66E050EE66E95EC4AF0E552E55228
:100B0000210E146EE00E156E166A14C0E6FF15C0B5
:100B1000E6FF16C0E6FFDC0EE66E050EE66E50EC54
:100B200071F0176E050EE15E1750DC0EE66E050ED5
:100B3000E66E95EC4AF0E552E5521200D9CFE6FF99
:100B4000E1CFD9FF090EE126110EF36E030EF3CFAC
:100B5000DBFF040EDB6AD950020FE66E000EDA20CE
:100B6000E66E030EDBCFE6FF040EDBCFE6FF1CECE8
:100B700000F0E552E552E552E552020EDBCF68F295
:100B80000201685102E1640E88D0160EF36E030E66
:100B9000F3CFDBFF040EDB6ADF6A02016851DF5C22
:100BA0003DE2010EDB6A0F0EF36E010EDBCFF4FFA8
:100BB000F350F45C31E2D950020FE66E000EDA20F9
:100BC000E66E030EDBCF14F0DB2A040EDBCF15F04C
:100BD00001E3DB2A14C0E6FF15C0E6FF1CEC00F0C1
:100BE000E552E552E552E552DF500F0DF3CF14F018
:100BF000F4CF15F0840E1426070E1522010EDB50DB
:100C00000F011424E96E000E1520EA6E020EDBCFF0
:100C1000EFFF010EDB2AC7D7DF2ABFD7146A040E05
:100C2000156E166A176A030EDBCF18F0040EDBCFC1
:100C300019F01A6A1B6A1850145C066E1950155880
:100C4000076E1A501658086E1B501758096E640E1E
:100C50000B6E0C6A0D6A0E6A83EC72F002C006F02D
:100C600003C007F004C008F005C009F0EA0E0B6EDF
:100C7000030E0C6E0D6A0E6A73EC70F0050E06C062
:100C8000DBFF060E07C0DBFF070E08C0DBFF080E08
:100C900009C0DBFF050EDB5000D0146E090EE15CCD
:100CA00002E2E16AE552E16E1450E552E7CFD9FF66
:100CB0001200D9CFE6FFE1CFD9FF050EE126160ECF
:100CC000F36E020EF3CFDBFF030EDB6ADF6A020175
:100CD0006851DF5C4BE20F0EE76E020EDBCF14F0C3
:100CE000030EDBCF15F0E7501426000E1522145C1E
:100CF000040E155804E3110E696F000E4FD0010E5B
:100D0000DB6A0F0EF36E010EDBCFF4FFF350F45CE1
:100D10002BE2DF500F0DF3CF14F0F4CF15F0840E5B
:100D20001426070E1522010EDB500F011424E96E64
:100D3000000E1520EA6E040EEFCFDBFFDBCFE6FFDF
:100D4000020EDBCF14F0DB2A030EDBCF15F001E33C
:100D5000DB2A14C0E6FF15C0E6FF2FDDE552E552A1
:100D6000E552010EDB2ACDD7DF2AB1D7110EF36E83
:100D7000020EF3CFDBFF030EDB6A040E68C2DBFF5B
:100D8000DBCFE6FF020EDBCFE6FF030EDBCFE6FF95
:100D900014DDE552E552E552010E00D0146E050E49
:100DA000E15C02E2E16AE552E16E1450E552E7CF00
:100DB000D9FF1200D9CFE6FFE1CFD9FF300EF36E95
:100DC000FE0EDBCFF4FFF350F45C07E3FE0EDB50C6
:100DD000390803E3010E03D002D0000E00D0E55223
:100DE000E7CFD9FF1200D9CFE6FFE1CFD9FF410EFF
:100DF000F36EFE0EDBCFF4FFF350F45C07E3FE0E60
:100E0000DB50460803E3010E03D002D0000E00D0F1
:100E1000E552E7CFD9FF1200D9CFE6FFE1CFD9FFE6
:100E2000E652610EF36EFE0EDBCFF4FFF350F45C7E
:100E300009E3FE0EDB507A0805E3FE0EDB50E00FFF
:100E4000DF6E03D0FE0EDB50DF6EDF5000D0E552C8
:100E5000E552E7CFD9FF1200D9CFE6FFE1CFD9FFA6
:100E6000090EE126DE6ADD6A020EDB6A030EDB6A2A
:100E70000A0EF36E040EF3CFDBFF050EDB6A060EDF
:100E8000DB6AFD0EDBCFE9FFFE0EDBCFEAFFEF50A2
:100E9000300805E1FD0EDB2AFE0E01E3DB2AFD0E24
:100EA000DBCFE9FFFE0EDBCFEAFFEF5009E0FD0EDE
:100EB000DBCFE9FFFE0EDBCFEAFFEF5020080BE1AE
:100EC000050EDBCF14F0060EDBCF15F014C0F3FFD8
:100ED00015C0F4FF0CD1FD0EDBCFE9FFFE0EDBCF1A
:100EE000EAFFEF50E66E98DFE55258080AE1FD0E82
:100EF000DB2AFE0E01E3DB2A100EF36E040EF3CFA5
:100F0000DBFFFD0EDBCFE9FFFE0EDBCFEAFFEF508C
:100F100001E1ADD0FD0EDBCFE9FFFE0EDBCFEAFF36
:100F2000EF50200801E1A3D0FD0EDBCFE9FFFE0E5C
:100F3000DBCFEAFFEF50E66E3DDFE552000913E03C
:100F4000FD0EDBCFE9FFFE0EDBCFEAFFEF50D00F47
:100F5000E66ED950070FE96EDACFEAFFE552E750A7
:100F6000EE6EED6A48D0FD0EDBCFE9FFFE0EDBCF63
:100F7000EAFFEF50E66E50DFE552E66E34DFE552F1
:100F800000092AE0FD0EDBCFE9FFFE0EDBCFEAFF12
:100F9000EF50E66E41DFE552BF0F0A0FE66ED95003
:100FA000070FE96EDACFEAFFE552E750EE6EED6A21
:100FB000070EDBCF14F0080EDBCF15F0D8901550DC
:100FC00004E60A0E145C000E155805E3100EF36ECD
:100FD000040EF3CFDBFF0FD0220E0201E96FEA6BA4
:100FE000050EDBCF14F0060EDBCF15F014C0F3FFB7
:100FF00015C0F4FF7CD0070EDBCF16F0080EDBCF58
:1010000017F0100E086E096ADECF0DF0DDCF0EF07E
:10101000A7EC70F006501624146E07501720156EBA
:1010200014C0DEFF15C0DDFF070EDBCF16F0080E83
:10103000DBCF17F00A0E086E096A020EDBCF0DF047
:10104000030EDBCF0EF0A7EC70F006501624146EE2
:1010500007501720156E020E14C0DBFF030E15C0DB
:10106000DBFFFD0EDB2AFE0E01E3DB2A4AD7040E6E
:10107000DB500A080DE1020EDBCF08F0030EDBCFD8
:1010800009F0050E08C0DBFF060E09C0DBFF0AD021
:10109000D9CFE9FFDACFEAFF050EEECFDBFF060E70
:1010A000EDCFDBFF050EDBCF14F0060EDBCF15F026
:1010B000000E145C000E15580FE2220E0201E96FBB
:1010C000EA6B050EDBCF14F0060EDBCF15F014C073
:1010D000F3FF15C0F4FF0BD0050EDBCF14F0060EA6
:1010E000DBCF15F014C0F3FF15C0F4FF00D0090EDC
:1010F000E15C02E2E16AE552E16EE552E7CFD9FF39
:10110000120002016951080A01E18AD2100A01E1C4
:1011100071D20D0A01E158D2010A01E13FD2070A5A
:1011200001E126D2010A01E10DD2030A01E1F4D165
:10113000010A01E1DBD11F0A01E1C2D1010A01E18B
:10114000A9D1030A01E190D1010A01E177D1060A90
:1011500001E15ED1030A01E145D10E0A01E12CD182
:101160001C0A01E113D1010A01E1FAD0030A01E1ED
:10117000E1D0120A01E1C8D01C0A01E1AFD0010A96
:1011800001E196D0100A01E17DD0030A65E0010A71
:101190004DE0070A35E0010A1DE0030A01E056D2DE
:1011A000A70EE66E060EE66E100E146EE00E156EBD
:1011B000166A14C0E6FF15C0E6FF16C0E6FFDC0E97
:1011C000E66E050EE66E50EC71F0176E070EE15EEE
:1011D000175054D2010E146EE00E156E166A14C02C
:1011E000E6FF15C0E6FF16C0E6FFDC0EE66E050E54
:1011F000E66E50EC71F0176E050EE15E17503ED2B0
:10120000EE0E146EDF0E156E166A14C0E6FF15C0E2
:10121000E6FF16C0E6FFDC0EE66E050EE66E50EC4D
:1012200071F0176E050EE15E175028D2E30E146EB2
:10123000DF0E156E166A14C0E6FF15C0E6FF16C075
:10124000E6FFDC0EE66E050EE66E50EC71F0176EF2
:10125000050EE15E175012D2D60E146EDF0E156E1B
:10126000166A14C0E6FF15C0E6FF16C0E6FFDC0EE6
:10127000E66E050EE66E50EC71F0176E050EE15E3F
:101280001750FCD1C60E146EDF0E156E166A14C010
:10129000E6FF15C0E6FF16C0E6FFDC0EE66E050EA3
:1012A000E66E50EC71F0176E050EE15E1750E6D158
:1012B000B50E146EDF0E156E166A14C0E6FF15C06B
:1012C000E6FF16C0E6FFDC0EE66E050EE66E50EC9D
:1012D00071F0176E050EE15E1750D0D1A50E146E99
:1012E000DF0E156E166A14C0E6FF15C0E6FF16C0C5
:1012F000E6FFDC0EE66E050EE66E50EC71F0176E42
:10130000050EE15E1750BAD1960E146EDF0E156E03
:10131000166A14C0E6FF15C0E6FF16C0E6FFDC0E35
:10132000E66E050EE66E50EC71F0176E050EE15E8E
:101330001750A4D1800E146EDF0E156E166A14C0FD
:10134000E6FF15C0E6FF16C0E6FFDC0EE66E050EF2
:10135000E66E50EC71F0176E050EE15E17508ED1FF
:101360006C0E146EDF0E156E166A14C0E6FF15C003
:10137000E6FF16C0E6FFDC0EE66E050EE66E50ECEC
:1013800071F0176E050EE15E175078D1540E146E91
:10139000DF0E156E166A14C0E6FF15C0E6FF16C014
:1013A000E6FFDC0EE66E050EE66E50EC71F0176E91
:1013B000050EE15E175062D1410E146EDF0E156E00
:1013C000166A14C0E6FF15C0E6FF16C0E6FFDC0E85
:1013D000E66E050EE66E50EC71F0176E050EE15EDE
:1013E00017504CD1320E146EDF0E156E166A14C0F3
:1013F000E6FF15C0E6FF16C0E6FFDC0EE66E050E42
:10140000E66E50EC71F0176E050EE15E175036D1A6
:10141000240E146EDF0E156E166A14C0E6FF15C09A
:10142000E6FF16C0E6FFDC0EE66E050EE66E50EC3B
:1014300071F0176E050EE15E175020D1140E146E78
:10144000DF0E156E166A14C0E6FF15C0E6FF16C063
:10145000E6FFDC0EE66E050EE66E50EC71F0176EE0
:10146000050EE15E17500AD1000E146EDF0E156EE8
:10147000166A14C0E6FF15C0E6FF16C0E6FFDC0ED4
:10148000E66E050EE66E50EC71F0176E050EE15E2D
:101490001750F4D0EF0E146EDE0E156E166A14C0DF
:1014A000E6FF15C0E6FF16C0E6FFDC0EE66E050E91
:1014B000E66E50EC71F0176E050EE15E1750DED04F
:1014C000E00E146EDE0E156E166A14C0E6FF15C02F
:1014D000E6FF16C0E6FFDC0EE66E050EE66E50EC8B
:1014E00071F0176E050EE15E1750C8D0CD0E146E68
:1014F000DE0E156E166A14C0E6FF15C0E6FF16C0B4
:10150000E6FFDC0EE66E050EE66E50EC71F0176E2F
:10151000050EE15E1750B2D0B40E146EDE0E156EDD
:10152000166A14C0E6FF15C0E6FF16C0E6FFDC0E23
:10153000E66E050EE66E50EC71F0176E050EE15E7C
:1015400017509CD0A60E146EDE0E156E166A14C0CF
:10155000E6FF15C0E6FF16C0E6FFDC0EE66E050EE0
:10156000E66E50EC71F0176E050EE15E175086D0F6
:10157000920E146EDE0E156E166A14C0E6FF15C0CC
:10158000E6FF16C0E6FFDC0EE66E050EE66E50ECDA
:1015900071F0176E050EE15E175070D0770E146E65
:1015A000DE0E156E166A14C0E6FF15C0E6FF16C003
:1015B000E6FFDC0EE66E050EE66E50EC71F0176E7F
:1015C000050EE15E17505AD05F0E146EDE0E156EDA
:1015D000166A14C0E6FF15C0E6FF16C0E6FFDC0E73
:1015E000E66E050EE66E50EC71F0176E050EE15ECC
:1015F000175044D04D0E146EDE0E156E166A14C0D0
:10160000E6FF15C0E6FF16C0E6FFDC0EE66E050E2F
:10161000E66E50EC71F0176E050EE15E17502ED09D
:101620003F0E146EDE0E156E166A14C0E6FF15C06E
:10163000E6FF16C0E6FFDC0EE66E050EE66E50EC29
:1016400071F0176E050EE15E175018D06951E66E05
:10165000E66A2C0E146EDE0E156E166A14C0E6FFD6
:1016600015C0E6FF16C0E6FFDC0EE66E050EE66E60
:1016700050EC71F0176E070EE15E1750DC0EE66E4F
:10168000050EE66E95EC4AF0E552E552210E146E19
:10169000E00E156E166A14C0E6FF15C0E6FF16C010
:1016A000E6FFDC0EE66E050EE66E50EC71F0176E8E
:1016B000050EE15E1750DC0EE66E050EE66E95EC4B
:1016C0004AF0E552E5520201696B1200D9CFE6FFFC
:1016D000E1CFD9FF0C0EE126DF6A010EDB6ADF6A7B
:1016E000DF50146E156A14C0E6FF15C0E6FFFD0E4C
:1016F000DBCFE6FFFE0EDBCFE6FFF2EC70F0E5524B
:10170000E552E552E7CF15F0E552E7CF14F0F3CFFD
:1017100016F0F4CF17F015501718E8AE02D01734B2
:1017200004D01650145C1750155801E3B5D0DF50A3
:10173000E76EFD0EDBCFE9FFFE0EDBCFEAFFE750E1
:10174000E926000EEA22EF50200808E1F90EDBCF6F
:10175000E9FFFA0EDBCFEAFFEF2A9CD0DF50E76EFD
:10176000FD0EDBCFE9FFFE0EDBCFEAFFE750E926F7
:10177000000EEA22EF50E66ED950020F146EDACF57
:1017800015F0010EDBCFF3FFDB2AF3500F01142419
:10179000E96E000E1520EA6EE552E750EF6EF90E85
:1017A000DBCFE9FFFA0EDBCFEAFFEF2AFB0EDBCF40
:1017B000E6FFFC0EDBCFE6FFF2EC70F0E552E552FF
:1017C000F3CF16F0F4CF17F016C0E6FF17C0E6FF10
:1017D000FB0EDBCFE6FFFC0EDBCFE6FFD950020F9E
:1017E000E66E000EDA20E66E00EC71F0186E060E62
:1017F000E15E1850F3CF14F0F4CF15F0145015102B
:1018000002E1010E77D0010EDB50146E156A14C090
:10181000E6FF15C0E6FFFB0EDBCFE6FFFC0EDBCFDD
:10182000E6FFF2EC70F0E552E552E552E7CF15F035
:10183000E552E7CF14F0F3CF18F0F4CF19F0D890B9
:10184000195004E6090E185C000E195819E214C06C
:10185000E6FF15C0E6FFFB0EDBCFE6FFFC0EDBCF9D
:10186000E6FFF2EC70F0E552E552E552E7CF15F0F5
:10187000E552E7CF14F0F3CF16F0F4CF17F003D012
:10188000090E166E176A1650141802E11750151833
:1018900001E102D0DF2A24D7D950020F146EDACF2B
:1018A00015F0010EDB500F011424E96E000E152017
:1018B000EA6EEF6AD950020FE66E000EDA20E66E8D
:1018C000290E146EDE0E156E166A14C0E6FF15C0E2
:1018D000E6FF16C0E6FFA70EE66E060EE66E50ECBB
:1018E00071F0176E070EE15E17500201010E696F6D
:1018F000000E00D0146E0C0EE15C02E2E16AE552CB
:10190000E16E1450E552E7CFD9FF1200D9CFE6FFC0
:10191000E1CFD9FF050EE126DF6A010EDB6A020185
:10192000E96BEA6BDF50E76EFD0EDBCFE9FFFE0EE1
:10193000DBCFEAFFE750E926000EEA22EF5020084D
:101940002FE1DF50146E156A14C0E6FF15C0E6FFE4
:10195000FD0EDBCFE6FFFE0EDBCFE6FFF2EC70F014
:10196000E552E552E552E7CF15F0E552E7CF14F026
:10197000F3CF16F0F4CF17F015501718E8AE02D0D9
:10198000173404D01650145C1750155809E2F90E9C
:10199000DBCFE9FFFA0EDBCFEAFFEF2ADF2AC2D75F
:1019A000DF50E76EFD0EDBCF14F0FE0EDBCF15F03F
:1019B000E7501426000E152214C0E6FF15C0E6FFFE
:1019C0002CEC07F0E552E552030EF3CFDBFF040EDB
:1019D000F4CFDBFF0201220EE91901E1EA5105E033
:1019E000160EE91901E1EA5103E1020EDB6A05D0A6
:1019F000010EF36E020EF3CFDBFFD950030FE96E39
:101A0000DACFEAFFFF0ED880EE54000EED540DE25F
:101A1000220EE91901E1EA5102E0000E01D0010EA7
:101A20000201040E696F000E52D0020EDB044AE17F
:101A3000DF50E76EFD0EDBCFE9FFFE0EDBCFEAFFE6
:101A4000E750E926000EEA22EF5020082FE0DF5091
:101A5000146E156A14C0E6FF15C0E6FFFD0EDBCF5D
:101A6000E6FFFE0EDBCFE6FFF2EC70F0E552E5524A
:101A7000E552E7CF15F0E552E7CF14F0F3CF16F0BB
:101A8000F4CF17F015501718E8AE02D0173404D071
:101A90001650145C1750155809E2F90EDBCFE9FF18
:101AA000FA0EDBCFEAFFEF2ADF2AC2D7FB0EDBCF2D
:101AB000E9FFFC0EDBCFEAFF030EDBCFEFFF010EE9
:101AC00006D005D00201020E696F000E00D0146E20
:101AD000050EE15C02E2E16AE552E16E1450E55266
:101AE000E7CFD9FF1200D9CFE6FFE1CFD9FF020E31
:101AF000E126010EDB6ADF6A030EF36E010EDBCF17
:101B0000F4FFF350F45C01E3AFD0FB0EDBCFE9FF51
:101B1000FC0EDBCFEAFFEF50E76EFD0EDBCFE9FFF7
:101B2000FE0EDBCFEAFFE750E926000EEA22EF5077
:101B3000200874E0010EDB5008E1DF5006E10201ED
:101B4000120E696F000E92D068D0FB0EDBCFE9FF5A
:101B5000FC0EDBCFEAFFEF50146E156A14C0E6FFEF
:101B600015C0E6FFFD0EDBCFE6FFFE0EDBCFE6FF86
:101B7000F2EC70F0E552E552E552E7CF15F0E55290
:101B8000E7CF14F0F3CF16F0F4CF17F01650141877
:101B900002E11750151819E1010EDB50000810E2A0
:101BA000010EDB50E76EF90EDBCFE9FFFA0EDBCF5B
:101BB000EAFFE750E926000EEA22EF6A55D02DD061
:101BC00002011B0E696F000E51D0FB0EDBCFE9FF47
:101BD000FC0EDBCFEAFFEF50EF2AE76EFD0EDBCF06
:101BE000E9FFFE0EDBCFEAFFE750E926000EEA220E
:101BF000EF50E66E010EDBCFF3FFDB2AF350E76E0A
:101C0000F90EDBCFE9FFFA0EDBCFEAFFE750E9265A
:101C1000000EEA22E552E750EF6E1CD0010EDB50B9
:101C20000AE1010EDF6EFB0EDBCFE9FFFC0EDBCF1E
:101C3000EAFFEF2A0FD0010EDB50E76EF90EDBCF83
:101C4000E9FFFA0EDBCFEAFFE750E926000EEA22B1
:101C5000EF6A0AD0010EDB50030805E10201130E02
:101C6000696F000E03D048D7010E00D0146E020E2B
:101C7000E15C02E2E16AE552E16E1450E552E7CF21
:101C8000D9FF1200D9CFE6FFE1CFD9FF0E0EE12632
:101C9000DF6A010EDB6AFB0EDBCFE6FFFC0EDBCF5B
:101CA000E6FFBDEC2DF0E552E552240E146EDE0E7B
:101CB000156E166A14C0E6FF15C0E6FF16C0E6FFF3
:101CC000D950020FE66E000EDA20E66E50EC71F08D
:101CD000176E050EE15E1750D9CFE6FFDACFE6FFAB
:101CE000D950020FE66E000EDA20E66EDF50E76E86
:101CF000FD0EDBCF14F0FE0EDBCF15F0E7501426FF
:101D0000000E152214C0E6FF15C0E6FFDFDC166EDC
:101D1000060EE15E1650000921E0020EE76EFB0E92
:101D2000DBCFE9FFFC0EDBCFEAFFE750E926000E30
:101D3000EA22040EEF6E010EE76EFB0EDBCFE9FF29
:101D4000FC0EDBCFEAFFE750E926000EEA2206C2CE
:101D5000EFFF0201696B010E3DEF2CF01D0E146EBA
:101D6000DE0E156E166A14C0E6FF15C0E6FF16C03B
:101D7000E6FFD950020FE66E000EDA20E66E50EC58
:101D800071F0176E050EE15E1750DF6AD9CFE6FFDE
:101D9000DACFE6FFD950020FE66E000EDA20E66ECB
:101DA000DF50E76EFD0EDBCF14F0FE0EDBCF15F03B
:101DB000E7501426000E152214C0E6FF15C0E6FFFA
:101DC00085DC166E060EE15E1650000921E0020E5B
:101DD000E76EFB0EDBCFE9FFFC0EDBCFEAFFE7503F
:101DE000E926000EEA22050EEF6E010EE76EFB0EED
:101DF000DBCFE9FFFC0EDBCFEAFFE750E926000E60
:101E0000EA2206C2EFFF0201696B010E3DEF2CF0E2
:101E1000180E146EDE0E156E166A14C0E6FF15C09D
:101E2000E6FF16C0E6FFD950020FE66E000EDA207C
:101E3000E66E50EC71F0176E050EE15E1750DF6A2A
:101E4000D9CFE6FFDACFE6FFD950020FE66E000EDB
:101E5000DA20E66EDF50E76EFD0EDBCF14F0FE0EEB
:101E6000DBCF15F0E7501426000E152214C0E6FF54
:101E700015C0E6FF2BDC166E060EE15E165000095B
:101E800021E0020EE76EFB0EDBCFE9FFFC0EDBCF9D
:101E9000EAFFE750E926000EEA22400EEF6E010E3F
:101EA000E76EFB0EDBCFE9FFFC0EDBCFEAFFE7506E
:101EB000E926000EEA2206C2EFFF0201696B010E5D
:101EC0003DEF2CF0140E146EDE0E156E166A14C063
:101ED000E6FF15C0E6FF16C0E6FFD950020FE66E1A
:101EE000000EDA20E66E50EC71F0176E050EE15E22
:101EF0001750DF6AD9CFE6FFDACFE6FFD950020FDD
:101F0000E66E000EDA20E66EDF50E76EFD0EDBCFE8
:101F100014F0FE0EDBCF15F0E7501426000E15224C
:101F200014C0E6FF15C0E6FF66EC0BF0166E060E59
:101F3000E15E1650000941E0020EE76EFB0EDBCFBA
:101F4000E9FFFC0EDBCFEAFFE750E926000EEA22AC
:101F5000230EEF6ED9CFE6FFDACFE6FF010EE76E74
:101F6000FB0EDBCF14F0FC0EDBCF15F0E750142690
:101F7000000E152214C0E6FF15C0E6FFDF50E76E25
:101F8000FD0EDBCF16F0FE0EDBCF17F0E750162666
:101F9000000E172216C0E6FF17C0E6FFB7DC186E6A
:101FA000060EE15E1850000903E1000E3DEF2CF033
:101FB0000201696B010E3DEF2CF00E0E146EDE0E69
:101FC000156E166A14C0E6FF15C0E6FF16C0E6FFE0
:101FD000D950020FE66E000EDA20E66E50EC71F07A
:101FE000176E050EE15E1750DF6AD9CFE6FFDACF34
:101FF000E6FFD950020FE66E000EDA20E66EDF50E3
:10200000E76EFD0EDBCF14F0FE0EDBCF15F0E750D0
:102010001426000E152214C0E6FF15C0E6FF66EC7C
:102020000BF0166E060EE15E1650000941E0020E3E
:10203000E76EFB0EDBCFE9FFFC0EDBCFEAFFE750DC
:10204000E926000EEA222D0EEF6ED9CFE6FFDACF99
:10205000E6FF010EE76EFB0EDBCF14F0FC0EDBCFCC
:1020600015F0E7501426000E152214C0E6FF15C027
:10207000E6FFDF50E76EFD0EDBCF16F0FE0EDBCF86
:1020800017F0E7501626000E172216C0E6FF17C0FD
:10209000E6FF3CDC186E060EE15E1850000903E115
:1020A000000E3DEF2CF00201696B010E3DEF2CF0AC
:1020B000080E146EDE0E156E166A14C0E6FF15C00B
:1020C000E6FF16C0E6FFD950020FE66E000EDA20DA
:1020D000E66E50EC71F0176E050EE15E1750DF6A88
:1020E000D9CFE6FFDACFE6FFD950020FE66E000E39
:1020F000DA20E66EDF50E76EFD0EDBCF14F0FE0E49
:10210000DBCF15F0E7501426000E152214C0E6FFB1
:1021100015C0E6FF66EC0BF0166E060EE15E16507B
:10212000000942E0020EE76EFB0EDBCFE9FFFC0E7A
:10213000DBCFEAFFE750E926000EEA22240EEF6E1D
:10214000D9CFE6FFDACFE6FF010EE76EFB0EDBCF5D
:1021500014F0FC0EDBCF15F0E7501426000E15220C
:1021600014C0E6FF15C0E6FFDF50E76EFD0EDBCFC3
:1021700016F0FE0EDBCF17F0E7501626000E1722E2
:1021800016C0E6FF17C0E6FF86EC0CF0186E060ED0
:10219000E15E1850000903E1000E3DEF2CF0020152
:1021A000696B010E3DEF2CF0DF6A030E146EDE0E3C
:1021B000156E166A14C0E6FF15C0E6FF16C0E6FFEE
:1021C000D950020FE66E000EDA20E66E50EC71F088
:1021D000176E050EE15E1750D9CFE6FFDACFE6FFA6
:1021E000D950020FE66E000EDA20E66EDF50E76E81
:1021F000FD0EDBCF14F0FE0EDBCF15F0E7501426FA
:10220000000E152214C0E6FF15C0E6FF66EC0BF0C9
:10221000166E060EE15E1650000902E1FEEF20F098
:10222000FB0EDBCFE9FFFC0EDBCFEAFF010EEF6E0A
:10223000D9CFE6FFDACFE6FFE76EFB0EDBCF14F077
:10224000FC0EDBCF15F0E7501426000E152214C04B
:10225000E6FF15C0E6FFDF50E76EFD0EDBCF16F0A0
:10226000FE0EDBCF17F0E7501626000E172216C021
:10227000E6FF17C0E6FF86EC0CF0186E060EE15E76
:102280001850000903E1000E3DEF2CF0010EDFCFE6
:10229000DBFFFF0E146EDD0E156E166A14C0E6FF2E
:1022A00015C0E6FF16C0E6FFD950020FE66E000E1D
:1022B000DA20E66E50EC71F0176E050EE15E1750F5
:1022C000D9CFE6FFDACFE6FFD950020FE66E000E57
:1022D000DA20E66EDF50E76EFD0EDBCF14F0FE0E67
:1022E000DBCF15F0E7501426000E152214C0E6FFD0
:1022F00015C0E6FF66EC0BF0166E060EE15E16509A
:10230000000921E0230EE76EFB0EDBCFE9FFFC0E98
:10231000DBCFEAFFE750E926000EEA22010EEF6E5E
:10232000240EE76EFB0EDBCFE9FFFC0EDBCFEAFFEE
:10233000E750E926000EEA22030EEF6E0201696BF8
:10234000010E3DEF2CF0FB0E146EDD0E156E166ABD
:1023500014C0E6FF15C0E6FF16C0E6FFD950020F15
:10236000E66E000EDA20E66E50EC71F0176E050E88
:10237000E15E1750010EDB50DF6ED9CFE6FFDACFFA
:10238000E6FFD950020FE66E000EDA20E66EDF504F
:10239000E76EFD0EDBCF14F0FE0EDBCF15F0E7503D
:1023A0001426000E152214C0E6FF15C0E6FF66ECE9
:1023B0000BF0166E060EE15E1650000921E0230EAA
:1023C000E76EFB0EDBCFE9FFFC0EDBCFEAFFE75049
:1023D000E926000EEA22010EEF6E240EE76EFB0ED8
:1023E000DBCFE9FFFC0EDBCFEAFFE750E926000E6A
:1023F000EA22060EEF6E0201696B010E3DEF2CF032
:10240000F60E146EDD0E156E166A14C0E6FF15C0CA
:10241000E6FF16C0E6FFD950020FE66E000EDA2086
:10242000E66E50EC71F0176E050EE15E1750010E6E
:10243000DB50DF6ED9CFE6FFDACFE6FFD950020FCF
:10244000E66E000EDA20E66EDF50E76EFD0EDBCFA3
:1024500014F0FE0EDBCF15F0E7501426000E152207
:1024600014C0E6FF15C0E6FF66EC0BF0166E060E14
:10247000E15E1650000901E1E0D0250EE76EFB0E8B
:10248000DBCFE9FFFC0EDBCFEAFFE750E926000EC9
:10249000EA22010EEF6ED9CFE6FFDACFE6FF260E75
:1024A000E76EFB0EDBCF14F0FC0EDBCF15F0E75030
:1024B0001426000E152214C0E6FF15C0E6FFDF50FB
:1024C000E76EFD0EDBCF16F0FE0EDBCF17F0E75008
:1024D0001626000E172216C0E6FF17C0E6FF86EC90
:1024E0000CF0186E060EE15E1850000903E1000EB4
:1024F0003DEF2CF0010EDFCFDBFFF30E146EDD0E8F
:10250000156E166A14C0E6FF15C0E6FF16C0E6FF9A
:10251000D950020FE66E000EDA20E66E50EC71F034
:10252000176E050EE15E1750D9CFE6FFDACFE6FF52
:10253000D950020FE66E000EDA20E66EDF50E76E2D
:10254000FD0EDBCF14F0FE0EDBCF15F0E7501426A6
:10255000000E152214C0E6FF15C0E6FF66EC0BF076
:10256000166E060EE15E1650000914E0270EE76EA7
:10257000FB0EDBCFE9FFFC0EDBCFEAFFE750E926DD
:10258000000EEA220B0EEF6E0201696B010E3DEFA9
:102590002CF053D0010EDB50DF6EEF0E146EDD0E0B
:1025A000156E166A14C0E6FF15C0E6FF16C0E6FFFA
:1025B000D950020FE66E000EDA20E66E50EC71F094
:1025C000176E050EE15E1750D9CFE6FFDACFE6FFB2
:1025D000D950020FE66E000EDA20E66EDF50E76E8D
:1025E000FD0EDBCF14F0FE0EDBCF15F0E750142606
:1025F000000E152214C0E6FF15C0E6FF66EC0BF0D6
:10260000166E060EE15E1650000914E0270EE76E06
:10261000FB0EDBCFE9FFFC0EDBCFEAFFE750E9263C
:10262000000EEA220E0EEF6E0201696B010E3DEF05
:102630002CF003D0000E3DEF2CF0010EDB50DF6ECE
:10264000EB0E146EDD0E156E166A14C0E6FF15C093
:10265000E6FF16C0E6FFD950020FE66E000EDA2044
:10266000E66E50EC71F0176E050EE15E1750D9CF93
:10267000E6FFDACFE6FFD950020FE66E000EDA2051
:10268000E66EDF50E76EFD0EDBCF14F0FE0EDBCF03
:1026900015F0E7501426000E152214C0E6FF15C0F1
:1026A000E6FF66EC0BF0166E060EE15E16500009B2
:1026B00002E180EF20F02B0EE76EFB0EDBCFE9FF8F
:1026C000FC0EDBCFEAFFE750E926000EEA22010EFE
:1026D000EF6E520EE76EFB0EDBCF14F0FC0EDBCF7D
:1026E00015F0E7501426000E152214C0E6FF15C0A1
:1026F000E6FFD9CFE6FFDACFE6FFFD0EDBCFE6FF40
:10270000FE0EDBCFE6FF73EC0DF0166E060EE15EFB
:102710001650000903E1000E3DEF2CF0010EDFCF53
:10272000DBFFE50E146EDD0E156E166A14C0E6FFB3
:1027300015C0E6FF16C0E6FFD950020FE66E000E88
:10274000DA20E66E50EC71F0176E050EE15E175060
:10275000D9CFE6FFDACFE6FFD950020FE66E000EC2
:10276000DA20E66EDF50E76EFD0EDBCF14F0FE0ED2
:10277000DBCF15F0E7501426000E152214C0E6FF3B
:1027800015C0E6FF66EC0BF0166E060EE15E165005
:1027900000090FE0510EE76EFB0EDBCFE9FFFC0EE8
:1027A000DBCFEAFFE750E926000EEA22280EEF6EA3
:1027B0004ED0010EDB50DF6EDE0E146EDD0E156E98
:1027C000166A14C0E6FF15C0E6FF16C0E6FFD95032
:1027D000020FE66E000EDA20E66E50EC71F0176E16
:1027E000050EE15E1750D9CFE6FFDACFE6FFD950EC
:1027F000020FE66E000EDA20E66EDF50E76EFD0E89
:10280000DBCF14F0FE0EDBCF15F0E7501426000EE0
:10281000152214C0E6FF15C0E6FF66EC0BF0166E3D
:10282000060EE15E165000090FE0510EE76EFB0E3A
:10283000DBCFE9FFFC0EDBCFEAFFE750E926000E15
:10284000EA22290EEF6E03D0000E3DEF2CF0500E61
:10285000E76EFB0EDBCFE9FFFC0EDBCFEAFFE750B4
:10286000E926000EEA22280EEF6ED80E146EDD0E59
:10287000156E166A14C0E6FF15C0E6FF16C0E6FF27
:10288000D950020FE66E000EDA20E66E50EC71F0C1
:10289000176E050EE15E1750D9CFE6FFDACFE6FFDF
:1028A000D950020FE66E000EDA20E66EDF50E76EBA
:1028B000FD0EDBCF14F0FE0EDBCF15F0E750142633
:1028C000000E152214C0E6FF15C0E6FF66EC0BF003
:1028D000166E060EE15E1650000902E17DEF20F053
:1028E000D9CFE6FFDACFE6FFD9500C0FE66E000E27
:1028F000DA20E66EDF50E76EFD0EDBCF14F0FE0E41
:10290000DBCF15F0E7501426000E152214C0E6FFA9
:1029100015C0E6FF86EC0CF0166E060EE15E165052
:10292000000903E1000E3DEF2CF0010EDFCFDBFFCD
:10293000F60E146EDD0E156E166A14C0E6FF15C095
:10294000E6FF16C0E6FFD950020FE66E000EDA2051
:10295000E66E50EC71F0176E050EE15E1750D9CFA0
:10296000E6FFDACFE6FFD950020FE66E000EDA205E
:10297000E66EDF50E76EFD0EDBCF14F0FE0EDBCF10
:1029800015F0E7501426000E152214C0E6FF15C0FE
:10299000E6FF66EC0BF0166E060EE15E16500009BF
:1029A00001E17CD02C0EE76EFB0EDBCFE9FFFC0EC5
:1029B000DBCFEAFFE750E926000EEA22010EEF6EB8
:1029C0002D0EE76EFB0EDBCFE9FFFC0EDBCFEAFF3F
:1029D000E750E926000EEA220C0EDBCFEFFFD9CF3D
:1029E000E6FFDACFE6FF2E0EE76EFB0EDBCF14F02C
:1029F000FC0EDBCF15F0E7501426000E152214C094
:102A0000E6FF15C0E6FFDF50E76EFD0EDBCF16F0E8
:102A1000FE0EDBCF17F0E7501626000E172216C069
:102A2000E6FF17C0E6FF86EC0CF0186E060EE15EBE
:102A30001850000903E1000E3DEF2CF0D9CFE6FF5E
:102A4000DACFE6FF2F0EE76EFB0EDBCF14F0FC0EA5
:102A5000DBCF15F0E7501426000E152214C0E6FF58
:102A600015C0E6FFDF50E76EFD0EDBCF16F0FE0E61
:102A7000DBCF17F0E7501626000E172216C0E6FF30
:102A800017C0E6FF86EC0CF0186E060EE15E1850DB
:102A9000000903E1000E3DEF2CF0EBD1010EDB50FD
:102AA000DF6ED20E146EDD0E156E166A14C0E6FFD0
:102AB00015C0E6FF16C0E6FFD950020FE66E000E05
:102AC000DA20E66E50EC71F0176E050EE15E1750DD
:102AD000D9CFE6FFDACFE6FFD950020FE66E000E3F
:102AE000DA20E66EDF50E76EFD0EDBCF14F0FE0E4F
:102AF000DBCF15F0E7501426000E152214C0E6FFB8
:102B000015C0E6FF66EC0BF0166E060EE15E165081
:102B100000094DE0300EE76EFB0EDBCFE9FFFC0E47
:102B2000DBCFEAFFE750E926000EEA22010EEF6E46
:102B3000310EE76EFB0EDBCFE9FFFC0EDBCFEAFFC9
:102B4000E750E926000EEA220C0EDBCFEFFFD9CFCB
:102B5000E6FFDACFE6FF320EE76EFB0EDBCF14F0B6
:102B6000FC0EDBCF15F0E7501426000E152214C022
:102B7000E6FF15C0E6FFDF50E76EFD0EDBCF16F077
:102B8000FE0EDBCF17F0E7501626000E172216C0F8
:102B9000E6FF17C0E6FF86EC0CF0186E060EE15E4D
:102BA0001850000903E1000E3DEF2CF062D1010E38
:102BB000DB50DF6ECC0E146EDD0E156E166A14C07F
:102BC000E6FF15C0E6FF16C0E6FFD950020FE66E1D
:102BD000000EDA20E66E50EC71F0176E050EE15E25
:102BE0001750D9CFE6FFDACFE6FFD950020FE66ED5
:102BF000000EDA20E66EDF50E76EFD0EDBCF14F03C
:102C0000FE0EDBCF15F0E7501426000E152214C07F
:102C1000E6FF15C0E6FF66EC0BF0166E060EE15EF1
:102C20001650000901E122D1330EE76EFB0EDBCF17
:102C3000E9FFFC0EDBCFEAFFE750E926000EEA22AF
:102C4000010EEF6E340EE76EFB0EDBCFE9FFFC0EDC
:102C5000DBCFEAFFE750E926000EEA220C0EDBCFBD
:102C6000EFFFD9CFE6FFDACFE6FF350EE76EFB0EBA
:102C7000DBCF14F0FC0EDBCF15F0E7501426000E6E
:102C8000152214C0E6FF15C0E6FFDF50E76EFD0E0B
:102C9000DBCF16F0FE0EDBCF17F0E7501626000E46
:102CA000172216C0E6FF17C0E6FF86EC0CF0186E80
:102CB000060EE15E1850000903E1000E3DEF2CF016
:102CC000C80E146EDD0E156E166A14C0E6FF15C030
:102CD000E6FF16C0E6FFD950020FE66E000EDA20BE
:102CE000E66E50EC71F0176E050EE15E1750D9CF0D
:102CF000E6FFDACFE6FFD950020FE66E000EDA20CB
:102D0000E66EDF50E76EFD0EDBCF14F0FE0EDBCF7C
:102D100015F0E7501426000E152214C0E6FF15C06A
:102D2000E6FF66EC0BF0166E060EE15E165000092B
:102D300003E1000E3DEF2CF0010EDFCFDBFFC00EF4
:102D4000146EDD0E156E166A14C0E6FF15C0E6FFA0
:102D500016C0E6FFD950020FE66E000EDA20E66ECE
:102D600050EC71F0176E050EE15E1750D9CFE6FFFB
:102D7000DACFE6FFD950020FE66E000EDA20E66EDB
:102D8000DF50E76EFD0EDBCF14F0FE0EDBCF15F04B
:102D9000E7501426000E152214C0E6FF15C0E6FF0A
:102DA00066EC0BF0166E060EE15E165000090FE0A1
:102DB000360EE76EFB0EDBCFE9FFFC0EDBCFEAFF42
:102DC000E750E926000EEA220F0EEF6E4ED0010EFC
:102DD000DB50DF6EB70E146EDD0E156E166A14C072
:102DE000E6FF15C0E6FF16C0E6FFD950020FE66EFB
:102DF000000EDA20E66E50EC71F0176E050EE15E03
:102E00001750D9CFE6FFDACFE6FFD950020FE66EB2
:102E1000000EDA20E66EDF50E76EFD0EDBCF14F019
:102E2000FE0EDBCF15F0E7501426000E152214C05D
:102E3000E6FF15C0E6FF66EC0BF0166E060EE15ECF
:102E4000165000090FE0360EE76EFB0EDBCFE9FFF0
:102E5000FC0EDBCFEAFFE750E926000EEA22100E57
:102E6000EF6E03D0000E3DEF2CF003D0000E3DEFCF
:102E70002CF0B30E146EDD0E156E166A14C0E6FF4C
:102E800015C0E6FF16C0E6FFD950020FE66E000E31
:102E9000DA20E66E50EC71F0176E050EE15E175009
:102EA000D9CFE6FFDACFE6FFD950020FE66E000E6B
:102EB000DA20E66EDF50E76EFD0EDBCF14F0FE0E7B
:102EC000DBCF15F0E7501426000E152214C0E6FFE4
:102ED00015C0E6FF66EC0BF0166E060EE15E1650AE
:102EE000000903E1000E3DEF2CF0010EDFCFDBFF08
:102EF000F60E146EDD0E156E166A14C0E6FF15C0D0
:102F0000E6FF16C0E6FFD950020FE66E000EDA208B
:102F1000E66E50EC71F0176E050EE15E1750D9CFDA
:102F2000E6FFDACFE6FFD950020FE66E000EDA2098
:102F3000E66EDF50E76EFD0EDBCF14F0FE0EDBCF4A
:102F400015F0E7501426000E152214C0E6FF15C038
:102F5000E6FF66EC0BF0166E060EE15E16500009F9
:102F600071E0370EE76EFB0EDBCFE9FFFC0EDBCF27
:102F7000EAFFE750E926000EEA22010EEF6ED9CFF4
:102F8000E6FFDACFE6FF380EE76EFB0EDBCF14F07C
:102F9000FC0EDBCF15F0E7501426000E152214C0EE
:102FA000E6FF15C0E6FFDF50E76EFD0EDBCF16F043
:102FB000FE0EDBCF17F0E7501626000E172216C0C4
:102FC000E6FF17C0E6FF86EC0CF0186E060EE15E19
:102FD0001850000903E1000E3DEF2CF0D9CFE6FFB9
:102FE000DACFE6FF390EE76EFB0EDBCF14F0FC0EF6
:102FF000DBCF15F0E7501426000E152214C0E6FFB3
:1030000015C0E6FFDF50E76EFD0EDBCF16F0FE0EBB
:10301000DBCF17F0E7501626000E172216C0E6FF8A
:1030200017C0E6FF86EC0CF0186E060EE15E185035
:10303000000903E1000E3DEF2CF00201696B010E67
:103040003DEF2CF0010EDB50DF6ED20E146EDD0E64
:10305000156E166A14C0E6FF15C0E6FF16C0E6FF3F
:10306000D950020FE66E000EDA20E66E50EC71F0D9
:10307000176E050EE15E1750D9CFE6FFDACFE6FFF7
:10308000D950020FE66E000EDA20E66EDF50E76ED2
:10309000FD0EDBCF14F0FE0EDBCF15F0E75014264B
:1030A000000E152214C0E6FF15C0E6FF66EC0BF01B
:1030B000166E060EE15E1650000971E03A0EE76EDC
:1030C000FB0EDBCFE9FFFC0EDBCFEAFFE750E92682
:1030D000000EEA22010EEF6ED9CFE6FFDACFE6FF4F
:1030E0003B0EE76EFB0EDBCF14F0FC0EDBCF15F0D2
:1030F000E7501426000E152214C0E6FF15C0E6FFA7
:10310000DF50E76EFD0EDBCF16F0FE0EDBCF17F0C3
:10311000E7501626000E172216C0E6FF17C0E6FF7E
:1031200086EC0CF0186E060EE15E1850000903E103
:10313000000E3DEF2CF0D9CFE6FFDACFE6FF3C0ED4
:10314000E76EFB0EDBCF14F0FC0EDBCF15F0E75083
:103150001426000E152214C0E6FF15C0E6FFDF504E
:10316000E76EFD0EDBCF16F0FE0EDBCF17F0E7505B
:103170001626000E172216C0E6FF17C0E6FF86ECE3
:103180000CF0186E060EE15E1850000903E1000E07
:103190003DEF2CF00201696B010E3DEF2CF0010EAA
:1031A000DB50DF6EAF0E146EDD0E156E166A14C0A6
:1031B000E6FF15C0E6FF16C0E6FFD950020FE66E27
:1031C000000EDA20E66E50EC71F0176E050EE15E2F
:1031D0001750D9CFE6FFDACFE6FFD950020FE66EDF
:1031E000000EDA20E66EDF50E76EFD0EDBCF14F046
:1031F000FE0EDBCF15F0E7501426000E152214C08A
:10320000E6FF15C0E6FF66EC0BF0166E060EE15EFB
:103210001650000971E03D0EE76EFB0EDBCFE9FFB3
:10322000FC0EDBCFEAFFE750E926000EEA22010E92
:10323000EF6ED9CFE6FFDACFE6FF3E0EE76EFB0E6C
:10324000DBCF14F0FC0EDBCF15F0E7501426000E98
:10325000152214C0E6FF15C0E6FFDF50E76EFD0E35
:10326000DBCF16F0FE0EDBCF17F0E7501626000E70
:10327000172216C0E6FF17C0E6FF86EC0CF0186EAA
:10328000060EE15E1850000903E1000E3DEF2CF040
:10329000D9CFE6FFDACFE6FF3F0EE76EFB0EDBCFBE
:1032A00014F0FC0EDBCF15F0E7501426000E1522AB
:1032B00014C0E6FF15C0E6FFDF50E76EFD0EDBCF62
:1032C00016F0FE0EDBCF17F0E7501626000E172281
:1032D00016C0E6FF17C0E6FF86EC0CF0186E060E6F
:1032E000E15E1850000903E1000E3DEF2CF00201F1
:1032F000696B010E3DEF2CF0010EDB50DF6EE50E29
:10330000146EDD0E156E166A14C0E6FF15C0E6FFDA
:1033100016C0E6FFD950020FE66E000EDA20E66E08
:1033200050EC71F0176E050EE15E1750D9CFE6FF35
:10333000DACFE6FFD950020FE66E000EDA20E66E15
:10334000DF50E76EFD0EDBCF14F0FE0EDBCF15F085
:10335000E7501426000E152214C0E6FF15C0E6FF44
:1033600066EC0BF0166E060EE15E1650000946E0A4
:10337000400EE76EFB0EDBCFE9FFFC0EDBCFEAFF72
:10338000E750E926000EEA22010EEF6E410EE76ECD
:10339000FB0EDBCF14F0FC0EDBCF15F0E75014264C
:1033A000000E152214C0E6FF15C0E6FFD9CFE6FFD8
:1033B000DACFE6FFFD0EDBCFE6FFFE0EDBCFE6FF4A
:1033C00073EC0DF0166E060EE15E1650000903E177
:1033D000000E3DEF2CF0450EE76EFB0EDBCFE9FF54
:1033E000FC0EDBCFEAFFE750E926000EEA22280EAA
:1033F000EF6E0201696B010E3DEF2CF0010EDB5008
:10340000DF6EDE0E146EDD0E156E166A14C0E6FF5A
:1034100015C0E6FF16C0E6FFD950020FE66E000E9B
:10342000DA20E66E50EC71F0176E050EE15E175073
:10343000D9CFE6FFDACFE6FFD950020FE66E000ED5
:10344000DA20E66EDF50E76EFD0EDBCF14F0FE0EE5
:10345000DBCF15F0E7501426000E152214C0E6FF4E
:1034600015C0E6FF66EC0BF0166E060EE15E165018
:10347000000946E0400EE76EFB0EDBCFE9FFFC0ED5
:10348000DBCFEAFFE750E926000EEA22010EEF6EDD
:10349000410EE76EFB0EDBCF14F0FC0EDBCF15F018
:1034A000E7501426000E152214C0E6FF15C0E6FFF3
:1034B000D9CFE6FFDACFE6FFFD0EDBCFE6FFFE0E4B
:1034C000DBCFE6FF73EC0DF0166E060EE15E1650D4
:1034D000000903E1000E3DEF2CF0450EE76EFB0EF8
:1034E000DBCFE9FFFC0EDBCFEAFFE750E926000E59
:1034F000EA22290EEF6E0201696B010E3DEF2CF0FE
:10350000010EDB50DF6ECC0E146EDD0E156E166AEA
:1035100014C0E6FF15C0E6FF16C0E6FFD950020F43
:10352000E66E000EDA20E66E50EC71F0176E050EB6
:10353000E15E1750D9CFE6FFDACFE6FFD950020F90
:10354000E66E000EDA20E66EDF50E76EFD0EDBCF92
:1035500014F0FE0EDBCF15F0E7501426000E1522F6
:1035600014C0E6FF15C0E6FF66EC0BF0166E060E03
:10357000E15E1650000901E1E1D2460EE76EFB0E56
:10358000DBCFE9FFFC0EDBCFEAFFE750E926000EB8
:10359000EA22010EEF6ED9CFE6FFDACFE6FF470E43
:1035A000E76EFB0EDBCF14F0FC0EDBCF15F0E7501F
:1035B0001426000E152214C0E6FF15C0E6FFDF50EA
:1035C000E76EFD0EDBCF16F0FE0EDBCF17F0E750F7
:1035D0001626000E172216C0E6FF17C0E6FF86EC7F
:1035E0000CF0186E060EE15E1850000903E1000EA3
:1035F0003DEF2CF0A90E146EDD0E156E166A14C088
:10360000E6FF15C0E6FF16C0E6FFD950020FE66ED2
:10361000000EDA20E66E50EC71F0176E050EE15EDA
:103620001750D9CFE6FFDACFE6FFD950020FE66E8A
:10363000000EDA20E66EDF50E76EFD0EDBCF14F0F1
:10364000FE0EDBCF15F0E7501426000E152214C035
:10365000E6FF15C0E6FF66EC0BF0166E060EE15EA7
:103660001650000903E1000E3DEF2CF0010EDFCFF4
:10367000DBFFA30E146EDD0E156E166A14C0E6FF96
:1036800015C0E6FF16C0E6FFD950020FE66E000E29
:10369000DA20E66E50EC71F0176E050EE15E175001
:1036A000D9CFE6FFDACFE6FFD950020FE66E000E63
:1036B000DA20E66EDF50E76EFD0EDBCF14F0FE0E73
:1036C000DBCF15F0E7501426000E152214C0E6FFDC
:1036D00015C0E6FF66EC0BF0166E060EE15E1650A6
:1036E00000090EE0480EE76EFB0EDBCFE9FFFC0E93
:1036F000DBCFEAFFE750E926000EEA22EF687DD033
:10370000010EDB50DF6E9D0E146EDD0E156E166A17
:1037100014C0E6FF15C0E6FF16C0E6FFD950020F41
:10372000E66E000EDA20E66E50EC71F0176E050EB4
:10373000E15E1750D9CFE6FFDACFE6FFD950020F8E
:10374000E66E000EDA20E66EDF50E76EFD0EDBCF90
:1037500014F0FE0EDBCF15F0E7501426000E1522F4
:1037600014C0E6FF15C0E6FF66EC0BF0166E060E01
:10377000E15E165000090FE0480EE76EFB0EDBCF4E
:10378000E9FFFC0EDBCFEAFFE750E926000EEA2254
:10379000EE0EEF6E32D0010EDB50DF6ED9CFE6FFBA
:1037A000DACFE6FF480EE76EFB0EDBCF14F0FC0E1F
:1037B000DBCF15F0E7501426000E152214C0E6FFEB
:1037C00015C0E6FFDF50E76EFD0EDBCF16F0FE0EF4
:1037D000DBCF17F0E7501626000E172216C0E6FFC3
:1037E00017C0E6FF86EC0CF0186E060EE15E18506E
:1037F000000903E1000E3DEF2CF0010EDFCFDBFFEF
:10380000980E146EDD0E156E166A14C0E6FF15C014
:10381000E6FF16C0E6FFD950020FE66E000EDA2072
:10382000E66E50EC71F0176E050EE15E1750D9CFC1
:10383000E6FFDACFE6FFD950020FE66E000EDA207F
:10384000E66EDF50E76EFD0EDBCF14F0FE0EDBCF31
:1038500015F0E7501426000E152214C0E6FF15C01F
:10386000E6FF66EC0BF0166E060EE15E16500009E0
:103870000FE0490EE76EFB0EDBCFE9FFFC0EDBCF5E
:10388000EAFFE750E926000EEA22130EEF6E4ED053
:10389000010EDB50DF6E930E146EDD0E156E166A90
:1038A00014C0E6FF15C0E6FF16C0E6FFD950020FB0
:1038B000E66E000EDA20E66E50EC71F0176E050E23
:1038C000E15E1750D9CFE6FFDACFE6FFD950020FFD
:1038D000E66E000EDA20E66EDF50E76EFD0EDBCFFF
:1038E00014F0FE0EDBCF15F0E7501426000E152263
:1038F00014C0E6FF15C0E6FF66EC0BF0166E060E70
:10390000E15E165000090FE0490EE76EFB0EDBCFBB
:10391000E9FFFC0EDBCFEAFFE750E926000EEA22C2
:10392000140EEF6E03D0000E3DEF2CF08B0E146ED4
:10393000DD0E156E166A14C0E6FF15C0E6FF16C050
:10394000E6FFD950020FE66E000EDA20E66E50EC6C
:1039500071F0176E050EE15E1750D9CFE6FFDACF92
:10396000E6FFD950020FE66E000EDA20E66EDF5059
:10397000E76EFD0EDBCF14F0FE0EDBCF15F0E75047
:103980001426000E152214C0E6FF15C0E6FF66ECF3
:103990000BF0166E060EE15E1650000903E1000EF4
:1039A0003DEF2CF0010EDFCFDBFFA30E146EDD0E1A
:1039B000156E166A14C0E6FF15C0E6FF16C0E6FFD6
:1039C000D950020FE66E000EDA20E66E50EC71F070
:1039D000176E050EE15E1750D9CFE6FFDACFE6FF8E
:1039E000D950020FE66E000EDA20E66EDF50E76E69
:1039F000FD0EDBCF14F0FE0EDBCF15F0E7501426E2
:103A0000000E152214C0E6FF15C0E6FF66EC0BF0B1
:103A1000166E060EE15E165000090EE04A0EE76EC5
:103A2000FB0EDBCFE9FFFC0EDBCFEAFFE750E92618
:103A3000000EEA22EF687DD0010EDB50DF6E9D0E96
:103A4000146EDD0E156E166A14C0E6FF15C0E6FF93
:103A500016C0E6FFD950020FE66E000EDA20E66EC1
:103A600050EC71F0176E050EE15E1750D9CFE6FFEE
:103A7000DACFE6FFD950020FE66E000EDA20E66ECE
:103A8000DF50E76EFD0EDBCF14F0FE0EDBCF15F03E
:103A9000E7501426000E152214C0E6FF15C0E6FFFD
:103AA00066EC0BF0166E060EE15E165000090FE094
:103AB0004A0EE76EFB0EDBCFE9FFFC0EDBCFEAFF21
:103AC000E750E926000EEA22EE0EEF6E32D0010E2C
:103AD000DB50DF6ED9CFE6FFDACFE6FF4A0EE76EA6
:103AE000FB0EDBCF14F0FC0EDBCF15F0E7501426F5
:103AF000000E152214C0E6FF15C0E6FFDF50E76E8A
:103B0000FD0EDBCF16F0FE0EDBCF17F0E7501626CA
:103B1000000E172216C0E6FF17C0E6FF86EC0CF079
:103B2000186E060EE15E1850000903E1000E3DEF2D
:103B30002CF00201696B010E3DEF2CF0010EDB5001
:103B4000DF6E830E146EDD0E156E166A14C0E6FF6E
:103B500015C0E6FF16C0E6FFD950020FE66E000E54
:103B6000DA20E66E50EC71F0176E050EE15E17502C
:103B7000D9CFE6FFDACFE6FFD950020FE66E000E8E
:103B8000DA20E66EDF50E76EFD0EDBCF14F0FE0E9E
:103B9000DBCF15F0E7501426000E152214C0E6FF07
:103BA00015C0E6FF66EC0BF0166E060EE15E1650D1
:103BB000000921E04B0EE76EFB0EDBCFE9FFFC0EA8
:103BC000DBCFEAFFE750E926000EEA22010EEF6E96
:103BD0004C0EE76EFB0EDBCFE9FFFC0EDBCFEAFFFE
:103BE000E750E926000EEA222E0EEF6E0201696B05
:103BF000010E3DEF2CF0010EDB50DF6E7B0E146EDC
:103C0000DD0E156E166A14C0E6FF15C0E6FF16C07D
:103C1000E6FFD950020FE66E000EDA20E66E50EC99
:103C200071F0176E050EE15E1750D9CFE6FFDACFBF
:103C3000E6FFD950020FE66E000EDA20E66EDF5086
:103C4000E76EFD0EDBCF14F0FE0EDBCF15F0E75074
:103C50001426000E152214C0E6FF15C0E6FF66EC20
:103C60000BF0166E060EE15E1650000921E04B0EB9
:103C7000E76EFB0EDBCFE9FFFC0EDBCFEAFFE75080
:103C8000E926000EEA22010EEF6E4C0EE76EFB0EE7
:103C9000DBCFE9FFFC0EDBCFEAFFE750E926000EA1
:103CA000EA222F0EEF6E0201696B010E3DEF2CF040
:103CB000010EDB50DF6E730E146EDD0E156E166A8C
:103CC00014C0E6FF15C0E6FF16C0E6FFD950020F8C
:103CD000E66E000EDA20E66E50EC71F0176E050EFF
:103CE000E15E1750D9CFE6FFDACFE6FFD950020FD9
:103CF000E66E000EDA20E66EDF50E76EFD0EDBCFDB
:103D000014F0FE0EDBCF15F0E7501426000E15223E
:103D100014C0E6FF15C0E6FF66EC0BF0166E060E4B
:103D2000E15E1650000921E04B0EE76EFB0EDBCF83
:103D3000E9FFFC0EDBCFEAFFE750E926000EEA229E
:103D4000010EEF6E4C0EE76EFB0EDBCFE9FFFC0EB3
:103D5000DBCFEAFFE750E926000EEA22300EEF6ED5
:103D60000201696B010E3DEF2CF0010EDB50DF6E9E
:103D70006B0E146EDD0E156E166A14C0E6FF15C0CC
:103D8000E6FF16C0E6FFD950020FE66E000EDA20FD
:103D9000E66E50EC71F0176E050EE15E1750D9CF4C
:103DA000E6FFDACFE6FFD950020FE66E000EDA200A
:103DB000E66EDF50E76EFD0EDBCF14F0FE0EDBCFBC
:103DC00015F0E7501426000E152214C0E6FF15C0AA
:103DD000E6FF66EC0BF0166E060EE15E165000096B
:103DE00021E04B0EE76EFB0EDBCFE9FFFC0EDBCFD5
:103DF000EAFFE750E926000EEA22010EEF6E4C0EB4
:103E0000E76EFB0EDBCFE9FFFC0EDBCFEAFFE750EE
:103E1000E926000EEA22310EEF6E0201696B010EF7
:103E20003DEF2CF0010EDB50DF6E640E146EDD0EE4
:103E3000156E166A14C0E6FF15C0E6FF16C0E6FF51
:103E4000D950020FE66E000EDA20E66E50EC71F0EB
:103E5000176E050EE15E1750D9CFE6FFDACFE6FF09
:103E6000D950020FE66E000EDA20E66EDF50E76EE4
:103E7000FD0EDBCF14F0FE0EDBCF15F0E75014265D
:103E8000000E152214C0E6FF15C0E6FF66EC0BF02D
:103E9000166E060EE15E1650000921E04B0EE76E2D
:103EA000FB0EDBCFE9FFFC0EDBCFEAFFE750E92694
:103EB000000EEA22010EEF6E4C0EE76EFB0EDBCF1A
:103EC000E9FFFC0EDBCFEAFFE750E926000EEA220D
:103ED0002B0EEF6E0201696B010E3DEF2CF0010E0F
:103EE000DB50DF6E5A0E146EDD0E156E166A14C0AE
:103EF000E6FF15C0E6FF16C0E6FFD950020FE66EDA
:103F0000000EDA20E66E50EC71F0176E050EE15EE1
:103F10001750D9CFE6FFDACFE6FFD950020FE66E91
:103F2000000EDA20E66EDF50E76EFD0EDBCF14F0F8
:103F3000FE0EDBCF15F0E7501426000E152214C03C
:103F4000E6FF15C0E6FF66EC0BF0166E060EE15EAE
:103F50001650000921E04B0EE76EFB0EDBCFE9FFA8
:103F6000FC0EDBCFEAFFE750E926000EEA22010E45
:103F7000EF6E4C0EE76EFB0EDBCFE9FFFC0EDBCFE6
:103F8000EAFFE750E926000EEA222C0EEF6E02014E
:103F9000696B010E3DEF2CF0010EDB50DF6EFF0E62
:103FA000146EDD0E156E166A14C0E6FF15C0E6FF2E
:103FB00016C0E6FFD950020FE66E000EDA20E66E5C
:103FC00050EC71F0176E050EE15E1750D9CFE6FF89
:103FD000DACFE6FFD950020FE66E000EDA20E66E69
:103FE000DF50E76EFD0EDBCF14F0FE0EDBCF15F0D9
:103FF000E7501426000E152214C0E6FF15C0E6FF98
:1040000066EC0BF0166E060EE15E1650000971E0CC
:104010004D0EE76EFB0EDBCFE9FFFC0EDBCFEAFFB8
:10402000E750E926000EEA22010EEF6ED9CFE6FF37
:10403000DACFE6FF4E0EE76EFB0EDBCF14F0FC0E80
:10404000DBCF15F0E7501426000E152214C0E6FF52
:1040500015C0E6FFDF50E76EFD0EDBCF16F0FE0E5B
:10406000DBCF17F0E7501626000E172216C0E6FF2A
:1040700017C0E6FF86EC0CF0186E060EE15E1850D5
:10408000000903E1000E3DEF2CF0D9CFE6FFDACFB7
:10409000E6FF4F0EE76EFB0EDBCF14F0FC0EDBCF1E
:1040A00015F0E7501426000E152214C0E6FF15C0C7
:1040B000E6FFDF50E76EFD0EDBCF16F0FE0EDBCF26
:1040C00017F0E7501626000E172216C0E6FF17C09D
:1040D000E6FF86EC0CF0186E060EE15E1850000943
:1040E00003E1000E3DEF2CF00201696B010E3DEF84
:1040F0002CF0000E3DEF2CF003D0000E3DEF2CF025
:10410000010EDB50DF6E560E146EDD0E156E166A54
:1041100014C0E6FF15C0E6FF16C0E6FFD950020F37
:10412000E66E000EDA20E66E50EC71F0176E050EAA
:10413000E15E1750D9CFE6FFDACFE6FFD950020F84
:10414000E66E000EDA20E66EDF50E76EFD0EDBCF86
:1041500014F0FE0EDBCF15F0E7501426000E1522EA
:1041600014C0E6FF15C0E6FF66EC0BF0166E060EF7
:10417000E15E1650000942E0550EE76EFB0EDBCF04
:10418000E9FFFC0EDBCFEAFFE750E926000EEA224A
:10419000010EEF6ED9CFE6FFDACFE6FF560EE76EDF
:1041A000FB0EDBCF14F0FC0EDBCF15F0E75014262E
:1041B000000E152214C0E6FF15C0E6FFDF50E76EC3
:1041C000FD0EDBCF16F0FE0EDBCF17F0E750162604
:1041D000000E172216C0E6FF17C0E6FF86EC0CF0B3
:1041E000186E060EE15E1850000903E1000E3DEF67
:1041F0002CF00201696B010E3DEF2CF0DF6A520ECC
:10420000146EDD0E156E166A14C0E6FF15C0E6FFCB
:1042100016C0E6FFD950020FE66E000EDA20E66EF9
:1042200050EC71F0176E050EE15E1750D9CFE6FF26
:10423000DACFE6FFD950020FE66E000EDA20E66E06
:10424000DF50E76EFD0EDBCF14F0FE0EDBCF15F076
:10425000E7501426000E152214C0E6FF15C0E6FF35
:1042600066EC0BF0166E060EE15E1650000902E1D8
:104270003BEF2CF0FB0EDBCFE9FFFC0EDBCFEAFFC0
:10428000020EEF6ED9CFE6FFDACFE6FF010EE76E42
:10429000FB0EDBCF14F0FC0EDBCF15F0E75014263D
:1042A000000E152214C0E6FF15C0E6FFDF50E76ED2
:1042B000FD0EDBCF16F0FE0EDBCF17F0E750162613
:1042C000000E172216C0E6FF17C0E6FF86EC0CF0C2
:1042D000186E060EE15E1850000903E1000E3DEF76
:1042E0002CF0010EDFCFDBFFF60E146EDD0E156E27
:1042F000166A14C0E6FF15C0E6FF16C0E6FFD950E7
:10430000020FE66E000EDA20E66E50EC71F0176ECA
:10431000050EE15E1750D9CFE6FFDACFE6FFD950A0
:10432000020FE66E000EDA20E66EDF50E76EFD0E3D
:10433000DBCF14F0FE0EDBCF15F0E7501426000E95
:10434000152214C0E6FF15C0E6FF66EC0BF0166EF2
:10435000060EE15E1650000971E0030EE76EFB0EDB
:10436000DBCFE9FFFC0EDBCFEAFFE750E926000ECA
:10437000EA22010EEF6ED9CFE6FFDACFE6FF040E98
:10438000E76EFB0EDBCF14F0FC0EDBCF15F0E75031
:104390001426000E152214C0E6FF15C0E6FFDF50FC
:1043A000E76EFD0EDBCF16F0FE0EDBCF17F0E75009
:1043B0001626000E172216C0E6FF17C0E6FF86EC91
:1043C0000CF0186E060EE15E1850000903E1000EB5
:1043D0003DEF2CF0D9CFE6FFDACFE6FF050EE76E12
:1043E000FB0EDBCF14F0FC0EDBCF15F0E7501426EC
:1043F000000E152214C0E6FF15C0E6FFDF50E76E81
:10440000FD0EDBCF16F0FE0EDBCF17F0E7501626C1
:10441000000E172216C0E6FF17C0E6FF86EC0CF070
:10442000186E060EE15E1850000903E1000E3DEF24
:104430002CF00201696B010E3DEF2CF0010EDB50F8
:10444000DF6ED20E146EDD0E156E166A14C0E6FF16
:1044500015C0E6FF16C0E6FFD950020FE66E000E4B
:10446000DA20E66E50EC71F0176E050EE15E175023
:10447000D9CFE6FFDACFE6FFD950020FE66E000E85
:10448000DA20E66EDF50E76EFD0EDBCF14F0FE0E95
:10449000DBCF15F0E7501426000E152214C0E6FFFE
:1044A00015C0E6FF66EC0BF0166E060EE15E1650C8
:1044B000000971E0060EE76EFB0EDBCFE9FFFC0E94
:1044C000DBCFEAFFE750E926000EEA22010EEF6E8D
:1044D000D9CFE6FFDACFE6FF070EE76EFB0EDBCFA4
:1044E00014F0FC0EDBCF15F0E7501426000E152259
:1044F00014C0E6FF15C0E6FFDF50E76EFD0EDBCF10
:1045000016F0FE0EDBCF17F0E7501626000E17222E
:1045100016C0E6FF17C0E6FF86EC0CF0186E060E1C
:10452000E15E1850000903E1000E3DEF2CF0D9CFF9
:10453000E6FFDACFE6FF080EE76EFB0EDBCF14F0E6
:10454000FC0EDBCF15F0E7501426000E152214C028
:10455000E6FF15C0E6FFDF50E76EFD0EDBCF16F07D
:10456000FE0EDBCF17F0E7501626000E172216C0FE
:10457000E6FF17C0E6FF86EC0CF0186E060EE15E53
:104580001850000903E1000E3DEF2CF00201696BA9
:10459000010E3DEF2CF0010EDB50DF6EAF0E146EFE
:1045A000DD0E156E166A14C0E6FF15C0E6FF16C0D4
:1045B000E6FFD950020FE66E000EDA20E66E50ECF0
:1045C00071F0176E050EE15E1750D9CFE6FFDACF16
:1045D000E6FFD950020FE66E000EDA20E66EDF50DD
:1045E000E76EFD0EDBCF14F0FE0EDBCF15F0E750CB
:1045F0001426000E152214C0E6FF15C0E6FF66EC77
:104600000BF0166E060EE15E1650000971E0090E01
:10461000E76EFB0EDBCFE9FFFC0EDBCFEAFFE750D6
:10462000E926000EEA22010EEF6ED9CFE6FFDACFBF
:10463000E6FF0A0EE76EFB0EDBCF14F0FC0EDBCFBD
:1046400015F0E7501426000E152214C0E6FF15C021
:10465000E6FFDF50E76EFD0EDBCF16F0FE0EDBCF80
:1046600017F0E7501626000E172216C0E6FF17C0F7
:10467000E6FF86EC0CF0186E060EE15E185000099D
:1046800003E1000E3DEF2CF0D9CFE6FFDACFE6FFD5
:104690000B0EE76EFB0EDBCF14F0FC0EDBCF15F03C
:1046A000E7501426000E152214C0E6FF15C0E6FFE1
:1046B000DF50E76EFD0EDBCF16F0FE0EDBCF17F0FE
:1046C000E7501626000E172216C0E6FF17C0E6FFB9
:1046D00086EC0CF0186E060EE15E1850000903E13E
:1046E000000E3DEF2CF00201696B010E3DEF2CF046
:1046F000010EDB50DF6EE50E146EDD0E156E166AD0
:1047000014C0E6FF15C0E6FF16C0E6FFD950020F41
:10471000E66E000EDA20E66E50EC71F0176E050EB4
:10472000E15E1750D9CFE6FFDACFE6FFD950020F8E
:10473000E66E000EDA20E66EDF50E76EFD0EDBCF90
:1047400014F0FE0EDBCF15F0E7501426000E1522F4
:1047500014C0E6FF15C0E6FF66EC0BF0166E060E01
:10476000E15E1650000946E00C0EE76EFB0EDBCF53
:10477000E9FFFC0EDBCFEAFFE750E926000EEA2254
:10478000010EEF6E0D0EE76EFB0EDBCF14F0FC0E8C
:10479000DBCF15F0E7501426000E152214C0E6FFFB
:1047A00015C0E6FFD9CFE6FFDACFE6FFFD0EDBCF7F
:1047B000E6FFFE0EDBCFE6FF73EC0DF0166E060E85
:1047C000E15E1650000903E1000E3DEF2CF0110EE2
:1047D000E76EFB0EDBCFE9FFFC0EDBCFEAFFE75015
:1047E000E926000EEA22280EEF6E0201696B010E27
:1047F0003DEF2CF0010EDB50DF6EDE0E146EDD0E91
:10480000156E166A14C0E6FF15C0E6FF16C0E6FF77
:10481000D950020FE66E000EDA20E66E50EC71F011
:10482000176E050EE15E1750D9CFE6FFDACFE6FF2F
:10483000D950020FE66E000EDA20E66EDF50E76E0A
:10484000FD0EDBCF14F0FE0EDBCF15F0E750142683
:10485000000E152214C0E6FF15C0E6FF66EC0BF053
:10486000166E060EE15E1650000946E00C0EE76E6D
:10487000FB0EDBCFE9FFFC0EDBCFEAFFE750E926BA
:10488000000EEA22010EEF6E0D0EE76EFB0EDBCF7F
:1048900014F0FC0EDBCF15F0E7501426000E1522A5
:1048A00014C0E6FF15C0E6FFD9CFE6FFDACFE6FF7A
:1048B000FD0EDBCFE6FFFE0EDBCFE6FF73EC0DF067
:1048C000166E060EE15E1650000903E1000E3DEF84
:1048D0002CF0110EE76EFB0EDBCFE9FFFC0EDBCFF9
:1048E000EAFFE750E926000EEA22290EEF6E0201E8
:1048F000696B010E3DEF2CF0010EDB50DF6ECC0E2C
:10490000146EDD0E156E166A14C0E6FF15C0E6FFC4
:1049100016C0E6FFD950020FE66E000EDA20E66EF2
:1049200050EC71F0176E050EE15E1750D9CFE6FF1F
:10493000DACFE6FFD950020FE66E000EDA20E66EFF
:10494000DF50E76EFD0EDBCF14F0FE0EDBCF15F06F
:10495000E7501426000E152214C0E6FF15C0E6FF2E
:1049600066EC0BF0166E060EE15E1650000901E1D2
:10497000E1D2120EE76EFB0EDBCFE9FFFC0EDBCFC0
:10498000EAFFE750E926000EEA22010EEF6ED9CFCA
:10499000E6FFDACFE6FF130EE76EFB0EDBCF14F077
:1049A000FC0EDBCF15F0E7501426000E152214C0C4
:1049B000E6FF15C0E6FFDF50E76EFD0EDBCF16F019
:1049C000FE0EDBCF17F0E7501626000E172216C09A
:1049D000E6FF17C0E6FF86EC0CF0186E060EE15EEF
:1049E0001850000903E1000E3DEF2CF0A90E146EE3
:1049F000DD0E156E166A14C0E6FF15C0E6FF16C080
:104A0000E6FFD950020FE66E000EDA20E66E50EC9B
:104A100071F0176E050EE15E1750D9CFE6FFDACFC1
:104A2000E6FFD950020FE66E000EDA20E66EDF5088
:104A3000E76EFD0EDBCF14F0FE0EDBCF15F0E75076
:104A40001426000E152214C0E6FF15C0E6FF66EC22
:104A50000BF0166E060EE15E1650000903E1000E23
:104A60003DEF2CF0010EDFCFDBFFA30E146EDD0E49
:104A7000156E166A14C0E6FF15C0E6FF16C0E6FF05
:104A8000D950020FE66E000EDA20E66E50EC71F09F
:104A9000176E050EE15E1750D9CFE6FFDACFE6FFBD
:104AA000D950020FE66E000EDA20E66EDF50E76E98
:104AB000FD0EDBCF14F0FE0EDBCF15F0E750142611
:104AC000000E152214C0E6FF15C0E6FF66EC0BF0E1
:104AD000166E060EE15E165000090EE0140EE76E2B
:104AE000FB0EDBCFE9FFFC0EDBCFEAFFE750E92648
:104AF000000EEA22EF687DD0010EDB50DF6E9D0EC6
:104B0000146EDD0E156E166A14C0E6FF15C0E6FFC2
:104B100016C0E6FFD950020FE66E000EDA20E66EF0
:104B200050EC71F0176E050EE15E1750D9CFE6FF1D
:104B3000DACFE6FFD950020FE66E000EDA20E66EFD
:104B4000DF50E76EFD0EDBCF14F0FE0EDBCF15F06D
:104B5000E7501426000E152214C0E6FF15C0E6FF2C
:104B600066EC0BF0166E060EE15E165000090FE0C3
:104B7000140EE76EFB0EDBCFE9FFFC0EDBCFEAFF86
:104B8000E750E926000EEA22EE0EEF6E32D0010E5B
:104B9000DB50DF6ED9CFE6FFDACFE6FF140EE76E0B
:104BA000FB0EDBCF14F0FC0EDBCF15F0E750142624
:104BB000000E152214C0E6FF15C0E6FFDF50E76EB9
:104BC000FD0EDBCF16F0FE0EDBCF17F0E7501626FA
:104BD000000E172216C0E6FF17C0E6FF86EC0CF0A9
:104BE000186E060EE15E1850000903E1000E3DEF5D
:104BF0002CF0010EDFCFDBFF980E146EDD0E156E6C
:104C0000166A14C0E6FF15C0E6FF16C0E6FFD950CD
:104C1000020FE66E000EDA20E66E50EC71F0176EB1
:104C2000050EE15E1750D9CFE6FFDACFE6FFD95087
:104C3000020FE66E000EDA20E66EDF50E76EFD0E24
:104C4000DBCF14F0FE0EDBCF15F0E7501426000E7C
:104C5000152214C0E6FF15C0E6FF66EC0BF0166ED9
:104C6000060EE15E165000090FE0150EE76EFB0E12
:104C7000DBCFE9FFFC0EDBCFEAFFE750E926000EB1
:104C8000EA22130EEF6E4ED0010EDB50DF6E930E54
:104C9000146EDD0E156E166A14C0E6FF15C0E6FF31
:104CA00016C0E6FFD950020FE66E000EDA20E66E5F
:104CB00050EC71F0176E050EE15E1750D9CFE6FF8C
:104CC000DACFE6FFD950020FE66E000EDA20E66E6C
:104CD000DF50E76EFD0EDBCF14F0FE0EDBCF15F0DC
:104CE000E7501426000E152214C0E6FF15C0E6FF9B
:104CF00066EC0BF0166E060EE15E165000090FE032
:104D0000150EE76EFB0EDBCFE9FFFC0EDBCFEAFFF3
:104D1000E750E926000EEA22140EEF6E03D0000ED3
:104D20003DEF2CF08B0E146EDD0E156E166A14C05E
:104D3000E6FF15C0E6FF16C0E6FFD950020FE66E8B
:104D4000000EDA20E66E50EC71F0176E050EE15E93
:104D50001750D9CFE6FFDACFE6FFD950020FE66E43
:104D6000000EDA20E66EDF50E76EFD0EDBCF14F0AA
:104D7000FE0EDBCF15F0E7501426000E152214C0EE
:104D8000E6FF15C0E6FF66EC0BF0166E060EE15E60
:104D90001650000903E1000E3DEF2CF0010EDFCFAD
:104DA000DBFFA30E146EDD0E156E166A14C0E6FF4F
:104DB00015C0E6FF16C0E6FFD950020FE66E000EE2
:104DC000DA20E66E50EC71F0176E050EE15E1750BA
:104DD000D9CFE6FFDACFE6FFD950020FE66E000E1C
:104DE000DA20E66EDF50E76EFD0EDBCF14F0FE0E2C
:104DF000DBCF15F0E7501426000E152214C0E6FF95
:104E000015C0E6FF66EC0BF0166E060EE15E16505E
:104E100000090EE0160EE76EFB0EDBCFE9FFFC0E7D
:104E2000DBCFEAFFE750E926000EEA22EF687DD0EB
:104E3000010EDB50DF6E9D0E146EDD0E156E166AD0
:104E400014C0E6FF15C0E6FF16C0E6FFD950020FFA
:104E5000E66E000EDA20E66E50EC71F0176E050E6D
:104E6000E15E1750D9CFE6FFDACFE6FFD950020F47
:104E7000E66E000EDA20E66EDF50E76EFD0EDBCF49
:104E800014F0FE0EDBCF15F0E7501426000E1522AD
:104E900014C0E6FF15C0E6FF66EC0BF0166E060EBA
:104EA000E15E165000090FE0160EE76EFB0EDBCF39
:104EB000E9FFFC0EDBCFEAFFE750E926000EEA220D
:104EC000EE0EEF6E32D0010EDB50DF6ED9CFE6FF73
:104ED000DACFE6FF160EE76EFB0EDBCF14F0FC0E0A
:104EE000DBCF15F0E7501426000E152214C0E6FFA4
:104EF00015C0E6FFDF50E76EFD0EDBCF16F0FE0EAD
:104F0000DBCF17F0E7501626000E172216C0E6FF7B
:104F100017C0E6FF86EC0CF0186E060EE15E185026
:104F2000000903E1000E3DEF2CF00201696B010E58
:104F30003DEF2CF0010EDB50DF6E830E146EDD0EA4
:104F4000156E166A14C0E6FF15C0E6FF16C0E6FF30
:104F5000D950020FE66E000EDA20E66E50EC71F0CA
:104F6000176E050EE15E1750D9CFE6FFDACFE6FFE8
:104F7000D950020FE66E000EDA20E66EDF50E76EC3
:104F8000FD0EDBCF14F0FE0EDBCF15F0E75014263C
:104F9000000E152214C0E6FF15C0E6FF66EC0BF00C
:104FA000166E060EE15E1650000921E0170EE76E40
:104FB000FB0EDBCFE9FFFC0EDBCFEAFFE750E92673
:104FC000000EEA22010EEF6E180EE76EFB0EDBCF2D
:104FD000E9FFFC0EDBCFEAFFE750E926000EEA22EC
:104FE0002E0EEF6E0201696B010E3DEF2CF0010EEB
:104FF000DB50DF6E830E146EDD0E156E166A14C064
:10500000E6FF15C0E6FF16C0E6FFD950020FE66EB8
:10501000000EDA20E66E50EC71F0176E050EE15EC0
:105020001750D9CFE6FFDACFE6FFD950020FE66E70
:10503000000EDA20E66EDF50E76EFD0EDBCF14F0D7
:10504000FE0EDBCF15F0E7501426000E152214C01B
:10505000E6FF15C0E6FF66EC0BF0166E060EE15E8D
:105060001650000920E0170EE76EFB0EDBCFE9FFBC
:10507000FC0EDBCFEAFFE750E926000EEA22010E24
:10508000EF6E180EE76EFB0EDBCFE9FFFC0EDBCFF9
:10509000EAFFE750E926000EEA222F0EEF6E02012A
:1050A000696B010EEAD3010EDB50DF6E730E146ED6
:1050B000DD0E156E166A14C0E6FF15C0E6FF16C0B9
:1050C000E6FFD950020FE66E000EDA20E66E50ECD5
:1050D00071F0176E050EE15E1750D9CFE6FFDACFFB
:1050E000E6FFD950020FE66E000EDA20E66EDF50C2
:1050F000E76EFD0EDBCF14F0FE0EDBCF15F0E750B0
:105100001426000E152214C0E6FF15C0E6FF66EC5B
:105110000BF0166E060EE15E1650000920E0170E29
:10512000E76EFB0EDBCFE9FFFC0EDBCFEAFFE750BB
:10513000E926000EEA22010EEF6E180EE76EFB0E56
:10514000DBCFE9FFFC0EDBCFEAFFE750E926000EDC
:10515000EA22300EEF6E0201696B010E8ED3010E52
:10516000DB50DF6E6B0E146EDD0E156E166A14C00A
:10517000E6FF15C0E6FF16C0E6FFD950020FE66E47
:10518000000EDA20E66E50EC71F0176E050EE15E4F
:105190001750D9CFE6FFDACFE6FFD950020FE66EFF
:1051A000000EDA20E66EDF50E76EFD0EDBCF14F066
:1051B000FE0EDBCF15F0E7501426000E152214C0AA
:1051C000E6FF15C0E6FF66EC0BF0166E060EE15E1C
:1051D0001650000920E0170EE76EFB0EDBCFE9FF4B
:1051E000FC0EDBCFEAFFE750E926000EEA22010EB3
:1051F000EF6E180EE76EFB0EDBCFE9FFFC0EDBCF88
:10520000EAFFE750E926000EEA22310EEF6E0201B6
:10521000696B010E32D3010EDB50DF6E640E146E2B
:10522000DD0E156E166A14C0E6FF15C0E6FF16C047
:10523000E6FFD950020FE66E000EDA20E66E50EC63
:1052400071F0176E050EE15E1750D9CFE6FFDACF89
:10525000E6FFD950020FE66E000EDA20E66EDF5050
:10526000E76EFD0EDBCF14F0FE0EDBCF15F0E7503E
:105270001426000E152214C0E6FF15C0E6FF66ECEA
:105280000BF0166E060EE15E1650000920E0170EB8
:10529000E76EFB0EDBCFE9FFFC0EDBCFEAFFE7504A
:1052A000E926000EEA22010EEF6E180EE76EFB0EE5
:1052B000DBCFE9FFFC0EDBCFEAFFE750E926000E6B
:1052C000EA222B0EEF6E0201696B010ED6D2010E9F
:1052D000DB50DF6E5A0E146EDD0E156E166A14C0AA
:1052E000E6FF15C0E6FF16C0E6FFD950020FE66ED6
:1052F000000EDA20E66E50EC71F0176E050EE15EDE
:105300001750D9CFE6FFDACFE6FFD950020FE66E8D
:10531000000EDA20E66EDF50E76EFD0EDBCF14F0F4
:10532000FE0EDBCF15F0E7501426000E152214C038
:10533000E6FF15C0E6FF66EC0BF0166E060EE15EAA
:105340001650000920E0170EE76EFB0EDBCFE9FFD9
:10535000FC0EDBCFEAFFE750E926000EEA22010E41
:10536000EF6E180EE76EFB0EDBCFE9FFFC0EDBCF16
:10537000EAFFE750E926000EEA222C0EEF6E02014A
:10538000696B010E7AD2010EDB50DF6EFF0E146ED8
:10539000DD0E156E166A14C0E6FF15C0E6FF16C0D6
:1053A000E6FFD950020FE66E000EDA20E66E50ECF2
:1053B00071F0176E050EE15E1750D9CFE6FFDACF18
:1053C000E6FFD950020FE66E000EDA20E66EDF50DF
:1053D000E76EFD0EDBCF14F0FE0EDBCF15F0E750CD
:1053E0001426000E152214C0E6FF15C0E6FF66EC79
:1053F0000BF0166E060EE15E165000096EE0190EF7
:10540000E76EFB0EDBCFE9FFFC0EDBCFEAFFE750D8
:10541000E926000EEA22010EEF6ED9CFE6FFDACFC1
:10542000E6FF1A0EE76EFB0EDBCF14F0FC0EDBCFAF
:1054300015F0E7501426000E152214C0E6FF15C023
:10544000E6FFDF50E76EFD0EDBCF16F0FE0EDBCF82
:1054500017F0E7501626000E172216C0E6FF17C0F9
:10546000E6FF86EC0CF0186E060EE15E185000099F
:1054700002E1000E02D2D9CFE6FFDACFE6FF1B0E23
:10548000E76EFB0EDBCF14F0FC0EDBCF15F0E75020
:105490001426000E152214C0E6FF15C0E6FFDF50EB
:1054A000E76EFD0EDBCF16F0FE0EDBCF17F0E750F8
:1054B0001626000E172216C0E6FF17C0E6FF86EC80
:1054C0000CF0186E060EE15E1850000902E1000EA5
:1054D000D4D10201696B010ED0D1010EDB50DF6E19
:1054E0004C0E146EDD0E156E166A14C0E6FF15C064
:1054F000E6FF16C0E6FFD950020FE66E000EDA2076
:10550000E66E50EC71F0176E050EE15E1750D9CFC4
:10551000E6FFDACFE6FFD950020FE66E000EDA2082
:10552000E66EDF50E76EFD0EDBCF14F0FE0EDBCF34
:1055300015F0E7501426000E152214C0E6FF15C022
:10554000E6FF66EC0BF0166E060EE15E16500009E3
:1055500011E01C0EE76EFB0EDBCFE9FFFC0EDBCF8C
:10556000EAFFE750E926000EEA22010EEF6E020183
:10557000696B83D1010EDB50DF6E460E146EDD0EBB
:10558000156E166A14C0E6FF15C0E6FF16C0E6FFEA
:10559000D950020FE66E000EDA20E66E50EC71F084
:1055A000176E050EE15E1750D9CFE6FFDACFE6FFA2
:1055B000D950020FE66E000EDA20E66EDF50E76E7D
:1055C000FD0EDBCF14F0FE0EDBCF15F0E7501426F6
:1055D000000E152214C0E6FF15C0E6FF66EC0BF0C6
:1055E000166E060EE15E1650000911E01D0EE76E04
:1055F000FB0EDBCFE9FFFC0EDBCFEAFFE750E9262D
:10560000000EEA22010EEF6E0201696B36D1010E27
:10561000DB50DF6E400E146EDD0E156E166A14C080
:10562000E6FF15C0E6FF16C0E6FFD950020FE66E92
:10563000000EDA20E66E50EC71F0176E050EE15E9A
:105640001750D9CFE6FFDACFE6FFD950020FE66E4A
:10565000000EDA20E66EDF50E76EFD0EDBCF14F0B1
:10566000FE0EDBCF15F0E7501426000E152214C0F5
:10567000E6FF15C0E6FF66EC0BF0166E060EE15E67
:105680001650000911E01E0EE76EFB0EDBCFE9FF9E
:10569000FC0EDBCFEAFFE750E926000EEA22010EFE
:1056A000EF6E0201696BE9D0010EDB50DF6E3A0E3E
:1056B000146EDD0E156E166A14C0E6FF15C0E6FF07
:1056C00016C0E6FFD950020FE66E000EDA20E66E35
:1056D00050EC71F0176E050EE15E1750D9CFE6FF62
:1056E000DACFE6FFD950020FE66E000EDA20E66E42
:1056F000DF50E76EFD0EDBCF14F0FE0EDBCF15F0B2
:10570000E7501426000E152214C0E6FF15C0E6FF70
:1057100066EC0BF0166E060EE15E1650000911E005
:105720001F0EE76EFB0EDBCFE9FFFC0EDBCFEAFFBF
:10573000E750E926000EEA22010EEF6E0201696BC6
:105740009CD0010EDB50DF6E320E146EDD0E156E36
:10575000166A14C0E6FF15C0E6FF16C0E6FFD95072
:10576000020FE66E000EDA20E66E50EC71F0176E56
:10577000050EE15E1750D9CFE6FFDACFE6FFD9502C
:10578000020FE66E000EDA20E66EDF50E76EFD0EC9
:10579000DBCF14F0FE0EDBCF15F0E7501426000E21
:1057A000152214C0E6FF15C0E6FF66EC0BF0166E7E
:1057B000060EE15E1650000911E0200EE76EFB0EAA
:1057C000DBCFE9FFFC0EDBCFEAFFE750E926000E56
:1057D000EA22010EEF6E0201696B4FD0010EDB5021
:1057E000DF6E2D0E146EDD0E156E166A14C0E6FF08
:1057F00015C0E6FF16C0E6FFD950020FE66E000E98
:10580000DA20E66E50EC71F0176E050EE15E17506F
:10581000D9CFE6FFDACFE6FFD950020FE66E000ED1
:10582000DA20E66EDF50E76EFD0EDBCF14F0FE0EE1
:10583000DBCF15F0E7501426000E152214C0E6FF4A
:1058400015C0E6FF66EC0BF0166E060EE15E165014
:10585000000911E0210EE76EFB0EDBCFE9FFFC0E25
:10586000DBCFEAFFE750E926000EEA22010EEF6ED9
:105870000201696B02D0000E00D0146E0E0EE15CC6
:1058800002E2E16AE552E16E1450E552E7CFD9FF3A
:105890001200D9CFE6FFE1CFD9FF030EE126010EBA
:1058A000DB6ADF6A620EDF5C09E2DF50EA6A220F20
:1058B000E96E070EEA22EF6ADF2AF4D7DF6A4E0E9E
:1058C000DF5C59E2DF50E76EFD0EDBCFE9FFFE0E35
:1058D000DBCFEAFFE750E926000EEA22EF5001E1B4
:1058E0004AD0020EDB6ADF50E76EFD0EDBCFE9FF28
:1058F000FE0EDBCFEAFFE750E926000EEA22EF506A
:10590000F36E020EDBCFF4FFF350F45C31E2620E73
:10591000F36E010EDBCFF4FFF350F45C0BE3FD0EEE
:10592000DBCFE6FFFE0EDBCFE6FF27D9E552E552DF
:10593000000E40D0DF28E76EFD0EDBCFE9FFFE0E44
:10594000DBCFEAFFE750E926000EEA22EF50E66ED1
:10595000010EDBCFF3FFDB2AF350EA6A220FE96E78
:10596000070EEA22E552E750EF6E020EDB2ABBD7A4
:10597000020EDF26A4D7DF6A620EDF5C19E2DF5079
:10598000EA6A220FE96E070EEA22EF50E66EDF5058
:10599000E76EFD0EDBCFE9FFFE0EDBCFEAFFE7503F
:1059A000E926000EEA22E552E750EF6EDF2AE4D73F
:1059B000010E00D0146E030EE15C02E2E16AE552D2
:1059C000E16E1450E552E7CFD9FF1200D9CFE6FFC0
:1059D000E1CFD9FF040EE126010EDB6ADF6AFD0E7E
:1059E000DBCFE9FFFE0EDBCFEAFF030EEFCFDBFFDD
:1059F000020EDB6A620EF36E010EDBCFF4FFF35092
:105A0000F45C6EE2010EDB50E76EFD0EDBCFE9FFCA
:105A1000FE0EDBCFEAFFE750E926000EEA22EFCFC9
:105A200014F0030EDB50145C0EE1020EDB2A010EB3
:105A3000DB2A620EF36E010EDBCFF4FFF350F45C51
:105A400001E301D0DFD74F0EDF5C17E2600EDF5CB1
:105A500014E2DF50DF2AEA6A220FE96E070EEA221B
:105A6000020EDBCFEFFFDF50DF2AEA6A220FE96E7A
:105A7000070EEA22030EDBCFEFFF500EDF5C1DE3C3
:105A8000010EDB6A620EF36E010EDBCFF4FFF35002
:105A9000F45C11E2010EDB50E76EFD0EDBCFE9FF97
:105AA000FE0EDBCFEAFFE750E926000EEA22EF6A9E
:105AB000010EDB2AE7D7000E54D0010EDB50E76E53
:105AC000FD0EDBCFE9FFFE0EDBCFEAFFE750E92654
