:020000040000FA
:0600000067EF6FF0120033
:020006001200E6
:06000800D3EF51F01200DD
:02000E00FEFFF3
:0600180078EF53F0120026
:02001E000200DE
:1000200017DF0000600000002E0000000E0000003E
:08003000F602000002000000CE
:08003800D9CFE6FFE1CFD9FFAB
:10004000D950FD0FE96EFF0EDA20EA6EFF0ED88060
:10005000EE54030EED5403E2000E27D026D0FF0E1F
:10006000E76EFD0EDBCF20F0FE0EDBCF21F0E75078
:100070002016216A2050A96EFD0EDBCF20F0FE0E67
:10008000DBCF21F021C020F0216A030E2014AA6EDC
:10009000A69EA69CA680FB0EDBCFE9FFFC0EDBCF65
:1000A000EAFFA8CFEFFF010E00D0E552E7CFD9FF5E
:1000B0001200D9CFE6FFE1CFD9FF030EE126090EEA
:1000C000DE6EDD6A0201010E666F906991699469C6
:1000D00095699A6F666B040EE66E1EEC51F0E55260
:1000E000050EF36E020EF3CFDBFFDB5000082BE2B0
:1000F000020EDBCFE6FFE66A310E206ED90E216ECE
:10010000226A20C0E6FF21C0E6FF22C0E6FFEB0E18
:10011000E66E050EE66EA0EC6DF0236E070EE15E56
:100120002350EB0EE66E050EE66EB2EC50F0E55293
:10013000E552050EE66EE66AF4EC4FF0E552E55244
:10014000020EDB06D2D70201010E666F926B936B33
:10015000966B976B666B050EF36E020EF3CFDBFFAB
:10016000DB5000082BE2020EDBCFE6FFE66A290E29
:10017000206ED90E216E226A20C0E6FF21C0E6FF64
:1001800022C0E6FFEB0EE66E050EE66EA0EC6DF00B
:10019000236E070EE15E2350EB0EE66E050EE66E53
:1001A000B2EC50F0E552E552050EE66EE66AF4EC6C
:1001B0004FF0E552E552020EDB06D2D70201010EE6
:1001C000666F9A6B666B91C220F0216A2050E66ED2
:1001D000DFCF22F0DF2A010EDBCF23F001E3DB2AA1
:1001E00022C0E6FF23C0E6FFE8DAE552E552E55219
:1001F00002019051E66EDFCF20F0DF2A010EDBCF47
:1002000021F001E3DB2A20C0E6FF21C0E6FFD5DABA
:10021000E552E552E55293C220F0216A2050E66E85
:10022000DFCF22F0DF2A010EDBCF23F001E3DB2A50
:1002300022C0E6FF23C0E6FFC0DAE552E552E552F0
:1002400002019251E66EDFCF20F0DF2A010EDBCFF4
:1002500021F001E3DB2A20C0E6FF21C0E6FFADDA92
:10026000E552E552E55295C220F0216A2050E66E33
:10027000DFCF22F0DF2A010EDBCF23F001E3DB2A00
:1002800022C0E6FF23C0E6FF98DAE552E552E552C8
:1002900002019451E66EDFCF20F0DF2A010EDBCFA2
:1002A00021F001E3DB2A20C0E6FF21C0E6FF85DA6A
:1002B000E552E552E55297C220F0216A2050E66EE1
:1002C000DFCF22F0DF2A010EDBCF23F001E3DB2AB0
:1002D00022C0E6FF23C0E6FF70DAE552E552E552A0
:1002E00002019651E66EDECFE6FFDDCFE6FF65DA6E
:1002F000E552E552E552030EE15C02E2E16AE552A5
:10030000E16EE552E7CFD9FF1200D9CFE6FFE1CF8A
:10031000D9FF040EE126010EDB6A020EDB6A030E32
:10032000DB6A080EF36E030EDBCFF4FFF350F45CD0
:1003300017E2030EDBCFE6FF010EDBCF20F0DB2A56
:10034000020EDBCF21F001E3DB2A20C0E6FF21C053
:10035000E6FF33DAE552E552E552030EDB2AE1D738
:10036000080EF36E010EF3CFDBFF020EDB6A060E02
:10037000DF6EDFCFE6FF010EDBCFE6FF020EDBCF45
:10038000E6FF1BDAE552E552E552110EF36E010E5F
:10039000F3CFDBFF020EDB6ADF6ADFCFE6FF010E81
:1003A000DBCFE6FF020EDBCFE6FF07DAE552E552D0
:1003B000E5520201010E666F060E656F696B666B92
:1003C000120EF36E010EF3CFDBFF020EDB6AD95083
:1003D000010FE96EDACFEAFF150ED880EE54000E59
:1003E000ED5411E3010EE66EDBCFE6FF020EDBCF2C
:1003F000E6FFE3D9E552E552E552010EDB2A020E93
:1004000001E3DB2AE4D727EC5BF0C7EC5CF0040ED9
:10041000E15C02E2E16AE552E16EE552E7CFD9FF25
:100420001200D9CFE6FFE1CFD9FF060EE126010E7B
:10043000DB6A020EDB6A050EDB6A080EF36E050E40
:10044000DBCFF4FFF350F45C1FE2D9CFE6FFDACF45
:10045000E6FF010EDBCF20F0DB2A020EDBCF21F01E
:1004600001E3DB2A20C0E6FF21C0E6FFE5DDE5521F
:10047000E552E552E552050EDB50DF5C02E045DF58
:1004800080D1050EDB2AD9D7080EF36E010EF3CF0B
:10049000DBFF020EDB6AD9CFE6FFDACFE6FF010E03
:1004A000DBCFE6FF020EDBCFE6FFC6DDE552E5520D
:1004B000E552E5520201010E666FDFCF65F2666B11
:1004C000120EF36E010EF3CFDBFF020EDB6AD9CF03
:1004D000E6FFDACFE6FF010EDBCF20F0DB2A020ECB
:1004E000DBCF21F001E3DB2A20C0E6FF21C0E6FFDD
:1004F000A3DDE552E552E552E552DF50E8B09582C2
:10050000E8A09592D9CFE6FFDACFE6FF010EDBCF68
:1005100020F0DB2A020EDBCF21F001E3DB2A20C032
:10052000E6FF21C0E6FF88DDE552E552E552E552DF
:10053000DF50E8B09584E8A09594D9CFE6FFDACFF4
:10054000E6FF010EDBCF20F0DB2A020EDBCF21F02D
:1005500001E3DB2A20C0E6FF21C0E6FF6DDDE552A6
:10056000E552E552E552DF50E8B09586E8A0959651
:10057000D9CFE6FFDACFE6FF010EDBCFE6FF020EB2
:10058000DBCFE6FF59DDE552E552E552E552DF509B
:10059000E8B09488E8A09498090EF36E010EF3CFAA
:1005A000DBFF020EDB6AD9CFE6FFDACFE6FF010EF2
:1005B000DBCF20F0DB2A020EDBCF21F001E3DB2AC8
:1005C00020C0E6FF21C0E6FF37DDE552E552E552E7
:1005D000E552DF500201906F916BD9CFE6FFDACF81
:1005E000E6FF010EDBCF20F0DB2A020EDBCF21F08D
:1005F00001E3DB2A20C0E6FF21C0E6FF1DDDE55256
:10060000E552E552E55290C221F0206ADF50020126
:100610002024906F000E2120916FD9CFE6FFDACF12
:10062000E6FF010EDBCF20F0DB2A020EDBCF21F04C
:1006300001E3DB2A20C0E6FF21C0E6FFFDDCE55236
:10064000E552E552E552DF500201926F936BD9CF2C
:10065000E6FFDACFE6FF010EDBCF20F0DB2A020E49
:10066000DBCF21F001E3DB2A20C0E6FF21C0E6FF5B
:10067000E3DCE552E552E552E55292C221F0206AF0
:10068000DF5002012024926F000E2120936FD9CFFA
:10069000E6FFDACFE6FF010EDBCF20F0DB2A020E09
:1006A000DBCF21F001E3DB2A20C0E6FF21C0E6FF1B
:1006B000C3DCE552E552E552E552DF500201946F8A
:1006C000956BD9CFE6FFDACFE6FF010EDBCF20F046
:1006D000DB2A020EDBCF21F001E3DB2A20C0E6FF9C
:1006E00021C0E6FFA9DCE552E552E552E55294C28D
:1006F00021F0206ADF5002012024946F000E212097
:10070000956FD9CFE6FFDACFE6FF010EDBCF20F001
:10071000DB2A020EDBCF21F001E3DB2A20C0E6FF5B
:1007200021C0E6FF89DCE552E552E552E552DF5093
:100730000201966F976BD9CFE6FFDACFE6FF010E85
:10074000DBCFE6FF020EDBCFE6FF76DCE552E552BB
:10075000E552E55296C221F0206ADF5002012024C2
:10076000966F000E2120976F9051925D9B6F915173
:1007700093599C6F9451965D9D6F955197599E6FBB
:10078000DDD9060EE15C02E2E16AE552E16EE55276
:10079000E7CFD9FF1200A1A805D0A198A694010E19
:1007A00003D002D0000E00D01200A6B203D0010E7A
:1007B00003D002D0000E00D01200D9CFE6FFE1CF67
:1007C000D9FFE652D950FD0FE96EFF0EDA20EA6E2E
:1007D000FF0ED880EE54030EED5403E2000E4AD013
:1007E00049D0E3DF000901E1FCD7D9CFE6FFDACF3A
:1007F000E6FFFD0EDBCFE6FFFE0EDBCFE6FF1CDCE7
:10080000E552E552E552E552FC0EDB50DF5C02E1B9
:10081000010E30D0FF0EE76EFD0EDBCF20F0FE0E96
:10082000DBCF21F0E7502016216A2050A96EFD0E83
:10083000DBCF20F0FE0EDBCF21F021C020F0216ABB
:10084000030E2014AA6EFC0EDB50A86EA69EA69C7A
:10085000A684F29E550EA76EAA0EA76EA6829BDFF7
:10086000FF0801E1FCD7A1DF000901E1FCD7F28E0E
:10087000010E00D0E552E552E7CFD9FF12005ED954
:1008800000D01200160E206ED90E216E226A20C0F2
:10089000E6FF21C0E6FF22C0E6FFEB0EE66E050E86
:1008A000E66EA0EC6DF0236E050EE15E2350EB0EBC
:1008B000E66E050EE66EA1EC47F0E552E552030E3A
:1008C000206ED90E216E226A20C0E6FF21C0E6FF0D
:1008D00022C0E6FFEB0EE66E050EE66EA0EC6DF0B4
:1008E000236E050EE15E2350EB0EE66E050EE66EFE
:1008F000A1EC47F0E552E552FB0E206ED80E216EBA
:10090000226A20C0E6FF21C0E6FF22C0E6FFEB0E10
:10091000E66E050EE66EA0EC6DF0236E050EE15E50
:10092000235002010651E66EE66AEB0EE66E050EF6
:10093000E66EF60E206ED80E216E226A20C0E6FF0B
:1009400021C0E6FF22C0E6FFEB0EE66E050EE66E66
:10095000A0EC6DF0236E090EE15E2350EB0EE66E07
:10096000050EE66EA1EC47F0E552E552EE0E206E64
:10097000D80E216E226A20C0E6FF21C0E6FF22C009
:10098000E6FFEB0EE66E050EE66EA0EC6DF0236E54
:10099000050EE15E235073DFE66EE66AEB0EE66E4F
:1009A000050EE66EE70E206ED80E216E226A20C07C
:1009B000E6FF21C0E6FF22C0E6FFEB0EE66E050E65
:1009C000E66EA0EC6DF0236E090EE15E2350EB0E97
:1009D000E66E050EE66EA1EC47F0E552E552DB0E41
:1009E000206ED80E216E226A20C0E6FF21C0E6FFED
:1009F00022C0E6FFEB0EE66E050EE66EA0EC6DF093
:100A0000236E050EE15E235002016951E66EE66A2F
:100A1000EB0EE66E050EE66EF60E206ED80E216E1B
:100A2000226A20C0E6FF21C0E6FF22C0E6FFEB0EEF
:100A3000E66E050EE66EA0EC6DF0236E090EE15E2B
:100A40002350EB0EE66E050EE66EA1EC47F0E55284
:100A5000E552D50E206ED80E216E226A20C0E6FF28
:100A600021C0E6FF22C0E6FFEB0EE66E050EE66E45
:100A7000A0EC6DF0236E050EE15E2350060E020120
:100A8000655D1DE19F51E66EE66AEB0EE66E050EB2
:100A9000E66EC80E206ED80E216E226A20C0E6FFD8
:100AA00021C0E6FF22C0E6FFEB0EE66E050EE66E05
:100AB000A0EC6DF0236E090EE15E235019D0EB0E11
:100AC000E66E050EE66EC20E206ED80E216E226A0C
:100AD00020C0E6FF21C0E6FF22C0E6FFEB0EE66E77
:100AE000050EE66EA0EC6DF0236E070EE15E23505E
:100AF000EB0EE66E050EE66EA1EC47F0E552E55210
:100B0000C10E206ED80E216E226A20C0E6FF21C0E1
:100B1000E6FF22C0E6FFEB0EE66E050EE66EA0ECE9
:100B20006DF0236E050EE15E2350EB0EE66E050EB2
:100B3000E66EA1EC47F0E552E5521200D9CFE6FF90
:100B4000E1CFD9FF090EE126110EF36E030EF3CFAC
:100B5000DBFF040EDB6AD950020FE66E000EDA20CE
:100B6000E66E030EDBCFE6FF040EDBCFE6FF1CECE8
:100B700000F0E552E552E552E552020EDBCF69F294
:100B80000201695102E1640E88D0160EF36E030E65
:100B9000F3CFDBFF040EDB6ADF6A02016951DF5C21
:100BA0003DE2010EDB6A0F0EF36E010EDBCFF4FFA8
:100BB000F350F45C31E2D950020FE66E000EDA20F9
:100BC000E66E030EDBCF20F0DB2A040EDBCF21F034
:100BD00001E3DB2A20C0E6FF21C0E6FF1CEC00F0A9
:100BE000E552E552E552E552DF500F0DF3CF20F00C
:100BF000F4CF21F0840E2026070E2122010EDB50B7
:100C00000F012024E96E000E2120EA6E020EDBCFD8
:100C1000EFFF010EDB2AC7D7DF2ABFD7206A040EF9
:100C2000216E226A236A030EDBCF24F0040EDBCF91
:100C300025F0266A276A2450205C066E255021582C
:100C4000076E26502258086E27502358096E640EEE
:100C50000B6E0C6A0D6A0E6AD3EC6EF002C006F0E1
:100C600003C007F004C008F005C009F0EA0E0B6EDF
:100C7000030E0C6E0D6A0E6AC3EC6CF0050E06C016
:100C8000DBFF060E07C0DBFF070E08C0DBFF080E08
:100C900009C0DBFF050EDB5000D0206E090EE15CC1
:100CA00002E2E16AE552E16E2050E552E7CFD9FF5A
:100CB0001200D9CFE6FFE1CFD9FF050EE126160ECF
:100CC000F36E020EF3CFDBFF030EDB6ADF6A020175
:100CD0006951DF5C4BE20F0EE76E020EDBCF20F0B6
:100CE000030EDBCF21F0E7502026000E2122205CEE
:100CF000040E215804E3110E6A6F000E4FD0010E4E
:100D0000DB6A0F0EF36E010EDBCFF4FFF350F45CE1
:100D10002BE2DF500F0DF3CF20F0F4CF21F0840E43
:100D20002026070E2122010EDB500F012024E96E40
:100D3000000E2120EA6E040EEFCFDBFFDBCFE6FFD3
:100D4000020EDBCF20F0DB2A030EDBCF21F001E324
:100D5000DB2A20C0E6FF21C0E6FF2FDDE552E55289
:100D6000E552010EDB2ACDD7DF2AB1D7110EF36E83
:100D7000020EF3CFDBFF030EDB6A040E69C2DBFF5A
:100D8000DBCFE6FF020EDBCFE6FF030EDBCFE6FF95
:100D900014DDE552E552E552010E00D0206E050E3D
:100DA000E15C02E2E16AE552E16E2050E552E7CFF4
:100DB000D9FF1200D9CFE6FFE1CFD9FF300EF36E95
:100DC000FE0EDBCFF4FFF350F45C07E3FE0EDB50C6
:100DD000390803E3010E03D002D0000E00D0E55223
:100DE000E7CFD9FF1200D9CFE6FFE1CFD9FF410EFF
:100DF000F36EFE0EDBCFF4FFF350F45C07E3FE0E60
:100E0000DB50460803E3010E03D002D0000E00D0F1
:100E1000E552E7CFD9FF1200D9CFE6FFE1CFD9FFE6
:100E2000E652610EF36EFE0EDBCFF4FFF350F45C7E
:100E300009E3FE0EDB507A0805E3FE0EDB50E00FFF
:100E4000DF6E03D0FE0EDB50DF6EDF5000D0E552C8
:100E5000E552E7CFD9FF1200D9CFE6FFE1CFD9FFA6
:100E6000090EE126DE6ADD6A020EDB6A030EDB6A2A
:100E70000A0EF36E040EF3CFDBFF050EDB6A060EDF
:100E8000DB6AFD0EDBCFE9FFFE0EDBCFEAFFEF50A2
:100E9000300805E1FD0EDB2AFE0E01E3DB2AFD0E24
:100EA000DBCFE9FFFE0EDBCFEAFFEF5009E0FD0EDE
:100EB000DBCFE9FFFE0EDBCFEAFFEF5020080BE1AE
:100EC000050EDBCF20F0060EDBCF21F020C0F3FFB4
:100ED00021C0F4FF0CD1FD0EDBCFE9FFFE0EDBCF0E
:100EE000EAFFEF50E66E98DFE55258080AE1FD0E82
:100EF000DB2AFE0E01E3DB2A100EF36E040EF3CFA5
:100F0000DBFFFD0EDBCFE9FFFE0EDBCFEAFFEF508C
:100F100001E1ADD0FD0EDBCFE9FFFE0EDBCFEAFF36
:100F2000EF50200801E1A3D0FD0EDBCFE9FFFE0E5C
:100F3000DBCFEAFFEF50E66E3DDFE552000913E03C
:100F4000FD0EDBCFE9FFFE0EDBCFEAFFEF50D00F47
:100F5000E66ED950070FE96EDACFEAFFE552E750A7
:100F6000EE6EED6A48D0FD0EDBCFE9FFFE0EDBCF63
:100F7000EAFFEF50E66E50DFE552E66E34DFE552F1
:100F800000092AE0FD0EDBCFE9FFFE0EDBCFEAFF12
:100F9000EF50E66E41DFE552BF0F0A0FE66ED95003
:100FA000070FE96EDACFEAFFE552E750EE6EED6A21
:100FB000070EDBCF20F0080EDBCF21F0D8902150B8
:100FC00004E60A0E205C000E215805E3100EF36EB5
:100FD000040EF3CFDBFF0FD0220E0201F46FF56B8E
:100FE000050EDBCF20F0060EDBCF21F020C0F3FF93
:100FF00021C0F4FF7CD0070EDBCF22F0080EDBCF40
:1010000023F0100E086E096ADECF0DF0DDCF0EF072
:10101000F7EC6CF006502224206E07502320216E3E
:1010200020C0DEFF21C0DDFF070EDBCF22F0080E5F
:10103000DBCF23F00A0E086E096A020EDBCF0DF03B
:10104000030EDBCF0EF0F7EC6CF006502224206E7E
:1010500007502320216E020E20C0DBFF030E21C0AB
:10106000DBFFFD0EDB2AFE0E01E3DB2A4AD7040E6E
:10107000DB500A080DE1020EDBCF08F0030EDBCFD8
:1010800009F0050E08C0DBFF060E09C0DBFF0AD021
:10109000D9CFE9FFDACFEAFF050EEECFDBFF060E70
:1010A000EDCFDBFF050EDBCF20F0060EDBCF21F00E
:1010B000000E205C000E21580FE2220E0201F46F98
:1010C000F56B050EDBCF20F0060EDBCF21F020C044
:1010D000F3FF21C0F4FF0BD0050EDBCF20F0060E8E
:1010E000DBCF21F020C0F3FF21C0F4FF00D0090EB8
:1010F000E15C02E2E16AE552E16EE552E7CFD9FF39
:10110000120002016A51080A01E186D2100A01E1C7
:101110006DD20D0A01E154D2010A01E13BD2070A66
:1011200001E122D2010A01E109D2030A01E1F0D171
:10113000010A01E1D7D11F0A01E1BED1010A01E193
:10114000A5D1030A01E18CD1010A01E173D1060A9C
:1011500001E15AD1030A01E141D10E0A01E128D18E
:101160001C0A01E10FD1010A01E1F6D0030A01E1F5
:10117000DDD0120A01E1C4D01C0A01E1ABD0010AA2
:1011800001E192D0100A01E179D0030A61E0010A7D
:1011900049E0070A31E0010A19E0030A01E052D2EE
:1011A000B30E206ED80E216E226A20C0E6FF21C049
:1011B000E6FF22C0E6FFEB0EE66E050EE66EA0EC43
:1011C0006DF0236E050EE15E235054D2A40E206E06
:1011D000D80E216E226A20C0E6FF21C0E6FF22C0A1
:1011E000E6FFEB0EE66E050EE66EA0EC6DF0236EEC
:1011F000050EE15E23503ED2910E206ED80E216E78
:10120000226A20C0E6FF21C0E6FF22C0E6FFEB0E07
:10121000E66E050EE66EA0EC6DF0236E050EE15E47
:10122000235028D2860E206ED80E216E226A20C04E
:10123000E6FF21C0E6FF22C0E6FFEB0EE66E050EDC
:10124000E66EA0EC6DF0236E050EE15E235012D227
:10125000790E206ED80E216E226A20C0E6FF21C0D2
:10126000E6FF22C0E6FFEB0EE66E050EE66EA0EC92
:101270006DF0236E050EE15E2350FCD1690E206EE9
:10128000D80E216E226A20C0E6FF21C0E6FF22C0F0
:10129000E6FFEB0EE66E050EE66EA0EC6DF0236E3B
:1012A000050EE15E2350E6D1580E206ED80E216E59
:1012B000226A20C0E6FF21C0E6FF22C0E6FFEB0E57
:1012C000E66E050EE66EA0EC6DF0236E050EE15E97
:1012D0002350D0D1480E206ED80E216E226A20C035
:1012E000E6FF21C0E6FF22C0E6FFEB0EE66E050E2C
:1012F000E66EA0EC6DF0236E050EE15E2350BAD1D0
:10130000390E206ED80E216E226A20C0E6FF21C061
:10131000E6FF22C0E6FFEB0EE66E050EE66EA0ECE1
:101320006DF0236E050EE15E2350A4D1230E206ED6
:10133000D80E216E226A20C0E6FF21C0E6FF22C03F
:10134000E6FFEB0EE66E050EE66EA0EC6DF0236E8A
:10135000050EE15E23508ED10F0E206ED80E216E49
:10136000226A20C0E6FF21C0E6FF22C0E6FFEB0EA6
:10137000E66E050EE66EA0EC6DF0236E050EE15EE6
:10138000235078D1F70E206ED70E216E226A20C02E
:10139000E6FF21C0E6FF22C0E6FFEB0EE66E050E7B
:1013A000E66EA0EC6DF0236E050EE15E235062D177
:1013B000E40E206ED70E216E226A20C0E6FF21C007
:1013C000E6FF22C0E6FFEB0EE66E050EE66EA0EC31
:1013D0006DF0236E050EE15E23504CD1D50E206ECC
:1013E000D70E216E226A20C0E6FF21C0E6FF22C090
:1013F000E6FFEB0EE66E050EE66EA0EC6DF0236EDA
:10140000050EE15E235036D1C70E206ED70E216E39
:10141000226A20C0E6FF21C0E6FF22C0E6FFEB0EF5
:10142000E66E050EE66EA0EC6DF0236E050EE15E35
:10143000235020D1B70E206ED70E216E226A20C015
:10144000E6FF21C0E6FF22C0E6FFEB0EE66E050ECA
:10145000E66EA0EC6DF0236E050EE15E23500AD11E
:10146000A30E206ED70E216E226A20C0E6FF21C097
:10147000E6FF22C0E6FFEB0EE66E050EE66EA0EC80
:101480006DF0236E050EE15E2350F4D0920E206EB7
:10149000D70E216E226A20C0E6FF21C0E6FF22C0DF
:1014A000E6FFEB0EE66E050EE66EA0EC6DF0236E29
:1014B000050EE15E2350DED0830E206ED70E216E26
:1014C000226A20C0E6FF21C0E6FF22C0E6FFEB0E45
:1014D000E66E050EE66EA0EC6DF0236E050EE15E85
:1014E0002350C8D0700E206ED70E216E226A20C005
:1014F000E6FF21C0E6FF22C0E6FFEB0EE66E050E1A
:10150000E66EA0EC6DF0236E050EE15E2350B2D0C6
:10151000570E206ED70E216E226A20C0E6FF21C032
:10152000E6FF22C0E6FFEB0EE66E050EE66EA0ECCF
:101530006DF0236E050EE15E23509CD0490E206EA7
:10154000D70E216E226A20C0E6FF21C0E6FF22C02E
:10155000E6FFEB0EE66E050EE66EA0EC6DF0236E78
:10156000050EE15E235086D0350E206ED70E216E1B
:10157000226A20C0E6FF21C0E6FF22C0E6FFEB0E94
:10158000E66E050EE66EA0EC6DF0236E050EE15ED4
:10159000235070D01A0E206ED70E216E226A20C002
:1015A000E6FF21C0E6FF22C0E6FFEB0EE66E050E69
:1015B000E66EA0EC6DF0236E050EE15E23505AD06E
:1015C000020E206ED70E216E226A20C0E6FF21C0D7
:1015D000E6FF22C0E6FFEB0EE66E050EE66EA0EC1F
:1015E0006DF0236E050EE15E235044D0F00E206EA8
:1015F000D60E216E226A20C0E6FF21C0E6FF22C07F
:10160000E6FFEB0EE66E050EE66EA0EC6DF0236EC7
:10161000050EE15E23502ED0E20E206ED60E216E16
:10162000226A20C0E6FF21C0E6FF22C0E6FFEB0EE3
:10163000E66E050EE66EA0EC6DF0236E050EE15E23
:10164000235018D06A51E66EE66ACF0E206ED60E91
:10165000216E226A20C0E6FF21C0E6FF22C0E6FF1D
:10166000EB0EE66E050EE66EA0EC6DF0236E070E37
:10167000E15E2350EB0EE66E050EE66EA1EC47F040
:10168000E552E552C10E206ED80E216E226A20C0AE
:10169000E6FF21C0E6FF22C0E6FFEB0EE66E050E78
:1016A000E66EA0EC6DF0236E050EE15E2350EB0EAE
:1016B000E66E050EE66EA1EC47F0E552E55202013A
:1016C0006A6B1200D9CFE6FFE1CFD9FF0C0EE126FD
:1016D000DF6A010EDB6ADF6ADF50206E216A20C0FC
:1016E000E6FF21C0E6FFFD0EDBCFE6FFFE0EDBCFFF
:1016F000E6FF42EC6DF0E552E552E552E7CF21F00E
:10170000E552E7CF20F0F3CF22F0F4CF23F02150C1
:101710002318E8AE02D0233404D02250205C23509A
:10172000215801E3B5D0DF50E76EFD0EDBCFE9FFB6
:10173000FE0EDBCFEAFFE750E926000EEA22EF506B
:10174000200808E1F90EDBCFE9FFFA0EDBCFEAFF54
:10175000EF2A9CD0DF50E76EFD0EDBCFE9FFFE0ED7
:10176000DBCFEAFFE750E926000EEA22EF50E66EF3
:10177000D950020F206EDACF21F0010EDBCFF3FF3C
:10178000DB2AF3500F012024E96E000E2120EA6EBF
:10179000E552E750EF6EF90EDBCFE9FFFA0EDBCF33
:1017A000EAFFEF2AFB0EDBCFE6FFFC0EDBCFE6FF06
:1017B00042EC6DF0E552E552F3CF22F0F4CF23F086
:1017C00022C0E6FF23C0E6FFFB0EDBCFE6FFFC0EE8
:1017D000DBCFE6FFD950020FE66E000EDA20E66E90
:1017E00050EC6DF0246E060EE15E2450F3CF20F035
:1017F000F4CF21F02050211002E1010E4ED0010E55
:10180000DB50206E216A20C0E6FF21C0E6FFFB0E00
:10181000DBCFE6FFFC0EDBCFE6FF42EC6DF0E552DE
:10182000E552E552E7CF21F0E552E7CF20F0F3CFC4
:1018300024F0F4CF25F0D890255004E6090E245C5E
:10184000000E255819E220C0E6FF21C0E6FFFB0E7E
:10185000DBCFE6FFFC0EDBCFE6FF42EC6DF0E5529E
:10186000E552E552E7CF21F0E552E7CF20F0F3CF84
:1018700022F0F4CF23F003D0090E226E236A225007
:10188000201802E12350211801E102D0DF2A24D7D9
:101890000201010E6A6F000E00D0206E0C0EE15C9A
:1018A00002E2E16AE552E16E2050E552E7CFD9FF4E
:1018B0001200D9CFE6FFE1CFD9FF050EE126DF6A9E
:1018C000010EDB6A0201F46BF56BDF50E76EFD0E73
:1018D000DBCFE9FFFE0EDBCFEAFFE750E926000E83
:1018E000EA22EF5020082FE1DF50206E216A20C04D
:1018F000E6FF21C0E6FFFD0EDBCFE6FFFE0EDBCFED
:10190000E6FF42EC6DF0E552E552E552E7CF21F0FB
:10191000E552E7CF20F0F3CF22F0F4CF23F02150AF
:101920002318E8AE02D0233404D02250205C235088
:10193000215809E2F90EDBCFE9FFFA0EDBCFEAFF0F
:10194000EF2ADF2AC2D7DF50E76EFD0EDBCF20F093
:10195000FE0EDBCF21F0E7502026000E212220C012
:10196000E6FF21C0E6FF2CEC07F0E552E552030E3E
:10197000F3CFDBFF040EF4CFDBFF0201220EF419DC
:1019800001E1F55105E0160EF41901E1F55103E10D
:10199000020EDB6A05D0010EF36E020EF3CFDBFF01
:1019A000D950030FE96EDACFEAFFFF0ED880EE546C
:1019B000000EED540DE2220EF41901E1F55102E0A2
:1019C000000E01D0010E0201040E6A6F000E52D00B
:1019D000020EDB044AE1DF50E76EFD0EDBCFE9FFCC
:1019E000FE0EDBCFEAFFE750E926000EEA22EF50B9
:1019F00020082FE0DF50206E216A20C0E6FF21C0C2
:101A0000E6FFFD0EDBCFE6FFFE0EDBCFE6FF42EC8E
:101A10006DF0E552E552E552E7CF21F0E552E7CF10
:101A200020F0F3CF22F0F4CF23F021502318E8AEBA
:101A300002D0233404D02250205C2350215809E2E4
:101A4000F90EDBCFE9FFFA0EDBCFEAFFEF2ADF2A40
:101A5000C2D7FB0EDBCFE9FFFC0EDBCFEAFF030EA4
:101A6000DBCFEFFF010E06D005D00201020E6A6F38
:101A7000000E00D0206E050EE15C02E2E16AE55244
:101A8000E16E2050E552E7CFD9FF1200D9CFE6FF33
:101A9000E1CFD9FF020EE126010EDB6ADF6A030EF9
:101AA000F36E010EDBCFF4FFF350F45C01E3AFD033
:101AB000FB0EDBCFE9FFFC0EDBCFEAFFEF50E76E5A
:101AC000FD0EDBCFE9FFFE0EDBCFEAFFE750E92694
:101AD000000EEA22EF50200874E0010EDB5008E10E
:101AE000DF5006E10201120E6A6F000E92D068D03C
:101AF000FB0EDBCFE9FFFC0EDBCFEAFFEF50206EE1
:101B0000216A20C0E6FF21C0E6FFFD0EDBCFE6FF25
:101B1000FE0EDBCFE6FF42EC6DF0E552E552E552FA
:101B2000E7CF21F0E552E7CF20F0F3CF22F0F4CF5A
:101B300023F02250201802E12350211819E1010E50
:101B4000DB50000810E2010EDB50E76EF90EDBCF30
:101B5000E9FFFA0EDBCFEAFFE750E926000EEA22A2
:101B6000EF6A55D02DD002011B0E6A6F000E51D0C6
:101B7000FB0EDBCFE9FFFC0EDBCFEAFFEF50EF2AD5
:101B8000E76EFD0EDBCFE9FFFE0EDBCFEAFFE7508D
:101B9000E926000EEA22EF50E66E010EDBCFF3FFDE
:101BA000DB2AF350E76EF90EDBCFE9FFFA0EDBCF4D
:101BB000EAFFE750E926000EEA22E552E750EF6E11
:101BC0001CD0010EDB500AE1010EDF6EFB0EDBCFF5
:101BD000E9FFFC0EDBCFEAFFEF2A0FD0010EDB504E
:101BE000E76EF90EDBCFE9FFFA0EDBCFEAFFE75035
:101BF000E926000EEA22EF6A0AD0010EDB50030844
:101C000005E10201130E6A6F000E03D048D7010EE2
:101C100000D0206E020EE15C02E2E16AE552E16E64
:101C20002050E552E7CFD9FF1200D9CFE6FFE1CF30
:101C3000D9FF0E0EE126DF6A010EDB6AFB0EDBCF59
:101C4000E6FFFC0EDBCFE6FF09EC2BF0E552E55298
:101C5000CA0E206ED60E216E226A20C0E6FF21C079
:101C6000E6FF22C0E6FFD950020FE66E000EDA2032
:101C7000E66EA0EC6DF0236E050EE15E2350D9CF29
:101C8000E6FFDACFE6FFD950020FE66E000EDA204B
:101C9000E66EDF50E76EFD0EDBCF20F0FE0EDBCFF1
:101CA00021F0E7502026000E212220C0E6FF21C0AF
:101CB000E6FF08DD226E060EE15E2250000921E0FB
:101CC000020EE76EFB0EDBCFE9FFFC0EDBCFEAFF77
:101CD000E750E926000EEA22040EEF6E010EE76ED1
:101CE000FB0EDBCFE9FFFC0EDBCFEAFFE750E92676
:101CF000000EEA2206C2EFFF02016A6B010E89EFB5
:101D000029F0C30E206ED60E216E226A20C0E6FF97
:101D100021C0E6FF22C0E6FFD950020FE66E000E9A
:101D2000DA20E66EA0EC6DF0236E050EE15E235026
:101D3000DF6AD9CFE6FFDACFE6FFD950020FE66EB1
:101D4000000EDA20E66EDF50E76EFD0EDBCF20F0EE
:101D5000FE0EDBCF21F0E7502026000E212220C00E
:101D6000E6FF21C0E6FFAEDC226E060EE15E2250E9
:101D7000000921E0020EE76EFB0EDBCFE9FFFC0E4F
:101D8000DBCFEAFFE750E926000EEA22050EEF6EF0
:101D9000010EE76EFB0EDBCFE9FFFC0EDBCFEAFFA7
:101DA000E750E926000EEA2206C2EFFF02016A6B45
:101DB000010E89EF29F0BF0E206ED60E216E226A29
:101DC00020C0E6FF21C0E6FF22C0E6FFD950020F87
:101DD000E66E000EDA20E66EA0EC6DF0236E050EC6
:101DE000E15E2350DF6AD9CFE6FFDACFE6FFD950B4
:101DF000020FE66E000EDA20E66EDF50E76EFD0E93
:101E0000DBCF20F0FE0EDBCF21F0E7502026000EC6
:101E1000212220C0E6FF21C0E6FF54DC226E060E20
:101E2000E15E2250000941E0020EE76EFB0EDBCFBF
:101E3000E9FFFC0EDBCFEAFFE750E926000EEA22BD
:101E4000230EEF6ED9CFE6FFDACFE6FF010EE76E85
:101E5000FB0EDBCF20F0FC0EDBCF21F0E75020267D
:101E6000000E212220C0E6FF21C0E6FFDF50E76E12
:101E7000FD0EDBCF22F0FE0EDBCF23F0E750222653
:101E8000000E232222C0E6FF23C0E6FF12DD246EEF
:101E9000060EE15E2450000903E1000E89EF29F0EF
:101EA00002016A6B010E89EF29F0B90E206ED60E81
:101EB000216E226A20C0E6FF21C0E6FF22C0E6FFB5
:101EC000D950020FE66E000EDA20E66EA0EC6DF03F
:101ED000236E050EE15E2350DF6AD9CFE6FFDACF2D
:101EE000E6FFD950020FE66E000EDA20E66EDF50F4
:101EF000E76EFD0EDBCF20F0FE0EDBCF21F0E750CA
:101F00002026000E212220C0E6FF21C0E6FF62EC61
:101F10000BF0226E060EE15E2250000941E0020E37
:101F2000E76EFB0EDBCFE9FFFC0EDBCFEAFFE750ED
:101F3000E926000EEA222D0EEF6ED9CFE6FFDACFAA
:101F4000E6FF010EE76EFB0EDBCF20F0FC0EDBCFD1
:101F500021F0E7502026000E212220C0E6FF21C0FC
:101F6000E6FFDF50E76EFD0EDBCF22F0FE0EDBCF8B
:101F700023F0E7502226000E232222C0E6FF23C0D2
:101F8000E6FF97DC246E060EE15E2450000903E1B3
:101F9000000E89EF29F002016A6B010E89EF29F02A
:101FA000B30E206ED60E216E226A20C0E6FF21C03D
:101FB000E6FF22C0E6FFD950020FE66E000EDA20DF
:101FC000E66EA0EC6DF0236E050EE15E2350DF6A35
:101FD000D9CFE6FFDACFE6FFD950020FE66E000E4A
:101FE000DA20E66EDF50E76EFD0EDBCF20F0FE0E4E
:101FF000DBCF21F0E7502026000E212220C0E6FF93
:1020000021C0E6FF62EC0BF0226E060EE15E22506C
:10201000000941E0020EE76EFB0EDBCFE9FFFC0E8C
:10202000DBCFEAFFE750E926000EEA22240EEF6E2E
:10203000D9CFE6FFDACFE6FF010EE76EFB0EDBCF6E
:1020400020F0FC0EDBCF21F0E7502026000E2122ED
:1020500020C0E6FF21C0E6FFDF50E76EFD0EDBCFBC
:1020600022F0FE0EDBCF23F0E7502226000E2322C3
:1020700022C0E6FF23C0E6FF1CDC246E060EE15EF4
:102080002450000903E1000E89EF29F002016A6B78
:10209000010E89EF29F0DF6AAE0E206ED60E216E9A
:1020A000226A20C0E6FF21C0E6FF22C0E6FFD95029
:1020B000020FE66E000EDA20E66EA0EC6DF0236EE5
:1020C000050EE15E2350D9CFE6FFDACFE6FFD95007
:1020D000020FE66E000EDA20E66EDF50E76EFD0EB0
:1020E000DBCF20F0FE0EDBCF21F0E7502026000EE4
:1020F000212220C0E6FF21C0E6FF62EC0BF0226E39
:10210000060EE15E2250000902E161EF1FF0FB0EB6
:10211000DBCFE9FFFC0EDBCFEAFF010EEF6ED9CF7C
:10212000E6FFDACFE6FFE76EFB0EDBCF20F0FC0E1A
:10213000DBCF21F0E7502026000E212220C0E6FF51
:1021400021C0E6FFDF50E76EFD0EDBCF22F0FE0E72
:10215000DBCF23F0E7502226000E232222C0E6FF29
:1021600023C0E6FF59EC0CF0246E060EE15E24500D
:10217000000903E1000E89EF29F0010EDFCFDBFF3C
:10218000AA0E206ED60E216E226A20C0E6FF21C064
:10219000E6FF22C0E6FFD950020FE66E000EDA20FD
:1021A000E66EA0EC6DF0236E050EE15E2350D9CFF4
:1021B000E6FFDACFE6FFD950020FE66E000EDA2016
:1021C000E66EDF50E76EFD0EDBCF20F0FE0EDBCFBC
:1021D00021F0E7502026000E212220C0E6FF21C07A
:1021E000E6FF62EC0BF0226E060EE15E2250000963
:1021F00021E0230EE76EFB0EDBCFE9FFFC0EDBCF09
:10220000EAFFE750E926000EEA22010EEF6E240EE7
:10221000E76EFB0EDBCFE9FFFC0EDBCFEAFFE750FA
:10222000E926000EEA22030EEF6E02016A6B010E30
:1022300089EF29F0A60E206ED60E216E226A20C0EC
:10224000E6FF21C0E6FF22C0E6FFD950020FE66E8E
:10225000000EDA20E66EA0EC6DF0236E050EE15E56
:102260002350010EDB50DF6ED9CFE6FFDACFE6FF59
:10227000D950020FE66E000EDA20E66EDF50E76EF0
:10228000FD0EDBCF20F0FE0EDBCF21F0E750202645
:10229000000E212220C0E6FF21C0E6FF62EC0BF019
:1022A000226E060EE15E2250000921E0230EE76E49
:1022B000FB0EDBCFE9FFFC0EDBCFEAFFE750E926A0
:1022C000000EEA22010EEF6E240EE76EFB0EDBCF4E
:1022D000E9FFFC0EDBCFEAFFE750E926000EEA2219
:1022E000060EEF6E02016A6B010E89EF29F0A10E56
:1022F000206ED60E216E226A20C0E6FF21C0E6FFC6
:1023000022C0E6FFD950020FE66E000EDA20E66E1C
:10231000A0EC6DF0236E050EE15E2350010EDB5044
:10232000DF6ED9CFE6FFDACFE6FFD950020FE66EB7
:10233000000EDA20E66EDF50E76EFD0EDBCF20F0F8
:10234000FE0EDBCF21F0E7502026000E212220C018
:10235000E6FF21C0E6FF62EC0BF0226E060EE15EA6
:102360002250000901E1E0D0250EE76EFB0EDBCF25
:10237000E9FFFC0EDBCFEAFFE750E926000EEA2278
:10238000010EEF6ED9CFE6FFDACFE6FF260EE76E3D
:10239000FB0EDBCF20F0FC0EDBCF21F0E750202638
:1023A000000E212220C0E6FF21C0E6FFDF50E76ECD
:1023B000FD0EDBCF22F0FE0EDBCF23F0E75022260E
:1023C000000E232222C0E6FF23C0E6FF59EC0CF0EA
:1023D000246E060EE15E2450000903E1000E89EF31
:1023E00029F0010EDFCFDBFF9E0E206ED60E216E90
:1023F000226A20C0E6FF21C0E6FF22C0E6FFD950D6
:10240000020FE66E000EDA20E66EA0EC6DF0236E91
:10241000050EE15E2350D9CFE6FFDACFE6FFD950B3
:10242000020FE66E000EDA20E66EDF50E76EFD0E5C
:10243000DBCF20F0FE0EDBCF21F0E7502026000E90
:10244000212220C0E6FF21C0E6FF62EC0BF0226EE5
:10245000060EE15E2250000914E0270EE76EFB0E27
:10246000DBCFE9FFFC0EDBCFEAFFE750E926000EE9
:10247000EA220B0EEF6E02016A6B010E89EF29F062
:1024800053D0010EDB50DF6E9A0E206ED60E216EF9
:10249000226A20C0E6FF21C0E6FF22C0E6FFD95035
:1024A000020FE66E000EDA20E66EA0EC6DF0236EF1
:1024B000050EE15E2350D9CFE6FFDACFE6FFD95013
:1024C000020FE66E000EDA20E66EDF50E76EFD0EBC
:1024D000DBCF20F0FE0EDBCF21F0E7502026000EF0
:1024E000212220C0E6FF21C0E6FF62EC0BF0226E45
:1024F000060EE15E2250000914E0270EE76EFB0E87
:10250000DBCFE9FFFC0EDBCFEAFFE750E926000E48
:10251000EA220E0EEF6E02016A6B010E89EF29F0BE
:1025200003D0000E89EF29F0010EDB50DF6E960E0E
:10253000206ED60E216E226A20C0E6FF21C0E6FF83
:1025400022C0E6FFD950020FE66E000EDA20E66EDA
:10255000A0EC6DF0236E050EE15E2350D9CFE6FFAF
:10256000DACFE6FFD950020FE66E000EDA20E66EF3
:10257000DF50E76EFD0EDBCF20F0FE0EDBCF21F04B
:10258000E7502026000E212220C0E6FF21C0E6FFF2
:1025900062EC0BF0226E060EE15E2250000902E1B1
:1025A000E3EF1EF02B0EE76EFB0EDBCFE9FFFC0E18
:1025B000DBCFEAFFE750E926000EEA22010EEF6EBC
:1025C000520EE76EFB0EDBCF20F0FC0EDBCF21F0CE
:1025D000E7502026000E212220C0E6FF21C0E6FFA2
:1025E000D9CFE6FFDACFE6FFFD0EDBCFE6FFFE0E2A
:1025F000DBCFE6FF46EC0DF0226E060EE15E2250C8
:10260000000903E1000E89EF29F0010EDFCFDBFFA7
:10261000900E206ED60E216E226A20C0E6FF21C0E9
:10262000E6FF22C0E6FFD950020FE66E000EDA2068
:10263000E66EA0EC6DF0236E050EE15E2350D9CF5F
:10264000E6FFDACFE6FFD950020FE66E000EDA2081
:10265000E66EDF50E76EFD0EDBCF20F0FE0EDBCF27
:1026600021F0E7502026000E212220C0E6FF21C0E5
:10267000E6FF62EC0BF0226E060EE15E22500009CE
:102680000FE0510EE76EFB0EDBCFE9FFFC0EDBCF58
:10269000EAFFE750E926000EEA22280EEF6E51D03D
:1026A000010EDB50DF6E890E206ED60E216E226A7F
:1026B00020C0E6FF21C0E6FF22C0E6FFD950020F8E
:1026C000E66E000EDA20E66EA0EC6DF0236E050ECD
:1026D000E15E2350D9CFE6FFDACFE6FFD950020FF3
:1026E000E66E000EDA20E66EDF50E76EFD0EDBCF01
:1026F00020F0FE0EDBCF21F0E7502026000E212235
:1027000020C0E6FF21C0E6FF62EC0BF0226E060E51
:10271000E15E225000090FE0510EE76EFB0EDBCFA9
:10272000E9FFFC0EDBCFEAFFE750E926000EEA22C4
:10273000290EEF6E06D00201010E6A6F000E89EFBE
:1027400029F0500EE76EFB0EDBCFE9FFFC0EDBCF6E
:10275000EAFFE750E926000EEA22280EEF6E830E0C
:10276000206ED60E216E226A20C0E6FF21C0E6FF51
:1027700022C0E6FFD950020FE66E000EDA20E66EA8
:10278000A0EC6DF0236E050EE15E2350D9CFE6FF7D
:10279000DACFE6FFD950020FE66E000EDA20E66EC1
:1027A000DF50E76EFD0EDBCF20F0FE0EDBCF21F019
:1027B000E7502026000E212220C0E6FF21C0E6FFC0
:1027C00062EC0BF0226E060EE15E2250000902E17F
:1027D000E0EF1EF0D9CFE6FFDACFE6FFD9500C0FBD
:1027E000E66E000EDA20E66EDF50E76EFD0EDBCF00
:1027F00020F0FE0EDBCF21F0E7502026000E212234
:1028000020C0E6FF21C0E6FF59EC0CF0226E060E58
:10281000E15E2250000903E1000E89EF29F0010E6C
:10282000DFCFDBFFA10E206ED60E216E226A20C004
:10283000E6FF21C0E6FF22C0E6FFD950020FE66E98
:10284000000EDA20E66EA0EC6DF0236E050EE15E60
:102850002350D9CFE6FFDACFE6FFD950020FE66E5C
:10286000000EDA20E66EDF50E76EFD0EDBCF20F0C3
:10287000FE0EDBCF21F0E7502026000E212220C0E3
:10288000E6FF21C0E6FF62EC0BF0226E060EE15E71
:102890002250000901E17CD02C0EE76EFB0EDBCF4D
:1028A000E9FFFC0EDBCFEAFFE750E926000EEA2243
:1028B000010EEF6E2D0EE76EFB0EDBCFE9FFFC0E77
:1028C000DBCFEAFFE750E926000EEA220C0EDBCF51
:1028D000EFFFD9CFE6FFDACFE6FF2E0EE76EFB0E55
:1028E000DBCF20F0FC0EDBCF21F0E7502026000EDE
:1028F000212220C0E6FF21C0E6FFDF50E76EFD0E7B
:10290000DBCF22F0FE0EDBCF23F0E7502226000EB5
:10291000232222C0E6FF23C0E6FF59EC0CF0246E10
:10292000060EE15E2450000903E1000E89EF29F054
:10293000D9CFE6FFDACFE6FF2F0EE76EFB0EDBCF37
:1029400020F0FC0EDBCF21F0E7502026000E2122E4
:1029500020C0E6FF21C0E6FFDF50E76EFD0EDBCFB3
:1029600022F0FE0EDBCF23F0E7502226000E2322BA
:1029700022C0E6FF23C0E6FF59EC0CF0246E060EE1
:10298000E15E2450000903E1000E89EF29F0EBD14C
:10299000010EDB50DF6E7D0E206ED60E216E226A98
:1029A00020C0E6FF21C0E6FF22C0E6FFD950020F9B
:1029B000E66E000EDA20E66EA0EC6DF0236E050EDA
:1029C000E15E2350D9CFE6FFDACFE6FFD950020F00
:1029D000E66E000EDA20E66EDF50E76EFD0EDBCF0E
:1029E00020F0FE0EDBCF21F0E7502026000E212242
:1029F00020C0E6FF21C0E6FF62EC0BF0226E060E5F
:102A0000E15E225000094DE0300EE76EFB0EDBCF99
:102A1000E9FFFC0EDBCFEAFFE750E926000EEA22D1
:102A2000010EEF6E310EE76EFB0EDBCFE9FFFC0E01
:102A3000DBCFEAFFE750E926000EEA220C0EDBCFDF
:102A4000EFFFD9CFE6FFDACFE6FF320EE76EFB0EDF
:102A5000DBCF20F0FC0EDBCF21F0E7502026000E6C
:102A6000212220C0E6FF21C0E6FFDF50E76EFD0E09
:102A7000DBCF22F0FE0EDBCF23F0E7502226000E44
:102A8000232222C0E6FF23C0E6FF59EC0CF0246E9F
:102A9000060EE15E2450000903E1000E89EF29F0E3
:102AA00062D1010EDB50DF6E770E206ED60E216EE6
:102AB000226A20C0E6FF21C0E6FF22C0E6FFD9500F
:102AC000020FE66E000EDA20E66EA0EC6DF0236ECB
:102AD000050EE15E2350D9CFE6FFDACFE6FFD950ED
:102AE000020FE66E000EDA20E66EDF50E76EFD0E96
:102AF000DBCF20F0FE0EDBCF21F0E7502026000ECA
:102B0000212220C0E6FF21C0E6FF62EC0BF0226E1E
:102B1000060EE15E2250000901E122D1330EE76E7C
:102B2000FB0EDBCFE9FFFC0EDBCFEAFFE750E92627
:102B3000000EEA22010EEF6E340EE76EFB0EDBCFC5
:102B4000E9FFFC0EDBCFEAFFE750E926000EEA22A0
:102B50000C0EDBCFEFFFD9CFE6FFDACFE6FF350E65
:102B6000E76EFB0EDBCF20F0FC0EDBCF21F0E75051
:102B70002026000E212220C0E6FF21C0E6FFDF5004
:102B8000E76EFD0EDBCF22F0FE0EDBCF23F0E75029
:102B90002226000E232222C0E6FF23C0E6FF59ECC6
:102BA0000CF0246E060EE15E2450000903E1000ED5
:102BB00089EF29F0730E206ED60E216E226A20C096
:102BC000E6FF21C0E6FF22C0E6FFD950020FE66E05
:102BD000000EDA20E66EA0EC6DF0236E050EE15ECD
:102BE0002350D9CFE6FFDACFE6FFD950020FE66EC9
:102BF000000EDA20E66EDF50E76EFD0EDBCF20F030
:102C0000FE0EDBCF21F0E7502026000E212220C04F
:102C1000E6FF21C0E6FF62EC0BF0226E060EE15EDD
:102C20002250000903E1000E89EF29F0010EDFCFE9
:102C3000DBFF6B0E206ED60E216E226A20C0E6FFEF
:102C400021C0E6FF22C0E6FFD950020FE66E000E5B
:102C5000DA20E66EA0EC6DF0236E050EE15E2350E7
:102C6000D9CFE6FFDACFE6FFD950020FE66E000EAD
:102C7000DA20E66EDF50E76EFD0EDBCF20F0FE0EB1
:102C8000DBCF21F0E7502026000E212220C0E6FFF6
:102C900021C0E6FF62EC0BF0226E060EE15E2250D0
:102CA00000090FE0360EE76EFB0EDBCFE9FFFC0EEE
:102CB000DBCFEAFFE750E926000EEA220F0EEF6EA7
:102CC0004ED0010EDB50DF6E620E206ED60E216EEE
:102CD000226A20C0E6FF21C0E6FF22C0E6FFD950ED
:102CE000020FE66E000EDA20E66EA0EC6DF0236EA9
:102CF000050EE15E2350D9CFE6FFDACFE6FFD950CB
:102D0000020FE66E000EDA20E66EDF50E76EFD0E73
:102D1000DBCF20F0FE0EDBCF21F0E7502026000EA7
:102D2000212220C0E6FF21C0E6FF62EC0BF0226EFC
:102D3000060EE15E225000090FE0360EE76EFB0E34
:102D4000DBCFE9FFFC0EDBCFEAFFE750E926000E00
:102D5000EA22100EEF6E03D0000E89EF29F003D0A7
:102D6000000E89EF29F05E0E206ED60E216E226ACB
:102D700020C0E6FF21C0E6FF22C0E6FFD950020FC7
:102D8000E66E000EDA20E66EA0EC6DF0236E050E06
:102D9000E15E2350D9CFE6FFDACFE6FFD950020F2C
:102DA000E66E000EDA20E66EDF50E76EFD0EDBCF3A
:102DB00020F0FE0EDBCF21F0E7502026000E21226E
:102DC00020C0E6FF21C0E6FF62EC0BF0226E060E8B
:102DD000E15E2250000903E1000E89EF29F0010EA7
:102DE000DFCFDBFFA10E206ED60E216E226A20C03F
:102DF000E6FF21C0E6FF22C0E6FFD950020FE66ED3
:102E0000000EDA20E66EA0EC6DF0236E050EE15E9A
:102E10002350D9CFE6FFDACFE6FFD950020FE66E96
:102E2000000EDA20E66EDF50E76EFD0EDBCF20F0FD
:102E3000FE0EDBCF21F0E7502026000E212220C01D
:102E4000E6FF21C0E6FF62EC0BF0226E060EE15EAB
:102E50002250000971E0370EE76EFB0EDBCFE9FF71
:102E6000FC0EDBCFEAFFE750E926000EEA22010E56
:102E7000EF6ED9CFE6FFDACFE6FF380EE76EFB0E36
:102E8000DBCF20F0FC0EDBCF21F0E7502026000E38
:102E9000212220C0E6FF21C0E6FFDF50E76EFD0ED5
:102EA000DBCF22F0FE0EDBCF23F0E7502226000E10
:102EB000232222C0E6FF23C0E6FF59EC0CF0246E6B
:102EC000060EE15E2450000903E1000E89EF29F0AF
:102ED000D9CFE6FFDACFE6FF390EE76EFB0EDBCF88
:102EE00020F0FC0EDBCF21F0E7502026000E21223F
:102EF00020C0E6FF21C0E6FFDF50E76EFD0EDBCF0E
:102F000022F0FE0EDBCF23F0E7502226000E232214
:102F100022C0E6FF23C0E6FF59EC0CF0246E060E3B
:102F2000E15E2450000903E1000E89EF29F002015F
:102F30006A6B010E89EF29F0010EDB50DF6E7D0E0A
:102F4000206ED60E216E226A20C0E6FF21C0E6FF69
:102F500022C0E6FFD950020FE66E000EDA20E66EC0
:102F6000A0EC6DF0236E050EE15E2350D9CFE6FF95
:102F7000DACFE6FFD950020FE66E000EDA20E66ED9
:102F8000DF50E76EFD0EDBCF20F0FE0EDBCF21F031
:102F9000E7502026000E212220C0E6FF21C0E6FFD8
:102FA00062EC0BF0226E060EE15E2250000971E029
:102FB0003A0EE76EFB0EDBCFE9FFFC0EDBCFEAFF3C
:102FC000E750E926000EEA22010EEF6ED9CFE6FFA8
:102FD000DACFE6FF3B0EE76EFB0EDBCF20F0FC0EF8
:102FE000DBCF21F0E7502026000E212220C0E6FF93
:102FF00021C0E6FFDF50E76EFD0EDBCF22F0FE0EB4
:10300000DBCF23F0E7502226000E232222C0E6FF6A
:1030100023C0E6FF59EC0CF0246E060EE15E24504E
:10302000000903E1000E89EF29F0D9CFE6FFDACFDE
:10303000E6FF3C0EE76EFB0EDBCF20F0FC0EDBCF95
:1030400021F0E7502026000E212220C0E6FF21C0FB
:10305000E6FFDF50E76EFD0EDBCF22F0FE0EDBCF8A
:1030600023F0E7502226000E232222C0E6FF23C0D1
:10307000E6FF59EC0CF0246E060EE15E24500009C8
:1030800003E1000E89EF29F002016A6B010E89EF5E
:1030900029F0010EDB50DF6E5A0E206ED60E216E27
:1030A000226A20C0E6FF21C0E6FF22C0E6FFD95019
:1030B000020FE66E000EDA20E66EA0EC6DF0236ED5
:1030C000050EE15E2350D9CFE6FFDACFE6FFD950F7
:1030D000020FE66E000EDA20E66EDF50E76EFD0EA0
:1030E000DBCF20F0FE0EDBCF21F0E7502026000ED4
:1030F000212220C0E6FF21C0E6FF62EC0BF0226E29
:10310000060EE15E2250000971E03D0EE76EFB0EF7
:10311000DBCFE9FFFC0EDBCFEAFFE750E926000E2C
:10312000EA22010EEF6ED9CFE6FFDACFE6FF3E0EC0
:10313000E76EFB0EDBCF20F0FC0EDBCF21F0E7507B
:103140002026000E212220C0E6FF21C0E6FFDF502E
:10315000E76EFD0EDBCF22F0FE0EDBCF23F0E75053
:103160002226000E232222C0E6FF23C0E6FF59ECF0
:103170000CF0246E060EE15E2450000903E1000EFF
:1031800089EF29F0D9CFE6FFDACFE6FF3F0EE76EF1
:10319000FB0EDBCF20F0FC0EDBCF21F0E75020262A
:1031A000000E212220C0E6FF21C0E6FFDF50E76EBF
:1031B000FD0EDBCF22F0FE0EDBCF23F0E750222600
:1031C000000E232222C0E6FF23C0E6FF59EC0CF0DC
:1031D000246E060EE15E2450000903E1000E89EF23
:1031E00029F002016A6B010E89EF29F0010EDB5014
:1031F000DF6E900E206ED60E216E226A20C0E6FF92
:1032000021C0E6FF22C0E6FFD950020FE66E000E95
:10321000DA20E66EA0EC6DF0236E050EE15E235021
:10322000D9CFE6FFDACFE6FFD950020FE66E000EE7
:10323000DA20E66EDF50E76EFD0EDBCF20F0FE0EEB
:10324000DBCF21F0E7502026000E212220C0E6FF30
:1032500021C0E6FF62EC0BF0226E060EE15E22500A
:10326000000946E0400EE76EFB0EDBCFE9FFFC0EE7
:10327000DBCFEAFFE750E926000EEA22010EEF6EEF
:10328000410EE76EFB0EDBCF20F0FC0EDBCF21F012
:10329000E7502026000E212220C0E6FF21C0E6FFD5
:1032A000D9CFE6FFDACFE6FFFD0EDBCFE6FFFE0E5D
:1032B000DBCFE6FF46EC0DF0226E060EE15E2250FB
:1032C000000903E1000E89EF29F0450EE76EFB0EC1
:1032D000DBCFE9FFFC0EDBCFEAFFE750E926000E6B
:1032E000EA22280EEF6E02016A6B010E89EF29F0C7
:1032F000010EDB50DF6E890E206ED60E216E226A23
:1033000020C0E6FF21C0E6FF22C0E6FFD950020F31
:10331000E66E000EDA20E66EA0EC6DF0236E050E70
:10332000E15E2350D9CFE6FFDACFE6FFD950020F96
:10333000E66E000EDA20E66EDF50E76EFD0EDBCFA4
:1033400020F0FE0EDBCF21F0E7502026000E2122D8
:1033500020C0E6FF21C0E6FF62EC0BF0226E060EF5
:10336000E15E2250000946E0400EE76EFB0EDBCF27
:10337000E9FFFC0EDBCFEAFFE750E926000EEA2268
:10338000010EEF6E410EE76EFB0EDBCF20F0FC0E60
:10339000DBCF21F0E7502026000E212220C0E6FFDF
:1033A00021C0E6FFD9CFE6FFDACFE6FFFD0EDBCF87
:1033B000E6FFFE0EDBCFE6FF46EC0DF0226E060EBA
:1033C000E15E2250000903E1000E89EF29F0450E6D
:1033D000E76EFB0EDBCFE9FFFC0EDBCFEAFFE75029
:1033E000E926000EEA22290EEF6E02016A6B010E39
:1033F00089EF29F0010EDB50DF6E770E206ED60EBE
:10340000216E226A20C0E6FF21C0E6FF22C0E6FF4F
:10341000D950020FE66E000EDA20E66EA0EC6DF0D9
:10342000236E050EE15E2350D9CFE6FFDACFE6FF2B
:10343000D950020FE66E000EDA20E66EDF50E76E1E
:10344000FD0EDBCF20F0FE0EDBCF21F0E750202673
:10345000000E212220C0E6FF21C0E6FF62EC0BF047
:10346000226E060EE15E2250000901E1E1D2460E15
:10347000E76EFB0EDBCFE9FFFC0EDBCFEAFFE75088
:10348000E926000EEA22010EEF6ED9CFE6FFDACF71
:10349000E6FF470EE76EFB0EDBCF20F0FC0EDBCF26
:1034A00021F0E7502026000E212220C0E6FF21C097
:1034B000E6FFDF50E76EFD0EDBCF22F0FE0EDBCF26
:1034C00023F0E7502226000E232222C0E6FF23C06D
:1034D000E6FF59EC0CF0246E060EE15E2450000964
:1034E00003E1000E89EF29F0540E206ED60E216EF6
:1034F000226A20C0E6FF21C0E6FF22C0E6FFD950C5
:10350000020FE66E000EDA20E66EA0EC6DF0236E80
:10351000050EE15E2350D9CFE6FFDACFE6FFD950A2
:10352000020FE66E000EDA20E66EDF50E76EFD0E4B
:10353000DBCF20F0FE0EDBCF21F0E7502026000E7F
:10354000212220C0E6FF21C0E6FF62EC0BF0226ED4
:10355000060EE15E2250000903E1000E89EF29F01A
:10356000010EDFCFDBFF4E0E206ED60E216E226ADB
:1035700020C0E6FF21C0E6FF22C0E6FFD950020FBF
:10358000E66E000EDA20E66EA0EC6DF0236E050EFE
:10359000E15E2350D9CFE6FFDACFE6FFD950020F24
:1035A000E66E000EDA20E66EDF50E76EFD0EDBCF32
:1035B00020F0FE0EDBCF21F0E7502026000E212266
:1035C00020C0E6FF21C0E6FF62EC0BF0226E060E83
:1035D000E15E225000090EE0480EE76EFB0EDBCFE5
:1035E000E9FFFC0EDBCFEAFFE750E926000EEA22F6
:1035F000EF687DD0010EDB50DF6E480E206ED60ED8
:10360000216E226A20C0E6FF21C0E6FF22C0E6FF4D
:10361000D950020FE66E000EDA20E66EA0EC6DF0D7
:10362000236E050EE15E2350D9CFE6FFDACFE6FF29
:10363000D950020FE66E000EDA20E66EDF50E76E1C
:10364000FD0EDBCF20F0FE0EDBCF21F0E750202671
:10365000000E212220C0E6FF21C0E6FF62EC0BF045
:10366000226E060EE15E225000090FE0480EE76E62
:10367000FB0EDBCFE9FFFC0EDBCFEAFFE750E926CC
:10368000000EEA22EE0EEF6E32D0010EDB50DF6E3E
:10369000D9CFE6FFDACFE6FF480EE76EFB0EDBCFB1
:1036A00020F0FC0EDBCF21F0E7502026000E212277
:1036B00020C0E6FF21C0E6FFDF50E76EFD0EDBCF46
:1036C00022F0FE0EDBCF23F0E7502226000E23224D
:1036D00022C0E6FF23C0E6FF59EC0CF0246E060E74
:1036E000E15E2450000903E1000E89EF29F0010E8C
:1036F000DFCFDBFF430E206ED60E216E226A20C084
:10370000E6FF21C0E6FF22C0E6FFD950020FE66EB9
:10371000000EDA20E66EA0EC6DF0236E050EE15E81
:103720002350D9CFE6FFDACFE6FFD950020FE66E7D
:10373000000EDA20E66EDF50E76EFD0EDBCF20F0E4
:10374000FE0EDBCF21F0E7502026000E212220C004
:10375000E6FF21C0E6FF62EC0BF0226E060EE15E92
:10376000225000090FE0490EE76EFB0EDBCFE9FFA8
:10377000FC0EDBCFEAFFE750E926000EEA22130E2B
:10378000EF6E4ED0010EDB50DF6E3E0E206ED60E79
:10379000216E226A20C0E6FF21C0E6FF22C0E6FFBC
:1037A000D950020FE66E000EDA20E66EA0EC6DF046
:1037B000236E050EE15E2350D9CFE6FFDACFE6FF98
:1037C000D950020FE66E000EDA20E66EDF50E76E8B
:1037D000FD0EDBCF20F0FE0EDBCF21F0E7502026E0
:1037E000000E212220C0E6FF21C0E6FF62EC0BF0B4
:1037F000226E060EE15E225000090FE0490EE76ED0
:10380000FB0EDBCFE9FFFC0EDBCFEAFFE750E9263A
:10381000000EEA22140EEF6E03D0000E89EF29F09D
:10382000360E206ED60E216E226A20C0E6FF21C021
:10383000E6FF22C0E6FFD950020FE66E000EDA2046
:10384000E66EA0EC6DF0236E050EE15E2350D9CF3D
:10385000E6FFDACFE6FFD950020FE66E000EDA205F
:10386000E66EDF50E76EFD0EDBCF20F0FE0EDBCF05
:1038700021F0E7502026000E212220C0E6FF21C0C3
:10388000E6FF62EC0BF0226E060EE15E22500009AC
:1038900003E1000E89EF29F0010EDFCFDBFF4E0EB2
:1038A000206ED60E216E226A20C0E6FF21C0E6FF00
:1038B00022C0E6FFD950020FE66E000EDA20E66E57
:1038C000A0EC6DF0236E050EE15E2350D9CFE6FF2C
:1038D000DACFE6FFD950020FE66E000EDA20E66E70
:1038E000DF50E76EFD0EDBCF20F0FE0EDBCF21F0C8
:1038F000E7502026000E212220C0E6FF21C0E6FF6F
:1039000062EC0BF0226E060EE15E225000090EE022
:103910004A0EE76EFB0EDBCFE9FFFC0EDBCFEAFFC2
:10392000E750E926000EEA22EF687DD0010EDB5059
:10393000DF6E480E206ED60E216E226A20C0E6FF92
:1039400021C0E6FF22C0E6FFD950020FE66E000E4E
:10395000DA20E66EA0EC6DF0236E050EE15E2350DA
:10396000D9CFE6FFDACFE6FFD950020FE66E000EA0
:10397000DA20E66EDF50E76EFD0EDBCF20F0FE0EA4
:10398000DBCF21F0E7502026000E212220C0E6FFE9
:1039900021C0E6FF62EC0BF0226E060EE15E2250C3
:1039A00000090FE04A0EE76EFB0EDBCFE9FFFC0ECD
:1039B000DBCFEAFFE750E926000EEA22EE0EEF6EBB
:1039C00032D0010EDB50DF6ED9CFE6FFDACFE6FF53
:1039D0004A0EE76EFB0EDBCF20F0FC0EDBCF21F0B2
:1039E000E7502026000E212220C0E6FF21C0E6FF7E
:1039F000DF50E76EFD0EDBCF22F0FE0EDBCF23F0B3
:103A0000E7502226000E232222C0E6FF23C0E6FF55
:103A100059EC0CF0246E060EE15E2450000903E11F
:103A2000000E89EF29F002016A6B010E89EF29F07F
:103A3000010EDB50DF6E2E0E206ED60E216E226A36
:103A400020C0E6FF21C0E6FF22C0E6FFD950020FEA
:103A5000E66E000EDA20E66EA0EC6DF0236E050E29
:103A6000E15E2350D9CFE6FFDACFE6FFD950020F4F
:103A7000E66E000EDA20E66EDF50E76EFD0EDBCF5D
:103A800020F0FE0EDBCF21F0E7502026000E212291
:103A900020C0E6FF21C0E6FF62EC0BF0226E060EAE
:103AA000E15E2250000921E04B0EE76EFB0EDBCFFA
:103AB000E9FFFC0EDBCFEAFFE750E926000EEA2221
:103AC000010EEF6E4C0EE76EFB0EDBCFE9FFFC0E36
:103AD000DBCFEAFFE750E926000EEA222E0EEF6E5A
:103AE00002016A6B010E89EF29F0010EDB50DF6ED7
:103AF000270E206ED60E216E226A20C0E6FF21C05E
:103B0000E6FF22C0E6FFD950020FE66E000EDA2073
:103B1000E66EA0EC6DF0236E050EE15E2350D9CF6A
:103B2000E6FFDACFE6FFD950020FE66E000EDA208C
:103B3000E66EDF50E76EFD0EDBCF20F0FE0EDBCF32
:103B400021F0E7502026000E212220C0E6FF21C0F0
:103B5000E6FF62EC0BF0226E060EE15E22500009D9
:103B600021E04B0EE76EFB0EDBCFE9FFFC0EDBCF57
:103B7000EAFFE750E926000EEA22010EEF6E4C0E36
:103B8000E76EFB0EDBCFE9FFFC0EDBCFEAFFE75071
:103B9000E926000EEA222B0EEF6E02016A6B010E7F
:103BA00089EF29F0010EDB50DF6E1D0E206ED60E60
:103BB000216E226A20C0E6FF21C0E6FF22C0E6FF98
:103BC000D950020FE66E000EDA20E66EA0EC6DF022
:103BD000236E050EE15E2350D9CFE6FFDACFE6FF74
:103BE000D950020FE66E000EDA20E66EDF50E76E67
:103BF000FD0EDBCF20F0FE0EDBCF21F0E7502026BC
:103C0000000E212220C0E6FF21C0E6FF62EC0BF08F
:103C1000226E060EE15E2250000921E04B0EE76E97
:103C2000FB0EDBCFE9FFFC0EDBCFEAFFE750E92616
:103C3000000EEA22010EEF6E4C0EE76EFB0EDBCF9C
:103C4000E9FFFC0EDBCFEAFFE750E926000EEA228F
:103C50002C0EEF6E02016A6B010E89EF29F0010E46
:103C6000DB50DF6EAA0E206ED60E216E226A20C0B7
:103C7000E6FF21C0E6FF22C0E6FFD950020FE66E44
:103C8000000EDA20E66EA0EC6DF0236E050EE15E0C
:103C90002350D9CFE6FFDACFE6FFD950020FE66E08
:103CA000000EDA20E66EDF50E76EFD0EDBCF20F06F
:103CB000FE0EDBCF21F0E7502026000E212220C08F
:103CC000E6FF21C0E6FF62EC0BF0226E060EE15E1D
:103CD0002250000971E04D0EE76EFB0EDBCFE9FFCD
:103CE000FC0EDBCFEAFFE750E926000EEA22010EC8
:103CF000EF6ED9CFE6FFDACFE6FF4E0EE76EFB0E92
:103D0000DBCF20F0FC0EDBCF21F0E7502026000EA9
:103D1000212220C0E6FF21C0E6FFDF50E76EFD0E46
:103D2000DBCF22F0FE0EDBCF23F0E7502226000E81
:103D3000232222C0E6FF23C0E6FF59EC0CF0246EDC
:103D4000060EE15E2450000903E1000E89EF29F020
:103D5000D9CFE6FFDACFE6FF4F0EE76EFB0EDBCFE3
:103D600020F0FC0EDBCF21F0E7502026000E2122B0
:103D700020C0E6FF21C0E6FFDF50E76EFD0EDBCF7F
:103D800022F0FE0EDBCF23F0E7502226000E232286
:103D900022C0E6FF23C0E6FF59EC0CF0246E060EAD
:103DA000E15E2450000903E1000E89EF29F00201D1
:103DB0006A6B010E89EF29F0000E89EF29F003D01C
:103DC000000E89EF29F0010EDB50DF6E190E206E18
:103DD000D60E216E226A20C0E6FF21C0E6FF22C077
:103DE000E6FFD950020FE66E000EDA20E66EA0EC78
:103DF0006DF0236E050EE15E2350D9CFE6FFDACFDA
:103E0000E6FFD950020FE66E000EDA20E66EDF50B4
:103E1000E76EFD0EDBCF20F0FE0EDBCF21F0E7508A
:103E20002026000E212220C0E6FF21C0E6FF62EC22
:103E30000BF0226E060EE15E2250000942E0550EA4
:103E4000E76EFB0EDBCFE9FFFC0EDBCFEAFFE750AE
:103E5000E926000EEA22010EEF6ED9CFE6FFDACF97
:103E6000E6FF560EE76EFB0EDBCF20F0FC0EDBCF3D
:103E700021F0E7502026000E212220C0E6FF21C0BD
:103E8000E6FFDF50E76EFD0EDBCF22F0FE0EDBCF4C
:103E900023F0E7502226000E232222C0E6FF23C093
:103EA000E6FF59EC0CF0246E060EE15E245000098A
:103EB00003E1000E89EF29F002016A6B010E89EF20
:103EC00029F0DF6A150E206ED60E216E226A20C000
:103ED000E6FF21C0E6FF22C0E6FFD950020FE66EE2
:103EE000000EDA20E66EA0EC6DF0236E050EE15EAA
:103EF0002350D9CFE6FFDACFE6FFD950020FE66EA6
:103F0000000EDA20E66EDF50E76EFD0EDBCF20F00C
:103F1000FE0EDBCF21F0E7502026000E212220C02C
:103F2000E6FF21C0E6FF62EC0BF0226E060EE15EBA
:103F30002250000902E187EF29F0FB0EDBCFE9FFF9
:103F4000FC0EDBCFEAFF020EEF6ED9CFE6FFDACF31
:103F5000E6FF010EE76EFB0EDBCF20F0FC0EDBCFA1
:103F600021F0E7502026000E212220C0E6FF21C0CC
:103F7000E6FFDF50E76EFD0EDBCF22F0FE0EDBCF5B
:103F800023F0E7502226000E232222C0E6FF23C0A2
:103F9000E6FF59EC0CF0246E060EE15E2450000999
:103FA00003E1000E89EF29F0010EDFCFDBFFA10E48
:103FB000206ED60E216E226A20C0E6FF21C0E6FFE9
:103FC00022C0E6FFD950020FE66E000EDA20E66E40
:103FD000A0EC6DF0236E050EE15E2350D9CFE6FF15
:103FE000DACFE6FFD950020FE66E000EDA20E66E59
:103FF000DF50E76EFD0EDBCF20F0FE0EDBCF21F0B1
:10400000E7502026000E212220C0E6FF21C0E6FF57
:1040100062EC0BF0226E060EE15E2250000971E0A8
:10402000030EE76EFB0EDBCFE9FFFC0EDBCFEAFFF2
:10403000E750E926000EEA22010EEF6ED9CFE6FF27
:10404000DACFE6FF040EE76EFB0EDBCF20F0FC0EAE
:10405000DBCF21F0E7502026000E212220C0E6FF12
:1040600021C0E6FFDF50E76EFD0EDBCF22F0FE0E33
:10407000DBCF23F0E7502226000E232222C0E6FFEA
:1040800023C0E6FF59EC0CF0246E060EE15E2450CE
:10409000000903E1000E89EF29F0D9CFE6FFDACF5E
:1040A000E6FF050EE76EFB0EDBCF20F0FC0EDBCF4C
:1040B00021F0E7502026000E212220C0E6FF21C07B
:1040C000E6FFDF50E76EFD0EDBCF22F0FE0EDBCF0A
:1040D00023F0E7502226000E232222C0E6FF23C051
:1040E000E6FF59EC0CF0246E060EE15E2450000948
:1040F00003E1000E89EF29F002016A6B010E89EFDE
:1041000029F0010EDB50DF6E7D0E206ED60E216E83
:10411000226A20C0E6FF21C0E6FF22C0E6FFD95098
:10412000020FE66E000EDA20E66EA0EC6DF0236E54
:10413000050EE15E2350D9CFE6FFDACFE6FFD95076
:10414000020FE66E000EDA20E66EDF50E76EFD0E1F
:10415000DBCF20F0FE0EDBCF21F0E7502026000E53
:10416000212220C0E6FF21C0E6FF62EC0BF0226EA8
:10417000060EE15E2250000971E0060EE76EFB0EAE
:10418000DBCFE9FFFC0EDBCFEAFFE750E926000EAC
:10419000EA22010EEF6ED9CFE6FFDACFE6FF070E77
:1041A000E76EFB0EDBCF20F0FC0EDBCF21F0E750FB
:1041B0002026000E212220C0E6FF21C0E6FFDF50AE
:1041C000E76EFD0EDBCF22F0FE0EDBCF23F0E750D3
:1041D0002226000E232222C0E6FF23C0E6FF59EC70
:1041E0000CF0246E060EE15E2450000903E1000E7F
:1041F00089EF29F0D9CFE6FFDACFE6FF080EE76EA8
:10420000FB0EDBCF20F0FC0EDBCF21F0E7502026A9
:10421000000E212220C0E6FF21C0E6FFDF50E76E3E
:10422000FD0EDBCF22F0FE0EDBCF23F0E75022267F
:10423000000E232222C0E6FF23C0E6FF59EC0CF05B
:10424000246E060EE15E2450000903E1000E89EFA2
:1042500029F002016A6B010E89EF29F0010EDB5093
:10426000DF6E5A0E206ED60E216E226A20C0E6FF47
:1042700021C0E6FF22C0E6FFD950020FE66E000E15
:10428000DA20E66EA0EC6DF0236E050EE15E2350A1
:10429000D9CFE6FFDACFE6FFD950020FE66E000E67
:1042A000DA20E66EDF50E76EFD0EDBCF20F0FE0E6B
:1042B000DBCF21F0E7502026000E212220C0E6FFB0
:1042C00021C0E6FF62EC0BF0226E060EE15E22508A
:1042D000000971E0090EE76EFB0EDBCFE9FFFC0E73
:1042E000DBCFEAFFE750E926000EEA22010EEF6E6F
:1042F000D9CFE6FFDACFE6FF0A0EE76EFB0EDBCF83
:1043000020F0FC0EDBCF21F0E7502026000E21220A
:1043100020C0E6FF21C0E6FFDF50E76EFD0EDBCFD9
:1043200022F0FE0EDBCF23F0E7502226000E2322E0
:1043300022C0E6FF23C0E6FF59EC0CF0246E060E07
:10434000E15E2450000903E1000E89EF29F0D9CF86
:10435000E6FFDACFE6FF0B0EE76EFB0EDBCF20F0B9
:10436000FC0EDBCF21F0E7502026000E212220C0DA
:10437000E6FF21C0E6FFDF50E76EFD0EDBCF22F047
:10438000FE0EDBCF23F0E7502226000E232222C0B0
:10439000E6FF23C0E6FF59EC0CF0246E060EE15E4A
:1043A0002450000903E1000E89EF29F002016A6B35
:1043B000010E89EF29F0010EDB50DF6E900E206EAA
:1043C000D60E216E226A20C0E6FF21C0E6FF22C081
:1043D000E6FFD950020FE66E000EDA20E66EA0EC82
:1043E0006DF0236E050EE15E2350D9CFE6FFDACFE4
:1043F000E6FFD950020FE66E000EDA20E66EDF50BF
:10440000E76EFD0EDBCF20F0FE0EDBCF21F0E75094
:104410002026000E212220C0E6FF21C0E6FF62EC2C
:104420000BF0226E060EE15E2250000946E00C0EF3
:10443000E76EFB0EDBCFE9FFFC0EDBCFEAFFE750B8
:10444000E926000EEA22010EEF6E0D0EE76EFB0E5E
:10445000DBCF20F0FC0EDBCF21F0E7502026000E52
:10446000212220C0E6FF21C0E6FFD9CFE6FFDACF48
:10447000E6FFFD0EDBCFE6FFFE0EDBCFE6FF46ECF0
:104480000DF0226E060EE15E2250000903E1000EDF
:1044900089EF29F0110EE76EFB0EDBCFE9FFFC0E72
:1044A000DBCFEAFFE750E926000EEA22280EEF6E86
:1044B00002016A6B010E89EF29F0010EDB50DF6EFD
:1044C000890E206ED60E216E226A20C0E6FF21C022
:1044D000E6FF22C0E6FFD950020FE66E000EDA209A
:1044E000E66EA0EC6DF0236E050EE15E2350D9CF91
:1044F000E6FFDACFE6FFD950020FE66E000EDA20B3
:10450000E66EDF50E76EFD0EDBCF20F0FE0EDBCF58
:1045100021F0E7502026000E212220C0E6FF21C016
:10452000E6FF62EC0BF0226E060EE15E22500009FF
:1045300046E00C0EE76EFB0EDBCFE9FFFC0EDBCF97
:10454000EAFFE750E926000EEA22010EEF6E0D0E9B
:10455000E76EFB0EDBCF20F0FC0EDBCF21F0E75047
:104560002026000E212220C0E6FF21C0E6FFD9CF81
:10457000E6FFDACFE6FFFD0EDBCFE6FFFE0EDBCF78
:10458000E6FF46EC0DF0226E060EE15E22500009B9
:1045900003E1000E89EF29F0110EE76EFB0EDBCF71
:1045A000E9FFFC0EDBCFEAFFE750E926000EEA2226
:1045B000290EEF6E02016A6B010E89EF29F0010EE0
:1045C000DB50DF6E770E206ED60E216E226A20C081
:1045D000E6FF21C0E6FF22C0E6FFD950020FE66EDB
:1045E000000EDA20E66EA0EC6DF0236E050EE15EA3
:1045F0002350D9CFE6FFDACFE6FFD950020FE66E9F
:10460000000EDA20E66EDF50E76EFD0EDBCF20F005
:10461000FE0EDBCF21F0E7502026000E212220C025
:10462000E6FF21C0E6FF62EC0BF0226E060EE15EB3
:104630002250000901E1DFD2120EE76EFB0EDBCF44
:10464000E9FFFC0EDBCFEAFFE750E926000EEA2285
:10465000010EEF6ED9CFE6FFDACFE6FF130EE76E5D
:10466000FB0EDBCF20F0FC0EDBCF21F0E750202645
:10467000000E212220C0E6FF21C0E6FFDF50E76EDA
:10468000FD0EDBCF22F0FE0EDBCF23F0E75022261B
:10469000000E232222C0E6FF23C0E6FF59EC0CF0F7
:1046A000246E060EE15E2450000903E1000E89EF3E
:1046B00029F0540E206ED60E216E226A20C0E6FF2D
:1046C00021C0E6FF22C0E6FFD950020FE66E000EC1
:1046D000DA20E66EA0EC6DF0236E050EE15E23504D
:1046E000D9CFE6FFDACFE6FFD950020FE66E000E13
:1046F000DA20E66EDF50E76EFD0EDBCF20F0FE0E17
:10470000DBCF21F0E7502026000E212220C0E6FF5B
:1047100021C0E6FF62EC0BF0226E060EE15E225035
:10472000000903E1000E89EF29F0010EDFCFDBFF66
:104730004E0E206ED60E216E226A20C0E6FF21C0EA
:10474000E6FF22C0E6FFD950020FE66E000EDA2027
:10475000E66EA0EC6DF0236E050EE15E2350D9CF1E
:10476000E6FFDACFE6FFD950020FE66E000EDA2040
:10477000E66EDF50E76EFD0EDBCF20F0FE0EDBCFE6
:1047800021F0E7502026000E212220C0E6FF21C0A4
:10479000E6FF62EC0BF0226E060EE15E225000098D
:1047A0000EE0140EE76EFB0EDBCFE9FFFC0EDBCF55
:1047B000EAFFE750E926000EEA22EF687DD0010EFD
:1047C000DB50DF6E480E206ED60E216E226A20C0AE
:1047D000E6FF21C0E6FF22C0E6FFD950020FE66ED9
:1047E000000EDA20E66EA0EC6DF0236E050EE15EA1
:1047F0002350D9CFE6FFDACFE6FFD950020FE66E9D
:10480000000EDA20E66EDF50E76EFD0EDBCF20F003
:10481000FE0EDBCF21F0E7502026000E212220C023
:10482000E6FF21C0E6FF62EC0BF0226E060EE15EB1
:10483000225000090FE0140EE76EFB0EDBCFE9FFFC
:10484000FC0EDBCFEAFFE750E926000EEA22EE0E6F
:10485000EF6E32D0010EDB50DF6ED9CFE6FFDACF3C
:10486000E6FF140EE76EFB0EDBCF20F0FC0EDBCF75
:1048700021F0E7502026000E212220C0E6FF21C0B3
:10488000E6FFDF50E76EFD0EDBCF22F0FE0EDBCF42
:1048900023F0E7502226000E232222C0E6FF23C089
:1048A000E6FF59EC0CF0246E060EE15E2450000980
:1048B00003E1000E89EF29F0010EDFCFDBFF430E8D
:1048C000206ED60E216E226A20C0E6FF21C0E6FFD0
:1048D00022C0E6FFD950020FE66E000EDA20E66E27
:1048E000A0EC6DF0236E050EE15E2350D9CFE6FFFC
:1048F000DACFE6FFD950020FE66E000EDA20E66E40
:10490000DF50E76EFD0EDBCF20F0FE0EDBCF21F097
:10491000E7502026000E212220C0E6FF21C0E6FF3E
:1049200062EC0BF0226E060EE15E225000090FE0F1
:10493000150EE76EFB0EDBCFE9FFFC0EDBCFEAFFC7
:10494000E750E926000EEA22130EEF6E4ED0010E5C
:10495000DB50DF6E3E0E206ED60E216E226A20C026
:10496000E6FF21C0E6FF22C0E6FFD950020FE66E47
:10497000000EDA20E66EA0EC6DF0236E050EE15E0F
:104980002350D9CFE6FFDACFE6FFD950020FE66E0B
:10499000000EDA20E66EDF50E76EFD0EDBCF20F072
:1049A000FE0EDBCF21F0E7502026000E212220C092
:1049B000E6FF21C0E6FF62EC0BF0226E060EE15E20
:1049C000225000090FE0150EE76EFB0EDBCFE9FF6A
:1049D000FC0EDBCFEAFFE750E926000EEA22140EB8
:1049E000EF6E03D0000E89EF29F0360E206ED60E42
:1049F000216E226A20C0E6FF21C0E6FF22C0E6FF4A
:104A0000D950020FE66E000EDA20E66EA0EC6DF0D3
:104A1000236E050EE15E2350D9CFE6FFDACFE6FF25
:104A2000D950020FE66E000EDA20E66EDF50E76E18
:104A3000FD0EDBCF20F0FE0EDBCF21F0E75020266D
:104A4000000E212220C0E6FF21C0E6FF62EC0BF041
:104A5000226E060EE15E2250000903E1000E89EF8E
:104A600029F0010EDFCFDBFF4E0E206ED60E216E39
:104A7000226A20C0E6FF21C0E6FF22C0E6FFD9502F
:104A8000020FE66E000EDA20E66EA0EC6DF0236EEB
:104A9000050EE15E2350D9CFE6FFDACFE6FFD9500D
:104AA000020FE66E000EDA20E66EDF50E76EFD0EB6
:104AB000DBCF20F0FE0EDBCF21F0E7502026000EEA
:104AC000212220C0E6FF21C0E6FF62EC0BF0226E3F
:104AD000060EE15E225000090EE0160EE76EFB0E98
:104AE000DBCFE9FFFC0EDBCFEAFFE750E926000E43
:104AF000EA22EF687CD0010EDB50DF6E480E206E9C
:104B0000D60E216E226A20C0E6FF21C0E6FF22C039
:104B1000E6FFD950020FE66E000EDA20E66EA0EC3A
:104B20006DF0236E050EE15E2350D9CFE6FFDACF9C
:104B3000E6FFD950020FE66E000EDA20E66EDF5077
:104B4000E76EFD0EDBCF20F0FE0EDBCF21F0E7504D
:104B50002026000E212220C0E6FF21C0E6FF62ECE5
:104B60000BF0226E060EE15E225000090FE0160ED9
:104B7000E76EFB0EDBCFE9FFFC0EDBCFEAFFE75071
:104B8000E926000EEA22EE0EEF6E31D0010EDB5068
:104B9000DF6ED9CFE6FFDACFE6FF160EE76EFB0E2B
:104BA000DBCF20F0FC0EDBCF21F0E7502026000EFB
:104BB000212220C0E6FF21C0E6FFDF50E76EFD0E98
:104BC000DBCF22F0FE0EDBCF23F0E7502226000ED3
:104BD000232222C0E6FF23C0E6FF59EC0CF0246E2E
:104BE000060EE15E2450000902E1000E92D302019C
:104BF0006A6B010E8ED3010EDB50DF6E2E0E206E1F
:104C0000D60E216E226A20C0E6FF21C0E6FF22C038
:104C1000E6FFD950020FE66E000EDA20E66EA0EC39
:104C20006DF0236E050EE15E2350D9CFE6FFDACF9B
:104C3000E6FFD950020FE66E000EDA20E66EDF5076
:104C4000E76EFD0EDBCF20F0FE0EDBCF21F0E7504C
:104C50002026000E212220C0E6FF21C0E6FF62ECE4
:104C60000BF0226E060EE15E2250000920E0170EC6
:104C7000E76EFB0EDBCFE9FFFC0EDBCFEAFFE75070
:104C8000E926000EEA22010EEF6E180EE76EFB0E0B
:104C9000DBCFE9FFFC0EDBCFEAFFE750E926000E91
:104CA000EA222E0EEF6E02016A6B010E32D3010E64
:104CB000DB50DF6E270E206ED60E216E226A20C0DA
:104CC000E6FF21C0E6FF22C0E6FFD950020FE66EE4
:104CD000000EDA20E66EA0EC6DF0236E050EE15EAC
:104CE0002350D9CFE6FFDACFE6FFD950020FE66EA8
:104CF000000EDA20E66EDF50E76EFD0EDBCF20F00F
:104D0000FE0EDBCF21F0E7502026000E212220C02E
:104D1000E6FF21C0E6FF62EC0BF0226E060EE15EBC
:104D20002250000920E0170EE76EFB0EDBCFE9FFF3
:104D3000FC0EDBCFEAFFE750E926000EEA22010E67
:104D4000EF6E180EE76EFB0EDBCFE9FFFC0EDBCF3C
:104D5000EAFFE750E926000EEA222B0EEF6E020171
:104D60006A6B010ED6D2010EDB50DF6E1D0E206E77
:104D7000D60E216E226A20C0E6FF21C0E6FF22C0C7
:104D8000E6FFD950020FE66E000EDA20E66EA0ECC8
:104D90006DF0236E050EE15E2350D9CFE6FFDACF2A
:104DA000E6FFD950020FE66E000EDA20E66EDF5005
:104DB000E76EFD0EDBCF20F0FE0EDBCF21F0E750DB
:104DC0002026000E212220C0E6FF21C0E6FF62EC73
:104DD0000BF0226E060EE15E2250000920E0170E55
:104DE000E76EFB0EDBCFE9FFFC0EDBCFEAFFE750FF
:104DF000E926000EEA22010EEF6E180EE76EFB0E9A
:104E0000DBCFE9FFFC0EDBCFEAFFE750E926000E1F
:104E1000EA222C0EEF6E02016A6B010E7AD2010EAD
:104E2000DB50DF6EAA0E206ED60E216E226A20C0E5
:104E3000E6FF21C0E6FF22C0E6FFD950020FE66E72
:104E4000000EDA20E66EA0EC6DF0236E050EE15E3A
:104E50002350D9CFE6FFDACFE6FFD950020FE66E36
:104E6000000EDA20E66EDF50E76EFD0EDBCF20F09D
:104E7000FE0EDBCF21F0E7502026000E212220C0BD
:104E8000E6FF21C0E6FF62EC0BF0226E060EE15E4B
:104E9000225000096EE0190EE76EFB0EDBCFE9FF32
:104EA000FC0EDBCFEAFFE750E926000EEA22010EF6
:104EB000EF6ED9CFE6FFDACFE6FF1A0EE76EFB0EF4
:104EC000DBCF20F0FC0EDBCF21F0E7502026000ED8
:104ED000212220C0E6FF21C0E6FFDF50E76EFD0E75
:104EE000DBCF22F0FE0EDBCF23F0E7502226000EB0
:104EF000232222C0E6FF23C0E6FF59EC0CF0246E0B
:104F0000060EE15E2450000902E1000E02D2D9CF64
:104F1000E6FFDACFE6FF1B0EE76EFB0EDBCF20F0DD
:104F2000FC0EDBCF21F0E7502026000E212220C00E
:104F3000E6FF21C0E6FFDF50E76EFD0EDBCF22F07B
:104F4000FE0EDBCF23F0E7502226000E232222C0E4
:104F5000E6FF23C0E6FF59EC0CF0246E060EE15E7E
:104F60002450000902E1000ED4D102016A6B010E47
:104F7000D0D1010EDB50DF6E0F0E206ED60E216EEB
:104F8000226A20C0E6FF21C0E6FF22C0E6FFD9501A
:104F9000020FE66E000EDA20E66EA0EC6DF0236ED6
:104FA000050EE15E2350D9CFE6FFDACFE6FFD950F8
:104FB000020FE66E000EDA20E66EDF50E76EFD0EA1
:104FC000DBCF20F0FE0EDBCF21F0E7502026000ED5
:104FD000212220C0E6FF21C0E6FF62EC0BF0226E2A
:104FE000060EE15E2250000911E01C0EE76EFB0E7A
:104FF000DBCFE9FFFC0EDBCFEAFFE750E926000E2E
:10500000EA22010EEF6E02016A6B83D1010EDB50C2
:10501000DF6E090E206ED60E216E226A20C0E6FFDA
:1050200021C0E6FF22C0E6FFD950020FE66E000E57
:10503000DA20E66EA0EC6DF0236E050EE15E2350E3
:10504000D9CFE6FFDACFE6FFD950020FE66E000EA9
:10505000DA20E66EDF50E76EFD0EDBCF20F0FE0EAD
:10506000DBCF21F0E7502026000E212220C0E6FFF2
:1050700021C0E6FF62EC0BF0226E060EE15E2250CC
:10508000000911E01D0EE76EFB0EDBCFE9FFFC0E01
:10509000DBCFEAFFE750E926000EEA22010EEF6EB1
:1050A00002016A6B36D1010EDB50DF6E030E206EFB
:1050B000D60E216E226A20C0E6FF21C0E6FF22C084
:1050C000E6FFD950020FE66E000EDA20E66EA0EC85
:1050D0006DF0236E050EE15E2350D9CFE6FFDACFE7
:1050E000E6FFD950020FE66E000EDA20E66EDF50C2
:1050F000E76EFD0EDBCF20F0FE0EDBCF21F0E75098
:105100002026000E212220C0E6FF21C0E6FF62EC2F
:105110000BF0226E060EE15E2250000911E01E0E19
:10512000E76EFB0EDBCFE9FFFC0EDBCFEAFFE750BB
:10513000E926000EEA22010EEF6E02016A6BE9D049
:10514000010EDB50DF6EFD0E206ED50E216E226A41
:1051500020C0E6FF21C0E6FF22C0E6FFD950020FC3
:10516000E66E000EDA20E66EA0EC6DF0236E050E02
:10517000E15E2350D9CFE6FFDACFE6FFD950020F28
:10518000E66E000EDA20E66EDF50E76EFD0EDBCF36
:1051900020F0FE0EDBCF21F0E7502026000E21226A
:1051A00020C0E6FF21C0E6FF62EC0BF0226E060E87
:1051B000E15E2250000911E01F0EE76EFB0EDBCF0F
:1051C000E9FFFC0EDBCFEAFFE750E926000EEA22FA
:1051D000010EEF6E02016A6B9CD0010EDB50DF6E98
:1051E000F50E206ED50E216E226A20C0E6FF21C08A
:1051F000E6FF22C0E6FFD950020FE66E000EDA206D
:10520000E66EA0EC6DF0236E050EE15E2350D9CF63
:10521000E6FFDACFE6FFD950020FE66E000EDA2085
:10522000E66EDF50E76EFD0EDBCF20F0FE0EDBCF2B
:1052300021F0E7502026000E212220C0E6FF21C0E9
:10524000E6FF62EC0BF0226E060EE15E22500009D2
:1052500011E0200EE76EFB0EDBCFE9FFFC0EDBCF8B
:10526000EAFFE750E926000EEA22010EEF6E020186
:105270006A6B4FD0010EDB50DF6EF00E206ED50E44
:10528000216E226A20C0E6FF21C0E6FF22C0E6FFB1
:10529000D950020FE66E000EDA20E66EA0EC6DF03B
:1052A000236E050EE15E2350D9CFE6FFDACFE6FF8D
:1052B000D950020FE66E000EDA20E66EDF50E76E80
:1052C000FD0EDBCF20F0FE0EDBCF21F0E7502026D5
:1052D000000E212220C0E6FF21C0E6FF62EC0BF0A9
:1052E000226E060EE15E2250000911E0210EE76EEB
:1052F000FB0EDBCFE9FFFC0EDBCFEAFFE750E92630
:10530000000EEA22010EEF6E02016A6B02D0000E5F
:1053100000D0206E0E0EE15C02E2E16AE552E16E21
:105320002050E552E7CFD9FF1200D9CFE6FFE1CFF9
:10533000D9FF030EE126010EDB6ADF6A620EDF5C35
:1053400009E2DF50EA6A220FE96E070EEA22EF6AED
:10535000DF2AF4D7DF6A4E0EDF5C59E2DF50E76EDA
:10536000FD0EDBCFE9FFFE0EDBCFEAFFE750E926BB
:10537000000EEA22EF5001E14AD0020EDB6ADF5054
:10538000E76EFD0EDBCFE9FFFE0EDBCFEAFFE75055
:10539000E926000EEA22EF50F36E020EDBCFF4FF97
:1053A000F350F45C31E2620EF36E010EDBCFF4FFDA
:1053B000F350F45C0BE3FD0EDBCFE6FFFE0EDBCF1C
:1053C000E6FF27D9E552E552000E40D0DF28E76E10
:1053D000FD0EDBCFE9FFFE0EDBCFEAFFE750E9264B
:1053E000000EEA22EF50E66E010EDBCFF3FFDB2A60
:1053F000F350EA6A220FE96E070EEA22E552E750FF
:10540000EF6E020EDB2ABBD7020EDF26A4D7DF6ABF
:10541000620EDF5C19E2DF50EA6A220FE96E070EC6
:10542000EA22EF50E66EDF50E76EFD0EDBCFE9FFBC
:10543000FE0EDBCFEAFFE750E926000EEA22E55236
:10544000E750EF6EDF2AE4D7010E00D0206E030E86
:10545000E15C02E2E16AE552E16E2050E552E7CFFD
:10546000D9FF1200D9CFE6FFE1CFD9FF040EE12624
:10547000010EDB6ADF6AFD0EDBCFE9FFFE0EDBCF3C
:10548000EAFF030EEFCFDBFF020EDB6A620EF36E64
:10549000010EDBCFF4FFF350F45C6EE2010EDB5043
:1054A000E76EFD0EDBCFE9FFFE0EDBCFEAFFE75034
:1054B000E926000EEA22EFCF20F0030EDB50205C3D
:1054C0000EE1020EDB2A010EDB2A620EF36E010EE4
:1054D000DBCFF4FFF350F45C01E301D0DFD74F0ED4
:1054E000DF5C17E2600EDF5C14E2DF50DF2AEA6A5D
:1054F000220FE96E070EEA22020EDBCFEFFFDF502C
:10550000DF2AEA6A220FE96E070EEA22030EDBCFDA
:10551000EFFF500EDF5C1DE3010EDB6A620EF36EDF
:10552000010EDBCFF4FFF350F45C11E2010EDB500F
:10553000E76EFD0EDBCFE9FFFE0EDBCFEAFFE750A3
:10554000E926000EEA22EF6A010EDB2AE7D7000EF9
:1055500054D0010EDB50E76EFD0EDBCFE9FFFE0EEF
:10556000DBCFEAFFE750E926000EEA22030EEFCF79
:10557000DBFF020EDB6A8AD7010EDB6ADF50F36EB7
:10558000010EDBCFF4FFF350F45C1CE2010EDB50A4
:10559000EA6A220FE96E070EEA22EF50E66E010E6C
:1055A000DB50E76EFD0EDBCFE9FFFE0EDBCFEAFF3F
:1055B000E750E926000EEA22E552E750EF6E010EB1
:1055C000DB2ADCD7620EF36E010EDBCFF4FFF35063
:1055D000F45C11E2010EDB50E76EFD0EDBCFE9FF5C
:1055E000FE0EDBCFEAFFE750E926000EEA22EF6A63
:1055F000010EDB2AE7D7DF5000D0206E040EE15CFD
:1056000002E2E16AE552E16E2050E552E7CFD9FFB0
:105610001200D9CFE6FFE1CFD9FFE652DF6A620E72
:10562000DF5C0FE2DF50E76EFD0EDBCFE9FFFE0E21
:10563000DBCFEAFFE750E926000EEA22EF6ADF2A15
:10564000EED7E552E552E7CFD9FF1200D9CFE6FFFA
:10565000E1CFD9FFE65202016951F36EFE0EDBCFB6
:10566000F4FFF350F45C04E3150E6A6F000E31D0C2
:10567000DF6A0F0EDF5C2AE2020169510F0DF3CFE2
:1056800022F0F4CF23F0840E2226070E2322DF50CF
:105690000F012224E96E000E2320EA6EEF50E66E21
:1056A000FE0EDB500F0DF3CF20F0F4CF21F0840E6F
:1056B0002026070E2122DF502024E96E000E212033
:1056C000EA6EE552E750EF6EDF2AD3D759EC06F0C9
:1056D00000D0E552E552E7CFD9FF1200D9CFE6FF5F
:1056E000E1CFD9FF050EE126640EF36EFE0EDBCF8F
:1056F000F4FFF350F45C06E30201110E6A6F000E32
:105700004CEF30F02C0EE76EFC0EDBCFE9FFFD0E08
:10571000DBCFEAFFE750E926000EEA22EF046DE155
:10572000FE0EDB500F0DF3CFE9FFF4CFEAFF840E3E
:10573000E926070EEA22EF6A2D0EE76EFC0EDBCF9C
:10574000E9FFFD0EDBCFEAFFE750E926000EEA2273
:10575000EF50E66EFE0EDB500F0DF3CFE9FFF4CFF6
:10576000EAFF840EE926070EEA22010EE926000E62
:10577000EA22E552E750EF6E2E0EE76EFC0EDBCF0D
:10578000E9FFFD0EDBCFEAFFE750E926000EEA2233
:10579000EF50E66EFE0EDB500F0DF3CFE9FFF4CFB6
:1057A000EAFF840EE926070EEA22020EE926000E21
:1057B000EA22E552E750EF6E2F0EE76EFC0EDBCFCC
:1057C000E9FFFD0EDBCFEAFFE750E926000EEA22F3
:1057D000EF50E66EFE0EDB500F0DF3CFE9FFF4CF76
:1057E000EAFF840EE926070EEA22030EE926000EE0
:1057F000EA22E552E750EF6ED7D0300EE76EFC0E8E
:10580000DBCFE9FFFD0EDBCFEAFFE750E926000E14
:10581000EA22EF044EE1FE0EDB500F0DF3CFE9FF5D
:10582000F4CFEAFF840EE926070EEA22010EEF6E9E
:10583000310EE76EFC0EDBCFE9FFFD0EDBCFEAFF9A
:10584000E750E926000EEA22EF50E66EFE0EDB502E
:105850000F0DF3CFE9FFF4CFEAFF840EE926070E20
:10586000EA22010EE926000EEA22E552E750EF6E29
:10587000320EE76EFC0EDBCFE9FFFD0EDBCFEAFF59
:10588000E750E926000EEA22EF50E66EFE0EDB50EE
:105890000F0DF3CFE9FFF4CFEAFF840EE926070EE0
:1058A000EA22020EE926000EEA22E552E750EF6EE8
:1058B0007BD0330EE76EFC0EDBCFE9FFFD0EDBCFB6
:1058C000EAFFE750E926000EEA22EF046DE1FE0E42
:1058D000DB500F0DF3CFE9FFF4CFEAFF840EE9268A
:1058E000070EEA22020EEF6E340EE76EFC0EDBCFDF
:1058F000E9FFFD0EDBCFEAFFE750E926000EEA22C2
:10590000EF50E66EFE0EDB500F0DF3CFE9FFF4CF44
:10591000EAFF840EE926070EEA22010EE926000EB0
:10592000EA22E552E750EF6E350EE76EFC0EDBCF54
:10593000E9FFFD0EDBCFEAFFE750E926000EEA2281
:10594000EF50E66EFE0EDB500F0DF3CFE9FFF4CF04
:10595000EAFF840EE926070EEA22020EE926000E6F
:10596000EA22E552E750EF6E360EE76EFC0EDBCF13
:10597000E9FFFD0EDBCFEAFFE750E926000EEA2241
:10598000EF50E66EFE0EDB500F0DF3CFE9FFF4CFC4
:10599000EAFF840EE926070EEA22030EE926000E2E
:1059A000EA22E552E750EF6E370EE76EFC0EDBCFD2
:1059B000E9FFFD0EDBCFEAFFE750E926000EEA2201
:1059C000EF0451E1FE0EDB500F0DF3CFE9FFF4CFF2
:1059D000EAFF840EE926070EEA22040EE926000EED
:1059E000EA22EF6A380EE76EFC0EDBCFE9FFFD0E10
:1059F000DBCFEAFFE750E926000EEA22EF50E66E21
:105A0000FE0EDB500F0DF3CFE9FFF4CFEAFF840E5B
:105A1000E926070EEA22050EE926000EEA22E552E3
:105A2000E750EF6E390EE76EFC0EDBCFE9FFFD0E9F
:105A3000DBCFEAFFE750E926000EEA22EF50E66EE0
:105A4000FE0EDB500F0DF3CFE9FFF4CFEAFF840E1B
:105A5000E926070EEA22060EE926000EEA22E552A2
:105A6000E750EF6E80D23A0EE76EFC0EDBCFE9FF17
:105A7000FD0EDBCFEAFFE750E926000EEA22EF0435
:105A800052E1FE0EDB500F0DF3CFE9FFF4CFEAFF3A
:105A9000840EE926070EEA22040EE926000EEA2209
:105AA000010EEF6E3B0EE76EFC0EDBCFE9FFFD0E45
:105AB000DBCFEAFFE750E926000EEA22EF50E66E60
:105AC000FE0EDB500F0DF3CFE9FFF4CFEAFF840E9B
